{
	"contracts/RentContract.sol": {
		"RentMannagementSystem": {
			"abi": [
				{
					"inputs": [
						{
							"internalType": "string",
							"name": "_propertyAddress",
							"type": "string"
						},
						{
							"internalType": "string",
							"name": "_propertyType",
							"type": "string"
						}
					],
					"name": "addProperty",
					"outputs": [],
					"stateMutability": "nonpayable",
					"type": "function"
				},
				{
					"inputs": [
						{
							"internalType": "uint256",
							"name": "",
							"type": "uint256"
						}
					],
					"name": "contractInformations",
					"outputs": [
						{
							"internalType": "address",
							"name": "ownerAddress",
							"type": "address"
						},
						{
							"internalType": "address",
							"name": "tenantAddress",
							"type": "address"
						},
						{
							"internalType": "string",
							"name": "propertyAddress",
							"type": "string"
						},
						{
							"internalType": "string",
							"name": "propertyType",
							"type": "string"
						},
						{
							"internalType": "uint256",
							"name": "contractStartDate",
							"type": "uint256"
						},
						{
							"internalType": "uint256",
							"name": "contractFinishDate",
							"type": "uint256"
						},
						{
							"internalType": "bool",
							"name": "validityStatus",
							"type": "bool"
						},
						{
							"internalType": "bool",
							"name": "earlyTerminate",
							"type": "bool"
						}
					],
					"stateMutability": "view",
					"type": "function"
				},
				{
					"inputs": [
						{
							"internalType": "address",
							"name": "_tenantAddress",
							"type": "address"
						},
						{
							"internalType": "string",
							"name": "_propertyAddress",
							"type": "string"
						},
						{
							"internalType": "string",
							"name": "_propertyType",
							"type": "string"
						},
						{
							"internalType": "uint256",
							"name": "_contractStartDate",
							"type": "uint256"
						},
						{
							"internalType": "uint256",
							"name": "_contractFinishDate",
							"type": "uint256"
						}
					],
					"name": "contractStart",
					"outputs": [],
					"stateMutability": "nonpayable",
					"type": "function"
				},
				{
					"inputs": [
						{
							"internalType": "string",
							"name": "_name",
							"type": "string"
						},
						{
							"internalType": "bool",
							"name": "_isOwner",
							"type": "bool"
						}
					],
					"name": "createUser",
					"outputs": [],
					"stateMutability": "nonpayable",
					"type": "function"
				},
				{
					"inputs": [
						{
							"internalType": "string",
							"name": "",
							"type": "string"
						}
					],
					"name": "propertyInformations",
					"outputs": [
						{
							"internalType": "address",
							"name": "ownerAddress",
							"type": "address"
						},
						{
							"internalType": "string",
							"name": "propertyAddress",
							"type": "string"
						},
						{
							"internalType": "string",
							"name": "propertyType",
							"type": "string"
						},
						{
							"internalType": "bool",
							"name": "contractValidityStatus",
							"type": "bool"
						}
					],
					"stateMutability": "view",
					"type": "function"
				},
				{
					"inputs": [
						{
							"internalType": "address",
							"name": "",
							"type": "address"
						}
					],
					"name": "userInformations",
					"outputs": [
						{
							"internalType": "string",
							"name": "Name",
							"type": "string"
						},
						{
							"internalType": "address",
							"name": "UserAddress",
							"type": "address"
						},
						{
							"internalType": "bool",
							"name": "isOwner",
							"type": "bool"
						}
					],
					"stateMutability": "view",
					"type": "function"
				}
			],
			"devdoc": {
				"kind": "dev",
				"methods": {},
				"version": 1
			},
			"evm": {
				"assembly": "    /* \"contracts/RentContract.sol\":66:2717  contract RentMannagementSystem {... */\n  mstore(0x40, 0x80)\n  callvalue\n  dup1\n  iszero\n  tag_1\n  jumpi\n  0x00\n  dup1\n  revert\ntag_1:\n  pop\n  dataSize(sub_0)\n  dup1\n  dataOffset(sub_0)\n  0x00\n  codecopy\n  0x00\n  return\nstop\n\nsub_0: assembly {\n        /* \"contracts/RentContract.sol\":66:2717  contract RentMannagementSystem {... */\n      mstore(0x40, 0x80)\n      callvalue\n      dup1\n      iszero\n      tag_1\n      jumpi\n      0x00\n      dup1\n      revert\n    tag_1:\n      pop\n      jumpi(tag_2, lt(calldatasize, 0x04))\n      shr(0xe0, calldataload(0x00))\n      dup1\n      0x16dd85da\n      eq\n      tag_3\n      jumpi\n      dup1\n      0x86584e27\n      eq\n      tag_4\n      jumpi\n      dup1\n      0x91e7f13a\n      eq\n      tag_5\n      jumpi\n      dup1\n      0xcbd24093\n      eq\n      tag_6\n      jumpi\n      dup1\n      0xe545248d\n      eq\n      tag_7\n      jumpi\n      dup1\n      0xeea57141\n      eq\n      tag_8\n      jumpi\n    tag_2:\n      0x00\n      dup1\n      revert\n        /* \"contracts/RentContract.sol\":693:741  mapping(address => User) public userInformations */\n    tag_3:\n      tag_9\n      0x04\n      dup1\n      calldatasize\n      sub\n      dup2\n      add\n      swap1\n      tag_10\n      swap2\n      swap1\n      tag_11\n      jump\t// in\n    tag_10:\n      tag_12\n      jump\t// in\n    tag_9:\n      mload(0x40)\n      tag_13\n      swap4\n      swap3\n      swap2\n      swap1\n      tag_14\n      jump\t// in\n    tag_13:\n      mload(0x40)\n      dup1\n      swap2\n      sub\n      swap1\n      return\n        /* \"contracts/RentContract.sol\":872:1191  function createUser(string memory _name, bool _isOwner) public {... */\n    tag_4:\n      tag_15\n      0x04\n      dup1\n      calldatasize\n      sub\n      dup2\n      add\n      swap1\n      tag_16\n      swap2\n      swap1\n      tag_17\n      jump\t// in\n    tag_16:\n      tag_18\n      jump\t// in\n    tag_15:\n      stop\n        /* \"contracts/RentContract.sol\":747:802  mapping(string => Property) public propertyInformations */\n    tag_5:\n      tag_19\n      0x04\n      dup1\n      calldatasize\n      sub\n      dup2\n      add\n      swap1\n      tag_20\n      swap2\n      swap1\n      tag_21\n      jump\t// in\n    tag_20:\n      tag_22\n      jump\t// in\n    tag_19:\n      mload(0x40)\n      tag_23\n      swap5\n      swap4\n      swap3\n      swap2\n      swap1\n      tag_24\n      jump\t// in\n    tag_23:\n      mload(0x40)\n      dup1\n      swap2\n      sub\n      swap1\n      return\n        /* \"contracts/RentContract.sol\":808:865  mapping(uint => RentContract) public contractInformations */\n    tag_6:\n      tag_25\n      0x04\n      dup1\n      calldatasize\n      sub\n      dup2\n      add\n      swap1\n      tag_26\n      swap2\n      swap1\n      tag_27\n      jump\t// in\n    tag_26:\n      tag_28\n      jump\t// in\n    tag_25:\n      mload(0x40)\n      tag_29\n      swap9\n      swap8\n      swap7\n      swap6\n      swap5\n      swap4\n      swap3\n      swap2\n      swap1\n      tag_30\n      jump\t// in\n    tag_29:\n      mload(0x40)\n      dup1\n      swap2\n      sub\n      swap1\n      return\n        /* \"contracts/RentContract.sol\":1197:1939  function addProperty(string memory _propertyAddress, string memory _propertyType) public {... */\n    tag_7:\n      tag_31\n      0x04\n      dup1\n      calldatasize\n      sub\n      dup2\n      add\n      swap1\n      tag_32\n      swap2\n      swap1\n      tag_33\n      jump\t// in\n    tag_32:\n      tag_34\n      jump\t// in\n    tag_31:\n      stop\n        /* \"contracts/RentContract.sol\":1945:2715  function contractStart(address _tenantAddress, string memory _propertyAddress, string memory _propertyType, uint _contractStartDate, uint _contractFinishDate) public {... */\n    tag_8:\n      tag_35\n      0x04\n      dup1\n      calldatasize\n      sub\n      dup2\n      add\n      swap1\n      tag_36\n      swap2\n      swap1\n      tag_37\n      jump\t// in\n    tag_36:\n      tag_38\n      jump\t// in\n    tag_35:\n      stop\n        /* \"contracts/RentContract.sol\":693:741  mapping(address => User) public userInformations */\n    tag_12:\n      mstore(0x20, 0x00)\n      dup1\n      0x00\n      mstore\n      keccak256(0x00, 0x40)\n      0x00\n      swap2\n      pop\n      swap1\n      pop\n      dup1\n      0x00\n      add\n      dup1\n      sload\n      tag_39\n      swap1\n      tag_40\n      jump\t// in\n    tag_39:\n      dup1\n      0x1f\n      add\n      0x20\n      dup1\n      swap2\n      div\n      mul\n      0x20\n      add\n      mload(0x40)\n      swap1\n      dup2\n      add\n      0x40\n      mstore\n      dup1\n      swap3\n      swap2\n      swap1\n      dup2\n      dup2\n      mstore\n      0x20\n      add\n      dup3\n      dup1\n      sload\n      tag_41\n      swap1\n      tag_40\n      jump\t// in\n    tag_41:\n      dup1\n      iszero\n      tag_42\n      jumpi\n      dup1\n      0x1f\n      lt\n      tag_43\n      jumpi\n      0x0100\n      dup1\n      dup4\n      sload\n      div\n      mul\n      dup4\n      mstore\n      swap2\n      0x20\n      add\n      swap2\n      jump(tag_42)\n    tag_43:\n      dup3\n      add\n      swap2\n      swap1\n      0x00\n      mstore\n      keccak256(0x00, 0x20)\n      swap1\n    tag_44:\n      dup2\n      sload\n      dup2\n      mstore\n      swap1\n      0x01\n      add\n      swap1\n      0x20\n      add\n      dup1\n      dup4\n      gt\n      tag_44\n      jumpi\n      dup3\n      swap1\n      sub\n      0x1f\n      and\n      dup3\n      add\n      swap2\n    tag_42:\n      pop\n      pop\n      pop\n      pop\n      pop\n      swap1\n      dup1\n      0x01\n      add\n      0x00\n      swap1\n      sload\n      swap1\n      0x0100\n      exp\n      swap1\n      div\n      0xffffffffffffffffffffffffffffffffffffffff\n      and\n      swap1\n      dup1\n      0x01\n      add\n      0x14\n      swap1\n      sload\n      swap1\n      0x0100\n      exp\n      swap1\n      div\n      0xff\n      and\n      swap1\n      pop\n      dup4\n      jump\t// out\n        /* \"contracts/RentContract.sol\":872:1191  function createUser(string memory _name, bool _isOwner) public {... */\n    tag_18:\n        /* \"contracts/RentContract.sol\":1076:1077  0 */\n      0x00\n        /* \"contracts/RentContract.sol\":1024:1078  userInformations[msg.sender].UserAddress == address(0) */\n      0xffffffffffffffffffffffffffffffffffffffff\n      and\n        /* \"contracts/RentContract.sol\":1024:1040  userInformations */\n      0x00\n        /* \"contracts/RentContract.sol\":1024:1052  userInformations[msg.sender] */\n      dup1\n        /* \"contracts/RentContract.sol\":1041:1051  msg.sender */\n      caller\n        /* \"contracts/RentContract.sol\":1024:1052  userInformations[msg.sender] */\n      0xffffffffffffffffffffffffffffffffffffffff\n      and\n      0xffffffffffffffffffffffffffffffffffffffff\n      and\n      dup2\n      mstore\n      0x20\n      add\n      swap1\n      dup2\n      mstore\n      0x20\n      add\n      0x00\n      keccak256\n        /* \"contracts/RentContract.sol\":1024:1064  userInformations[msg.sender].UserAddress */\n      0x01\n      add\n      0x00\n      swap1\n      sload\n      swap1\n      0x0100\n      exp\n      swap1\n      div\n      0xffffffffffffffffffffffffffffffffffffffff\n      and\n        /* \"contracts/RentContract.sol\":1024:1078  userInformations[msg.sender].UserAddress == address(0) */\n      0xffffffffffffffffffffffffffffffffffffffff\n      and\n      eq\n        /* \"contracts/RentContract.sol\":1016:1109  require(userInformations[msg.sender].UserAddress == address(0), \"User is already registered\") */\n      tag_46\n      jumpi\n      mload(0x40)\n      0x08c379a000000000000000000000000000000000000000000000000000000000\n      dup2\n      mstore\n      0x04\n      add\n      tag_47\n      swap1\n      tag_48\n      jump\t// in\n    tag_47:\n      mload(0x40)\n      dup1\n      swap2\n      sub\n      swap1\n      revert\n    tag_46:\n        /* \"contracts/RentContract.sol\":1151:1184  User(_name, msg.sender, _isOwner) */\n      mload(0x40)\n      dup1\n      0x60\n      add\n      0x40\n      mstore\n      dup1\n        /* \"contracts/RentContract.sol\":1156:1161  _name */\n      dup4\n        /* \"contracts/RentContract.sol\":1151:1184  User(_name, msg.sender, _isOwner) */\n      dup2\n      mstore\n      0x20\n      add\n        /* \"contracts/RentContract.sol\":1163:1173  msg.sender */\n      caller\n        /* \"contracts/RentContract.sol\":1151:1184  User(_name, msg.sender, _isOwner) */\n      0xffffffffffffffffffffffffffffffffffffffff\n      and\n      dup2\n      mstore\n      0x20\n      add\n        /* \"contracts/RentContract.sol\":1175:1183  _isOwner */\n      dup3\n        /* \"contracts/RentContract.sol\":1151:1184  User(_name, msg.sender, _isOwner) */\n      iszero\n      iszero\n      dup2\n      mstore\n      pop\n        /* \"contracts/RentContract.sol\":1120:1136  userInformations */\n      0x00\n        /* \"contracts/RentContract.sol\":1120:1148  userInformations[msg.sender] */\n      dup1\n        /* \"contracts/RentContract.sol\":1137:1147  msg.sender */\n      caller\n        /* \"contracts/RentContract.sol\":1120:1148  userInformations[msg.sender] */\n      0xffffffffffffffffffffffffffffffffffffffff\n      and\n      0xffffffffffffffffffffffffffffffffffffffff\n      and\n      dup2\n      mstore\n      0x20\n      add\n      swap1\n      dup2\n      mstore\n      0x20\n      add\n      0x00\n      keccak256\n        /* \"contracts/RentContract.sol\":1120:1184  userInformations[msg.sender] = User(_name, msg.sender, _isOwner) */\n      0x00\n      dup3\n      add\n      mload\n      dup2\n      0x00\n      add\n      swap1\n      dup2\n      tag_49\n      swap2\n      swap1\n      tag_50\n      jump\t// in\n    tag_49:\n      pop\n      0x20\n      dup3\n      add\n      mload\n      dup2\n      0x01\n      add\n      exp(0x0100, 0x00)\n      dup2\n      sload\n      dup2\n      0xffffffffffffffffffffffffffffffffffffffff\n      mul\n      not\n      and\n      swap1\n      dup4\n      0xffffffffffffffffffffffffffffffffffffffff\n      and\n      mul\n      or\n      swap1\n      sstore\n      pop\n      0x40\n      dup3\n      add\n      mload\n      dup2\n      0x01\n      add\n      exp(0x0100, 0x14)\n      dup2\n      sload\n      dup2\n      0xff\n      mul\n      not\n      and\n      swap1\n      dup4\n      iszero\n      iszero\n      mul\n      or\n      swap1\n      sstore\n      pop\n      swap1\n      pop\n      pop\n        /* \"contracts/RentContract.sol\":872:1191  function createUser(string memory _name, bool _isOwner) public {... */\n      pop\n      pop\n      jump\t// out\n        /* \"contracts/RentContract.sol\":747:802  mapping(string => Property) public propertyInformations */\n    tag_22:\n      0x01\n      dup2\n      dup1\n      mload\n      0x20\n      dup2\n      add\n      dup3\n      add\n      dup1\n      mload\n      dup5\n      dup3\n      mstore\n      0x20\n      dup4\n      add\n      0x20\n      dup6\n      add\n      keccak256\n      dup2\n      dup4\n      mstore\n      dup1\n      swap6\n      pop\n      pop\n      pop\n      pop\n      pop\n      pop\n      0x00\n      swap2\n      pop\n      swap1\n      pop\n      dup1\n      0x00\n      add\n      0x00\n      swap1\n      sload\n      swap1\n      0x0100\n      exp\n      swap1\n      div\n      0xffffffffffffffffffffffffffffffffffffffff\n      and\n      swap1\n      dup1\n      0x01\n      add\n      dup1\n      sload\n      tag_51\n      swap1\n      tag_40\n      jump\t// in\n    tag_51:\n      dup1\n      0x1f\n      add\n      0x20\n      dup1\n      swap2\n      div\n      mul\n      0x20\n      add\n      mload(0x40)\n      swap1\n      dup2\n      add\n      0x40\n      mstore\n      dup1\n      swap3\n      swap2\n      swap1\n      dup2\n      dup2\n      mstore\n      0x20\n      add\n      dup3\n      dup1\n      sload\n      tag_52\n      swap1\n      tag_40\n      jump\t// in\n    tag_52:\n      dup1\n      iszero\n      tag_53\n      jumpi\n      dup1\n      0x1f\n      lt\n      tag_54\n      jumpi\n      0x0100\n      dup1\n      dup4\n      sload\n      div\n      mul\n      dup4\n      mstore\n      swap2\n      0x20\n      add\n      swap2\n      jump(tag_53)\n    tag_54:\n      dup3\n      add\n      swap2\n      swap1\n      0x00\n      mstore\n      keccak256(0x00, 0x20)\n      swap1\n    tag_55:\n      dup2\n      sload\n      dup2\n      mstore\n      swap1\n      0x01\n      add\n      swap1\n      0x20\n      add\n      dup1\n      dup4\n      gt\n      tag_55\n      jumpi\n      dup3\n      swap1\n      sub\n      0x1f\n      and\n      dup3\n      add\n      swap2\n    tag_53:\n      pop\n      pop\n      pop\n      pop\n      pop\n      swap1\n      dup1\n      0x02\n      add\n      dup1\n      sload\n      tag_56\n      swap1\n      tag_40\n      jump\t// in\n    tag_56:\n      dup1\n      0x1f\n      add\n      0x20\n      dup1\n      swap2\n      div\n      mul\n      0x20\n      add\n      mload(0x40)\n      swap1\n      dup2\n      add\n      0x40\n      mstore\n      dup1\n      swap3\n      swap2\n      swap1\n      dup2\n      dup2\n      mstore\n      0x20\n      add\n      dup3\n      dup1\n      sload\n      tag_57\n      swap1\n      tag_40\n      jump\t// in\n    tag_57:\n      dup1\n      iszero\n      tag_58\n      jumpi\n      dup1\n      0x1f\n      lt\n      tag_59\n      jumpi\n      0x0100\n      dup1\n      dup4\n      sload\n      div\n      mul\n      dup4\n      mstore\n      swap2\n      0x20\n      add\n      swap2\n      jump(tag_58)\n    tag_59:\n      dup3\n      add\n      swap2\n      swap1\n      0x00\n      mstore\n      keccak256(0x00, 0x20)\n      swap1\n    tag_60:\n      dup2\n      sload\n      dup2\n      mstore\n      swap1\n      0x01\n      add\n      swap1\n      0x20\n      add\n      dup1\n      dup4\n      gt\n      tag_60\n      jumpi\n      dup3\n      swap1\n      sub\n      0x1f\n      and\n      dup3\n      add\n      swap2\n    tag_58:\n      pop\n      pop\n      pop\n      pop\n      pop\n      swap1\n      dup1\n      0x03\n      add\n      0x00\n      swap1\n      sload\n      swap1\n      0x0100\n      exp\n      swap1\n      div\n      0xff\n      and\n      swap1\n      pop\n      dup5\n      jump\t// out\n        /* \"contracts/RentContract.sol\":808:865  mapping(uint => RentContract) public contractInformations */\n    tag_28:\n      mstore(0x20, 0x02)\n      dup1\n      0x00\n      mstore\n      keccak256(0x00, 0x40)\n      0x00\n      swap2\n      pop\n      swap1\n      pop\n      dup1\n      0x00\n      add\n      0x00\n      swap1\n      sload\n      swap1\n      0x0100\n      exp\n      swap1\n      div\n      0xffffffffffffffffffffffffffffffffffffffff\n      and\n      swap1\n      dup1\n      0x01\n      add\n      0x00\n      swap1\n      sload\n      swap1\n      0x0100\n      exp\n      swap1\n      div\n      0xffffffffffffffffffffffffffffffffffffffff\n      and\n      swap1\n      dup1\n      0x02\n      add\n      dup1\n      sload\n      tag_61\n      swap1\n      tag_40\n      jump\t// in\n    tag_61:\n      dup1\n      0x1f\n      add\n      0x20\n      dup1\n      swap2\n      div\n      mul\n      0x20\n      add\n      mload(0x40)\n      swap1\n      dup2\n      add\n      0x40\n      mstore\n      dup1\n      swap3\n      swap2\n      swap1\n      dup2\n      dup2\n      mstore\n      0x20\n      add\n      dup3\n      dup1\n      sload\n      tag_62\n      swap1\n      tag_40\n      jump\t// in\n    tag_62:\n      dup1\n      iszero\n      tag_63\n      jumpi\n      dup1\n      0x1f\n      lt\n      tag_64\n      jumpi\n      0x0100\n      dup1\n      dup4\n      sload\n      div\n      mul\n      dup4\n      mstore\n      swap2\n      0x20\n      add\n      swap2\n      jump(tag_63)\n    tag_64:\n      dup3\n      add\n      swap2\n      swap1\n      0x00\n      mstore\n      keccak256(0x00, 0x20)\n      swap1\n    tag_65:\n      dup2\n      sload\n      dup2\n      mstore\n      swap1\n      0x01\n      add\n      swap1\n      0x20\n      add\n      dup1\n      dup4\n      gt\n      tag_65\n      jumpi\n      dup3\n      swap1\n      sub\n      0x1f\n      and\n      dup3\n      add\n      swap2\n    tag_63:\n      pop\n      pop\n      pop\n      pop\n      pop\n      swap1\n      dup1\n      0x03\n      add\n      dup1\n      sload\n      tag_66\n      swap1\n      tag_40\n      jump\t// in\n    tag_66:\n      dup1\n      0x1f\n      add\n      0x20\n      dup1\n      swap2\n      div\n      mul\n      0x20\n      add\n      mload(0x40)\n      swap1\n      dup2\n      add\n      0x40\n      mstore\n      dup1\n      swap3\n      swap2\n      swap1\n      dup2\n      dup2\n      mstore\n      0x20\n      add\n      dup3\n      dup1\n      sload\n      tag_67\n      swap1\n      tag_40\n      jump\t// in\n    tag_67:\n      dup1\n      iszero\n      tag_68\n      jumpi\n      dup1\n      0x1f\n      lt\n      tag_69\n      jumpi\n      0x0100\n      dup1\n      dup4\n      sload\n      div\n      mul\n      dup4\n      mstore\n      swap2\n      0x20\n      add\n      swap2\n      jump(tag_68)\n    tag_69:\n      dup3\n      add\n      swap2\n      swap1\n      0x00\n      mstore\n      keccak256(0x00, 0x20)\n      swap1\n    tag_70:\n      dup2\n      sload\n      dup2\n      mstore\n      swap1\n      0x01\n      add\n      swap1\n      0x20\n      add\n      dup1\n      dup4\n      gt\n      tag_70\n      jumpi\n      dup3\n      swap1\n      sub\n      0x1f\n      and\n      dup3\n      add\n      swap2\n    tag_68:\n      pop\n      pop\n      pop\n      pop\n      pop\n      swap1\n      dup1\n      0x04\n      add\n      sload\n      swap1\n      dup1\n      0x05\n      add\n      sload\n      swap1\n      dup1\n      0x06\n      add\n      0x00\n      swap1\n      sload\n      swap1\n      0x0100\n      exp\n      swap1\n      div\n      0xff\n      and\n      swap1\n      dup1\n      0x06\n      add\n      0x01\n      swap1\n      sload\n      swap1\n      0x0100\n      exp\n      swap1\n      div\n      0xff\n      and\n      swap1\n      pop\n      dup9\n      jump\t// out\n        /* \"contracts/RentContract.sol\":1197:1939  function addProperty(string memory _propertyAddress, string memory _propertyType) public {... */\n    tag_34:\n        /* \"contracts/RentContract.sol\":1453:1454  0 */\n      0x00\n        /* \"contracts/RentContract.sol\":1401:1455  userInformations[msg.sender].UserAddress != address(0) */\n      0xffffffffffffffffffffffffffffffffffffffff\n      and\n        /* \"contracts/RentContract.sol\":1401:1417  userInformations */\n      0x00\n        /* \"contracts/RentContract.sol\":1401:1429  userInformations[msg.sender] */\n      dup1\n        /* \"contracts/RentContract.sol\":1418:1428  msg.sender */\n      caller\n        /* \"contracts/RentContract.sol\":1401:1429  userInformations[msg.sender] */\n      0xffffffffffffffffffffffffffffffffffffffff\n      and\n      0xffffffffffffffffffffffffffffffffffffffff\n      and\n      dup2\n      mstore\n      0x20\n      add\n      swap1\n      dup2\n      mstore\n      0x20\n      add\n      0x00\n      keccak256\n        /* \"contracts/RentContract.sol\":1401:1441  userInformations[msg.sender].UserAddress */\n      0x01\n      add\n      0x00\n      swap1\n      sload\n      swap1\n      0x0100\n      exp\n      swap1\n      div\n      0xffffffffffffffffffffffffffffffffffffffff\n      and\n        /* \"contracts/RentContract.sol\":1401:1455  userInformations[msg.sender].UserAddress != address(0) */\n      0xffffffffffffffffffffffffffffffffffffffff\n      and\n      sub\n        /* \"contracts/RentContract.sol\":1393:1474  require(userInformations[msg.sender].UserAddress != address(0), \"User not found\") */\n      tag_72\n      jumpi\n      mload(0x40)\n      0x08c379a000000000000000000000000000000000000000000000000000000000\n      dup2\n      mstore\n      0x04\n      add\n      tag_73\n      swap1\n      tag_74\n      jump\t// in\n    tag_73:\n      mload(0x40)\n      dup1\n      swap2\n      sub\n      swap1\n      revert\n    tag_72:\n        /* \"contracts/RentContract.sol\":1549:1565  userInformations */\n      0x00\n        /* \"contracts/RentContract.sol\":1549:1577  userInformations[msg.sender] */\n      dup1\n        /* \"contracts/RentContract.sol\":1566:1576  msg.sender */\n      caller\n        /* \"contracts/RentContract.sol\":1549:1577  userInformations[msg.sender] */\n      0xffffffffffffffffffffffffffffffffffffffff\n      and\n      0xffffffffffffffffffffffffffffffffffffffff\n      and\n      dup2\n      mstore\n      0x20\n      add\n      swap1\n      dup2\n      mstore\n      0x20\n      add\n      0x00\n      keccak256\n        /* \"contracts/RentContract.sol\":1549:1585  userInformations[msg.sender].isOwner */\n      0x01\n      add\n      0x14\n      swap1\n      sload\n      swap1\n      0x0100\n      exp\n      swap1\n      div\n      0xff\n      and\n        /* \"contracts/RentContract.sol\":1541:1618  require(userInformations[msg.sender].isOwner, \"Tenants can't add properties\") */\n      tag_75\n      jumpi\n      mload(0x40)\n      0x08c379a000000000000000000000000000000000000000000000000000000000\n      dup2\n      mstore\n      0x04\n      add\n      tag_76\n      swap1\n      tag_77\n      jump\t// in\n    tag_76:\n      mload(0x40)\n      dup1\n      swap2\n      sub\n      swap1\n      revert\n    tag_75:\n        /* \"contracts/RentContract.sol\":1791:1792  0 */\n      0x00\n        /* \"contracts/RentContract.sol\":1728:1793  propertyInformations[_propertyAddress].ownerAddress == address(0) */\n      0xffffffffffffffffffffffffffffffffffffffff\n      and\n        /* \"contracts/RentContract.sol\":1728:1748  propertyInformations */\n      0x01\n        /* \"contracts/RentContract.sol\":1749:1765  _propertyAddress */\n      dup4\n        /* \"contracts/RentContract.sol\":1728:1766  propertyInformations[_propertyAddress] */\n      mload(0x40)\n      tag_78\n      swap2\n      swap1\n      tag_79\n      jump\t// in\n    tag_78:\n      swap1\n      dup2\n      mstore\n      0x20\n      add\n      mload(0x40)\n      dup1\n      swap2\n      sub\n      swap1\n      keccak256\n        /* \"contracts/RentContract.sol\":1728:1779  propertyInformations[_propertyAddress].ownerAddress */\n      0x00\n      add\n      0x00\n      swap1\n      sload\n      swap1\n      0x0100\n      exp\n      swap1\n      div\n      0xffffffffffffffffffffffffffffffffffffffff\n      and\n        /* \"contracts/RentContract.sol\":1728:1793  propertyInformations[_propertyAddress].ownerAddress == address(0) */\n      0xffffffffffffffffffffffffffffffffffffffff\n      and\n      eq\n        /* \"contracts/RentContract.sol\":1720:1821  require(propertyInformations[_propertyAddress].ownerAddress == address(0), \"Property already exists\") */\n      tag_80\n      jumpi\n      mload(0x40)\n      0x08c379a000000000000000000000000000000000000000000000000000000000\n      dup2\n      mstore\n      0x04\n      add\n      tag_81\n      swap1\n      tag_82\n      jump\t// in\n    tag_81:\n      mload(0x40)\n      dup1\n      swap2\n      sub\n      swap1\n      revert\n    tag_80:\n        /* \"contracts/RentContract.sol\":1872:1932  Property(msg.sender, _propertyAddress, _propertyType, false) */\n      mload(0x40)\n      dup1\n      0x80\n      add\n      0x40\n      mstore\n      dup1\n        /* \"contracts/RentContract.sol\":1881:1891  msg.sender */\n      caller\n        /* \"contracts/RentContract.sol\":1872:1932  Property(msg.sender, _propertyAddress, _propertyType, false) */\n      0xffffffffffffffffffffffffffffffffffffffff\n      and\n      dup2\n      mstore\n      0x20\n      add\n        /* \"contracts/RentContract.sol\":1893:1909  _propertyAddress */\n      dup4\n        /* \"contracts/RentContract.sol\":1872:1932  Property(msg.sender, _propertyAddress, _propertyType, false) */\n      dup2\n      mstore\n      0x20\n      add\n        /* \"contracts/RentContract.sol\":1911:1924  _propertyType */\n      dup3\n        /* \"contracts/RentContract.sol\":1872:1932  Property(msg.sender, _propertyAddress, _propertyType, false) */\n      dup2\n      mstore\n      0x20\n      add\n        /* \"contracts/RentContract.sol\":1926:1931  false */\n      0x00\n        /* \"contracts/RentContract.sol\":1872:1932  Property(msg.sender, _propertyAddress, _propertyType, false) */\n      iszero\n      iszero\n      dup2\n      mstore\n      pop\n        /* \"contracts/RentContract.sol\":1831:1851  propertyInformations */\n      0x01\n        /* \"contracts/RentContract.sol\":1852:1868  _propertyAddress */\n      dup4\n        /* \"contracts/RentContract.sol\":1831:1869  propertyInformations[_propertyAddress] */\n      mload(0x40)\n      tag_83\n      swap2\n      swap1\n      tag_79\n      jump\t// in\n    tag_83:\n      swap1\n      dup2\n      mstore\n      0x20\n      add\n      mload(0x40)\n      dup1\n      swap2\n      sub\n      swap1\n      keccak256\n        /* \"contracts/RentContract.sol\":1831:1932  propertyInformations[_propertyAddress] = Property(msg.sender, _propertyAddress, _propertyType, false) */\n      0x00\n      dup3\n      add\n      mload\n      dup2\n      0x00\n      add\n      exp(0x0100, 0x00)\n      dup2\n      sload\n      dup2\n      0xffffffffffffffffffffffffffffffffffffffff\n      mul\n      not\n      and\n      swap1\n      dup4\n      0xffffffffffffffffffffffffffffffffffffffff\n      and\n      mul\n      or\n      swap1\n      sstore\n      pop\n      0x20\n      dup3\n      add\n      mload\n      dup2\n      0x01\n      add\n      swap1\n      dup2\n      tag_84\n      swap2\n      swap1\n      tag_50\n      jump\t// in\n    tag_84:\n      pop\n      0x40\n      dup3\n      add\n      mload\n      dup2\n      0x02\n      add\n      swap1\n      dup2\n      tag_85\n      swap2\n      swap1\n      tag_50\n      jump\t// in\n    tag_85:\n      pop\n      0x60\n      dup3\n      add\n      mload\n      dup2\n      0x03\n      add\n      exp(0x0100, 0x00)\n      dup2\n      sload\n      dup2\n      0xff\n      mul\n      not\n      and\n      swap1\n      dup4\n      iszero\n      iszero\n      mul\n      or\n      swap1\n      sstore\n      pop\n      swap1\n      pop\n      pop\n        /* \"contracts/RentContract.sol\":1197:1939  function addProperty(string memory _propertyAddress, string memory _propertyType) public {... */\n      pop\n      pop\n      jump\t// out\n        /* \"contracts/RentContract.sol\":1945:2715  function contractStart(address _tenantAddress, string memory _propertyAddress, string memory _propertyType, uint _contractStartDate, uint _contractFinishDate) public {... */\n    tag_38:\n        /* \"contracts/RentContract.sol\":2181:2182  0 */\n      0x00\n        /* \"contracts/RentContract.sol\":2129:2183  userInformations[msg.sender].UserAddress != address(0) */\n      0xffffffffffffffffffffffffffffffffffffffff\n      and\n        /* \"contracts/RentContract.sol\":2129:2145  userInformations */\n      0x00\n        /* \"contracts/RentContract.sol\":2129:2157  userInformations[msg.sender] */\n      dup1\n        /* \"contracts/RentContract.sol\":2146:2156  msg.sender */\n      caller\n        /* \"contracts/RentContract.sol\":2129:2157  userInformations[msg.sender] */\n      0xffffffffffffffffffffffffffffffffffffffff\n      and\n      0xffffffffffffffffffffffffffffffffffffffff\n      and\n      dup2\n      mstore\n      0x20\n      add\n      swap1\n      dup2\n      mstore\n      0x20\n      add\n      0x00\n      keccak256\n        /* \"contracts/RentContract.sol\":2129:2169  userInformations[msg.sender].UserAddress */\n      0x01\n      add\n      0x00\n      swap1\n      sload\n      swap1\n      0x0100\n      exp\n      swap1\n      div\n      0xffffffffffffffffffffffffffffffffffffffff\n      and\n        /* \"contracts/RentContract.sol\":2129:2183  userInformations[msg.sender].UserAddress != address(0) */\n      0xffffffffffffffffffffffffffffffffffffffff\n      and\n      sub\n        /* \"contracts/RentContract.sol\":2121:2202  require(userInformations[msg.sender].UserAddress != address(0), \"User not found\") */\n      tag_87\n      jumpi\n      mload(0x40)\n      0x08c379a000000000000000000000000000000000000000000000000000000000\n      dup2\n      mstore\n      0x04\n      add\n      tag_88\n      swap1\n      tag_74\n      jump\t// in\n    tag_88:\n      mload(0x40)\n      dup1\n      swap2\n      sub\n      swap1\n      revert\n    tag_87:\n        /* \"contracts/RentContract.sol\":2220:2236  userInformations */\n      0x00\n        /* \"contracts/RentContract.sol\":2220:2248  userInformations[msg.sender] */\n      dup1\n        /* \"contracts/RentContract.sol\":2237:2247  msg.sender */\n      caller\n        /* \"contracts/RentContract.sol\":2220:2248  userInformations[msg.sender] */\n      0xffffffffffffffffffffffffffffffffffffffff\n      and\n      0xffffffffffffffffffffffffffffffffffffffff\n      and\n      dup2\n      mstore\n      0x20\n      add\n      swap1\n      dup2\n      mstore\n      0x20\n      add\n      0x00\n      keccak256\n        /* \"contracts/RentContract.sol\":2220:2256  userInformations[msg.sender].isOwner */\n      0x01\n      add\n      0x14\n      swap1\n      sload\n      swap1\n      0x0100\n      exp\n      swap1\n      div\n      0xff\n      and\n        /* \"contracts/RentContract.sol\":2212:2295  require(userInformations[msg.sender].isOwner, \"Tenants cannot initiate a contract\") */\n      tag_89\n      jumpi\n      mload(0x40)\n      0x08c379a000000000000000000000000000000000000000000000000000000000\n      dup2\n      mstore\n      0x04\n      add\n      tag_90\n      swap1\n      tag_91\n      jump\t// in\n    tag_90:\n      mload(0x40)\n      dup1\n      swap2\n      sub\n      swap1\n      revert\n    tag_89:\n        /* \"contracts/RentContract.sol\":2376:2377  0 */\n      0x00\n        /* \"contracts/RentContract.sol\":2313:2378  propertyInformations[_propertyAddress].ownerAddress != address(0) */\n      0xffffffffffffffffffffffffffffffffffffffff\n      and\n        /* \"contracts/RentContract.sol\":2313:2333  propertyInformations */\n      0x01\n        /* \"contracts/RentContract.sol\":2334:2350  _propertyAddress */\n      dup6\n        /* \"contracts/RentContract.sol\":2313:2351  propertyInformations[_propertyAddress] */\n      mload(0x40)\n      tag_92\n      swap2\n      swap1\n      tag_79\n      jump\t// in\n    tag_92:\n      swap1\n      dup2\n      mstore\n      0x20\n      add\n      mload(0x40)\n      dup1\n      swap2\n      sub\n      swap1\n      keccak256\n        /* \"contracts/RentContract.sol\":2313:2364  propertyInformations[_propertyAddress].ownerAddress */\n      0x00\n      add\n      0x00\n      swap1\n      sload\n      swap1\n      0x0100\n      exp\n      swap1\n      div\n      0xffffffffffffffffffffffffffffffffffffffff\n      and\n        /* \"contracts/RentContract.sol\":2313:2378  propertyInformations[_propertyAddress].ownerAddress != address(0) */\n      0xffffffffffffffffffffffffffffffffffffffff\n      and\n      sub\n        /* \"contracts/RentContract.sol\":2305:2401  require(propertyInformations[_propertyAddress].ownerAddress != address(0), \"Property not found\") */\n      tag_93\n      jumpi\n      mload(0x40)\n      0x08c379a000000000000000000000000000000000000000000000000000000000\n      dup2\n      mstore\n      0x04\n      add\n      tag_94\n      swap1\n      tag_95\n      jump\t// in\n    tag_94:\n      mload(0x40)\n      dup1\n      swap2\n      sub\n      swap1\n      revert\n    tag_93:\n        /* \"contracts/RentContract.sol\":2412:2427  uint contractID */\n      0x00\n        /* \"contracts/RentContract.sol\":2462:2472  msg.sender */\n      caller\n        /* \"contracts/RentContract.sol\":2474:2490  _propertyAddress */\n      dup6\n        /* \"contracts/RentContract.sol\":2492:2510  _contractStartDate */\n      dup5\n        /* \"contracts/RentContract.sol\":2512:2531  _contractFinishDate */\n      dup5\n        /* \"contracts/RentContract.sol\":2445:2532  abi.encodePacked(msg.sender, _propertyAddress, _contractStartDate, _contractFinishDate) */\n      add(0x20, mload(0x40))\n      tag_96\n      swap5\n      swap4\n      swap3\n      swap2\n      swap1\n      tag_97\n      jump\t// in\n    tag_96:\n      mload(0x40)\n      0x20\n      dup2\n      dup4\n      sub\n      sub\n      dup2\n      mstore\n      swap1\n      0x40\n      mstore\n        /* \"contracts/RentContract.sol\":2435:2533  keccak256(abi.encodePacked(msg.sender, _propertyAddress, _contractStartDate, _contractFinishDate)) */\n      dup1\n      mload\n      swap1\n      0x20\n      add\n      keccak256\n        /* \"contracts/RentContract.sol\":2430:2534  uint(keccak256(abi.encodePacked(msg.sender, _propertyAddress, _contractStartDate, _contractFinishDate))) */\n      0x00\n      shr\n        /* \"contracts/RentContract.sol\":2412:2534  uint contractID = uint(keccak256(abi.encodePacked(msg.sender, _propertyAddress, _contractStartDate, _contractFinishDate))) */\n      swap1\n      pop\n        /* \"contracts/RentContract.sol\":2580:2708  RentContract(msg.sender, _tenantAddress,  _propertyAddress, _propertyType, _contractStartDate, _contractFinishDate, true, false) */\n      mload(0x40)\n      dup1\n      0x0100\n      add\n      0x40\n      mstore\n      dup1\n        /* \"contracts/RentContract.sol\":2593:2603  msg.sender */\n      caller\n        /* \"contracts/RentContract.sol\":2580:2708  RentContract(msg.sender, _tenantAddress,  _propertyAddress, _propertyType, _contractStartDate, _contractFinishDate, true, false) */\n      0xffffffffffffffffffffffffffffffffffffffff\n      and\n      dup2\n      mstore\n      0x20\n      add\n        /* \"contracts/RentContract.sol\":2605:2619  _tenantAddress */\n      dup8\n        /* \"contracts/RentContract.sol\":2580:2708  RentContract(msg.sender, _tenantAddress,  _propertyAddress, _propertyType, _contractStartDate, _contractFinishDate, true, false) */\n      0xffffffffffffffffffffffffffffffffffffffff\n      and\n      dup2\n      mstore\n      0x20\n      add\n        /* \"contracts/RentContract.sol\":2622:2638  _propertyAddress */\n      dup7\n        /* \"contracts/RentContract.sol\":2580:2708  RentContract(msg.sender, _tenantAddress,  _propertyAddress, _propertyType, _contractStartDate, _contractFinishDate, true, false) */\n      dup2\n      mstore\n      0x20\n      add\n        /* \"contracts/RentContract.sol\":2640:2653  _propertyType */\n      dup6\n        /* \"contracts/RentContract.sol\":2580:2708  RentContract(msg.sender, _tenantAddress,  _propertyAddress, _propertyType, _contractStartDate, _contractFinishDate, true, false) */\n      dup2\n      mstore\n      0x20\n      add\n        /* \"contracts/RentContract.sol\":2655:2673  _contractStartDate */\n      dup5\n        /* \"contracts/RentContract.sol\":2580:2708  RentContract(msg.sender, _tenantAddress,  _propertyAddress, _propertyType, _contractStartDate, _contractFinishDate, true, false) */\n      dup2\n      mstore\n      0x20\n      add\n        /* \"contracts/RentContract.sol\":2675:2694  _contractFinishDate */\n      dup4\n        /* \"contracts/RentContract.sol\":2580:2708  RentContract(msg.sender, _tenantAddress,  _propertyAddress, _propertyType, _contractStartDate, _contractFinishDate, true, false) */\n      dup2\n      mstore\n      0x20\n      add\n        /* \"contracts/RentContract.sol\":2696:2700  true */\n      0x01\n        /* \"contracts/RentContract.sol\":2580:2708  RentContract(msg.sender, _tenantAddress,  _propertyAddress, _propertyType, _contractStartDate, _contractFinishDate, true, false) */\n      iszero\n      iszero\n      dup2\n      mstore\n      0x20\n      add\n        /* \"contracts/RentContract.sol\":2702:2707  false */\n      0x00\n        /* \"contracts/RentContract.sol\":2580:2708  RentContract(msg.sender, _tenantAddress,  _propertyAddress, _propertyType, _contractStartDate, _contractFinishDate, true, false) */\n      iszero\n      iszero\n      dup2\n      mstore\n      pop\n        /* \"contracts/RentContract.sol\":2545:2565  contractInformations */\n      0x02\n        /* \"contracts/RentContract.sol\":2545:2577  contractInformations[contractID] */\n      0x00\n        /* \"contracts/RentContract.sol\":2566:2576  contractID */\n      dup4\n        /* \"contracts/RentContract.sol\":2545:2577  contractInformations[contractID] */\n      dup2\n      mstore\n      0x20\n      add\n      swap1\n      dup2\n      mstore\n      0x20\n      add\n      0x00\n      keccak256\n        /* \"contracts/RentContract.sol\":2545:2708  contractInformations[contractID] = RentContract(msg.sender, _tenantAddress,  _propertyAddress, _propertyType, _contractStartDate, _contractFinishDate, true, false) */\n      0x00\n      dup3\n      add\n      mload\n      dup2\n      0x00\n      add\n      exp(0x0100, 0x00)\n      dup2\n      sload\n      dup2\n      0xffffffffffffffffffffffffffffffffffffffff\n      mul\n      not\n      and\n      swap1\n      dup4\n      0xffffffffffffffffffffffffffffffffffffffff\n      and\n      mul\n      or\n      swap1\n      sstore\n      pop\n      0x20\n      dup3\n      add\n      mload\n      dup2\n      0x01\n      add\n      exp(0x0100, 0x00)\n      dup2\n      sload\n      dup2\n      0xffffffffffffffffffffffffffffffffffffffff\n      mul\n      not\n      and\n      swap1\n      dup4\n      0xffffffffffffffffffffffffffffffffffffffff\n      and\n      mul\n      or\n      swap1\n      sstore\n      pop\n      0x40\n      dup3\n      add\n      mload\n      dup2\n      0x02\n      add\n      swap1\n      dup2\n      tag_98\n      swap2\n      swap1\n      tag_50\n      jump\t// in\n    tag_98:\n      pop\n      0x60\n      dup3\n      add\n      mload\n      dup2\n      0x03\n      add\n      swap1\n      dup2\n      tag_99\n      swap2\n      swap1\n      tag_50\n      jump\t// in\n    tag_99:\n      pop\n      0x80\n      dup3\n      add\n      mload\n      dup2\n      0x04\n      add\n      sstore\n      0xa0\n      dup3\n      add\n      mload\n      dup2\n      0x05\n      add\n      sstore\n      0xc0\n      dup3\n      add\n      mload\n      dup2\n      0x06\n      add\n      exp(0x0100, 0x00)\n      dup2\n      sload\n      dup2\n      0xff\n      mul\n      not\n      and\n      swap1\n      dup4\n      iszero\n      iszero\n      mul\n      or\n      swap1\n      sstore\n      pop\n      0xe0\n      dup3\n      add\n      mload\n      dup2\n      0x06\n      add\n      exp(0x0100, 0x01)\n      dup2\n      sload\n      dup2\n      0xff\n      mul\n      not\n      and\n      swap1\n      dup4\n      iszero\n      iszero\n      mul\n      or\n      swap1\n      sstore\n      pop\n      swap1\n      pop\n      pop\n        /* \"contracts/RentContract.sol\":2111:2715  {... */\n      pop\n        /* \"contracts/RentContract.sol\":1945:2715  function contractStart(address _tenantAddress, string memory _propertyAddress, string memory _propertyType, uint _contractStartDate, uint _contractFinishDate) public {... */\n      pop\n      pop\n      pop\n      pop\n      pop\n      jump\t// out\n        /* \"#utility.yul\":7:82   */\n    tag_100:\n        /* \"#utility.yul\":40:46   */\n      0x00\n        /* \"#utility.yul\":73:75   */\n      0x40\n        /* \"#utility.yul\":67:76   */\n      mload\n        /* \"#utility.yul\":57:76   */\n      swap1\n      pop\n        /* \"#utility.yul\":7:82   */\n      swap1\n      jump\t// out\n        /* \"#utility.yul\":88:205   */\n    tag_101:\n        /* \"#utility.yul\":197:198   */\n      0x00\n        /* \"#utility.yul\":194:195   */\n      dup1\n        /* \"#utility.yul\":187:199   */\n      revert\n        /* \"#utility.yul\":211:328   */\n    tag_102:\n        /* \"#utility.yul\":320:321   */\n      0x00\n        /* \"#utility.yul\":317:318   */\n      dup1\n        /* \"#utility.yul\":310:322   */\n      revert\n        /* \"#utility.yul\":334:460   */\n    tag_103:\n        /* \"#utility.yul\":371:378   */\n      0x00\n        /* \"#utility.yul\":411:453   */\n      0xffffffffffffffffffffffffffffffffffffffff\n        /* \"#utility.yul\":404:409   */\n      dup3\n        /* \"#utility.yul\":400:454   */\n      and\n        /* \"#utility.yul\":389:454   */\n      swap1\n      pop\n        /* \"#utility.yul\":334:460   */\n      swap2\n      swap1\n      pop\n      jump\t// out\n        /* \"#utility.yul\":466:562   */\n    tag_104:\n        /* \"#utility.yul\":503:510   */\n      0x00\n        /* \"#utility.yul\":532:556   */\n      tag_172\n        /* \"#utility.yul\":550:555   */\n      dup3\n        /* \"#utility.yul\":532:556   */\n      tag_103\n      jump\t// in\n    tag_172:\n        /* \"#utility.yul\":521:556   */\n      swap1\n      pop\n        /* \"#utility.yul\":466:562   */\n      swap2\n      swap1\n      pop\n      jump\t// out\n        /* \"#utility.yul\":568:690   */\n    tag_105:\n        /* \"#utility.yul\":641:665   */\n      tag_174\n        /* \"#utility.yul\":659:664   */\n      dup2\n        /* \"#utility.yul\":641:665   */\n      tag_104\n      jump\t// in\n    tag_174:\n        /* \"#utility.yul\":634:639   */\n      dup2\n        /* \"#utility.yul\":631:666   */\n      eq\n        /* \"#utility.yul\":621:684   */\n      tag_175\n      jumpi\n        /* \"#utility.yul\":680:681   */\n      0x00\n        /* \"#utility.yul\":677:678   */\n      dup1\n        /* \"#utility.yul\":670:682   */\n      revert\n        /* \"#utility.yul\":621:684   */\n    tag_175:\n        /* \"#utility.yul\":568:690   */\n      pop\n      jump\t// out\n        /* \"#utility.yul\":696:835   */\n    tag_106:\n        /* \"#utility.yul\":742:747   */\n      0x00\n        /* \"#utility.yul\":780:786   */\n      dup2\n        /* \"#utility.yul\":767:787   */\n      calldataload\n        /* \"#utility.yul\":758:787   */\n      swap1\n      pop\n        /* \"#utility.yul\":796:829   */\n      tag_177\n        /* \"#utility.yul\":823:828   */\n      dup2\n        /* \"#utility.yul\":796:829   */\n      tag_105\n      jump\t// in\n    tag_177:\n        /* \"#utility.yul\":696:835   */\n      swap3\n      swap2\n      pop\n      pop\n      jump\t// out\n        /* \"#utility.yul\":841:1170   */\n    tag_11:\n        /* \"#utility.yul\":900:906   */\n      0x00\n        /* \"#utility.yul\":949:951   */\n      0x20\n        /* \"#utility.yul\":937:946   */\n      dup3\n        /* \"#utility.yul\":928:935   */\n      dup5\n        /* \"#utility.yul\":924:947   */\n      sub\n        /* \"#utility.yul\":920:952   */\n      slt\n        /* \"#utility.yul\":917:1036   */\n      iszero\n      tag_179\n      jumpi\n        /* \"#utility.yul\":955:1034   */\n      tag_180\n      tag_101\n      jump\t// in\n    tag_180:\n        /* \"#utility.yul\":917:1036   */\n    tag_179:\n        /* \"#utility.yul\":1075:1076   */\n      0x00\n        /* \"#utility.yul\":1100:1153   */\n      tag_181\n        /* \"#utility.yul\":1145:1152   */\n      dup5\n        /* \"#utility.yul\":1136:1142   */\n      dup3\n        /* \"#utility.yul\":1125:1134   */\n      dup6\n        /* \"#utility.yul\":1121:1143   */\n      add\n        /* \"#utility.yul\":1100:1153   */\n      tag_106\n      jump\t// in\n    tag_181:\n        /* \"#utility.yul\":1090:1153   */\n      swap2\n      pop\n        /* \"#utility.yul\":1046:1163   */\n      pop\n        /* \"#utility.yul\":841:1170   */\n      swap3\n      swap2\n      pop\n      pop\n      jump\t// out\n        /* \"#utility.yul\":1176:1275   */\n    tag_107:\n        /* \"#utility.yul\":1228:1234   */\n      0x00\n        /* \"#utility.yul\":1262:1267   */\n      dup2\n        /* \"#utility.yul\":1256:1268   */\n      mload\n        /* \"#utility.yul\":1246:1268   */\n      swap1\n      pop\n        /* \"#utility.yul\":1176:1275   */\n      swap2\n      swap1\n      pop\n      jump\t// out\n        /* \"#utility.yul\":1281:1450   */\n    tag_108:\n        /* \"#utility.yul\":1365:1376   */\n      0x00\n        /* \"#utility.yul\":1399:1405   */\n      dup3\n        /* \"#utility.yul\":1394:1397   */\n      dup3\n        /* \"#utility.yul\":1387:1406   */\n      mstore\n        /* \"#utility.yul\":1439:1443   */\n      0x20\n        /* \"#utility.yul\":1434:1437   */\n      dup3\n        /* \"#utility.yul\":1430:1444   */\n      add\n        /* \"#utility.yul\":1415:1444   */\n      swap1\n      pop\n        /* \"#utility.yul\":1281:1450   */\n      swap3\n      swap2\n      pop\n      pop\n      jump\t// out\n        /* \"#utility.yul\":1456:1702   */\n    tag_109:\n        /* \"#utility.yul\":1537:1538   */\n      0x00\n        /* \"#utility.yul\":1547:1660   */\n    tag_185:\n        /* \"#utility.yul\":1561:1567   */\n      dup4\n        /* \"#utility.yul\":1558:1559   */\n      dup2\n        /* \"#utility.yul\":1555:1568   */\n      lt\n        /* \"#utility.yul\":1547:1660   */\n      iszero\n      tag_187\n      jumpi\n        /* \"#utility.yul\":1646:1647   */\n      dup1\n        /* \"#utility.yul\":1641:1644   */\n      dup3\n        /* \"#utility.yul\":1637:1648   */\n      add\n        /* \"#utility.yul\":1631:1649   */\n      mload\n        /* \"#utility.yul\":1627:1628   */\n      dup2\n        /* \"#utility.yul\":1622:1625   */\n      dup5\n        /* \"#utility.yul\":1618:1629   */\n      add\n        /* \"#utility.yul\":1611:1650   */\n      mstore\n        /* \"#utility.yul\":1583:1585   */\n      0x20\n        /* \"#utility.yul\":1580:1581   */\n      dup2\n        /* \"#utility.yul\":1576:1586   */\n      add\n        /* \"#utility.yul\":1571:1586   */\n      swap1\n      pop\n        /* \"#utility.yul\":1547:1660   */\n      jump(tag_185)\n    tag_187:\n        /* \"#utility.yul\":1694:1695   */\n      0x00\n        /* \"#utility.yul\":1685:1691   */\n      dup5\n        /* \"#utility.yul\":1680:1683   */\n      dup5\n        /* \"#utility.yul\":1676:1692   */\n      add\n        /* \"#utility.yul\":1669:1696   */\n      mstore\n        /* \"#utility.yul\":1518:1702   */\n      pop\n        /* \"#utility.yul\":1456:1702   */\n      pop\n      pop\n      pop\n      jump\t// out\n        /* \"#utility.yul\":1708:1810   */\n    tag_110:\n        /* \"#utility.yul\":1749:1755   */\n      0x00\n        /* \"#utility.yul\":1800:1802   */\n      0x1f\n        /* \"#utility.yul\":1796:1803   */\n      not\n        /* \"#utility.yul\":1791:1793   */\n      0x1f\n        /* \"#utility.yul\":1784:1789   */\n      dup4\n        /* \"#utility.yul\":1780:1794   */\n      add\n        /* \"#utility.yul\":1776:1804   */\n      and\n        /* \"#utility.yul\":1766:1804   */\n      swap1\n      pop\n        /* \"#utility.yul\":1708:1810   */\n      swap2\n      swap1\n      pop\n      jump\t// out\n        /* \"#utility.yul\":1816:2193   */\n    tag_111:\n        /* \"#utility.yul\":1904:1907   */\n      0x00\n        /* \"#utility.yul\":1932:1971   */\n      tag_190\n        /* \"#utility.yul\":1965:1970   */\n      dup3\n        /* \"#utility.yul\":1932:1971   */\n      tag_107\n      jump\t// in\n    tag_190:\n        /* \"#utility.yul\":1987:2058   */\n      tag_191\n        /* \"#utility.yul\":2051:2057   */\n      dup2\n        /* \"#utility.yul\":2046:2049   */\n      dup6\n        /* \"#utility.yul\":1987:2058   */\n      tag_108\n      jump\t// in\n    tag_191:\n        /* \"#utility.yul\":1980:2058   */\n      swap4\n      pop\n        /* \"#utility.yul\":2067:2132   */\n      tag_192\n        /* \"#utility.yul\":2125:2131   */\n      dup2\n        /* \"#utility.yul\":2120:2123   */\n      dup6\n        /* \"#utility.yul\":2113:2117   */\n      0x20\n        /* \"#utility.yul\":2106:2111   */\n      dup7\n        /* \"#utility.yul\":2102:2118   */\n      add\n        /* \"#utility.yul\":2067:2132   */\n      tag_109\n      jump\t// in\n    tag_192:\n        /* \"#utility.yul\":2157:2186   */\n      tag_193\n        /* \"#utility.yul\":2179:2185   */\n      dup2\n        /* \"#utility.yul\":2157:2186   */\n      tag_110\n      jump\t// in\n    tag_193:\n        /* \"#utility.yul\":2152:2155   */\n      dup5\n        /* \"#utility.yul\":2148:2187   */\n      add\n        /* \"#utility.yul\":2141:2187   */\n      swap2\n      pop\n        /* \"#utility.yul\":1908:2193   */\n      pop\n        /* \"#utility.yul\":1816:2193   */\n      swap3\n      swap2\n      pop\n      pop\n      jump\t// out\n        /* \"#utility.yul\":2199:2317   */\n    tag_112:\n        /* \"#utility.yul\":2286:2310   */\n      tag_195\n        /* \"#utility.yul\":2304:2309   */\n      dup2\n        /* \"#utility.yul\":2286:2310   */\n      tag_104\n      jump\t// in\n    tag_195:\n        /* \"#utility.yul\":2281:2284   */\n      dup3\n        /* \"#utility.yul\":2274:2311   */\n      mstore\n        /* \"#utility.yul\":2199:2317   */\n      pop\n      pop\n      jump\t// out\n        /* \"#utility.yul\":2323:2413   */\n    tag_113:\n        /* \"#utility.yul\":2357:2364   */\n      0x00\n        /* \"#utility.yul\":2400:2405   */\n      dup2\n        /* \"#utility.yul\":2393:2406   */\n      iszero\n        /* \"#utility.yul\":2386:2407   */\n      iszero\n        /* \"#utility.yul\":2375:2407   */\n      swap1\n      pop\n        /* \"#utility.yul\":2323:2413   */\n      swap2\n      swap1\n      pop\n      jump\t// out\n        /* \"#utility.yul\":2419:2528   */\n    tag_114:\n        /* \"#utility.yul\":2500:2521   */\n      tag_198\n        /* \"#utility.yul\":2515:2520   */\n      dup2\n        /* \"#utility.yul\":2500:2521   */\n      tag_113\n      jump\t// in\n    tag_198:\n        /* \"#utility.yul\":2495:2498   */\n      dup3\n        /* \"#utility.yul\":2488:2522   */\n      mstore\n        /* \"#utility.yul\":2419:2528   */\n      pop\n      pop\n      jump\t// out\n        /* \"#utility.yul\":2534:3055   */\n    tag_14:\n        /* \"#utility.yul\":2697:2701   */\n      0x00\n        /* \"#utility.yul\":2735:2737   */\n      0x60\n        /* \"#utility.yul\":2724:2733   */\n      dup3\n        /* \"#utility.yul\":2720:2738   */\n      add\n        /* \"#utility.yul\":2712:2738   */\n      swap1\n      pop\n        /* \"#utility.yul\":2784:2793   */\n      dup2\n        /* \"#utility.yul\":2778:2782   */\n      dup2\n        /* \"#utility.yul\":2774:2794   */\n      sub\n        /* \"#utility.yul\":2770:2771   */\n      0x00\n        /* \"#utility.yul\":2759:2768   */\n      dup4\n        /* \"#utility.yul\":2755:2772   */\n      add\n        /* \"#utility.yul\":2748:2795   */\n      mstore\n        /* \"#utility.yul\":2812:2890   */\n      tag_200\n        /* \"#utility.yul\":2885:2889   */\n      dup2\n        /* \"#utility.yul\":2876:2882   */\n      dup7\n        /* \"#utility.yul\":2812:2890   */\n      tag_111\n      jump\t// in\n    tag_200:\n        /* \"#utility.yul\":2804:2890   */\n      swap1\n      pop\n        /* \"#utility.yul\":2900:2972   */\n      tag_201\n        /* \"#utility.yul\":2968:2970   */\n      0x20\n        /* \"#utility.yul\":2957:2966   */\n      dup4\n        /* \"#utility.yul\":2953:2971   */\n      add\n        /* \"#utility.yul\":2944:2950   */\n      dup6\n        /* \"#utility.yul\":2900:2972   */\n      tag_112\n      jump\t// in\n    tag_201:\n        /* \"#utility.yul\":2982:3048   */\n      tag_202\n        /* \"#utility.yul\":3044:3046   */\n      0x40\n        /* \"#utility.yul\":3033:3042   */\n      dup4\n        /* \"#utility.yul\":3029:3047   */\n      add\n        /* \"#utility.yul\":3020:3026   */\n      dup5\n        /* \"#utility.yul\":2982:3048   */\n      tag_114\n      jump\t// in\n    tag_202:\n        /* \"#utility.yul\":2534:3055   */\n      swap5\n      swap4\n      pop\n      pop\n      pop\n      pop\n      jump\t// out\n        /* \"#utility.yul\":3061:3178   */\n    tag_115:\n        /* \"#utility.yul\":3170:3171   */\n      0x00\n        /* \"#utility.yul\":3167:3168   */\n      dup1\n        /* \"#utility.yul\":3160:3172   */\n      revert\n        /* \"#utility.yul\":3184:3301   */\n    tag_116:\n        /* \"#utility.yul\":3293:3294   */\n      0x00\n        /* \"#utility.yul\":3290:3291   */\n      dup1\n        /* \"#utility.yul\":3283:3295   */\n      revert\n        /* \"#utility.yul\":3307:3487   */\n    tag_117:\n        /* \"#utility.yul\":3355:3432   */\n      0x4e487b7100000000000000000000000000000000000000000000000000000000\n        /* \"#utility.yul\":3352:3353   */\n      0x00\n        /* \"#utility.yul\":3345:3433   */\n      mstore\n        /* \"#utility.yul\":3452:3456   */\n      0x41\n        /* \"#utility.yul\":3449:3450   */\n      0x04\n        /* \"#utility.yul\":3442:3457   */\n      mstore\n        /* \"#utility.yul\":3476:3480   */\n      0x24\n        /* \"#utility.yul\":3473:3474   */\n      0x00\n        /* \"#utility.yul\":3466:3481   */\n      revert\n        /* \"#utility.yul\":3493:3774   */\n    tag_118:\n        /* \"#utility.yul\":3576:3603   */\n      tag_207\n        /* \"#utility.yul\":3598:3602   */\n      dup3\n        /* \"#utility.yul\":3576:3603   */\n      tag_110\n      jump\t// in\n    tag_207:\n        /* \"#utility.yul\":3568:3574   */\n      dup2\n        /* \"#utility.yul\":3564:3604   */\n      add\n        /* \"#utility.yul\":3706:3712   */\n      dup2\n        /* \"#utility.yul\":3694:3704   */\n      dup2\n        /* \"#utility.yul\":3691:3713   */\n      lt\n        /* \"#utility.yul\":3670:3688   */\n      0xffffffffffffffff\n        /* \"#utility.yul\":3658:3668   */\n      dup3\n        /* \"#utility.yul\":3655:3689   */\n      gt\n        /* \"#utility.yul\":3652:3714   */\n      or\n        /* \"#utility.yul\":3649:3737   */\n      iszero\n      tag_208\n      jumpi\n        /* \"#utility.yul\":3717:3735   */\n      tag_209\n      tag_117\n      jump\t// in\n    tag_209:\n        /* \"#utility.yul\":3649:3737   */\n    tag_208:\n        /* \"#utility.yul\":3757:3767   */\n      dup1\n        /* \"#utility.yul\":3753:3755   */\n      0x40\n        /* \"#utility.yul\":3746:3768   */\n      mstore\n        /* \"#utility.yul\":3536:3774   */\n      pop\n        /* \"#utility.yul\":3493:3774   */\n      pop\n      pop\n      jump\t// out\n        /* \"#utility.yul\":3780:3909   */\n    tag_119:\n        /* \"#utility.yul\":3814:3820   */\n      0x00\n        /* \"#utility.yul\":3841:3861   */\n      tag_211\n      tag_100\n      jump\t// in\n    tag_211:\n        /* \"#utility.yul\":3831:3861   */\n      swap1\n      pop\n        /* \"#utility.yul\":3870:3903   */\n      tag_212\n        /* \"#utility.yul\":3898:3902   */\n      dup3\n        /* \"#utility.yul\":3890:3896   */\n      dup3\n        /* \"#utility.yul\":3870:3903   */\n      tag_118\n      jump\t// in\n    tag_212:\n        /* \"#utility.yul\":3780:3909   */\n      swap2\n      swap1\n      pop\n      jump\t// out\n        /* \"#utility.yul\":3915:4223   */\n    tag_120:\n        /* \"#utility.yul\":3977:3981   */\n      0x00\n        /* \"#utility.yul\":4067:4085   */\n      0xffffffffffffffff\n        /* \"#utility.yul\":4059:4065   */\n      dup3\n        /* \"#utility.yul\":4056:4086   */\n      gt\n        /* \"#utility.yul\":4053:4109   */\n      iszero\n      tag_214\n      jumpi\n        /* \"#utility.yul\":4089:4107   */\n      tag_215\n      tag_117\n      jump\t// in\n    tag_215:\n        /* \"#utility.yul\":4053:4109   */\n    tag_214:\n        /* \"#utility.yul\":4127:4156   */\n      tag_216\n        /* \"#utility.yul\":4149:4155   */\n      dup3\n        /* \"#utility.yul\":4127:4156   */\n      tag_110\n      jump\t// in\n    tag_216:\n        /* \"#utility.yul\":4119:4156   */\n      swap1\n      pop\n        /* \"#utility.yul\":4211:4215   */\n      0x20\n        /* \"#utility.yul\":4205:4209   */\n      dup2\n        /* \"#utility.yul\":4201:4216   */\n      add\n        /* \"#utility.yul\":4193:4216   */\n      swap1\n      pop\n        /* \"#utility.yul\":3915:4223   */\n      swap2\n      swap1\n      pop\n      jump\t// out\n        /* \"#utility.yul\":4229:4375   */\n    tag_121:\n        /* \"#utility.yul\":4326:4332   */\n      dup3\n        /* \"#utility.yul\":4321:4324   */\n      dup2\n        /* \"#utility.yul\":4316:4319   */\n      dup4\n        /* \"#utility.yul\":4303:4333   */\n      calldatacopy\n        /* \"#utility.yul\":4367:4368   */\n      0x00\n        /* \"#utility.yul\":4358:4364   */\n      dup4\n        /* \"#utility.yul\":4353:4356   */\n      dup4\n        /* \"#utility.yul\":4349:4365   */\n      add\n        /* \"#utility.yul\":4342:4369   */\n      mstore\n        /* \"#utility.yul\":4229:4375   */\n      pop\n      pop\n      pop\n      jump\t// out\n        /* \"#utility.yul\":4381:4806   */\n    tag_122:\n        /* \"#utility.yul\":4459:4464   */\n      0x00\n        /* \"#utility.yul\":4484:4550   */\n      tag_219\n        /* \"#utility.yul\":4500:4549   */\n      tag_220\n        /* \"#utility.yul\":4542:4548   */\n      dup5\n        /* \"#utility.yul\":4500:4549   */\n      tag_120\n      jump\t// in\n    tag_220:\n        /* \"#utility.yul\":4484:4550   */\n      tag_119\n      jump\t// in\n    tag_219:\n        /* \"#utility.yul\":4475:4550   */\n      swap1\n      pop\n        /* \"#utility.yul\":4573:4579   */\n      dup3\n        /* \"#utility.yul\":4566:4571   */\n      dup2\n        /* \"#utility.yul\":4559:4580   */\n      mstore\n        /* \"#utility.yul\":4611:4615   */\n      0x20\n        /* \"#utility.yul\":4604:4609   */\n      dup2\n        /* \"#utility.yul\":4600:4616   */\n      add\n        /* \"#utility.yul\":4649:4652   */\n      dup5\n        /* \"#utility.yul\":4640:4646   */\n      dup5\n        /* \"#utility.yul\":4635:4638   */\n      dup5\n        /* \"#utility.yul\":4631:4647   */\n      add\n        /* \"#utility.yul\":4628:4653   */\n      gt\n        /* \"#utility.yul\":4625:4737   */\n      iszero\n      tag_221\n      jumpi\n        /* \"#utility.yul\":4656:4735   */\n      tag_222\n      tag_116\n      jump\t// in\n    tag_222:\n        /* \"#utility.yul\":4625:4737   */\n    tag_221:\n        /* \"#utility.yul\":4746:4800   */\n      tag_223\n        /* \"#utility.yul\":4793:4799   */\n      dup5\n        /* \"#utility.yul\":4788:4791   */\n      dup3\n        /* \"#utility.yul\":4783:4786   */\n      dup6\n        /* \"#utility.yul\":4746:4800   */\n      tag_121\n      jump\t// in\n    tag_223:\n        /* \"#utility.yul\":4465:4806   */\n      pop\n        /* \"#utility.yul\":4381:4806   */\n      swap4\n      swap3\n      pop\n      pop\n      pop\n      jump\t// out\n        /* \"#utility.yul\":4826:5166   */\n    tag_123:\n        /* \"#utility.yul\":4882:4887   */\n      0x00\n        /* \"#utility.yul\":4931:4934   */\n      dup3\n        /* \"#utility.yul\":4924:4928   */\n      0x1f\n        /* \"#utility.yul\":4916:4922   */\n      dup4\n        /* \"#utility.yul\":4912:4929   */\n      add\n        /* \"#utility.yul\":4908:4935   */\n      slt\n        /* \"#utility.yul\":4898:5020   */\n      tag_225\n      jumpi\n        /* \"#utility.yul\":4939:5018   */\n      tag_226\n      tag_115\n      jump\t// in\n    tag_226:\n        /* \"#utility.yul\":4898:5020   */\n    tag_225:\n        /* \"#utility.yul\":5056:5062   */\n      dup2\n        /* \"#utility.yul\":5043:5063   */\n      calldataload\n        /* \"#utility.yul\":5081:5160   */\n      tag_227\n        /* \"#utility.yul\":5156:5159   */\n      dup5\n        /* \"#utility.yul\":5148:5154   */\n      dup3\n        /* \"#utility.yul\":5141:5145   */\n      0x20\n        /* \"#utility.yul\":5133:5139   */\n      dup7\n        /* \"#utility.yul\":5129:5146   */\n      add\n        /* \"#utility.yul\":5081:5160   */\n      tag_122\n      jump\t// in\n    tag_227:\n        /* \"#utility.yul\":5072:5160   */\n      swap2\n      pop\n        /* \"#utility.yul\":4888:5166   */\n      pop\n        /* \"#utility.yul\":4826:5166   */\n      swap3\n      swap2\n      pop\n      pop\n      jump\t// out\n        /* \"#utility.yul\":5172:5288   */\n    tag_124:\n        /* \"#utility.yul\":5242:5263   */\n      tag_229\n        /* \"#utility.yul\":5257:5262   */\n      dup2\n        /* \"#utility.yul\":5242:5263   */\n      tag_113\n      jump\t// in\n    tag_229:\n        /* \"#utility.yul\":5235:5240   */\n      dup2\n        /* \"#utility.yul\":5232:5264   */\n      eq\n        /* \"#utility.yul\":5222:5282   */\n      tag_230\n      jumpi\n        /* \"#utility.yul\":5278:5279   */\n      0x00\n        /* \"#utility.yul\":5275:5276   */\n      dup1\n        /* \"#utility.yul\":5268:5280   */\n      revert\n        /* \"#utility.yul\":5222:5282   */\n    tag_230:\n        /* \"#utility.yul\":5172:5288   */\n      pop\n      jump\t// out\n        /* \"#utility.yul\":5294:5427   */\n    tag_125:\n        /* \"#utility.yul\":5337:5342   */\n      0x00\n        /* \"#utility.yul\":5375:5381   */\n      dup2\n        /* \"#utility.yul\":5362:5382   */\n      calldataload\n        /* \"#utility.yul\":5353:5382   */\n      swap1\n      pop\n        /* \"#utility.yul\":5391:5421   */\n      tag_232\n        /* \"#utility.yul\":5415:5420   */\n      dup2\n        /* \"#utility.yul\":5391:5421   */\n      tag_124\n      jump\t// in\n    tag_232:\n        /* \"#utility.yul\":5294:5427   */\n      swap3\n      swap2\n      pop\n      pop\n      jump\t// out\n        /* \"#utility.yul\":5433:6081   */\n    tag_17:\n        /* \"#utility.yul\":5508:5514   */\n      0x00\n        /* \"#utility.yul\":5516:5522   */\n      dup1\n        /* \"#utility.yul\":5565:5567   */\n      0x40\n        /* \"#utility.yul\":5553:5562   */\n      dup4\n        /* \"#utility.yul\":5544:5551   */\n      dup6\n        /* \"#utility.yul\":5540:5563   */\n      sub\n        /* \"#utility.yul\":5536:5568   */\n      slt\n        /* \"#utility.yul\":5533:5652   */\n      iszero\n      tag_234\n      jumpi\n        /* \"#utility.yul\":5571:5650   */\n      tag_235\n      tag_101\n      jump\t// in\n    tag_235:\n        /* \"#utility.yul\":5533:5652   */\n    tag_234:\n        /* \"#utility.yul\":5719:5720   */\n      0x00\n        /* \"#utility.yul\":5708:5717   */\n      dup4\n        /* \"#utility.yul\":5704:5721   */\n      add\n        /* \"#utility.yul\":5691:5722   */\n      calldataload\n        /* \"#utility.yul\":5749:5767   */\n      0xffffffffffffffff\n        /* \"#utility.yul\":5741:5747   */\n      dup2\n        /* \"#utility.yul\":5738:5768   */\n      gt\n        /* \"#utility.yul\":5735:5852   */\n      iszero\n      tag_236\n      jumpi\n        /* \"#utility.yul\":5771:5850   */\n      tag_237\n      tag_102\n      jump\t// in\n    tag_237:\n        /* \"#utility.yul\":5735:5852   */\n    tag_236:\n        /* \"#utility.yul\":5876:5939   */\n      tag_238\n        /* \"#utility.yul\":5931:5938   */\n      dup6\n        /* \"#utility.yul\":5922:5928   */\n      dup3\n        /* \"#utility.yul\":5911:5920   */\n      dup7\n        /* \"#utility.yul\":5907:5929   */\n      add\n        /* \"#utility.yul\":5876:5939   */\n      tag_123\n      jump\t// in\n    tag_238:\n        /* \"#utility.yul\":5866:5939   */\n      swap3\n      pop\n        /* \"#utility.yul\":5662:5949   */\n      pop\n        /* \"#utility.yul\":5988:5990   */\n      0x20\n        /* \"#utility.yul\":6014:6064   */\n      tag_239\n        /* \"#utility.yul\":6056:6063   */\n      dup6\n        /* \"#utility.yul\":6047:6053   */\n      dup3\n        /* \"#utility.yul\":6036:6045   */\n      dup7\n        /* \"#utility.yul\":6032:6054   */\n      add\n        /* \"#utility.yul\":6014:6064   */\n      tag_125\n      jump\t// in\n    tag_239:\n        /* \"#utility.yul\":6004:6064   */\n      swap2\n      pop\n        /* \"#utility.yul\":5959:6074   */\n      pop\n        /* \"#utility.yul\":5433:6081   */\n      swap3\n      pop\n      swap3\n      swap1\n      pop\n      jump\t// out\n        /* \"#utility.yul\":6087:6596   */\n    tag_21:\n        /* \"#utility.yul\":6156:6162   */\n      0x00\n        /* \"#utility.yul\":6205:6207   */\n      0x20\n        /* \"#utility.yul\":6193:6202   */\n      dup3\n        /* \"#utility.yul\":6184:6191   */\n      dup5\n        /* \"#utility.yul\":6180:6203   */\n      sub\n        /* \"#utility.yul\":6176:6208   */\n      slt\n        /* \"#utility.yul\":6173:6292   */\n      iszero\n      tag_241\n      jumpi\n        /* \"#utility.yul\":6211:6290   */\n      tag_242\n      tag_101\n      jump\t// in\n    tag_242:\n        /* \"#utility.yul\":6173:6292   */\n    tag_241:\n        /* \"#utility.yul\":6359:6360   */\n      0x00\n        /* \"#utility.yul\":6348:6357   */\n      dup3\n        /* \"#utility.yul\":6344:6361   */\n      add\n        /* \"#utility.yul\":6331:6362   */\n      calldataload\n        /* \"#utility.yul\":6389:6407   */\n      0xffffffffffffffff\n        /* \"#utility.yul\":6381:6387   */\n      dup2\n        /* \"#utility.yul\":6378:6408   */\n      gt\n        /* \"#utility.yul\":6375:6492   */\n      iszero\n      tag_243\n      jumpi\n        /* \"#utility.yul\":6411:6490   */\n      tag_244\n      tag_102\n      jump\t// in\n    tag_244:\n        /* \"#utility.yul\":6375:6492   */\n    tag_243:\n        /* \"#utility.yul\":6516:6579   */\n      tag_245\n        /* \"#utility.yul\":6571:6578   */\n      dup5\n        /* \"#utility.yul\":6562:6568   */\n      dup3\n        /* \"#utility.yul\":6551:6560   */\n      dup6\n        /* \"#utility.yul\":6547:6569   */\n      add\n        /* \"#utility.yul\":6516:6579   */\n      tag_123\n      jump\t// in\n    tag_245:\n        /* \"#utility.yul\":6506:6579   */\n      swap2\n      pop\n        /* \"#utility.yul\":6302:6589   */\n      pop\n        /* \"#utility.yul\":6087:6596   */\n      swap3\n      swap2\n      pop\n      pop\n      jump\t// out\n        /* \"#utility.yul\":6602:7325   */\n    tag_24:\n        /* \"#utility.yul\":6813:6817   */\n      0x00\n        /* \"#utility.yul\":6851:6854   */\n      0x80\n        /* \"#utility.yul\":6840:6849   */\n      dup3\n        /* \"#utility.yul\":6836:6855   */\n      add\n        /* \"#utility.yul\":6828:6855   */\n      swap1\n      pop\n        /* \"#utility.yul\":6865:6936   */\n      tag_247\n        /* \"#utility.yul\":6933:6934   */\n      0x00\n        /* \"#utility.yul\":6922:6931   */\n      dup4\n        /* \"#utility.yul\":6918:6935   */\n      add\n        /* \"#utility.yul\":6909:6915   */\n      dup8\n        /* \"#utility.yul\":6865:6936   */\n      tag_112\n      jump\t// in\n    tag_247:\n        /* \"#utility.yul\":6983:6992   */\n      dup2\n        /* \"#utility.yul\":6977:6981   */\n      dup2\n        /* \"#utility.yul\":6973:6993   */\n      sub\n        /* \"#utility.yul\":6968:6970   */\n      0x20\n        /* \"#utility.yul\":6957:6966   */\n      dup4\n        /* \"#utility.yul\":6953:6971   */\n      add\n        /* \"#utility.yul\":6946:6994   */\n      mstore\n        /* \"#utility.yul\":7011:7089   */\n      tag_248\n        /* \"#utility.yul\":7084:7088   */\n      dup2\n        /* \"#utility.yul\":7075:7081   */\n      dup7\n        /* \"#utility.yul\":7011:7089   */\n      tag_111\n      jump\t// in\n    tag_248:\n        /* \"#utility.yul\":7003:7089   */\n      swap1\n      pop\n        /* \"#utility.yul\":7136:7145   */\n      dup2\n        /* \"#utility.yul\":7130:7134   */\n      dup2\n        /* \"#utility.yul\":7126:7146   */\n      sub\n        /* \"#utility.yul\":7121:7123   */\n      0x40\n        /* \"#utility.yul\":7110:7119   */\n      dup4\n        /* \"#utility.yul\":7106:7124   */\n      add\n        /* \"#utility.yul\":7099:7147   */\n      mstore\n        /* \"#utility.yul\":7164:7242   */\n      tag_249\n        /* \"#utility.yul\":7237:7241   */\n      dup2\n        /* \"#utility.yul\":7228:7234   */\n      dup6\n        /* \"#utility.yul\":7164:7242   */\n      tag_111\n      jump\t// in\n    tag_249:\n        /* \"#utility.yul\":7156:7242   */\n      swap1\n      pop\n        /* \"#utility.yul\":7252:7318   */\n      tag_250\n        /* \"#utility.yul\":7314:7316   */\n      0x60\n        /* \"#utility.yul\":7303:7312   */\n      dup4\n        /* \"#utility.yul\":7299:7317   */\n      add\n        /* \"#utility.yul\":7290:7296   */\n      dup5\n        /* \"#utility.yul\":7252:7318   */\n      tag_114\n      jump\t// in\n    tag_250:\n        /* \"#utility.yul\":6602:7325   */\n      swap6\n      swap5\n      pop\n      pop\n      pop\n      pop\n      pop\n      jump\t// out\n        /* \"#utility.yul\":7331:7408   */\n    tag_126:\n        /* \"#utility.yul\":7368:7375   */\n      0x00\n        /* \"#utility.yul\":7397:7402   */\n      dup2\n        /* \"#utility.yul\":7386:7402   */\n      swap1\n      pop\n        /* \"#utility.yul\":7331:7408   */\n      swap2\n      swap1\n      pop\n      jump\t// out\n        /* \"#utility.yul\":7414:7536   */\n    tag_127:\n        /* \"#utility.yul\":7487:7511   */\n      tag_253\n        /* \"#utility.yul\":7505:7510   */\n      dup2\n        /* \"#utility.yul\":7487:7511   */\n      tag_126\n      jump\t// in\n    tag_253:\n        /* \"#utility.yul\":7480:7485   */\n      dup2\n        /* \"#utility.yul\":7477:7512   */\n      eq\n        /* \"#utility.yul\":7467:7530   */\n      tag_254\n      jumpi\n        /* \"#utility.yul\":7526:7527   */\n      0x00\n        /* \"#utility.yul\":7523:7524   */\n      dup1\n        /* \"#utility.yul\":7516:7528   */\n      revert\n        /* \"#utility.yul\":7467:7530   */\n    tag_254:\n        /* \"#utility.yul\":7414:7536   */\n      pop\n      jump\t// out\n        /* \"#utility.yul\":7542:7681   */\n    tag_128:\n        /* \"#utility.yul\":7588:7593   */\n      0x00\n        /* \"#utility.yul\":7626:7632   */\n      dup2\n        /* \"#utility.yul\":7613:7633   */\n      calldataload\n        /* \"#utility.yul\":7604:7633   */\n      swap1\n      pop\n        /* \"#utility.yul\":7642:7675   */\n      tag_256\n        /* \"#utility.yul\":7669:7674   */\n      dup2\n        /* \"#utility.yul\":7642:7675   */\n      tag_127\n      jump\t// in\n    tag_256:\n        /* \"#utility.yul\":7542:7681   */\n      swap3\n      swap2\n      pop\n      pop\n      jump\t// out\n        /* \"#utility.yul\":7687:8016   */\n    tag_27:\n        /* \"#utility.yul\":7746:7752   */\n      0x00\n        /* \"#utility.yul\":7795:7797   */\n      0x20\n        /* \"#utility.yul\":7783:7792   */\n      dup3\n        /* \"#utility.yul\":7774:7781   */\n      dup5\n        /* \"#utility.yul\":7770:7793   */\n      sub\n        /* \"#utility.yul\":7766:7798   */\n      slt\n        /* \"#utility.yul\":7763:7882   */\n      iszero\n      tag_258\n      jumpi\n        /* \"#utility.yul\":7801:7880   */\n      tag_259\n      tag_101\n      jump\t// in\n    tag_259:\n        /* \"#utility.yul\":7763:7882   */\n    tag_258:\n        /* \"#utility.yul\":7921:7922   */\n      0x00\n        /* \"#utility.yul\":7946:7999   */\n      tag_260\n        /* \"#utility.yul\":7991:7998   */\n      dup5\n        /* \"#utility.yul\":7982:7988   */\n      dup3\n        /* \"#utility.yul\":7971:7980   */\n      dup6\n        /* \"#utility.yul\":7967:7989   */\n      add\n        /* \"#utility.yul\":7946:7999   */\n      tag_128\n      jump\t// in\n    tag_260:\n        /* \"#utility.yul\":7936:7999   */\n      swap2\n      pop\n        /* \"#utility.yul\":7892:8009   */\n      pop\n        /* \"#utility.yul\":7687:8016   */\n      swap3\n      swap2\n      pop\n      pop\n      jump\t// out\n        /* \"#utility.yul\":8022:8140   */\n    tag_129:\n        /* \"#utility.yul\":8109:8133   */\n      tag_262\n        /* \"#utility.yul\":8127:8132   */\n      dup2\n        /* \"#utility.yul\":8109:8133   */\n      tag_126\n      jump\t// in\n    tag_262:\n        /* \"#utility.yul\":8104:8107   */\n      dup3\n        /* \"#utility.yul\":8097:8134   */\n      mstore\n        /* \"#utility.yul\":8022:8140   */\n      pop\n      pop\n      jump\t// out\n        /* \"#utility.yul\":8146:9301   */\n    tag_30:\n        /* \"#utility.yul\":8463:8467   */\n      0x00\n        /* \"#utility.yul\":8501:8504   */\n      0x0100\n        /* \"#utility.yul\":8490:8499   */\n      dup3\n        /* \"#utility.yul\":8486:8505   */\n      add\n        /* \"#utility.yul\":8478:8505   */\n      swap1\n      pop\n        /* \"#utility.yul\":8515:8586   */\n      tag_264\n        /* \"#utility.yul\":8583:8584   */\n      0x00\n        /* \"#utility.yul\":8572:8581   */\n      dup4\n        /* \"#utility.yul\":8568:8585   */\n      add\n        /* \"#utility.yul\":8559:8565   */\n      dup12\n        /* \"#utility.yul\":8515:8586   */\n      tag_112\n      jump\t// in\n    tag_264:\n        /* \"#utility.yul\":8596:8668   */\n      tag_265\n        /* \"#utility.yul\":8664:8666   */\n      0x20\n        /* \"#utility.yul\":8653:8662   */\n      dup4\n        /* \"#utility.yul\":8649:8667   */\n      add\n        /* \"#utility.yul\":8640:8646   */\n      dup11\n        /* \"#utility.yul\":8596:8668   */\n      tag_112\n      jump\t// in\n    tag_265:\n        /* \"#utility.yul\":8715:8724   */\n      dup2\n        /* \"#utility.yul\":8709:8713   */\n      dup2\n        /* \"#utility.yul\":8705:8725   */\n      sub\n        /* \"#utility.yul\":8700:8702   */\n      0x40\n        /* \"#utility.yul\":8689:8698   */\n      dup4\n        /* \"#utility.yul\":8685:8703   */\n      add\n        /* \"#utility.yul\":8678:8726   */\n      mstore\n        /* \"#utility.yul\":8743:8821   */\n      tag_266\n        /* \"#utility.yul\":8816:8820   */\n      dup2\n        /* \"#utility.yul\":8807:8813   */\n      dup10\n        /* \"#utility.yul\":8743:8821   */\n      tag_111\n      jump\t// in\n    tag_266:\n        /* \"#utility.yul\":8735:8821   */\n      swap1\n      pop\n        /* \"#utility.yul\":8868:8877   */\n      dup2\n        /* \"#utility.yul\":8862:8866   */\n      dup2\n        /* \"#utility.yul\":8858:8878   */\n      sub\n        /* \"#utility.yul\":8853:8855   */\n      0x60\n        /* \"#utility.yul\":8842:8851   */\n      dup4\n        /* \"#utility.yul\":8838:8856   */\n      add\n        /* \"#utility.yul\":8831:8879   */\n      mstore\n        /* \"#utility.yul\":8896:8974   */\n      tag_267\n        /* \"#utility.yul\":8969:8973   */\n      dup2\n        /* \"#utility.yul\":8960:8966   */\n      dup9\n        /* \"#utility.yul\":8896:8974   */\n      tag_111\n      jump\t// in\n    tag_267:\n        /* \"#utility.yul\":8888:8974   */\n      swap1\n      pop\n        /* \"#utility.yul\":8984:9057   */\n      tag_268\n        /* \"#utility.yul\":9052:9055   */\n      0x80\n        /* \"#utility.yul\":9041:9050   */\n      dup4\n        /* \"#utility.yul\":9037:9056   */\n      add\n        /* \"#utility.yul\":9028:9034   */\n      dup8\n        /* \"#utility.yul\":8984:9057   */\n      tag_129\n      jump\t// in\n    tag_268:\n        /* \"#utility.yul\":9067:9140   */\n      tag_269\n        /* \"#utility.yul\":9135:9138   */\n      0xa0\n        /* \"#utility.yul\":9124:9133   */\n      dup4\n        /* \"#utility.yul\":9120:9139   */\n      add\n        /* \"#utility.yul\":9111:9117   */\n      dup7\n        /* \"#utility.yul\":9067:9140   */\n      tag_129\n      jump\t// in\n    tag_269:\n        /* \"#utility.yul\":9150:9217   */\n      tag_270\n        /* \"#utility.yul\":9212:9215   */\n      0xc0\n        /* \"#utility.yul\":9201:9210   */\n      dup4\n        /* \"#utility.yul\":9197:9216   */\n      add\n        /* \"#utility.yul\":9188:9194   */\n      dup6\n        /* \"#utility.yul\":9150:9217   */\n      tag_114\n      jump\t// in\n    tag_270:\n        /* \"#utility.yul\":9227:9294   */\n      tag_271\n        /* \"#utility.yul\":9289:9292   */\n      0xe0\n        /* \"#utility.yul\":9278:9287   */\n      dup4\n        /* \"#utility.yul\":9274:9293   */\n      add\n        /* \"#utility.yul\":9265:9271   */\n      dup5\n        /* \"#utility.yul\":9227:9294   */\n      tag_114\n      jump\t// in\n    tag_271:\n        /* \"#utility.yul\":8146:9301   */\n      swap10\n      swap9\n      pop\n      pop\n      pop\n      pop\n      pop\n      pop\n      pop\n      pop\n      pop\n      jump\t// out\n        /* \"#utility.yul\":9307:10141   */\n    tag_33:\n        /* \"#utility.yul\":9395:9401   */\n      0x00\n        /* \"#utility.yul\":9403:9409   */\n      dup1\n        /* \"#utility.yul\":9452:9454   */\n      0x40\n        /* \"#utility.yul\":9440:9449   */\n      dup4\n        /* \"#utility.yul\":9431:9438   */\n      dup6\n        /* \"#utility.yul\":9427:9450   */\n      sub\n        /* \"#utility.yul\":9423:9455   */\n      slt\n        /* \"#utility.yul\":9420:9539   */\n      iszero\n      tag_273\n      jumpi\n        /* \"#utility.yul\":9458:9537   */\n      tag_274\n      tag_101\n      jump\t// in\n    tag_274:\n        /* \"#utility.yul\":9420:9539   */\n    tag_273:\n        /* \"#utility.yul\":9606:9607   */\n      0x00\n        /* \"#utility.yul\":9595:9604   */\n      dup4\n        /* \"#utility.yul\":9591:9608   */\n      add\n        /* \"#utility.yul\":9578:9609   */\n      calldataload\n        /* \"#utility.yul\":9636:9654   */\n      0xffffffffffffffff\n        /* \"#utility.yul\":9628:9634   */\n      dup2\n        /* \"#utility.yul\":9625:9655   */\n      gt\n        /* \"#utility.yul\":9622:9739   */\n      iszero\n      tag_275\n      jumpi\n        /* \"#utility.yul\":9658:9737   */\n      tag_276\n      tag_102\n      jump\t// in\n    tag_276:\n        /* \"#utility.yul\":9622:9739   */\n    tag_275:\n        /* \"#utility.yul\":9763:9826   */\n      tag_277\n        /* \"#utility.yul\":9818:9825   */\n      dup6\n        /* \"#utility.yul\":9809:9815   */\n      dup3\n        /* \"#utility.yul\":9798:9807   */\n      dup7\n        /* \"#utility.yul\":9794:9816   */\n      add\n        /* \"#utility.yul\":9763:9826   */\n      tag_123\n      jump\t// in\n    tag_277:\n        /* \"#utility.yul\":9753:9826   */\n      swap3\n      pop\n        /* \"#utility.yul\":9549:9836   */\n      pop\n        /* \"#utility.yul\":9903:9905   */\n      0x20\n        /* \"#utility.yul\":9892:9901   */\n      dup4\n        /* \"#utility.yul\":9888:9906   */\n      add\n        /* \"#utility.yul\":9875:9907   */\n      calldataload\n        /* \"#utility.yul\":9934:9952   */\n      0xffffffffffffffff\n        /* \"#utility.yul\":9926:9932   */\n      dup2\n        /* \"#utility.yul\":9923:9953   */\n      gt\n        /* \"#utility.yul\":9920:10037   */\n      iszero\n      tag_278\n      jumpi\n        /* \"#utility.yul\":9956:10035   */\n      tag_279\n      tag_102\n      jump\t// in\n    tag_279:\n        /* \"#utility.yul\":9920:10037   */\n    tag_278:\n        /* \"#utility.yul\":10061:10124   */\n      tag_280\n        /* \"#utility.yul\":10116:10123   */\n      dup6\n        /* \"#utility.yul\":10107:10113   */\n      dup3\n        /* \"#utility.yul\":10096:10105   */\n      dup7\n        /* \"#utility.yul\":10092:10114   */\n      add\n        /* \"#utility.yul\":10061:10124   */\n      tag_123\n      jump\t// in\n    tag_280:\n        /* \"#utility.yul\":10051:10124   */\n      swap2\n      pop\n        /* \"#utility.yul\":9846:10134   */\n      pop\n        /* \"#utility.yul\":9307:10141   */\n      swap3\n      pop\n      swap3\n      swap1\n      pop\n      jump\t// out\n        /* \"#utility.yul\":10147:11418   */\n    tag_37:\n        /* \"#utility.yul\":10262:10268   */\n      0x00\n        /* \"#utility.yul\":10270:10276   */\n      dup1\n        /* \"#utility.yul\":10278:10284   */\n      0x00\n        /* \"#utility.yul\":10286:10292   */\n      dup1\n        /* \"#utility.yul\":10294:10300   */\n      0x00\n        /* \"#utility.yul\":10343:10346   */\n      0xa0\n        /* \"#utility.yul\":10331:10340   */\n      dup7\n        /* \"#utility.yul\":10322:10329   */\n      dup9\n        /* \"#utility.yul\":10318:10341   */\n      sub\n        /* \"#utility.yul\":10314:10347   */\n      slt\n        /* \"#utility.yul\":10311:10431   */\n      iszero\n      tag_282\n      jumpi\n        /* \"#utility.yul\":10350:10429   */\n      tag_283\n      tag_101\n      jump\t// in\n    tag_283:\n        /* \"#utility.yul\":10311:10431   */\n    tag_282:\n        /* \"#utility.yul\":10470:10471   */\n      0x00\n        /* \"#utility.yul\":10495:10548   */\n      tag_284\n        /* \"#utility.yul\":10540:10547   */\n      dup9\n        /* \"#utility.yul\":10531:10537   */\n      dup3\n        /* \"#utility.yul\":10520:10529   */\n      dup10\n        /* \"#utility.yul\":10516:10538   */\n      add\n        /* \"#utility.yul\":10495:10548   */\n      tag_106\n      jump\t// in\n    tag_284:\n        /* \"#utility.yul\":10485:10548   */\n      swap6\n      pop\n        /* \"#utility.yul\":10441:10558   */\n      pop\n        /* \"#utility.yul\":10625:10627   */\n      0x20\n        /* \"#utility.yul\":10614:10623   */\n      dup7\n        /* \"#utility.yul\":10610:10628   */\n      add\n        /* \"#utility.yul\":10597:10629   */\n      calldataload\n        /* \"#utility.yul\":10656:10674   */\n      0xffffffffffffffff\n        /* \"#utility.yul\":10648:10654   */\n      dup2\n        /* \"#utility.yul\":10645:10675   */\n      gt\n        /* \"#utility.yul\":10642:10759   */\n      iszero\n      tag_285\n      jumpi\n        /* \"#utility.yul\":10678:10757   */\n      tag_286\n      tag_102\n      jump\t// in\n    tag_286:\n        /* \"#utility.yul\":10642:10759   */\n    tag_285:\n        /* \"#utility.yul\":10783:10846   */\n      tag_287\n        /* \"#utility.yul\":10838:10845   */\n      dup9\n        /* \"#utility.yul\":10829:10835   */\n      dup3\n        /* \"#utility.yul\":10818:10827   */\n      dup10\n        /* \"#utility.yul\":10814:10836   */\n      add\n        /* \"#utility.yul\":10783:10846   */\n      tag_123\n      jump\t// in\n    tag_287:\n        /* \"#utility.yul\":10773:10846   */\n      swap5\n      pop\n        /* \"#utility.yul\":10568:10856   */\n      pop\n        /* \"#utility.yul\":10923:10925   */\n      0x40\n        /* \"#utility.yul\":10912:10921   */\n      dup7\n        /* \"#utility.yul\":10908:10926   */\n      add\n        /* \"#utility.yul\":10895:10927   */\n      calldataload\n        /* \"#utility.yul\":10954:10972   */\n      0xffffffffffffffff\n        /* \"#utility.yul\":10946:10952   */\n      dup2\n        /* \"#utility.yul\":10943:10973   */\n      gt\n        /* \"#utility.yul\":10940:11057   */\n      iszero\n      tag_288\n      jumpi\n        /* \"#utility.yul\":10976:11055   */\n      tag_289\n      tag_102\n      jump\t// in\n    tag_289:\n        /* \"#utility.yul\":10940:11057   */\n    tag_288:\n        /* \"#utility.yul\":11081:11144   */\n      tag_290\n        /* \"#utility.yul\":11136:11143   */\n      dup9\n        /* \"#utility.yul\":11127:11133   */\n      dup3\n        /* \"#utility.yul\":11116:11125   */\n      dup10\n        /* \"#utility.yul\":11112:11134   */\n      add\n        /* \"#utility.yul\":11081:11144   */\n      tag_123\n      jump\t// in\n    tag_290:\n        /* \"#utility.yul\":11071:11144   */\n      swap4\n      pop\n        /* \"#utility.yul\":10866:11154   */\n      pop\n        /* \"#utility.yul\":11193:11195   */\n      0x60\n        /* \"#utility.yul\":11219:11272   */\n      tag_291\n        /* \"#utility.yul\":11264:11271   */\n      dup9\n        /* \"#utility.yul\":11255:11261   */\n      dup3\n        /* \"#utility.yul\":11244:11253   */\n      dup10\n        /* \"#utility.yul\":11240:11262   */\n      add\n        /* \"#utility.yul\":11219:11272   */\n      tag_128\n      jump\t// in\n    tag_291:\n        /* \"#utility.yul\":11209:11272   */\n      swap3\n      pop\n        /* \"#utility.yul\":11164:11282   */\n      pop\n        /* \"#utility.yul\":11321:11324   */\n      0x80\n        /* \"#utility.yul\":11348:11401   */\n      tag_292\n        /* \"#utility.yul\":11393:11400   */\n      dup9\n        /* \"#utility.yul\":11384:11390   */\n      dup3\n        /* \"#utility.yul\":11373:11382   */\n      dup10\n        /* \"#utility.yul\":11369:11391   */\n      add\n        /* \"#utility.yul\":11348:11401   */\n      tag_128\n      jump\t// in\n    tag_292:\n        /* \"#utility.yul\":11338:11401   */\n      swap2\n      pop\n        /* \"#utility.yul\":11292:11411   */\n      pop\n        /* \"#utility.yul\":10147:11418   */\n      swap3\n      swap6\n      pop\n      swap3\n      swap6\n      swap1\n      swap4\n      pop\n      jump\t// out\n        /* \"#utility.yul\":11424:11604   */\n    tag_130:\n        /* \"#utility.yul\":11472:11549   */\n      0x4e487b7100000000000000000000000000000000000000000000000000000000\n        /* \"#utility.yul\":11469:11470   */\n      0x00\n        /* \"#utility.yul\":11462:11550   */\n      mstore\n        /* \"#utility.yul\":11569:11573   */\n      0x22\n        /* \"#utility.yul\":11566:11567   */\n      0x04\n        /* \"#utility.yul\":11559:11574   */\n      mstore\n        /* \"#utility.yul\":11593:11597   */\n      0x24\n        /* \"#utility.yul\":11590:11591   */\n      0x00\n        /* \"#utility.yul\":11583:11598   */\n      revert\n        /* \"#utility.yul\":11610:11930   */\n    tag_40:\n        /* \"#utility.yul\":11654:11660   */\n      0x00\n        /* \"#utility.yul\":11691:11692   */\n      0x02\n        /* \"#utility.yul\":11685:11689   */\n      dup3\n        /* \"#utility.yul\":11681:11693   */\n      div\n        /* \"#utility.yul\":11671:11693   */\n      swap1\n      pop\n        /* \"#utility.yul\":11738:11739   */\n      0x01\n        /* \"#utility.yul\":11732:11736   */\n      dup3\n        /* \"#utility.yul\":11728:11740   */\n      and\n        /* \"#utility.yul\":11759:11777   */\n      dup1\n        /* \"#utility.yul\":11749:11830   */\n      tag_295\n      jumpi\n        /* \"#utility.yul\":11815:11819   */\n      0x7f\n        /* \"#utility.yul\":11807:11813   */\n      dup3\n        /* \"#utility.yul\":11803:11820   */\n      and\n        /* \"#utility.yul\":11793:11820   */\n      swap2\n      pop\n        /* \"#utility.yul\":11749:11830   */\n    tag_295:\n        /* \"#utility.yul\":11877:11879   */\n      0x20\n        /* \"#utility.yul\":11869:11875   */\n      dup3\n        /* \"#utility.yul\":11866:11880   */\n      lt\n        /* \"#utility.yul\":11846:11864   */\n      dup2\n        /* \"#utility.yul\":11843:11881   */\n      sub\n        /* \"#utility.yul\":11840:11924   */\n      tag_296\n      jumpi\n        /* \"#utility.yul\":11896:11914   */\n      tag_297\n      tag_130\n      jump\t// in\n    tag_297:\n        /* \"#utility.yul\":11840:11924   */\n    tag_296:\n        /* \"#utility.yul\":11661:11930   */\n      pop\n        /* \"#utility.yul\":11610:11930   */\n      swap2\n      swap1\n      pop\n      jump\t// out\n        /* \"#utility.yul\":11936:12112   */\n    tag_131:\n        /* \"#utility.yul\":12076:12104   */\n      0x5573657220697320616c72656164792072656769737465726564000000000000\n        /* \"#utility.yul\":12072:12073   */\n      0x00\n        /* \"#utility.yul\":12064:12070   */\n      dup3\n        /* \"#utility.yul\":12060:12074   */\n      add\n        /* \"#utility.yul\":12053:12105   */\n      mstore\n        /* \"#utility.yul\":11936:12112   */\n      pop\n      jump\t// out\n        /* \"#utility.yul\":12118:12484   */\n    tag_132:\n        /* \"#utility.yul\":12260:12263   */\n      0x00\n        /* \"#utility.yul\":12281:12348   */\n      tag_300\n        /* \"#utility.yul\":12345:12347   */\n      0x1a\n        /* \"#utility.yul\":12340:12343   */\n      dup4\n        /* \"#utility.yul\":12281:12348   */\n      tag_108\n      jump\t// in\n    tag_300:\n        /* \"#utility.yul\":12274:12348   */\n      swap2\n      pop\n        /* \"#utility.yul\":12357:12450   */\n      tag_301\n        /* \"#utility.yul\":12446:12449   */\n      dup3\n        /* \"#utility.yul\":12357:12450   */\n      tag_131\n      jump\t// in\n    tag_301:\n        /* \"#utility.yul\":12475:12477   */\n      0x20\n        /* \"#utility.yul\":12470:12473   */\n      dup3\n        /* \"#utility.yul\":12466:12478   */\n      add\n        /* \"#utility.yul\":12459:12478   */\n      swap1\n      pop\n        /* \"#utility.yul\":12118:12484   */\n      swap2\n      swap1\n      pop\n      jump\t// out\n        /* \"#utility.yul\":12490:12909   */\n    tag_48:\n        /* \"#utility.yul\":12656:12660   */\n      0x00\n        /* \"#utility.yul\":12694:12696   */\n      0x20\n        /* \"#utility.yul\":12683:12692   */\n      dup3\n        /* \"#utility.yul\":12679:12697   */\n      add\n        /* \"#utility.yul\":12671:12697   */\n      swap1\n      pop\n        /* \"#utility.yul\":12743:12752   */\n      dup2\n        /* \"#utility.yul\":12737:12741   */\n      dup2\n        /* \"#utility.yul\":12733:12753   */\n      sub\n        /* \"#utility.yul\":12729:12730   */\n      0x00\n        /* \"#utility.yul\":12718:12727   */\n      dup4\n        /* \"#utility.yul\":12714:12731   */\n      add\n        /* \"#utility.yul\":12707:12754   */\n      mstore\n        /* \"#utility.yul\":12771:12902   */\n      tag_303\n        /* \"#utility.yul\":12897:12901   */\n      dup2\n        /* \"#utility.yul\":12771:12902   */\n      tag_132\n      jump\t// in\n    tag_303:\n        /* \"#utility.yul\":12763:12902   */\n      swap1\n      pop\n        /* \"#utility.yul\":12490:12909   */\n      swap2\n      swap1\n      pop\n      jump\t// out\n        /* \"#utility.yul\":12915:13056   */\n    tag_133:\n        /* \"#utility.yul\":12964:12968   */\n      0x00\n        /* \"#utility.yul\":12987:12990   */\n      dup2\n        /* \"#utility.yul\":12979:12990   */\n      swap1\n      pop\n        /* \"#utility.yul\":13010:13013   */\n      dup2\n        /* \"#utility.yul\":13007:13008   */\n      0x00\n        /* \"#utility.yul\":13000:13014   */\n      mstore\n        /* \"#utility.yul\":13044:13048   */\n      0x20\n        /* \"#utility.yul\":13041:13042   */\n      0x00\n        /* \"#utility.yul\":13031:13049   */\n      keccak256\n        /* \"#utility.yul\":13023:13049   */\n      swap1\n      pop\n        /* \"#utility.yul\":12915:13056   */\n      swap2\n      swap1\n      pop\n      jump\t// out\n        /* \"#utility.yul\":13062:13155   */\n    tag_134:\n        /* \"#utility.yul\":13099:13105   */\n      0x00\n        /* \"#utility.yul\":13146:13148   */\n      0x20\n        /* \"#utility.yul\":13141:13143   */\n      0x1f\n        /* \"#utility.yul\":13134:13139   */\n      dup4\n        /* \"#utility.yul\":13130:13144   */\n      add\n        /* \"#utility.yul\":13126:13149   */\n      div\n        /* \"#utility.yul\":13116:13149   */\n      swap1\n      pop\n        /* \"#utility.yul\":13062:13155   */\n      swap2\n      swap1\n      pop\n      jump\t// out\n        /* \"#utility.yul\":13161:13268   */\n    tag_135:\n        /* \"#utility.yul\":13205:13213   */\n      0x00\n        /* \"#utility.yul\":13255:13260   */\n      dup3\n        /* \"#utility.yul\":13249:13253   */\n      dup3\n        /* \"#utility.yul\":13245:13261   */\n      shl\n        /* \"#utility.yul\":13224:13261   */\n      swap1\n      pop\n        /* \"#utility.yul\":13161:13268   */\n      swap3\n      swap2\n      pop\n      pop\n      jump\t// out\n        /* \"#utility.yul\":13274:13667   */\n    tag_136:\n        /* \"#utility.yul\":13343:13349   */\n      0x00\n        /* \"#utility.yul\":13393:13394   */\n      0x08\n        /* \"#utility.yul\":13381:13391   */\n      dup4\n        /* \"#utility.yul\":13377:13395   */\n      mul\n        /* \"#utility.yul\":13416:13513   */\n      tag_308\n        /* \"#utility.yul\":13446:13512   */\n      0xffffffffffffffffffffffffffffffffffffffffffffffffffffffffffffffff\n        /* \"#utility.yul\":13435:13444   */\n      dup3\n        /* \"#utility.yul\":13416:13513   */\n      tag_135\n      jump\t// in\n    tag_308:\n        /* \"#utility.yul\":13534:13573   */\n      tag_309\n        /* \"#utility.yul\":13564:13572   */\n      dup7\n        /* \"#utility.yul\":13553:13562   */\n      dup4\n        /* \"#utility.yul\":13534:13573   */\n      tag_135\n      jump\t// in\n    tag_309:\n        /* \"#utility.yul\":13522:13573   */\n      swap6\n      pop\n        /* \"#utility.yul\":13606:13610   */\n      dup1\n        /* \"#utility.yul\":13602:13611   */\n      not\n        /* \"#utility.yul\":13595:13600   */\n      dup5\n        /* \"#utility.yul\":13591:13612   */\n      and\n        /* \"#utility.yul\":13582:13612   */\n      swap4\n      pop\n        /* \"#utility.yul\":13655:13659   */\n      dup1\n        /* \"#utility.yul\":13645:13653   */\n      dup7\n        /* \"#utility.yul\":13641:13660   */\n      and\n        /* \"#utility.yul\":13634:13639   */\n      dup5\n        /* \"#utility.yul\":13631:13661   */\n      or\n        /* \"#utility.yul\":13621:13661   */\n      swap3\n      pop\n        /* \"#utility.yul\":13350:13667   */\n      pop\n      pop\n        /* \"#utility.yul\":13274:13667   */\n      swap4\n      swap3\n      pop\n      pop\n      pop\n      jump\t// out\n        /* \"#utility.yul\":13673:13733   */\n    tag_137:\n        /* \"#utility.yul\":13701:13704   */\n      0x00\n        /* \"#utility.yul\":13722:13727   */\n      dup2\n        /* \"#utility.yul\":13715:13727   */\n      swap1\n      pop\n        /* \"#utility.yul\":13673:13733   */\n      swap2\n      swap1\n      pop\n      jump\t// out\n        /* \"#utility.yul\":13739:13881   */\n    tag_138:\n        /* \"#utility.yul\":13789:13798   */\n      0x00\n        /* \"#utility.yul\":13822:13875   */\n      tag_312\n        /* \"#utility.yul\":13840:13874   */\n      tag_313\n        /* \"#utility.yul\":13849:13873   */\n      tag_314\n        /* \"#utility.yul\":13867:13872   */\n      dup5\n        /* \"#utility.yul\":13849:13873   */\n      tag_126\n      jump\t// in\n    tag_314:\n        /* \"#utility.yul\":13840:13874   */\n      tag_137\n      jump\t// in\n    tag_313:\n        /* \"#utility.yul\":13822:13875   */\n      tag_126\n      jump\t// in\n    tag_312:\n        /* \"#utility.yul\":13809:13875   */\n      swap1\n      pop\n        /* \"#utility.yul\":13739:13881   */\n      swap2\n      swap1\n      pop\n      jump\t// out\n        /* \"#utility.yul\":13887:13962   */\n    tag_139:\n        /* \"#utility.yul\":13930:13933   */\n      0x00\n        /* \"#utility.yul\":13951:13956   */\n      dup2\n        /* \"#utility.yul\":13944:13956   */\n      swap1\n      pop\n        /* \"#utility.yul\":13887:13962   */\n      swap2\n      swap1\n      pop\n      jump\t// out\n        /* \"#utility.yul\":13968:14237   */\n    tag_140:\n        /* \"#utility.yul\":14078:14117   */\n      tag_317\n        /* \"#utility.yul\":14109:14116   */\n      dup4\n        /* \"#utility.yul\":14078:14117   */\n      tag_138\n      jump\t// in\n    tag_317:\n        /* \"#utility.yul\":14139:14230   */\n      tag_318\n        /* \"#utility.yul\":14188:14229   */\n      tag_319\n        /* \"#utility.yul\":14212:14228   */\n      dup3\n        /* \"#utility.yul\":14188:14229   */\n      tag_139\n      jump\t// in\n    tag_319:\n        /* \"#utility.yul\":14180:14186   */\n      dup5\n        /* \"#utility.yul\":14173:14177   */\n      dup5\n        /* \"#utility.yul\":14167:14178   */\n      sload\n        /* \"#utility.yul\":14139:14230   */\n      tag_136\n      jump\t// in\n    tag_318:\n        /* \"#utility.yul\":14133:14137   */\n      dup3\n        /* \"#utility.yul\":14126:14231   */\n      sstore\n        /* \"#utility.yul\":14044:14237   */\n      pop\n        /* \"#utility.yul\":13968:14237   */\n      pop\n      pop\n      pop\n      jump\t// out\n        /* \"#utility.yul\":14243:14316   */\n    tag_141:\n        /* \"#utility.yul\":14288:14291   */\n      0x00\n        /* \"#utility.yul\":14243:14316   */\n      swap1\n      jump\t// out\n        /* \"#utility.yul\":14322:14511   */\n    tag_142:\n        /* \"#utility.yul\":14399:14431   */\n      tag_322\n      tag_141\n      jump\t// in\n    tag_322:\n        /* \"#utility.yul\":14440:14505   */\n      tag_323\n        /* \"#utility.yul\":14498:14504   */\n      dup2\n        /* \"#utility.yul\":14490:14496   */\n      dup5\n        /* \"#utility.yul\":14484:14488   */\n      dup5\n        /* \"#utility.yul\":14440:14505   */\n      tag_140\n      jump\t// in\n    tag_323:\n        /* \"#utility.yul\":14375:14511   */\n      pop\n        /* \"#utility.yul\":14322:14511   */\n      pop\n      pop\n      jump\t// out\n        /* \"#utility.yul\":14517:14703   */\n    tag_143:\n        /* \"#utility.yul\":14577:14697   */\n    tag_325:\n        /* \"#utility.yul\":14594:14597   */\n      dup2\n        /* \"#utility.yul\":14587:14592   */\n      dup2\n        /* \"#utility.yul\":14584:14598   */\n      lt\n        /* \"#utility.yul\":14577:14697   */\n      iszero\n      tag_327\n      jumpi\n        /* \"#utility.yul\":14648:14687   */\n      tag_328\n        /* \"#utility.yul\":14685:14686   */\n      0x00\n        /* \"#utility.yul\":14678:14683   */\n      dup3\n        /* \"#utility.yul\":14648:14687   */\n      tag_142\n      jump\t// in\n    tag_328:\n        /* \"#utility.yul\":14621:14622   */\n      0x01\n        /* \"#utility.yul\":14614:14619   */\n      dup2\n        /* \"#utility.yul\":14610:14623   */\n      add\n        /* \"#utility.yul\":14601:14623   */\n      swap1\n      pop\n        /* \"#utility.yul\":14577:14697   */\n      jump(tag_325)\n    tag_327:\n        /* \"#utility.yul\":14517:14703   */\n      pop\n      pop\n      jump\t// out\n        /* \"#utility.yul\":14709:15252   */\n    tag_144:\n        /* \"#utility.yul\":14810:14812   */\n      0x1f\n        /* \"#utility.yul\":14805:14808   */\n      dup3\n        /* \"#utility.yul\":14802:14813   */\n      gt\n        /* \"#utility.yul\":14799:15245   */\n      iszero\n      tag_330\n      jumpi\n        /* \"#utility.yul\":14844:14882   */\n      tag_331\n        /* \"#utility.yul\":14876:14881   */\n      dup2\n        /* \"#utility.yul\":14844:14882   */\n      tag_133\n      jump\t// in\n    tag_331:\n        /* \"#utility.yul\":14928:14957   */\n      tag_332\n        /* \"#utility.yul\":14946:14956   */\n      dup5\n        /* \"#utility.yul\":14928:14957   */\n      tag_134\n      jump\t// in\n    tag_332:\n        /* \"#utility.yul\":14918:14926   */\n      dup2\n        /* \"#utility.yul\":14914:14958   */\n      add\n        /* \"#utility.yul\":15111:15113   */\n      0x20\n        /* \"#utility.yul\":15099:15109   */\n      dup6\n        /* \"#utility.yul\":15096:15114   */\n      lt\n        /* \"#utility.yul\":15093:15142   */\n      iszero\n      tag_333\n      jumpi\n        /* \"#utility.yul\":15132:15140   */\n      dup2\n        /* \"#utility.yul\":15117:15140   */\n      swap1\n      pop\n        /* \"#utility.yul\":15093:15142   */\n    tag_333:\n        /* \"#utility.yul\":15155:15235   */\n      tag_334\n        /* \"#utility.yul\":15211:15233   */\n      tag_335\n        /* \"#utility.yul\":15229:15232   */\n      dup6\n        /* \"#utility.yul\":15211:15233   */\n      tag_134\n      jump\t// in\n    tag_335:\n        /* \"#utility.yul\":15201:15209   */\n      dup4\n        /* \"#utility.yul\":15197:15234   */\n      add\n        /* \"#utility.yul\":15184:15195   */\n      dup3\n        /* \"#utility.yul\":15155:15235   */\n      tag_143\n      jump\t// in\n    tag_334:\n        /* \"#utility.yul\":14814:15245   */\n      pop\n      pop\n        /* \"#utility.yul\":14799:15245   */\n    tag_330:\n        /* \"#utility.yul\":14709:15252   */\n      pop\n      pop\n      pop\n      jump\t// out\n        /* \"#utility.yul\":15258:15375   */\n    tag_145:\n        /* \"#utility.yul\":15312:15320   */\n      0x00\n        /* \"#utility.yul\":15362:15367   */\n      dup3\n        /* \"#utility.yul\":15356:15360   */\n      dup3\n        /* \"#utility.yul\":15352:15368   */\n      shr\n        /* \"#utility.yul\":15331:15368   */\n      swap1\n      pop\n        /* \"#utility.yul\":15258:15375   */\n      swap3\n      swap2\n      pop\n      pop\n      jump\t// out\n        /* \"#utility.yul\":15381:15550   */\n    tag_146:\n        /* \"#utility.yul\":15425:15431   */\n      0x00\n        /* \"#utility.yul\":15458:15509   */\n      tag_338\n        /* \"#utility.yul\":15506:15507   */\n      0x00\n        /* \"#utility.yul\":15502:15508   */\n      not\n        /* \"#utility.yul\":15494:15499   */\n      dup5\n        /* \"#utility.yul\":15491:15492   */\n      0x08\n        /* \"#utility.yul\":15487:15500   */\n      mul\n        /* \"#utility.yul\":15458:15509   */\n      tag_145\n      jump\t// in\n    tag_338:\n        /* \"#utility.yul\":15454:15510   */\n      not\n        /* \"#utility.yul\":15539:15543   */\n      dup1\n        /* \"#utility.yul\":15533:15537   */\n      dup4\n        /* \"#utility.yul\":15529:15544   */\n      and\n        /* \"#utility.yul\":15519:15544   */\n      swap2\n      pop\n        /* \"#utility.yul\":15432:15550   */\n      pop\n        /* \"#utility.yul\":15381:15550   */\n      swap3\n      swap2\n      pop\n      pop\n      jump\t// out\n        /* \"#utility.yul\":15555:15850   */\n    tag_147:\n        /* \"#utility.yul\":15631:15635   */\n      0x00\n        /* \"#utility.yul\":15777:15806   */\n      tag_340\n        /* \"#utility.yul\":15802:15805   */\n      dup4\n        /* \"#utility.yul\":15796:15800   */\n      dup4\n        /* \"#utility.yul\":15777:15806   */\n      tag_146\n      jump\t// in\n    tag_340:\n        /* \"#utility.yul\":15769:15806   */\n      swap2\n      pop\n        /* \"#utility.yul\":15839:15842   */\n      dup3\n        /* \"#utility.yul\":15836:15837   */\n      0x02\n        /* \"#utility.yul\":15832:15843   */\n      mul\n        /* \"#utility.yul\":15826:15830   */\n      dup3\n        /* \"#utility.yul\":15823:15844   */\n      or\n        /* \"#utility.yul\":15815:15844   */\n      swap1\n      pop\n        /* \"#utility.yul\":15555:15850   */\n      swap3\n      swap2\n      pop\n      pop\n      jump\t// out\n        /* \"#utility.yul\":15855:17250   */\n    tag_50:\n        /* \"#utility.yul\":15972:16009   */\n      tag_342\n        /* \"#utility.yul\":16005:16008   */\n      dup3\n        /* \"#utility.yul\":15972:16009   */\n      tag_107\n      jump\t// in\n    tag_342:\n        /* \"#utility.yul\":16074:16092   */\n      0xffffffffffffffff\n        /* \"#utility.yul\":16066:16072   */\n      dup2\n        /* \"#utility.yul\":16063:16093   */\n      gt\n        /* \"#utility.yul\":16060:16116   */\n      iszero\n      tag_343\n      jumpi\n        /* \"#utility.yul\":16096:16114   */\n      tag_344\n      tag_117\n      jump\t// in\n    tag_344:\n        /* \"#utility.yul\":16060:16116   */\n    tag_343:\n        /* \"#utility.yul\":16140:16178   */\n      tag_345\n        /* \"#utility.yul\":16172:16176   */\n      dup3\n        /* \"#utility.yul\":16166:16177   */\n      sload\n        /* \"#utility.yul\":16140:16178   */\n      tag_40\n      jump\t// in\n    tag_345:\n        /* \"#utility.yul\":16225:16292   */\n      tag_346\n        /* \"#utility.yul\":16285:16291   */\n      dup3\n        /* \"#utility.yul\":16277:16283   */\n      dup3\n        /* \"#utility.yul\":16271:16275   */\n      dup6\n        /* \"#utility.yul\":16225:16292   */\n      tag_144\n      jump\t// in\n    tag_346:\n        /* \"#utility.yul\":16319:16320   */\n      0x00\n        /* \"#utility.yul\":16343:16347   */\n      0x20\n        /* \"#utility.yul\":16330:16347   */\n      swap1\n      pop\n        /* \"#utility.yul\":16375:16377   */\n      0x1f\n        /* \"#utility.yul\":16367:16373   */\n      dup4\n        /* \"#utility.yul\":16364:16378   */\n      gt\n        /* \"#utility.yul\":16392:16393   */\n      0x01\n        /* \"#utility.yul\":16387:17005   */\n      dup2\n      eq\n      tag_348\n      jumpi\n        /* \"#utility.yul\":17049:17050   */\n      0x00\n        /* \"#utility.yul\":17066:17072   */\n      dup5\n        /* \"#utility.yul\":17063:17140   */\n      iszero\n      tag_349\n      jumpi\n        /* \"#utility.yul\":17115:17124   */\n      dup3\n        /* \"#utility.yul\":17110:17113   */\n      dup8\n        /* \"#utility.yul\":17106:17125   */\n      add\n        /* \"#utility.yul\":17100:17126   */\n      mload\n        /* \"#utility.yul\":17091:17126   */\n      swap1\n      pop\n        /* \"#utility.yul\":17063:17140   */\n    tag_349:\n        /* \"#utility.yul\":17166:17233   */\n      tag_350\n        /* \"#utility.yul\":17226:17232   */\n      dup6\n        /* \"#utility.yul\":17219:17224   */\n      dup3\n        /* \"#utility.yul\":17166:17233   */\n      tag_147\n      jump\t// in\n    tag_350:\n        /* \"#utility.yul\":17160:17164   */\n      dup7\n        /* \"#utility.yul\":17153:17234   */\n      sstore\n        /* \"#utility.yul\":17022:17244   */\n      pop\n        /* \"#utility.yul\":16357:17244   */\n      jump(tag_347)\n        /* \"#utility.yul\":16387:17005   */\n    tag_348:\n        /* \"#utility.yul\":16439:16443   */\n      0x1f\n        /* \"#utility.yul\":16435:16444   */\n      not\n        /* \"#utility.yul\":16427:16433   */\n      dup5\n        /* \"#utility.yul\":16423:16445   */\n      and\n        /* \"#utility.yul\":16473:16510   */\n      tag_351\n        /* \"#utility.yul\":16505:16509   */\n      dup7\n        /* \"#utility.yul\":16473:16510   */\n      tag_133\n      jump\t// in\n    tag_351:\n        /* \"#utility.yul\":16532:16533   */\n      0x00\n        /* \"#utility.yul\":16546:16754   */\n    tag_352:\n        /* \"#utility.yul\":16560:16567   */\n      dup3\n        /* \"#utility.yul\":16557:16558   */\n      dup2\n        /* \"#utility.yul\":16554:16568   */\n      lt\n        /* \"#utility.yul\":16546:16754   */\n      iszero\n      tag_354\n      jumpi\n        /* \"#utility.yul\":16639:16648   */\n      dup5\n        /* \"#utility.yul\":16634:16637   */\n      dup10\n        /* \"#utility.yul\":16630:16649   */\n      add\n        /* \"#utility.yul\":16624:16650   */\n      mload\n        /* \"#utility.yul\":16616:16622   */\n      dup3\n        /* \"#utility.yul\":16609:16651   */\n      sstore\n        /* \"#utility.yul\":16690:16691   */\n      0x01\n        /* \"#utility.yul\":16682:16688   */\n      dup3\n        /* \"#utility.yul\":16678:16692   */\n      add\n        /* \"#utility.yul\":16668:16692   */\n      swap2\n      pop\n        /* \"#utility.yul\":16737:16739   */\n      0x20\n        /* \"#utility.yul\":16726:16735   */\n      dup6\n        /* \"#utility.yul\":16722:16740   */\n      add\n        /* \"#utility.yul\":16709:16740   */\n      swap5\n      pop\n        /* \"#utility.yul\":16583:16587   */\n      0x20\n        /* \"#utility.yul\":16580:16581   */\n      dup2\n        /* \"#utility.yul\":16576:16588   */\n      add\n        /* \"#utility.yul\":16571:16588   */\n      swap1\n      pop\n        /* \"#utility.yul\":16546:16754   */\n      jump(tag_352)\n    tag_354:\n        /* \"#utility.yul\":16782:16788   */\n      dup7\n        /* \"#utility.yul\":16773:16780   */\n      dup4\n        /* \"#utility.yul\":16770:16789   */\n      lt\n        /* \"#utility.yul\":16767:16946   */\n      iszero\n      tag_355\n      jumpi\n        /* \"#utility.yul\":16840:16849   */\n      dup5\n        /* \"#utility.yul\":16835:16838   */\n      dup10\n        /* \"#utility.yul\":16831:16850   */\n      add\n        /* \"#utility.yul\":16825:16851   */\n      mload\n        /* \"#utility.yul\":16883:16931   */\n      tag_356\n        /* \"#utility.yul\":16925:16929   */\n      0x1f\n        /* \"#utility.yul\":16917:16923   */\n      dup10\n        /* \"#utility.yul\":16913:16930   */\n      and\n        /* \"#utility.yul\":16902:16911   */\n      dup3\n        /* \"#utility.yul\":16883:16931   */\n      tag_146\n      jump\t// in\n    tag_356:\n        /* \"#utility.yul\":16875:16881   */\n      dup4\n        /* \"#utility.yul\":16868:16932   */\n      sstore\n        /* \"#utility.yul\":16790:16946   */\n      pop\n        /* \"#utility.yul\":16767:16946   */\n    tag_355:\n        /* \"#utility.yul\":16992:16993   */\n      0x01\n        /* \"#utility.yul\":16988:16989   */\n      0x02\n        /* \"#utility.yul\":16980:16986   */\n      dup9\n        /* \"#utility.yul\":16976:16990   */\n      mul\n        /* \"#utility.yul\":16972:16994   */\n      add\n        /* \"#utility.yul\":16966:16970   */\n      dup9\n        /* \"#utility.yul\":16959:16995   */\n      sstore\n        /* \"#utility.yul\":16394:17005   */\n      pop\n      pop\n      pop\n        /* \"#utility.yul\":16357:17244   */\n    tag_347:\n      pop\n        /* \"#utility.yul\":15947:17250   */\n      pop\n      pop\n      pop\n        /* \"#utility.yul\":15855:17250   */\n      pop\n      pop\n      jump\t// out\n        /* \"#utility.yul\":17256:17420   */\n    tag_148:\n        /* \"#utility.yul\":17396:17412   */\n      0x55736572206e6f7420666f756e64000000000000000000000000000000000000\n        /* \"#utility.yul\":17392:17393   */\n      0x00\n        /* \"#utility.yul\":17384:17390   */\n      dup3\n        /* \"#utility.yul\":17380:17394   */\n      add\n        /* \"#utility.yul\":17373:17413   */\n      mstore\n        /* \"#utility.yul\":17256:17420   */\n      pop\n      jump\t// out\n        /* \"#utility.yul\":17426:17792   */\n    tag_149:\n        /* \"#utility.yul\":17568:17571   */\n      0x00\n        /* \"#utility.yul\":17589:17656   */\n      tag_359\n        /* \"#utility.yul\":17653:17655   */\n      0x0e\n        /* \"#utility.yul\":17648:17651   */\n      dup4\n        /* \"#utility.yul\":17589:17656   */\n      tag_108\n      jump\t// in\n    tag_359:\n        /* \"#utility.yul\":17582:17656   */\n      swap2\n      pop\n        /* \"#utility.yul\":17665:17758   */\n      tag_360\n        /* \"#utility.yul\":17754:17757   */\n      dup3\n        /* \"#utility.yul\":17665:17758   */\n      tag_148\n      jump\t// in\n    tag_360:\n        /* \"#utility.yul\":17783:17785   */\n      0x20\n        /* \"#utility.yul\":17778:17781   */\n      dup3\n        /* \"#utility.yul\":17774:17786   */\n      add\n        /* \"#utility.yul\":17767:17786   */\n      swap1\n      pop\n        /* \"#utility.yul\":17426:17792   */\n      swap2\n      swap1\n      pop\n      jump\t// out\n        /* \"#utility.yul\":17798:18217   */\n    tag_74:\n        /* \"#utility.yul\":17964:17968   */\n      0x00\n        /* \"#utility.yul\":18002:18004   */\n      0x20\n        /* \"#utility.yul\":17991:18000   */\n      dup3\n        /* \"#utility.yul\":17987:18005   */\n      add\n        /* \"#utility.yul\":17979:18005   */\n      swap1\n      pop\n        /* \"#utility.yul\":18051:18060   */\n      dup2\n        /* \"#utility.yul\":18045:18049   */\n      dup2\n        /* \"#utility.yul\":18041:18061   */\n      sub\n        /* \"#utility.yul\":18037:18038   */\n      0x00\n        /* \"#utility.yul\":18026:18035   */\n      dup4\n        /* \"#utility.yul\":18022:18039   */\n      add\n        /* \"#utility.yul\":18015:18062   */\n      mstore\n        /* \"#utility.yul\":18079:18210   */\n      tag_362\n        /* \"#utility.yul\":18205:18209   */\n      dup2\n        /* \"#utility.yul\":18079:18210   */\n      tag_149\n      jump\t// in\n    tag_362:\n        /* \"#utility.yul\":18071:18210   */\n      swap1\n      pop\n        /* \"#utility.yul\":17798:18217   */\n      swap2\n      swap1\n      pop\n      jump\t// out\n        /* \"#utility.yul\":18223:18401   */\n    tag_150:\n        /* \"#utility.yul\":18363:18393   */\n      0x54656e616e74732063616e2774206164642070726f7065727469657300000000\n        /* \"#utility.yul\":18359:18360   */\n      0x00\n        /* \"#utility.yul\":18351:18357   */\n      dup3\n        /* \"#utility.yul\":18347:18361   */\n      add\n        /* \"#utility.yul\":18340:18394   */\n      mstore\n        /* \"#utility.yul\":18223:18401   */\n      pop\n      jump\t// out\n        /* \"#utility.yul\":18407:18773   */\n    tag_151:\n        /* \"#utility.yul\":18549:18552   */\n      0x00\n        /* \"#utility.yul\":18570:18637   */\n      tag_365\n        /* \"#utility.yul\":18634:18636   */\n      0x1c\n        /* \"#utility.yul\":18629:18632   */\n      dup4\n        /* \"#utility.yul\":18570:18637   */\n      tag_108\n      jump\t// in\n    tag_365:\n        /* \"#utility.yul\":18563:18637   */\n      swap2\n      pop\n        /* \"#utility.yul\":18646:18739   */\n      tag_366\n        /* \"#utility.yul\":18735:18738   */\n      dup3\n        /* \"#utility.yul\":18646:18739   */\n      tag_150\n      jump\t// in\n    tag_366:\n        /* \"#utility.yul\":18764:18766   */\n      0x20\n        /* \"#utility.yul\":18759:18762   */\n      dup3\n        /* \"#utility.yul\":18755:18767   */\n      add\n        /* \"#utility.yul\":18748:18767   */\n      swap1\n      pop\n        /* \"#utility.yul\":18407:18773   */\n      swap2\n      swap1\n      pop\n      jump\t// out\n        /* \"#utility.yul\":18779:19198   */\n    tag_77:\n        /* \"#utility.yul\":18945:18949   */\n      0x00\n        /* \"#utility.yul\":18983:18985   */\n      0x20\n        /* \"#utility.yul\":18972:18981   */\n      dup3\n        /* \"#utility.yul\":18968:18986   */\n      add\n        /* \"#utility.yul\":18960:18986   */\n      swap1\n      pop\n        /* \"#utility.yul\":19032:19041   */\n      dup2\n        /* \"#utility.yul\":19026:19030   */\n      dup2\n        /* \"#utility.yul\":19022:19042   */\n      sub\n        /* \"#utility.yul\":19018:19019   */\n      0x00\n        /* \"#utility.yul\":19007:19016   */\n      dup4\n        /* \"#utility.yul\":19003:19020   */\n      add\n        /* \"#utility.yul\":18996:19043   */\n      mstore\n        /* \"#utility.yul\":19060:19191   */\n      tag_368\n        /* \"#utility.yul\":19186:19190   */\n      dup2\n        /* \"#utility.yul\":19060:19191   */\n      tag_151\n      jump\t// in\n    tag_368:\n        /* \"#utility.yul\":19052:19191   */\n      swap1\n      pop\n        /* \"#utility.yul\":18779:19198   */\n      swap2\n      swap1\n      pop\n      jump\t// out\n        /* \"#utility.yul\":19204:19352   */\n    tag_152:\n        /* \"#utility.yul\":19306:19317   */\n      0x00\n        /* \"#utility.yul\":19343:19346   */\n      dup2\n        /* \"#utility.yul\":19328:19346   */\n      swap1\n      pop\n        /* \"#utility.yul\":19204:19352   */\n      swap3\n      swap2\n      pop\n      pop\n      jump\t// out\n        /* \"#utility.yul\":19358:19748   */\n    tag_153:\n        /* \"#utility.yul\":19464:19467   */\n      0x00\n        /* \"#utility.yul\":19492:19531   */\n      tag_371\n        /* \"#utility.yul\":19525:19530   */\n      dup3\n        /* \"#utility.yul\":19492:19531   */\n      tag_107\n      jump\t// in\n    tag_371:\n        /* \"#utility.yul\":19547:19636   */\n      tag_372\n        /* \"#utility.yul\":19629:19635   */\n      dup2\n        /* \"#utility.yul\":19624:19627   */\n      dup6\n        /* \"#utility.yul\":19547:19636   */\n      tag_152\n      jump\t// in\n    tag_372:\n        /* \"#utility.yul\":19540:19636   */\n      swap4\n      pop\n        /* \"#utility.yul\":19645:19710   */\n      tag_373\n        /* \"#utility.yul\":19703:19709   */\n      dup2\n        /* \"#utility.yul\":19698:19701   */\n      dup6\n        /* \"#utility.yul\":19691:19695   */\n      0x20\n        /* \"#utility.yul\":19684:19689   */\n      dup7\n        /* \"#utility.yul\":19680:19696   */\n      add\n        /* \"#utility.yul\":19645:19710   */\n      tag_109\n      jump\t// in\n    tag_373:\n        /* \"#utility.yul\":19735:19741   */\n      dup1\n        /* \"#utility.yul\":19730:19733   */\n      dup5\n        /* \"#utility.yul\":19726:19742   */\n      add\n        /* \"#utility.yul\":19719:19742   */\n      swap2\n      pop\n        /* \"#utility.yul\":19468:19748   */\n      pop\n        /* \"#utility.yul\":19358:19748   */\n      swap3\n      swap2\n      pop\n      pop\n      jump\t// out\n        /* \"#utility.yul\":19754:20029   */\n    tag_79:\n        /* \"#utility.yul\":19886:19889   */\n      0x00\n        /* \"#utility.yul\":19908:20003   */\n      tag_375\n        /* \"#utility.yul\":19999:20002   */\n      dup3\n        /* \"#utility.yul\":19990:19996   */\n      dup5\n        /* \"#utility.yul\":19908:20003   */\n      tag_153\n      jump\t// in\n    tag_375:\n        /* \"#utility.yul\":19901:20003   */\n      swap2\n      pop\n        /* \"#utility.yul\":20020:20023   */\n      dup2\n        /* \"#utility.yul\":20013:20023   */\n      swap1\n      pop\n        /* \"#utility.yul\":19754:20029   */\n      swap3\n      swap2\n      pop\n      pop\n      jump\t// out\n        /* \"#utility.yul\":20035:20208   */\n    tag_154:\n        /* \"#utility.yul\":20175:20200   */\n      0x50726f706572747920616c726561647920657869737473000000000000000000\n        /* \"#utility.yul\":20171:20172   */\n      0x00\n        /* \"#utility.yul\":20163:20169   */\n      dup3\n        /* \"#utility.yul\":20159:20173   */\n      add\n        /* \"#utility.yul\":20152:20201   */\n      mstore\n        /* \"#utility.yul\":20035:20208   */\n      pop\n      jump\t// out\n        /* \"#utility.yul\":20214:20580   */\n    tag_155:\n        /* \"#utility.yul\":20356:20359   */\n      0x00\n        /* \"#utility.yul\":20377:20444   */\n      tag_378\n        /* \"#utility.yul\":20441:20443   */\n      0x17\n        /* \"#utility.yul\":20436:20439   */\n      dup4\n        /* \"#utility.yul\":20377:20444   */\n      tag_108\n      jump\t// in\n    tag_378:\n        /* \"#utility.yul\":20370:20444   */\n      swap2\n      pop\n        /* \"#utility.yul\":20453:20546   */\n      tag_379\n        /* \"#utility.yul\":20542:20545   */\n      dup3\n        /* \"#utility.yul\":20453:20546   */\n      tag_154\n      jump\t// in\n    tag_379:\n        /* \"#utility.yul\":20571:20573   */\n      0x20\n        /* \"#utility.yul\":20566:20569   */\n      dup3\n        /* \"#utility.yul\":20562:20574   */\n      add\n        /* \"#utility.yul\":20555:20574   */\n      swap1\n      pop\n        /* \"#utility.yul\":20214:20580   */\n      swap2\n      swap1\n      pop\n      jump\t// out\n        /* \"#utility.yul\":20586:21005   */\n    tag_82:\n        /* \"#utility.yul\":20752:20756   */\n      0x00\n        /* \"#utility.yul\":20790:20792   */\n      0x20\n        /* \"#utility.yul\":20779:20788   */\n      dup3\n        /* \"#utility.yul\":20775:20793   */\n      add\n        /* \"#utility.yul\":20767:20793   */\n      swap1\n      pop\n        /* \"#utility.yul\":20839:20848   */\n      dup2\n        /* \"#utility.yul\":20833:20837   */\n      dup2\n        /* \"#utility.yul\":20829:20849   */\n      sub\n        /* \"#utility.yul\":20825:20826   */\n      0x00\n        /* \"#utility.yul\":20814:20823   */\n      dup4\n        /* \"#utility.yul\":20810:20827   */\n      add\n        /* \"#utility.yul\":20803:20850   */\n      mstore\n        /* \"#utility.yul\":20867:20998   */\n      tag_381\n        /* \"#utility.yul\":20993:20997   */\n      dup2\n        /* \"#utility.yul\":20867:20998   */\n      tag_155\n      jump\t// in\n    tag_381:\n        /* \"#utility.yul\":20859:20998   */\n      swap1\n      pop\n        /* \"#utility.yul\":20586:21005   */\n      swap2\n      swap1\n      pop\n      jump\t// out\n        /* \"#utility.yul\":21011:21232   */\n    tag_156:\n        /* \"#utility.yul\":21151:21185   */\n      0x54656e616e74732063616e6e6f7420696e697469617465206120636f6e747261\n        /* \"#utility.yul\":21147:21148   */\n      0x00\n        /* \"#utility.yul\":21139:21145   */\n      dup3\n        /* \"#utility.yul\":21135:21149   */\n      add\n        /* \"#utility.yul\":21128:21186   */\n      mstore\n        /* \"#utility.yul\":21220:21224   */\n      0x6374000000000000000000000000000000000000000000000000000000000000\n        /* \"#utility.yul\":21215:21217   */\n      0x20\n        /* \"#utility.yul\":21207:21213   */\n      dup3\n        /* \"#utility.yul\":21203:21218   */\n      add\n        /* \"#utility.yul\":21196:21225   */\n      mstore\n        /* \"#utility.yul\":21011:21232   */\n      pop\n      jump\t// out\n        /* \"#utility.yul\":21238:21604   */\n    tag_157:\n        /* \"#utility.yul\":21380:21383   */\n      0x00\n        /* \"#utility.yul\":21401:21468   */\n      tag_384\n        /* \"#utility.yul\":21465:21467   */\n      0x22\n        /* \"#utility.yul\":21460:21463   */\n      dup4\n        /* \"#utility.yul\":21401:21468   */\n      tag_108\n      jump\t// in\n    tag_384:\n        /* \"#utility.yul\":21394:21468   */\n      swap2\n      pop\n        /* \"#utility.yul\":21477:21570   */\n      tag_385\n        /* \"#utility.yul\":21566:21569   */\n      dup3\n        /* \"#utility.yul\":21477:21570   */\n      tag_156\n      jump\t// in\n    tag_385:\n        /* \"#utility.yul\":21595:21597   */\n      0x40\n        /* \"#utility.yul\":21590:21593   */\n      dup3\n        /* \"#utility.yul\":21586:21598   */\n      add\n        /* \"#utility.yul\":21579:21598   */\n      swap1\n      pop\n        /* \"#utility.yul\":21238:21604   */\n      swap2\n      swap1\n      pop\n      jump\t// out\n        /* \"#utility.yul\":21610:22029   */\n    tag_91:\n        /* \"#utility.yul\":21776:21780   */\n      0x00\n        /* \"#utility.yul\":21814:21816   */\n      0x20\n        /* \"#utility.yul\":21803:21812   */\n      dup3\n        /* \"#utility.yul\":21799:21817   */\n      add\n        /* \"#utility.yul\":21791:21817   */\n      swap1\n      pop\n        /* \"#utility.yul\":21863:21872   */\n      dup2\n        /* \"#utility.yul\":21857:21861   */\n      dup2\n        /* \"#utility.yul\":21853:21873   */\n      sub\n        /* \"#utility.yul\":21849:21850   */\n      0x00\n        /* \"#utility.yul\":21838:21847   */\n      dup4\n        /* \"#utility.yul\":21834:21851   */\n      add\n        /* \"#utility.yul\":21827:21874   */\n      mstore\n        /* \"#utility.yul\":21891:22022   */\n      tag_387\n        /* \"#utility.yul\":22017:22021   */\n      dup2\n        /* \"#utility.yul\":21891:22022   */\n      tag_157\n      jump\t// in\n    tag_387:\n        /* \"#utility.yul\":21883:22022   */\n      swap1\n      pop\n        /* \"#utility.yul\":21610:22029   */\n      swap2\n      swap1\n      pop\n      jump\t// out\n        /* \"#utility.yul\":22035:22203   */\n    tag_158:\n        /* \"#utility.yul\":22175:22195   */\n      0x50726f7065727479206e6f7420666f756e640000000000000000000000000000\n        /* \"#utility.yul\":22171:22172   */\n      0x00\n        /* \"#utility.yul\":22163:22169   */\n      dup3\n        /* \"#utility.yul\":22159:22173   */\n      add\n        /* \"#utility.yul\":22152:22196   */\n      mstore\n        /* \"#utility.yul\":22035:22203   */\n      pop\n      jump\t// out\n        /* \"#utility.yul\":22209:22575   */\n    tag_159:\n        /* \"#utility.yul\":22351:22354   */\n      0x00\n        /* \"#utility.yul\":22372:22439   */\n      tag_390\n        /* \"#utility.yul\":22436:22438   */\n      0x12\n        /* \"#utility.yul\":22431:22434   */\n      dup4\n        /* \"#utility.yul\":22372:22439   */\n      tag_108\n      jump\t// in\n    tag_390:\n        /* \"#utility.yul\":22365:22439   */\n      swap2\n      pop\n        /* \"#utility.yul\":22448:22541   */\n      tag_391\n        /* \"#utility.yul\":22537:22540   */\n      dup3\n        /* \"#utility.yul\":22448:22541   */\n      tag_158\n      jump\t// in\n    tag_391:\n        /* \"#utility.yul\":22566:22568   */\n      0x20\n        /* \"#utility.yul\":22561:22564   */\n      dup3\n        /* \"#utility.yul\":22557:22569   */\n      add\n        /* \"#utility.yul\":22550:22569   */\n      swap1\n      pop\n        /* \"#utility.yul\":22209:22575   */\n      swap2\n      swap1\n      pop\n      jump\t// out\n        /* \"#utility.yul\":22581:23000   */\n    tag_95:\n        /* \"#utility.yul\":22747:22751   */\n      0x00\n        /* \"#utility.yul\":22785:22787   */\n      0x20\n        /* \"#utility.yul\":22774:22783   */\n      dup3\n        /* \"#utility.yul\":22770:22788   */\n      add\n        /* \"#utility.yul\":22762:22788   */\n      swap1\n      pop\n        /* \"#utility.yul\":22834:22843   */\n      dup2\n        /* \"#utility.yul\":22828:22832   */\n      dup2\n        /* \"#utility.yul\":22824:22844   */\n      sub\n        /* \"#utility.yul\":22820:22821   */\n      0x00\n        /* \"#utility.yul\":22809:22818   */\n      dup4\n        /* \"#utility.yul\":22805:22822   */\n      add\n        /* \"#utility.yul\":22798:22845   */\n      mstore\n        /* \"#utility.yul\":22862:22993   */\n      tag_393\n        /* \"#utility.yul\":22988:22992   */\n      dup2\n        /* \"#utility.yul\":22862:22993   */\n      tag_159\n      jump\t// in\n    tag_393:\n        /* \"#utility.yul\":22854:22993   */\n      swap1\n      pop\n        /* \"#utility.yul\":22581:23000   */\n      swap2\n      swap1\n      pop\n      jump\t// out\n        /* \"#utility.yul\":23006:23100   */\n    tag_160:\n        /* \"#utility.yul\":23039:23047   */\n      0x00\n        /* \"#utility.yul\":23087:23092   */\n      dup2\n        /* \"#utility.yul\":23083:23085   */\n      0x60\n        /* \"#utility.yul\":23079:23093   */\n      shl\n        /* \"#utility.yul\":23058:23093   */\n      swap1\n      pop\n        /* \"#utility.yul\":23006:23100   */\n      swap2\n      swap1\n      pop\n      jump\t// out\n        /* \"#utility.yul\":23106:23200   */\n    tag_161:\n        /* \"#utility.yul\":23145:23152   */\n      0x00\n        /* \"#utility.yul\":23174:23194   */\n      tag_396\n        /* \"#utility.yul\":23188:23193   */\n      dup3\n        /* \"#utility.yul\":23174:23194   */\n      tag_160\n      jump\t// in\n    tag_396:\n        /* \"#utility.yul\":23163:23194   */\n      swap1\n      pop\n        /* \"#utility.yul\":23106:23200   */\n      swap2\n      swap1\n      pop\n      jump\t// out\n        /* \"#utility.yul\":23206:23306   */\n    tag_162:\n        /* \"#utility.yul\":23245:23252   */\n      0x00\n        /* \"#utility.yul\":23274:23300   */\n      tag_398\n        /* \"#utility.yul\":23294:23299   */\n      dup3\n        /* \"#utility.yul\":23274:23300   */\n      tag_161\n      jump\t// in\n    tag_398:\n        /* \"#utility.yul\":23263:23300   */\n      swap1\n      pop\n        /* \"#utility.yul\":23206:23306   */\n      swap2\n      swap1\n      pop\n      jump\t// out\n        /* \"#utility.yul\":23312:23469   */\n    tag_163:\n        /* \"#utility.yul\":23417:23462   */\n      tag_400\n        /* \"#utility.yul\":23437:23461   */\n      tag_401\n        /* \"#utility.yul\":23455:23460   */\n      dup3\n        /* \"#utility.yul\":23437:23461   */\n      tag_104\n      jump\t// in\n    tag_401:\n        /* \"#utility.yul\":23417:23462   */\n      tag_162\n      jump\t// in\n    tag_400:\n        /* \"#utility.yul\":23412:23415   */\n      dup3\n        /* \"#utility.yul\":23405:23463   */\n      mstore\n        /* \"#utility.yul\":23312:23469   */\n      pop\n      pop\n      jump\t// out\n        /* \"#utility.yul\":23475:23554   */\n    tag_164:\n        /* \"#utility.yul\":23514:23521   */\n      0x00\n        /* \"#utility.yul\":23543:23548   */\n      dup2\n        /* \"#utility.yul\":23532:23548   */\n      swap1\n      pop\n        /* \"#utility.yul\":23475:23554   */\n      swap2\n      swap1\n      pop\n      jump\t// out\n        /* \"#utility.yul\":23560:23717   */\n    tag_165:\n        /* \"#utility.yul\":23665:23710   */\n      tag_404\n        /* \"#utility.yul\":23685:23709   */\n      tag_405\n        /* \"#utility.yul\":23703:23708   */\n      dup3\n        /* \"#utility.yul\":23685:23709   */\n      tag_126\n      jump\t// in\n    tag_405:\n        /* \"#utility.yul\":23665:23710   */\n      tag_164\n      jump\t// in\n    tag_404:\n        /* \"#utility.yul\":23660:23663   */\n      dup3\n        /* \"#utility.yul\":23653:23711   */\n      mstore\n        /* \"#utility.yul\":23560:23717   */\n      pop\n      pop\n      jump\t// out\n        /* \"#utility.yul\":23723:24421   */\n    tag_97:\n        /* \"#utility.yul\":23939:23942   */\n      0x00\n        /* \"#utility.yul\":23954:24029   */\n      tag_407\n        /* \"#utility.yul\":24025:24028   */\n      dup3\n        /* \"#utility.yul\":24016:24022   */\n      dup8\n        /* \"#utility.yul\":23954:24029   */\n      tag_163\n      jump\t// in\n    tag_407:\n        /* \"#utility.yul\":24054:24056   */\n      0x14\n        /* \"#utility.yul\":24049:24052   */\n      dup3\n        /* \"#utility.yul\":24045:24057   */\n      add\n        /* \"#utility.yul\":24038:24057   */\n      swap2\n      pop\n        /* \"#utility.yul\":24074:24169   */\n      tag_408\n        /* \"#utility.yul\":24165:24168   */\n      dup3\n        /* \"#utility.yul\":24156:24162   */\n      dup7\n        /* \"#utility.yul\":24074:24169   */\n      tag_153\n      jump\t// in\n    tag_408:\n        /* \"#utility.yul\":24067:24169   */\n      swap2\n      pop\n        /* \"#utility.yul\":24179:24254   */\n      tag_409\n        /* \"#utility.yul\":24250:24253   */\n      dup3\n        /* \"#utility.yul\":24241:24247   */\n      dup6\n        /* \"#utility.yul\":24179:24254   */\n      tag_165\n      jump\t// in\n    tag_409:\n        /* \"#utility.yul\":24279:24281   */\n      0x20\n        /* \"#utility.yul\":24274:24277   */\n      dup3\n        /* \"#utility.yul\":24270:24282   */\n      add\n        /* \"#utility.yul\":24263:24282   */\n      swap2\n      pop\n        /* \"#utility.yul\":24292:24367   */\n      tag_410\n        /* \"#utility.yul\":24363:24366   */\n      dup3\n        /* \"#utility.yul\":24354:24360   */\n      dup5\n        /* \"#utility.yul\":24292:24367   */\n      tag_165\n      jump\t// in\n    tag_410:\n        /* \"#utility.yul\":24392:24394   */\n      0x20\n        /* \"#utility.yul\":24387:24390   */\n      dup3\n        /* \"#utility.yul\":24383:24395   */\n      add\n        /* \"#utility.yul\":24376:24395   */\n      swap2\n      pop\n        /* \"#utility.yul\":24412:24415   */\n      dup2\n        /* \"#utility.yul\":24405:24415   */\n      swap1\n      pop\n        /* \"#utility.yul\":23723:24421   */\n      swap6\n      swap5\n      pop\n      pop\n      pop\n      pop\n      pop\n      jump\t// out\n\n    auxdata: 0xa2646970667358221220d628c50175cc10d2d8f030536886c061eeee113eeae633fd8d9e087a01ef1d9b64736f6c63430008120033\n}\n",
				"bytecode": {
					"linkReferences": {},
					"object": "608060405234801561001057600080fd5b50611aeb806100206000396000f3fe608060405234801561001057600080fd5b50600436106100625760003560e01c806316dd85da1461006757806386584e271461009957806391e7f13a146100b5578063cbd24093146100e8578063e545248d1461011f578063eea571411461013b575b600080fd5b610081600480360381019061007c9190610e7c565b610157565b60405161009093929190610f63565b60405180910390f35b6100b360048036038101906100ae9190611102565b610236565b005b6100cf60048036038101906100ca919061115e565b6103fb565b6040516100df94939291906111a7565b60405180910390f35b61010260048036038101906100fd9190611230565b61057e565b60405161011698979695949392919061126c565b60405180910390f35b610139600480360381019061013491906112f8565b610730565b005b61015560048036038101906101509190611370565b610a30565b005b600060205280600052604060002060009150905080600001805461017a90611452565b80601f01602080910402602001604051908101604052809291908181526020018280546101a690611452565b80156101f35780601f106101c8576101008083540402835291602001916101f3565b820191906000526020600020905b8154815290600101906020018083116101d657829003601f168201915b5050505050908060010160009054906101000a900473ffffffffffffffffffffffffffffffffffffffff16908060010160149054906101000a900460ff16905083565b600073ffffffffffffffffffffffffffffffffffffffff166000803373ffffffffffffffffffffffffffffffffffffffff1673ffffffffffffffffffffffffffffffffffffffff16815260200190815260200160002060010160009054906101000a900473ffffffffffffffffffffffffffffffffffffffff1673ffffffffffffffffffffffffffffffffffffffff1614610306576040517f08c379a00000000000000000000000000000000000000000000000000000000081526004016102fd906114cf565b60405180910390fd5b60405180606001604052808381526020013373ffffffffffffffffffffffffffffffffffffffff1681526020018215158152506000803373ffffffffffffffffffffffffffffffffffffffff1673ffffffffffffffffffffffffffffffffffffffff168152602001908152602001600020600082015181600001908161038c919061169b565b5060208201518160010160006101000a81548173ffffffffffffffffffffffffffffffffffffffff021916908373ffffffffffffffffffffffffffffffffffffffff16021790555060408201518160010160146101000a81548160ff0219169083151502179055509050505050565b6001818051602081018201805184825260208301602085012081835280955050505050506000915090508060000160009054906101000a900473ffffffffffffffffffffffffffffffffffffffff169080600101805461045a90611452565b80601f016020809104026020016040519081016040528092919081815260200182805461048690611452565b80156104d35780601f106104a8576101008083540402835291602001916104d3565b820191906000526020600020905b8154815290600101906020018083116104b657829003601f168201915b5050505050908060020180546104e890611452565b80601f016020809104026020016040519081016040528092919081815260200182805461051490611452565b80156105615780601f1061053657610100808354040283529160200191610561565b820191906000526020600020905b81548152906001019060200180831161054457829003601f168201915b5050505050908060030160009054906101000a900460ff16905084565b60026020528060005260406000206000915090508060000160009054906101000a900473ffffffffffffffffffffffffffffffffffffffff16908060010160009054906101000a900473ffffffffffffffffffffffffffffffffffffffff16908060020180546105ed90611452565b80601f016020809104026020016040519081016040528092919081815260200182805461061990611452565b80156106665780601f1061063b57610100808354040283529160200191610666565b820191906000526020600020905b81548152906001019060200180831161064957829003601f168201915b50505050509080600301805461067b90611452565b80601f01602080910402602001604051908101604052809291908181526020018280546106a790611452565b80156106f45780601f106106c9576101008083540402835291602001916106f4565b820191906000526020600020905b8154815290600101906020018083116106d757829003601f168201915b5050505050908060040154908060050154908060060160009054906101000a900460ff16908060060160019054906101000a900460ff16905088565b600073ffffffffffffffffffffffffffffffffffffffff166000803373ffffffffffffffffffffffffffffffffffffffff1673ffffffffffffffffffffffffffffffffffffffff16815260200190815260200160002060010160009054906101000a900473ffffffffffffffffffffffffffffffffffffffff1673ffffffffffffffffffffffffffffffffffffffff1603610800576040517f08c379a00000000000000000000000000000000000000000000000000000000081526004016107f7906117b9565b60405180910390fd5b6000803373ffffffffffffffffffffffffffffffffffffffff1673ffffffffffffffffffffffffffffffffffffffff16815260200190815260200160002060010160149054906101000a900460ff1661088e576040517f08c379a000000000000000000000000000000000000000000000000000000000815260040161088590611825565b60405180910390fd5b600073ffffffffffffffffffffffffffffffffffffffff166001836040516108b69190611881565b908152602001604051809103902060000160009054906101000a900473ffffffffffffffffffffffffffffffffffffffff1673ffffffffffffffffffffffffffffffffffffffff161461093e576040517f08c379a0000000000000000000000000000000000000000000000000000000008152600401610935906118e4565b60405180910390fd5b60405180608001604052803373ffffffffffffffffffffffffffffffffffffffff168152602001838152602001828152602001600015158152506001836040516109889190611881565b908152602001604051809103902060008201518160000160006101000a81548173ffffffffffffffffffffffffffffffffffffffff021916908373ffffffffffffffffffffffffffffffffffffffff16021790555060208201518160010190816109f2919061169b565b506040820151816002019081610a08919061169b565b5060608201518160030160006101000a81548160ff0219169083151502179055509050505050565b600073ffffffffffffffffffffffffffffffffffffffff166000803373ffffffffffffffffffffffffffffffffffffffff1673ffffffffffffffffffffffffffffffffffffffff16815260200190815260200160002060010160009054906101000a900473ffffffffffffffffffffffffffffffffffffffff1673ffffffffffffffffffffffffffffffffffffffff1603610b00576040517f08c379a0000000000000000000000000000000000000000000000000000000008152600401610af7906117b9565b60405180910390fd5b6000803373ffffffffffffffffffffffffffffffffffffffff1673ffffffffffffffffffffffffffffffffffffffff16815260200190815260200160002060010160149054906101000a900460ff16610b8e576040517f08c379a0000000000000000000000000000000000000000000000000000000008152600401610b8590611976565b60405180910390fd5b600073ffffffffffffffffffffffffffffffffffffffff16600185604051610bb69190611881565b908152602001604051809103902060000160009054906101000a900473ffffffffffffffffffffffffffffffffffffffff1673ffffffffffffffffffffffffffffffffffffffff1603610c3e576040517f08c379a0000000000000000000000000000000000000000000000000000000008152600401610c35906119e2565b60405180910390fd5b600033858484604051602001610c579493929190611a6b565b6040516020818303038152906040528051906020012060001c90506040518061010001604052803373ffffffffffffffffffffffffffffffffffffffff1681526020018773ffffffffffffffffffffffffffffffffffffffff168152602001868152602001858152602001848152602001838152602001600115158152602001600015158152506002600083815260200190815260200160002060008201518160000160006101000a81548173ffffffffffffffffffffffffffffffffffffffff021916908373ffffffffffffffffffffffffffffffffffffffff16021790555060208201518160010160006101000a81548173ffffffffffffffffffffffffffffffffffffffff021916908373ffffffffffffffffffffffffffffffffffffffff1602179055506040820151816002019081610d94919061169b565b506060820151816003019081610daa919061169b565b506080820151816004015560a0820151816005015560c08201518160060160006101000a81548160ff02191690831515021790555060e08201518160060160016101000a81548160ff021916908315150217905550905050505050505050565b6000604051905090565b600080fd5b600080fd5b600073ffffffffffffffffffffffffffffffffffffffff82169050919050565b6000610e4982610e1e565b9050919050565b610e5981610e3e565b8114610e6457600080fd5b50565b600081359050610e7681610e50565b92915050565b600060208284031215610e9257610e91610e14565b5b6000610ea084828501610e67565b91505092915050565b600081519050919050565b600082825260208201905092915050565b60005b83811015610ee3578082015181840152602081019050610ec8565b60008484015250505050565b6000601f19601f8301169050919050565b6000610f0b82610ea9565b610f158185610eb4565b9350610f25818560208601610ec5565b610f2e81610eef565b840191505092915050565b610f4281610e3e565b82525050565b60008115159050919050565b610f5d81610f48565b82525050565b60006060820190508181036000830152610f7d8186610f00565b9050610f8c6020830185610f39565b610f996040830184610f54565b949350505050565b600080fd5b600080fd5b7f4e487b7100000000000000000000000000000000000000000000000000000000600052604160045260246000fd5b610fe382610eef565b810181811067ffffffffffffffff8211171561100257611001610fab565b5b80604052505050565b6000611015610e0a565b90506110218282610fda565b919050565b600067ffffffffffffffff82111561104157611040610fab565b5b61104a82610eef565b9050602081019050919050565b82818337600083830152505050565b600061107961107484611026565b61100b565b90508281526020810184848401111561109557611094610fa6565b5b6110a0848285611057565b509392505050565b600082601f8301126110bd576110bc610fa1565b5b81356110cd848260208601611066565b91505092915050565b6110df81610f48565b81146110ea57600080fd5b50565b6000813590506110fc816110d6565b92915050565b6000806040838503121561111957611118610e14565b5b600083013567ffffffffffffffff81111561113757611136610e19565b5b611143858286016110a8565b9250506020611154858286016110ed565b9150509250929050565b60006020828403121561117457611173610e14565b5b600082013567ffffffffffffffff81111561119257611191610e19565b5b61119e848285016110a8565b91505092915050565b60006080820190506111bc6000830187610f39565b81810360208301526111ce8186610f00565b905081810360408301526111e28185610f00565b90506111f16060830184610f54565b95945050505050565b6000819050919050565b61120d816111fa565b811461121857600080fd5b50565b60008135905061122a81611204565b92915050565b60006020828403121561124657611245610e14565b5b60006112548482850161121b565b91505092915050565b611266816111fa565b82525050565b600061010082019050611282600083018b610f39565b61128f602083018a610f39565b81810360408301526112a18189610f00565b905081810360608301526112b58188610f00565b90506112c4608083018761125d565b6112d160a083018661125d565b6112de60c0830185610f54565b6112eb60e0830184610f54565b9998505050505050505050565b6000806040838503121561130f5761130e610e14565b5b600083013567ffffffffffffffff81111561132d5761132c610e19565b5b611339858286016110a8565b925050602083013567ffffffffffffffff81111561135a57611359610e19565b5b611366858286016110a8565b9150509250929050565b600080600080600060a0868803121561138c5761138b610e14565b5b600061139a88828901610e67565b955050602086013567ffffffffffffffff8111156113bb576113ba610e19565b5b6113c7888289016110a8565b945050604086013567ffffffffffffffff8111156113e8576113e7610e19565b5b6113f4888289016110a8565b93505060606114058882890161121b565b92505060806114168882890161121b565b9150509295509295909350565b7f4e487b7100000000000000000000000000000000000000000000000000000000600052602260045260246000fd5b6000600282049050600182168061146a57607f821691505b60208210810361147d5761147c611423565b5b50919050565b7f5573657220697320616c72656164792072656769737465726564000000000000600082015250565b60006114b9601a83610eb4565b91506114c482611483565b602082019050919050565b600060208201905081810360008301526114e8816114ac565b9050919050565b60008190508160005260206000209050919050565b60006020601f8301049050919050565b600082821b905092915050565b6000600883026115517fffffffffffffffffffffffffffffffffffffffffffffffffffffffffffffffff82611514565b61155b8683611514565b95508019841693508086168417925050509392505050565b6000819050919050565b600061159861159361158e846111fa565b611573565b6111fa565b9050919050565b6000819050919050565b6115b28361157d565b6115c66115be8261159f565b848454611521565b825550505050565b600090565b6115db6115ce565b6115e68184846115a9565b505050565b5b8181101561160a576115ff6000826115d3565b6001810190506115ec565b5050565b601f82111561164f57611620816114ef565b61162984611504565b81016020851015611638578190505b61164c61164485611504565b8301826115eb565b50505b505050565b600082821c905092915050565b600061167260001984600802611654565b1980831691505092915050565b600061168b8383611661565b9150826002028217905092915050565b6116a482610ea9565b67ffffffffffffffff8111156116bd576116bc610fab565b5b6116c78254611452565b6116d282828561160e565b600060209050601f83116001811461170557600084156116f3578287015190505b6116fd858261167f565b865550611765565b601f198416611713866114ef565b60005b8281101561173b57848901518255600182019150602085019450602081019050611716565b868310156117585784890151611754601f891682611661565b8355505b6001600288020188555050505b505050505050565b7f55736572206e6f7420666f756e64000000000000000000000000000000000000600082015250565b60006117a3600e83610eb4565b91506117ae8261176d565b602082019050919050565b600060208201905081810360008301526117d281611796565b9050919050565b7f54656e616e74732063616e2774206164642070726f7065727469657300000000600082015250565b600061180f601c83610eb4565b915061181a826117d9565b602082019050919050565b6000602082019050818103600083015261183e81611802565b9050919050565b600081905092915050565b600061185b82610ea9565b6118658185611845565b9350611875818560208601610ec5565b80840191505092915050565b600061188d8284611850565b915081905092915050565b7f50726f706572747920616c726561647920657869737473000000000000000000600082015250565b60006118ce601783610eb4565b91506118d982611898565b602082019050919050565b600060208201905081810360008301526118fd816118c1565b9050919050565b7f54656e616e74732063616e6e6f7420696e697469617465206120636f6e74726160008201527f6374000000000000000000000000000000000000000000000000000000000000602082015250565b6000611960602283610eb4565b915061196b82611904565b604082019050919050565b6000602082019050818103600083015261198f81611953565b9050919050565b7f50726f7065727479206e6f7420666f756e640000000000000000000000000000600082015250565b60006119cc601283610eb4565b91506119d782611996565b602082019050919050565b600060208201905081810360008301526119fb816119bf565b9050919050565b60008160601b9050919050565b6000611a1a82611a02565b9050919050565b6000611a2c82611a0f565b9050919050565b611a44611a3f82610e3e565b611a21565b82525050565b6000819050919050565b611a65611a60826111fa565b611a4a565b82525050565b6000611a778287611a33565b601482019150611a878286611850565b9150611a938285611a54565b602082019150611aa38284611a54565b6020820191508190509594505050505056fea2646970667358221220d628c50175cc10d2d8f030536886c061eeee113eeae633fd8d9e087a01ef1d9b64736f6c63430008120033",
					"opcodes": "PUSH1 0x80 PUSH1 0x40 MSTORE CALLVALUE DUP1 ISZERO PUSH2 0x10 JUMPI PUSH1 0x0 DUP1 REVERT JUMPDEST POP PUSH2 0x1AEB DUP1 PUSH2 0x20 PUSH1 0x0 CODECOPY PUSH1 0x0 RETURN INVALID PUSH1 0x80 PUSH1 0x40 MSTORE CALLVALUE DUP1 ISZERO PUSH2 0x10 JUMPI PUSH1 0x0 DUP1 REVERT JUMPDEST POP PUSH1 0x4 CALLDATASIZE LT PUSH2 0x62 JUMPI PUSH1 0x0 CALLDATALOAD PUSH1 0xE0 SHR DUP1 PUSH4 0x16DD85DA EQ PUSH2 0x67 JUMPI DUP1 PUSH4 0x86584E27 EQ PUSH2 0x99 JUMPI DUP1 PUSH4 0x91E7F13A EQ PUSH2 0xB5 JUMPI DUP1 PUSH4 0xCBD24093 EQ PUSH2 0xE8 JUMPI DUP1 PUSH4 0xE545248D EQ PUSH2 0x11F JUMPI DUP1 PUSH4 0xEEA57141 EQ PUSH2 0x13B JUMPI JUMPDEST PUSH1 0x0 DUP1 REVERT JUMPDEST PUSH2 0x81 PUSH1 0x4 DUP1 CALLDATASIZE SUB DUP2 ADD SWAP1 PUSH2 0x7C SWAP2 SWAP1 PUSH2 0xE7C JUMP JUMPDEST PUSH2 0x157 JUMP JUMPDEST PUSH1 0x40 MLOAD PUSH2 0x90 SWAP4 SWAP3 SWAP2 SWAP1 PUSH2 0xF63 JUMP JUMPDEST PUSH1 0x40 MLOAD DUP1 SWAP2 SUB SWAP1 RETURN JUMPDEST PUSH2 0xB3 PUSH1 0x4 DUP1 CALLDATASIZE SUB DUP2 ADD SWAP1 PUSH2 0xAE SWAP2 SWAP1 PUSH2 0x1102 JUMP JUMPDEST PUSH2 0x236 JUMP JUMPDEST STOP JUMPDEST PUSH2 0xCF PUSH1 0x4 DUP1 CALLDATASIZE SUB DUP2 ADD SWAP1 PUSH2 0xCA SWAP2 SWAP1 PUSH2 0x115E JUMP JUMPDEST PUSH2 0x3FB JUMP JUMPDEST PUSH1 0x40 MLOAD PUSH2 0xDF SWAP5 SWAP4 SWAP3 SWAP2 SWAP1 PUSH2 0x11A7 JUMP JUMPDEST PUSH1 0x40 MLOAD DUP1 SWAP2 SUB SWAP1 RETURN JUMPDEST PUSH2 0x102 PUSH1 0x4 DUP1 CALLDATASIZE SUB DUP2 ADD SWAP1 PUSH2 0xFD SWAP2 SWAP1 PUSH2 0x1230 JUMP JUMPDEST PUSH2 0x57E JUMP JUMPDEST PUSH1 0x40 MLOAD PUSH2 0x116 SWAP9 SWAP8 SWAP7 SWAP6 SWAP5 SWAP4 SWAP3 SWAP2 SWAP1 PUSH2 0x126C JUMP JUMPDEST PUSH1 0x40 MLOAD DUP1 SWAP2 SUB SWAP1 RETURN JUMPDEST PUSH2 0x139 PUSH1 0x4 DUP1 CALLDATASIZE SUB DUP2 ADD SWAP1 PUSH2 0x134 SWAP2 SWAP1 PUSH2 0x12F8 JUMP JUMPDEST PUSH2 0x730 JUMP JUMPDEST STOP JUMPDEST PUSH2 0x155 PUSH1 0x4 DUP1 CALLDATASIZE SUB DUP2 ADD SWAP1 PUSH2 0x150 SWAP2 SWAP1 PUSH2 0x1370 JUMP JUMPDEST PUSH2 0xA30 JUMP JUMPDEST STOP JUMPDEST PUSH1 0x0 PUSH1 0x20 MSTORE DUP1 PUSH1 0x0 MSTORE PUSH1 0x40 PUSH1 0x0 KECCAK256 PUSH1 0x0 SWAP2 POP SWAP1 POP DUP1 PUSH1 0x0 ADD DUP1 SLOAD PUSH2 0x17A SWAP1 PUSH2 0x1452 JUMP JUMPDEST DUP1 PUSH1 0x1F ADD PUSH1 0x20 DUP1 SWAP2 DIV MUL PUSH1 0x20 ADD PUSH1 0x40 MLOAD SWAP1 DUP2 ADD PUSH1 0x40 MSTORE DUP1 SWAP3 SWAP2 SWAP1 DUP2 DUP2 MSTORE PUSH1 0x20 ADD DUP3 DUP1 SLOAD PUSH2 0x1A6 SWAP1 PUSH2 0x1452 JUMP JUMPDEST DUP1 ISZERO PUSH2 0x1F3 JUMPI DUP1 PUSH1 0x1F LT PUSH2 0x1C8 JUMPI PUSH2 0x100 DUP1 DUP4 SLOAD DIV MUL DUP4 MSTORE SWAP2 PUSH1 0x20 ADD SWAP2 PUSH2 0x1F3 JUMP JUMPDEST DUP3 ADD SWAP2 SWAP1 PUSH1 0x0 MSTORE PUSH1 0x20 PUSH1 0x0 KECCAK256 SWAP1 JUMPDEST DUP2 SLOAD DUP2 MSTORE SWAP1 PUSH1 0x1 ADD SWAP1 PUSH1 0x20 ADD DUP1 DUP4 GT PUSH2 0x1D6 JUMPI DUP3 SWAP1 SUB PUSH1 0x1F AND DUP3 ADD SWAP2 JUMPDEST POP POP POP POP POP SWAP1 DUP1 PUSH1 0x1 ADD PUSH1 0x0 SWAP1 SLOAD SWAP1 PUSH2 0x100 EXP SWAP1 DIV PUSH20 0xFFFFFFFFFFFFFFFFFFFFFFFFFFFFFFFFFFFFFFFF AND SWAP1 DUP1 PUSH1 0x1 ADD PUSH1 0x14 SWAP1 SLOAD SWAP1 PUSH2 0x100 EXP SWAP1 DIV PUSH1 0xFF AND SWAP1 POP DUP4 JUMP JUMPDEST PUSH1 0x0 PUSH20 0xFFFFFFFFFFFFFFFFFFFFFFFFFFFFFFFFFFFFFFFF AND PUSH1 0x0 DUP1 CALLER PUSH20 0xFFFFFFFFFFFFFFFFFFFFFFFFFFFFFFFFFFFFFFFF AND PUSH20 0xFFFFFFFFFFFFFFFFFFFFFFFFFFFFFFFFFFFFFFFF AND DUP2 MSTORE PUSH1 0x20 ADD SWAP1 DUP2 MSTORE PUSH1 0x20 ADD PUSH1 0x0 KECCAK256 PUSH1 0x1 ADD PUSH1 0x0 SWAP1 SLOAD SWAP1 PUSH2 0x100 EXP SWAP1 DIV PUSH20 0xFFFFFFFFFFFFFFFFFFFFFFFFFFFFFFFFFFFFFFFF AND PUSH20 0xFFFFFFFFFFFFFFFFFFFFFFFFFFFFFFFFFFFFFFFF AND EQ PUSH2 0x306 JUMPI PUSH1 0x40 MLOAD PUSH32 0x8C379A000000000000000000000000000000000000000000000000000000000 DUP2 MSTORE PUSH1 0x4 ADD PUSH2 0x2FD SWAP1 PUSH2 0x14CF JUMP JUMPDEST PUSH1 0x40 MLOAD DUP1 SWAP2 SUB SWAP1 REVERT JUMPDEST PUSH1 0x40 MLOAD DUP1 PUSH1 0x60 ADD PUSH1 0x40 MSTORE DUP1 DUP4 DUP2 MSTORE PUSH1 0x20 ADD CALLER PUSH20 0xFFFFFFFFFFFFFFFFFFFFFFFFFFFFFFFFFFFFFFFF AND DUP2 MSTORE PUSH1 0x20 ADD DUP3 ISZERO ISZERO DUP2 MSTORE POP PUSH1 0x0 DUP1 CALLER PUSH20 0xFFFFFFFFFFFFFFFFFFFFFFFFFFFFFFFFFFFFFFFF AND PUSH20 0xFFFFFFFFFFFFFFFFFFFFFFFFFFFFFFFFFFFFFFFF AND DUP2 MSTORE PUSH1 0x20 ADD SWAP1 DUP2 MSTORE PUSH1 0x20 ADD PUSH1 0x0 KECCAK256 PUSH1 0x0 DUP3 ADD MLOAD DUP2 PUSH1 0x0 ADD SWAP1 DUP2 PUSH2 0x38C SWAP2 SWAP1 PUSH2 0x169B JUMP JUMPDEST POP PUSH1 0x20 DUP3 ADD MLOAD DUP2 PUSH1 0x1 ADD PUSH1 0x0 PUSH2 0x100 EXP DUP2 SLOAD DUP2 PUSH20 0xFFFFFFFFFFFFFFFFFFFFFFFFFFFFFFFFFFFFFFFF MUL NOT AND SWAP1 DUP4 PUSH20 0xFFFFFFFFFFFFFFFFFFFFFFFFFFFFFFFFFFFFFFFF AND MUL OR SWAP1 SSTORE POP PUSH1 0x40 DUP3 ADD MLOAD DUP2 PUSH1 0x1 ADD PUSH1 0x14 PUSH2 0x100 EXP DUP2 SLOAD DUP2 PUSH1 0xFF MUL NOT AND SWAP1 DUP4 ISZERO ISZERO MUL OR SWAP1 SSTORE POP SWAP1 POP POP POP POP JUMP JUMPDEST PUSH1 0x1 DUP2 DUP1 MLOAD PUSH1 0x20 DUP2 ADD DUP3 ADD DUP1 MLOAD DUP5 DUP3 MSTORE PUSH1 0x20 DUP4 ADD PUSH1 0x20 DUP6 ADD KECCAK256 DUP2 DUP4 MSTORE DUP1 SWAP6 POP POP POP POP POP POP PUSH1 0x0 SWAP2 POP SWAP1 POP DUP1 PUSH1 0x0 ADD PUSH1 0x0 SWAP1 SLOAD SWAP1 PUSH2 0x100 EXP SWAP1 DIV PUSH20 0xFFFFFFFFFFFFFFFFFFFFFFFFFFFFFFFFFFFFFFFF AND SWAP1 DUP1 PUSH1 0x1 ADD DUP1 SLOAD PUSH2 0x45A SWAP1 PUSH2 0x1452 JUMP JUMPDEST DUP1 PUSH1 0x1F ADD PUSH1 0x20 DUP1 SWAP2 DIV MUL PUSH1 0x20 ADD PUSH1 0x40 MLOAD SWAP1 DUP2 ADD PUSH1 0x40 MSTORE DUP1 SWAP3 SWAP2 SWAP1 DUP2 DUP2 MSTORE PUSH1 0x20 ADD DUP3 DUP1 SLOAD PUSH2 0x486 SWAP1 PUSH2 0x1452 JUMP JUMPDEST DUP1 ISZERO PUSH2 0x4D3 JUMPI DUP1 PUSH1 0x1F LT PUSH2 0x4A8 JUMPI PUSH2 0x100 DUP1 DUP4 SLOAD DIV MUL DUP4 MSTORE SWAP2 PUSH1 0x20 ADD SWAP2 PUSH2 0x4D3 JUMP JUMPDEST DUP3 ADD SWAP2 SWAP1 PUSH1 0x0 MSTORE PUSH1 0x20 PUSH1 0x0 KECCAK256 SWAP1 JUMPDEST DUP2 SLOAD DUP2 MSTORE SWAP1 PUSH1 0x1 ADD SWAP1 PUSH1 0x20 ADD DUP1 DUP4 GT PUSH2 0x4B6 JUMPI DUP3 SWAP1 SUB PUSH1 0x1F AND DUP3 ADD SWAP2 JUMPDEST POP POP POP POP POP SWAP1 DUP1 PUSH1 0x2 ADD DUP1 SLOAD PUSH2 0x4E8 SWAP1 PUSH2 0x1452 JUMP JUMPDEST DUP1 PUSH1 0x1F ADD PUSH1 0x20 DUP1 SWAP2 DIV MUL PUSH1 0x20 ADD PUSH1 0x40 MLOAD SWAP1 DUP2 ADD PUSH1 0x40 MSTORE DUP1 SWAP3 SWAP2 SWAP1 DUP2 DUP2 MSTORE PUSH1 0x20 ADD DUP3 DUP1 SLOAD PUSH2 0x514 SWAP1 PUSH2 0x1452 JUMP JUMPDEST DUP1 ISZERO PUSH2 0x561 JUMPI DUP1 PUSH1 0x1F LT PUSH2 0x536 JUMPI PUSH2 0x100 DUP1 DUP4 SLOAD DIV MUL DUP4 MSTORE SWAP2 PUSH1 0x20 ADD SWAP2 PUSH2 0x561 JUMP JUMPDEST DUP3 ADD SWAP2 SWAP1 PUSH1 0x0 MSTORE PUSH1 0x20 PUSH1 0x0 KECCAK256 SWAP1 JUMPDEST DUP2 SLOAD DUP2 MSTORE SWAP1 PUSH1 0x1 ADD SWAP1 PUSH1 0x20 ADD DUP1 DUP4 GT PUSH2 0x544 JUMPI DUP3 SWAP1 SUB PUSH1 0x1F AND DUP3 ADD SWAP2 JUMPDEST POP POP POP POP POP SWAP1 DUP1 PUSH1 0x3 ADD PUSH1 0x0 SWAP1 SLOAD SWAP1 PUSH2 0x100 EXP SWAP1 DIV PUSH1 0xFF AND SWAP1 POP DUP5 JUMP JUMPDEST PUSH1 0x2 PUSH1 0x20 MSTORE DUP1 PUSH1 0x0 MSTORE PUSH1 0x40 PUSH1 0x0 KECCAK256 PUSH1 0x0 SWAP2 POP SWAP1 POP DUP1 PUSH1 0x0 ADD PUSH1 0x0 SWAP1 SLOAD SWAP1 PUSH2 0x100 EXP SWAP1 DIV PUSH20 0xFFFFFFFFFFFFFFFFFFFFFFFFFFFFFFFFFFFFFFFF AND SWAP1 DUP1 PUSH1 0x1 ADD PUSH1 0x0 SWAP1 SLOAD SWAP1 PUSH2 0x100 EXP SWAP1 DIV PUSH20 0xFFFFFFFFFFFFFFFFFFFFFFFFFFFFFFFFFFFFFFFF AND SWAP1 DUP1 PUSH1 0x2 ADD DUP1 SLOAD PUSH2 0x5ED SWAP1 PUSH2 0x1452 JUMP JUMPDEST DUP1 PUSH1 0x1F ADD PUSH1 0x20 DUP1 SWAP2 DIV MUL PUSH1 0x20 ADD PUSH1 0x40 MLOAD SWAP1 DUP2 ADD PUSH1 0x40 MSTORE DUP1 SWAP3 SWAP2 SWAP1 DUP2 DUP2 MSTORE PUSH1 0x20 ADD DUP3 DUP1 SLOAD PUSH2 0x619 SWAP1 PUSH2 0x1452 JUMP JUMPDEST DUP1 ISZERO PUSH2 0x666 JUMPI DUP1 PUSH1 0x1F LT PUSH2 0x63B JUMPI PUSH2 0x100 DUP1 DUP4 SLOAD DIV MUL DUP4 MSTORE SWAP2 PUSH1 0x20 ADD SWAP2 PUSH2 0x666 JUMP JUMPDEST DUP3 ADD SWAP2 SWAP1 PUSH1 0x0 MSTORE PUSH1 0x20 PUSH1 0x0 KECCAK256 SWAP1 JUMPDEST DUP2 SLOAD DUP2 MSTORE SWAP1 PUSH1 0x1 ADD SWAP1 PUSH1 0x20 ADD DUP1 DUP4 GT PUSH2 0x649 JUMPI DUP3 SWAP1 SUB PUSH1 0x1F AND DUP3 ADD SWAP2 JUMPDEST POP POP POP POP POP SWAP1 DUP1 PUSH1 0x3 ADD DUP1 SLOAD PUSH2 0x67B SWAP1 PUSH2 0x1452 JUMP JUMPDEST DUP1 PUSH1 0x1F ADD PUSH1 0x20 DUP1 SWAP2 DIV MUL PUSH1 0x20 ADD PUSH1 0x40 MLOAD SWAP1 DUP2 ADD PUSH1 0x40 MSTORE DUP1 SWAP3 SWAP2 SWAP1 DUP2 DUP2 MSTORE PUSH1 0x20 ADD DUP3 DUP1 SLOAD PUSH2 0x6A7 SWAP1 PUSH2 0x1452 JUMP JUMPDEST DUP1 ISZERO PUSH2 0x6F4 JUMPI DUP1 PUSH1 0x1F LT PUSH2 0x6C9 JUMPI PUSH2 0x100 DUP1 DUP4 SLOAD DIV MUL DUP4 MSTORE SWAP2 PUSH1 0x20 ADD SWAP2 PUSH2 0x6F4 JUMP JUMPDEST DUP3 ADD SWAP2 SWAP1 PUSH1 0x0 MSTORE PUSH1 0x20 PUSH1 0x0 KECCAK256 SWAP1 JUMPDEST DUP2 SLOAD DUP2 MSTORE SWAP1 PUSH1 0x1 ADD SWAP1 PUSH1 0x20 ADD DUP1 DUP4 GT PUSH2 0x6D7 JUMPI DUP3 SWAP1 SUB PUSH1 0x1F AND DUP3 ADD SWAP2 JUMPDEST POP POP POP POP POP SWAP1 DUP1 PUSH1 0x4 ADD SLOAD SWAP1 DUP1 PUSH1 0x5 ADD SLOAD SWAP1 DUP1 PUSH1 0x6 ADD PUSH1 0x0 SWAP1 SLOAD SWAP1 PUSH2 0x100 EXP SWAP1 DIV PUSH1 0xFF AND SWAP1 DUP1 PUSH1 0x6 ADD PUSH1 0x1 SWAP1 SLOAD SWAP1 PUSH2 0x100 EXP SWAP1 DIV PUSH1 0xFF AND SWAP1 POP DUP9 JUMP JUMPDEST PUSH1 0x0 PUSH20 0xFFFFFFFFFFFFFFFFFFFFFFFFFFFFFFFFFFFFFFFF AND PUSH1 0x0 DUP1 CALLER PUSH20 0xFFFFFFFFFFFFFFFFFFFFFFFFFFFFFFFFFFFFFFFF AND PUSH20 0xFFFFFFFFFFFFFFFFFFFFFFFFFFFFFFFFFFFFFFFF AND DUP2 MSTORE PUSH1 0x20 ADD SWAP1 DUP2 MSTORE PUSH1 0x20 ADD PUSH1 0x0 KECCAK256 PUSH1 0x1 ADD PUSH1 0x0 SWAP1 SLOAD SWAP1 PUSH2 0x100 EXP SWAP1 DIV PUSH20 0xFFFFFFFFFFFFFFFFFFFFFFFFFFFFFFFFFFFFFFFF AND PUSH20 0xFFFFFFFFFFFFFFFFFFFFFFFFFFFFFFFFFFFFFFFF AND SUB PUSH2 0x800 JUMPI PUSH1 0x40 MLOAD PUSH32 0x8C379A000000000000000000000000000000000000000000000000000000000 DUP2 MSTORE PUSH1 0x4 ADD PUSH2 0x7F7 SWAP1 PUSH2 0x17B9 JUMP JUMPDEST PUSH1 0x40 MLOAD DUP1 SWAP2 SUB SWAP1 REVERT JUMPDEST PUSH1 0x0 DUP1 CALLER PUSH20 0xFFFFFFFFFFFFFFFFFFFFFFFFFFFFFFFFFFFFFFFF AND PUSH20 0xFFFFFFFFFFFFFFFFFFFFFFFFFFFFFFFFFFFFFFFF AND DUP2 MSTORE PUSH1 0x20 ADD SWAP1 DUP2 MSTORE PUSH1 0x20 ADD PUSH1 0x0 KECCAK256 PUSH1 0x1 ADD PUSH1 0x14 SWAP1 SLOAD SWAP1 PUSH2 0x100 EXP SWAP1 DIV PUSH1 0xFF AND PUSH2 0x88E JUMPI PUSH1 0x40 MLOAD PUSH32 0x8C379A000000000000000000000000000000000000000000000000000000000 DUP2 MSTORE PUSH1 0x4 ADD PUSH2 0x885 SWAP1 PUSH2 0x1825 JUMP JUMPDEST PUSH1 0x40 MLOAD DUP1 SWAP2 SUB SWAP1 REVERT JUMPDEST PUSH1 0x0 PUSH20 0xFFFFFFFFFFFFFFFFFFFFFFFFFFFFFFFFFFFFFFFF AND PUSH1 0x1 DUP4 PUSH1 0x40 MLOAD PUSH2 0x8B6 SWAP2 SWAP1 PUSH2 0x1881 JUMP JUMPDEST SWAP1 DUP2 MSTORE PUSH1 0x20 ADD PUSH1 0x40 MLOAD DUP1 SWAP2 SUB SWAP1 KECCAK256 PUSH1 0x0 ADD PUSH1 0x0 SWAP1 SLOAD SWAP1 PUSH2 0x100 EXP SWAP1 DIV PUSH20 0xFFFFFFFFFFFFFFFFFFFFFFFFFFFFFFFFFFFFFFFF AND PUSH20 0xFFFFFFFFFFFFFFFFFFFFFFFFFFFFFFFFFFFFFFFF AND EQ PUSH2 0x93E JUMPI PUSH1 0x40 MLOAD PUSH32 0x8C379A000000000000000000000000000000000000000000000000000000000 DUP2 MSTORE PUSH1 0x4 ADD PUSH2 0x935 SWAP1 PUSH2 0x18E4 JUMP JUMPDEST PUSH1 0x40 MLOAD DUP1 SWAP2 SUB SWAP1 REVERT JUMPDEST PUSH1 0x40 MLOAD DUP1 PUSH1 0x80 ADD PUSH1 0x40 MSTORE DUP1 CALLER PUSH20 0xFFFFFFFFFFFFFFFFFFFFFFFFFFFFFFFFFFFFFFFF AND DUP2 MSTORE PUSH1 0x20 ADD DUP4 DUP2 MSTORE PUSH1 0x20 ADD DUP3 DUP2 MSTORE PUSH1 0x20 ADD PUSH1 0x0 ISZERO ISZERO DUP2 MSTORE POP PUSH1 0x1 DUP4 PUSH1 0x40 MLOAD PUSH2 0x988 SWAP2 SWAP1 PUSH2 0x1881 JUMP JUMPDEST SWAP1 DUP2 MSTORE PUSH1 0x20 ADD PUSH1 0x40 MLOAD DUP1 SWAP2 SUB SWAP1 KECCAK256 PUSH1 0x0 DUP3 ADD MLOAD DUP2 PUSH1 0x0 ADD PUSH1 0x0 PUSH2 0x100 EXP DUP2 SLOAD DUP2 PUSH20 0xFFFFFFFFFFFFFFFFFFFFFFFFFFFFFFFFFFFFFFFF MUL NOT AND SWAP1 DUP4 PUSH20 0xFFFFFFFFFFFFFFFFFFFFFFFFFFFFFFFFFFFFFFFF AND MUL OR SWAP1 SSTORE POP PUSH1 0x20 DUP3 ADD MLOAD DUP2 PUSH1 0x1 ADD SWAP1 DUP2 PUSH2 0x9F2 SWAP2 SWAP1 PUSH2 0x169B JUMP JUMPDEST POP PUSH1 0x40 DUP3 ADD MLOAD DUP2 PUSH1 0x2 ADD SWAP1 DUP2 PUSH2 0xA08 SWAP2 SWAP1 PUSH2 0x169B JUMP JUMPDEST POP PUSH1 0x60 DUP3 ADD MLOAD DUP2 PUSH1 0x3 ADD PUSH1 0x0 PUSH2 0x100 EXP DUP2 SLOAD DUP2 PUSH1 0xFF MUL NOT AND SWAP1 DUP4 ISZERO ISZERO MUL OR SWAP1 SSTORE POP SWAP1 POP POP POP POP JUMP JUMPDEST PUSH1 0x0 PUSH20 0xFFFFFFFFFFFFFFFFFFFFFFFFFFFFFFFFFFFFFFFF AND PUSH1 0x0 DUP1 CALLER PUSH20 0xFFFFFFFFFFFFFFFFFFFFFFFFFFFFFFFFFFFFFFFF AND PUSH20 0xFFFFFFFFFFFFFFFFFFFFFFFFFFFFFFFFFFFFFFFF AND DUP2 MSTORE PUSH1 0x20 ADD SWAP1 DUP2 MSTORE PUSH1 0x20 ADD PUSH1 0x0 KECCAK256 PUSH1 0x1 ADD PUSH1 0x0 SWAP1 SLOAD SWAP1 PUSH2 0x100 EXP SWAP1 DIV PUSH20 0xFFFFFFFFFFFFFFFFFFFFFFFFFFFFFFFFFFFFFFFF AND PUSH20 0xFFFFFFFFFFFFFFFFFFFFFFFFFFFFFFFFFFFFFFFF AND SUB PUSH2 0xB00 JUMPI PUSH1 0x40 MLOAD PUSH32 0x8C379A000000000000000000000000000000000000000000000000000000000 DUP2 MSTORE PUSH1 0x4 ADD PUSH2 0xAF7 SWAP1 PUSH2 0x17B9 JUMP JUMPDEST PUSH1 0x40 MLOAD DUP1 SWAP2 SUB SWAP1 REVERT JUMPDEST PUSH1 0x0 DUP1 CALLER PUSH20 0xFFFFFFFFFFFFFFFFFFFFFFFFFFFFFFFFFFFFFFFF AND PUSH20 0xFFFFFFFFFFFFFFFFFFFFFFFFFFFFFFFFFFFFFFFF AND DUP2 MSTORE PUSH1 0x20 ADD SWAP1 DUP2 MSTORE PUSH1 0x20 ADD PUSH1 0x0 KECCAK256 PUSH1 0x1 ADD PUSH1 0x14 SWAP1 SLOAD SWAP1 PUSH2 0x100 EXP SWAP1 DIV PUSH1 0xFF AND PUSH2 0xB8E JUMPI PUSH1 0x40 MLOAD PUSH32 0x8C379A000000000000000000000000000000000000000000000000000000000 DUP2 MSTORE PUSH1 0x4 ADD PUSH2 0xB85 SWAP1 PUSH2 0x1976 JUMP JUMPDEST PUSH1 0x40 MLOAD DUP1 SWAP2 SUB SWAP1 REVERT JUMPDEST PUSH1 0x0 PUSH20 0xFFFFFFFFFFFFFFFFFFFFFFFFFFFFFFFFFFFFFFFF AND PUSH1 0x1 DUP6 PUSH1 0x40 MLOAD PUSH2 0xBB6 SWAP2 SWAP1 PUSH2 0x1881 JUMP JUMPDEST SWAP1 DUP2 MSTORE PUSH1 0x20 ADD PUSH1 0x40 MLOAD DUP1 SWAP2 SUB SWAP1 KECCAK256 PUSH1 0x0 ADD PUSH1 0x0 SWAP1 SLOAD SWAP1 PUSH2 0x100 EXP SWAP1 DIV PUSH20 0xFFFFFFFFFFFFFFFFFFFFFFFFFFFFFFFFFFFFFFFF AND PUSH20 0xFFFFFFFFFFFFFFFFFFFFFFFFFFFFFFFFFFFFFFFF AND SUB PUSH2 0xC3E JUMPI PUSH1 0x40 MLOAD PUSH32 0x8C379A000000000000000000000000000000000000000000000000000000000 DUP2 MSTORE PUSH1 0x4 ADD PUSH2 0xC35 SWAP1 PUSH2 0x19E2 JUMP JUMPDEST PUSH1 0x40 MLOAD DUP1 SWAP2 SUB SWAP1 REVERT JUMPDEST PUSH1 0x0 CALLER DUP6 DUP5 DUP5 PUSH1 0x40 MLOAD PUSH1 0x20 ADD PUSH2 0xC57 SWAP5 SWAP4 SWAP3 SWAP2 SWAP1 PUSH2 0x1A6B JUMP JUMPDEST PUSH1 0x40 MLOAD PUSH1 0x20 DUP2 DUP4 SUB SUB DUP2 MSTORE SWAP1 PUSH1 0x40 MSTORE DUP1 MLOAD SWAP1 PUSH1 0x20 ADD KECCAK256 PUSH1 0x0 SHR SWAP1 POP PUSH1 0x40 MLOAD DUP1 PUSH2 0x100 ADD PUSH1 0x40 MSTORE DUP1 CALLER PUSH20 0xFFFFFFFFFFFFFFFFFFFFFFFFFFFFFFFFFFFFFFFF AND DUP2 MSTORE PUSH1 0x20 ADD DUP8 PUSH20 0xFFFFFFFFFFFFFFFFFFFFFFFFFFFFFFFFFFFFFFFF AND DUP2 MSTORE PUSH1 0x20 ADD DUP7 DUP2 MSTORE PUSH1 0x20 ADD DUP6 DUP2 MSTORE PUSH1 0x20 ADD DUP5 DUP2 MSTORE PUSH1 0x20 ADD DUP4 DUP2 MSTORE PUSH1 0x20 ADD PUSH1 0x1 ISZERO ISZERO DUP2 MSTORE PUSH1 0x20 ADD PUSH1 0x0 ISZERO ISZERO DUP2 MSTORE POP PUSH1 0x2 PUSH1 0x0 DUP4 DUP2 MSTORE PUSH1 0x20 ADD SWAP1 DUP2 MSTORE PUSH1 0x20 ADD PUSH1 0x0 KECCAK256 PUSH1 0x0 DUP3 ADD MLOAD DUP2 PUSH1 0x0 ADD PUSH1 0x0 PUSH2 0x100 EXP DUP2 SLOAD DUP2 PUSH20 0xFFFFFFFFFFFFFFFFFFFFFFFFFFFFFFFFFFFFFFFF MUL NOT AND SWAP1 DUP4 PUSH20 0xFFFFFFFFFFFFFFFFFFFFFFFFFFFFFFFFFFFFFFFF AND MUL OR SWAP1 SSTORE POP PUSH1 0x20 DUP3 ADD MLOAD DUP2 PUSH1 0x1 ADD PUSH1 0x0 PUSH2 0x100 EXP DUP2 SLOAD DUP2 PUSH20 0xFFFFFFFFFFFFFFFFFFFFFFFFFFFFFFFFFFFFFFFF MUL NOT AND SWAP1 DUP4 PUSH20 0xFFFFFFFFFFFFFFFFFFFFFFFFFFFFFFFFFFFFFFFF AND MUL OR SWAP1 SSTORE POP PUSH1 0x40 DUP3 ADD MLOAD DUP2 PUSH1 0x2 ADD SWAP1 DUP2 PUSH2 0xD94 SWAP2 SWAP1 PUSH2 0x169B JUMP JUMPDEST POP PUSH1 0x60 DUP3 ADD MLOAD DUP2 PUSH1 0x3 ADD SWAP1 DUP2 PUSH2 0xDAA SWAP2 SWAP1 PUSH2 0x169B JUMP JUMPDEST POP PUSH1 0x80 DUP3 ADD MLOAD DUP2 PUSH1 0x4 ADD SSTORE PUSH1 0xA0 DUP3 ADD MLOAD DUP2 PUSH1 0x5 ADD SSTORE PUSH1 0xC0 DUP3 ADD MLOAD DUP2 PUSH1 0x6 ADD PUSH1 0x0 PUSH2 0x100 EXP DUP2 SLOAD DUP2 PUSH1 0xFF MUL NOT AND SWAP1 DUP4 ISZERO ISZERO MUL OR SWAP1 SSTORE POP PUSH1 0xE0 DUP3 ADD MLOAD DUP2 PUSH1 0x6 ADD PUSH1 0x1 PUSH2 0x100 EXP DUP2 SLOAD DUP2 PUSH1 0xFF MUL NOT AND SWAP1 DUP4 ISZERO ISZERO MUL OR SWAP1 SSTORE POP SWAP1 POP POP POP POP POP POP POP POP JUMP JUMPDEST PUSH1 0x0 PUSH1 0x40 MLOAD SWAP1 POP SWAP1 JUMP JUMPDEST PUSH1 0x0 DUP1 REVERT JUMPDEST PUSH1 0x0 DUP1 REVERT JUMPDEST PUSH1 0x0 PUSH20 0xFFFFFFFFFFFFFFFFFFFFFFFFFFFFFFFFFFFFFFFF DUP3 AND SWAP1 POP SWAP2 SWAP1 POP JUMP JUMPDEST PUSH1 0x0 PUSH2 0xE49 DUP3 PUSH2 0xE1E JUMP JUMPDEST SWAP1 POP SWAP2 SWAP1 POP JUMP JUMPDEST PUSH2 0xE59 DUP2 PUSH2 0xE3E JUMP JUMPDEST DUP2 EQ PUSH2 0xE64 JUMPI PUSH1 0x0 DUP1 REVERT JUMPDEST POP JUMP JUMPDEST PUSH1 0x0 DUP2 CALLDATALOAD SWAP1 POP PUSH2 0xE76 DUP2 PUSH2 0xE50 JUMP JUMPDEST SWAP3 SWAP2 POP POP JUMP JUMPDEST PUSH1 0x0 PUSH1 0x20 DUP3 DUP5 SUB SLT ISZERO PUSH2 0xE92 JUMPI PUSH2 0xE91 PUSH2 0xE14 JUMP JUMPDEST JUMPDEST PUSH1 0x0 PUSH2 0xEA0 DUP5 DUP3 DUP6 ADD PUSH2 0xE67 JUMP JUMPDEST SWAP2 POP POP SWAP3 SWAP2 POP POP JUMP JUMPDEST PUSH1 0x0 DUP2 MLOAD SWAP1 POP SWAP2 SWAP1 POP JUMP JUMPDEST PUSH1 0x0 DUP3 DUP3 MSTORE PUSH1 0x20 DUP3 ADD SWAP1 POP SWAP3 SWAP2 POP POP JUMP JUMPDEST PUSH1 0x0 JUMPDEST DUP4 DUP2 LT ISZERO PUSH2 0xEE3 JUMPI DUP1 DUP3 ADD MLOAD DUP2 DUP5 ADD MSTORE PUSH1 0x20 DUP2 ADD SWAP1 POP PUSH2 0xEC8 JUMP JUMPDEST PUSH1 0x0 DUP5 DUP5 ADD MSTORE POP POP POP POP JUMP JUMPDEST PUSH1 0x0 PUSH1 0x1F NOT PUSH1 0x1F DUP4 ADD AND SWAP1 POP SWAP2 SWAP1 POP JUMP JUMPDEST PUSH1 0x0 PUSH2 0xF0B DUP3 PUSH2 0xEA9 JUMP JUMPDEST PUSH2 0xF15 DUP2 DUP6 PUSH2 0xEB4 JUMP JUMPDEST SWAP4 POP PUSH2 0xF25 DUP2 DUP6 PUSH1 0x20 DUP7 ADD PUSH2 0xEC5 JUMP JUMPDEST PUSH2 0xF2E DUP2 PUSH2 0xEEF JUMP JUMPDEST DUP5 ADD SWAP2 POP POP SWAP3 SWAP2 POP POP JUMP JUMPDEST PUSH2 0xF42 DUP2 PUSH2 0xE3E JUMP JUMPDEST DUP3 MSTORE POP POP JUMP JUMPDEST PUSH1 0x0 DUP2 ISZERO ISZERO SWAP1 POP SWAP2 SWAP1 POP JUMP JUMPDEST PUSH2 0xF5D DUP2 PUSH2 0xF48 JUMP JUMPDEST DUP3 MSTORE POP POP JUMP JUMPDEST PUSH1 0x0 PUSH1 0x60 DUP3 ADD SWAP1 POP DUP2 DUP2 SUB PUSH1 0x0 DUP4 ADD MSTORE PUSH2 0xF7D DUP2 DUP7 PUSH2 0xF00 JUMP JUMPDEST SWAP1 POP PUSH2 0xF8C PUSH1 0x20 DUP4 ADD DUP6 PUSH2 0xF39 JUMP JUMPDEST PUSH2 0xF99 PUSH1 0x40 DUP4 ADD DUP5 PUSH2 0xF54 JUMP JUMPDEST SWAP5 SWAP4 POP POP POP POP JUMP JUMPDEST PUSH1 0x0 DUP1 REVERT JUMPDEST PUSH1 0x0 DUP1 REVERT JUMPDEST PUSH32 0x4E487B7100000000000000000000000000000000000000000000000000000000 PUSH1 0x0 MSTORE PUSH1 0x41 PUSH1 0x4 MSTORE PUSH1 0x24 PUSH1 0x0 REVERT JUMPDEST PUSH2 0xFE3 DUP3 PUSH2 0xEEF JUMP JUMPDEST DUP2 ADD DUP2 DUP2 LT PUSH8 0xFFFFFFFFFFFFFFFF DUP3 GT OR ISZERO PUSH2 0x1002 JUMPI PUSH2 0x1001 PUSH2 0xFAB JUMP JUMPDEST JUMPDEST DUP1 PUSH1 0x40 MSTORE POP POP POP JUMP JUMPDEST PUSH1 0x0 PUSH2 0x1015 PUSH2 0xE0A JUMP JUMPDEST SWAP1 POP PUSH2 0x1021 DUP3 DUP3 PUSH2 0xFDA JUMP JUMPDEST SWAP2 SWAP1 POP JUMP JUMPDEST PUSH1 0x0 PUSH8 0xFFFFFFFFFFFFFFFF DUP3 GT ISZERO PUSH2 0x1041 JUMPI PUSH2 0x1040 PUSH2 0xFAB JUMP JUMPDEST JUMPDEST PUSH2 0x104A DUP3 PUSH2 0xEEF JUMP JUMPDEST SWAP1 POP PUSH1 0x20 DUP2 ADD SWAP1 POP SWAP2 SWAP1 POP JUMP JUMPDEST DUP3 DUP2 DUP4 CALLDATACOPY PUSH1 0x0 DUP4 DUP4 ADD MSTORE POP POP POP JUMP JUMPDEST PUSH1 0x0 PUSH2 0x1079 PUSH2 0x1074 DUP5 PUSH2 0x1026 JUMP JUMPDEST PUSH2 0x100B JUMP JUMPDEST SWAP1 POP DUP3 DUP2 MSTORE PUSH1 0x20 DUP2 ADD DUP5 DUP5 DUP5 ADD GT ISZERO PUSH2 0x1095 JUMPI PUSH2 0x1094 PUSH2 0xFA6 JUMP JUMPDEST JUMPDEST PUSH2 0x10A0 DUP5 DUP3 DUP6 PUSH2 0x1057 JUMP JUMPDEST POP SWAP4 SWAP3 POP POP POP JUMP JUMPDEST PUSH1 0x0 DUP3 PUSH1 0x1F DUP4 ADD SLT PUSH2 0x10BD JUMPI PUSH2 0x10BC PUSH2 0xFA1 JUMP JUMPDEST JUMPDEST DUP2 CALLDATALOAD PUSH2 0x10CD DUP5 DUP3 PUSH1 0x20 DUP7 ADD PUSH2 0x1066 JUMP JUMPDEST SWAP2 POP POP SWAP3 SWAP2 POP POP JUMP JUMPDEST PUSH2 0x10DF DUP2 PUSH2 0xF48 JUMP JUMPDEST DUP2 EQ PUSH2 0x10EA JUMPI PUSH1 0x0 DUP1 REVERT JUMPDEST POP JUMP JUMPDEST PUSH1 0x0 DUP2 CALLDATALOAD SWAP1 POP PUSH2 0x10FC DUP2 PUSH2 0x10D6 JUMP JUMPDEST SWAP3 SWAP2 POP POP JUMP JUMPDEST PUSH1 0x0 DUP1 PUSH1 0x40 DUP4 DUP6 SUB SLT ISZERO PUSH2 0x1119 JUMPI PUSH2 0x1118 PUSH2 0xE14 JUMP JUMPDEST JUMPDEST PUSH1 0x0 DUP4 ADD CALLDATALOAD PUSH8 0xFFFFFFFFFFFFFFFF DUP2 GT ISZERO PUSH2 0x1137 JUMPI PUSH2 0x1136 PUSH2 0xE19 JUMP JUMPDEST JUMPDEST PUSH2 0x1143 DUP6 DUP3 DUP7 ADD PUSH2 0x10A8 JUMP JUMPDEST SWAP3 POP POP PUSH1 0x20 PUSH2 0x1154 DUP6 DUP3 DUP7 ADD PUSH2 0x10ED JUMP JUMPDEST SWAP2 POP POP SWAP3 POP SWAP3 SWAP1 POP JUMP JUMPDEST PUSH1 0x0 PUSH1 0x20 DUP3 DUP5 SUB SLT ISZERO PUSH2 0x1174 JUMPI PUSH2 0x1173 PUSH2 0xE14 JUMP JUMPDEST JUMPDEST PUSH1 0x0 DUP3 ADD CALLDATALOAD PUSH8 0xFFFFFFFFFFFFFFFF DUP2 GT ISZERO PUSH2 0x1192 JUMPI PUSH2 0x1191 PUSH2 0xE19 JUMP JUMPDEST JUMPDEST PUSH2 0x119E DUP5 DUP3 DUP6 ADD PUSH2 0x10A8 JUMP JUMPDEST SWAP2 POP POP SWAP3 SWAP2 POP POP JUMP JUMPDEST PUSH1 0x0 PUSH1 0x80 DUP3 ADD SWAP1 POP PUSH2 0x11BC PUSH1 0x0 DUP4 ADD DUP8 PUSH2 0xF39 JUMP JUMPDEST DUP2 DUP2 SUB PUSH1 0x20 DUP4 ADD MSTORE PUSH2 0x11CE DUP2 DUP7 PUSH2 0xF00 JUMP JUMPDEST SWAP1 POP DUP2 DUP2 SUB PUSH1 0x40 DUP4 ADD MSTORE PUSH2 0x11E2 DUP2 DUP6 PUSH2 0xF00 JUMP JUMPDEST SWAP1 POP PUSH2 0x11F1 PUSH1 0x60 DUP4 ADD DUP5 PUSH2 0xF54 JUMP JUMPDEST SWAP6 SWAP5 POP POP POP POP POP JUMP JUMPDEST PUSH1 0x0 DUP2 SWAP1 POP SWAP2 SWAP1 POP JUMP JUMPDEST PUSH2 0x120D DUP2 PUSH2 0x11FA JUMP JUMPDEST DUP2 EQ PUSH2 0x1218 JUMPI PUSH1 0x0 DUP1 REVERT JUMPDEST POP JUMP JUMPDEST PUSH1 0x0 DUP2 CALLDATALOAD SWAP1 POP PUSH2 0x122A DUP2 PUSH2 0x1204 JUMP JUMPDEST SWAP3 SWAP2 POP POP JUMP JUMPDEST PUSH1 0x0 PUSH1 0x20 DUP3 DUP5 SUB SLT ISZERO PUSH2 0x1246 JUMPI PUSH2 0x1245 PUSH2 0xE14 JUMP JUMPDEST JUMPDEST PUSH1 0x0 PUSH2 0x1254 DUP5 DUP3 DUP6 ADD PUSH2 0x121B JUMP JUMPDEST SWAP2 POP POP SWAP3 SWAP2 POP POP JUMP JUMPDEST PUSH2 0x1266 DUP2 PUSH2 0x11FA JUMP JUMPDEST DUP3 MSTORE POP POP JUMP JUMPDEST PUSH1 0x0 PUSH2 0x100 DUP3 ADD SWAP1 POP PUSH2 0x1282 PUSH1 0x0 DUP4 ADD DUP12 PUSH2 0xF39 JUMP JUMPDEST PUSH2 0x128F PUSH1 0x20 DUP4 ADD DUP11 PUSH2 0xF39 JUMP JUMPDEST DUP2 DUP2 SUB PUSH1 0x40 DUP4 ADD MSTORE PUSH2 0x12A1 DUP2 DUP10 PUSH2 0xF00 JUMP JUMPDEST SWAP1 POP DUP2 DUP2 SUB PUSH1 0x60 DUP4 ADD MSTORE PUSH2 0x12B5 DUP2 DUP9 PUSH2 0xF00 JUMP JUMPDEST SWAP1 POP PUSH2 0x12C4 PUSH1 0x80 DUP4 ADD DUP8 PUSH2 0x125D JUMP JUMPDEST PUSH2 0x12D1 PUSH1 0xA0 DUP4 ADD DUP7 PUSH2 0x125D JUMP JUMPDEST PUSH2 0x12DE PUSH1 0xC0 DUP4 ADD DUP6 PUSH2 0xF54 JUMP JUMPDEST PUSH2 0x12EB PUSH1 0xE0 DUP4 ADD DUP5 PUSH2 0xF54 JUMP JUMPDEST SWAP10 SWAP9 POP POP POP POP POP POP POP POP POP JUMP JUMPDEST PUSH1 0x0 DUP1 PUSH1 0x40 DUP4 DUP6 SUB SLT ISZERO PUSH2 0x130F JUMPI PUSH2 0x130E PUSH2 0xE14 JUMP JUMPDEST JUMPDEST PUSH1 0x0 DUP4 ADD CALLDATALOAD PUSH8 0xFFFFFFFFFFFFFFFF DUP2 GT ISZERO PUSH2 0x132D JUMPI PUSH2 0x132C PUSH2 0xE19 JUMP JUMPDEST JUMPDEST PUSH2 0x1339 DUP6 DUP3 DUP7 ADD PUSH2 0x10A8 JUMP JUMPDEST SWAP3 POP POP PUSH1 0x20 DUP4 ADD CALLDATALOAD PUSH8 0xFFFFFFFFFFFFFFFF DUP2 GT ISZERO PUSH2 0x135A JUMPI PUSH2 0x1359 PUSH2 0xE19 JUMP JUMPDEST JUMPDEST PUSH2 0x1366 DUP6 DUP3 DUP7 ADD PUSH2 0x10A8 JUMP JUMPDEST SWAP2 POP POP SWAP3 POP SWAP3 SWAP1 POP JUMP JUMPDEST PUSH1 0x0 DUP1 PUSH1 0x0 DUP1 PUSH1 0x0 PUSH1 0xA0 DUP7 DUP9 SUB SLT ISZERO PUSH2 0x138C JUMPI PUSH2 0x138B PUSH2 0xE14 JUMP JUMPDEST JUMPDEST PUSH1 0x0 PUSH2 0x139A DUP9 DUP3 DUP10 ADD PUSH2 0xE67 JUMP JUMPDEST SWAP6 POP POP PUSH1 0x20 DUP7 ADD CALLDATALOAD PUSH8 0xFFFFFFFFFFFFFFFF DUP2 GT ISZERO PUSH2 0x13BB JUMPI PUSH2 0x13BA PUSH2 0xE19 JUMP JUMPDEST JUMPDEST PUSH2 0x13C7 DUP9 DUP3 DUP10 ADD PUSH2 0x10A8 JUMP JUMPDEST SWAP5 POP POP PUSH1 0x40 DUP7 ADD CALLDATALOAD PUSH8 0xFFFFFFFFFFFFFFFF DUP2 GT ISZERO PUSH2 0x13E8 JUMPI PUSH2 0x13E7 PUSH2 0xE19 JUMP JUMPDEST JUMPDEST PUSH2 0x13F4 DUP9 DUP3 DUP10 ADD PUSH2 0x10A8 JUMP JUMPDEST SWAP4 POP POP PUSH1 0x60 PUSH2 0x1405 DUP9 DUP3 DUP10 ADD PUSH2 0x121B JUMP JUMPDEST SWAP3 POP POP PUSH1 0x80 PUSH2 0x1416 DUP9 DUP3 DUP10 ADD PUSH2 0x121B JUMP JUMPDEST SWAP2 POP POP SWAP3 SWAP6 POP SWAP3 SWAP6 SWAP1 SWAP4 POP JUMP JUMPDEST PUSH32 0x4E487B7100000000000000000000000000000000000000000000000000000000 PUSH1 0x0 MSTORE PUSH1 0x22 PUSH1 0x4 MSTORE PUSH1 0x24 PUSH1 0x0 REVERT JUMPDEST PUSH1 0x0 PUSH1 0x2 DUP3 DIV SWAP1 POP PUSH1 0x1 DUP3 AND DUP1 PUSH2 0x146A JUMPI PUSH1 0x7F DUP3 AND SWAP2 POP JUMPDEST PUSH1 0x20 DUP3 LT DUP2 SUB PUSH2 0x147D JUMPI PUSH2 0x147C PUSH2 0x1423 JUMP JUMPDEST JUMPDEST POP SWAP2 SWAP1 POP JUMP JUMPDEST PUSH32 0x5573657220697320616C72656164792072656769737465726564000000000000 PUSH1 0x0 DUP3 ADD MSTORE POP JUMP JUMPDEST PUSH1 0x0 PUSH2 0x14B9 PUSH1 0x1A DUP4 PUSH2 0xEB4 JUMP JUMPDEST SWAP2 POP PUSH2 0x14C4 DUP3 PUSH2 0x1483 JUMP JUMPDEST PUSH1 0x20 DUP3 ADD SWAP1 POP SWAP2 SWAP1 POP JUMP JUMPDEST PUSH1 0x0 PUSH1 0x20 DUP3 ADD SWAP1 POP DUP2 DUP2 SUB PUSH1 0x0 DUP4 ADD MSTORE PUSH2 0x14E8 DUP2 PUSH2 0x14AC JUMP JUMPDEST SWAP1 POP SWAP2 SWAP1 POP JUMP JUMPDEST PUSH1 0x0 DUP2 SWAP1 POP DUP2 PUSH1 0x0 MSTORE PUSH1 0x20 PUSH1 0x0 KECCAK256 SWAP1 POP SWAP2 SWAP1 POP JUMP JUMPDEST PUSH1 0x0 PUSH1 0x20 PUSH1 0x1F DUP4 ADD DIV SWAP1 POP SWAP2 SWAP1 POP JUMP JUMPDEST PUSH1 0x0 DUP3 DUP3 SHL SWAP1 POP SWAP3 SWAP2 POP POP JUMP JUMPDEST PUSH1 0x0 PUSH1 0x8 DUP4 MUL PUSH2 0x1551 PUSH32 0xFFFFFFFFFFFFFFFFFFFFFFFFFFFFFFFFFFFFFFFFFFFFFFFFFFFFFFFFFFFFFFFF DUP3 PUSH2 0x1514 JUMP JUMPDEST PUSH2 0x155B DUP7 DUP4 PUSH2 0x1514 JUMP JUMPDEST SWAP6 POP DUP1 NOT DUP5 AND SWAP4 POP DUP1 DUP7 AND DUP5 OR SWAP3 POP POP POP SWAP4 SWAP3 POP POP POP JUMP JUMPDEST PUSH1 0x0 DUP2 SWAP1 POP SWAP2 SWAP1 POP JUMP JUMPDEST PUSH1 0x0 PUSH2 0x1598 PUSH2 0x1593 PUSH2 0x158E DUP5 PUSH2 0x11FA JUMP JUMPDEST PUSH2 0x1573 JUMP JUMPDEST PUSH2 0x11FA JUMP JUMPDEST SWAP1 POP SWAP2 SWAP1 POP JUMP JUMPDEST PUSH1 0x0 DUP2 SWAP1 POP SWAP2 SWAP1 POP JUMP JUMPDEST PUSH2 0x15B2 DUP4 PUSH2 0x157D JUMP JUMPDEST PUSH2 0x15C6 PUSH2 0x15BE DUP3 PUSH2 0x159F JUMP JUMPDEST DUP5 DUP5 SLOAD PUSH2 0x1521 JUMP JUMPDEST DUP3 SSTORE POP POP POP POP JUMP JUMPDEST PUSH1 0x0 SWAP1 JUMP JUMPDEST PUSH2 0x15DB PUSH2 0x15CE JUMP JUMPDEST PUSH2 0x15E6 DUP2 DUP5 DUP5 PUSH2 0x15A9 JUMP JUMPDEST POP POP POP JUMP JUMPDEST JUMPDEST DUP2 DUP2 LT ISZERO PUSH2 0x160A JUMPI PUSH2 0x15FF PUSH1 0x0 DUP3 PUSH2 0x15D3 JUMP JUMPDEST PUSH1 0x1 DUP2 ADD SWAP1 POP PUSH2 0x15EC JUMP JUMPDEST POP POP JUMP JUMPDEST PUSH1 0x1F DUP3 GT ISZERO PUSH2 0x164F JUMPI PUSH2 0x1620 DUP2 PUSH2 0x14EF JUMP JUMPDEST PUSH2 0x1629 DUP5 PUSH2 0x1504 JUMP JUMPDEST DUP2 ADD PUSH1 0x20 DUP6 LT ISZERO PUSH2 0x1638 JUMPI DUP2 SWAP1 POP JUMPDEST PUSH2 0x164C PUSH2 0x1644 DUP6 PUSH2 0x1504 JUMP JUMPDEST DUP4 ADD DUP3 PUSH2 0x15EB JUMP JUMPDEST POP POP JUMPDEST POP POP POP JUMP JUMPDEST PUSH1 0x0 DUP3 DUP3 SHR SWAP1 POP SWAP3 SWAP2 POP POP JUMP JUMPDEST PUSH1 0x0 PUSH2 0x1672 PUSH1 0x0 NOT DUP5 PUSH1 0x8 MUL PUSH2 0x1654 JUMP JUMPDEST NOT DUP1 DUP4 AND SWAP2 POP POP SWAP3 SWAP2 POP POP JUMP JUMPDEST PUSH1 0x0 PUSH2 0x168B DUP4 DUP4 PUSH2 0x1661 JUMP JUMPDEST SWAP2 POP DUP3 PUSH1 0x2 MUL DUP3 OR SWAP1 POP SWAP3 SWAP2 POP POP JUMP JUMPDEST PUSH2 0x16A4 DUP3 PUSH2 0xEA9 JUMP JUMPDEST PUSH8 0xFFFFFFFFFFFFFFFF DUP2 GT ISZERO PUSH2 0x16BD JUMPI PUSH2 0x16BC PUSH2 0xFAB JUMP JUMPDEST JUMPDEST PUSH2 0x16C7 DUP3 SLOAD PUSH2 0x1452 JUMP JUMPDEST PUSH2 0x16D2 DUP3 DUP3 DUP6 PUSH2 0x160E JUMP JUMPDEST PUSH1 0x0 PUSH1 0x20 SWAP1 POP PUSH1 0x1F DUP4 GT PUSH1 0x1 DUP2 EQ PUSH2 0x1705 JUMPI PUSH1 0x0 DUP5 ISZERO PUSH2 0x16F3 JUMPI DUP3 DUP8 ADD MLOAD SWAP1 POP JUMPDEST PUSH2 0x16FD DUP6 DUP3 PUSH2 0x167F JUMP JUMPDEST DUP7 SSTORE POP PUSH2 0x1765 JUMP JUMPDEST PUSH1 0x1F NOT DUP5 AND PUSH2 0x1713 DUP7 PUSH2 0x14EF JUMP JUMPDEST PUSH1 0x0 JUMPDEST DUP3 DUP2 LT ISZERO PUSH2 0x173B JUMPI DUP5 DUP10 ADD MLOAD DUP3 SSTORE PUSH1 0x1 DUP3 ADD SWAP2 POP PUSH1 0x20 DUP6 ADD SWAP5 POP PUSH1 0x20 DUP2 ADD SWAP1 POP PUSH2 0x1716 JUMP JUMPDEST DUP7 DUP4 LT ISZERO PUSH2 0x1758 JUMPI DUP5 DUP10 ADD MLOAD PUSH2 0x1754 PUSH1 0x1F DUP10 AND DUP3 PUSH2 0x1661 JUMP JUMPDEST DUP4 SSTORE POP JUMPDEST PUSH1 0x1 PUSH1 0x2 DUP9 MUL ADD DUP9 SSTORE POP POP POP JUMPDEST POP POP POP POP POP POP JUMP JUMPDEST PUSH32 0x55736572206E6F7420666F756E64000000000000000000000000000000000000 PUSH1 0x0 DUP3 ADD MSTORE POP JUMP JUMPDEST PUSH1 0x0 PUSH2 0x17A3 PUSH1 0xE DUP4 PUSH2 0xEB4 JUMP JUMPDEST SWAP2 POP PUSH2 0x17AE DUP3 PUSH2 0x176D JUMP JUMPDEST PUSH1 0x20 DUP3 ADD SWAP1 POP SWAP2 SWAP1 POP JUMP JUMPDEST PUSH1 0x0 PUSH1 0x20 DUP3 ADD SWAP1 POP DUP2 DUP2 SUB PUSH1 0x0 DUP4 ADD MSTORE PUSH2 0x17D2 DUP2 PUSH2 0x1796 JUMP JUMPDEST SWAP1 POP SWAP2 SWAP1 POP JUMP JUMPDEST PUSH32 0x54656E616E74732063616E2774206164642070726F7065727469657300000000 PUSH1 0x0 DUP3 ADD MSTORE POP JUMP JUMPDEST PUSH1 0x0 PUSH2 0x180F PUSH1 0x1C DUP4 PUSH2 0xEB4 JUMP JUMPDEST SWAP2 POP PUSH2 0x181A DUP3 PUSH2 0x17D9 JUMP JUMPDEST PUSH1 0x20 DUP3 ADD SWAP1 POP SWAP2 SWAP1 POP JUMP JUMPDEST PUSH1 0x0 PUSH1 0x20 DUP3 ADD SWAP1 POP DUP2 DUP2 SUB PUSH1 0x0 DUP4 ADD MSTORE PUSH2 0x183E DUP2 PUSH2 0x1802 JUMP JUMPDEST SWAP1 POP SWAP2 SWAP1 POP JUMP JUMPDEST PUSH1 0x0 DUP2 SWAP1 POP SWAP3 SWAP2 POP POP JUMP JUMPDEST PUSH1 0x0 PUSH2 0x185B DUP3 PUSH2 0xEA9 JUMP JUMPDEST PUSH2 0x1865 DUP2 DUP6 PUSH2 0x1845 JUMP JUMPDEST SWAP4 POP PUSH2 0x1875 DUP2 DUP6 PUSH1 0x20 DUP7 ADD PUSH2 0xEC5 JUMP JUMPDEST DUP1 DUP5 ADD SWAP2 POP POP SWAP3 SWAP2 POP POP JUMP JUMPDEST PUSH1 0x0 PUSH2 0x188D DUP3 DUP5 PUSH2 0x1850 JUMP JUMPDEST SWAP2 POP DUP2 SWAP1 POP SWAP3 SWAP2 POP POP JUMP JUMPDEST PUSH32 0x50726F706572747920616C726561647920657869737473000000000000000000 PUSH1 0x0 DUP3 ADD MSTORE POP JUMP JUMPDEST PUSH1 0x0 PUSH2 0x18CE PUSH1 0x17 DUP4 PUSH2 0xEB4 JUMP JUMPDEST SWAP2 POP PUSH2 0x18D9 DUP3 PUSH2 0x1898 JUMP JUMPDEST PUSH1 0x20 DUP3 ADD SWAP1 POP SWAP2 SWAP1 POP JUMP JUMPDEST PUSH1 0x0 PUSH1 0x20 DUP3 ADD SWAP1 POP DUP2 DUP2 SUB PUSH1 0x0 DUP4 ADD MSTORE PUSH2 0x18FD DUP2 PUSH2 0x18C1 JUMP JUMPDEST SWAP1 POP SWAP2 SWAP1 POP JUMP JUMPDEST PUSH32 0x54656E616E74732063616E6E6F7420696E697469617465206120636F6E747261 PUSH1 0x0 DUP3 ADD MSTORE PUSH32 0x6374000000000000000000000000000000000000000000000000000000000000 PUSH1 0x20 DUP3 ADD MSTORE POP JUMP JUMPDEST PUSH1 0x0 PUSH2 0x1960 PUSH1 0x22 DUP4 PUSH2 0xEB4 JUMP JUMPDEST SWAP2 POP PUSH2 0x196B DUP3 PUSH2 0x1904 JUMP JUMPDEST PUSH1 0x40 DUP3 ADD SWAP1 POP SWAP2 SWAP1 POP JUMP JUMPDEST PUSH1 0x0 PUSH1 0x20 DUP3 ADD SWAP1 POP DUP2 DUP2 SUB PUSH1 0x0 DUP4 ADD MSTORE PUSH2 0x198F DUP2 PUSH2 0x1953 JUMP JUMPDEST SWAP1 POP SWAP2 SWAP1 POP JUMP JUMPDEST PUSH32 0x50726F7065727479206E6F7420666F756E640000000000000000000000000000 PUSH1 0x0 DUP3 ADD MSTORE POP JUMP JUMPDEST PUSH1 0x0 PUSH2 0x19CC PUSH1 0x12 DUP4 PUSH2 0xEB4 JUMP JUMPDEST SWAP2 POP PUSH2 0x19D7 DUP3 PUSH2 0x1996 JUMP JUMPDEST PUSH1 0x20 DUP3 ADD SWAP1 POP SWAP2 SWAP1 POP JUMP JUMPDEST PUSH1 0x0 PUSH1 0x20 DUP3 ADD SWAP1 POP DUP2 DUP2 SUB PUSH1 0x0 DUP4 ADD MSTORE PUSH2 0x19FB DUP2 PUSH2 0x19BF JUMP JUMPDEST SWAP1 POP SWAP2 SWAP1 POP JUMP JUMPDEST PUSH1 0x0 DUP2 PUSH1 0x60 SHL SWAP1 POP SWAP2 SWAP1 POP JUMP JUMPDEST PUSH1 0x0 PUSH2 0x1A1A DUP3 PUSH2 0x1A02 JUMP JUMPDEST SWAP1 POP SWAP2 SWAP1 POP JUMP JUMPDEST PUSH1 0x0 PUSH2 0x1A2C DUP3 PUSH2 0x1A0F JUMP JUMPDEST SWAP1 POP SWAP2 SWAP1 POP JUMP JUMPDEST PUSH2 0x1A44 PUSH2 0x1A3F DUP3 PUSH2 0xE3E JUMP JUMPDEST PUSH2 0x1A21 JUMP JUMPDEST DUP3 MSTORE POP POP JUMP JUMPDEST PUSH1 0x0 DUP2 SWAP1 POP SWAP2 SWAP1 POP JUMP JUMPDEST PUSH2 0x1A65 PUSH2 0x1A60 DUP3 PUSH2 0x11FA JUMP JUMPDEST PUSH2 0x1A4A JUMP JUMPDEST DUP3 MSTORE POP POP JUMP JUMPDEST PUSH1 0x0 PUSH2 0x1A77 DUP3 DUP8 PUSH2 0x1A33 JUMP JUMPDEST PUSH1 0x14 DUP3 ADD SWAP2 POP PUSH2 0x1A87 DUP3 DUP7 PUSH2 0x1850 JUMP JUMPDEST SWAP2 POP PUSH2 0x1A93 DUP3 DUP6 PUSH2 0x1A54 JUMP JUMPDEST PUSH1 0x20 DUP3 ADD SWAP2 POP PUSH2 0x1AA3 DUP3 DUP5 PUSH2 0x1A54 JUMP JUMPDEST PUSH1 0x20 DUP3 ADD SWAP2 POP DUP2 SWAP1 POP SWAP6 SWAP5 POP POP POP POP POP JUMP INVALID LOG2 PUSH5 0x6970667358 0x22 SLT KECCAK256 0xD6 0x28 0xC5 ADD PUSH22 0xCC10D2D8F030536886C061EEEE113EEAE633FD8D9E08 PUSH27 0x1EF1D9B64736F6C63430008120033000000000000000000000000 "
				},
				"gasEstimates": {
					"creation": {
						"codeDepositCost": "1378200",
						"executionCost": "1438",
						"totalCost": "1379638"
					},
					"external": {
						"addProperty(string,string)": "infinite",
						"contractInformations(uint256)": "infinite",
						"contractStart(address,string,string,uint256,uint256)": "infinite",
						"createUser(string,bool)": "infinite",
						"propertyInformations(string)": "infinite",
						"userInformations(address)": "infinite"
					}
				},
				"methodIdentifiers": {
					"addProperty(string,string)": "e545248d",
					"contractInformations(uint256)": "cbd24093",
					"contractStart(address,string,string,uint256,uint256)": "eea57141",
					"createUser(string,bool)": "86584e27",
					"propertyInformations(string)": "91e7f13a",
					"userInformations(address)": "16dd85da"
				}
			},
			"storageLayout": {
				"storage": [
					{
						"astId": 39,
						"contract": "contracts/RentContract.sol:RentMannagementSystem",
						"label": "userInformations",
						"offset": 0,
						"slot": "0",
						"type": "t_mapping(t_address,t_struct(User)8_storage)"
					},
					{
						"astId": 44,
						"contract": "contracts/RentContract.sol:RentMannagementSystem",
						"label": "propertyInformations",
						"offset": 0,
						"slot": "1",
						"type": "t_mapping(t_string_memory_ptr,t_struct(Property)17_storage)"
					},
					{
						"astId": 49,
						"contract": "contracts/RentContract.sol:RentMannagementSystem",
						"label": "contractInformations",
						"offset": 0,
						"slot": "2",
						"type": "t_mapping(t_uint256,t_struct(RentContract)34_storage)"
					}
				],
				"types": {
					"t_address": {
						"encoding": "inplace",
						"label": "address",
						"numberOfBytes": "20"
					},
					"t_bool": {
						"encoding": "inplace",
						"label": "bool",
						"numberOfBytes": "1"
					},
					"t_mapping(t_address,t_struct(User)8_storage)": {
						"encoding": "mapping",
						"key": "t_address",
						"label": "mapping(address => struct RentMannagementSystem.User)",
						"numberOfBytes": "32",
						"value": "t_struct(User)8_storage"
					},
					"t_mapping(t_string_memory_ptr,t_struct(Property)17_storage)": {
						"encoding": "mapping",
						"key": "t_string_memory_ptr",
						"label": "mapping(string => struct RentMannagementSystem.Property)",
						"numberOfBytes": "32",
						"value": "t_struct(Property)17_storage"
					},
					"t_mapping(t_uint256,t_struct(RentContract)34_storage)": {
						"encoding": "mapping",
						"key": "t_uint256",
						"label": "mapping(uint256 => struct RentMannagementSystem.RentContract)",
						"numberOfBytes": "32",
						"value": "t_struct(RentContract)34_storage"
					},
					"t_string_memory_ptr": {
						"encoding": "bytes",
						"label": "string",
						"numberOfBytes": "32"
					},
					"t_string_storage": {
						"encoding": "bytes",
						"label": "string",
						"numberOfBytes": "32"
					},
					"t_struct(Property)17_storage": {
						"encoding": "inplace",
						"label": "struct RentMannagementSystem.Property",
						"members": [
							{
								"astId": 10,
								"contract": "contracts/RentContract.sol:RentMannagementSystem",
								"label": "ownerAddress",
								"offset": 0,
								"slot": "0",
								"type": "t_address"
							},
							{
								"astId": 12,
								"contract": "contracts/RentContract.sol:RentMannagementSystem",
								"label": "propertyAddress",
								"offset": 0,
								"slot": "1",
								"type": "t_string_storage"
							},
							{
								"astId": 14,
								"contract": "contracts/RentContract.sol:RentMannagementSystem",
								"label": "propertyType",
								"offset": 0,
								"slot": "2",
								"type": "t_string_storage"
							},
							{
								"astId": 16,
								"contract": "contracts/RentContract.sol:RentMannagementSystem",
								"label": "contractValidityStatus",
								"offset": 0,
								"slot": "3",
								"type": "t_bool"
							}
						],
						"numberOfBytes": "128"
					},
					"t_struct(RentContract)34_storage": {
						"encoding": "inplace",
						"label": "struct RentMannagementSystem.RentContract",
						"members": [
							{
								"astId": 19,
								"contract": "contracts/RentContract.sol:RentMannagementSystem",
								"label": "ownerAddress",
								"offset": 0,
								"slot": "0",
								"type": "t_address"
							},
							{
								"astId": 21,
								"contract": "contracts/RentContract.sol:RentMannagementSystem",
								"label": "tenantAddress",
								"offset": 0,
								"slot": "1",
								"type": "t_address"
							},
							{
								"astId": 23,
								"contract": "contracts/RentContract.sol:RentMannagementSystem",
								"label": "propertyAddress",
								"offset": 0,
								"slot": "2",
								"type": "t_string_storage"
							},
							{
								"astId": 25,
								"contract": "contracts/RentContract.sol:RentMannagementSystem",
								"label": "propertyType",
								"offset": 0,
								"slot": "3",
								"type": "t_string_storage"
							},
							{
								"astId": 27,
								"contract": "contracts/RentContract.sol:RentMannagementSystem",
								"label": "contractStartDate",
								"offset": 0,
								"slot": "4",
								"type": "t_uint256"
							},
							{
								"astId": 29,
								"contract": "contracts/RentContract.sol:RentMannagementSystem",
								"label": "contractFinishDate",
								"offset": 0,
								"slot": "5",
								"type": "t_uint256"
							},
							{
								"astId": 31,
								"contract": "contracts/RentContract.sol:RentMannagementSystem",
								"label": "validityStatus",
								"offset": 0,
								"slot": "6",
								"type": "t_bool"
							},
							{
								"astId": 33,
								"contract": "contracts/RentContract.sol:RentMannagementSystem",
								"label": "earlyTerminate",
								"offset": 1,
								"slot": "6",
								"type": "t_bool"
							}
						],
						"numberOfBytes": "224"
					},
					"t_struct(User)8_storage": {
						"encoding": "inplace",
						"label": "struct RentMannagementSystem.User",
						"members": [
							{
								"astId": 3,
								"contract": "contracts/RentContract.sol:RentMannagementSystem",
								"label": "Name",
								"offset": 0,
								"slot": "0",
								"type": "t_string_storage"
							},
							{
								"astId": 5,
								"contract": "contracts/RentContract.sol:RentMannagementSystem",
								"label": "UserAddress",
								"offset": 0,
								"slot": "1",
								"type": "t_address"
							},
							{
								"astId": 7,
								"contract": "contracts/RentContract.sol:RentMannagementSystem",
								"label": "isOwner",
								"offset": 20,
								"slot": "1",
								"type": "t_bool"
							}
						],
						"numberOfBytes": "64"
					},
					"t_uint256": {
						"encoding": "inplace",
						"label": "uint256",
						"numberOfBytes": "32"
					}
				}
			},
			"userdoc": {
				"kind": "user",
				"methods": {},
				"version": 1
			}
		}
	}
}