{
	"contracts/RentContract.sol": {
		"RentMannagementSystem": {
			"abi": [
				{
					"inputs": [],
					"stateMutability": "nonpayable",
					"type": "constructor"
				},
				{
					"inputs": [],
					"name": "ContractAdmin",
					"outputs": [
						{
							"internalType": "address",
							"name": "",
							"type": "address"
						}
					],
					"stateMutability": "view",
					"type": "function"
				},
				{
					"inputs": [
						{
							"internalType": "string",
							"name": "_propertyAddress",
							"type": "string"
						},
						{
							"internalType": "string",
							"name": "_propertyType",
							"type": "string"
						}
					],
					"name": "addProperty",
					"outputs": [],
					"stateMutability": "nonpayable",
					"type": "function"
				},
				{
					"inputs": [
						{
							"internalType": "address",
							"name": "",
							"type": "address"
						}
					],
					"name": "blackList",
					"outputs": [
						{
							"internalType": "bool",
							"name": "",
							"type": "bool"
						}
					],
					"stateMutability": "view",
					"type": "function"
				},
				{
					"inputs": [
						{
							"internalType": "uint256",
							"name": "_contractID",
							"type": "uint256"
						},
						{
							"internalType": "string",
							"name": "_complainReason",
							"type": "string"
						}
					],
					"name": "complainUser",
					"outputs": [],
					"stateMutability": "nonpayable",
					"type": "function"
				},
				{
					"inputs": [
						{
							"internalType": "uint256",
							"name": "_contractID",
							"type": "uint256"
						},
						{
							"internalType": "bool",
							"name": "_approve",
							"type": "bool"
						}
					],
					"name": "complainUserManage",
					"outputs": [],
					"stateMutability": "nonpayable",
					"type": "function"
				},
				{
					"inputs": [
						{
							"internalType": "uint256",
							"name": "",
							"type": "uint256"
						}
					],
					"name": "contractComplainReasons",
					"outputs": [
						{
							"internalType": "uint256",
							"name": "contractID",
							"type": "uint256"
						},
						{
							"internalType": "address",
							"name": "userAddress",
							"type": "address"
						},
						{
							"internalType": "address",
							"name": "targetAddress",
							"type": "address"
						},
						{
							"internalType": "string",
							"name": "ComplainReason",
							"type": "string"
						},
						{
							"internalType": "address",
							"name": "willApprove",
							"type": "address"
						}
					],
					"stateMutability": "view",
					"type": "function"
				},
				{
					"inputs": [
						{
							"internalType": "uint256",
							"name": "",
							"type": "uint256"
						}
					],
					"name": "contractInformations",
					"outputs": [
						{
							"internalType": "address",
							"name": "ownerAddress",
							"type": "address"
						},
						{
							"internalType": "address",
							"name": "tenantAddress",
							"type": "address"
						},
						{
							"internalType": "string",
							"name": "propertyAddress",
							"type": "string"
						},
						{
							"internalType": "string",
							"name": "propertyType",
							"type": "string"
						},
						{
							"internalType": "uint256",
							"name": "contractStartDate",
							"type": "uint256"
						},
						{
							"internalType": "uint256",
							"name": "contractFinishDate",
							"type": "uint256"
						},
						{
							"internalType": "bool",
							"name": "validityStatus",
							"type": "bool"
						},
						{
							"internalType": "bool",
							"name": "earlyTerminate",
							"type": "bool"
						}
					],
					"stateMutability": "view",
					"type": "function"
				},
				{
					"inputs": [
						{
							"internalType": "address",
							"name": "_tenantAddress",
							"type": "address"
						},
						{
							"internalType": "string",
							"name": "_propertyAddress",
							"type": "string"
						},
						{
							"internalType": "string",
							"name": "_propertyType",
							"type": "string"
						},
						{
							"internalType": "uint256",
							"name": "_contractStartDate",
							"type": "uint256"
						},
						{
							"internalType": "uint256",
							"name": "_contractFinishDate",
							"type": "uint256"
						}
					],
					"name": "contractStart",
					"outputs": [],
					"stateMutability": "nonpayable",
					"type": "function"
				},
				{
					"inputs": [
						{
							"internalType": "uint256",
							"name": "_contractID",
							"type": "uint256"
						},
						{
							"internalType": "bool",
							"name": "_legitimate",
							"type": "bool"
						},
						{
							"internalType": "string",
							"name": "_reason",
							"type": "string"
						}
					],
					"name": "contractTerminate",
					"outputs": [],
					"stateMutability": "nonpayable",
					"type": "function"
				},
				{
					"inputs": [
						{
							"internalType": "uint256",
							"name": "_contractID",
							"type": "uint256"
						},
						{
							"internalType": "bool",
							"name": "_approve",
							"type": "bool"
						}
					],
					"name": "contractTerminateManage",
					"outputs": [],
					"stateMutability": "nonpayable",
					"type": "function"
				},
				{
					"inputs": [
						{
							"internalType": "uint256",
							"name": "",
							"type": "uint256"
						}
					],
					"name": "contractTerminateReasons",
					"outputs": [
						{
							"internalType": "uint256",
							"name": "contractID",
							"type": "uint256"
						},
						{
							"internalType": "address",
							"name": "userAddress",
							"type": "address"
						},
						{
							"internalType": "string",
							"name": "TerminationReason",
							"type": "string"
						},
						{
							"internalType": "address",
							"name": "willApprove",
							"type": "address"
						}
					],
					"stateMutability": "view",
					"type": "function"
				},
				{
					"inputs": [
						{
							"internalType": "string",
							"name": "_name",
							"type": "string"
						},
						{
							"internalType": "bool",
							"name": "_isOwner",
							"type": "bool"
						}
					],
					"name": "createUser",
					"outputs": [],
					"stateMutability": "nonpayable",
					"type": "function"
				},
				{
					"inputs": [
						{
							"internalType": "address",
							"name": "_userAddress",
							"type": "address"
						}
					],
					"name": "getBlackListStatus",
					"outputs": [
						{
							"internalType": "bool",
							"name": "",
							"type": "bool"
						}
					],
					"stateMutability": "view",
					"type": "function"
				},
				{
					"inputs": [
						{
							"internalType": "uint256",
							"name": "_contractID",
							"type": "uint256"
						}
					],
					"name": "getComplains",
					"outputs": [
						{
							"internalType": "uint256",
							"name": "ID",
							"type": "uint256"
						},
						{
							"internalType": "address",
							"name": "user",
							"type": "address"
						},
						{
							"internalType": "address",
							"name": "target",
							"type": "address"
						},
						{
							"internalType": "string",
							"name": "reason",
							"type": "string"
						}
					],
					"stateMutability": "view",
					"type": "function"
				},
				{
					"inputs": [
						{
							"internalType": "string",
							"name": "_propertyAddress",
							"type": "string"
						}
					],
					"name": "getContractId",
					"outputs": [
						{
							"internalType": "uint256",
							"name": "",
							"type": "uint256"
						}
					],
					"stateMutability": "view",
					"type": "function"
				},
				{
					"inputs": [
						{
							"internalType": "uint256",
							"name": "_contractID",
							"type": "uint256"
						}
					],
					"name": "getTerminateRequest",
					"outputs": [
						{
							"internalType": "uint256",
							"name": "ID",
							"type": "uint256"
						},
						{
							"internalType": "address",
							"name": "user",
							"type": "address"
						},
						{
							"internalType": "string",
							"name": "reason",
							"type": "string"
						}
					],
					"stateMutability": "view",
					"type": "function"
				},
				{
					"inputs": [
						{
							"internalType": "string",
							"name": "",
							"type": "string"
						}
					],
					"name": "propertyInformations",
					"outputs": [
						{
							"internalType": "address",
							"name": "ownerAddress",
							"type": "address"
						},
						{
							"internalType": "string",
							"name": "propertyAddress",
							"type": "string"
						},
						{
							"internalType": "string",
							"name": "propertyType",
							"type": "string"
						},
						{
							"internalType": "bool",
							"name": "contractValidityStatus",
							"type": "bool"
						},
						{
							"internalType": "uint256",
							"name": "contractID",
							"type": "uint256"
						}
					],
					"stateMutability": "view",
					"type": "function"
				},
				{
					"inputs": [
						{
							"internalType": "address",
							"name": "",
							"type": "address"
						}
					],
					"name": "userInformations",
					"outputs": [
						{
							"internalType": "string",
							"name": "Name",
							"type": "string"
						},
						{
							"internalType": "address",
							"name": "UserAddress",
							"type": "address"
						},
						{
							"internalType": "bool",
							"name": "isOwner",
							"type": "bool"
						}
					],
					"stateMutability": "view",
					"type": "function"
				}
			],
			"devdoc": {
				"kind": "dev",
				"methods": {},
				"version": 1
			},
			"evm": {
				"assembly": "    /* \"contracts/RentContract.sol\":66:9244  contract RentMannagementSystem {... */\n  mstore(0x40, 0x80)\n    /* \"contracts/RentContract.sol\":156:231  constructor() {... */\n  callvalue\n  dup1\n  iszero\n  tag_1\n  jumpi\n  0x00\n  dup1\n  revert\ntag_1:\n  pop\n    /* \"contracts/RentContract.sol\":196:206  msg.sender */\n  caller\n    /* \"contracts/RentContract.sol\":180:193  ContractAdmin */\n  0x00\n  dup1\n    /* \"contracts/RentContract.sol\":180:206  ContractAdmin = msg.sender */\n  0x0100\n  exp\n  dup2\n  sload\n  dup2\n  0xffffffffffffffffffffffffffffffffffffffff\n  mul\n  not\n  and\n  swap1\n  dup4\n  0xffffffffffffffffffffffffffffffffffffffff\n  and\n  mul\n  or\n  swap1\n  sstore\n  pop\n    /* \"contracts/RentContract.sol\":66:9244  contract RentMannagementSystem {... */\n  dataSize(sub_0)\n  dup1\n  dataOffset(sub_0)\n  0x00\n  codecopy\n  0x00\n  return\nstop\n\nsub_0: assembly {\n        /* \"contracts/RentContract.sol\":66:9244  contract RentMannagementSystem {... */\n      mstore(0x40, 0x80)\n      callvalue\n      dup1\n      iszero\n      tag_1\n      jumpi\n      0x00\n      dup1\n      revert\n    tag_1:\n      pop\n      jumpi(tag_2, lt(calldatasize, 0x04))\n      shr(0xe0, calldataload(0x00))\n      dup1\n      0xa5b5737c\n      gt\n      tag_21\n      jumpi\n      dup1\n      0xe40cf565\n      gt\n      tag_22\n      jumpi\n      dup1\n      0xe40cf565\n      eq\n      tag_16\n      jumpi\n      dup1\n      0xe545248d\n      eq\n      tag_17\n      jumpi\n      dup1\n      0xe7c17d67\n      eq\n      tag_18\n      jumpi\n      dup1\n      0xeea57141\n      eq\n      tag_19\n      jumpi\n      dup1\n      0xf50d63ef\n      eq\n      tag_20\n      jumpi\n      jump(tag_2)\n    tag_22:\n      dup1\n      0xa5b5737c\n      eq\n      tag_12\n      jumpi\n      dup1\n      0xb387d778\n      eq\n      tag_13\n      jumpi\n      dup1\n      0xb3cf9deb\n      eq\n      tag_14\n      jumpi\n      dup1\n      0xcbd24093\n      eq\n      tag_15\n      jumpi\n      jump(tag_2)\n    tag_21:\n      dup1\n      0x4ef9d923\n      gt\n      tag_23\n      jumpi\n      dup1\n      0x4ef9d923\n      eq\n      tag_7\n      jumpi\n      dup1\n      0x59bf1abe\n      eq\n      tag_8\n      jumpi\n      dup1\n      0x80144bce\n      eq\n      tag_9\n      jumpi\n      dup1\n      0x86584e27\n      eq\n      tag_10\n      jumpi\n      dup1\n      0x91e7f13a\n      eq\n      tag_11\n      jumpi\n      jump(tag_2)\n    tag_23:\n      dup1\n      0x16dd85da\n      eq\n      tag_3\n      jumpi\n      dup1\n      0x1925a77a\n      eq\n      tag_4\n      jumpi\n      dup1\n      0x4838d165\n      eq\n      tag_5\n      jumpi\n      dup1\n      0x4e8abc87\n      eq\n      tag_6\n      jumpi\n    tag_2:\n      0x00\n      dup1\n      revert\n        /* \"contracts/RentContract.sol\":1253:1301  mapping(address => User) public userInformations */\n    tag_3:\n      tag_24\n      0x04\n      dup1\n      calldatasize\n      sub\n      dup2\n      add\n      swap1\n      tag_25\n      swap2\n      swap1\n      tag_26\n      jump\t// in\n    tag_25:\n      tag_27\n      jump\t// in\n    tag_24:\n      mload(0x40)\n      tag_28\n      swap4\n      swap3\n      swap2\n      swap1\n      tag_29\n      jump\t// in\n    tag_28:\n      mload(0x40)\n      dup1\n      swap2\n      sub\n      swap1\n      return\n        /* \"contracts/RentContract.sol\":8417:8771  function getComplains(uint _contractID) public view returns (uint ID, address user, address target, string memory reason) {... */\n    tag_4:\n      tag_30\n      0x04\n      dup1\n      calldatasize\n      sub\n      dup2\n      add\n      swap1\n      tag_31\n      swap2\n      swap1\n      tag_32\n      jump\t// in\n    tag_31:\n      tag_33\n      jump\t// in\n    tag_30:\n      mload(0x40)\n      tag_34\n      swap5\n      swap4\n      swap3\n      swap2\n      swap1\n      tag_35\n      jump\t// in\n    tag_34:\n      mload(0x40)\n      dup1\n      swap2\n      sub\n      swap1\n      return\n        /* \"contracts/RentContract.sol\":237:278  mapping(address => bool) public blackList */\n    tag_5:\n      tag_36\n      0x04\n      dup1\n      calldatasize\n      sub\n      dup2\n      add\n      swap1\n      tag_37\n      swap2\n      swap1\n      tag_26\n      jump\t// in\n    tag_37:\n      tag_38\n      jump\t// in\n    tag_36:\n      mload(0x40)\n      tag_39\n      swap2\n      swap1\n      tag_40\n      jump\t// in\n    tag_39:\n      mload(0x40)\n      dup1\n      swap2\n      sub\n      swap1\n      return\n        /* \"contracts/RentContract.sol\":104:132  address public ContractAdmin */\n    tag_6:\n      tag_41\n      tag_42\n      jump\t// in\n    tag_41:\n      mload(0x40)\n      tag_43\n      swap2\n      swap1\n      tag_44\n      jump\t// in\n    tag_43:\n      mload(0x40)\n      dup1\n      swap2\n      sub\n      swap1\n      return\n        /* \"contracts/RentContract.sol\":6454:6938  function contractTerminateManage(uint _contractID, bool _approve) public {... */\n    tag_7:\n      tag_45\n      0x04\n      dup1\n      calldatasize\n      sub\n      dup2\n      add\n      swap1\n      tag_46\n      swap2\n      swap1\n      tag_47\n      jump\t// in\n    tag_46:\n      tag_48\n      jump\t// in\n    tag_45:\n      stop\n        /* \"contracts/RentContract.sol\":8287:8411  function getBlackListStatus(address _userAddress) public view returns (bool) {... */\n    tag_8:\n      tag_49\n      0x04\n      dup1\n      calldatasize\n      sub\n      dup2\n      add\n      swap1\n      tag_50\n      swap2\n      swap1\n      tag_26\n      jump\t// in\n    tag_50:\n      tag_51\n      jump\t// in\n    tag_49:\n      mload(0x40)\n      tag_52\n      swap2\n      swap1\n      tag_40\n      jump\t// in\n    tag_52:\n      mload(0x40)\n      dup1\n      swap2\n      sub\n      swap1\n      return\n        /* \"contracts/RentContract.sol\":1431:1495  mapping(uint => ContractComplain) public contractComplainReasons */\n    tag_9:\n      tag_53\n      0x04\n      dup1\n      calldatasize\n      sub\n      dup2\n      add\n      swap1\n      tag_54\n      swap2\n      swap1\n      tag_32\n      jump\t// in\n    tag_54:\n      tag_55\n      jump\t// in\n    tag_53:\n      mload(0x40)\n      tag_56\n      swap6\n      swap5\n      swap4\n      swap3\n      swap2\n      swap1\n      tag_57\n      jump\t// in\n    tag_56:\n      mload(0x40)\n      dup1\n      swap2\n      sub\n      swap1\n      return\n        /* \"contracts/RentContract.sol\":1636:1955  function createUser(string memory _name, bool _isOwner) public {... */\n    tag_10:\n      tag_58\n      0x04\n      dup1\n      calldatasize\n      sub\n      dup2\n      add\n      swap1\n      tag_59\n      swap2\n      swap1\n      tag_60\n      jump\t// in\n    tag_59:\n      tag_61\n      jump\t// in\n    tag_58:\n      stop\n        /* \"contracts/RentContract.sol\":1307:1362  mapping(string => Property) public propertyInformations */\n    tag_11:\n      tag_62\n      0x04\n      dup1\n      calldatasize\n      sub\n      dup2\n      add\n      swap1\n      tag_63\n      swap2\n      swap1\n      tag_64\n      jump\t// in\n    tag_63:\n      tag_65\n      jump\t// in\n    tag_62:\n      mload(0x40)\n      tag_66\n      swap6\n      swap5\n      swap4\n      swap3\n      swap2\n      swap1\n      tag_67\n      jump\t// in\n    tag_66:\n      mload(0x40)\n      dup1\n      swap2\n      sub\n      swap1\n      return\n        /* \"contracts/RentContract.sol\":7868:8281  function complainUserManage(uint _contractID, bool _approve) public {... */\n    tag_12:\n      tag_68\n      0x04\n      dup1\n      calldatasize\n      sub\n      dup2\n      add\n      swap1\n      tag_69\n      swap2\n      swap1\n      tag_47\n      jump\t// in\n    tag_69:\n      tag_70\n      jump\t// in\n    tag_68:\n      stop\n        /* \"contracts/RentContract.sol\":6944:7862  function complainUser(uint _contractID, string memory _complainReason) public {... */\n    tag_13:\n      tag_71\n      0x04\n      dup1\n      calldatasize\n      sub\n      dup2\n      add\n      swap1\n      tag_72\n      swap2\n      swap1\n      tag_73\n      jump\t// in\n    tag_72:\n      tag_74\n      jump\t// in\n    tag_71:\n      stop\n        /* \"contracts/RentContract.sol\":9084:9239  function getContractId(string memory _propertyAddress) public view returns (uint) {... */\n    tag_14:\n      tag_75\n      0x04\n      dup1\n      calldatasize\n      sub\n      dup2\n      add\n      swap1\n      tag_76\n      swap2\n      swap1\n      tag_64\n      jump\t// in\n    tag_76:\n      tag_77\n      jump\t// in\n    tag_75:\n      mload(0x40)\n      tag_78\n      swap2\n      swap1\n      tag_79\n      jump\t// in\n    tag_78:\n      mload(0x40)\n      dup1\n      swap2\n      sub\n      swap1\n      return\n        /* \"contracts/RentContract.sol\":1368:1425  mapping(uint => RentContract) public contractInformations */\n    tag_15:\n      tag_80\n      0x04\n      dup1\n      calldatasize\n      sub\n      dup2\n      add\n      swap1\n      tag_81\n      swap2\n      swap1\n      tag_32\n      jump\t// in\n    tag_81:\n      tag_82\n      jump\t// in\n    tag_80:\n      mload(0x40)\n      tag_83\n      swap9\n      swap8\n      swap7\n      swap6\n      swap5\n      swap4\n      swap3\n      swap2\n      swap1\n      tag_84\n      jump\t// in\n    tag_83:\n      mload(0x40)\n      dup1\n      swap2\n      sub\n      swap1\n      return\n        /* \"contracts/RentContract.sol\":8777:9078  function getTerminateRequest(uint _contractID) public view returns (uint ID, address user,  string memory reason) {... */\n    tag_16:\n      tag_85\n      0x04\n      dup1\n      calldatasize\n      sub\n      dup2\n      add\n      swap1\n      tag_86\n      swap2\n      swap1\n      tag_32\n      jump\t// in\n    tag_86:\n      tag_87\n      jump\t// in\n    tag_85:\n      mload(0x40)\n      tag_88\n      swap4\n      swap3\n      swap2\n      swap1\n      tag_89\n      jump\t// in\n    tag_88:\n      mload(0x40)\n      dup1\n      swap2\n      sub\n      swap1\n      return\n        /* \"contracts/RentContract.sol\":1961:2706  function addProperty(string memory _propertyAddress, string memory _propertyType) public {... */\n    tag_17:\n      tag_90\n      0x04\n      dup1\n      calldatasize\n      sub\n      dup2\n      add\n      swap1\n      tag_91\n      swap2\n      swap1\n      tag_92\n      jump\t// in\n    tag_91:\n      tag_93\n      jump\t// in\n    tag_90:\n      stop\n        /* \"contracts/RentContract.sol\":1529:1596  mapping(uint => ContractTerminater) public contractTerminateReasons */\n    tag_18:\n      tag_94\n      0x04\n      dup1\n      calldatasize\n      sub\n      dup2\n      add\n      swap1\n      tag_95\n      swap2\n      swap1\n      tag_32\n      jump\t// in\n    tag_95:\n      tag_96\n      jump\t// in\n    tag_94:\n      mload(0x40)\n      tag_97\n      swap5\n      swap4\n      swap3\n      swap2\n      swap1\n      tag_98\n      jump\t// in\n    tag_97:\n      mload(0x40)\n      dup1\n      swap2\n      sub\n      swap1\n      return\n        /* \"contracts/RentContract.sol\":2712:3554  function contractStart(address _tenantAddress, string memory _propertyAddress, string memory _propertyType, uint _contractStartDate, uint _contractFinishDate) public {... */\n    tag_19:\n      tag_99\n      0x04\n      dup1\n      calldatasize\n      sub\n      dup2\n      add\n      swap1\n      tag_100\n      swap2\n      swap1\n      tag_101\n      jump\t// in\n    tag_100:\n      tag_102\n      jump\t// in\n    tag_99:\n      stop\n        /* \"contracts/RentContract.sol\":3560:6448  function contractTerminate(uint _contractID, bool _legitimate, string memory _reason) public {... */\n    tag_20:\n      tag_103\n      0x04\n      dup1\n      calldatasize\n      sub\n      dup2\n      add\n      swap1\n      tag_104\n      swap2\n      swap1\n      tag_105\n      jump\t// in\n    tag_104:\n      tag_106\n      jump\t// in\n    tag_103:\n      stop\n        /* \"contracts/RentContract.sol\":1253:1301  mapping(address => User) public userInformations */\n    tag_27:\n      mstore(0x20, 0x02)\n      dup1\n      0x00\n      mstore\n      keccak256(0x00, 0x40)\n      0x00\n      swap2\n      pop\n      swap1\n      pop\n      dup1\n      0x00\n      add\n      dup1\n      sload\n      tag_107\n      swap1\n      tag_108\n      jump\t// in\n    tag_107:\n      dup1\n      0x1f\n      add\n      0x20\n      dup1\n      swap2\n      div\n      mul\n      0x20\n      add\n      mload(0x40)\n      swap1\n      dup2\n      add\n      0x40\n      mstore\n      dup1\n      swap3\n      swap2\n      swap1\n      dup2\n      dup2\n      mstore\n      0x20\n      add\n      dup3\n      dup1\n      sload\n      tag_109\n      swap1\n      tag_108\n      jump\t// in\n    tag_109:\n      dup1\n      iszero\n      tag_110\n      jumpi\n      dup1\n      0x1f\n      lt\n      tag_111\n      jumpi\n      0x0100\n      dup1\n      dup4\n      sload\n      div\n      mul\n      dup4\n      mstore\n      swap2\n      0x20\n      add\n      swap2\n      jump(tag_110)\n    tag_111:\n      dup3\n      add\n      swap2\n      swap1\n      0x00\n      mstore\n      keccak256(0x00, 0x20)\n      swap1\n    tag_112:\n      dup2\n      sload\n      dup2\n      mstore\n      swap1\n      0x01\n      add\n      swap1\n      0x20\n      add\n      dup1\n      dup4\n      gt\n      tag_112\n      jumpi\n      dup3\n      swap1\n      sub\n      0x1f\n      and\n      dup3\n      add\n      swap2\n    tag_110:\n      pop\n      pop\n      pop\n      pop\n      pop\n      swap1\n      dup1\n      0x01\n      add\n      0x00\n      swap1\n      sload\n      swap1\n      0x0100\n      exp\n      swap1\n      div\n      0xffffffffffffffffffffffffffffffffffffffff\n      and\n      swap1\n      dup1\n      0x01\n      add\n      0x14\n      swap1\n      sload\n      swap1\n      0x0100\n      exp\n      swap1\n      div\n      0xff\n      and\n      swap1\n      pop\n      dup4\n      jump\t// out\n        /* \"contracts/RentContract.sol\":8417:8771  function getComplains(uint _contractID) public view returns (uint ID, address user, address target, string memory reason) {... */\n    tag_33:\n        /* \"contracts/RentContract.sol\":8478:8485  uint ID */\n      0x00\n        /* \"contracts/RentContract.sol\":8487:8499  address user */\n      dup1\n        /* \"contracts/RentContract.sol\":8501:8515  address target */\n      0x00\n        /* \"contracts/RentContract.sol\":8517:8537  string memory reason */\n      0x60\n        /* \"contracts/RentContract.sol\":8557:8580  contractComplainReasons */\n      0x05\n        /* \"contracts/RentContract.sol\":8557:8593  contractComplainReasons[_contractID] */\n      0x00\n        /* \"contracts/RentContract.sol\":8581:8592  _contractID */\n      dup7\n        /* \"contracts/RentContract.sol\":8557:8593  contractComplainReasons[_contractID] */\n      dup2\n      mstore\n      0x20\n      add\n      swap1\n      dup2\n      mstore\n      0x20\n      add\n      0x00\n      keccak256\n        /* \"contracts/RentContract.sol\":8557:8604  contractComplainReasons[_contractID].contractID */\n      0x00\n      add\n      sload\n        /* \"contracts/RentContract.sol\":8605:8628  contractComplainReasons */\n      0x05\n        /* \"contracts/RentContract.sol\":8605:8641  contractComplainReasons[_contractID] */\n      0x00\n        /* \"contracts/RentContract.sol\":8629:8640  _contractID */\n      dup8\n        /* \"contracts/RentContract.sol\":8605:8641  contractComplainReasons[_contractID] */\n      dup2\n      mstore\n      0x20\n      add\n      swap1\n      dup2\n      mstore\n      0x20\n      add\n      0x00\n      keccak256\n        /* \"contracts/RentContract.sol\":8605:8653  contractComplainReasons[_contractID].userAddress */\n      0x01\n      add\n      0x00\n      swap1\n      sload\n      swap1\n      0x0100\n      exp\n      swap1\n      div\n      0xffffffffffffffffffffffffffffffffffffffff\n      and\n        /* \"contracts/RentContract.sol\":8654:8677  contractComplainReasons */\n      0x05\n        /* \"contracts/RentContract.sol\":8654:8690  contractComplainReasons[_contractID] */\n      0x00\n        /* \"contracts/RentContract.sol\":8678:8689  _contractID */\n      dup9\n        /* \"contracts/RentContract.sol\":8654:8690  contractComplainReasons[_contractID] */\n      dup2\n      mstore\n      0x20\n      add\n      swap1\n      dup2\n      mstore\n      0x20\n      add\n      0x00\n      keccak256\n        /* \"contracts/RentContract.sol\":8654:8704  contractComplainReasons[_contractID].targetAddress */\n      0x02\n      add\n      0x00\n      swap1\n      sload\n      swap1\n      0x0100\n      exp\n      swap1\n      div\n      0xffffffffffffffffffffffffffffffffffffffff\n      and\n        /* \"contracts/RentContract.sol\":8705:8728  contractComplainReasons */\n      0x05\n        /* \"contracts/RentContract.sol\":8705:8741  contractComplainReasons[_contractID] */\n      0x00\n        /* \"contracts/RentContract.sol\":8729:8740  _contractID */\n      dup10\n        /* \"contracts/RentContract.sol\":8705:8741  contractComplainReasons[_contractID] */\n      dup2\n      mstore\n      0x20\n      add\n      swap1\n      dup2\n      mstore\n      0x20\n      add\n      0x00\n      keccak256\n        /* \"contracts/RentContract.sol\":8705:8756  contractComplainReasons[_contractID].ComplainReason */\n      0x03\n      add\n        /* \"contracts/RentContract.sol\":8549:8758  return (contractComplainReasons[_contractID].contractID,contractComplainReasons[_contractID].userAddress,contractComplainReasons[_contractID].targetAddress,contractComplainReasons[_contractID].ComplainReason ) */\n      dup1\n      dup1\n      sload\n      tag_114\n      swap1\n      tag_108\n      jump\t// in\n    tag_114:\n      dup1\n      0x1f\n      add\n      0x20\n      dup1\n      swap2\n      div\n      mul\n      0x20\n      add\n      mload(0x40)\n      swap1\n      dup2\n      add\n      0x40\n      mstore\n      dup1\n      swap3\n      swap2\n      swap1\n      dup2\n      dup2\n      mstore\n      0x20\n      add\n      dup3\n      dup1\n      sload\n      tag_115\n      swap1\n      tag_108\n      jump\t// in\n    tag_115:\n      dup1\n      iszero\n      tag_116\n      jumpi\n      dup1\n      0x1f\n      lt\n      tag_117\n      jumpi\n      0x0100\n      dup1\n      dup4\n      sload\n      div\n      mul\n      dup4\n      mstore\n      swap2\n      0x20\n      add\n      swap2\n      jump(tag_116)\n    tag_117:\n      dup3\n      add\n      swap2\n      swap1\n      0x00\n      mstore\n      keccak256(0x00, 0x20)\n      swap1\n    tag_118:\n      dup2\n      sload\n      dup2\n      mstore\n      swap1\n      0x01\n      add\n      swap1\n      0x20\n      add\n      dup1\n      dup4\n      gt\n      tag_118\n      jumpi\n      dup3\n      swap1\n      sub\n      0x1f\n      and\n      dup3\n      add\n      swap2\n    tag_116:\n      pop\n      pop\n      pop\n      pop\n      pop\n      swap1\n      pop\n      swap4\n      pop\n      swap4\n      pop\n      swap4\n      pop\n      swap4\n      pop\n        /* \"contracts/RentContract.sol\":8417:8771  function getComplains(uint _contractID) public view returns (uint ID, address user, address target, string memory reason) {... */\n      swap2\n      swap4\n      pop\n      swap2\n      swap4\n      jump\t// out\n        /* \"contracts/RentContract.sol\":237:278  mapping(address => bool) public blackList */\n    tag_38:\n      mstore(0x20, 0x01)\n      dup1\n      0x00\n      mstore\n      keccak256(0x00, 0x40)\n      0x00\n      swap2\n      pop\n      sload\n      swap1\n      0x0100\n      exp\n      swap1\n      div\n      0xff\n      and\n      dup2\n      jump\t// out\n        /* \"contracts/RentContract.sol\":104:132  address public ContractAdmin */\n    tag_42:\n      0x00\n      dup1\n      sload\n      swap1\n      0x0100\n      exp\n      swap1\n      div\n      0xffffffffffffffffffffffffffffffffffffffff\n      and\n      dup2\n      jump\t// out\n        /* \"contracts/RentContract.sol\":6454:6938  function contractTerminateManage(uint _contractID, bool _approve) public {... */\n    tag_48:\n        /* \"contracts/RentContract.sol\":6597:6601  true */\n      0x01\n        /* \"contracts/RentContract.sol\":6545:6601  contractInformations[_contractID].validityStatus == true */\n      iszero\n      iszero\n        /* \"contracts/RentContract.sol\":6545:6565  contractInformations */\n      0x04\n        /* \"contracts/RentContract.sol\":6545:6578  contractInformations[_contractID] */\n      0x00\n        /* \"contracts/RentContract.sol\":6566:6577  _contractID */\n      dup5\n        /* \"contracts/RentContract.sol\":6545:6578  contractInformations[_contractID] */\n      dup2\n      mstore\n      0x20\n      add\n      swap1\n      dup2\n      mstore\n      0x20\n      add\n      0x00\n      keccak256\n        /* \"contracts/RentContract.sol\":6545:6593  contractInformations[_contractID].validityStatus */\n      0x06\n      add\n      0x00\n      swap1\n      sload\n      swap1\n      0x0100\n      exp\n      swap1\n      div\n      0xff\n      and\n        /* \"contracts/RentContract.sol\":6545:6601  contractInformations[_contractID].validityStatus == true */\n      iszero\n      iszero\n      eq\n        /* \"contracts/RentContract.sol\":6537:6627  require(contractInformations[_contractID].validityStatus == true, \"Contract is not valid\") */\n      tag_120\n      jumpi\n      mload(0x40)\n      0x08c379a000000000000000000000000000000000000000000000000000000000\n      dup2\n      mstore\n      0x04\n      add\n      tag_121\n      swap1\n      tag_122\n      jump\t// in\n    tag_121:\n      mload(0x40)\n      dup1\n      swap2\n      sub\n      swap1\n      revert\n    tag_120:\n        /* \"contracts/RentContract.sol\":6698:6708  msg.sender */\n      caller\n        /* \"contracts/RentContract.sol\":6645:6708  contractTerminateReasons[_contractID].willApprove == msg.sender */\n      0xffffffffffffffffffffffffffffffffffffffff\n      and\n        /* \"contracts/RentContract.sol\":6645:6669  contractTerminateReasons */\n      0x06\n        /* \"contracts/RentContract.sol\":6645:6682  contractTerminateReasons[_contractID] */\n      0x00\n        /* \"contracts/RentContract.sol\":6670:6681  _contractID */\n      dup5\n        /* \"contracts/RentContract.sol\":6645:6682  contractTerminateReasons[_contractID] */\n      dup2\n      mstore\n      0x20\n      add\n      swap1\n      dup2\n      mstore\n      0x20\n      add\n      0x00\n      keccak256\n        /* \"contracts/RentContract.sol\":6645:6694  contractTerminateReasons[_contractID].willApprove */\n      0x03\n      add\n      0x00\n      swap1\n      sload\n      swap1\n      0x0100\n      exp\n      swap1\n      div\n      0xffffffffffffffffffffffffffffffffffffffff\n      and\n        /* \"contracts/RentContract.sol\":6645:6708  contractTerminateReasons[_contractID].willApprove == msg.sender */\n      0xffffffffffffffffffffffffffffffffffffffff\n      and\n      eq\n        /* \"contracts/RentContract.sol\":6637:6732  require(contractTerminateReasons[_contractID].willApprove == msg.sender, \"User not authorized\") */\n      tag_123\n      jumpi\n      mload(0x40)\n      0x08c379a000000000000000000000000000000000000000000000000000000000\n      dup2\n      mstore\n      0x04\n      add\n      tag_124\n      swap1\n      tag_125\n      jump\t// in\n    tag_124:\n      mload(0x40)\n      dup1\n      swap2\n      sub\n      swap1\n      revert\n    tag_123:\n        /* \"contracts/RentContract.sol\":6758:6762  true */\n      0x01\n        /* \"contracts/RentContract.sol\":6746:6762  _approve == true */\n      iszero\n      iszero\n        /* \"contracts/RentContract.sol\":6746:6754  _approve */\n      dup2\n        /* \"contracts/RentContract.sol\":6746:6762  _approve == true */\n      iszero\n      iszero\n      sub\n        /* \"contracts/RentContract.sol\":6743:6930  if(_approve == true)... */\n      tag_126\n      jumpi\n        /* \"contracts/RentContract.sol\":6841:6845  true */\n      0x01\n        /* \"contracts/RentContract.sol\":6790:6810  contractInformations */\n      0x04\n        /* \"contracts/RentContract.sol\":6790:6823  contractInformations[_contractID] */\n      0x00\n        /* \"contracts/RentContract.sol\":6811:6822  _contractID */\n      dup5\n        /* \"contracts/RentContract.sol\":6790:6823  contractInformations[_contractID] */\n      dup2\n      mstore\n      0x20\n      add\n      swap1\n      dup2\n      mstore\n      0x20\n      add\n      0x00\n      keccak256\n        /* \"contracts/RentContract.sol\":6790:6838  contractInformations[_contractID].earlyTerminate */\n      0x06\n      add\n      0x01\n        /* \"contracts/RentContract.sol\":6790:6845  contractInformations[_contractID].earlyTerminate = true */\n      0x0100\n      exp\n      dup2\n      sload\n      dup2\n      0xff\n      mul\n      not\n      and\n      swap1\n      dup4\n      iszero\n      iszero\n      mul\n      or\n      swap1\n      sstore\n      pop\n        /* \"contracts/RentContract.sol\":6914:6919  false */\n      0x00\n        /* \"contracts/RentContract.sol\":6863:6883  contractInformations */\n      0x04\n        /* \"contracts/RentContract.sol\":6863:6896  contractInformations[_contractID] */\n      0x00\n        /* \"contracts/RentContract.sol\":6884:6895  _contractID */\n      dup5\n        /* \"contracts/RentContract.sol\":6863:6896  contractInformations[_contractID] */\n      dup2\n      mstore\n      0x20\n      add\n      swap1\n      dup2\n      mstore\n      0x20\n      add\n      0x00\n      keccak256\n        /* \"contracts/RentContract.sol\":6863:6911  contractInformations[_contractID].validityStatus */\n      0x06\n      add\n      0x00\n        /* \"contracts/RentContract.sol\":6863:6919  contractInformations[_contractID].validityStatus = false */\n      0x0100\n      exp\n      dup2\n      sload\n      dup2\n      0xff\n      mul\n      not\n      and\n      swap1\n      dup4\n      iszero\n      iszero\n      mul\n      or\n      swap1\n      sstore\n      pop\n        /* \"contracts/RentContract.sol\":6743:6930  if(_approve == true)... */\n    tag_126:\n        /* \"contracts/RentContract.sol\":6454:6938  function contractTerminateManage(uint _contractID, bool _approve) public {... */\n      pop\n      pop\n      jump\t// out\n        /* \"contracts/RentContract.sol\":8287:8411  function getBlackListStatus(address _userAddress) public view returns (bool) {... */\n    tag_51:\n        /* \"contracts/RentContract.sol\":8358:8362  bool */\n      0x00\n        /* \"contracts/RentContract.sol\":8381:8390  blackList */\n      0x01\n        /* \"contracts/RentContract.sol\":8381:8404  blackList[_userAddress] */\n      0x00\n        /* \"contracts/RentContract.sol\":8391:8403  _userAddress */\n      dup4\n        /* \"contracts/RentContract.sol\":8381:8404  blackList[_userAddress] */\n      0xffffffffffffffffffffffffffffffffffffffff\n      and\n      0xffffffffffffffffffffffffffffffffffffffff\n      and\n      dup2\n      mstore\n      0x20\n      add\n      swap1\n      dup2\n      mstore\n      0x20\n      add\n      0x00\n      keccak256\n      0x00\n      swap1\n      sload\n      swap1\n      0x0100\n      exp\n      swap1\n      div\n      0xff\n      and\n        /* \"contracts/RentContract.sol\":8374:8404  return blackList[_userAddress] */\n      swap1\n      pop\n        /* \"contracts/RentContract.sol\":8287:8411  function getBlackListStatus(address _userAddress) public view returns (bool) {... */\n      swap2\n      swap1\n      pop\n      jump\t// out\n        /* \"contracts/RentContract.sol\":1431:1495  mapping(uint => ContractComplain) public contractComplainReasons */\n    tag_55:\n      mstore(0x20, 0x05)\n      dup1\n      0x00\n      mstore\n      keccak256(0x00, 0x40)\n      0x00\n      swap2\n      pop\n      swap1\n      pop\n      dup1\n      0x00\n      add\n      sload\n      swap1\n      dup1\n      0x01\n      add\n      0x00\n      swap1\n      sload\n      swap1\n      0x0100\n      exp\n      swap1\n      div\n      0xffffffffffffffffffffffffffffffffffffffff\n      and\n      swap1\n      dup1\n      0x02\n      add\n      0x00\n      swap1\n      sload\n      swap1\n      0x0100\n      exp\n      swap1\n      div\n      0xffffffffffffffffffffffffffffffffffffffff\n      and\n      swap1\n      dup1\n      0x03\n      add\n      dup1\n      sload\n      tag_128\n      swap1\n      tag_108\n      jump\t// in\n    tag_128:\n      dup1\n      0x1f\n      add\n      0x20\n      dup1\n      swap2\n      div\n      mul\n      0x20\n      add\n      mload(0x40)\n      swap1\n      dup2\n      add\n      0x40\n      mstore\n      dup1\n      swap3\n      swap2\n      swap1\n      dup2\n      dup2\n      mstore\n      0x20\n      add\n      dup3\n      dup1\n      sload\n      tag_129\n      swap1\n      tag_108\n      jump\t// in\n    tag_129:\n      dup1\n      iszero\n      tag_130\n      jumpi\n      dup1\n      0x1f\n      lt\n      tag_131\n      jumpi\n      0x0100\n      dup1\n      dup4\n      sload\n      div\n      mul\n      dup4\n      mstore\n      swap2\n      0x20\n      add\n      swap2\n      jump(tag_130)\n    tag_131:\n      dup3\n      add\n      swap2\n      swap1\n      0x00\n      mstore\n      keccak256(0x00, 0x20)\n      swap1\n    tag_132:\n      dup2\n      sload\n      dup2\n      mstore\n      swap1\n      0x01\n      add\n      swap1\n      0x20\n      add\n      dup1\n      dup4\n      gt\n      tag_132\n      jumpi\n      dup3\n      swap1\n      sub\n      0x1f\n      and\n      dup3\n      add\n      swap2\n    tag_130:\n      pop\n      pop\n      pop\n      pop\n      pop\n      swap1\n      dup1\n      0x04\n      add\n      0x00\n      swap1\n      sload\n      swap1\n      0x0100\n      exp\n      swap1\n      div\n      0xffffffffffffffffffffffffffffffffffffffff\n      and\n      swap1\n      pop\n      dup6\n      jump\t// out\n        /* \"contracts/RentContract.sol\":1636:1955  function createUser(string memory _name, bool _isOwner) public {... */\n    tag_61:\n        /* \"contracts/RentContract.sol\":1840:1841  0 */\n      0x00\n        /* \"contracts/RentContract.sol\":1788:1842  userInformations[msg.sender].UserAddress == address(0) */\n      0xffffffffffffffffffffffffffffffffffffffff\n      and\n        /* \"contracts/RentContract.sol\":1788:1804  userInformations */\n      0x02\n        /* \"contracts/RentContract.sol\":1788:1816  userInformations[msg.sender] */\n      0x00\n        /* \"contracts/RentContract.sol\":1805:1815  msg.sender */\n      caller\n        /* \"contracts/RentContract.sol\":1788:1816  userInformations[msg.sender] */\n      0xffffffffffffffffffffffffffffffffffffffff\n      and\n      0xffffffffffffffffffffffffffffffffffffffff\n      and\n      dup2\n      mstore\n      0x20\n      add\n      swap1\n      dup2\n      mstore\n      0x20\n      add\n      0x00\n      keccak256\n        /* \"contracts/RentContract.sol\":1788:1828  userInformations[msg.sender].UserAddress */\n      0x01\n      add\n      0x00\n      swap1\n      sload\n      swap1\n      0x0100\n      exp\n      swap1\n      div\n      0xffffffffffffffffffffffffffffffffffffffff\n      and\n        /* \"contracts/RentContract.sol\":1788:1842  userInformations[msg.sender].UserAddress == address(0) */\n      0xffffffffffffffffffffffffffffffffffffffff\n      and\n      eq\n        /* \"contracts/RentContract.sol\":1780:1873  require(userInformations[msg.sender].UserAddress == address(0), \"User is already registered\") */\n      tag_134\n      jumpi\n      mload(0x40)\n      0x08c379a000000000000000000000000000000000000000000000000000000000\n      dup2\n      mstore\n      0x04\n      add\n      tag_135\n      swap1\n      tag_136\n      jump\t// in\n    tag_135:\n      mload(0x40)\n      dup1\n      swap2\n      sub\n      swap1\n      revert\n    tag_134:\n        /* \"contracts/RentContract.sol\":1915:1948  User(_name, msg.sender, _isOwner) */\n      mload(0x40)\n      dup1\n      0x60\n      add\n      0x40\n      mstore\n      dup1\n        /* \"contracts/RentContract.sol\":1920:1925  _name */\n      dup4\n        /* \"contracts/RentContract.sol\":1915:1948  User(_name, msg.sender, _isOwner) */\n      dup2\n      mstore\n      0x20\n      add\n        /* \"contracts/RentContract.sol\":1927:1937  msg.sender */\n      caller\n        /* \"contracts/RentContract.sol\":1915:1948  User(_name, msg.sender, _isOwner) */\n      0xffffffffffffffffffffffffffffffffffffffff\n      and\n      dup2\n      mstore\n      0x20\n      add\n        /* \"contracts/RentContract.sol\":1939:1947  _isOwner */\n      dup3\n        /* \"contracts/RentContract.sol\":1915:1948  User(_name, msg.sender, _isOwner) */\n      iszero\n      iszero\n      dup2\n      mstore\n      pop\n        /* \"contracts/RentContract.sol\":1884:1900  userInformations */\n      0x02\n        /* \"contracts/RentContract.sol\":1884:1912  userInformations[msg.sender] */\n      0x00\n        /* \"contracts/RentContract.sol\":1901:1911  msg.sender */\n      caller\n        /* \"contracts/RentContract.sol\":1884:1912  userInformations[msg.sender] */\n      0xffffffffffffffffffffffffffffffffffffffff\n      and\n      0xffffffffffffffffffffffffffffffffffffffff\n      and\n      dup2\n      mstore\n      0x20\n      add\n      swap1\n      dup2\n      mstore\n      0x20\n      add\n      0x00\n      keccak256\n        /* \"contracts/RentContract.sol\":1884:1948  userInformations[msg.sender] = User(_name, msg.sender, _isOwner) */\n      0x00\n      dup3\n      add\n      mload\n      dup2\n      0x00\n      add\n      swap1\n      dup2\n      tag_137\n      swap2\n      swap1\n      tag_138\n      jump\t// in\n    tag_137:\n      pop\n      0x20\n      dup3\n      add\n      mload\n      dup2\n      0x01\n      add\n      exp(0x0100, 0x00)\n      dup2\n      sload\n      dup2\n      0xffffffffffffffffffffffffffffffffffffffff\n      mul\n      not\n      and\n      swap1\n      dup4\n      0xffffffffffffffffffffffffffffffffffffffff\n      and\n      mul\n      or\n      swap1\n      sstore\n      pop\n      0x40\n      dup3\n      add\n      mload\n      dup2\n      0x01\n      add\n      exp(0x0100, 0x14)\n      dup2\n      sload\n      dup2\n      0xff\n      mul\n      not\n      and\n      swap1\n      dup4\n      iszero\n      iszero\n      mul\n      or\n      swap1\n      sstore\n      pop\n      swap1\n      pop\n      pop\n        /* \"contracts/RentContract.sol\":1636:1955  function createUser(string memory _name, bool _isOwner) public {... */\n      pop\n      pop\n      jump\t// out\n        /* \"contracts/RentContract.sol\":1307:1362  mapping(string => Property) public propertyInformations */\n    tag_65:\n      0x03\n      dup2\n      dup1\n      mload\n      0x20\n      dup2\n      add\n      dup3\n      add\n      dup1\n      mload\n      dup5\n      dup3\n      mstore\n      0x20\n      dup4\n      add\n      0x20\n      dup6\n      add\n      keccak256\n      dup2\n      dup4\n      mstore\n      dup1\n      swap6\n      pop\n      pop\n      pop\n      pop\n      pop\n      pop\n      0x00\n      swap2\n      pop\n      swap1\n      pop\n      dup1\n      0x00\n      add\n      0x00\n      swap1\n      sload\n      swap1\n      0x0100\n      exp\n      swap1\n      div\n      0xffffffffffffffffffffffffffffffffffffffff\n      and\n      swap1\n      dup1\n      0x01\n      add\n      dup1\n      sload\n      tag_139\n      swap1\n      tag_108\n      jump\t// in\n    tag_139:\n      dup1\n      0x1f\n      add\n      0x20\n      dup1\n      swap2\n      div\n      mul\n      0x20\n      add\n      mload(0x40)\n      swap1\n      dup2\n      add\n      0x40\n      mstore\n      dup1\n      swap3\n      swap2\n      swap1\n      dup2\n      dup2\n      mstore\n      0x20\n      add\n      dup3\n      dup1\n      sload\n      tag_140\n      swap1\n      tag_108\n      jump\t// in\n    tag_140:\n      dup1\n      iszero\n      tag_141\n      jumpi\n      dup1\n      0x1f\n      lt\n      tag_142\n      jumpi\n      0x0100\n      dup1\n      dup4\n      sload\n      div\n      mul\n      dup4\n      mstore\n      swap2\n      0x20\n      add\n      swap2\n      jump(tag_141)\n    tag_142:\n      dup3\n      add\n      swap2\n      swap1\n      0x00\n      mstore\n      keccak256(0x00, 0x20)\n      swap1\n    tag_143:\n      dup2\n      sload\n      dup2\n      mstore\n      swap1\n      0x01\n      add\n      swap1\n      0x20\n      add\n      dup1\n      dup4\n      gt\n      tag_143\n      jumpi\n      dup3\n      swap1\n      sub\n      0x1f\n      and\n      dup3\n      add\n      swap2\n    tag_141:\n      pop\n      pop\n      pop\n      pop\n      pop\n      swap1\n      dup1\n      0x02\n      add\n      dup1\n      sload\n      tag_144\n      swap1\n      tag_108\n      jump\t// in\n    tag_144:\n      dup1\n      0x1f\n      add\n      0x20\n      dup1\n      swap2\n      div\n      mul\n      0x20\n      add\n      mload(0x40)\n      swap1\n      dup2\n      add\n      0x40\n      mstore\n      dup1\n      swap3\n      swap2\n      swap1\n      dup2\n      dup2\n      mstore\n      0x20\n      add\n      dup3\n      dup1\n      sload\n      tag_145\n      swap1\n      tag_108\n      jump\t// in\n    tag_145:\n      dup1\n      iszero\n      tag_146\n      jumpi\n      dup1\n      0x1f\n      lt\n      tag_147\n      jumpi\n      0x0100\n      dup1\n      dup4\n      sload\n      div\n      mul\n      dup4\n      mstore\n      swap2\n      0x20\n      add\n      swap2\n      jump(tag_146)\n    tag_147:\n      dup3\n      add\n      swap2\n      swap1\n      0x00\n      mstore\n      keccak256(0x00, 0x20)\n      swap1\n    tag_148:\n      dup2\n      sload\n      dup2\n      mstore\n      swap1\n      0x01\n      add\n      swap1\n      0x20\n      add\n      dup1\n      dup4\n      gt\n      tag_148\n      jumpi\n      dup3\n      swap1\n      sub\n      0x1f\n      and\n      dup3\n      add\n      swap2\n    tag_146:\n      pop\n      pop\n      pop\n      pop\n      pop\n      swap1\n      dup1\n      0x03\n      add\n      0x00\n      swap1\n      sload\n      swap1\n      0x0100\n      exp\n      swap1\n      div\n      0xff\n      and\n      swap1\n      dup1\n      0x04\n      add\n      sload\n      swap1\n      pop\n      dup6\n      jump\t// out\n        /* \"contracts/RentContract.sol\":7868:8281  function complainUserManage(uint _contractID, bool _approve) public {... */\n    tag_70:\n        /* \"contracts/RentContract.sol\":8006:8010  true */\n      0x01\n        /* \"contracts/RentContract.sol\":7954:8010  contractInformations[_contractID].validityStatus == true */\n      iszero\n      iszero\n        /* \"contracts/RentContract.sol\":7954:7974  contractInformations */\n      0x04\n        /* \"contracts/RentContract.sol\":7954:7987  contractInformations[_contractID] */\n      0x00\n        /* \"contracts/RentContract.sol\":7975:7986  _contractID */\n      dup5\n        /* \"contracts/RentContract.sol\":7954:7987  contractInformations[_contractID] */\n      dup2\n      mstore\n      0x20\n      add\n      swap1\n      dup2\n      mstore\n      0x20\n      add\n      0x00\n      keccak256\n        /* \"contracts/RentContract.sol\":7954:8002  contractInformations[_contractID].validityStatus */\n      0x06\n      add\n      0x00\n      swap1\n      sload\n      swap1\n      0x0100\n      exp\n      swap1\n      div\n      0xff\n      and\n        /* \"contracts/RentContract.sol\":7954:8010  contractInformations[_contractID].validityStatus == true */\n      iszero\n      iszero\n      eq\n        /* \"contracts/RentContract.sol\":7946:8036  require(contractInformations[_contractID].validityStatus == true, \"Contract is not valid\") */\n      tag_150\n      jumpi\n      mload(0x40)\n      0x08c379a000000000000000000000000000000000000000000000000000000000\n      dup2\n      mstore\n      0x04\n      add\n      tag_151\n      swap1\n      tag_122\n      jump\t// in\n    tag_151:\n      mload(0x40)\n      dup1\n      swap2\n      sub\n      swap1\n      revert\n    tag_150:\n        /* \"contracts/RentContract.sol\":8106:8116  msg.sender */\n      caller\n        /* \"contracts/RentContract.sol\":8054:8116  contractComplainReasons[_contractID].willApprove == msg.sender */\n      0xffffffffffffffffffffffffffffffffffffffff\n      and\n        /* \"contracts/RentContract.sol\":8054:8077  contractComplainReasons */\n      0x05\n        /* \"contracts/RentContract.sol\":8054:8090  contractComplainReasons[_contractID] */\n      0x00\n        /* \"contracts/RentContract.sol\":8078:8089  _contractID */\n      dup5\n        /* \"contracts/RentContract.sol\":8054:8090  contractComplainReasons[_contractID] */\n      dup2\n      mstore\n      0x20\n      add\n      swap1\n      dup2\n      mstore\n      0x20\n      add\n      0x00\n      keccak256\n        /* \"contracts/RentContract.sol\":8054:8102  contractComplainReasons[_contractID].willApprove */\n      0x04\n      add\n      0x00\n      swap1\n      sload\n      swap1\n      0x0100\n      exp\n      swap1\n      div\n      0xffffffffffffffffffffffffffffffffffffffff\n      and\n        /* \"contracts/RentContract.sol\":8054:8116  contractComplainReasons[_contractID].willApprove == msg.sender */\n      0xffffffffffffffffffffffffffffffffffffffff\n      and\n      eq\n        /* \"contracts/RentContract.sol\":8046:8140  require(contractComplainReasons[_contractID].willApprove == msg.sender, \"User not authorized\") */\n      tag_152\n      jumpi\n      mload(0x40)\n      0x08c379a000000000000000000000000000000000000000000000000000000000\n      dup2\n      mstore\n      0x04\n      add\n      tag_153\n      swap1\n      tag_125\n      jump\t// in\n    tag_153:\n      mload(0x40)\n      dup1\n      swap2\n      sub\n      swap1\n      revert\n    tag_152:\n        /* \"contracts/RentContract.sol\":8166:8170  true */\n      0x01\n        /* \"contracts/RentContract.sol\":8154:8170  _approve == true */\n      iszero\n      iszero\n        /* \"contracts/RentContract.sol\":8154:8162  _approve */\n      dup2\n        /* \"contracts/RentContract.sol\":8154:8170  _approve == true */\n      iszero\n      iszero\n      sub\n        /* \"contracts/RentContract.sol\":8151:8273  if(_approve == true)... */\n      tag_154\n      jumpi\n        /* \"contracts/RentContract.sol\":8258:8262  true */\n      0x01\n        /* \"contracts/RentContract.sol\":8194:8203  blackList */\n      dup1\n        /* \"contracts/RentContract.sol\":8194:8255  blackList[contractComplainReasons[_contractID].targetAddress] */\n      0x00\n        /* \"contracts/RentContract.sol\":8204:8227  contractComplainReasons */\n      0x05\n        /* \"contracts/RentContract.sol\":8204:8240  contractComplainReasons[_contractID] */\n      0x00\n        /* \"contracts/RentContract.sol\":8228:8239  _contractID */\n      dup7\n        /* \"contracts/RentContract.sol\":8204:8240  contractComplainReasons[_contractID] */\n      dup2\n      mstore\n      0x20\n      add\n      swap1\n      dup2\n      mstore\n      0x20\n      add\n      0x00\n      keccak256\n        /* \"contracts/RentContract.sol\":8204:8254  contractComplainReasons[_contractID].targetAddress */\n      0x02\n      add\n      0x00\n      swap1\n      sload\n      swap1\n      0x0100\n      exp\n      swap1\n      div\n      0xffffffffffffffffffffffffffffffffffffffff\n      and\n        /* \"contracts/RentContract.sol\":8194:8255  blackList[contractComplainReasons[_contractID].targetAddress] */\n      0xffffffffffffffffffffffffffffffffffffffff\n      and\n      0xffffffffffffffffffffffffffffffffffffffff\n      and\n      dup2\n      mstore\n      0x20\n      add\n      swap1\n      dup2\n      mstore\n      0x20\n      add\n      0x00\n      keccak256\n      0x00\n        /* \"contracts/RentContract.sol\":8194:8262  blackList[contractComplainReasons[_contractID].targetAddress] = true */\n      0x0100\n      exp\n      dup2\n      sload\n      dup2\n      0xff\n      mul\n      not\n      and\n      swap1\n      dup4\n      iszero\n      iszero\n      mul\n      or\n      swap1\n      sstore\n      pop\n        /* \"contracts/RentContract.sol\":8151:8273  if(_approve == true)... */\n    tag_154:\n        /* \"contracts/RentContract.sol\":7868:8281  function complainUserManage(uint _contractID, bool _approve) public {... */\n      pop\n      pop\n      jump\t// out\n        /* \"contracts/RentContract.sol\":6944:7862  function complainUser(uint _contractID, string memory _complainReason) public {... */\n    tag_74:\n        /* \"contracts/RentContract.sol\":7091:7101  msg.sender */\n      caller\n        /* \"contracts/RentContract.sol\":7040:7101  contractInformations[_contractID].tenantAddress == msg.sender */\n      0xffffffffffffffffffffffffffffffffffffffff\n      and\n        /* \"contracts/RentContract.sol\":7040:7060  contractInformations */\n      0x04\n        /* \"contracts/RentContract.sol\":7040:7073  contractInformations[_contractID] */\n      0x00\n        /* \"contracts/RentContract.sol\":7061:7072  _contractID */\n      dup5\n        /* \"contracts/RentContract.sol\":7040:7073  contractInformations[_contractID] */\n      dup2\n      mstore\n      0x20\n      add\n      swap1\n      dup2\n      mstore\n      0x20\n      add\n      0x00\n      keccak256\n        /* \"contracts/RentContract.sol\":7040:7087  contractInformations[_contractID].tenantAddress */\n      0x01\n      add\n      0x00\n      swap1\n      sload\n      swap1\n      0x0100\n      exp\n      swap1\n      div\n      0xffffffffffffffffffffffffffffffffffffffff\n      and\n        /* \"contracts/RentContract.sol\":7040:7101  contractInformations[_contractID].tenantAddress == msg.sender */\n      0xffffffffffffffffffffffffffffffffffffffff\n      and\n      eq\n        /* \"contracts/RentContract.sol\":7040:7165  contractInformations[_contractID].tenantAddress == msg.sender || contractInformations[_contractID].ownerAddress == msg.sender */\n      dup1\n      tag_156\n      jumpi\n      pop\n        /* \"contracts/RentContract.sol\":7155:7165  msg.sender */\n      caller\n        /* \"contracts/RentContract.sol\":7105:7165  contractInformations[_contractID].ownerAddress == msg.sender */\n      0xffffffffffffffffffffffffffffffffffffffff\n      and\n        /* \"contracts/RentContract.sol\":7105:7125  contractInformations */\n      0x04\n        /* \"contracts/RentContract.sol\":7105:7138  contractInformations[_contractID] */\n      0x00\n        /* \"contracts/RentContract.sol\":7126:7137  _contractID */\n      dup5\n        /* \"contracts/RentContract.sol\":7105:7138  contractInformations[_contractID] */\n      dup2\n      mstore\n      0x20\n      add\n      swap1\n      dup2\n      mstore\n      0x20\n      add\n      0x00\n      keccak256\n        /* \"contracts/RentContract.sol\":7105:7151  contractInformations[_contractID].ownerAddress */\n      0x00\n      add\n      0x00\n      swap1\n      sload\n      swap1\n      0x0100\n      exp\n      swap1\n      div\n      0xffffffffffffffffffffffffffffffffffffffff\n      and\n        /* \"contracts/RentContract.sol\":7105:7165  contractInformations[_contractID].ownerAddress == msg.sender */\n      0xffffffffffffffffffffffffffffffffffffffff\n      and\n      eq\n        /* \"contracts/RentContract.sol\":7040:7165  contractInformations[_contractID].tenantAddress == msg.sender || contractInformations[_contractID].ownerAddress == msg.sender */\n    tag_156:\n        /* \"contracts/RentContract.sol\":7032:7224  require(contractInformations[_contractID].tenantAddress == msg.sender || contractInformations[_contractID].ownerAddress == msg.sender, \"Only the tenant or property owner can file a complaint\") */\n      tag_157\n      jumpi\n      mload(0x40)\n      0x08c379a000000000000000000000000000000000000000000000000000000000\n      dup2\n      mstore\n      0x04\n      add\n      tag_158\n      swap1\n      tag_159\n      jump\t// in\n    tag_158:\n      mload(0x40)\n      dup1\n      swap2\n      sub\n      swap1\n      revert\n    tag_157:\n        /* \"contracts/RentContract.sol\":7289:7299  msg.sender */\n      caller\n        /* \"contracts/RentContract.sol\":7238:7299  contractInformations[_contractID].tenantAddress == msg.sender */\n      0xffffffffffffffffffffffffffffffffffffffff\n      and\n        /* \"contracts/RentContract.sol\":7238:7258  contractInformations */\n      0x04\n        /* \"contracts/RentContract.sol\":7238:7271  contractInformations[_contractID] */\n      0x00\n        /* \"contracts/RentContract.sol\":7259:7270  _contractID */\n      dup5\n        /* \"contracts/RentContract.sol\":7238:7271  contractInformations[_contractID] */\n      dup2\n      mstore\n      0x20\n      add\n      swap1\n      dup2\n      mstore\n      0x20\n      add\n      0x00\n      keccak256\n        /* \"contracts/RentContract.sol\":7238:7285  contractInformations[_contractID].tenantAddress */\n      0x01\n      add\n      0x00\n      swap1\n      sload\n      swap1\n      0x0100\n      exp\n      swap1\n      div\n      0xffffffffffffffffffffffffffffffffffffffff\n      and\n        /* \"contracts/RentContract.sol\":7238:7299  contractInformations[_contractID].tenantAddress == msg.sender */\n      0xffffffffffffffffffffffffffffffffffffffff\n      and\n      sub\n        /* \"contracts/RentContract.sol\":7234:7536  if (contractInformations[_contractID].tenantAddress == msg.sender)... */\n      tag_160\n      jumpi\n        /* \"contracts/RentContract.sol\":7364:7524  ContractComplain(_contractID, contractInformations[_contractID].tenantAddress, contractInformations[_contractID].ownerAddress , _complainReason,  ContractAdmin) */\n      mload(0x40)\n      dup1\n      0xa0\n      add\n      0x40\n      mstore\n      dup1\n        /* \"contracts/RentContract.sol\":7381:7392  _contractID */\n      dup4\n        /* \"contracts/RentContract.sol\":7364:7524  ContractComplain(_contractID, contractInformations[_contractID].tenantAddress, contractInformations[_contractID].ownerAddress , _complainReason,  ContractAdmin) */\n      dup2\n      mstore\n      0x20\n      add\n        /* \"contracts/RentContract.sol\":7394:7414  contractInformations */\n      0x04\n        /* \"contracts/RentContract.sol\":7394:7427  contractInformations[_contractID] */\n      0x00\n        /* \"contracts/RentContract.sol\":7415:7426  _contractID */\n      dup6\n        /* \"contracts/RentContract.sol\":7394:7427  contractInformations[_contractID] */\n      dup2\n      mstore\n      0x20\n      add\n      swap1\n      dup2\n      mstore\n      0x20\n      add\n      0x00\n      keccak256\n        /* \"contracts/RentContract.sol\":7394:7441  contractInformations[_contractID].tenantAddress */\n      0x01\n      add\n      0x00\n      swap1\n      sload\n      swap1\n      0x0100\n      exp\n      swap1\n      div\n      0xffffffffffffffffffffffffffffffffffffffff\n      and\n        /* \"contracts/RentContract.sol\":7364:7524  ContractComplain(_contractID, contractInformations[_contractID].tenantAddress, contractInformations[_contractID].ownerAddress , _complainReason,  ContractAdmin) */\n      0xffffffffffffffffffffffffffffffffffffffff\n      and\n      dup2\n      mstore\n      0x20\n      add\n        /* \"contracts/RentContract.sol\":7443:7463  contractInformations */\n      0x04\n        /* \"contracts/RentContract.sol\":7443:7476  contractInformations[_contractID] */\n      0x00\n        /* \"contracts/RentContract.sol\":7464:7475  _contractID */\n      dup6\n        /* \"contracts/RentContract.sol\":7443:7476  contractInformations[_contractID] */\n      dup2\n      mstore\n      0x20\n      add\n      swap1\n      dup2\n      mstore\n      0x20\n      add\n      0x00\n      keccak256\n        /* \"contracts/RentContract.sol\":7443:7489  contractInformations[_contractID].ownerAddress */\n      0x00\n      add\n      0x00\n      swap1\n      sload\n      swap1\n      0x0100\n      exp\n      swap1\n      div\n      0xffffffffffffffffffffffffffffffffffffffff\n      and\n        /* \"contracts/RentContract.sol\":7364:7524  ContractComplain(_contractID, contractInformations[_contractID].tenantAddress, contractInformations[_contractID].ownerAddress , _complainReason,  ContractAdmin) */\n      0xffffffffffffffffffffffffffffffffffffffff\n      and\n      dup2\n      mstore\n      0x20\n      add\n        /* \"contracts/RentContract.sol\":7492:7507  _complainReason */\n      dup3\n        /* \"contracts/RentContract.sol\":7364:7524  ContractComplain(_contractID, contractInformations[_contractID].tenantAddress, contractInformations[_contractID].ownerAddress , _complainReason,  ContractAdmin) */\n      dup2\n      mstore\n      0x20\n      add\n        /* \"contracts/RentContract.sol\":7510:7523  ContractAdmin */\n      0x00\n      dup1\n      sload\n      swap1\n      0x0100\n      exp\n      swap1\n      div\n      0xffffffffffffffffffffffffffffffffffffffff\n      and\n        /* \"contracts/RentContract.sol\":7364:7524  ContractComplain(_contractID, contractInformations[_contractID].tenantAddress, contractInformations[_contractID].ownerAddress , _complainReason,  ContractAdmin) */\n      0xffffffffffffffffffffffffffffffffffffffff\n      and\n      dup2\n      mstore\n      pop\n        /* \"contracts/RentContract.sol\":7325:7348  contractComplainReasons */\n      0x05\n        /* \"contracts/RentContract.sol\":7325:7361  contractComplainReasons[_contractID] */\n      0x00\n        /* \"contracts/RentContract.sol\":7349:7360  _contractID */\n      dup5\n        /* \"contracts/RentContract.sol\":7325:7361  contractComplainReasons[_contractID] */\n      dup2\n      mstore\n      0x20\n      add\n      swap1\n      dup2\n      mstore\n      0x20\n      add\n      0x00\n      keccak256\n        /* \"contracts/RentContract.sol\":7325:7524  contractComplainReasons[_contractID] = ContractComplain(_contractID, contractInformations[_contractID].tenantAddress, contractInformations[_contractID].ownerAddress , _complainReason,  ContractAdmin) */\n      0x00\n      dup3\n      add\n      mload\n      dup2\n      0x00\n      add\n      sstore\n      0x20\n      dup3\n      add\n      mload\n      dup2\n      0x01\n      add\n      exp(0x0100, 0x00)\n      dup2\n      sload\n      dup2\n      0xffffffffffffffffffffffffffffffffffffffff\n      mul\n      not\n      and\n      swap1\n      dup4\n      0xffffffffffffffffffffffffffffffffffffffff\n      and\n      mul\n      or\n      swap1\n      sstore\n      pop\n      0x40\n      dup3\n      add\n      mload\n      dup2\n      0x02\n      add\n      exp(0x0100, 0x00)\n      dup2\n      sload\n      dup2\n      0xffffffffffffffffffffffffffffffffffffffff\n      mul\n      not\n      and\n      swap1\n      dup4\n      0xffffffffffffffffffffffffffffffffffffffff\n      and\n      mul\n      or\n      swap1\n      sstore\n      pop\n      0x60\n      dup3\n      add\n      mload\n      dup2\n      0x03\n      add\n      swap1\n      dup2\n      tag_161\n      swap2\n      swap1\n      tag_138\n      jump\t// in\n    tag_161:\n      pop\n      0x80\n      dup3\n      add\n      mload\n      dup2\n      0x04\n      add\n      exp(0x0100, 0x00)\n      dup2\n      sload\n      dup2\n      0xffffffffffffffffffffffffffffffffffffffff\n      mul\n      not\n      and\n      swap1\n      dup4\n      0xffffffffffffffffffffffffffffffffffffffff\n      and\n      mul\n      or\n      swap1\n      sstore\n      pop\n      swap1\n      pop\n      pop\n        /* \"contracts/RentContract.sol\":7234:7536  if (contractInformations[_contractID].tenantAddress == msg.sender)... */\n    tag_160:\n        /* \"contracts/RentContract.sol\":7600:7610  msg.sender */\n      caller\n        /* \"contracts/RentContract.sol\":7550:7610  contractInformations[_contractID].ownerAddress == msg.sender */\n      0xffffffffffffffffffffffffffffffffffffffff\n      and\n        /* \"contracts/RentContract.sol\":7550:7570  contractInformations */\n      0x04\n        /* \"contracts/RentContract.sol\":7550:7583  contractInformations[_contractID] */\n      0x00\n        /* \"contracts/RentContract.sol\":7571:7582  _contractID */\n      dup5\n        /* \"contracts/RentContract.sol\":7550:7583  contractInformations[_contractID] */\n      dup2\n      mstore\n      0x20\n      add\n      swap1\n      dup2\n      mstore\n      0x20\n      add\n      0x00\n      keccak256\n        /* \"contracts/RentContract.sol\":7550:7596  contractInformations[_contractID].ownerAddress */\n      0x00\n      add\n      0x00\n      swap1\n      sload\n      swap1\n      0x0100\n      exp\n      swap1\n      div\n      0xffffffffffffffffffffffffffffffffffffffff\n      and\n        /* \"contracts/RentContract.sol\":7550:7610  contractInformations[_contractID].ownerAddress == msg.sender */\n      0xffffffffffffffffffffffffffffffffffffffff\n      and\n      sub\n        /* \"contracts/RentContract.sol\":7546:7847  if (contractInformations[_contractID].ownerAddress == msg.sender)... */\n      tag_162\n      jumpi\n        /* \"contracts/RentContract.sol\":7675:7835  ContractComplain(_contractID, contractInformations[_contractID].ownerAddress , contractInformations[_contractID].tenantAddress, _complainReason, ContractAdmin ) */\n      mload(0x40)\n      dup1\n      0xa0\n      add\n      0x40\n      mstore\n      dup1\n        /* \"contracts/RentContract.sol\":7692:7703  _contractID */\n      dup4\n        /* \"contracts/RentContract.sol\":7675:7835  ContractComplain(_contractID, contractInformations[_contractID].ownerAddress , contractInformations[_contractID].tenantAddress, _complainReason, ContractAdmin ) */\n      dup2\n      mstore\n      0x20\n      add\n        /* \"contracts/RentContract.sol\":7705:7725  contractInformations */\n      0x04\n        /* \"contracts/RentContract.sol\":7705:7738  contractInformations[_contractID] */\n      0x00\n        /* \"contracts/RentContract.sol\":7726:7737  _contractID */\n      dup6\n        /* \"contracts/RentContract.sol\":7705:7738  contractInformations[_contractID] */\n      dup2\n      mstore\n      0x20\n      add\n      swap1\n      dup2\n      mstore\n      0x20\n      add\n      0x00\n      keccak256\n        /* \"contracts/RentContract.sol\":7705:7751  contractInformations[_contractID].ownerAddress */\n      0x00\n      add\n      0x00\n      swap1\n      sload\n      swap1\n      0x0100\n      exp\n      swap1\n      div\n      0xffffffffffffffffffffffffffffffffffffffff\n      and\n        /* \"contracts/RentContract.sol\":7675:7835  ContractComplain(_contractID, contractInformations[_contractID].ownerAddress , contractInformations[_contractID].tenantAddress, _complainReason, ContractAdmin ) */\n      0xffffffffffffffffffffffffffffffffffffffff\n      and\n      dup2\n      mstore\n      0x20\n      add\n        /* \"contracts/RentContract.sol\":7754:7774  contractInformations */\n      0x04\n        /* \"contracts/RentContract.sol\":7754:7787  contractInformations[_contractID] */\n      0x00\n        /* \"contracts/RentContract.sol\":7775:7786  _contractID */\n      dup6\n        /* \"contracts/RentContract.sol\":7754:7787  contractInformations[_contractID] */\n      dup2\n      mstore\n      0x20\n      add\n      swap1\n      dup2\n      mstore\n      0x20\n      add\n      0x00\n      keccak256\n        /* \"contracts/RentContract.sol\":7754:7801  contractInformations[_contractID].tenantAddress */\n      0x01\n      add\n      0x00\n      swap1\n      sload\n      swap1\n      0x0100\n      exp\n      swap1\n      div\n      0xffffffffffffffffffffffffffffffffffffffff\n      and\n        /* \"contracts/RentContract.sol\":7675:7835  ContractComplain(_contractID, contractInformations[_contractID].ownerAddress , contractInformations[_contractID].tenantAddress, _complainReason, ContractAdmin ) */\n      0xffffffffffffffffffffffffffffffffffffffff\n      and\n      dup2\n      mstore\n      0x20\n      add\n        /* \"contracts/RentContract.sol\":7803:7818  _complainReason */\n      dup3\n        /* \"contracts/RentContract.sol\":7675:7835  ContractComplain(_contractID, contractInformations[_contractID].ownerAddress , contractInformations[_contractID].tenantAddress, _complainReason, ContractAdmin ) */\n      dup2\n      mstore\n      0x20\n      add\n        /* \"contracts/RentContract.sol\":7820:7833  ContractAdmin */\n      0x00\n      dup1\n      sload\n      swap1\n      0x0100\n      exp\n      swap1\n      div\n      0xffffffffffffffffffffffffffffffffffffffff\n      and\n        /* \"contracts/RentContract.sol\":7675:7835  ContractComplain(_contractID, contractInformations[_contractID].ownerAddress , contractInformations[_contractID].tenantAddress, _complainReason, ContractAdmin ) */\n      0xffffffffffffffffffffffffffffffffffffffff\n      and\n      dup2\n      mstore\n      pop\n        /* \"contracts/RentContract.sol\":7636:7659  contractComplainReasons */\n      0x05\n        /* \"contracts/RentContract.sol\":7636:7672  contractComplainReasons[_contractID] */\n      0x00\n        /* \"contracts/RentContract.sol\":7660:7671  _contractID */\n      dup5\n        /* \"contracts/RentContract.sol\":7636:7672  contractComplainReasons[_contractID] */\n      dup2\n      mstore\n      0x20\n      add\n      swap1\n      dup2\n      mstore\n      0x20\n      add\n      0x00\n      keccak256\n        /* \"contracts/RentContract.sol\":7636:7835  contractComplainReasons[_contractID] = ContractComplain(_contractID, contractInformations[_contractID].ownerAddress , contractInformations[_contractID].tenantAddress, _complainReason, ContractAdmin ) */\n      0x00\n      dup3\n      add\n      mload\n      dup2\n      0x00\n      add\n      sstore\n      0x20\n      dup3\n      add\n      mload\n      dup2\n      0x01\n      add\n      exp(0x0100, 0x00)\n      dup2\n      sload\n      dup2\n      0xffffffffffffffffffffffffffffffffffffffff\n      mul\n      not\n      and\n      swap1\n      dup4\n      0xffffffffffffffffffffffffffffffffffffffff\n      and\n      mul\n      or\n      swap1\n      sstore\n      pop\n      0x40\n      dup3\n      add\n      mload\n      dup2\n      0x02\n      add\n      exp(0x0100, 0x00)\n      dup2\n      sload\n      dup2\n      0xffffffffffffffffffffffffffffffffffffffff\n      mul\n      not\n      and\n      swap1\n      dup4\n      0xffffffffffffffffffffffffffffffffffffffff\n      and\n      mul\n      or\n      swap1\n      sstore\n      pop\n      0x60\n      dup3\n      add\n      mload\n      dup2\n      0x03\n      add\n      swap1\n      dup2\n      tag_163\n      swap2\n      swap1\n      tag_138\n      jump\t// in\n    tag_163:\n      pop\n      0x80\n      dup3\n      add\n      mload\n      dup2\n      0x04\n      add\n      exp(0x0100, 0x00)\n      dup2\n      sload\n      dup2\n      0xffffffffffffffffffffffffffffffffffffffff\n      mul\n      not\n      and\n      swap1\n      dup4\n      0xffffffffffffffffffffffffffffffffffffffff\n      and\n      mul\n      or\n      swap1\n      sstore\n      pop\n      swap1\n      pop\n      pop\n        /* \"contracts/RentContract.sol\":7546:7847  if (contractInformations[_contractID].ownerAddress == msg.sender)... */\n    tag_162:\n        /* \"contracts/RentContract.sol\":6944:7862  function complainUser(uint _contractID, string memory _complainReason) public {... */\n      pop\n      pop\n      jump\t// out\n        /* \"contracts/RentContract.sol\":9084:9239  function getContractId(string memory _propertyAddress) public view returns (uint) {... */\n    tag_77:\n        /* \"contracts/RentContract.sol\":9160:9164  uint */\n      0x00\n        /* \"contracts/RentContract.sol\":9183:9203  propertyInformations */\n      0x03\n        /* \"contracts/RentContract.sol\":9204:9220  _propertyAddress */\n      dup3\n        /* \"contracts/RentContract.sol\":9183:9221  propertyInformations[_propertyAddress] */\n      mload(0x40)\n      tag_165\n      swap2\n      swap1\n      tag_166\n      jump\t// in\n    tag_165:\n      swap1\n      dup2\n      mstore\n      0x20\n      add\n      mload(0x40)\n      dup1\n      swap2\n      sub\n      swap1\n      keccak256\n        /* \"contracts/RentContract.sol\":9183:9232  propertyInformations[_propertyAddress].contractID */\n      0x04\n      add\n      sload\n        /* \"contracts/RentContract.sol\":9176:9232  return propertyInformations[_propertyAddress].contractID */\n      swap1\n      pop\n        /* \"contracts/RentContract.sol\":9084:9239  function getContractId(string memory _propertyAddress) public view returns (uint) {... */\n      swap2\n      swap1\n      pop\n      jump\t// out\n        /* \"contracts/RentContract.sol\":1368:1425  mapping(uint => RentContract) public contractInformations */\n    tag_82:\n      mstore(0x20, 0x04)\n      dup1\n      0x00\n      mstore\n      keccak256(0x00, 0x40)\n      0x00\n      swap2\n      pop\n      swap1\n      pop\n      dup1\n      0x00\n      add\n      0x00\n      swap1\n      sload\n      swap1\n      0x0100\n      exp\n      swap1\n      div\n      0xffffffffffffffffffffffffffffffffffffffff\n      and\n      swap1\n      dup1\n      0x01\n      add\n      0x00\n      swap1\n      sload\n      swap1\n      0x0100\n      exp\n      swap1\n      div\n      0xffffffffffffffffffffffffffffffffffffffff\n      and\n      swap1\n      dup1\n      0x02\n      add\n      dup1\n      sload\n      tag_167\n      swap1\n      tag_108\n      jump\t// in\n    tag_167:\n      dup1\n      0x1f\n      add\n      0x20\n      dup1\n      swap2\n      div\n      mul\n      0x20\n      add\n      mload(0x40)\n      swap1\n      dup2\n      add\n      0x40\n      mstore\n      dup1\n      swap3\n      swap2\n      swap1\n      dup2\n      dup2\n      mstore\n      0x20\n      add\n      dup3\n      dup1\n      sload\n      tag_168\n      swap1\n      tag_108\n      jump\t// in\n    tag_168:\n      dup1\n      iszero\n      tag_169\n      jumpi\n      dup1\n      0x1f\n      lt\n      tag_170\n      jumpi\n      0x0100\n      dup1\n      dup4\n      sload\n      div\n      mul\n      dup4\n      mstore\n      swap2\n      0x20\n      add\n      swap2\n      jump(tag_169)\n    tag_170:\n      dup3\n      add\n      swap2\n      swap1\n      0x00\n      mstore\n      keccak256(0x00, 0x20)\n      swap1\n    tag_171:\n      dup2\n      sload\n      dup2\n      mstore\n      swap1\n      0x01\n      add\n      swap1\n      0x20\n      add\n      dup1\n      dup4\n      gt\n      tag_171\n      jumpi\n      dup3\n      swap1\n      sub\n      0x1f\n      and\n      dup3\n      add\n      swap2\n    tag_169:\n      pop\n      pop\n      pop\n      pop\n      pop\n      swap1\n      dup1\n      0x03\n      add\n      dup1\n      sload\n      tag_172\n      swap1\n      tag_108\n      jump\t// in\n    tag_172:\n      dup1\n      0x1f\n      add\n      0x20\n      dup1\n      swap2\n      div\n      mul\n      0x20\n      add\n      mload(0x40)\n      swap1\n      dup2\n      add\n      0x40\n      mstore\n      dup1\n      swap3\n      swap2\n      swap1\n      dup2\n      dup2\n      mstore\n      0x20\n      add\n      dup3\n      dup1\n      sload\n      tag_173\n      swap1\n      tag_108\n      jump\t// in\n    tag_173:\n      dup1\n      iszero\n      tag_174\n      jumpi\n      dup1\n      0x1f\n      lt\n      tag_175\n      jumpi\n      0x0100\n      dup1\n      dup4\n      sload\n      div\n      mul\n      dup4\n      mstore\n      swap2\n      0x20\n      add\n      swap2\n      jump(tag_174)\n    tag_175:\n      dup3\n      add\n      swap2\n      swap1\n      0x00\n      mstore\n      keccak256(0x00, 0x20)\n      swap1\n    tag_176:\n      dup2\n      sload\n      dup2\n      mstore\n      swap1\n      0x01\n      add\n      swap1\n      0x20\n      add\n      dup1\n      dup4\n      gt\n      tag_176\n      jumpi\n      dup3\n      swap1\n      sub\n      0x1f\n      and\n      dup3\n      add\n      swap2\n    tag_174:\n      pop\n      pop\n      pop\n      pop\n      pop\n      swap1\n      dup1\n      0x04\n      add\n      sload\n      swap1\n      dup1\n      0x05\n      add\n      sload\n      swap1\n      dup1\n      0x06\n      add\n      0x00\n      swap1\n      sload\n      swap1\n      0x0100\n      exp\n      swap1\n      div\n      0xff\n      and\n      swap1\n      dup1\n      0x06\n      add\n      0x01\n      swap1\n      sload\n      swap1\n      0x0100\n      exp\n      swap1\n      div\n      0xff\n      and\n      swap1\n      pop\n      dup9\n      jump\t// out\n        /* \"contracts/RentContract.sol\":8777:9078  function getTerminateRequest(uint _contractID) public view returns (uint ID, address user,  string memory reason) {... */\n    tag_87:\n        /* \"contracts/RentContract.sol\":8845:8852  uint ID */\n      0x00\n        /* \"contracts/RentContract.sol\":8854:8866  address user */\n      dup1\n        /* \"contracts/RentContract.sol\":8869:8889  string memory reason */\n      0x60\n        /* \"contracts/RentContract.sol\":8909:8933  contractTerminateReasons */\n      0x06\n        /* \"contracts/RentContract.sol\":8909:8946  contractTerminateReasons[_contractID] */\n      0x00\n        /* \"contracts/RentContract.sol\":8934:8945  _contractID */\n      dup6\n        /* \"contracts/RentContract.sol\":8909:8946  contractTerminateReasons[_contractID] */\n      dup2\n      mstore\n      0x20\n      add\n      swap1\n      dup2\n      mstore\n      0x20\n      add\n      0x00\n      keccak256\n        /* \"contracts/RentContract.sol\":8909:8957  contractTerminateReasons[_contractID].contractID */\n      0x00\n      add\n      sload\n        /* \"contracts/RentContract.sol\":8958:8982  contractTerminateReasons */\n      0x06\n        /* \"contracts/RentContract.sol\":8958:8995  contractTerminateReasons[_contractID] */\n      0x00\n        /* \"contracts/RentContract.sol\":8983:8994  _contractID */\n      dup7\n        /* \"contracts/RentContract.sol\":8958:8995  contractTerminateReasons[_contractID] */\n      dup2\n      mstore\n      0x20\n      add\n      swap1\n      dup2\n      mstore\n      0x20\n      add\n      0x00\n      keccak256\n        /* \"contracts/RentContract.sol\":8958:9007  contractTerminateReasons[_contractID].userAddress */\n      0x01\n      add\n      0x00\n      swap1\n      sload\n      swap1\n      0x0100\n      exp\n      swap1\n      div\n      0xffffffffffffffffffffffffffffffffffffffff\n      and\n        /* \"contracts/RentContract.sol\":9008:9032  contractTerminateReasons */\n      0x06\n        /* \"contracts/RentContract.sol\":9008:9045  contractTerminateReasons[_contractID] */\n      0x00\n        /* \"contracts/RentContract.sol\":9033:9044  _contractID */\n      dup8\n        /* \"contracts/RentContract.sol\":9008:9045  contractTerminateReasons[_contractID] */\n      dup2\n      mstore\n      0x20\n      add\n      swap1\n      dup2\n      mstore\n      0x20\n      add\n      0x00\n      keccak256\n        /* \"contracts/RentContract.sol\":9008:9063  contractTerminateReasons[_contractID].TerminationReason */\n      0x02\n      add\n        /* \"contracts/RentContract.sol\":8901:9065  return (contractTerminateReasons[_contractID].contractID,contractTerminateReasons[_contractID].userAddress,contractTerminateReasons[_contractID].TerminationReason ) */\n      dup1\n      dup1\n      sload\n      tag_178\n      swap1\n      tag_108\n      jump\t// in\n    tag_178:\n      dup1\n      0x1f\n      add\n      0x20\n      dup1\n      swap2\n      div\n      mul\n      0x20\n      add\n      mload(0x40)\n      swap1\n      dup2\n      add\n      0x40\n      mstore\n      dup1\n      swap3\n      swap2\n      swap1\n      dup2\n      dup2\n      mstore\n      0x20\n      add\n      dup3\n      dup1\n      sload\n      tag_179\n      swap1\n      tag_108\n      jump\t// in\n    tag_179:\n      dup1\n      iszero\n      tag_180\n      jumpi\n      dup1\n      0x1f\n      lt\n      tag_181\n      jumpi\n      0x0100\n      dup1\n      dup4\n      sload\n      div\n      mul\n      dup4\n      mstore\n      swap2\n      0x20\n      add\n      swap2\n      jump(tag_180)\n    tag_181:\n      dup3\n      add\n      swap2\n      swap1\n      0x00\n      mstore\n      keccak256(0x00, 0x20)\n      swap1\n    tag_182:\n      dup2\n      sload\n      dup2\n      mstore\n      swap1\n      0x01\n      add\n      swap1\n      0x20\n      add\n      dup1\n      dup4\n      gt\n      tag_182\n      jumpi\n      dup3\n      swap1\n      sub\n      0x1f\n      and\n      dup3\n      add\n      swap2\n    tag_180:\n      pop\n      pop\n      pop\n      pop\n      pop\n      swap1\n      pop\n      swap3\n      pop\n      swap3\n      pop\n      swap3\n      pop\n        /* \"contracts/RentContract.sol\":8777:9078  function getTerminateRequest(uint _contractID) public view returns (uint ID, address user,  string memory reason) {... */\n      swap2\n      swap4\n      swap1\n      swap3\n      pop\n      jump\t// out\n        /* \"contracts/RentContract.sol\":1961:2706  function addProperty(string memory _propertyAddress, string memory _propertyType) public {... */\n    tag_93:\n        /* \"contracts/RentContract.sol\":2217:2218  0 */\n      0x00\n        /* \"contracts/RentContract.sol\":2165:2219  userInformations[msg.sender].UserAddress != address(0) */\n      0xffffffffffffffffffffffffffffffffffffffff\n      and\n        /* \"contracts/RentContract.sol\":2165:2181  userInformations */\n      0x02\n        /* \"contracts/RentContract.sol\":2165:2193  userInformations[msg.sender] */\n      0x00\n        /* \"contracts/RentContract.sol\":2182:2192  msg.sender */\n      caller\n        /* \"contracts/RentContract.sol\":2165:2193  userInformations[msg.sender] */\n      0xffffffffffffffffffffffffffffffffffffffff\n      and\n      0xffffffffffffffffffffffffffffffffffffffff\n      and\n      dup2\n      mstore\n      0x20\n      add\n      swap1\n      dup2\n      mstore\n      0x20\n      add\n      0x00\n      keccak256\n        /* \"contracts/RentContract.sol\":2165:2205  userInformations[msg.sender].UserAddress */\n      0x01\n      add\n      0x00\n      swap1\n      sload\n      swap1\n      0x0100\n      exp\n      swap1\n      div\n      0xffffffffffffffffffffffffffffffffffffffff\n      and\n        /* \"contracts/RentContract.sol\":2165:2219  userInformations[msg.sender].UserAddress != address(0) */\n      0xffffffffffffffffffffffffffffffffffffffff\n      and\n      sub\n        /* \"contracts/RentContract.sol\":2157:2238  require(userInformations[msg.sender].UserAddress != address(0), \"User not found\") */\n      tag_184\n      jumpi\n      mload(0x40)\n      0x08c379a000000000000000000000000000000000000000000000000000000000\n      dup2\n      mstore\n      0x04\n      add\n      tag_185\n      swap1\n      tag_186\n      jump\t// in\n    tag_185:\n      mload(0x40)\n      dup1\n      swap2\n      sub\n      swap1\n      revert\n    tag_184:\n        /* \"contracts/RentContract.sol\":2313:2329  userInformations */\n      0x02\n        /* \"contracts/RentContract.sol\":2313:2341  userInformations[msg.sender] */\n      0x00\n        /* \"contracts/RentContract.sol\":2330:2340  msg.sender */\n      caller\n        /* \"contracts/RentContract.sol\":2313:2341  userInformations[msg.sender] */\n      0xffffffffffffffffffffffffffffffffffffffff\n      and\n      0xffffffffffffffffffffffffffffffffffffffff\n      and\n      dup2\n      mstore\n      0x20\n      add\n      swap1\n      dup2\n      mstore\n      0x20\n      add\n      0x00\n      keccak256\n        /* \"contracts/RentContract.sol\":2313:2349  userInformations[msg.sender].isOwner */\n      0x01\n      add\n      0x14\n      swap1\n      sload\n      swap1\n      0x0100\n      exp\n      swap1\n      div\n      0xff\n      and\n        /* \"contracts/RentContract.sol\":2305:2382  require(userInformations[msg.sender].isOwner, \"Tenants can't add properties\") */\n      tag_187\n      jumpi\n      mload(0x40)\n      0x08c379a000000000000000000000000000000000000000000000000000000000\n      dup2\n      mstore\n      0x04\n      add\n      tag_188\n      swap1\n      tag_189\n      jump\t// in\n    tag_188:\n      mload(0x40)\n      dup1\n      swap2\n      sub\n      swap1\n      revert\n    tag_187:\n        /* \"contracts/RentContract.sol\":2555:2556  0 */\n      0x00\n        /* \"contracts/RentContract.sol\":2492:2557  propertyInformations[_propertyAddress].ownerAddress == address(0) */\n      0xffffffffffffffffffffffffffffffffffffffff\n      and\n        /* \"contracts/RentContract.sol\":2492:2512  propertyInformations */\n      0x03\n        /* \"contracts/RentContract.sol\":2513:2529  _propertyAddress */\n      dup4\n        /* \"contracts/RentContract.sol\":2492:2530  propertyInformations[_propertyAddress] */\n      mload(0x40)\n      tag_190\n      swap2\n      swap1\n      tag_166\n      jump\t// in\n    tag_190:\n      swap1\n      dup2\n      mstore\n      0x20\n      add\n      mload(0x40)\n      dup1\n      swap2\n      sub\n      swap1\n      keccak256\n        /* \"contracts/RentContract.sol\":2492:2543  propertyInformations[_propertyAddress].ownerAddress */\n      0x00\n      add\n      0x00\n      swap1\n      sload\n      swap1\n      0x0100\n      exp\n      swap1\n      div\n      0xffffffffffffffffffffffffffffffffffffffff\n      and\n        /* \"contracts/RentContract.sol\":2492:2557  propertyInformations[_propertyAddress].ownerAddress == address(0) */\n      0xffffffffffffffffffffffffffffffffffffffff\n      and\n      eq\n        /* \"contracts/RentContract.sol\":2484:2585  require(propertyInformations[_propertyAddress].ownerAddress == address(0), \"Property already exists\") */\n      tag_191\n      jumpi\n      mload(0x40)\n      0x08c379a000000000000000000000000000000000000000000000000000000000\n      dup2\n      mstore\n      0x04\n      add\n      tag_192\n      swap1\n      tag_193\n      jump\t// in\n    tag_192:\n      mload(0x40)\n      dup1\n      swap2\n      sub\n      swap1\n      revert\n    tag_191:\n        /* \"contracts/RentContract.sol\":2636:2699  Property(msg.sender, _propertyAddress, _propertyType, false, 0) */\n      mload(0x40)\n      dup1\n      0xa0\n      add\n      0x40\n      mstore\n      dup1\n        /* \"contracts/RentContract.sol\":2645:2655  msg.sender */\n      caller\n        /* \"contracts/RentContract.sol\":2636:2699  Property(msg.sender, _propertyAddress, _propertyType, false, 0) */\n      0xffffffffffffffffffffffffffffffffffffffff\n      and\n      dup2\n      mstore\n      0x20\n      add\n        /* \"contracts/RentContract.sol\":2657:2673  _propertyAddress */\n      dup4\n        /* \"contracts/RentContract.sol\":2636:2699  Property(msg.sender, _propertyAddress, _propertyType, false, 0) */\n      dup2\n      mstore\n      0x20\n      add\n        /* \"contracts/RentContract.sol\":2675:2688  _propertyType */\n      dup3\n        /* \"contracts/RentContract.sol\":2636:2699  Property(msg.sender, _propertyAddress, _propertyType, false, 0) */\n      dup2\n      mstore\n      0x20\n      add\n        /* \"contracts/RentContract.sol\":2690:2695  false */\n      0x00\n        /* \"contracts/RentContract.sol\":2636:2699  Property(msg.sender, _propertyAddress, _propertyType, false, 0) */\n      iszero\n      iszero\n      dup2\n      mstore\n      0x20\n      add\n        /* \"contracts/RentContract.sol\":2697:2698  0 */\n      0x00\n        /* \"contracts/RentContract.sol\":2636:2699  Property(msg.sender, _propertyAddress, _propertyType, false, 0) */\n      dup2\n      mstore\n      pop\n        /* \"contracts/RentContract.sol\":2595:2615  propertyInformations */\n      0x03\n        /* \"contracts/RentContract.sol\":2616:2632  _propertyAddress */\n      dup4\n        /* \"contracts/RentContract.sol\":2595:2633  propertyInformations[_propertyAddress] */\n      mload(0x40)\n      tag_194\n      swap2\n      swap1\n      tag_166\n      jump\t// in\n    tag_194:\n      swap1\n      dup2\n      mstore\n      0x20\n      add\n      mload(0x40)\n      dup1\n      swap2\n      sub\n      swap1\n      keccak256\n        /* \"contracts/RentContract.sol\":2595:2699  propertyInformations[_propertyAddress] = Property(msg.sender, _propertyAddress, _propertyType, false, 0) */\n      0x00\n      dup3\n      add\n      mload\n      dup2\n      0x00\n      add\n      exp(0x0100, 0x00)\n      dup2\n      sload\n      dup2\n      0xffffffffffffffffffffffffffffffffffffffff\n      mul\n      not\n      and\n      swap1\n      dup4\n      0xffffffffffffffffffffffffffffffffffffffff\n      and\n      mul\n      or\n      swap1\n      sstore\n      pop\n      0x20\n      dup3\n      add\n      mload\n      dup2\n      0x01\n      add\n      swap1\n      dup2\n      tag_195\n      swap2\n      swap1\n      tag_138\n      jump\t// in\n    tag_195:\n      pop\n      0x40\n      dup3\n      add\n      mload\n      dup2\n      0x02\n      add\n      swap1\n      dup2\n      tag_196\n      swap2\n      swap1\n      tag_138\n      jump\t// in\n    tag_196:\n      pop\n      0x60\n      dup3\n      add\n      mload\n      dup2\n      0x03\n      add\n      exp(0x0100, 0x00)\n      dup2\n      sload\n      dup2\n      0xff\n      mul\n      not\n      and\n      swap1\n      dup4\n      iszero\n      iszero\n      mul\n      or\n      swap1\n      sstore\n      pop\n      0x80\n      dup3\n      add\n      mload\n      dup2\n      0x04\n      add\n      sstore\n      swap1\n      pop\n      pop\n        /* \"contracts/RentContract.sol\":1961:2706  function addProperty(string memory _propertyAddress, string memory _propertyType) public {... */\n      pop\n      pop\n      jump\t// out\n        /* \"contracts/RentContract.sol\":1529:1596  mapping(uint => ContractTerminater) public contractTerminateReasons */\n    tag_96:\n      mstore(0x20, 0x06)\n      dup1\n      0x00\n      mstore\n      keccak256(0x00, 0x40)\n      0x00\n      swap2\n      pop\n      swap1\n      pop\n      dup1\n      0x00\n      add\n      sload\n      swap1\n      dup1\n      0x01\n      add\n      0x00\n      swap1\n      sload\n      swap1\n      0x0100\n      exp\n      swap1\n      div\n      0xffffffffffffffffffffffffffffffffffffffff\n      and\n      swap1\n      dup1\n      0x02\n      add\n      dup1\n      sload\n      tag_197\n      swap1\n      tag_108\n      jump\t// in\n    tag_197:\n      dup1\n      0x1f\n      add\n      0x20\n      dup1\n      swap2\n      div\n      mul\n      0x20\n      add\n      mload(0x40)\n      swap1\n      dup2\n      add\n      0x40\n      mstore\n      dup1\n      swap3\n      swap2\n      swap1\n      dup2\n      dup2\n      mstore\n      0x20\n      add\n      dup3\n      dup1\n      sload\n      tag_198\n      swap1\n      tag_108\n      jump\t// in\n    tag_198:\n      dup1\n      iszero\n      tag_199\n      jumpi\n      dup1\n      0x1f\n      lt\n      tag_200\n      jumpi\n      0x0100\n      dup1\n      dup4\n      sload\n      div\n      mul\n      dup4\n      mstore\n      swap2\n      0x20\n      add\n      swap2\n      jump(tag_199)\n    tag_200:\n      dup3\n      add\n      swap2\n      swap1\n      0x00\n      mstore\n      keccak256(0x00, 0x20)\n      swap1\n    tag_201:\n      dup2\n      sload\n      dup2\n      mstore\n      swap1\n      0x01\n      add\n      swap1\n      0x20\n      add\n      dup1\n      dup4\n      gt\n      tag_201\n      jumpi\n      dup3\n      swap1\n      sub\n      0x1f\n      and\n      dup3\n      add\n      swap2\n    tag_199:\n      pop\n      pop\n      pop\n      pop\n      pop\n      swap1\n      dup1\n      0x03\n      add\n      0x00\n      swap1\n      sload\n      swap1\n      0x0100\n      exp\n      swap1\n      div\n      0xffffffffffffffffffffffffffffffffffffffff\n      and\n      swap1\n      pop\n      dup5\n      jump\t// out\n        /* \"contracts/RentContract.sol\":2712:3554  function contractStart(address _tenantAddress, string memory _propertyAddress, string memory _propertyType, uint _contractStartDate, uint _contractFinishDate) public {... */\n    tag_102:\n        /* \"contracts/RentContract.sol\":2948:2949  0 */\n      0x00\n        /* \"contracts/RentContract.sol\":2896:2950  userInformations[msg.sender].UserAddress != address(0) */\n      0xffffffffffffffffffffffffffffffffffffffff\n      and\n        /* \"contracts/RentContract.sol\":2896:2912  userInformations */\n      0x02\n        /* \"contracts/RentContract.sol\":2896:2924  userInformations[msg.sender] */\n      0x00\n        /* \"contracts/RentContract.sol\":2913:2923  msg.sender */\n      caller\n        /* \"contracts/RentContract.sol\":2896:2924  userInformations[msg.sender] */\n      0xffffffffffffffffffffffffffffffffffffffff\n      and\n      0xffffffffffffffffffffffffffffffffffffffff\n      and\n      dup2\n      mstore\n      0x20\n      add\n      swap1\n      dup2\n      mstore\n      0x20\n      add\n      0x00\n      keccak256\n        /* \"contracts/RentContract.sol\":2896:2936  userInformations[msg.sender].UserAddress */\n      0x01\n      add\n      0x00\n      swap1\n      sload\n      swap1\n      0x0100\n      exp\n      swap1\n      div\n      0xffffffffffffffffffffffffffffffffffffffff\n      and\n        /* \"contracts/RentContract.sol\":2896:2950  userInformations[msg.sender].UserAddress != address(0) */\n      0xffffffffffffffffffffffffffffffffffffffff\n      and\n      sub\n        /* \"contracts/RentContract.sol\":2888:2969  require(userInformations[msg.sender].UserAddress != address(0), \"User not found\") */\n      tag_203\n      jumpi\n      mload(0x40)\n      0x08c379a000000000000000000000000000000000000000000000000000000000\n      dup2\n      mstore\n      0x04\n      add\n      tag_204\n      swap1\n      tag_186\n      jump\t// in\n    tag_204:\n      mload(0x40)\n      dup1\n      swap2\n      sub\n      swap1\n      revert\n    tag_203:\n        /* \"contracts/RentContract.sol\":2987:3003  userInformations */\n      0x02\n        /* \"contracts/RentContract.sol\":2987:3015  userInformations[msg.sender] */\n      0x00\n        /* \"contracts/RentContract.sol\":3004:3014  msg.sender */\n      caller\n        /* \"contracts/RentContract.sol\":2987:3015  userInformations[msg.sender] */\n      0xffffffffffffffffffffffffffffffffffffffff\n      and\n      0xffffffffffffffffffffffffffffffffffffffff\n      and\n      dup2\n      mstore\n      0x20\n      add\n      swap1\n      dup2\n      mstore\n      0x20\n      add\n      0x00\n      keccak256\n        /* \"contracts/RentContract.sol\":2987:3023  userInformations[msg.sender].isOwner */\n      0x01\n      add\n      0x14\n      swap1\n      sload\n      swap1\n      0x0100\n      exp\n      swap1\n      div\n      0xff\n      and\n        /* \"contracts/RentContract.sol\":2979:3062  require(userInformations[msg.sender].isOwner, \"Tenants cannot initiate a contract\") */\n      tag_205\n      jumpi\n      mload(0x40)\n      0x08c379a000000000000000000000000000000000000000000000000000000000\n      dup2\n      mstore\n      0x04\n      add\n      tag_206\n      swap1\n      tag_207\n      jump\t// in\n    tag_206:\n      mload(0x40)\n      dup1\n      swap2\n      sub\n      swap1\n      revert\n    tag_205:\n        /* \"contracts/RentContract.sol\":3143:3144  0 */\n      0x00\n        /* \"contracts/RentContract.sol\":3080:3145  propertyInformations[_propertyAddress].ownerAddress != address(0) */\n      0xffffffffffffffffffffffffffffffffffffffff\n      and\n        /* \"contracts/RentContract.sol\":3080:3100  propertyInformations */\n      0x03\n        /* \"contracts/RentContract.sol\":3101:3117  _propertyAddress */\n      dup6\n        /* \"contracts/RentContract.sol\":3080:3118  propertyInformations[_propertyAddress] */\n      mload(0x40)\n      tag_208\n      swap2\n      swap1\n      tag_166\n      jump\t// in\n    tag_208:\n      swap1\n      dup2\n      mstore\n      0x20\n      add\n      mload(0x40)\n      dup1\n      swap2\n      sub\n      swap1\n      keccak256\n        /* \"contracts/RentContract.sol\":3080:3131  propertyInformations[_propertyAddress].ownerAddress */\n      0x00\n      add\n      0x00\n      swap1\n      sload\n      swap1\n      0x0100\n      exp\n      swap1\n      div\n      0xffffffffffffffffffffffffffffffffffffffff\n      and\n        /* \"contracts/RentContract.sol\":3080:3145  propertyInformations[_propertyAddress].ownerAddress != address(0) */\n      0xffffffffffffffffffffffffffffffffffffffff\n      and\n      sub\n        /* \"contracts/RentContract.sol\":3072:3168  require(propertyInformations[_propertyAddress].ownerAddress != address(0), \"Property not found\") */\n      tag_209\n      jumpi\n      mload(0x40)\n      0x08c379a000000000000000000000000000000000000000000000000000000000\n      dup2\n      mstore\n      0x04\n      add\n      tag_210\n      swap1\n      tag_211\n      jump\t// in\n    tag_210:\n      mload(0x40)\n      dup1\n      swap2\n      sub\n      swap1\n      revert\n    tag_209:\n        /* \"contracts/RentContract.sol\":3179:3194  uint contractID */\n      0x00\n        /* \"contracts/RentContract.sol\":3229:3239  msg.sender */\n      caller\n        /* \"contracts/RentContract.sol\":3241:3257  _propertyAddress */\n      dup6\n        /* \"contracts/RentContract.sol\":3259:3277  _contractStartDate */\n      dup5\n        /* \"contracts/RentContract.sol\":3279:3298  _contractFinishDate */\n      dup5\n        /* \"contracts/RentContract.sol\":3212:3299  abi.encodePacked(msg.sender, _propertyAddress, _contractStartDate, _contractFinishDate) */\n      add(0x20, mload(0x40))\n      tag_212\n      swap5\n      swap4\n      swap3\n      swap2\n      swap1\n      tag_213\n      jump\t// in\n    tag_212:\n      mload(0x40)\n      0x20\n      dup2\n      dup4\n      sub\n      sub\n      dup2\n      mstore\n      swap1\n      0x40\n      mstore\n        /* \"contracts/RentContract.sol\":3202:3300  keccak256(abi.encodePacked(msg.sender, _propertyAddress, _contractStartDate, _contractFinishDate)) */\n      dup1\n      mload\n      swap1\n      0x20\n      add\n      keccak256\n        /* \"contracts/RentContract.sol\":3197:3301  uint(keccak256(abi.encodePacked(msg.sender, _propertyAddress, _contractStartDate, _contractFinishDate))) */\n      0x00\n      shr\n        /* \"contracts/RentContract.sol\":3179:3301  uint contractID = uint(keccak256(abi.encodePacked(msg.sender, _propertyAddress, _contractStartDate, _contractFinishDate))) */\n      swap1\n      pop\n        /* \"contracts/RentContract.sol\":3347:3475  RentContract(msg.sender, _tenantAddress,  _propertyAddress, _propertyType, _contractStartDate, _contractFinishDate, true, false) */\n      mload(0x40)\n      dup1\n      0x0100\n      add\n      0x40\n      mstore\n      dup1\n        /* \"contracts/RentContract.sol\":3360:3370  msg.sender */\n      caller\n        /* \"contracts/RentContract.sol\":3347:3475  RentContract(msg.sender, _tenantAddress,  _propertyAddress, _propertyType, _contractStartDate, _contractFinishDate, true, false) */\n      0xffffffffffffffffffffffffffffffffffffffff\n      and\n      dup2\n      mstore\n      0x20\n      add\n        /* \"contracts/RentContract.sol\":3372:3386  _tenantAddress */\n      dup8\n        /* \"contracts/RentContract.sol\":3347:3475  RentContract(msg.sender, _tenantAddress,  _propertyAddress, _propertyType, _contractStartDate, _contractFinishDate, true, false) */\n      0xffffffffffffffffffffffffffffffffffffffff\n      and\n      dup2\n      mstore\n      0x20\n      add\n        /* \"contracts/RentContract.sol\":3389:3405  _propertyAddress */\n      dup7\n        /* \"contracts/RentContract.sol\":3347:3475  RentContract(msg.sender, _tenantAddress,  _propertyAddress, _propertyType, _contractStartDate, _contractFinishDate, true, false) */\n      dup2\n      mstore\n      0x20\n      add\n        /* \"contracts/RentContract.sol\":3407:3420  _propertyType */\n      dup6\n        /* \"contracts/RentContract.sol\":3347:3475  RentContract(msg.sender, _tenantAddress,  _propertyAddress, _propertyType, _contractStartDate, _contractFinishDate, true, false) */\n      dup2\n      mstore\n      0x20\n      add\n        /* \"contracts/RentContract.sol\":3422:3440  _contractStartDate */\n      dup5\n        /* \"contracts/RentContract.sol\":3347:3475  RentContract(msg.sender, _tenantAddress,  _propertyAddress, _propertyType, _contractStartDate, _contractFinishDate, true, false) */\n      dup2\n      mstore\n      0x20\n      add\n        /* \"contracts/RentContract.sol\":3442:3461  _contractFinishDate */\n      dup4\n        /* \"contracts/RentContract.sol\":3347:3475  RentContract(msg.sender, _tenantAddress,  _propertyAddress, _propertyType, _contractStartDate, _contractFinishDate, true, false) */\n      dup2\n      mstore\n      0x20\n      add\n        /* \"contracts/RentContract.sol\":3463:3467  true */\n      0x01\n        /* \"contracts/RentContract.sol\":3347:3475  RentContract(msg.sender, _tenantAddress,  _propertyAddress, _propertyType, _contractStartDate, _contractFinishDate, true, false) */\n      iszero\n      iszero\n      dup2\n      mstore\n      0x20\n      add\n        /* \"contracts/RentContract.sol\":3469:3474  false */\n      0x00\n        /* \"contracts/RentContract.sol\":3347:3475  RentContract(msg.sender, _tenantAddress,  _propertyAddress, _propertyType, _contractStartDate, _contractFinishDate, true, false) */\n      iszero\n      iszero\n      dup2\n      mstore\n      pop\n        /* \"contracts/RentContract.sol\":3312:3332  contractInformations */\n      0x04\n        /* \"contracts/RentContract.sol\":3312:3344  contractInformations[contractID] */\n      0x00\n        /* \"contracts/RentContract.sol\":3333:3343  contractID */\n      dup4\n        /* \"contracts/RentContract.sol\":3312:3344  contractInformations[contractID] */\n      dup2\n      mstore\n      0x20\n      add\n      swap1\n      dup2\n      mstore\n      0x20\n      add\n      0x00\n      keccak256\n        /* \"contracts/RentContract.sol\":3312:3475  contractInformations[contractID] = RentContract(msg.sender, _tenantAddress,  _propertyAddress, _propertyType, _contractStartDate, _contractFinishDate, true, false) */\n      0x00\n      dup3\n      add\n      mload\n      dup2\n      0x00\n      add\n      exp(0x0100, 0x00)\n      dup2\n      sload\n      dup2\n      0xffffffffffffffffffffffffffffffffffffffff\n      mul\n      not\n      and\n      swap1\n      dup4\n      0xffffffffffffffffffffffffffffffffffffffff\n      and\n      mul\n      or\n      swap1\n      sstore\n      pop\n      0x20\n      dup3\n      add\n      mload\n      dup2\n      0x01\n      add\n      exp(0x0100, 0x00)\n      dup2\n      sload\n      dup2\n      0xffffffffffffffffffffffffffffffffffffffff\n      mul\n      not\n      and\n      swap1\n      dup4\n      0xffffffffffffffffffffffffffffffffffffffff\n      and\n      mul\n      or\n      swap1\n      sstore\n      pop\n      0x40\n      dup3\n      add\n      mload\n      dup2\n      0x02\n      add\n      swap1\n      dup2\n      tag_214\n      swap2\n      swap1\n      tag_138\n      jump\t// in\n    tag_214:\n      pop\n      0x60\n      dup3\n      add\n      mload\n      dup2\n      0x03\n      add\n      swap1\n      dup2\n      tag_215\n      swap2\n      swap1\n      tag_138\n      jump\t// in\n    tag_215:\n      pop\n      0x80\n      dup3\n      add\n      mload\n      dup2\n      0x04\n      add\n      sstore\n      0xa0\n      dup3\n      add\n      mload\n      dup2\n      0x05\n      add\n      sstore\n      0xc0\n      dup3\n      add\n      mload\n      dup2\n      0x06\n      add\n      exp(0x0100, 0x00)\n      dup2\n      sload\n      dup2\n      0xff\n      mul\n      not\n      and\n      swap1\n      dup4\n      iszero\n      iszero\n      mul\n      or\n      swap1\n      sstore\n      pop\n      0xe0\n      dup3\n      add\n      mload\n      dup2\n      0x06\n      add\n      exp(0x0100, 0x01)\n      dup2\n      sload\n      dup2\n      0xff\n      mul\n      not\n      and\n      swap1\n      dup4\n      iszero\n      iszero\n      mul\n      or\n      swap1\n      sstore\n      pop\n      swap1\n      pop\n      pop\n        /* \"contracts/RentContract.sol\":3537:3547  contractID */\n      dup1\n        /* \"contracts/RentContract.sol\":3485:3505  propertyInformations */\n      0x03\n        /* \"contracts/RentContract.sol\":3506:3522  _propertyAddress */\n      dup7\n        /* \"contracts/RentContract.sol\":3485:3523  propertyInformations[_propertyAddress] */\n      mload(0x40)\n      tag_216\n      swap2\n      swap1\n      tag_166\n      jump\t// in\n    tag_216:\n      swap1\n      dup2\n      mstore\n      0x20\n      add\n      mload(0x40)\n      dup1\n      swap2\n      sub\n      swap1\n      keccak256\n        /* \"contracts/RentContract.sol\":3485:3534  propertyInformations[_propertyAddress].contractID */\n      0x04\n      add\n        /* \"contracts/RentContract.sol\":3485:3547  propertyInformations[_propertyAddress].contractID = contractID */\n      dup2\n      swap1\n      sstore\n      pop\n        /* \"contracts/RentContract.sol\":2878:3554  {... */\n      pop\n        /* \"contracts/RentContract.sol\":2712:3554  function contractStart(address _tenantAddress, string memory _propertyAddress, string memory _propertyType, uint _contractStartDate, uint _contractFinishDate) public {... */\n      pop\n      pop\n      pop\n      pop\n      pop\n      jump\t// out\n        /* \"contracts/RentContract.sol\":3560:6448  function contractTerminate(uint _contractID, bool _legitimate, string memory _reason) public {... */\n    tag_106:\n        /* \"contracts/RentContract.sol\":3801:3811  msg.sender */\n      caller\n        /* \"contracts/RentContract.sol\":3750:3811  contractInformations[_contractID].tenantAddress == msg.sender */\n      0xffffffffffffffffffffffffffffffffffffffff\n      and\n        /* \"contracts/RentContract.sol\":3750:3770  contractInformations */\n      0x04\n        /* \"contracts/RentContract.sol\":3750:3783  contractInformations[_contractID] */\n      0x00\n        /* \"contracts/RentContract.sol\":3771:3782  _contractID */\n      dup6\n        /* \"contracts/RentContract.sol\":3750:3783  contractInformations[_contractID] */\n      dup2\n      mstore\n      0x20\n      add\n      swap1\n      dup2\n      mstore\n      0x20\n      add\n      0x00\n      keccak256\n        /* \"contracts/RentContract.sol\":3750:3797  contractInformations[_contractID].tenantAddress */\n      0x01\n      add\n      0x00\n      swap1\n      sload\n      swap1\n      0x0100\n      exp\n      swap1\n      div\n      0xffffffffffffffffffffffffffffffffffffffff\n      and\n        /* \"contracts/RentContract.sol\":3750:3811  contractInformations[_contractID].tenantAddress == msg.sender */\n      0xffffffffffffffffffffffffffffffffffffffff\n      and\n      eq\n        /* \"contracts/RentContract.sol\":3750:3875  contractInformations[_contractID].tenantAddress == msg.sender || contractInformations[_contractID].ownerAddress == msg.sender */\n      dup1\n      tag_218\n      jumpi\n      pop\n        /* \"contracts/RentContract.sol\":3865:3875  msg.sender */\n      caller\n        /* \"contracts/RentContract.sol\":3815:3875  contractInformations[_contractID].ownerAddress == msg.sender */\n      0xffffffffffffffffffffffffffffffffffffffff\n      and\n        /* \"contracts/RentContract.sol\":3815:3835  contractInformations */\n      0x04\n        /* \"contracts/RentContract.sol\":3815:3848  contractInformations[_contractID] */\n      0x00\n        /* \"contracts/RentContract.sol\":3836:3847  _contractID */\n      dup6\n        /* \"contracts/RentContract.sol\":3815:3848  contractInformations[_contractID] */\n      dup2\n      mstore\n      0x20\n      add\n      swap1\n      dup2\n      mstore\n      0x20\n      add\n      0x00\n      keccak256\n        /* \"contracts/RentContract.sol\":3815:3861  contractInformations[_contractID].ownerAddress */\n      0x00\n      add\n      0x00\n      swap1\n      sload\n      swap1\n      0x0100\n      exp\n      swap1\n      div\n      0xffffffffffffffffffffffffffffffffffffffff\n      and\n        /* \"contracts/RentContract.sol\":3815:3875  contractInformations[_contractID].ownerAddress == msg.sender */\n      0xffffffffffffffffffffffffffffffffffffffff\n      and\n      eq\n        /* \"contracts/RentContract.sol\":3750:3875  contractInformations[_contractID].tenantAddress == msg.sender || contractInformations[_contractID].ownerAddress == msg.sender */\n    tag_218:\n        /* \"contracts/RentContract.sol\":3742:3902  require(contractInformations[_contractID].tenantAddress == msg.sender || contractInformations[_contractID].ownerAddress == msg.sender, \"You have no authority.\") */\n      tag_219\n      jumpi\n      mload(0x40)\n      0x08c379a000000000000000000000000000000000000000000000000000000000\n      dup2\n      mstore\n      0x04\n      add\n      tag_220\n      swap1\n      tag_221\n      jump\t// in\n    tag_220:\n      mload(0x40)\n      dup1\n      swap2\n      sub\n      swap1\n      revert\n    tag_219:\n        /* \"contracts/RentContract.sol\":3972:3976  true */\n      0x01\n        /* \"contracts/RentContract.sol\":3920:3976  contractInformations[_contractID].validityStatus == true */\n      iszero\n      iszero\n        /* \"contracts/RentContract.sol\":3920:3940  contractInformations */\n      0x04\n        /* \"contracts/RentContract.sol\":3920:3953  contractInformations[_contractID] */\n      0x00\n        /* \"contracts/RentContract.sol\":3941:3952  _contractID */\n      dup6\n        /* \"contracts/RentContract.sol\":3920:3953  contractInformations[_contractID] */\n      dup2\n      mstore\n      0x20\n      add\n      swap1\n      dup2\n      mstore\n      0x20\n      add\n      0x00\n      keccak256\n        /* \"contracts/RentContract.sol\":3920:3968  contractInformations[_contractID].validityStatus */\n      0x06\n      add\n      0x00\n      swap1\n      sload\n      swap1\n      0x0100\n      exp\n      swap1\n      div\n      0xff\n      and\n        /* \"contracts/RentContract.sol\":3920:3976  contractInformations[_contractID].validityStatus == true */\n      iszero\n      iszero\n      eq\n        /* \"contracts/RentContract.sol\":3912:4002  require(contractInformations[_contractID].validityStatus == true, \"Contract is not valid\") */\n      tag_222\n      jumpi\n      mload(0x40)\n      0x08c379a000000000000000000000000000000000000000000000000000000000\n      dup2\n      mstore\n      0x04\n      add\n      tag_223\n      swap1\n      tag_122\n      jump\t// in\n    tag_223:\n      mload(0x40)\n      dup1\n      swap2\n      sub\n      swap1\n      revert\n    tag_222:\n        /* \"contracts/RentContract.sol\":4129:4139  msg.sender */\n      caller\n        /* \"contracts/RentContract.sol\":4078:4139  contractInformations[_contractID].tenantAddress == msg.sender */\n      0xffffffffffffffffffffffffffffffffffffffff\n      and\n        /* \"contracts/RentContract.sol\":4078:4098  contractInformations */\n      0x04\n        /* \"contracts/RentContract.sol\":4078:4111  contractInformations[_contractID] */\n      0x00\n        /* \"contracts/RentContract.sol\":4099:4110  _contractID */\n      dup6\n        /* \"contracts/RentContract.sol\":4078:4111  contractInformations[_contractID] */\n      dup2\n      mstore\n      0x20\n      add\n      swap1\n      dup2\n      mstore\n      0x20\n      add\n      0x00\n      keccak256\n        /* \"contracts/RentContract.sol\":4078:4125  contractInformations[_contractID].tenantAddress */\n      0x01\n      add\n      0x00\n      swap1\n      sload\n      swap1\n      0x0100\n      exp\n      swap1\n      div\n      0xffffffffffffffffffffffffffffffffffffffff\n      and\n        /* \"contracts/RentContract.sol\":4078:4139  contractInformations[_contractID].tenantAddress == msg.sender */\n      0xffffffffffffffffffffffffffffffffffffffff\n      and\n      sub\n        /* \"contracts/RentContract.sol\":4074:4976  if (contractInformations[_contractID].tenantAddress == msg.sender) {... */\n      tag_224\n      jumpi\n        /* \"contracts/RentContract.sol\":4176:4191  uint finishDate */\n      0x00\n        /* \"contracts/RentContract.sol\":4194:4214  contractInformations */\n      0x04\n        /* \"contracts/RentContract.sol\":4194:4227  contractInformations[_contractID] */\n      0x00\n        /* \"contracts/RentContract.sol\":4215:4226  _contractID */\n      dup6\n        /* \"contracts/RentContract.sol\":4194:4227  contractInformations[_contractID] */\n      dup2\n      mstore\n      0x20\n      add\n      swap1\n      dup2\n      mstore\n      0x20\n      add\n      0x00\n      keccak256\n        /* \"contracts/RentContract.sol\":4194:4246  contractInformations[_contractID].contractFinishDate */\n      0x05\n      add\n      sload\n        /* \"contracts/RentContract.sol\":4176:4246  uint finishDate = contractInformations[_contractID].contractFinishDate */\n      swap1\n      pop\n        /* \"contracts/RentContract.sol\":4260:4279  uint lastFifteenDay */\n      0x00\n        /* \"contracts/RentContract.sol\":4301:4308  15 days */\n      0x13c680\n        /* \"contracts/RentContract.sol\":4282:4297  block.timestamp */\n      timestamp\n        /* \"contracts/RentContract.sol\":4282:4309  block.timestamp + (15 days) */\n      tag_225\n      swap2\n      swap1\n      tag_226\n      jump\t// in\n    tag_225:\n        /* \"contracts/RentContract.sol\":4260:4309  uint lastFifteenDay = block.timestamp + (15 days) */\n      swap1\n      pop\n        /* \"contracts/RentContract.sol\":4371:4385  lastFifteenDay */\n      dup1\n        /* \"contracts/RentContract.sol\":4358:4368  finishDate */\n      dup3\n        /* \"contracts/RentContract.sol\":4358:4385  finishDate < lastFifteenDay */\n      lt\n        /* \"contracts/RentContract.sol\":4350:4430  require(finishDate < lastFifteenDay, \"Not 15 days before the contract end date\") */\n      tag_227\n      jumpi\n      mload(0x40)\n      0x08c379a000000000000000000000000000000000000000000000000000000000\n      dup2\n      mstore\n      0x04\n      add\n      tag_228\n      swap1\n      tag_229\n      jump\t// in\n    tag_228:\n      mload(0x40)\n      dup1\n      swap2\n      sub\n      swap1\n      revert\n    tag_227:\n        /* \"contracts/RentContract.sol\":4460:4474  lastFifteenDay */\n      dup1\n        /* \"contracts/RentContract.sol\":4447:4457  finishDate */\n      dup3\n        /* \"contracts/RentContract.sol\":4447:4474  finishDate < lastFifteenDay */\n      lt\n        /* \"contracts/RentContract.sol\":4444:4959  if(finishDate < lastFifteenDay)... */\n      iszero\n      tag_230\n      jumpi\n        /* \"contracts/RentContract.sol\":4557:4561  true */\n      0x01\n        /* \"contracts/RentContract.sol\":4506:4526  contractInformations */\n      0x04\n        /* \"contracts/RentContract.sol\":4506:4539  contractInformations[_contractID] */\n      0x00\n        /* \"contracts/RentContract.sol\":4527:4538  _contractID */\n      dup8\n        /* \"contracts/RentContract.sol\":4506:4539  contractInformations[_contractID] */\n      dup2\n      mstore\n      0x20\n      add\n      swap1\n      dup2\n      mstore\n      0x20\n      add\n      0x00\n      keccak256\n        /* \"contracts/RentContract.sol\":4506:4554  contractInformations[_contractID].earlyTerminate */\n      0x06\n      add\n      0x01\n        /* \"contracts/RentContract.sol\":4506:4561  contractInformations[_contractID].earlyTerminate = true */\n      0x0100\n      exp\n      dup2\n      sload\n      dup2\n      0xff\n      mul\n      not\n      and\n      swap1\n      dup4\n      iszero\n      iszero\n      mul\n      or\n      swap1\n      sstore\n      pop\n        /* \"contracts/RentContract.sol\":4656:4661  false */\n      0x00\n        /* \"contracts/RentContract.sol\":4605:4625  contractInformations */\n      0x04\n        /* \"contracts/RentContract.sol\":4605:4638  contractInformations[_contractID] */\n      0x00\n        /* \"contracts/RentContract.sol\":4626:4637  _contractID */\n      dup8\n        /* \"contracts/RentContract.sol\":4605:4638  contractInformations[_contractID] */\n      dup2\n      mstore\n      0x20\n      add\n      swap1\n      dup2\n      mstore\n      0x20\n      add\n      0x00\n      keccak256\n        /* \"contracts/RentContract.sol\":4605:4653  contractInformations[_contractID].validityStatus */\n      0x06\n      add\n      0x00\n        /* \"contracts/RentContract.sol\":4605:4661  contractInformations[_contractID].validityStatus = false */\n      0x0100\n      exp\n      dup2\n      sload\n      dup2\n      0xff\n      mul\n      not\n      and\n      swap1\n      dup4\n      iszero\n      iszero\n      mul\n      or\n      swap1\n      sstore\n      pop\n        /* \"contracts/RentContract.sol\":4444:4959  if(finishDate < lastFifteenDay)... */\n      jump(tag_231)\n    tag_230:\n        /* \"contracts/RentContract.sol\":4805:4944  ContractTerminater(_contractID, contractInformations[_contractID].tenantAddress , _reason, contractInformations[_contractID].ownerAddress ) */\n      mload(0x40)\n      dup1\n      0x80\n      add\n      0x40\n      mstore\n      dup1\n        /* \"contracts/RentContract.sol\":4824:4835  _contractID */\n      dup7\n        /* \"contracts/RentContract.sol\":4805:4944  ContractTerminater(_contractID, contractInformations[_contractID].tenantAddress , _reason, contractInformations[_contractID].ownerAddress ) */\n      dup2\n      mstore\n      0x20\n      add\n        /* \"contracts/RentContract.sol\":4837:4857  contractInformations */\n      0x04\n        /* \"contracts/RentContract.sol\":4837:4870  contractInformations[_contractID] */\n      0x00\n        /* \"contracts/RentContract.sol\":4858:4869  _contractID */\n      dup9\n        /* \"contracts/RentContract.sol\":4837:4870  contractInformations[_contractID] */\n      dup2\n      mstore\n      0x20\n      add\n      swap1\n      dup2\n      mstore\n      0x20\n      add\n      0x00\n      keccak256\n        /* \"contracts/RentContract.sol\":4837:4884  contractInformations[_contractID].tenantAddress */\n      0x01\n      add\n      0x00\n      swap1\n      sload\n      swap1\n      0x0100\n      exp\n      swap1\n      div\n      0xffffffffffffffffffffffffffffffffffffffff\n      and\n        /* \"contracts/RentContract.sol\":4805:4944  ContractTerminater(_contractID, contractInformations[_contractID].tenantAddress , _reason, contractInformations[_contractID].ownerAddress ) */\n      0xffffffffffffffffffffffffffffffffffffffff\n      and\n      dup2\n      mstore\n      0x20\n      add\n        /* \"contracts/RentContract.sol\":4887:4894  _reason */\n      dup5\n        /* \"contracts/RentContract.sol\":4805:4944  ContractTerminater(_contractID, contractInformations[_contractID].tenantAddress , _reason, contractInformations[_contractID].ownerAddress ) */\n      dup2\n      mstore\n      0x20\n      add\n        /* \"contracts/RentContract.sol\":4896:4916  contractInformations */\n      0x04\n        /* \"contracts/RentContract.sol\":4896:4929  contractInformations[_contractID] */\n      0x00\n        /* \"contracts/RentContract.sol\":4917:4928  _contractID */\n      dup9\n        /* \"contracts/RentContract.sol\":4896:4929  contractInformations[_contractID] */\n      dup2\n      mstore\n      0x20\n      add\n      swap1\n      dup2\n      mstore\n      0x20\n      add\n      0x00\n      keccak256\n        /* \"contracts/RentContract.sol\":4896:4942  contractInformations[_contractID].ownerAddress */\n      0x00\n      add\n      0x00\n      swap1\n      sload\n      swap1\n      0x0100\n      exp\n      swap1\n      div\n      0xffffffffffffffffffffffffffffffffffffffff\n      and\n        /* \"contracts/RentContract.sol\":4805:4944  ContractTerminater(_contractID, contractInformations[_contractID].tenantAddress , _reason, contractInformations[_contractID].ownerAddress ) */\n      0xffffffffffffffffffffffffffffffffffffffff\n      and\n      dup2\n      mstore\n      pop\n        /* \"contracts/RentContract.sol\":4765:4789  contractTerminateReasons */\n      0x06\n        /* \"contracts/RentContract.sol\":4765:4802  contractTerminateReasons[_contractID] */\n      0x00\n        /* \"contracts/RentContract.sol\":4790:4801  _contractID */\n      dup8\n        /* \"contracts/RentContract.sol\":4765:4802  contractTerminateReasons[_contractID] */\n      dup2\n      mstore\n      0x20\n      add\n      swap1\n      dup2\n      mstore\n      0x20\n      add\n      0x00\n      keccak256\n        /* \"contracts/RentContract.sol\":4765:4944  contractTerminateReasons[_contractID] = ContractTerminater(_contractID, contractInformations[_contractID].tenantAddress , _reason, contractInformations[_contractID].ownerAddress ) */\n      0x00\n      dup3\n      add\n      mload\n      dup2\n      0x00\n      add\n      sstore\n      0x20\n      dup3\n      add\n      mload\n      dup2\n      0x01\n      add\n      exp(0x0100, 0x00)\n      dup2\n      sload\n      dup2\n      0xffffffffffffffffffffffffffffffffffffffff\n      mul\n      not\n      and\n      swap1\n      dup4\n      0xffffffffffffffffffffffffffffffffffffffff\n      and\n      mul\n      or\n      swap1\n      sstore\n      pop\n      0x40\n      dup3\n      add\n      mload\n      dup2\n      0x02\n      add\n      swap1\n      dup2\n      tag_232\n      swap2\n      swap1\n      tag_138\n      jump\t// in\n    tag_232:\n      pop\n      0x60\n      dup3\n      add\n      mload\n      dup2\n      0x03\n      add\n      exp(0x0100, 0x00)\n      dup2\n      sload\n      dup2\n      0xffffffffffffffffffffffffffffffffffffffff\n      mul\n      not\n      and\n      swap1\n      dup4\n      0xffffffffffffffffffffffffffffffffffffffff\n      and\n      mul\n      or\n      swap1\n      sstore\n      pop\n      swap1\n      pop\n      pop\n        /* \"contracts/RentContract.sol\":4444:4959  if(finishDate < lastFifteenDay)... */\n    tag_231:\n        /* \"contracts/RentContract.sol\":4141:4976  {... */\n      pop\n      pop\n        /* \"contracts/RentContract.sol\":4074:4976  if (contractInformations[_contractID].tenantAddress == msg.sender) {... */\n    tag_224:\n        /* \"contracts/RentContract.sol\":5117:5127  msg.sender */\n      caller\n        /* \"contracts/RentContract.sol\":5067:5127  contractInformations[_contractID].ownerAddress == msg.sender */\n      0xffffffffffffffffffffffffffffffffffffffff\n      and\n        /* \"contracts/RentContract.sol\":5067:5087  contractInformations */\n      0x04\n        /* \"contracts/RentContract.sol\":5067:5100  contractInformations[_contractID] */\n      0x00\n        /* \"contracts/RentContract.sol\":5088:5099  _contractID */\n      dup6\n        /* \"contracts/RentContract.sol\":5067:5100  contractInformations[_contractID] */\n      dup2\n      mstore\n      0x20\n      add\n      swap1\n      dup2\n      mstore\n      0x20\n      add\n      0x00\n      keccak256\n        /* \"contracts/RentContract.sol\":5067:5113  contractInformations[_contractID].ownerAddress */\n      0x00\n      add\n      0x00\n      swap1\n      sload\n      swap1\n      0x0100\n      exp\n      swap1\n      div\n      0xffffffffffffffffffffffffffffffffffffffff\n      and\n        /* \"contracts/RentContract.sol\":5067:5127  contractInformations[_contractID].ownerAddress == msg.sender */\n      0xffffffffffffffffffffffffffffffffffffffff\n      and\n      sub\n        /* \"contracts/RentContract.sol\":5063:6442  if (contractInformations[_contractID].ownerAddress == msg.sender) {... */\n      tag_233\n      jumpi\n        /* \"contracts/RentContract.sol\":5241:5252  _legitimate */\n      dup2\n        /* \"contracts/RentContract.sol\":5237:6432  if (_legitimate) {... */\n      iszero\n      tag_234\n      jumpi\n        /* \"contracts/RentContract.sol\":5313:5452  ContractTerminater(_contractID, contractInformations[_contractID].ownerAddress , _reason, contractInformations[_contractID].tenantAddress ) */\n      mload(0x40)\n      dup1\n      0x80\n      add\n      0x40\n      mstore\n      dup1\n        /* \"contracts/RentContract.sol\":5332:5343  _contractID */\n      dup5\n        /* \"contracts/RentContract.sol\":5313:5452  ContractTerminater(_contractID, contractInformations[_contractID].ownerAddress , _reason, contractInformations[_contractID].tenantAddress ) */\n      dup2\n      mstore\n      0x20\n      add\n        /* \"contracts/RentContract.sol\":5345:5365  contractInformations */\n      0x04\n        /* \"contracts/RentContract.sol\":5345:5378  contractInformations[_contractID] */\n      0x00\n        /* \"contracts/RentContract.sol\":5366:5377  _contractID */\n      dup7\n        /* \"contracts/RentContract.sol\":5345:5378  contractInformations[_contractID] */\n      dup2\n      mstore\n      0x20\n      add\n      swap1\n      dup2\n      mstore\n      0x20\n      add\n      0x00\n      keccak256\n        /* \"contracts/RentContract.sol\":5345:5391  contractInformations[_contractID].ownerAddress */\n      0x00\n      add\n      0x00\n      swap1\n      sload\n      swap1\n      0x0100\n      exp\n      swap1\n      div\n      0xffffffffffffffffffffffffffffffffffffffff\n      and\n        /* \"contracts/RentContract.sol\":5313:5452  ContractTerminater(_contractID, contractInformations[_contractID].ownerAddress , _reason, contractInformations[_contractID].tenantAddress ) */\n      0xffffffffffffffffffffffffffffffffffffffff\n      and\n      dup2\n      mstore\n      0x20\n      add\n        /* \"contracts/RentContract.sol\":5394:5401  _reason */\n      dup3\n        /* \"contracts/RentContract.sol\":5313:5452  ContractTerminater(_contractID, contractInformations[_contractID].ownerAddress , _reason, contractInformations[_contractID].tenantAddress ) */\n      dup2\n      mstore\n      0x20\n      add\n        /* \"contracts/RentContract.sol\":5403:5423  contractInformations */\n      0x04\n        /* \"contracts/RentContract.sol\":5403:5436  contractInformations[_contractID] */\n      0x00\n        /* \"contracts/RentContract.sol\":5424:5435  _contractID */\n      dup7\n        /* \"contracts/RentContract.sol\":5403:5436  contractInformations[_contractID] */\n      dup2\n      mstore\n      0x20\n      add\n      swap1\n      dup2\n      mstore\n      0x20\n      add\n      0x00\n      keccak256\n        /* \"contracts/RentContract.sol\":5403:5450  contractInformations[_contractID].tenantAddress */\n      0x01\n      add\n      0x00\n      swap1\n      sload\n      swap1\n      0x0100\n      exp\n      swap1\n      div\n      0xffffffffffffffffffffffffffffffffffffffff\n      and\n        /* \"contracts/RentContract.sol\":5313:5452  ContractTerminater(_contractID, contractInformations[_contractID].ownerAddress , _reason, contractInformations[_contractID].tenantAddress ) */\n      0xffffffffffffffffffffffffffffffffffffffff\n      and\n      dup2\n      mstore\n      pop\n        /* \"contracts/RentContract.sol\":5273:5297  contractTerminateReasons */\n      0x06\n        /* \"contracts/RentContract.sol\":5273:5310  contractTerminateReasons[_contractID] */\n      0x00\n        /* \"contracts/RentContract.sol\":5298:5309  _contractID */\n      dup6\n        /* \"contracts/RentContract.sol\":5273:5310  contractTerminateReasons[_contractID] */\n      dup2\n      mstore\n      0x20\n      add\n      swap1\n      dup2\n      mstore\n      0x20\n      add\n      0x00\n      keccak256\n        /* \"contracts/RentContract.sol\":5273:5452  contractTerminateReasons[_contractID] = ContractTerminater(_contractID, contractInformations[_contractID].ownerAddress , _reason, contractInformations[_contractID].tenantAddress ) */\n      0x00\n      dup3\n      add\n      mload\n      dup2\n      0x00\n      add\n      sstore\n      0x20\n      dup3\n      add\n      mload\n      dup2\n      0x01\n      add\n      exp(0x0100, 0x00)\n      dup2\n      sload\n      dup2\n      0xffffffffffffffffffffffffffffffffffffffff\n      mul\n      not\n      and\n      swap1\n      dup4\n      0xffffffffffffffffffffffffffffffffffffffff\n      and\n      mul\n      or\n      swap1\n      sstore\n      pop\n      0x40\n      dup3\n      add\n      mload\n      dup2\n      0x02\n      add\n      swap1\n      dup2\n      tag_235\n      swap2\n      swap1\n      tag_138\n      jump\t// in\n    tag_235:\n      pop\n      0x60\n      dup3\n      add\n      mload\n      dup2\n      0x03\n      add\n      exp(0x0100, 0x00)\n      dup2\n      sload\n      dup2\n      0xffffffffffffffffffffffffffffffffffffffff\n      mul\n      not\n      and\n      swap1\n      dup4\n      0xffffffffffffffffffffffffffffffffffffffff\n      and\n      mul\n      or\n      swap1\n      sstore\n      pop\n      swap1\n      pop\n      pop\n        /* \"contracts/RentContract.sol\":5237:6432  if (_legitimate) {... */\n      jump(tag_236)\n    tag_234:\n        /* \"contracts/RentContract.sol\":5725:5864  ContractTerminater(_contractID, contractInformations[_contractID].ownerAddress , _reason, contractInformations[_contractID].tenantAddress ) */\n      mload(0x40)\n      dup1\n      0x80\n      add\n      0x40\n      mstore\n      dup1\n        /* \"contracts/RentContract.sol\":5744:5755  _contractID */\n      dup5\n        /* \"contracts/RentContract.sol\":5725:5864  ContractTerminater(_contractID, contractInformations[_contractID].ownerAddress , _reason, contractInformations[_contractID].tenantAddress ) */\n      dup2\n      mstore\n      0x20\n      add\n        /* \"contracts/RentContract.sol\":5757:5777  contractInformations */\n      0x04\n        /* \"contracts/RentContract.sol\":5757:5790  contractInformations[_contractID] */\n      0x00\n        /* \"contracts/RentContract.sol\":5778:5789  _contractID */\n      dup7\n        /* \"contracts/RentContract.sol\":5757:5790  contractInformations[_contractID] */\n      dup2\n      mstore\n      0x20\n      add\n      swap1\n      dup2\n      mstore\n      0x20\n      add\n      0x00\n      keccak256\n        /* \"contracts/RentContract.sol\":5757:5803  contractInformations[_contractID].ownerAddress */\n      0x00\n      add\n      0x00\n      swap1\n      sload\n      swap1\n      0x0100\n      exp\n      swap1\n      div\n      0xffffffffffffffffffffffffffffffffffffffff\n      and\n        /* \"contracts/RentContract.sol\":5725:5864  ContractTerminater(_contractID, contractInformations[_contractID].ownerAddress , _reason, contractInformations[_contractID].tenantAddress ) */\n      0xffffffffffffffffffffffffffffffffffffffff\n      and\n      dup2\n      mstore\n      0x20\n      add\n        /* \"contracts/RentContract.sol\":5806:5813  _reason */\n      dup3\n        /* \"contracts/RentContract.sol\":5725:5864  ContractTerminater(_contractID, contractInformations[_contractID].ownerAddress , _reason, contractInformations[_contractID].tenantAddress ) */\n      dup2\n      mstore\n      0x20\n      add\n        /* \"contracts/RentContract.sol\":5815:5835  contractInformations */\n      0x04\n        /* \"contracts/RentContract.sol\":5815:5848  contractInformations[_contractID] */\n      0x00\n        /* \"contracts/RentContract.sol\":5836:5847  _contractID */\n      dup7\n        /* \"contracts/RentContract.sol\":5815:5848  contractInformations[_contractID] */\n      dup2\n      mstore\n      0x20\n      add\n      swap1\n      dup2\n      mstore\n      0x20\n      add\n      0x00\n      keccak256\n        /* \"contracts/RentContract.sol\":5815:5862  contractInformations[_contractID].tenantAddress */\n      0x01\n      add\n      0x00\n      swap1\n      sload\n      swap1\n      0x0100\n      exp\n      swap1\n      div\n      0xffffffffffffffffffffffffffffffffffffffff\n      and\n        /* \"contracts/RentContract.sol\":5725:5864  ContractTerminater(_contractID, contractInformations[_contractID].ownerAddress , _reason, contractInformations[_contractID].tenantAddress ) */\n      0xffffffffffffffffffffffffffffffffffffffff\n      and\n      dup2\n      mstore\n      pop\n        /* \"contracts/RentContract.sol\":5685:5709  contractTerminateReasons */\n      0x06\n        /* \"contracts/RentContract.sol\":5685:5722  contractTerminateReasons[_contractID] */\n      0x00\n        /* \"contracts/RentContract.sol\":5710:5721  _contractID */\n      dup6\n        /* \"contracts/RentContract.sol\":5685:5722  contractTerminateReasons[_contractID] */\n      dup2\n      mstore\n      0x20\n      add\n      swap1\n      dup2\n      mstore\n      0x20\n      add\n      0x00\n      keccak256\n        /* \"contracts/RentContract.sol\":5685:5864  contractTerminateReasons[_contractID] = ContractTerminater(_contractID, contractInformations[_contractID].ownerAddress , _reason, contractInformations[_contractID].tenantAddress ) */\n      0x00\n      dup3\n      add\n      mload\n      dup2\n      0x00\n      add\n      sstore\n      0x20\n      dup3\n      add\n      mload\n      dup2\n      0x01\n      add\n      exp(0x0100, 0x00)\n      dup2\n      sload\n      dup2\n      0xffffffffffffffffffffffffffffffffffffffff\n      mul\n      not\n      and\n      swap1\n      dup4\n      0xffffffffffffffffffffffffffffffffffffffff\n      and\n      mul\n      or\n      swap1\n      sstore\n      pop\n      0x40\n      dup3\n      add\n      mload\n      dup2\n      0x02\n      add\n      swap1\n      dup2\n      tag_237\n      swap2\n      swap1\n      tag_138\n      jump\t// in\n    tag_237:\n      pop\n      0x60\n      dup3\n      add\n      mload\n      dup2\n      0x03\n      add\n      exp(0x0100, 0x00)\n      dup2\n      sload\n      dup2\n      0xffffffffffffffffffffffffffffffffffffffff\n      mul\n      not\n      and\n      swap1\n      dup4\n      0xffffffffffffffffffffffffffffffffffffffff\n      and\n      mul\n      or\n      swap1\n      sstore\n      pop\n      swap1\n      pop\n      pop\n        /* \"contracts/RentContract.sol\":6042:6147  ContractTerminater(_contractID, contractInformations[_contractID].ownerAddress , _reason, ContractAdmin ) */\n      mload(0x40)\n      dup1\n      0x80\n      add\n      0x40\n      mstore\n      dup1\n        /* \"contracts/RentContract.sol\":6061:6072  _contractID */\n      dup5\n        /* \"contracts/RentContract.sol\":6042:6147  ContractTerminater(_contractID, contractInformations[_contractID].ownerAddress , _reason, ContractAdmin ) */\n      dup2\n      mstore\n      0x20\n      add\n        /* \"contracts/RentContract.sol\":6074:6094  contractInformations */\n      0x04\n        /* \"contracts/RentContract.sol\":6074:6107  contractInformations[_contractID] */\n      0x00\n        /* \"contracts/RentContract.sol\":6095:6106  _contractID */\n      dup7\n        /* \"contracts/RentContract.sol\":6074:6107  contractInformations[_contractID] */\n      dup2\n      mstore\n      0x20\n      add\n      swap1\n      dup2\n      mstore\n      0x20\n      add\n      0x00\n      keccak256\n        /* \"contracts/RentContract.sol\":6074:6120  contractInformations[_contractID].ownerAddress */\n      0x00\n      add\n      0x00\n      swap1\n      sload\n      swap1\n      0x0100\n      exp\n      swap1\n      div\n      0xffffffffffffffffffffffffffffffffffffffff\n      and\n        /* \"contracts/RentContract.sol\":6042:6147  ContractTerminater(_contractID, contractInformations[_contractID].ownerAddress , _reason, ContractAdmin ) */\n      0xffffffffffffffffffffffffffffffffffffffff\n      and\n      dup2\n      mstore\n      0x20\n      add\n        /* \"contracts/RentContract.sol\":6123:6130  _reason */\n      dup3\n        /* \"contracts/RentContract.sol\":6042:6147  ContractTerminater(_contractID, contractInformations[_contractID].ownerAddress , _reason, ContractAdmin ) */\n      dup2\n      mstore\n      0x20\n      add\n        /* \"contracts/RentContract.sol\":6132:6145  ContractAdmin */\n      0x00\n      dup1\n      sload\n      swap1\n      0x0100\n      exp\n      swap1\n      div\n      0xffffffffffffffffffffffffffffffffffffffff\n      and\n        /* \"contracts/RentContract.sol\":6042:6147  ContractTerminater(_contractID, contractInformations[_contractID].ownerAddress , _reason, ContractAdmin ) */\n      0xffffffffffffffffffffffffffffffffffffffff\n      and\n      dup2\n      mstore\n      pop\n        /* \"contracts/RentContract.sol\":6002:6026  contractTerminateReasons */\n      0x06\n        /* \"contracts/RentContract.sol\":6002:6039  contractTerminateReasons[_contractID] */\n      0x00\n        /* \"contracts/RentContract.sol\":6027:6038  _contractID */\n      dup6\n        /* \"contracts/RentContract.sol\":6002:6039  contractTerminateReasons[_contractID] */\n      dup2\n      mstore\n      0x20\n      add\n      swap1\n      dup2\n      mstore\n      0x20\n      add\n      0x00\n      keccak256\n        /* \"contracts/RentContract.sol\":6002:6147  contractTerminateReasons[_contractID] = ContractTerminater(_contractID, contractInformations[_contractID].ownerAddress , _reason, ContractAdmin ) */\n      0x00\n      dup3\n      add\n      mload\n      dup2\n      0x00\n      add\n      sstore\n      0x20\n      dup3\n      add\n      mload\n      dup2\n      0x01\n      add\n      exp(0x0100, 0x00)\n      dup2\n      sload\n      dup2\n      0xffffffffffffffffffffffffffffffffffffffff\n      mul\n      not\n      and\n      swap1\n      dup4\n      0xffffffffffffffffffffffffffffffffffffffff\n      and\n      mul\n      or\n      swap1\n      sstore\n      pop\n      0x40\n      dup3\n      add\n      mload\n      dup2\n      0x02\n      add\n      swap1\n      dup2\n      tag_238\n      swap2\n      swap1\n      tag_138\n      jump\t// in\n    tag_238:\n      pop\n      0x60\n      dup3\n      add\n      mload\n      dup2\n      0x03\n      add\n      exp(0x0100, 0x00)\n      dup2\n      sload\n      dup2\n      0xffffffffffffffffffffffffffffffffffffffff\n      mul\n      not\n      and\n      swap1\n      dup4\n      0xffffffffffffffffffffffffffffffffffffffff\n      and\n      mul\n      or\n      swap1\n      sstore\n      pop\n      swap1\n      pop\n      pop\n        /* \"contracts/RentContract.sol\":5237:6432  if (_legitimate) {... */\n    tag_236:\n        /* \"contracts/RentContract.sol\":5063:6442  if (contractInformations[_contractID].ownerAddress == msg.sender) {... */\n    tag_233:\n        /* \"contracts/RentContract.sol\":3560:6448  function contractTerminate(uint _contractID, bool _legitimate, string memory _reason) public {... */\n      pop\n      pop\n      pop\n      jump\t// out\n        /* \"#utility.yul\":7:82   */\n    tag_239:\n        /* \"#utility.yul\":40:46   */\n      0x00\n        /* \"#utility.yul\":73:75   */\n      0x40\n        /* \"#utility.yul\":67:76   */\n      mload\n        /* \"#utility.yul\":57:76   */\n      swap1\n      pop\n        /* \"#utility.yul\":7:82   */\n      swap1\n      jump\t// out\n        /* \"#utility.yul\":88:205   */\n    tag_240:\n        /* \"#utility.yul\":197:198   */\n      0x00\n        /* \"#utility.yul\":194:195   */\n      dup1\n        /* \"#utility.yul\":187:199   */\n      revert\n        /* \"#utility.yul\":211:328   */\n    tag_241:\n        /* \"#utility.yul\":320:321   */\n      0x00\n        /* \"#utility.yul\":317:318   */\n      dup1\n        /* \"#utility.yul\":310:322   */\n      revert\n        /* \"#utility.yul\":334:460   */\n    tag_242:\n        /* \"#utility.yul\":371:378   */\n      0x00\n        /* \"#utility.yul\":411:453   */\n      0xffffffffffffffffffffffffffffffffffffffff\n        /* \"#utility.yul\":404:409   */\n      dup3\n        /* \"#utility.yul\":400:454   */\n      and\n        /* \"#utility.yul\":389:454   */\n      swap1\n      pop\n        /* \"#utility.yul\":334:460   */\n      swap2\n      swap1\n      pop\n      jump\t// out\n        /* \"#utility.yul\":466:562   */\n    tag_243:\n        /* \"#utility.yul\":503:510   */\n      0x00\n        /* \"#utility.yul\":532:556   */\n      tag_322\n        /* \"#utility.yul\":550:555   */\n      dup3\n        /* \"#utility.yul\":532:556   */\n      tag_242\n      jump\t// in\n    tag_322:\n        /* \"#utility.yul\":521:556   */\n      swap1\n      pop\n        /* \"#utility.yul\":466:562   */\n      swap2\n      swap1\n      pop\n      jump\t// out\n        /* \"#utility.yul\":568:690   */\n    tag_244:\n        /* \"#utility.yul\":641:665   */\n      tag_324\n        /* \"#utility.yul\":659:664   */\n      dup2\n        /* \"#utility.yul\":641:665   */\n      tag_243\n      jump\t// in\n    tag_324:\n        /* \"#utility.yul\":634:639   */\n      dup2\n        /* \"#utility.yul\":631:666   */\n      eq\n        /* \"#utility.yul\":621:684   */\n      tag_325\n      jumpi\n        /* \"#utility.yul\":680:681   */\n      0x00\n        /* \"#utility.yul\":677:678   */\n      dup1\n        /* \"#utility.yul\":670:682   */\n      revert\n        /* \"#utility.yul\":621:684   */\n    tag_325:\n        /* \"#utility.yul\":568:690   */\n      pop\n      jump\t// out\n        /* \"#utility.yul\":696:835   */\n    tag_245:\n        /* \"#utility.yul\":742:747   */\n      0x00\n        /* \"#utility.yul\":780:786   */\n      dup2\n        /* \"#utility.yul\":767:787   */\n      calldataload\n        /* \"#utility.yul\":758:787   */\n      swap1\n      pop\n        /* \"#utility.yul\":796:829   */\n      tag_327\n        /* \"#utility.yul\":823:828   */\n      dup2\n        /* \"#utility.yul\":796:829   */\n      tag_244\n      jump\t// in\n    tag_327:\n        /* \"#utility.yul\":696:835   */\n      swap3\n      swap2\n      pop\n      pop\n      jump\t// out\n        /* \"#utility.yul\":841:1170   */\n    tag_26:\n        /* \"#utility.yul\":900:906   */\n      0x00\n        /* \"#utility.yul\":949:951   */\n      0x20\n        /* \"#utility.yul\":937:946   */\n      dup3\n        /* \"#utility.yul\":928:935   */\n      dup5\n        /* \"#utility.yul\":924:947   */\n      sub\n        /* \"#utility.yul\":920:952   */\n      slt\n        /* \"#utility.yul\":917:1036   */\n      iszero\n      tag_329\n      jumpi\n        /* \"#utility.yul\":955:1034   */\n      tag_330\n      tag_240\n      jump\t// in\n    tag_330:\n        /* \"#utility.yul\":917:1036   */\n    tag_329:\n        /* \"#utility.yul\":1075:1076   */\n      0x00\n        /* \"#utility.yul\":1100:1153   */\n      tag_331\n        /* \"#utility.yul\":1145:1152   */\n      dup5\n        /* \"#utility.yul\":1136:1142   */\n      dup3\n        /* \"#utility.yul\":1125:1134   */\n      dup6\n        /* \"#utility.yul\":1121:1143   */\n      add\n        /* \"#utility.yul\":1100:1153   */\n      tag_245\n      jump\t// in\n    tag_331:\n        /* \"#utility.yul\":1090:1153   */\n      swap2\n      pop\n        /* \"#utility.yul\":1046:1163   */\n      pop\n        /* \"#utility.yul\":841:1170   */\n      swap3\n      swap2\n      pop\n      pop\n      jump\t// out\n        /* \"#utility.yul\":1176:1275   */\n    tag_246:\n        /* \"#utility.yul\":1228:1234   */\n      0x00\n        /* \"#utility.yul\":1262:1267   */\n      dup2\n        /* \"#utility.yul\":1256:1268   */\n      mload\n        /* \"#utility.yul\":1246:1268   */\n      swap1\n      pop\n        /* \"#utility.yul\":1176:1275   */\n      swap2\n      swap1\n      pop\n      jump\t// out\n        /* \"#utility.yul\":1281:1450   */\n    tag_247:\n        /* \"#utility.yul\":1365:1376   */\n      0x00\n        /* \"#utility.yul\":1399:1405   */\n      dup3\n        /* \"#utility.yul\":1394:1397   */\n      dup3\n        /* \"#utility.yul\":1387:1406   */\n      mstore\n        /* \"#utility.yul\":1439:1443   */\n      0x20\n        /* \"#utility.yul\":1434:1437   */\n      dup3\n        /* \"#utility.yul\":1430:1444   */\n      add\n        /* \"#utility.yul\":1415:1444   */\n      swap1\n      pop\n        /* \"#utility.yul\":1281:1450   */\n      swap3\n      swap2\n      pop\n      pop\n      jump\t// out\n        /* \"#utility.yul\":1456:1702   */\n    tag_248:\n        /* \"#utility.yul\":1537:1538   */\n      0x00\n        /* \"#utility.yul\":1547:1660   */\n    tag_335:\n        /* \"#utility.yul\":1561:1567   */\n      dup4\n        /* \"#utility.yul\":1558:1559   */\n      dup2\n        /* \"#utility.yul\":1555:1568   */\n      lt\n        /* \"#utility.yul\":1547:1660   */\n      iszero\n      tag_337\n      jumpi\n        /* \"#utility.yul\":1646:1647   */\n      dup1\n        /* \"#utility.yul\":1641:1644   */\n      dup3\n        /* \"#utility.yul\":1637:1648   */\n      add\n        /* \"#utility.yul\":1631:1649   */\n      mload\n        /* \"#utility.yul\":1627:1628   */\n      dup2\n        /* \"#utility.yul\":1622:1625   */\n      dup5\n        /* \"#utility.yul\":1618:1629   */\n      add\n        /* \"#utility.yul\":1611:1650   */\n      mstore\n        /* \"#utility.yul\":1583:1585   */\n      0x20\n        /* \"#utility.yul\":1580:1581   */\n      dup2\n        /* \"#utility.yul\":1576:1586   */\n      add\n        /* \"#utility.yul\":1571:1586   */\n      swap1\n      pop\n        /* \"#utility.yul\":1547:1660   */\n      jump(tag_335)\n    tag_337:\n        /* \"#utility.yul\":1694:1695   */\n      0x00\n        /* \"#utility.yul\":1685:1691   */\n      dup5\n        /* \"#utility.yul\":1680:1683   */\n      dup5\n        /* \"#utility.yul\":1676:1692   */\n      add\n        /* \"#utility.yul\":1669:1696   */\n      mstore\n        /* \"#utility.yul\":1518:1702   */\n      pop\n        /* \"#utility.yul\":1456:1702   */\n      pop\n      pop\n      pop\n      jump\t// out\n        /* \"#utility.yul\":1708:1810   */\n    tag_249:\n        /* \"#utility.yul\":1749:1755   */\n      0x00\n        /* \"#utility.yul\":1800:1802   */\n      0x1f\n        /* \"#utility.yul\":1796:1803   */\n      not\n        /* \"#utility.yul\":1791:1793   */\n      0x1f\n        /* \"#utility.yul\":1784:1789   */\n      dup4\n        /* \"#utility.yul\":1780:1794   */\n      add\n        /* \"#utility.yul\":1776:1804   */\n      and\n        /* \"#utility.yul\":1766:1804   */\n      swap1\n      pop\n        /* \"#utility.yul\":1708:1810   */\n      swap2\n      swap1\n      pop\n      jump\t// out\n        /* \"#utility.yul\":1816:2193   */\n    tag_250:\n        /* \"#utility.yul\":1904:1907   */\n      0x00\n        /* \"#utility.yul\":1932:1971   */\n      tag_340\n        /* \"#utility.yul\":1965:1970   */\n      dup3\n        /* \"#utility.yul\":1932:1971   */\n      tag_246\n      jump\t// in\n    tag_340:\n        /* \"#utility.yul\":1987:2058   */\n      tag_341\n        /* \"#utility.yul\":2051:2057   */\n      dup2\n        /* \"#utility.yul\":2046:2049   */\n      dup6\n        /* \"#utility.yul\":1987:2058   */\n      tag_247\n      jump\t// in\n    tag_341:\n        /* \"#utility.yul\":1980:2058   */\n      swap4\n      pop\n        /* \"#utility.yul\":2067:2132   */\n      tag_342\n        /* \"#utility.yul\":2125:2131   */\n      dup2\n        /* \"#utility.yul\":2120:2123   */\n      dup6\n        /* \"#utility.yul\":2113:2117   */\n      0x20\n        /* \"#utility.yul\":2106:2111   */\n      dup7\n        /* \"#utility.yul\":2102:2118   */\n      add\n        /* \"#utility.yul\":2067:2132   */\n      tag_248\n      jump\t// in\n    tag_342:\n        /* \"#utility.yul\":2157:2186   */\n      tag_343\n        /* \"#utility.yul\":2179:2185   */\n      dup2\n        /* \"#utility.yul\":2157:2186   */\n      tag_249\n      jump\t// in\n    tag_343:\n        /* \"#utility.yul\":2152:2155   */\n      dup5\n        /* \"#utility.yul\":2148:2187   */\n      add\n        /* \"#utility.yul\":2141:2187   */\n      swap2\n      pop\n        /* \"#utility.yul\":1908:2193   */\n      pop\n        /* \"#utility.yul\":1816:2193   */\n      swap3\n      swap2\n      pop\n      pop\n      jump\t// out\n        /* \"#utility.yul\":2199:2317   */\n    tag_251:\n        /* \"#utility.yul\":2286:2310   */\n      tag_345\n        /* \"#utility.yul\":2304:2309   */\n      dup2\n        /* \"#utility.yul\":2286:2310   */\n      tag_243\n      jump\t// in\n    tag_345:\n        /* \"#utility.yul\":2281:2284   */\n      dup3\n        /* \"#utility.yul\":2274:2311   */\n      mstore\n        /* \"#utility.yul\":2199:2317   */\n      pop\n      pop\n      jump\t// out\n        /* \"#utility.yul\":2323:2413   */\n    tag_252:\n        /* \"#utility.yul\":2357:2364   */\n      0x00\n        /* \"#utility.yul\":2400:2405   */\n      dup2\n        /* \"#utility.yul\":2393:2406   */\n      iszero\n        /* \"#utility.yul\":2386:2407   */\n      iszero\n        /* \"#utility.yul\":2375:2407   */\n      swap1\n      pop\n        /* \"#utility.yul\":2323:2413   */\n      swap2\n      swap1\n      pop\n      jump\t// out\n        /* \"#utility.yul\":2419:2528   */\n    tag_253:\n        /* \"#utility.yul\":2500:2521   */\n      tag_348\n        /* \"#utility.yul\":2515:2520   */\n      dup2\n        /* \"#utility.yul\":2500:2521   */\n      tag_252\n      jump\t// in\n    tag_348:\n        /* \"#utility.yul\":2495:2498   */\n      dup3\n        /* \"#utility.yul\":2488:2522   */\n      mstore\n        /* \"#utility.yul\":2419:2528   */\n      pop\n      pop\n      jump\t// out\n        /* \"#utility.yul\":2534:3055   */\n    tag_29:\n        /* \"#utility.yul\":2697:2701   */\n      0x00\n        /* \"#utility.yul\":2735:2737   */\n      0x60\n        /* \"#utility.yul\":2724:2733   */\n      dup3\n        /* \"#utility.yul\":2720:2738   */\n      add\n        /* \"#utility.yul\":2712:2738   */\n      swap1\n      pop\n        /* \"#utility.yul\":2784:2793   */\n      dup2\n        /* \"#utility.yul\":2778:2782   */\n      dup2\n        /* \"#utility.yul\":2774:2794   */\n      sub\n        /* \"#utility.yul\":2770:2771   */\n      0x00\n        /* \"#utility.yul\":2759:2768   */\n      dup4\n        /* \"#utility.yul\":2755:2772   */\n      add\n        /* \"#utility.yul\":2748:2795   */\n      mstore\n        /* \"#utility.yul\":2812:2890   */\n      tag_350\n        /* \"#utility.yul\":2885:2889   */\n      dup2\n        /* \"#utility.yul\":2876:2882   */\n      dup7\n        /* \"#utility.yul\":2812:2890   */\n      tag_250\n      jump\t// in\n    tag_350:\n        /* \"#utility.yul\":2804:2890   */\n      swap1\n      pop\n        /* \"#utility.yul\":2900:2972   */\n      tag_351\n        /* \"#utility.yul\":2968:2970   */\n      0x20\n        /* \"#utility.yul\":2957:2966   */\n      dup4\n        /* \"#utility.yul\":2953:2971   */\n      add\n        /* \"#utility.yul\":2944:2950   */\n      dup6\n        /* \"#utility.yul\":2900:2972   */\n      tag_251\n      jump\t// in\n    tag_351:\n        /* \"#utility.yul\":2982:3048   */\n      tag_352\n        /* \"#utility.yul\":3044:3046   */\n      0x40\n        /* \"#utility.yul\":3033:3042   */\n      dup4\n        /* \"#utility.yul\":3029:3047   */\n      add\n        /* \"#utility.yul\":3020:3026   */\n      dup5\n        /* \"#utility.yul\":2982:3048   */\n      tag_253\n      jump\t// in\n    tag_352:\n        /* \"#utility.yul\":2534:3055   */\n      swap5\n      swap4\n      pop\n      pop\n      pop\n      pop\n      jump\t// out\n        /* \"#utility.yul\":3061:3138   */\n    tag_254:\n        /* \"#utility.yul\":3098:3105   */\n      0x00\n        /* \"#utility.yul\":3127:3132   */\n      dup2\n        /* \"#utility.yul\":3116:3132   */\n      swap1\n      pop\n        /* \"#utility.yul\":3061:3138   */\n      swap2\n      swap1\n      pop\n      jump\t// out\n        /* \"#utility.yul\":3144:3266   */\n    tag_255:\n        /* \"#utility.yul\":3217:3241   */\n      tag_355\n        /* \"#utility.yul\":3235:3240   */\n      dup2\n        /* \"#utility.yul\":3217:3241   */\n      tag_254\n      jump\t// in\n    tag_355:\n        /* \"#utility.yul\":3210:3215   */\n      dup2\n        /* \"#utility.yul\":3207:3242   */\n      eq\n        /* \"#utility.yul\":3197:3260   */\n      tag_356\n      jumpi\n        /* \"#utility.yul\":3256:3257   */\n      0x00\n        /* \"#utility.yul\":3253:3254   */\n      dup1\n        /* \"#utility.yul\":3246:3258   */\n      revert\n        /* \"#utility.yul\":3197:3260   */\n    tag_356:\n        /* \"#utility.yul\":3144:3266   */\n      pop\n      jump\t// out\n        /* \"#utility.yul\":3272:3411   */\n    tag_256:\n        /* \"#utility.yul\":3318:3323   */\n      0x00\n        /* \"#utility.yul\":3356:3362   */\n      dup2\n        /* \"#utility.yul\":3343:3363   */\n      calldataload\n        /* \"#utility.yul\":3334:3363   */\n      swap1\n      pop\n        /* \"#utility.yul\":3372:3405   */\n      tag_358\n        /* \"#utility.yul\":3399:3404   */\n      dup2\n        /* \"#utility.yul\":3372:3405   */\n      tag_255\n      jump\t// in\n    tag_358:\n        /* \"#utility.yul\":3272:3411   */\n      swap3\n      swap2\n      pop\n      pop\n      jump\t// out\n        /* \"#utility.yul\":3417:3746   */\n    tag_32:\n        /* \"#utility.yul\":3476:3482   */\n      0x00\n        /* \"#utility.yul\":3525:3527   */\n      0x20\n        /* \"#utility.yul\":3513:3522   */\n      dup3\n        /* \"#utility.yul\":3504:3511   */\n      dup5\n        /* \"#utility.yul\":3500:3523   */\n      sub\n        /* \"#utility.yul\":3496:3528   */\n      slt\n        /* \"#utility.yul\":3493:3612   */\n      iszero\n      tag_360\n      jumpi\n        /* \"#utility.yul\":3531:3610   */\n      tag_361\n      tag_240\n      jump\t// in\n    tag_361:\n        /* \"#utility.yul\":3493:3612   */\n    tag_360:\n        /* \"#utility.yul\":3651:3652   */\n      0x00\n        /* \"#utility.yul\":3676:3729   */\n      tag_362\n        /* \"#utility.yul\":3721:3728   */\n      dup5\n        /* \"#utility.yul\":3712:3718   */\n      dup3\n        /* \"#utility.yul\":3701:3710   */\n      dup6\n        /* \"#utility.yul\":3697:3719   */\n      add\n        /* \"#utility.yul\":3676:3729   */\n      tag_256\n      jump\t// in\n    tag_362:\n        /* \"#utility.yul\":3666:3729   */\n      swap2\n      pop\n        /* \"#utility.yul\":3622:3739   */\n      pop\n        /* \"#utility.yul\":3417:3746   */\n      swap3\n      swap2\n      pop\n      pop\n      jump\t// out\n        /* \"#utility.yul\":3752:3870   */\n    tag_257:\n        /* \"#utility.yul\":3839:3863   */\n      tag_364\n        /* \"#utility.yul\":3857:3862   */\n      dup2\n        /* \"#utility.yul\":3839:3863   */\n      tag_254\n      jump\t// in\n    tag_364:\n        /* \"#utility.yul\":3834:3837   */\n      dup3\n        /* \"#utility.yul\":3827:3864   */\n      mstore\n        /* \"#utility.yul\":3752:3870   */\n      pop\n      pop\n      jump\t// out\n        /* \"#utility.yul\":3876:4520   */\n    tag_35:\n        /* \"#utility.yul\":4073:4077   */\n      0x00\n        /* \"#utility.yul\":4111:4114   */\n      0x80\n        /* \"#utility.yul\":4100:4109   */\n      dup3\n        /* \"#utility.yul\":4096:4115   */\n      add\n        /* \"#utility.yul\":4088:4115   */\n      swap1\n      pop\n        /* \"#utility.yul\":4125:4196   */\n      tag_366\n        /* \"#utility.yul\":4193:4194   */\n      0x00\n        /* \"#utility.yul\":4182:4191   */\n      dup4\n        /* \"#utility.yul\":4178:4195   */\n      add\n        /* \"#utility.yul\":4169:4175   */\n      dup8\n        /* \"#utility.yul\":4125:4196   */\n      tag_257\n      jump\t// in\n    tag_366:\n        /* \"#utility.yul\":4206:4278   */\n      tag_367\n        /* \"#utility.yul\":4274:4276   */\n      0x20\n        /* \"#utility.yul\":4263:4272   */\n      dup4\n        /* \"#utility.yul\":4259:4277   */\n      add\n        /* \"#utility.yul\":4250:4256   */\n      dup7\n        /* \"#utility.yul\":4206:4278   */\n      tag_251\n      jump\t// in\n    tag_367:\n        /* \"#utility.yul\":4288:4360   */\n      tag_368\n        /* \"#utility.yul\":4356:4358   */\n      0x40\n        /* \"#utility.yul\":4345:4354   */\n      dup4\n        /* \"#utility.yul\":4341:4359   */\n      add\n        /* \"#utility.yul\":4332:4338   */\n      dup6\n        /* \"#utility.yul\":4288:4360   */\n      tag_251\n      jump\t// in\n    tag_368:\n        /* \"#utility.yul\":4407:4416   */\n      dup2\n        /* \"#utility.yul\":4401:4405   */\n      dup2\n        /* \"#utility.yul\":4397:4417   */\n      sub\n        /* \"#utility.yul\":4392:4394   */\n      0x60\n        /* \"#utility.yul\":4381:4390   */\n      dup4\n        /* \"#utility.yul\":4377:4395   */\n      add\n        /* \"#utility.yul\":4370:4418   */\n      mstore\n        /* \"#utility.yul\":4435:4513   */\n      tag_369\n        /* \"#utility.yul\":4508:4512   */\n      dup2\n        /* \"#utility.yul\":4499:4505   */\n      dup5\n        /* \"#utility.yul\":4435:4513   */\n      tag_250\n      jump\t// in\n    tag_369:\n        /* \"#utility.yul\":4427:4513   */\n      swap1\n      pop\n        /* \"#utility.yul\":3876:4520   */\n      swap6\n      swap5\n      pop\n      pop\n      pop\n      pop\n      pop\n      jump\t// out\n        /* \"#utility.yul\":4526:4736   */\n    tag_40:\n        /* \"#utility.yul\":4613:4617   */\n      0x00\n        /* \"#utility.yul\":4651:4653   */\n      0x20\n        /* \"#utility.yul\":4640:4649   */\n      dup3\n        /* \"#utility.yul\":4636:4654   */\n      add\n        /* \"#utility.yul\":4628:4654   */\n      swap1\n      pop\n        /* \"#utility.yul\":4664:4729   */\n      tag_371\n        /* \"#utility.yul\":4726:4727   */\n      0x00\n        /* \"#utility.yul\":4715:4724   */\n      dup4\n        /* \"#utility.yul\":4711:4728   */\n      add\n        /* \"#utility.yul\":4702:4708   */\n      dup5\n        /* \"#utility.yul\":4664:4729   */\n      tag_253\n      jump\t// in\n    tag_371:\n        /* \"#utility.yul\":4526:4736   */\n      swap3\n      swap2\n      pop\n      pop\n      jump\t// out\n        /* \"#utility.yul\":4742:4964   */\n    tag_44:\n        /* \"#utility.yul\":4835:4839   */\n      0x00\n        /* \"#utility.yul\":4873:4875   */\n      0x20\n        /* \"#utility.yul\":4862:4871   */\n      dup3\n        /* \"#utility.yul\":4858:4876   */\n      add\n        /* \"#utility.yul\":4850:4876   */\n      swap1\n      pop\n        /* \"#utility.yul\":4886:4957   */\n      tag_373\n        /* \"#utility.yul\":4954:4955   */\n      0x00\n        /* \"#utility.yul\":4943:4952   */\n      dup4\n        /* \"#utility.yul\":4939:4956   */\n      add\n        /* \"#utility.yul\":4930:4936   */\n      dup5\n        /* \"#utility.yul\":4886:4957   */\n      tag_251\n      jump\t// in\n    tag_373:\n        /* \"#utility.yul\":4742:4964   */\n      swap3\n      swap2\n      pop\n      pop\n      jump\t// out\n        /* \"#utility.yul\":4970:5086   */\n    tag_258:\n        /* \"#utility.yul\":5040:5061   */\n      tag_375\n        /* \"#utility.yul\":5055:5060   */\n      dup2\n        /* \"#utility.yul\":5040:5061   */\n      tag_252\n      jump\t// in\n    tag_375:\n        /* \"#utility.yul\":5033:5038   */\n      dup2\n        /* \"#utility.yul\":5030:5062   */\n      eq\n        /* \"#utility.yul\":5020:5080   */\n      tag_376\n      jumpi\n        /* \"#utility.yul\":5076:5077   */\n      0x00\n        /* \"#utility.yul\":5073:5074   */\n      dup1\n        /* \"#utility.yul\":5066:5078   */\n      revert\n        /* \"#utility.yul\":5020:5080   */\n    tag_376:\n        /* \"#utility.yul\":4970:5086   */\n      pop\n      jump\t// out\n        /* \"#utility.yul\":5092:5225   */\n    tag_259:\n        /* \"#utility.yul\":5135:5140   */\n      0x00\n        /* \"#utility.yul\":5173:5179   */\n      dup2\n        /* \"#utility.yul\":5160:5180   */\n      calldataload\n        /* \"#utility.yul\":5151:5180   */\n      swap1\n      pop\n        /* \"#utility.yul\":5189:5219   */\n      tag_378\n        /* \"#utility.yul\":5213:5218   */\n      dup2\n        /* \"#utility.yul\":5189:5219   */\n      tag_258\n      jump\t// in\n    tag_378:\n        /* \"#utility.yul\":5092:5225   */\n      swap3\n      swap2\n      pop\n      pop\n      jump\t// out\n        /* \"#utility.yul\":5231:5699   */\n    tag_47:\n        /* \"#utility.yul\":5296:5302   */\n      0x00\n        /* \"#utility.yul\":5304:5310   */\n      dup1\n        /* \"#utility.yul\":5353:5355   */\n      0x40\n        /* \"#utility.yul\":5341:5350   */\n      dup4\n        /* \"#utility.yul\":5332:5339   */\n      dup6\n        /* \"#utility.yul\":5328:5351   */\n      sub\n        /* \"#utility.yul\":5324:5356   */\n      slt\n        /* \"#utility.yul\":5321:5440   */\n      iszero\n      tag_380\n      jumpi\n        /* \"#utility.yul\":5359:5438   */\n      tag_381\n      tag_240\n      jump\t// in\n    tag_381:\n        /* \"#utility.yul\":5321:5440   */\n    tag_380:\n        /* \"#utility.yul\":5479:5480   */\n      0x00\n        /* \"#utility.yul\":5504:5557   */\n      tag_382\n        /* \"#utility.yul\":5549:5556   */\n      dup6\n        /* \"#utility.yul\":5540:5546   */\n      dup3\n        /* \"#utility.yul\":5529:5538   */\n      dup7\n        /* \"#utility.yul\":5525:5547   */\n      add\n        /* \"#utility.yul\":5504:5557   */\n      tag_256\n      jump\t// in\n    tag_382:\n        /* \"#utility.yul\":5494:5557   */\n      swap3\n      pop\n        /* \"#utility.yul\":5450:5567   */\n      pop\n        /* \"#utility.yul\":5606:5608   */\n      0x20\n        /* \"#utility.yul\":5632:5682   */\n      tag_383\n        /* \"#utility.yul\":5674:5681   */\n      dup6\n        /* \"#utility.yul\":5665:5671   */\n      dup3\n        /* \"#utility.yul\":5654:5663   */\n      dup7\n        /* \"#utility.yul\":5650:5672   */\n      add\n        /* \"#utility.yul\":5632:5682   */\n      tag_259\n      jump\t// in\n    tag_383:\n        /* \"#utility.yul\":5622:5682   */\n      swap2\n      pop\n        /* \"#utility.yul\":5577:5692   */\n      pop\n        /* \"#utility.yul\":5231:5699   */\n      swap3\n      pop\n      swap3\n      swap1\n      pop\n      jump\t// out\n        /* \"#utility.yul\":5705:6460   */\n    tag_57:\n        /* \"#utility.yul\":5930:5934   */\n      0x00\n        /* \"#utility.yul\":5968:5971   */\n      0xa0\n        /* \"#utility.yul\":5957:5966   */\n      dup3\n        /* \"#utility.yul\":5953:5972   */\n      add\n        /* \"#utility.yul\":5945:5972   */\n      swap1\n      pop\n        /* \"#utility.yul\":5982:6053   */\n      tag_385\n        /* \"#utility.yul\":6050:6051   */\n      0x00\n        /* \"#utility.yul\":6039:6048   */\n      dup4\n        /* \"#utility.yul\":6035:6052   */\n      add\n        /* \"#utility.yul\":6026:6032   */\n      dup9\n        /* \"#utility.yul\":5982:6053   */\n      tag_257\n      jump\t// in\n    tag_385:\n        /* \"#utility.yul\":6063:6135   */\n      tag_386\n        /* \"#utility.yul\":6131:6133   */\n      0x20\n        /* \"#utility.yul\":6120:6129   */\n      dup4\n        /* \"#utility.yul\":6116:6134   */\n      add\n        /* \"#utility.yul\":6107:6113   */\n      dup8\n        /* \"#utility.yul\":6063:6135   */\n      tag_251\n      jump\t// in\n    tag_386:\n        /* \"#utility.yul\":6145:6217   */\n      tag_387\n        /* \"#utility.yul\":6213:6215   */\n      0x40\n        /* \"#utility.yul\":6202:6211   */\n      dup4\n        /* \"#utility.yul\":6198:6216   */\n      add\n        /* \"#utility.yul\":6189:6195   */\n      dup7\n        /* \"#utility.yul\":6145:6217   */\n      tag_251\n      jump\t// in\n    tag_387:\n        /* \"#utility.yul\":6264:6273   */\n      dup2\n        /* \"#utility.yul\":6258:6262   */\n      dup2\n        /* \"#utility.yul\":6254:6274   */\n      sub\n        /* \"#utility.yul\":6249:6251   */\n      0x60\n        /* \"#utility.yul\":6238:6247   */\n      dup4\n        /* \"#utility.yul\":6234:6252   */\n      add\n        /* \"#utility.yul\":6227:6275   */\n      mstore\n        /* \"#utility.yul\":6292:6370   */\n      tag_388\n        /* \"#utility.yul\":6365:6369   */\n      dup2\n        /* \"#utility.yul\":6356:6362   */\n      dup6\n        /* \"#utility.yul\":6292:6370   */\n      tag_250\n      jump\t// in\n    tag_388:\n        /* \"#utility.yul\":6284:6370   */\n      swap1\n      pop\n        /* \"#utility.yul\":6380:6453   */\n      tag_389\n        /* \"#utility.yul\":6448:6451   */\n      0x80\n        /* \"#utility.yul\":6437:6446   */\n      dup4\n        /* \"#utility.yul\":6433:6452   */\n      add\n        /* \"#utility.yul\":6424:6430   */\n      dup5\n        /* \"#utility.yul\":6380:6453   */\n      tag_251\n      jump\t// in\n    tag_389:\n        /* \"#utility.yul\":5705:6460   */\n      swap7\n      swap6\n      pop\n      pop\n      pop\n      pop\n      pop\n      pop\n      jump\t// out\n        /* \"#utility.yul\":6466:6583   */\n    tag_260:\n        /* \"#utility.yul\":6575:6576   */\n      0x00\n        /* \"#utility.yul\":6572:6573   */\n      dup1\n        /* \"#utility.yul\":6565:6577   */\n      revert\n        /* \"#utility.yul\":6589:6706   */\n    tag_261:\n        /* \"#utility.yul\":6698:6699   */\n      0x00\n        /* \"#utility.yul\":6695:6696   */\n      dup1\n        /* \"#utility.yul\":6688:6700   */\n      revert\n        /* \"#utility.yul\":6712:6892   */\n    tag_262:\n        /* \"#utility.yul\":6760:6837   */\n      0x4e487b7100000000000000000000000000000000000000000000000000000000\n        /* \"#utility.yul\":6757:6758   */\n      0x00\n        /* \"#utility.yul\":6750:6838   */\n      mstore\n        /* \"#utility.yul\":6857:6861   */\n      0x41\n        /* \"#utility.yul\":6854:6855   */\n      0x04\n        /* \"#utility.yul\":6847:6862   */\n      mstore\n        /* \"#utility.yul\":6881:6885   */\n      0x24\n        /* \"#utility.yul\":6878:6879   */\n      0x00\n        /* \"#utility.yul\":6871:6886   */\n      revert\n        /* \"#utility.yul\":6898:7179   */\n    tag_263:\n        /* \"#utility.yul\":6981:7008   */\n      tag_394\n        /* \"#utility.yul\":7003:7007   */\n      dup3\n        /* \"#utility.yul\":6981:7008   */\n      tag_249\n      jump\t// in\n    tag_394:\n        /* \"#utility.yul\":6973:6979   */\n      dup2\n        /* \"#utility.yul\":6969:7009   */\n      add\n        /* \"#utility.yul\":7111:7117   */\n      dup2\n        /* \"#utility.yul\":7099:7109   */\n      dup2\n        /* \"#utility.yul\":7096:7118   */\n      lt\n        /* \"#utility.yul\":7075:7093   */\n      0xffffffffffffffff\n        /* \"#utility.yul\":7063:7073   */\n      dup3\n        /* \"#utility.yul\":7060:7094   */\n      gt\n        /* \"#utility.yul\":7057:7119   */\n      or\n        /* \"#utility.yul\":7054:7142   */\n      iszero\n      tag_395\n      jumpi\n        /* \"#utility.yul\":7122:7140   */\n      tag_396\n      tag_262\n      jump\t// in\n    tag_396:\n        /* \"#utility.yul\":7054:7142   */\n    tag_395:\n        /* \"#utility.yul\":7162:7172   */\n      dup1\n        /* \"#utility.yul\":7158:7160   */\n      0x40\n        /* \"#utility.yul\":7151:7173   */\n      mstore\n        /* \"#utility.yul\":6941:7179   */\n      pop\n        /* \"#utility.yul\":6898:7179   */\n      pop\n      pop\n      jump\t// out\n        /* \"#utility.yul\":7185:7314   */\n    tag_264:\n        /* \"#utility.yul\":7219:7225   */\n      0x00\n        /* \"#utility.yul\":7246:7266   */\n      tag_398\n      tag_239\n      jump\t// in\n    tag_398:\n        /* \"#utility.yul\":7236:7266   */\n      swap1\n      pop\n        /* \"#utility.yul\":7275:7308   */\n      tag_399\n        /* \"#utility.yul\":7303:7307   */\n      dup3\n        /* \"#utility.yul\":7295:7301   */\n      dup3\n        /* \"#utility.yul\":7275:7308   */\n      tag_263\n      jump\t// in\n    tag_399:\n        /* \"#utility.yul\":7185:7314   */\n      swap2\n      swap1\n      pop\n      jump\t// out\n        /* \"#utility.yul\":7320:7628   */\n    tag_265:\n        /* \"#utility.yul\":7382:7386   */\n      0x00\n        /* \"#utility.yul\":7472:7490   */\n      0xffffffffffffffff\n        /* \"#utility.yul\":7464:7470   */\n      dup3\n        /* \"#utility.yul\":7461:7491   */\n      gt\n        /* \"#utility.yul\":7458:7514   */\n      iszero\n      tag_401\n      jumpi\n        /* \"#utility.yul\":7494:7512   */\n      tag_402\n      tag_262\n      jump\t// in\n    tag_402:\n        /* \"#utility.yul\":7458:7514   */\n    tag_401:\n        /* \"#utility.yul\":7532:7561   */\n      tag_403\n        /* \"#utility.yul\":7554:7560   */\n      dup3\n        /* \"#utility.yul\":7532:7561   */\n      tag_249\n      jump\t// in\n    tag_403:\n        /* \"#utility.yul\":7524:7561   */\n      swap1\n      pop\n        /* \"#utility.yul\":7616:7620   */\n      0x20\n        /* \"#utility.yul\":7610:7614   */\n      dup2\n        /* \"#utility.yul\":7606:7621   */\n      add\n        /* \"#utility.yul\":7598:7621   */\n      swap1\n      pop\n        /* \"#utility.yul\":7320:7628   */\n      swap2\n      swap1\n      pop\n      jump\t// out\n        /* \"#utility.yul\":7634:7780   */\n    tag_266:\n        /* \"#utility.yul\":7731:7737   */\n      dup3\n        /* \"#utility.yul\":7726:7729   */\n      dup2\n        /* \"#utility.yul\":7721:7724   */\n      dup4\n        /* \"#utility.yul\":7708:7738   */\n      calldatacopy\n        /* \"#utility.yul\":7772:7773   */\n      0x00\n        /* \"#utility.yul\":7763:7769   */\n      dup4\n        /* \"#utility.yul\":7758:7761   */\n      dup4\n        /* \"#utility.yul\":7754:7770   */\n      add\n        /* \"#utility.yul\":7747:7774   */\n      mstore\n        /* \"#utility.yul\":7634:7780   */\n      pop\n      pop\n      pop\n      jump\t// out\n        /* \"#utility.yul\":7786:8211   */\n    tag_267:\n        /* \"#utility.yul\":7864:7869   */\n      0x00\n        /* \"#utility.yul\":7889:7955   */\n      tag_406\n        /* \"#utility.yul\":7905:7954   */\n      tag_407\n        /* \"#utility.yul\":7947:7953   */\n      dup5\n        /* \"#utility.yul\":7905:7954   */\n      tag_265\n      jump\t// in\n    tag_407:\n        /* \"#utility.yul\":7889:7955   */\n      tag_264\n      jump\t// in\n    tag_406:\n        /* \"#utility.yul\":7880:7955   */\n      swap1\n      pop\n        /* \"#utility.yul\":7978:7984   */\n      dup3\n        /* \"#utility.yul\":7971:7976   */\n      dup2\n        /* \"#utility.yul\":7964:7985   */\n      mstore\n        /* \"#utility.yul\":8016:8020   */\n      0x20\n        /* \"#utility.yul\":8009:8014   */\n      dup2\n        /* \"#utility.yul\":8005:8021   */\n      add\n        /* \"#utility.yul\":8054:8057   */\n      dup5\n        /* \"#utility.yul\":8045:8051   */\n      dup5\n        /* \"#utility.yul\":8040:8043   */\n      dup5\n        /* \"#utility.yul\":8036:8052   */\n      add\n        /* \"#utility.yul\":8033:8058   */\n      gt\n        /* \"#utility.yul\":8030:8142   */\n      iszero\n      tag_408\n      jumpi\n        /* \"#utility.yul\":8061:8140   */\n      tag_409\n      tag_261\n      jump\t// in\n    tag_409:\n        /* \"#utility.yul\":8030:8142   */\n    tag_408:\n        /* \"#utility.yul\":8151:8205   */\n      tag_410\n        /* \"#utility.yul\":8198:8204   */\n      dup5\n        /* \"#utility.yul\":8193:8196   */\n      dup3\n        /* \"#utility.yul\":8188:8191   */\n      dup6\n        /* \"#utility.yul\":8151:8205   */\n      tag_266\n      jump\t// in\n    tag_410:\n        /* \"#utility.yul\":7870:8211   */\n      pop\n        /* \"#utility.yul\":7786:8211   */\n      swap4\n      swap3\n      pop\n      pop\n      pop\n      jump\t// out\n        /* \"#utility.yul\":8231:8571   */\n    tag_268:\n        /* \"#utility.yul\":8287:8292   */\n      0x00\n        /* \"#utility.yul\":8336:8339   */\n      dup3\n        /* \"#utility.yul\":8329:8333   */\n      0x1f\n        /* \"#utility.yul\":8321:8327   */\n      dup4\n        /* \"#utility.yul\":8317:8334   */\n      add\n        /* \"#utility.yul\":8313:8340   */\n      slt\n        /* \"#utility.yul\":8303:8425   */\n      tag_412\n      jumpi\n        /* \"#utility.yul\":8344:8423   */\n      tag_413\n      tag_260\n      jump\t// in\n    tag_413:\n        /* \"#utility.yul\":8303:8425   */\n    tag_412:\n        /* \"#utility.yul\":8461:8467   */\n      dup2\n        /* \"#utility.yul\":8448:8468   */\n      calldataload\n        /* \"#utility.yul\":8486:8565   */\n      tag_414\n        /* \"#utility.yul\":8561:8564   */\n      dup5\n        /* \"#utility.yul\":8553:8559   */\n      dup3\n        /* \"#utility.yul\":8546:8550   */\n      0x20\n        /* \"#utility.yul\":8538:8544   */\n      dup7\n        /* \"#utility.yul\":8534:8551   */\n      add\n        /* \"#utility.yul\":8486:8565   */\n      tag_267\n      jump\t// in\n    tag_414:\n        /* \"#utility.yul\":8477:8565   */\n      swap2\n      pop\n        /* \"#utility.yul\":8293:8571   */\n      pop\n        /* \"#utility.yul\":8231:8571   */\n      swap3\n      swap2\n      pop\n      pop\n      jump\t// out\n        /* \"#utility.yul\":8577:9225   */\n    tag_60:\n        /* \"#utility.yul\":8652:8658   */\n      0x00\n        /* \"#utility.yul\":8660:8666   */\n      dup1\n        /* \"#utility.yul\":8709:8711   */\n      0x40\n        /* \"#utility.yul\":8697:8706   */\n      dup4\n        /* \"#utility.yul\":8688:8695   */\n      dup6\n        /* \"#utility.yul\":8684:8707   */\n      sub\n        /* \"#utility.yul\":8680:8712   */\n      slt\n        /* \"#utility.yul\":8677:8796   */\n      iszero\n      tag_416\n      jumpi\n        /* \"#utility.yul\":8715:8794   */\n      tag_417\n      tag_240\n      jump\t// in\n    tag_417:\n        /* \"#utility.yul\":8677:8796   */\n    tag_416:\n        /* \"#utility.yul\":8863:8864   */\n      0x00\n        /* \"#utility.yul\":8852:8861   */\n      dup4\n        /* \"#utility.yul\":8848:8865   */\n      add\n        /* \"#utility.yul\":8835:8866   */\n      calldataload\n        /* \"#utility.yul\":8893:8911   */\n      0xffffffffffffffff\n        /* \"#utility.yul\":8885:8891   */\n      dup2\n        /* \"#utility.yul\":8882:8912   */\n      gt\n        /* \"#utility.yul\":8879:8996   */\n      iszero\n      tag_418\n      jumpi\n        /* \"#utility.yul\":8915:8994   */\n      tag_419\n      tag_241\n      jump\t// in\n    tag_419:\n        /* \"#utility.yul\":8879:8996   */\n    tag_418:\n        /* \"#utility.yul\":9020:9083   */\n      tag_420\n        /* \"#utility.yul\":9075:9082   */\n      dup6\n        /* \"#utility.yul\":9066:9072   */\n      dup3\n        /* \"#utility.yul\":9055:9064   */\n      dup7\n        /* \"#utility.yul\":9051:9073   */\n      add\n        /* \"#utility.yul\":9020:9083   */\n      tag_268\n      jump\t// in\n    tag_420:\n        /* \"#utility.yul\":9010:9083   */\n      swap3\n      pop\n        /* \"#utility.yul\":8806:9093   */\n      pop\n        /* \"#utility.yul\":9132:9134   */\n      0x20\n        /* \"#utility.yul\":9158:9208   */\n      tag_421\n        /* \"#utility.yul\":9200:9207   */\n      dup6\n        /* \"#utility.yul\":9191:9197   */\n      dup3\n        /* \"#utility.yul\":9180:9189   */\n      dup7\n        /* \"#utility.yul\":9176:9198   */\n      add\n        /* \"#utility.yul\":9158:9208   */\n      tag_259\n      jump\t// in\n    tag_421:\n        /* \"#utility.yul\":9148:9208   */\n      swap2\n      pop\n        /* \"#utility.yul\":9103:9218   */\n      pop\n        /* \"#utility.yul\":8577:9225   */\n      swap3\n      pop\n      swap3\n      swap1\n      pop\n      jump\t// out\n        /* \"#utility.yul\":9231:9740   */\n    tag_64:\n        /* \"#utility.yul\":9300:9306   */\n      0x00\n        /* \"#utility.yul\":9349:9351   */\n      0x20\n        /* \"#utility.yul\":9337:9346   */\n      dup3\n        /* \"#utility.yul\":9328:9335   */\n      dup5\n        /* \"#utility.yul\":9324:9347   */\n      sub\n        /* \"#utility.yul\":9320:9352   */\n      slt\n        /* \"#utility.yul\":9317:9436   */\n      iszero\n      tag_423\n      jumpi\n        /* \"#utility.yul\":9355:9434   */\n      tag_424\n      tag_240\n      jump\t// in\n    tag_424:\n        /* \"#utility.yul\":9317:9436   */\n    tag_423:\n        /* \"#utility.yul\":9503:9504   */\n      0x00\n        /* \"#utility.yul\":9492:9501   */\n      dup3\n        /* \"#utility.yul\":9488:9505   */\n      add\n        /* \"#utility.yul\":9475:9506   */\n      calldataload\n        /* \"#utility.yul\":9533:9551   */\n      0xffffffffffffffff\n        /* \"#utility.yul\":9525:9531   */\n      dup2\n        /* \"#utility.yul\":9522:9552   */\n      gt\n        /* \"#utility.yul\":9519:9636   */\n      iszero\n      tag_425\n      jumpi\n        /* \"#utility.yul\":9555:9634   */\n      tag_426\n      tag_241\n      jump\t// in\n    tag_426:\n        /* \"#utility.yul\":9519:9636   */\n    tag_425:\n        /* \"#utility.yul\":9660:9723   */\n      tag_427\n        /* \"#utility.yul\":9715:9722   */\n      dup5\n        /* \"#utility.yul\":9706:9712   */\n      dup3\n        /* \"#utility.yul\":9695:9704   */\n      dup6\n        /* \"#utility.yul\":9691:9713   */\n      add\n        /* \"#utility.yul\":9660:9723   */\n      tag_268\n      jump\t// in\n    tag_427:\n        /* \"#utility.yul\":9650:9723   */\n      swap2\n      pop\n        /* \"#utility.yul\":9446:9733   */\n      pop\n        /* \"#utility.yul\":9231:9740   */\n      swap3\n      swap2\n      pop\n      pop\n      jump\t// out\n        /* \"#utility.yul\":9746:10580   */\n    tag_67:\n        /* \"#utility.yul\":9985:9989   */\n      0x00\n        /* \"#utility.yul\":10023:10026   */\n      0xa0\n        /* \"#utility.yul\":10012:10021   */\n      dup3\n        /* \"#utility.yul\":10008:10027   */\n      add\n        /* \"#utility.yul\":10000:10027   */\n      swap1\n      pop\n        /* \"#utility.yul\":10037:10108   */\n      tag_429\n        /* \"#utility.yul\":10105:10106   */\n      0x00\n        /* \"#utility.yul\":10094:10103   */\n      dup4\n        /* \"#utility.yul\":10090:10107   */\n      add\n        /* \"#utility.yul\":10081:10087   */\n      dup9\n        /* \"#utility.yul\":10037:10108   */\n      tag_251\n      jump\t// in\n    tag_429:\n        /* \"#utility.yul\":10155:10164   */\n      dup2\n        /* \"#utility.yul\":10149:10153   */\n      dup2\n        /* \"#utility.yul\":10145:10165   */\n      sub\n        /* \"#utility.yul\":10140:10142   */\n      0x20\n        /* \"#utility.yul\":10129:10138   */\n      dup4\n        /* \"#utility.yul\":10125:10143   */\n      add\n        /* \"#utility.yul\":10118:10166   */\n      mstore\n        /* \"#utility.yul\":10183:10261   */\n      tag_430\n        /* \"#utility.yul\":10256:10260   */\n      dup2\n        /* \"#utility.yul\":10247:10253   */\n      dup8\n        /* \"#utility.yul\":10183:10261   */\n      tag_250\n      jump\t// in\n    tag_430:\n        /* \"#utility.yul\":10175:10261   */\n      swap1\n      pop\n        /* \"#utility.yul\":10308:10317   */\n      dup2\n        /* \"#utility.yul\":10302:10306   */\n      dup2\n        /* \"#utility.yul\":10298:10318   */\n      sub\n        /* \"#utility.yul\":10293:10295   */\n      0x40\n        /* \"#utility.yul\":10282:10291   */\n      dup4\n        /* \"#utility.yul\":10278:10296   */\n      add\n        /* \"#utility.yul\":10271:10319   */\n      mstore\n        /* \"#utility.yul\":10336:10414   */\n      tag_431\n        /* \"#utility.yul\":10409:10413   */\n      dup2\n        /* \"#utility.yul\":10400:10406   */\n      dup7\n        /* \"#utility.yul\":10336:10414   */\n      tag_250\n      jump\t// in\n    tag_431:\n        /* \"#utility.yul\":10328:10414   */\n      swap1\n      pop\n        /* \"#utility.yul\":10424:10490   */\n      tag_432\n        /* \"#utility.yul\":10486:10488   */\n      0x60\n        /* \"#utility.yul\":10475:10484   */\n      dup4\n        /* \"#utility.yul\":10471:10489   */\n      add\n        /* \"#utility.yul\":10462:10468   */\n      dup6\n        /* \"#utility.yul\":10424:10490   */\n      tag_253\n      jump\t// in\n    tag_432:\n        /* \"#utility.yul\":10500:10573   */\n      tag_433\n        /* \"#utility.yul\":10568:10571   */\n      0x80\n        /* \"#utility.yul\":10557:10566   */\n      dup4\n        /* \"#utility.yul\":10553:10572   */\n      add\n        /* \"#utility.yul\":10544:10550   */\n      dup5\n        /* \"#utility.yul\":10500:10573   */\n      tag_257\n      jump\t// in\n    tag_433:\n        /* \"#utility.yul\":9746:10580   */\n      swap7\n      swap6\n      pop\n      pop\n      pop\n      pop\n      pop\n      pop\n      jump\t// out\n        /* \"#utility.yul\":10586:11240   */\n    tag_73:\n        /* \"#utility.yul\":10664:10670   */\n      0x00\n        /* \"#utility.yul\":10672:10678   */\n      dup1\n        /* \"#utility.yul\":10721:10723   */\n      0x40\n        /* \"#utility.yul\":10709:10718   */\n      dup4\n        /* \"#utility.yul\":10700:10707   */\n      dup6\n        /* \"#utility.yul\":10696:10719   */\n      sub\n        /* \"#utility.yul\":10692:10724   */\n      slt\n        /* \"#utility.yul\":10689:10808   */\n      iszero\n      tag_435\n      jumpi\n        /* \"#utility.yul\":10727:10806   */\n      tag_436\n      tag_240\n      jump\t// in\n    tag_436:\n        /* \"#utility.yul\":10689:10808   */\n    tag_435:\n        /* \"#utility.yul\":10847:10848   */\n      0x00\n        /* \"#utility.yul\":10872:10925   */\n      tag_437\n        /* \"#utility.yul\":10917:10924   */\n      dup6\n        /* \"#utility.yul\":10908:10914   */\n      dup3\n        /* \"#utility.yul\":10897:10906   */\n      dup7\n        /* \"#utility.yul\":10893:10915   */\n      add\n        /* \"#utility.yul\":10872:10925   */\n      tag_256\n      jump\t// in\n    tag_437:\n        /* \"#utility.yul\":10862:10925   */\n      swap3\n      pop\n        /* \"#utility.yul\":10818:10935   */\n      pop\n        /* \"#utility.yul\":11002:11004   */\n      0x20\n        /* \"#utility.yul\":10991:11000   */\n      dup4\n        /* \"#utility.yul\":10987:11005   */\n      add\n        /* \"#utility.yul\":10974:11006   */\n      calldataload\n        /* \"#utility.yul\":11033:11051   */\n      0xffffffffffffffff\n        /* \"#utility.yul\":11025:11031   */\n      dup2\n        /* \"#utility.yul\":11022:11052   */\n      gt\n        /* \"#utility.yul\":11019:11136   */\n      iszero\n      tag_438\n      jumpi\n        /* \"#utility.yul\":11055:11134   */\n      tag_439\n      tag_241\n      jump\t// in\n    tag_439:\n        /* \"#utility.yul\":11019:11136   */\n    tag_438:\n        /* \"#utility.yul\":11160:11223   */\n      tag_440\n        /* \"#utility.yul\":11215:11222   */\n      dup6\n        /* \"#utility.yul\":11206:11212   */\n      dup3\n        /* \"#utility.yul\":11195:11204   */\n      dup7\n        /* \"#utility.yul\":11191:11213   */\n      add\n        /* \"#utility.yul\":11160:11223   */\n      tag_268\n      jump\t// in\n    tag_440:\n        /* \"#utility.yul\":11150:11223   */\n      swap2\n      pop\n        /* \"#utility.yul\":10945:11233   */\n      pop\n        /* \"#utility.yul\":10586:11240   */\n      swap3\n      pop\n      swap3\n      swap1\n      pop\n      jump\t// out\n        /* \"#utility.yul\":11246:11468   */\n    tag_79:\n        /* \"#utility.yul\":11339:11343   */\n      0x00\n        /* \"#utility.yul\":11377:11379   */\n      0x20\n        /* \"#utility.yul\":11366:11375   */\n      dup3\n        /* \"#utility.yul\":11362:11380   */\n      add\n        /* \"#utility.yul\":11354:11380   */\n      swap1\n      pop\n        /* \"#utility.yul\":11390:11461   */\n      tag_442\n        /* \"#utility.yul\":11458:11459   */\n      0x00\n        /* \"#utility.yul\":11447:11456   */\n      dup4\n        /* \"#utility.yul\":11443:11460   */\n      add\n        /* \"#utility.yul\":11434:11440   */\n      dup5\n        /* \"#utility.yul\":11390:11461   */\n      tag_257\n      jump\t// in\n    tag_442:\n        /* \"#utility.yul\":11246:11468   */\n      swap3\n      swap2\n      pop\n      pop\n      jump\t// out\n        /* \"#utility.yul\":11474:12629   */\n    tag_84:\n        /* \"#utility.yul\":11791:11795   */\n      0x00\n        /* \"#utility.yul\":11829:11832   */\n      0x0100\n        /* \"#utility.yul\":11818:11827   */\n      dup3\n        /* \"#utility.yul\":11814:11833   */\n      add\n        /* \"#utility.yul\":11806:11833   */\n      swap1\n      pop\n        /* \"#utility.yul\":11843:11914   */\n      tag_444\n        /* \"#utility.yul\":11911:11912   */\n      0x00\n        /* \"#utility.yul\":11900:11909   */\n      dup4\n        /* \"#utility.yul\":11896:11913   */\n      add\n        /* \"#utility.yul\":11887:11893   */\n      dup12\n        /* \"#utility.yul\":11843:11914   */\n      tag_251\n      jump\t// in\n    tag_444:\n        /* \"#utility.yul\":11924:11996   */\n      tag_445\n        /* \"#utility.yul\":11992:11994   */\n      0x20\n        /* \"#utility.yul\":11981:11990   */\n      dup4\n        /* \"#utility.yul\":11977:11995   */\n      add\n        /* \"#utility.yul\":11968:11974   */\n      dup11\n        /* \"#utility.yul\":11924:11996   */\n      tag_251\n      jump\t// in\n    tag_445:\n        /* \"#utility.yul\":12043:12052   */\n      dup2\n        /* \"#utility.yul\":12037:12041   */\n      dup2\n        /* \"#utility.yul\":12033:12053   */\n      sub\n        /* \"#utility.yul\":12028:12030   */\n      0x40\n        /* \"#utility.yul\":12017:12026   */\n      dup4\n        /* \"#utility.yul\":12013:12031   */\n      add\n        /* \"#utility.yul\":12006:12054   */\n      mstore\n        /* \"#utility.yul\":12071:12149   */\n      tag_446\n        /* \"#utility.yul\":12144:12148   */\n      dup2\n        /* \"#utility.yul\":12135:12141   */\n      dup10\n        /* \"#utility.yul\":12071:12149   */\n      tag_250\n      jump\t// in\n    tag_446:\n        /* \"#utility.yul\":12063:12149   */\n      swap1\n      pop\n        /* \"#utility.yul\":12196:12205   */\n      dup2\n        /* \"#utility.yul\":12190:12194   */\n      dup2\n        /* \"#utility.yul\":12186:12206   */\n      sub\n        /* \"#utility.yul\":12181:12183   */\n      0x60\n        /* \"#utility.yul\":12170:12179   */\n      dup4\n        /* \"#utility.yul\":12166:12184   */\n      add\n        /* \"#utility.yul\":12159:12207   */\n      mstore\n        /* \"#utility.yul\":12224:12302   */\n      tag_447\n        /* \"#utility.yul\":12297:12301   */\n      dup2\n        /* \"#utility.yul\":12288:12294   */\n      dup9\n        /* \"#utility.yul\":12224:12302   */\n      tag_250\n      jump\t// in\n    tag_447:\n        /* \"#utility.yul\":12216:12302   */\n      swap1\n      pop\n        /* \"#utility.yul\":12312:12385   */\n      tag_448\n        /* \"#utility.yul\":12380:12383   */\n      0x80\n        /* \"#utility.yul\":12369:12378   */\n      dup4\n        /* \"#utility.yul\":12365:12384   */\n      add\n        /* \"#utility.yul\":12356:12362   */\n      dup8\n        /* \"#utility.yul\":12312:12385   */\n      tag_257\n      jump\t// in\n    tag_448:\n        /* \"#utility.yul\":12395:12468   */\n      tag_449\n        /* \"#utility.yul\":12463:12466   */\n      0xa0\n        /* \"#utility.yul\":12452:12461   */\n      dup4\n        /* \"#utility.yul\":12448:12467   */\n      add\n        /* \"#utility.yul\":12439:12445   */\n      dup7\n        /* \"#utility.yul\":12395:12468   */\n      tag_257\n      jump\t// in\n    tag_449:\n        /* \"#utility.yul\":12478:12545   */\n      tag_450\n        /* \"#utility.yul\":12540:12543   */\n      0xc0\n        /* \"#utility.yul\":12529:12538   */\n      dup4\n        /* \"#utility.yul\":12525:12544   */\n      add\n        /* \"#utility.yul\":12516:12522   */\n      dup6\n        /* \"#utility.yul\":12478:12545   */\n      tag_253\n      jump\t// in\n    tag_450:\n        /* \"#utility.yul\":12555:12622   */\n      tag_451\n        /* \"#utility.yul\":12617:12620   */\n      0xe0\n        /* \"#utility.yul\":12606:12615   */\n      dup4\n        /* \"#utility.yul\":12602:12621   */\n      add\n        /* \"#utility.yul\":12593:12599   */\n      dup5\n        /* \"#utility.yul\":12555:12622   */\n      tag_253\n      jump\t// in\n    tag_451:\n        /* \"#utility.yul\":11474:12629   */\n      swap10\n      swap9\n      pop\n      pop\n      pop\n      pop\n      pop\n      pop\n      pop\n      pop\n      pop\n      jump\t// out\n        /* \"#utility.yul\":12635:13168   */\n    tag_89:\n        /* \"#utility.yul\":12804:12808   */\n      0x00\n        /* \"#utility.yul\":12842:12844   */\n      0x60\n        /* \"#utility.yul\":12831:12840   */\n      dup3\n        /* \"#utility.yul\":12827:12845   */\n      add\n        /* \"#utility.yul\":12819:12845   */\n      swap1\n      pop\n        /* \"#utility.yul\":12855:12926   */\n      tag_453\n        /* \"#utility.yul\":12923:12924   */\n      0x00\n        /* \"#utility.yul\":12912:12921   */\n      dup4\n        /* \"#utility.yul\":12908:12925   */\n      add\n        /* \"#utility.yul\":12899:12905   */\n      dup7\n        /* \"#utility.yul\":12855:12926   */\n      tag_257\n      jump\t// in\n    tag_453:\n        /* \"#utility.yul\":12936:13008   */\n      tag_454\n        /* \"#utility.yul\":13004:13006   */\n      0x20\n        /* \"#utility.yul\":12993:13002   */\n      dup4\n        /* \"#utility.yul\":12989:13007   */\n      add\n        /* \"#utility.yul\":12980:12986   */\n      dup6\n        /* \"#utility.yul\":12936:13008   */\n      tag_251\n      jump\t// in\n    tag_454:\n        /* \"#utility.yul\":13055:13064   */\n      dup2\n        /* \"#utility.yul\":13049:13053   */\n      dup2\n        /* \"#utility.yul\":13045:13065   */\n      sub\n        /* \"#utility.yul\":13040:13042   */\n      0x40\n        /* \"#utility.yul\":13029:13038   */\n      dup4\n        /* \"#utility.yul\":13025:13043   */\n      add\n        /* \"#utility.yul\":13018:13066   */\n      mstore\n        /* \"#utility.yul\":13083:13161   */\n      tag_455\n        /* \"#utility.yul\":13156:13160   */\n      dup2\n        /* \"#utility.yul\":13147:13153   */\n      dup5\n        /* \"#utility.yul\":13083:13161   */\n      tag_250\n      jump\t// in\n    tag_455:\n        /* \"#utility.yul\":13075:13161   */\n      swap1\n      pop\n        /* \"#utility.yul\":12635:13168   */\n      swap5\n      swap4\n      pop\n      pop\n      pop\n      pop\n      jump\t// out\n        /* \"#utility.yul\":13174:14008   */\n    tag_92:\n        /* \"#utility.yul\":13262:13268   */\n      0x00\n        /* \"#utility.yul\":13270:13276   */\n      dup1\n        /* \"#utility.yul\":13319:13321   */\n      0x40\n        /* \"#utility.yul\":13307:13316   */\n      dup4\n        /* \"#utility.yul\":13298:13305   */\n      dup6\n        /* \"#utility.yul\":13294:13317   */\n      sub\n        /* \"#utility.yul\":13290:13322   */\n      slt\n        /* \"#utility.yul\":13287:13406   */\n      iszero\n      tag_457\n      jumpi\n        /* \"#utility.yul\":13325:13404   */\n      tag_458\n      tag_240\n      jump\t// in\n    tag_458:\n        /* \"#utility.yul\":13287:13406   */\n    tag_457:\n        /* \"#utility.yul\":13473:13474   */\n      0x00\n        /* \"#utility.yul\":13462:13471   */\n      dup4\n        /* \"#utility.yul\":13458:13475   */\n      add\n        /* \"#utility.yul\":13445:13476   */\n      calldataload\n        /* \"#utility.yul\":13503:13521   */\n      0xffffffffffffffff\n        /* \"#utility.yul\":13495:13501   */\n      dup2\n        /* \"#utility.yul\":13492:13522   */\n      gt\n        /* \"#utility.yul\":13489:13606   */\n      iszero\n      tag_459\n      jumpi\n        /* \"#utility.yul\":13525:13604   */\n      tag_460\n      tag_241\n      jump\t// in\n    tag_460:\n        /* \"#utility.yul\":13489:13606   */\n    tag_459:\n        /* \"#utility.yul\":13630:13693   */\n      tag_461\n        /* \"#utility.yul\":13685:13692   */\n      dup6\n        /* \"#utility.yul\":13676:13682   */\n      dup3\n        /* \"#utility.yul\":13665:13674   */\n      dup7\n        /* \"#utility.yul\":13661:13683   */\n      add\n        /* \"#utility.yul\":13630:13693   */\n      tag_268\n      jump\t// in\n    tag_461:\n        /* \"#utility.yul\":13620:13693   */\n      swap3\n      pop\n        /* \"#utility.yul\":13416:13703   */\n      pop\n        /* \"#utility.yul\":13770:13772   */\n      0x20\n        /* \"#utility.yul\":13759:13768   */\n      dup4\n        /* \"#utility.yul\":13755:13773   */\n      add\n        /* \"#utility.yul\":13742:13774   */\n      calldataload\n        /* \"#utility.yul\":13801:13819   */\n      0xffffffffffffffff\n        /* \"#utility.yul\":13793:13799   */\n      dup2\n        /* \"#utility.yul\":13790:13820   */\n      gt\n        /* \"#utility.yul\":13787:13904   */\n      iszero\n      tag_462\n      jumpi\n        /* \"#utility.yul\":13823:13902   */\n      tag_463\n      tag_241\n      jump\t// in\n    tag_463:\n        /* \"#utility.yul\":13787:13904   */\n    tag_462:\n        /* \"#utility.yul\":13928:13991   */\n      tag_464\n        /* \"#utility.yul\":13983:13990   */\n      dup6\n        /* \"#utility.yul\":13974:13980   */\n      dup3\n        /* \"#utility.yul\":13963:13972   */\n      dup7\n        /* \"#utility.yul\":13959:13981   */\n      add\n        /* \"#utility.yul\":13928:13991   */\n      tag_268\n      jump\t// in\n    tag_464:\n        /* \"#utility.yul\":13918:13991   */\n      swap2\n      pop\n        /* \"#utility.yul\":13713:14001   */\n      pop\n        /* \"#utility.yul\":13174:14008   */\n      swap3\n      pop\n      swap3\n      swap1\n      pop\n      jump\t// out\n        /* \"#utility.yul\":14014:14658   */\n    tag_98:\n        /* \"#utility.yul\":14211:14215   */\n      0x00\n        /* \"#utility.yul\":14249:14252   */\n      0x80\n        /* \"#utility.yul\":14238:14247   */\n      dup3\n        /* \"#utility.yul\":14234:14253   */\n      add\n        /* \"#utility.yul\":14226:14253   */\n      swap1\n      pop\n        /* \"#utility.yul\":14263:14334   */\n      tag_466\n        /* \"#utility.yul\":14331:14332   */\n      0x00\n        /* \"#utility.yul\":14320:14329   */\n      dup4\n        /* \"#utility.yul\":14316:14333   */\n      add\n        /* \"#utility.yul\":14307:14313   */\n      dup8\n        /* \"#utility.yul\":14263:14334   */\n      tag_257\n      jump\t// in\n    tag_466:\n        /* \"#utility.yul\":14344:14416   */\n      tag_467\n        /* \"#utility.yul\":14412:14414   */\n      0x20\n        /* \"#utility.yul\":14401:14410   */\n      dup4\n        /* \"#utility.yul\":14397:14415   */\n      add\n        /* \"#utility.yul\":14388:14394   */\n      dup7\n        /* \"#utility.yul\":14344:14416   */\n      tag_251\n      jump\t// in\n    tag_467:\n        /* \"#utility.yul\":14463:14472   */\n      dup2\n        /* \"#utility.yul\":14457:14461   */\n      dup2\n        /* \"#utility.yul\":14453:14473   */\n      sub\n        /* \"#utility.yul\":14448:14450   */\n      0x40\n        /* \"#utility.yul\":14437:14446   */\n      dup4\n        /* \"#utility.yul\":14433:14451   */\n      add\n        /* \"#utility.yul\":14426:14474   */\n      mstore\n        /* \"#utility.yul\":14491:14569   */\n      tag_468\n        /* \"#utility.yul\":14564:14568   */\n      dup2\n        /* \"#utility.yul\":14555:14561   */\n      dup6\n        /* \"#utility.yul\":14491:14569   */\n      tag_250\n      jump\t// in\n    tag_468:\n        /* \"#utility.yul\":14483:14569   */\n      swap1\n      pop\n        /* \"#utility.yul\":14579:14651   */\n      tag_469\n        /* \"#utility.yul\":14647:14649   */\n      0x60\n        /* \"#utility.yul\":14636:14645   */\n      dup4\n        /* \"#utility.yul\":14632:14650   */\n      add\n        /* \"#utility.yul\":14623:14629   */\n      dup5\n        /* \"#utility.yul\":14579:14651   */\n      tag_251\n      jump\t// in\n    tag_469:\n        /* \"#utility.yul\":14014:14658   */\n      swap6\n      swap5\n      pop\n      pop\n      pop\n      pop\n      pop\n      jump\t// out\n        /* \"#utility.yul\":14664:15935   */\n    tag_101:\n        /* \"#utility.yul\":14779:14785   */\n      0x00\n        /* \"#utility.yul\":14787:14793   */\n      dup1\n        /* \"#utility.yul\":14795:14801   */\n      0x00\n        /* \"#utility.yul\":14803:14809   */\n      dup1\n        /* \"#utility.yul\":14811:14817   */\n      0x00\n        /* \"#utility.yul\":14860:14863   */\n      0xa0\n        /* \"#utility.yul\":14848:14857   */\n      dup7\n        /* \"#utility.yul\":14839:14846   */\n      dup9\n        /* \"#utility.yul\":14835:14858   */\n      sub\n        /* \"#utility.yul\":14831:14864   */\n      slt\n        /* \"#utility.yul\":14828:14948   */\n      iszero\n      tag_471\n      jumpi\n        /* \"#utility.yul\":14867:14946   */\n      tag_472\n      tag_240\n      jump\t// in\n    tag_472:\n        /* \"#utility.yul\":14828:14948   */\n    tag_471:\n        /* \"#utility.yul\":14987:14988   */\n      0x00\n        /* \"#utility.yul\":15012:15065   */\n      tag_473\n        /* \"#utility.yul\":15057:15064   */\n      dup9\n        /* \"#utility.yul\":15048:15054   */\n      dup3\n        /* \"#utility.yul\":15037:15046   */\n      dup10\n        /* \"#utility.yul\":15033:15055   */\n      add\n        /* \"#utility.yul\":15012:15065   */\n      tag_245\n      jump\t// in\n    tag_473:\n        /* \"#utility.yul\":15002:15065   */\n      swap6\n      pop\n        /* \"#utility.yul\":14958:15075   */\n      pop\n        /* \"#utility.yul\":15142:15144   */\n      0x20\n        /* \"#utility.yul\":15131:15140   */\n      dup7\n        /* \"#utility.yul\":15127:15145   */\n      add\n        /* \"#utility.yul\":15114:15146   */\n      calldataload\n        /* \"#utility.yul\":15173:15191   */\n      0xffffffffffffffff\n        /* \"#utility.yul\":15165:15171   */\n      dup2\n        /* \"#utility.yul\":15162:15192   */\n      gt\n        /* \"#utility.yul\":15159:15276   */\n      iszero\n      tag_474\n      jumpi\n        /* \"#utility.yul\":15195:15274   */\n      tag_475\n      tag_241\n      jump\t// in\n    tag_475:\n        /* \"#utility.yul\":15159:15276   */\n    tag_474:\n        /* \"#utility.yul\":15300:15363   */\n      tag_476\n        /* \"#utility.yul\":15355:15362   */\n      dup9\n        /* \"#utility.yul\":15346:15352   */\n      dup3\n        /* \"#utility.yul\":15335:15344   */\n      dup10\n        /* \"#utility.yul\":15331:15353   */\n      add\n        /* \"#utility.yul\":15300:15363   */\n      tag_268\n      jump\t// in\n    tag_476:\n        /* \"#utility.yul\":15290:15363   */\n      swap5\n      pop\n        /* \"#utility.yul\":15085:15373   */\n      pop\n        /* \"#utility.yul\":15440:15442   */\n      0x40\n        /* \"#utility.yul\":15429:15438   */\n      dup7\n        /* \"#utility.yul\":15425:15443   */\n      add\n        /* \"#utility.yul\":15412:15444   */\n      calldataload\n        /* \"#utility.yul\":15471:15489   */\n      0xffffffffffffffff\n        /* \"#utility.yul\":15463:15469   */\n      dup2\n        /* \"#utility.yul\":15460:15490   */\n      gt\n        /* \"#utility.yul\":15457:15574   */\n      iszero\n      tag_477\n      jumpi\n        /* \"#utility.yul\":15493:15572   */\n      tag_478\n      tag_241\n      jump\t// in\n    tag_478:\n        /* \"#utility.yul\":15457:15574   */\n    tag_477:\n        /* \"#utility.yul\":15598:15661   */\n      tag_479\n        /* \"#utility.yul\":15653:15660   */\n      dup9\n        /* \"#utility.yul\":15644:15650   */\n      dup3\n        /* \"#utility.yul\":15633:15642   */\n      dup10\n        /* \"#utility.yul\":15629:15651   */\n      add\n        /* \"#utility.yul\":15598:15661   */\n      tag_268\n      jump\t// in\n    tag_479:\n        /* \"#utility.yul\":15588:15661   */\n      swap4\n      pop\n        /* \"#utility.yul\":15383:15671   */\n      pop\n        /* \"#utility.yul\":15710:15712   */\n      0x60\n        /* \"#utility.yul\":15736:15789   */\n      tag_480\n        /* \"#utility.yul\":15781:15788   */\n      dup9\n        /* \"#utility.yul\":15772:15778   */\n      dup3\n        /* \"#utility.yul\":15761:15770   */\n      dup10\n        /* \"#utility.yul\":15757:15779   */\n      add\n        /* \"#utility.yul\":15736:15789   */\n      tag_256\n      jump\t// in\n    tag_480:\n        /* \"#utility.yul\":15726:15789   */\n      swap3\n      pop\n        /* \"#utility.yul\":15681:15799   */\n      pop\n        /* \"#utility.yul\":15838:15841   */\n      0x80\n        /* \"#utility.yul\":15865:15918   */\n      tag_481\n        /* \"#utility.yul\":15910:15917   */\n      dup9\n        /* \"#utility.yul\":15901:15907   */\n      dup3\n        /* \"#utility.yul\":15890:15899   */\n      dup10\n        /* \"#utility.yul\":15886:15908   */\n      add\n        /* \"#utility.yul\":15865:15918   */\n      tag_256\n      jump\t// in\n    tag_481:\n        /* \"#utility.yul\":15855:15918   */\n      swap2\n      pop\n        /* \"#utility.yul\":15809:15928   */\n      pop\n        /* \"#utility.yul\":14664:15935   */\n      swap3\n      swap6\n      pop\n      swap3\n      swap6\n      swap1\n      swap4\n      pop\n      jump\t// out\n        /* \"#utility.yul\":15941:16734   */\n    tag_105:\n        /* \"#utility.yul\":16025:16031   */\n      0x00\n        /* \"#utility.yul\":16033:16039   */\n      dup1\n        /* \"#utility.yul\":16041:16047   */\n      0x00\n        /* \"#utility.yul\":16090:16092   */\n      0x60\n        /* \"#utility.yul\":16078:16087   */\n      dup5\n        /* \"#utility.yul\":16069:16076   */\n      dup7\n        /* \"#utility.yul\":16065:16088   */\n      sub\n        /* \"#utility.yul\":16061:16093   */\n      slt\n        /* \"#utility.yul\":16058:16177   */\n      iszero\n      tag_483\n      jumpi\n        /* \"#utility.yul\":16096:16175   */\n      tag_484\n      tag_240\n      jump\t// in\n    tag_484:\n        /* \"#utility.yul\":16058:16177   */\n    tag_483:\n        /* \"#utility.yul\":16216:16217   */\n      0x00\n        /* \"#utility.yul\":16241:16294   */\n      tag_485\n        /* \"#utility.yul\":16286:16293   */\n      dup7\n        /* \"#utility.yul\":16277:16283   */\n      dup3\n        /* \"#utility.yul\":16266:16275   */\n      dup8\n        /* \"#utility.yul\":16262:16284   */\n      add\n        /* \"#utility.yul\":16241:16294   */\n      tag_256\n      jump\t// in\n    tag_485:\n        /* \"#utility.yul\":16231:16294   */\n      swap4\n      pop\n        /* \"#utility.yul\":16187:16304   */\n      pop\n        /* \"#utility.yul\":16343:16345   */\n      0x20\n        /* \"#utility.yul\":16369:16419   */\n      tag_486\n        /* \"#utility.yul\":16411:16418   */\n      dup7\n        /* \"#utility.yul\":16402:16408   */\n      dup3\n        /* \"#utility.yul\":16391:16400   */\n      dup8\n        /* \"#utility.yul\":16387:16409   */\n      add\n        /* \"#utility.yul\":16369:16419   */\n      tag_259\n      jump\t// in\n    tag_486:\n        /* \"#utility.yul\":16359:16419   */\n      swap3\n      pop\n        /* \"#utility.yul\":16314:16429   */\n      pop\n        /* \"#utility.yul\":16496:16498   */\n      0x40\n        /* \"#utility.yul\":16485:16494   */\n      dup5\n        /* \"#utility.yul\":16481:16499   */\n      add\n        /* \"#utility.yul\":16468:16500   */\n      calldataload\n        /* \"#utility.yul\":16527:16545   */\n      0xffffffffffffffff\n        /* \"#utility.yul\":16519:16525   */\n      dup2\n        /* \"#utility.yul\":16516:16546   */\n      gt\n        /* \"#utility.yul\":16513:16630   */\n      iszero\n      tag_487\n      jumpi\n        /* \"#utility.yul\":16549:16628   */\n      tag_488\n      tag_241\n      jump\t// in\n    tag_488:\n        /* \"#utility.yul\":16513:16630   */\n    tag_487:\n        /* \"#utility.yul\":16654:16717   */\n      tag_489\n        /* \"#utility.yul\":16709:16716   */\n      dup7\n        /* \"#utility.yul\":16700:16706   */\n      dup3\n        /* \"#utility.yul\":16689:16698   */\n      dup8\n        /* \"#utility.yul\":16685:16707   */\n      add\n        /* \"#utility.yul\":16654:16717   */\n      tag_268\n      jump\t// in\n    tag_489:\n        /* \"#utility.yul\":16644:16717   */\n      swap2\n      pop\n        /* \"#utility.yul\":16439:16727   */\n      pop\n        /* \"#utility.yul\":15941:16734   */\n      swap3\n      pop\n      swap3\n      pop\n      swap3\n      jump\t// out\n        /* \"#utility.yul\":16740:16920   */\n    tag_269:\n        /* \"#utility.yul\":16788:16865   */\n      0x4e487b7100000000000000000000000000000000000000000000000000000000\n        /* \"#utility.yul\":16785:16786   */\n      0x00\n        /* \"#utility.yul\":16778:16866   */\n      mstore\n        /* \"#utility.yul\":16885:16889   */\n      0x22\n        /* \"#utility.yul\":16882:16883   */\n      0x04\n        /* \"#utility.yul\":16875:16890   */\n      mstore\n        /* \"#utility.yul\":16909:16913   */\n      0x24\n        /* \"#utility.yul\":16906:16907   */\n      0x00\n        /* \"#utility.yul\":16899:16914   */\n      revert\n        /* \"#utility.yul\":16926:17246   */\n    tag_108:\n        /* \"#utility.yul\":16970:16976   */\n      0x00\n        /* \"#utility.yul\":17007:17008   */\n      0x02\n        /* \"#utility.yul\":17001:17005   */\n      dup3\n        /* \"#utility.yul\":16997:17009   */\n      div\n        /* \"#utility.yul\":16987:17009   */\n      swap1\n      pop\n        /* \"#utility.yul\":17054:17055   */\n      0x01\n        /* \"#utility.yul\":17048:17052   */\n      dup3\n        /* \"#utility.yul\":17044:17056   */\n      and\n        /* \"#utility.yul\":17075:17093   */\n      dup1\n        /* \"#utility.yul\":17065:17146   */\n      tag_492\n      jumpi\n        /* \"#utility.yul\":17131:17135   */\n      0x7f\n        /* \"#utility.yul\":17123:17129   */\n      dup3\n        /* \"#utility.yul\":17119:17136   */\n      and\n        /* \"#utility.yul\":17109:17136   */\n      swap2\n      pop\n        /* \"#utility.yul\":17065:17146   */\n    tag_492:\n        /* \"#utility.yul\":17193:17195   */\n      0x20\n        /* \"#utility.yul\":17185:17191   */\n      dup3\n        /* \"#utility.yul\":17182:17196   */\n      lt\n        /* \"#utility.yul\":17162:17180   */\n      dup2\n        /* \"#utility.yul\":17159:17197   */\n      sub\n        /* \"#utility.yul\":17156:17240   */\n      tag_493\n      jumpi\n        /* \"#utility.yul\":17212:17230   */\n      tag_494\n      tag_269\n      jump\t// in\n    tag_494:\n        /* \"#utility.yul\":17156:17240   */\n    tag_493:\n        /* \"#utility.yul\":16977:17246   */\n      pop\n        /* \"#utility.yul\":16926:17246   */\n      swap2\n      swap1\n      pop\n      jump\t// out\n        /* \"#utility.yul\":17252:17423   */\n    tag_270:\n        /* \"#utility.yul\":17392:17415   */\n      0x436f6e7472616374206973206e6f742076616c69640000000000000000000000\n        /* \"#utility.yul\":17388:17389   */\n      0x00\n        /* \"#utility.yul\":17380:17386   */\n      dup3\n        /* \"#utility.yul\":17376:17390   */\n      add\n        /* \"#utility.yul\":17369:17416   */\n      mstore\n        /* \"#utility.yul\":17252:17423   */\n      pop\n      jump\t// out\n        /* \"#utility.yul\":17429:17795   */\n    tag_271:\n        /* \"#utility.yul\":17571:17574   */\n      0x00\n        /* \"#utility.yul\":17592:17659   */\n      tag_497\n        /* \"#utility.yul\":17656:17658   */\n      0x15\n        /* \"#utility.yul\":17651:17654   */\n      dup4\n        /* \"#utility.yul\":17592:17659   */\n      tag_247\n      jump\t// in\n    tag_497:\n        /* \"#utility.yul\":17585:17659   */\n      swap2\n      pop\n        /* \"#utility.yul\":17668:17761   */\n      tag_498\n        /* \"#utility.yul\":17757:17760   */\n      dup3\n        /* \"#utility.yul\":17668:17761   */\n      tag_270\n      jump\t// in\n    tag_498:\n        /* \"#utility.yul\":17786:17788   */\n      0x20\n        /* \"#utility.yul\":17781:17784   */\n      dup3\n        /* \"#utility.yul\":17777:17789   */\n      add\n        /* \"#utility.yul\":17770:17789   */\n      swap1\n      pop\n        /* \"#utility.yul\":17429:17795   */\n      swap2\n      swap1\n      pop\n      jump\t// out\n        /* \"#utility.yul\":17801:18220   */\n    tag_122:\n        /* \"#utility.yul\":17967:17971   */\n      0x00\n        /* \"#utility.yul\":18005:18007   */\n      0x20\n        /* \"#utility.yul\":17994:18003   */\n      dup3\n        /* \"#utility.yul\":17990:18008   */\n      add\n        /* \"#utility.yul\":17982:18008   */\n      swap1\n      pop\n        /* \"#utility.yul\":18054:18063   */\n      dup2\n        /* \"#utility.yul\":18048:18052   */\n      dup2\n        /* \"#utility.yul\":18044:18064   */\n      sub\n        /* \"#utility.yul\":18040:18041   */\n      0x00\n        /* \"#utility.yul\":18029:18038   */\n      dup4\n        /* \"#utility.yul\":18025:18042   */\n      add\n        /* \"#utility.yul\":18018:18065   */\n      mstore\n        /* \"#utility.yul\":18082:18213   */\n      tag_500\n        /* \"#utility.yul\":18208:18212   */\n      dup2\n        /* \"#utility.yul\":18082:18213   */\n      tag_271\n      jump\t// in\n    tag_500:\n        /* \"#utility.yul\":18074:18213   */\n      swap1\n      pop\n        /* \"#utility.yul\":17801:18220   */\n      swap2\n      swap1\n      pop\n      jump\t// out\n        /* \"#utility.yul\":18226:18395   */\n    tag_272:\n        /* \"#utility.yul\":18366:18387   */\n      0x55736572206e6f7420617574686f72697a656400000000000000000000000000\n        /* \"#utility.yul\":18362:18363   */\n      0x00\n        /* \"#utility.yul\":18354:18360   */\n      dup3\n        /* \"#utility.yul\":18350:18364   */\n      add\n        /* \"#utility.yul\":18343:18388   */\n      mstore\n        /* \"#utility.yul\":18226:18395   */\n      pop\n      jump\t// out\n        /* \"#utility.yul\":18401:18767   */\n    tag_273:\n        /* \"#utility.yul\":18543:18546   */\n      0x00\n        /* \"#utility.yul\":18564:18631   */\n      tag_503\n        /* \"#utility.yul\":18628:18630   */\n      0x13\n        /* \"#utility.yul\":18623:18626   */\n      dup4\n        /* \"#utility.yul\":18564:18631   */\n      tag_247\n      jump\t// in\n    tag_503:\n        /* \"#utility.yul\":18557:18631   */\n      swap2\n      pop\n        /* \"#utility.yul\":18640:18733   */\n      tag_504\n        /* \"#utility.yul\":18729:18732   */\n      dup3\n        /* \"#utility.yul\":18640:18733   */\n      tag_272\n      jump\t// in\n    tag_504:\n        /* \"#utility.yul\":18758:18760   */\n      0x20\n        /* \"#utility.yul\":18753:18756   */\n      dup3\n        /* \"#utility.yul\":18749:18761   */\n      add\n        /* \"#utility.yul\":18742:18761   */\n      swap1\n      pop\n        /* \"#utility.yul\":18401:18767   */\n      swap2\n      swap1\n      pop\n      jump\t// out\n        /* \"#utility.yul\":18773:19192   */\n    tag_125:\n        /* \"#utility.yul\":18939:18943   */\n      0x00\n        /* \"#utility.yul\":18977:18979   */\n      0x20\n        /* \"#utility.yul\":18966:18975   */\n      dup3\n        /* \"#utility.yul\":18962:18980   */\n      add\n        /* \"#utility.yul\":18954:18980   */\n      swap1\n      pop\n        /* \"#utility.yul\":19026:19035   */\n      dup2\n        /* \"#utility.yul\":19020:19024   */\n      dup2\n        /* \"#utility.yul\":19016:19036   */\n      sub\n        /* \"#utility.yul\":19012:19013   */\n      0x00\n        /* \"#utility.yul\":19001:19010   */\n      dup4\n        /* \"#utility.yul\":18997:19014   */\n      add\n        /* \"#utility.yul\":18990:19037   */\n      mstore\n        /* \"#utility.yul\":19054:19185   */\n      tag_506\n        /* \"#utility.yul\":19180:19184   */\n      dup2\n        /* \"#utility.yul\":19054:19185   */\n      tag_273\n      jump\t// in\n    tag_506:\n        /* \"#utility.yul\":19046:19185   */\n      swap1\n      pop\n        /* \"#utility.yul\":18773:19192   */\n      swap2\n      swap1\n      pop\n      jump\t// out\n        /* \"#utility.yul\":19198:19374   */\n    tag_274:\n        /* \"#utility.yul\":19338:19366   */\n      0x5573657220697320616c72656164792072656769737465726564000000000000\n        /* \"#utility.yul\":19334:19335   */\n      0x00\n        /* \"#utility.yul\":19326:19332   */\n      dup3\n        /* \"#utility.yul\":19322:19336   */\n      add\n        /* \"#utility.yul\":19315:19367   */\n      mstore\n        /* \"#utility.yul\":19198:19374   */\n      pop\n      jump\t// out\n        /* \"#utility.yul\":19380:19746   */\n    tag_275:\n        /* \"#utility.yul\":19522:19525   */\n      0x00\n        /* \"#utility.yul\":19543:19610   */\n      tag_509\n        /* \"#utility.yul\":19607:19609   */\n      0x1a\n        /* \"#utility.yul\":19602:19605   */\n      dup4\n        /* \"#utility.yul\":19543:19610   */\n      tag_247\n      jump\t// in\n    tag_509:\n        /* \"#utility.yul\":19536:19610   */\n      swap2\n      pop\n        /* \"#utility.yul\":19619:19712   */\n      tag_510\n        /* \"#utility.yul\":19708:19711   */\n      dup3\n        /* \"#utility.yul\":19619:19712   */\n      tag_274\n      jump\t// in\n    tag_510:\n        /* \"#utility.yul\":19737:19739   */\n      0x20\n        /* \"#utility.yul\":19732:19735   */\n      dup3\n        /* \"#utility.yul\":19728:19740   */\n      add\n        /* \"#utility.yul\":19721:19740   */\n      swap1\n      pop\n        /* \"#utility.yul\":19380:19746   */\n      swap2\n      swap1\n      pop\n      jump\t// out\n        /* \"#utility.yul\":19752:20171   */\n    tag_136:\n        /* \"#utility.yul\":19918:19922   */\n      0x00\n        /* \"#utility.yul\":19956:19958   */\n      0x20\n        /* \"#utility.yul\":19945:19954   */\n      dup3\n        /* \"#utility.yul\":19941:19959   */\n      add\n        /* \"#utility.yul\":19933:19959   */\n      swap1\n      pop\n        /* \"#utility.yul\":20005:20014   */\n      dup2\n        /* \"#utility.yul\":19999:20003   */\n      dup2\n        /* \"#utility.yul\":19995:20015   */\n      sub\n        /* \"#utility.yul\":19991:19992   */\n      0x00\n        /* \"#utility.yul\":19980:19989   */\n      dup4\n        /* \"#utility.yul\":19976:19993   */\n      add\n        /* \"#utility.yul\":19969:20016   */\n      mstore\n        /* \"#utility.yul\":20033:20164   */\n      tag_512\n        /* \"#utility.yul\":20159:20163   */\n      dup2\n        /* \"#utility.yul\":20033:20164   */\n      tag_275\n      jump\t// in\n    tag_512:\n        /* \"#utility.yul\":20025:20164   */\n      swap1\n      pop\n        /* \"#utility.yul\":19752:20171   */\n      swap2\n      swap1\n      pop\n      jump\t// out\n        /* \"#utility.yul\":20177:20318   */\n    tag_276:\n        /* \"#utility.yul\":20226:20230   */\n      0x00\n        /* \"#utility.yul\":20249:20252   */\n      dup2\n        /* \"#utility.yul\":20241:20252   */\n      swap1\n      pop\n        /* \"#utility.yul\":20272:20275   */\n      dup2\n        /* \"#utility.yul\":20269:20270   */\n      0x00\n        /* \"#utility.yul\":20262:20276   */\n      mstore\n        /* \"#utility.yul\":20306:20310   */\n      0x20\n        /* \"#utility.yul\":20303:20304   */\n      0x00\n        /* \"#utility.yul\":20293:20311   */\n      keccak256\n        /* \"#utility.yul\":20285:20311   */\n      swap1\n      pop\n        /* \"#utility.yul\":20177:20318   */\n      swap2\n      swap1\n      pop\n      jump\t// out\n        /* \"#utility.yul\":20324:20417   */\n    tag_277:\n        /* \"#utility.yul\":20361:20367   */\n      0x00\n        /* \"#utility.yul\":20408:20410   */\n      0x20\n        /* \"#utility.yul\":20403:20405   */\n      0x1f\n        /* \"#utility.yul\":20396:20401   */\n      dup4\n        /* \"#utility.yul\":20392:20406   */\n      add\n        /* \"#utility.yul\":20388:20411   */\n      div\n        /* \"#utility.yul\":20378:20411   */\n      swap1\n      pop\n        /* \"#utility.yul\":20324:20417   */\n      swap2\n      swap1\n      pop\n      jump\t// out\n        /* \"#utility.yul\":20423:20530   */\n    tag_278:\n        /* \"#utility.yul\":20467:20475   */\n      0x00\n        /* \"#utility.yul\":20517:20522   */\n      dup3\n        /* \"#utility.yul\":20511:20515   */\n      dup3\n        /* \"#utility.yul\":20507:20523   */\n      shl\n        /* \"#utility.yul\":20486:20523   */\n      swap1\n      pop\n        /* \"#utility.yul\":20423:20530   */\n      swap3\n      swap2\n      pop\n      pop\n      jump\t// out\n        /* \"#utility.yul\":20536:20929   */\n    tag_279:\n        /* \"#utility.yul\":20605:20611   */\n      0x00\n        /* \"#utility.yul\":20655:20656   */\n      0x08\n        /* \"#utility.yul\":20643:20653   */\n      dup4\n        /* \"#utility.yul\":20639:20657   */\n      mul\n        /* \"#utility.yul\":20678:20775   */\n      tag_517\n        /* \"#utility.yul\":20708:20774   */\n      0xffffffffffffffffffffffffffffffffffffffffffffffffffffffffffffffff\n        /* \"#utility.yul\":20697:20706   */\n      dup3\n        /* \"#utility.yul\":20678:20775   */\n      tag_278\n      jump\t// in\n    tag_517:\n        /* \"#utility.yul\":20796:20835   */\n      tag_518\n        /* \"#utility.yul\":20826:20834   */\n      dup7\n        /* \"#utility.yul\":20815:20824   */\n      dup4\n        /* \"#utility.yul\":20796:20835   */\n      tag_278\n      jump\t// in\n    tag_518:\n        /* \"#utility.yul\":20784:20835   */\n      swap6\n      pop\n        /* \"#utility.yul\":20868:20872   */\n      dup1\n        /* \"#utility.yul\":20864:20873   */\n      not\n        /* \"#utility.yul\":20857:20862   */\n      dup5\n        /* \"#utility.yul\":20853:20874   */\n      and\n        /* \"#utility.yul\":20844:20874   */\n      swap4\n      pop\n        /* \"#utility.yul\":20917:20921   */\n      dup1\n        /* \"#utility.yul\":20907:20915   */\n      dup7\n        /* \"#utility.yul\":20903:20922   */\n      and\n        /* \"#utility.yul\":20896:20901   */\n      dup5\n        /* \"#utility.yul\":20893:20923   */\n      or\n        /* \"#utility.yul\":20883:20923   */\n      swap3\n      pop\n        /* \"#utility.yul\":20612:20929   */\n      pop\n      pop\n        /* \"#utility.yul\":20536:20929   */\n      swap4\n      swap3\n      pop\n      pop\n      pop\n      jump\t// out\n        /* \"#utility.yul\":20935:20995   */\n    tag_280:\n        /* \"#utility.yul\":20963:20966   */\n      0x00\n        /* \"#utility.yul\":20984:20989   */\n      dup2\n        /* \"#utility.yul\":20977:20989   */\n      swap1\n      pop\n        /* \"#utility.yul\":20935:20995   */\n      swap2\n      swap1\n      pop\n      jump\t// out\n        /* \"#utility.yul\":21001:21143   */\n    tag_281:\n        /* \"#utility.yul\":21051:21060   */\n      0x00\n        /* \"#utility.yul\":21084:21137   */\n      tag_521\n        /* \"#utility.yul\":21102:21136   */\n      tag_522\n        /* \"#utility.yul\":21111:21135   */\n      tag_523\n        /* \"#utility.yul\":21129:21134   */\n      dup5\n        /* \"#utility.yul\":21111:21135   */\n      tag_254\n      jump\t// in\n    tag_523:\n        /* \"#utility.yul\":21102:21136   */\n      tag_280\n      jump\t// in\n    tag_522:\n        /* \"#utility.yul\":21084:21137   */\n      tag_254\n      jump\t// in\n    tag_521:\n        /* \"#utility.yul\":21071:21137   */\n      swap1\n      pop\n        /* \"#utility.yul\":21001:21143   */\n      swap2\n      swap1\n      pop\n      jump\t// out\n        /* \"#utility.yul\":21149:21224   */\n    tag_282:\n        /* \"#utility.yul\":21192:21195   */\n      0x00\n        /* \"#utility.yul\":21213:21218   */\n      dup2\n        /* \"#utility.yul\":21206:21218   */\n      swap1\n      pop\n        /* \"#utility.yul\":21149:21224   */\n      swap2\n      swap1\n      pop\n      jump\t// out\n        /* \"#utility.yul\":21230:21499   */\n    tag_283:\n        /* \"#utility.yul\":21340:21379   */\n      tag_526\n        /* \"#utility.yul\":21371:21378   */\n      dup4\n        /* \"#utility.yul\":21340:21379   */\n      tag_281\n      jump\t// in\n    tag_526:\n        /* \"#utility.yul\":21401:21492   */\n      tag_527\n        /* \"#utility.yul\":21450:21491   */\n      tag_528\n        /* \"#utility.yul\":21474:21490   */\n      dup3\n        /* \"#utility.yul\":21450:21491   */\n      tag_282\n      jump\t// in\n    tag_528:\n        /* \"#utility.yul\":21442:21448   */\n      dup5\n        /* \"#utility.yul\":21435:21439   */\n      dup5\n        /* \"#utility.yul\":21429:21440   */\n      sload\n        /* \"#utility.yul\":21401:21492   */\n      tag_279\n      jump\t// in\n    tag_527:\n        /* \"#utility.yul\":21395:21399   */\n      dup3\n        /* \"#utility.yul\":21388:21493   */\n      sstore\n        /* \"#utility.yul\":21306:21499   */\n      pop\n        /* \"#utility.yul\":21230:21499   */\n      pop\n      pop\n      pop\n      jump\t// out\n        /* \"#utility.yul\":21505:21578   */\n    tag_284:\n        /* \"#utility.yul\":21550:21553   */\n      0x00\n        /* \"#utility.yul\":21505:21578   */\n      swap1\n      jump\t// out\n        /* \"#utility.yul\":21584:21773   */\n    tag_285:\n        /* \"#utility.yul\":21661:21693   */\n      tag_531\n      tag_284\n      jump\t// in\n    tag_531:\n        /* \"#utility.yul\":21702:21767   */\n      tag_532\n        /* \"#utility.yul\":21760:21766   */\n      dup2\n        /* \"#utility.yul\":21752:21758   */\n      dup5\n        /* \"#utility.yul\":21746:21750   */\n      dup5\n        /* \"#utility.yul\":21702:21767   */\n      tag_283\n      jump\t// in\n    tag_532:\n        /* \"#utility.yul\":21637:21773   */\n      pop\n        /* \"#utility.yul\":21584:21773   */\n      pop\n      pop\n      jump\t// out\n        /* \"#utility.yul\":21779:21965   */\n    tag_286:\n        /* \"#utility.yul\":21839:21959   */\n    tag_534:\n        /* \"#utility.yul\":21856:21859   */\n      dup2\n        /* \"#utility.yul\":21849:21854   */\n      dup2\n        /* \"#utility.yul\":21846:21860   */\n      lt\n        /* \"#utility.yul\":21839:21959   */\n      iszero\n      tag_536\n      jumpi\n        /* \"#utility.yul\":21910:21949   */\n      tag_537\n        /* \"#utility.yul\":21947:21948   */\n      0x00\n        /* \"#utility.yul\":21940:21945   */\n      dup3\n        /* \"#utility.yul\":21910:21949   */\n      tag_285\n      jump\t// in\n    tag_537:\n        /* \"#utility.yul\":21883:21884   */\n      0x01\n        /* \"#utility.yul\":21876:21881   */\n      dup2\n        /* \"#utility.yul\":21872:21885   */\n      add\n        /* \"#utility.yul\":21863:21885   */\n      swap1\n      pop\n        /* \"#utility.yul\":21839:21959   */\n      jump(tag_534)\n    tag_536:\n        /* \"#utility.yul\":21779:21965   */\n      pop\n      pop\n      jump\t// out\n        /* \"#utility.yul\":21971:22514   */\n    tag_287:\n        /* \"#utility.yul\":22072:22074   */\n      0x1f\n        /* \"#utility.yul\":22067:22070   */\n      dup3\n        /* \"#utility.yul\":22064:22075   */\n      gt\n        /* \"#utility.yul\":22061:22507   */\n      iszero\n      tag_539\n      jumpi\n        /* \"#utility.yul\":22106:22144   */\n      tag_540\n        /* \"#utility.yul\":22138:22143   */\n      dup2\n        /* \"#utility.yul\":22106:22144   */\n      tag_276\n      jump\t// in\n    tag_540:\n        /* \"#utility.yul\":22190:22219   */\n      tag_541\n        /* \"#utility.yul\":22208:22218   */\n      dup5\n        /* \"#utility.yul\":22190:22219   */\n      tag_277\n      jump\t// in\n    tag_541:\n        /* \"#utility.yul\":22180:22188   */\n      dup2\n        /* \"#utility.yul\":22176:22220   */\n      add\n        /* \"#utility.yul\":22373:22375   */\n      0x20\n        /* \"#utility.yul\":22361:22371   */\n      dup6\n        /* \"#utility.yul\":22358:22376   */\n      lt\n        /* \"#utility.yul\":22355:22404   */\n      iszero\n      tag_542\n      jumpi\n        /* \"#utility.yul\":22394:22402   */\n      dup2\n        /* \"#utility.yul\":22379:22402   */\n      swap1\n      pop\n        /* \"#utility.yul\":22355:22404   */\n    tag_542:\n        /* \"#utility.yul\":22417:22497   */\n      tag_543\n        /* \"#utility.yul\":22473:22495   */\n      tag_544\n        /* \"#utility.yul\":22491:22494   */\n      dup6\n        /* \"#utility.yul\":22473:22495   */\n      tag_277\n      jump\t// in\n    tag_544:\n        /* \"#utility.yul\":22463:22471   */\n      dup4\n        /* \"#utility.yul\":22459:22496   */\n      add\n        /* \"#utility.yul\":22446:22457   */\n      dup3\n        /* \"#utility.yul\":22417:22497   */\n      tag_286\n      jump\t// in\n    tag_543:\n        /* \"#utility.yul\":22076:22507   */\n      pop\n      pop\n        /* \"#utility.yul\":22061:22507   */\n    tag_539:\n        /* \"#utility.yul\":21971:22514   */\n      pop\n      pop\n      pop\n      jump\t// out\n        /* \"#utility.yul\":22520:22637   */\n    tag_288:\n        /* \"#utility.yul\":22574:22582   */\n      0x00\n        /* \"#utility.yul\":22624:22629   */\n      dup3\n        /* \"#utility.yul\":22618:22622   */\n      dup3\n        /* \"#utility.yul\":22614:22630   */\n      shr\n        /* \"#utility.yul\":22593:22630   */\n      swap1\n      pop\n        /* \"#utility.yul\":22520:22637   */\n      swap3\n      swap2\n      pop\n      pop\n      jump\t// out\n        /* \"#utility.yul\":22643:22812   */\n    tag_289:\n        /* \"#utility.yul\":22687:22693   */\n      0x00\n        /* \"#utility.yul\":22720:22771   */\n      tag_547\n        /* \"#utility.yul\":22768:22769   */\n      0x00\n        /* \"#utility.yul\":22764:22770   */\n      not\n        /* \"#utility.yul\":22756:22761   */\n      dup5\n        /* \"#utility.yul\":22753:22754   */\n      0x08\n        /* \"#utility.yul\":22749:22762   */\n      mul\n        /* \"#utility.yul\":22720:22771   */\n      tag_288\n      jump\t// in\n    tag_547:\n        /* \"#utility.yul\":22716:22772   */\n      not\n        /* \"#utility.yul\":22801:22805   */\n      dup1\n        /* \"#utility.yul\":22795:22799   */\n      dup4\n        /* \"#utility.yul\":22791:22806   */\n      and\n        /* \"#utility.yul\":22781:22806   */\n      swap2\n      pop\n        /* \"#utility.yul\":22694:22812   */\n      pop\n        /* \"#utility.yul\":22643:22812   */\n      swap3\n      swap2\n      pop\n      pop\n      jump\t// out\n        /* \"#utility.yul\":22817:23112   */\n    tag_290:\n        /* \"#utility.yul\":22893:22897   */\n      0x00\n        /* \"#utility.yul\":23039:23068   */\n      tag_549\n        /* \"#utility.yul\":23064:23067   */\n      dup4\n        /* \"#utility.yul\":23058:23062   */\n      dup4\n        /* \"#utility.yul\":23039:23068   */\n      tag_289\n      jump\t// in\n    tag_549:\n        /* \"#utility.yul\":23031:23068   */\n      swap2\n      pop\n        /* \"#utility.yul\":23101:23104   */\n      dup3\n        /* \"#utility.yul\":23098:23099   */\n      0x02\n        /* \"#utility.yul\":23094:23105   */\n      mul\n        /* \"#utility.yul\":23088:23092   */\n      dup3\n        /* \"#utility.yul\":23085:23106   */\n      or\n        /* \"#utility.yul\":23077:23106   */\n      swap1\n      pop\n        /* \"#utility.yul\":22817:23112   */\n      swap3\n      swap2\n      pop\n      pop\n      jump\t// out\n        /* \"#utility.yul\":23117:24512   */\n    tag_138:\n        /* \"#utility.yul\":23234:23271   */\n      tag_551\n        /* \"#utility.yul\":23267:23270   */\n      dup3\n        /* \"#utility.yul\":23234:23271   */\n      tag_246\n      jump\t// in\n    tag_551:\n        /* \"#utility.yul\":23336:23354   */\n      0xffffffffffffffff\n        /* \"#utility.yul\":23328:23334   */\n      dup2\n        /* \"#utility.yul\":23325:23355   */\n      gt\n        /* \"#utility.yul\":23322:23378   */\n      iszero\n      tag_552\n      jumpi\n        /* \"#utility.yul\":23358:23376   */\n      tag_553\n      tag_262\n      jump\t// in\n    tag_553:\n        /* \"#utility.yul\":23322:23378   */\n    tag_552:\n        /* \"#utility.yul\":23402:23440   */\n      tag_554\n        /* \"#utility.yul\":23434:23438   */\n      dup3\n        /* \"#utility.yul\":23428:23439   */\n      sload\n        /* \"#utility.yul\":23402:23440   */\n      tag_108\n      jump\t// in\n    tag_554:\n        /* \"#utility.yul\":23487:23554   */\n      tag_555\n        /* \"#utility.yul\":23547:23553   */\n      dup3\n        /* \"#utility.yul\":23539:23545   */\n      dup3\n        /* \"#utility.yul\":23533:23537   */\n      dup6\n        /* \"#utility.yul\":23487:23554   */\n      tag_287\n      jump\t// in\n    tag_555:\n        /* \"#utility.yul\":23581:23582   */\n      0x00\n        /* \"#utility.yul\":23605:23609   */\n      0x20\n        /* \"#utility.yul\":23592:23609   */\n      swap1\n      pop\n        /* \"#utility.yul\":23637:23639   */\n      0x1f\n        /* \"#utility.yul\":23629:23635   */\n      dup4\n        /* \"#utility.yul\":23626:23640   */\n      gt\n        /* \"#utility.yul\":23654:23655   */\n      0x01\n        /* \"#utility.yul\":23649:24267   */\n      dup2\n      eq\n      tag_557\n      jumpi\n        /* \"#utility.yul\":24311:24312   */\n      0x00\n        /* \"#utility.yul\":24328:24334   */\n      dup5\n        /* \"#utility.yul\":24325:24402   */\n      iszero\n      tag_558\n      jumpi\n        /* \"#utility.yul\":24377:24386   */\n      dup3\n        /* \"#utility.yul\":24372:24375   */\n      dup8\n        /* \"#utility.yul\":24368:24387   */\n      add\n        /* \"#utility.yul\":24362:24388   */\n      mload\n        /* \"#utility.yul\":24353:24388   */\n      swap1\n      pop\n        /* \"#utility.yul\":24325:24402   */\n    tag_558:\n        /* \"#utility.yul\":24428:24495   */\n      tag_559\n        /* \"#utility.yul\":24488:24494   */\n      dup6\n        /* \"#utility.yul\":24481:24486   */\n      dup3\n        /* \"#utility.yul\":24428:24495   */\n      tag_290\n      jump\t// in\n    tag_559:\n        /* \"#utility.yul\":24422:24426   */\n      dup7\n        /* \"#utility.yul\":24415:24496   */\n      sstore\n        /* \"#utility.yul\":24284:24506   */\n      pop\n        /* \"#utility.yul\":23619:24506   */\n      jump(tag_556)\n        /* \"#utility.yul\":23649:24267   */\n    tag_557:\n        /* \"#utility.yul\":23701:23705   */\n      0x1f\n        /* \"#utility.yul\":23697:23706   */\n      not\n        /* \"#utility.yul\":23689:23695   */\n      dup5\n        /* \"#utility.yul\":23685:23707   */\n      and\n        /* \"#utility.yul\":23735:23772   */\n      tag_560\n        /* \"#utility.yul\":23767:23771   */\n      dup7\n        /* \"#utility.yul\":23735:23772   */\n      tag_276\n      jump\t// in\n    tag_560:\n        /* \"#utility.yul\":23794:23795   */\n      0x00\n        /* \"#utility.yul\":23808:24016   */\n    tag_561:\n        /* \"#utility.yul\":23822:23829   */\n      dup3\n        /* \"#utility.yul\":23819:23820   */\n      dup2\n        /* \"#utility.yul\":23816:23830   */\n      lt\n        /* \"#utility.yul\":23808:24016   */\n      iszero\n      tag_563\n      jumpi\n        /* \"#utility.yul\":23901:23910   */\n      dup5\n        /* \"#utility.yul\":23896:23899   */\n      dup10\n        /* \"#utility.yul\":23892:23911   */\n      add\n        /* \"#utility.yul\":23886:23912   */\n      mload\n        /* \"#utility.yul\":23878:23884   */\n      dup3\n        /* \"#utility.yul\":23871:23913   */\n      sstore\n        /* \"#utility.yul\":23952:23953   */\n      0x01\n        /* \"#utility.yul\":23944:23950   */\n      dup3\n        /* \"#utility.yul\":23940:23954   */\n      add\n        /* \"#utility.yul\":23930:23954   */\n      swap2\n      pop\n        /* \"#utility.yul\":23999:24001   */\n      0x20\n        /* \"#utility.yul\":23988:23997   */\n      dup6\n        /* \"#utility.yul\":23984:24002   */\n      add\n        /* \"#utility.yul\":23971:24002   */\n      swap5\n      pop\n        /* \"#utility.yul\":23845:23849   */\n      0x20\n        /* \"#utility.yul\":23842:23843   */\n      dup2\n        /* \"#utility.yul\":23838:23850   */\n      add\n        /* \"#utility.yul\":23833:23850   */\n      swap1\n      pop\n        /* \"#utility.yul\":23808:24016   */\n      jump(tag_561)\n    tag_563:\n        /* \"#utility.yul\":24044:24050   */\n      dup7\n        /* \"#utility.yul\":24035:24042   */\n      dup4\n        /* \"#utility.yul\":24032:24051   */\n      lt\n        /* \"#utility.yul\":24029:24208   */\n      iszero\n      tag_564\n      jumpi\n        /* \"#utility.yul\":24102:24111   */\n      dup5\n        /* \"#utility.yul\":24097:24100   */\n      dup10\n        /* \"#utility.yul\":24093:24112   */\n      add\n        /* \"#utility.yul\":24087:24113   */\n      mload\n        /* \"#utility.yul\":24145:24193   */\n      tag_565\n        /* \"#utility.yul\":24187:24191   */\n      0x1f\n        /* \"#utility.yul\":24179:24185   */\n      dup10\n        /* \"#utility.yul\":24175:24192   */\n      and\n        /* \"#utility.yul\":24164:24173   */\n      dup3\n        /* \"#utility.yul\":24145:24193   */\n      tag_289\n      jump\t// in\n    tag_565:\n        /* \"#utility.yul\":24137:24143   */\n      dup4\n        /* \"#utility.yul\":24130:24194   */\n      sstore\n        /* \"#utility.yul\":24052:24208   */\n      pop\n        /* \"#utility.yul\":24029:24208   */\n    tag_564:\n        /* \"#utility.yul\":24254:24255   */\n      0x01\n        /* \"#utility.yul\":24250:24251   */\n      0x02\n        /* \"#utility.yul\":24242:24248   */\n      dup9\n        /* \"#utility.yul\":24238:24252   */\n      mul\n        /* \"#utility.yul\":24234:24256   */\n      add\n        /* \"#utility.yul\":24228:24232   */\n      dup9\n        /* \"#utility.yul\":24221:24257   */\n      sstore\n        /* \"#utility.yul\":23656:24267   */\n      pop\n      pop\n      pop\n        /* \"#utility.yul\":23619:24506   */\n    tag_556:\n      pop\n        /* \"#utility.yul\":23209:24512   */\n      pop\n      pop\n      pop\n        /* \"#utility.yul\":23117:24512   */\n      pop\n      pop\n      jump\t// out\n        /* \"#utility.yul\":24518:24759   */\n    tag_291:\n        /* \"#utility.yul\":24658:24692   */\n      0x4f6e6c79207468652074656e616e74206f722070726f7065727479206f776e65\n        /* \"#utility.yul\":24654:24655   */\n      0x00\n        /* \"#utility.yul\":24646:24652   */\n      dup3\n        /* \"#utility.yul\":24642:24656   */\n      add\n        /* \"#utility.yul\":24635:24693   */\n      mstore\n        /* \"#utility.yul\":24727:24751   */\n      0x722063616e2066696c65206120636f6d706c61696e7400000000000000000000\n        /* \"#utility.yul\":24722:24724   */\n      0x20\n        /* \"#utility.yul\":24714:24720   */\n      dup3\n        /* \"#utility.yul\":24710:24725   */\n      add\n        /* \"#utility.yul\":24703:24752   */\n      mstore\n        /* \"#utility.yul\":24518:24759   */\n      pop\n      jump\t// out\n        /* \"#utility.yul\":24765:25131   */\n    tag_292:\n        /* \"#utility.yul\":24907:24910   */\n      0x00\n        /* \"#utility.yul\":24928:24995   */\n      tag_568\n        /* \"#utility.yul\":24992:24994   */\n      0x36\n        /* \"#utility.yul\":24987:24990   */\n      dup4\n        /* \"#utility.yul\":24928:24995   */\n      tag_247\n      jump\t// in\n    tag_568:\n        /* \"#utility.yul\":24921:24995   */\n      swap2\n      pop\n        /* \"#utility.yul\":25004:25097   */\n      tag_569\n        /* \"#utility.yul\":25093:25096   */\n      dup3\n        /* \"#utility.yul\":25004:25097   */\n      tag_291\n      jump\t// in\n    tag_569:\n        /* \"#utility.yul\":25122:25124   */\n      0x40\n        /* \"#utility.yul\":25117:25120   */\n      dup3\n        /* \"#utility.yul\":25113:25125   */\n      add\n        /* \"#utility.yul\":25106:25125   */\n      swap1\n      pop\n        /* \"#utility.yul\":24765:25131   */\n      swap2\n      swap1\n      pop\n      jump\t// out\n        /* \"#utility.yul\":25137:25556   */\n    tag_159:\n        /* \"#utility.yul\":25303:25307   */\n      0x00\n        /* \"#utility.yul\":25341:25343   */\n      0x20\n        /* \"#utility.yul\":25330:25339   */\n      dup3\n        /* \"#utility.yul\":25326:25344   */\n      add\n        /* \"#utility.yul\":25318:25344   */\n      swap1\n      pop\n        /* \"#utility.yul\":25390:25399   */\n      dup2\n        /* \"#utility.yul\":25384:25388   */\n      dup2\n        /* \"#utility.yul\":25380:25400   */\n      sub\n        /* \"#utility.yul\":25376:25377   */\n      0x00\n        /* \"#utility.yul\":25365:25374   */\n      dup4\n        /* \"#utility.yul\":25361:25378   */\n      add\n        /* \"#utility.yul\":25354:25401   */\n      mstore\n        /* \"#utility.yul\":25418:25549   */\n      tag_571\n        /* \"#utility.yul\":25544:25548   */\n      dup2\n        /* \"#utility.yul\":25418:25549   */\n      tag_292\n      jump\t// in\n    tag_571:\n        /* \"#utility.yul\":25410:25549   */\n      swap1\n      pop\n        /* \"#utility.yul\":25137:25556   */\n      swap2\n      swap1\n      pop\n      jump\t// out\n        /* \"#utility.yul\":25562:25710   */\n    tag_293:\n        /* \"#utility.yul\":25664:25675   */\n      0x00\n        /* \"#utility.yul\":25701:25704   */\n      dup2\n        /* \"#utility.yul\":25686:25704   */\n      swap1\n      pop\n        /* \"#utility.yul\":25562:25710   */\n      swap3\n      swap2\n      pop\n      pop\n      jump\t// out\n        /* \"#utility.yul\":25716:26106   */\n    tag_294:\n        /* \"#utility.yul\":25822:25825   */\n      0x00\n        /* \"#utility.yul\":25850:25889   */\n      tag_574\n        /* \"#utility.yul\":25883:25888   */\n      dup3\n        /* \"#utility.yul\":25850:25889   */\n      tag_246\n      jump\t// in\n    tag_574:\n        /* \"#utility.yul\":25905:25994   */\n      tag_575\n        /* \"#utility.yul\":25987:25993   */\n      dup2\n        /* \"#utility.yul\":25982:25985   */\n      dup6\n        /* \"#utility.yul\":25905:25994   */\n      tag_293\n      jump\t// in\n    tag_575:\n        /* \"#utility.yul\":25898:25994   */\n      swap4\n      pop\n        /* \"#utility.yul\":26003:26068   */\n      tag_576\n        /* \"#utility.yul\":26061:26067   */\n      dup2\n        /* \"#utility.yul\":26056:26059   */\n      dup6\n        /* \"#utility.yul\":26049:26053   */\n      0x20\n        /* \"#utility.yul\":26042:26047   */\n      dup7\n        /* \"#utility.yul\":26038:26054   */\n      add\n        /* \"#utility.yul\":26003:26068   */\n      tag_248\n      jump\t// in\n    tag_576:\n        /* \"#utility.yul\":26093:26099   */\n      dup1\n        /* \"#utility.yul\":26088:26091   */\n      dup5\n        /* \"#utility.yul\":26084:26100   */\n      add\n        /* \"#utility.yul\":26077:26100   */\n      swap2\n      pop\n        /* \"#utility.yul\":25826:26106   */\n      pop\n        /* \"#utility.yul\":25716:26106   */\n      swap3\n      swap2\n      pop\n      pop\n      jump\t// out\n        /* \"#utility.yul\":26112:26387   */\n    tag_166:\n        /* \"#utility.yul\":26244:26247   */\n      0x00\n        /* \"#utility.yul\":26266:26361   */\n      tag_578\n        /* \"#utility.yul\":26357:26360   */\n      dup3\n        /* \"#utility.yul\":26348:26354   */\n      dup5\n        /* \"#utility.yul\":26266:26361   */\n      tag_294\n      jump\t// in\n    tag_578:\n        /* \"#utility.yul\":26259:26361   */\n      swap2\n      pop\n        /* \"#utility.yul\":26378:26381   */\n      dup2\n        /* \"#utility.yul\":26371:26381   */\n      swap1\n      pop\n        /* \"#utility.yul\":26112:26387   */\n      swap3\n      swap2\n      pop\n      pop\n      jump\t// out\n        /* \"#utility.yul\":26393:26557   */\n    tag_295:\n        /* \"#utility.yul\":26533:26549   */\n      0x55736572206e6f7420666f756e64000000000000000000000000000000000000\n        /* \"#utility.yul\":26529:26530   */\n      0x00\n        /* \"#utility.yul\":26521:26527   */\n      dup3\n        /* \"#utility.yul\":26517:26531   */\n      add\n        /* \"#utility.yul\":26510:26550   */\n      mstore\n        /* \"#utility.yul\":26393:26557   */\n      pop\n      jump\t// out\n        /* \"#utility.yul\":26563:26929   */\n    tag_296:\n        /* \"#utility.yul\":26705:26708   */\n      0x00\n        /* \"#utility.yul\":26726:26793   */\n      tag_581\n        /* \"#utility.yul\":26790:26792   */\n      0x0e\n        /* \"#utility.yul\":26785:26788   */\n      dup4\n        /* \"#utility.yul\":26726:26793   */\n      tag_247\n      jump\t// in\n    tag_581:\n        /* \"#utility.yul\":26719:26793   */\n      swap2\n      pop\n        /* \"#utility.yul\":26802:26895   */\n      tag_582\n        /* \"#utility.yul\":26891:26894   */\n      dup3\n        /* \"#utility.yul\":26802:26895   */\n      tag_295\n      jump\t// in\n    tag_582:\n        /* \"#utility.yul\":26920:26922   */\n      0x20\n        /* \"#utility.yul\":26915:26918   */\n      dup3\n        /* \"#utility.yul\":26911:26923   */\n      add\n        /* \"#utility.yul\":26904:26923   */\n      swap1\n      pop\n        /* \"#utility.yul\":26563:26929   */\n      swap2\n      swap1\n      pop\n      jump\t// out\n        /* \"#utility.yul\":26935:27354   */\n    tag_186:\n        /* \"#utility.yul\":27101:27105   */\n      0x00\n        /* \"#utility.yul\":27139:27141   */\n      0x20\n        /* \"#utility.yul\":27128:27137   */\n      dup3\n        /* \"#utility.yul\":27124:27142   */\n      add\n        /* \"#utility.yul\":27116:27142   */\n      swap1\n      pop\n        /* \"#utility.yul\":27188:27197   */\n      dup2\n        /* \"#utility.yul\":27182:27186   */\n      dup2\n        /* \"#utility.yul\":27178:27198   */\n      sub\n        /* \"#utility.yul\":27174:27175   */\n      0x00\n        /* \"#utility.yul\":27163:27172   */\n      dup4\n        /* \"#utility.yul\":27159:27176   */\n      add\n        /* \"#utility.yul\":27152:27199   */\n      mstore\n        /* \"#utility.yul\":27216:27347   */\n      tag_584\n        /* \"#utility.yul\":27342:27346   */\n      dup2\n        /* \"#utility.yul\":27216:27347   */\n      tag_296\n      jump\t// in\n    tag_584:\n        /* \"#utility.yul\":27208:27347   */\n      swap1\n      pop\n        /* \"#utility.yul\":26935:27354   */\n      swap2\n      swap1\n      pop\n      jump\t// out\n        /* \"#utility.yul\":27360:27538   */\n    tag_297:\n        /* \"#utility.yul\":27500:27530   */\n      0x54656e616e74732063616e2774206164642070726f7065727469657300000000\n        /* \"#utility.yul\":27496:27497   */\n      0x00\n        /* \"#utility.yul\":27488:27494   */\n      dup3\n        /* \"#utility.yul\":27484:27498   */\n      add\n        /* \"#utility.yul\":27477:27531   */\n      mstore\n        /* \"#utility.yul\":27360:27538   */\n      pop\n      jump\t// out\n        /* \"#utility.yul\":27544:27910   */\n    tag_298:\n        /* \"#utility.yul\":27686:27689   */\n      0x00\n        /* \"#utility.yul\":27707:27774   */\n      tag_587\n        /* \"#utility.yul\":27771:27773   */\n      0x1c\n        /* \"#utility.yul\":27766:27769   */\n      dup4\n        /* \"#utility.yul\":27707:27774   */\n      tag_247\n      jump\t// in\n    tag_587:\n        /* \"#utility.yul\":27700:27774   */\n      swap2\n      pop\n        /* \"#utility.yul\":27783:27876   */\n      tag_588\n        /* \"#utility.yul\":27872:27875   */\n      dup3\n        /* \"#utility.yul\":27783:27876   */\n      tag_297\n      jump\t// in\n    tag_588:\n        /* \"#utility.yul\":27901:27903   */\n      0x20\n        /* \"#utility.yul\":27896:27899   */\n      dup3\n        /* \"#utility.yul\":27892:27904   */\n      add\n        /* \"#utility.yul\":27885:27904   */\n      swap1\n      pop\n        /* \"#utility.yul\":27544:27910   */\n      swap2\n      swap1\n      pop\n      jump\t// out\n        /* \"#utility.yul\":27916:28335   */\n    tag_189:\n        /* \"#utility.yul\":28082:28086   */\n      0x00\n        /* \"#utility.yul\":28120:28122   */\n      0x20\n        /* \"#utility.yul\":28109:28118   */\n      dup3\n        /* \"#utility.yul\":28105:28123   */\n      add\n        /* \"#utility.yul\":28097:28123   */\n      swap1\n      pop\n        /* \"#utility.yul\":28169:28178   */\n      dup2\n        /* \"#utility.yul\":28163:28167   */\n      dup2\n        /* \"#utility.yul\":28159:28179   */\n      sub\n        /* \"#utility.yul\":28155:28156   */\n      0x00\n        /* \"#utility.yul\":28144:28153   */\n      dup4\n        /* \"#utility.yul\":28140:28157   */\n      add\n        /* \"#utility.yul\":28133:28180   */\n      mstore\n        /* \"#utility.yul\":28197:28328   */\n      tag_590\n        /* \"#utility.yul\":28323:28327   */\n      dup2\n        /* \"#utility.yul\":28197:28328   */\n      tag_298\n      jump\t// in\n    tag_590:\n        /* \"#utility.yul\":28189:28328   */\n      swap1\n      pop\n        /* \"#utility.yul\":27916:28335   */\n      swap2\n      swap1\n      pop\n      jump\t// out\n        /* \"#utility.yul\":28341:28514   */\n    tag_299:\n        /* \"#utility.yul\":28481:28506   */\n      0x50726f706572747920616c726561647920657869737473000000000000000000\n        /* \"#utility.yul\":28477:28478   */\n      0x00\n        /* \"#utility.yul\":28469:28475   */\n      dup3\n        /* \"#utility.yul\":28465:28479   */\n      add\n        /* \"#utility.yul\":28458:28507   */\n      mstore\n        /* \"#utility.yul\":28341:28514   */\n      pop\n      jump\t// out\n        /* \"#utility.yul\":28520:28886   */\n    tag_300:\n        /* \"#utility.yul\":28662:28665   */\n      0x00\n        /* \"#utility.yul\":28683:28750   */\n      tag_593\n        /* \"#utility.yul\":28747:28749   */\n      0x17\n        /* \"#utility.yul\":28742:28745   */\n      dup4\n        /* \"#utility.yul\":28683:28750   */\n      tag_247\n      jump\t// in\n    tag_593:\n        /* \"#utility.yul\":28676:28750   */\n      swap2\n      pop\n        /* \"#utility.yul\":28759:28852   */\n      tag_594\n        /* \"#utility.yul\":28848:28851   */\n      dup3\n        /* \"#utility.yul\":28759:28852   */\n      tag_299\n      jump\t// in\n    tag_594:\n        /* \"#utility.yul\":28877:28879   */\n      0x20\n        /* \"#utility.yul\":28872:28875   */\n      dup3\n        /* \"#utility.yul\":28868:28880   */\n      add\n        /* \"#utility.yul\":28861:28880   */\n      swap1\n      pop\n        /* \"#utility.yul\":28520:28886   */\n      swap2\n      swap1\n      pop\n      jump\t// out\n        /* \"#utility.yul\":28892:29311   */\n    tag_193:\n        /* \"#utility.yul\":29058:29062   */\n      0x00\n        /* \"#utility.yul\":29096:29098   */\n      0x20\n        /* \"#utility.yul\":29085:29094   */\n      dup3\n        /* \"#utility.yul\":29081:29099   */\n      add\n        /* \"#utility.yul\":29073:29099   */\n      swap1\n      pop\n        /* \"#utility.yul\":29145:29154   */\n      dup2\n        /* \"#utility.yul\":29139:29143   */\n      dup2\n        /* \"#utility.yul\":29135:29155   */\n      sub\n        /* \"#utility.yul\":29131:29132   */\n      0x00\n        /* \"#utility.yul\":29120:29129   */\n      dup4\n        /* \"#utility.yul\":29116:29133   */\n      add\n        /* \"#utility.yul\":29109:29156   */\n      mstore\n        /* \"#utility.yul\":29173:29304   */\n      tag_596\n        /* \"#utility.yul\":29299:29303   */\n      dup2\n        /* \"#utility.yul\":29173:29304   */\n      tag_300\n      jump\t// in\n    tag_596:\n        /* \"#utility.yul\":29165:29304   */\n      swap1\n      pop\n        /* \"#utility.yul\":28892:29311   */\n      swap2\n      swap1\n      pop\n      jump\t// out\n        /* \"#utility.yul\":29317:29538   */\n    tag_301:\n        /* \"#utility.yul\":29457:29491   */\n      0x54656e616e74732063616e6e6f7420696e697469617465206120636f6e747261\n        /* \"#utility.yul\":29453:29454   */\n      0x00\n        /* \"#utility.yul\":29445:29451   */\n      dup3\n        /* \"#utility.yul\":29441:29455   */\n      add\n        /* \"#utility.yul\":29434:29492   */\n      mstore\n        /* \"#utility.yul\":29526:29530   */\n      0x6374000000000000000000000000000000000000000000000000000000000000\n        /* \"#utility.yul\":29521:29523   */\n      0x20\n        /* \"#utility.yul\":29513:29519   */\n      dup3\n        /* \"#utility.yul\":29509:29524   */\n      add\n        /* \"#utility.yul\":29502:29531   */\n      mstore\n        /* \"#utility.yul\":29317:29538   */\n      pop\n      jump\t// out\n        /* \"#utility.yul\":29544:29910   */\n    tag_302:\n        /* \"#utility.yul\":29686:29689   */\n      0x00\n        /* \"#utility.yul\":29707:29774   */\n      tag_599\n        /* \"#utility.yul\":29771:29773   */\n      0x22\n        /* \"#utility.yul\":29766:29769   */\n      dup4\n        /* \"#utility.yul\":29707:29774   */\n      tag_247\n      jump\t// in\n    tag_599:\n        /* \"#utility.yul\":29700:29774   */\n      swap2\n      pop\n        /* \"#utility.yul\":29783:29876   */\n      tag_600\n        /* \"#utility.yul\":29872:29875   */\n      dup3\n        /* \"#utility.yul\":29783:29876   */\n      tag_301\n      jump\t// in\n    tag_600:\n        /* \"#utility.yul\":29901:29903   */\n      0x40\n        /* \"#utility.yul\":29896:29899   */\n      dup3\n        /* \"#utility.yul\":29892:29904   */\n      add\n        /* \"#utility.yul\":29885:29904   */\n      swap1\n      pop\n        /* \"#utility.yul\":29544:29910   */\n      swap2\n      swap1\n      pop\n      jump\t// out\n        /* \"#utility.yul\":29916:30335   */\n    tag_207:\n        /* \"#utility.yul\":30082:30086   */\n      0x00\n        /* \"#utility.yul\":30120:30122   */\n      0x20\n        /* \"#utility.yul\":30109:30118   */\n      dup3\n        /* \"#utility.yul\":30105:30123   */\n      add\n        /* \"#utility.yul\":30097:30123   */\n      swap1\n      pop\n        /* \"#utility.yul\":30169:30178   */\n      dup2\n        /* \"#utility.yul\":30163:30167   */\n      dup2\n        /* \"#utility.yul\":30159:30179   */\n      sub\n        /* \"#utility.yul\":30155:30156   */\n      0x00\n        /* \"#utility.yul\":30144:30153   */\n      dup4\n        /* \"#utility.yul\":30140:30157   */\n      add\n        /* \"#utility.yul\":30133:30180   */\n      mstore\n        /* \"#utility.yul\":30197:30328   */\n      tag_602\n        /* \"#utility.yul\":30323:30327   */\n      dup2\n        /* \"#utility.yul\":30197:30328   */\n      tag_302\n      jump\t// in\n    tag_602:\n        /* \"#utility.yul\":30189:30328   */\n      swap1\n      pop\n        /* \"#utility.yul\":29916:30335   */\n      swap2\n      swap1\n      pop\n      jump\t// out\n        /* \"#utility.yul\":30341:30509   */\n    tag_303:\n        /* \"#utility.yul\":30481:30501   */\n      0x50726f7065727479206e6f7420666f756e640000000000000000000000000000\n        /* \"#utility.yul\":30477:30478   */\n      0x00\n        /* \"#utility.yul\":30469:30475   */\n      dup3\n        /* \"#utility.yul\":30465:30479   */\n      add\n        /* \"#utility.yul\":30458:30502   */\n      mstore\n        /* \"#utility.yul\":30341:30509   */\n      pop\n      jump\t// out\n        /* \"#utility.yul\":30515:30881   */\n    tag_304:\n        /* \"#utility.yul\":30657:30660   */\n      0x00\n        /* \"#utility.yul\":30678:30745   */\n      tag_605\n        /* \"#utility.yul\":30742:30744   */\n      0x12\n        /* \"#utility.yul\":30737:30740   */\n      dup4\n        /* \"#utility.yul\":30678:30745   */\n      tag_247\n      jump\t// in\n    tag_605:\n        /* \"#utility.yul\":30671:30745   */\n      swap2\n      pop\n        /* \"#utility.yul\":30754:30847   */\n      tag_606\n        /* \"#utility.yul\":30843:30846   */\n      dup3\n        /* \"#utility.yul\":30754:30847   */\n      tag_303\n      jump\t// in\n    tag_606:\n        /* \"#utility.yul\":30872:30874   */\n      0x20\n        /* \"#utility.yul\":30867:30870   */\n      dup3\n        /* \"#utility.yul\":30863:30875   */\n      add\n        /* \"#utility.yul\":30856:30875   */\n      swap1\n      pop\n        /* \"#utility.yul\":30515:30881   */\n      swap2\n      swap1\n      pop\n      jump\t// out\n        /* \"#utility.yul\":30887:31306   */\n    tag_211:\n        /* \"#utility.yul\":31053:31057   */\n      0x00\n        /* \"#utility.yul\":31091:31093   */\n      0x20\n        /* \"#utility.yul\":31080:31089   */\n      dup3\n        /* \"#utility.yul\":31076:31094   */\n      add\n        /* \"#utility.yul\":31068:31094   */\n      swap1\n      pop\n        /* \"#utility.yul\":31140:31149   */\n      dup2\n        /* \"#utility.yul\":31134:31138   */\n      dup2\n        /* \"#utility.yul\":31130:31150   */\n      sub\n        /* \"#utility.yul\":31126:31127   */\n      0x00\n        /* \"#utility.yul\":31115:31124   */\n      dup4\n        /* \"#utility.yul\":31111:31128   */\n      add\n        /* \"#utility.yul\":31104:31151   */\n      mstore\n        /* \"#utility.yul\":31168:31299   */\n      tag_608\n        /* \"#utility.yul\":31294:31298   */\n      dup2\n        /* \"#utility.yul\":31168:31299   */\n      tag_304\n      jump\t// in\n    tag_608:\n        /* \"#utility.yul\":31160:31299   */\n      swap1\n      pop\n        /* \"#utility.yul\":30887:31306   */\n      swap2\n      swap1\n      pop\n      jump\t// out\n        /* \"#utility.yul\":31312:31406   */\n    tag_305:\n        /* \"#utility.yul\":31345:31353   */\n      0x00\n        /* \"#utility.yul\":31393:31398   */\n      dup2\n        /* \"#utility.yul\":31389:31391   */\n      0x60\n        /* \"#utility.yul\":31385:31399   */\n      shl\n        /* \"#utility.yul\":31364:31399   */\n      swap1\n      pop\n        /* \"#utility.yul\":31312:31406   */\n      swap2\n      swap1\n      pop\n      jump\t// out\n        /* \"#utility.yul\":31412:31506   */\n    tag_306:\n        /* \"#utility.yul\":31451:31458   */\n      0x00\n        /* \"#utility.yul\":31480:31500   */\n      tag_611\n        /* \"#utility.yul\":31494:31499   */\n      dup3\n        /* \"#utility.yul\":31480:31500   */\n      tag_305\n      jump\t// in\n    tag_611:\n        /* \"#utility.yul\":31469:31500   */\n      swap1\n      pop\n        /* \"#utility.yul\":31412:31506   */\n      swap2\n      swap1\n      pop\n      jump\t// out\n        /* \"#utility.yul\":31512:31612   */\n    tag_307:\n        /* \"#utility.yul\":31551:31558   */\n      0x00\n        /* \"#utility.yul\":31580:31606   */\n      tag_613\n        /* \"#utility.yul\":31600:31605   */\n      dup3\n        /* \"#utility.yul\":31580:31606   */\n      tag_306\n      jump\t// in\n    tag_613:\n        /* \"#utility.yul\":31569:31606   */\n      swap1\n      pop\n        /* \"#utility.yul\":31512:31612   */\n      swap2\n      swap1\n      pop\n      jump\t// out\n        /* \"#utility.yul\":31618:31775   */\n    tag_308:\n        /* \"#utility.yul\":31723:31768   */\n      tag_615\n        /* \"#utility.yul\":31743:31767   */\n      tag_616\n        /* \"#utility.yul\":31761:31766   */\n      dup3\n        /* \"#utility.yul\":31743:31767   */\n      tag_243\n      jump\t// in\n    tag_616:\n        /* \"#utility.yul\":31723:31768   */\n      tag_307\n      jump\t// in\n    tag_615:\n        /* \"#utility.yul\":31718:31721   */\n      dup3\n        /* \"#utility.yul\":31711:31769   */\n      mstore\n        /* \"#utility.yul\":31618:31775   */\n      pop\n      pop\n      jump\t// out\n        /* \"#utility.yul\":31781:31860   */\n    tag_309:\n        /* \"#utility.yul\":31820:31827   */\n      0x00\n        /* \"#utility.yul\":31849:31854   */\n      dup2\n        /* \"#utility.yul\":31838:31854   */\n      swap1\n      pop\n        /* \"#utility.yul\":31781:31860   */\n      swap2\n      swap1\n      pop\n      jump\t// out\n        /* \"#utility.yul\":31866:32023   */\n    tag_310:\n        /* \"#utility.yul\":31971:32016   */\n      tag_619\n        /* \"#utility.yul\":31991:32015   */\n      tag_620\n        /* \"#utility.yul\":32009:32014   */\n      dup3\n        /* \"#utility.yul\":31991:32015   */\n      tag_254\n      jump\t// in\n    tag_620:\n        /* \"#utility.yul\":31971:32016   */\n      tag_309\n      jump\t// in\n    tag_619:\n        /* \"#utility.yul\":31966:31969   */\n      dup3\n        /* \"#utility.yul\":31959:32017   */\n      mstore\n        /* \"#utility.yul\":31866:32023   */\n      pop\n      pop\n      jump\t// out\n        /* \"#utility.yul\":32029:32727   */\n    tag_213:\n        /* \"#utility.yul\":32245:32248   */\n      0x00\n        /* \"#utility.yul\":32260:32335   */\n      tag_622\n        /* \"#utility.yul\":32331:32334   */\n      dup3\n        /* \"#utility.yul\":32322:32328   */\n      dup8\n        /* \"#utility.yul\":32260:32335   */\n      tag_308\n      jump\t// in\n    tag_622:\n        /* \"#utility.yul\":32360:32362   */\n      0x14\n        /* \"#utility.yul\":32355:32358   */\n      dup3\n        /* \"#utility.yul\":32351:32363   */\n      add\n        /* \"#utility.yul\":32344:32363   */\n      swap2\n      pop\n        /* \"#utility.yul\":32380:32475   */\n      tag_623\n        /* \"#utility.yul\":32471:32474   */\n      dup3\n        /* \"#utility.yul\":32462:32468   */\n      dup7\n        /* \"#utility.yul\":32380:32475   */\n      tag_294\n      jump\t// in\n    tag_623:\n        /* \"#utility.yul\":32373:32475   */\n      swap2\n      pop\n        /* \"#utility.yul\":32485:32560   */\n      tag_624\n        /* \"#utility.yul\":32556:32559   */\n      dup3\n        /* \"#utility.yul\":32547:32553   */\n      dup6\n        /* \"#utility.yul\":32485:32560   */\n      tag_310\n      jump\t// in\n    tag_624:\n        /* \"#utility.yul\":32585:32587   */\n      0x20\n        /* \"#utility.yul\":32580:32583   */\n      dup3\n        /* \"#utility.yul\":32576:32588   */\n      add\n        /* \"#utility.yul\":32569:32588   */\n      swap2\n      pop\n        /* \"#utility.yul\":32598:32673   */\n      tag_625\n        /* \"#utility.yul\":32669:32672   */\n      dup3\n        /* \"#utility.yul\":32660:32666   */\n      dup5\n        /* \"#utility.yul\":32598:32673   */\n      tag_310\n      jump\t// in\n    tag_625:\n        /* \"#utility.yul\":32698:32700   */\n      0x20\n        /* \"#utility.yul\":32693:32696   */\n      dup3\n        /* \"#utility.yul\":32689:32701   */\n      add\n        /* \"#utility.yul\":32682:32701   */\n      swap2\n      pop\n        /* \"#utility.yul\":32718:32721   */\n      dup2\n        /* \"#utility.yul\":32711:32721   */\n      swap1\n      pop\n        /* \"#utility.yul\":32029:32727   */\n      swap6\n      swap5\n      pop\n      pop\n      pop\n      pop\n      pop\n      jump\t// out\n        /* \"#utility.yul\":32733:32905   */\n    tag_311:\n        /* \"#utility.yul\":32873:32897   */\n      0x596f752068617665206e6f20617574686f726974792e00000000000000000000\n        /* \"#utility.yul\":32869:32870   */\n      0x00\n        /* \"#utility.yul\":32861:32867   */\n      dup3\n        /* \"#utility.yul\":32857:32871   */\n      add\n        /* \"#utility.yul\":32850:32898   */\n      mstore\n        /* \"#utility.yul\":32733:32905   */\n      pop\n      jump\t// out\n        /* \"#utility.yul\":32911:33277   */\n    tag_312:\n        /* \"#utility.yul\":33053:33056   */\n      0x00\n        /* \"#utility.yul\":33074:33141   */\n      tag_628\n        /* \"#utility.yul\":33138:33140   */\n      0x16\n        /* \"#utility.yul\":33133:33136   */\n      dup4\n        /* \"#utility.yul\":33074:33141   */\n      tag_247\n      jump\t// in\n    tag_628:\n        /* \"#utility.yul\":33067:33141   */\n      swap2\n      pop\n        /* \"#utility.yul\":33150:33243   */\n      tag_629\n        /* \"#utility.yul\":33239:33242   */\n      dup3\n        /* \"#utility.yul\":33150:33243   */\n      tag_311\n      jump\t// in\n    tag_629:\n        /* \"#utility.yul\":33268:33270   */\n      0x20\n        /* \"#utility.yul\":33263:33266   */\n      dup3\n        /* \"#utility.yul\":33259:33271   */\n      add\n        /* \"#utility.yul\":33252:33271   */\n      swap1\n      pop\n        /* \"#utility.yul\":32911:33277   */\n      swap2\n      swap1\n      pop\n      jump\t// out\n        /* \"#utility.yul\":33283:33702   */\n    tag_221:\n        /* \"#utility.yul\":33449:33453   */\n      0x00\n        /* \"#utility.yul\":33487:33489   */\n      0x20\n        /* \"#utility.yul\":33476:33485   */\n      dup3\n        /* \"#utility.yul\":33472:33490   */\n      add\n        /* \"#utility.yul\":33464:33490   */\n      swap1\n      pop\n        /* \"#utility.yul\":33536:33545   */\n      dup2\n        /* \"#utility.yul\":33530:33534   */\n      dup2\n        /* \"#utility.yul\":33526:33546   */\n      sub\n        /* \"#utility.yul\":33522:33523   */\n      0x00\n        /* \"#utility.yul\":33511:33520   */\n      dup4\n        /* \"#utility.yul\":33507:33524   */\n      add\n        /* \"#utility.yul\":33500:33547   */\n      mstore\n        /* \"#utility.yul\":33564:33695   */\n      tag_631\n        /* \"#utility.yul\":33690:33694   */\n      dup2\n        /* \"#utility.yul\":33564:33695   */\n      tag_312\n      jump\t// in\n    tag_631:\n        /* \"#utility.yul\":33556:33695   */\n      swap1\n      pop\n        /* \"#utility.yul\":33283:33702   */\n      swap2\n      swap1\n      pop\n      jump\t// out\n        /* \"#utility.yul\":33708:33888   */\n    tag_313:\n        /* \"#utility.yul\":33756:33833   */\n      0x4e487b7100000000000000000000000000000000000000000000000000000000\n        /* \"#utility.yul\":33753:33754   */\n      0x00\n        /* \"#utility.yul\":33746:33834   */\n      mstore\n        /* \"#utility.yul\":33853:33857   */\n      0x11\n        /* \"#utility.yul\":33850:33851   */\n      0x04\n        /* \"#utility.yul\":33843:33858   */\n      mstore\n        /* \"#utility.yul\":33877:33881   */\n      0x24\n        /* \"#utility.yul\":33874:33875   */\n      0x00\n        /* \"#utility.yul\":33867:33882   */\n      revert\n        /* \"#utility.yul\":33894:34085   */\n    tag_226:\n        /* \"#utility.yul\":33934:33937   */\n      0x00\n        /* \"#utility.yul\":33953:33973   */\n      tag_634\n        /* \"#utility.yul\":33971:33972   */\n      dup3\n        /* \"#utility.yul\":33953:33973   */\n      tag_254\n      jump\t// in\n    tag_634:\n        /* \"#utility.yul\":33948:33973   */\n      swap2\n      pop\n        /* \"#utility.yul\":33987:34007   */\n      tag_635\n        /* \"#utility.yul\":34005:34006   */\n      dup4\n        /* \"#utility.yul\":33987:34007   */\n      tag_254\n      jump\t// in\n    tag_635:\n        /* \"#utility.yul\":33982:34007   */\n      swap3\n      pop\n        /* \"#utility.yul\":34030:34031   */\n      dup3\n        /* \"#utility.yul\":34027:34028   */\n      dup3\n        /* \"#utility.yul\":34023:34032   */\n      add\n        /* \"#utility.yul\":34016:34032   */\n      swap1\n      pop\n        /* \"#utility.yul\":34051:34054   */\n      dup1\n        /* \"#utility.yul\":34048:34049   */\n      dup3\n        /* \"#utility.yul\":34045:34055   */\n      gt\n        /* \"#utility.yul\":34042:34078   */\n      iszero\n      tag_636\n      jumpi\n        /* \"#utility.yul\":34058:34076   */\n      tag_637\n      tag_313\n      jump\t// in\n    tag_637:\n        /* \"#utility.yul\":34042:34078   */\n    tag_636:\n        /* \"#utility.yul\":33894:34085   */\n      swap3\n      swap2\n      pop\n      pop\n      jump\t// out\n        /* \"#utility.yul\":34091:34318   */\n    tag_314:\n        /* \"#utility.yul\":34231:34265   */\n      0x4e6f742031352064617973206265666f72652074686520636f6e747261637420\n        /* \"#utility.yul\":34227:34228   */\n      0x00\n        /* \"#utility.yul\":34219:34225   */\n      dup3\n        /* \"#utility.yul\":34215:34229   */\n      add\n        /* \"#utility.yul\":34208:34266   */\n      mstore\n        /* \"#utility.yul\":34300:34310   */\n      0x656e642064617465000000000000000000000000000000000000000000000000\n        /* \"#utility.yul\":34295:34297   */\n      0x20\n        /* \"#utility.yul\":34287:34293   */\n      dup3\n        /* \"#utility.yul\":34283:34298   */\n      add\n        /* \"#utility.yul\":34276:34311   */\n      mstore\n        /* \"#utility.yul\":34091:34318   */\n      pop\n      jump\t// out\n        /* \"#utility.yul\":34324:34690   */\n    tag_315:\n        /* \"#utility.yul\":34466:34469   */\n      0x00\n        /* \"#utility.yul\":34487:34554   */\n      tag_640\n        /* \"#utility.yul\":34551:34553   */\n      0x28\n        /* \"#utility.yul\":34546:34549   */\n      dup4\n        /* \"#utility.yul\":34487:34554   */\n      tag_247\n      jump\t// in\n    tag_640:\n        /* \"#utility.yul\":34480:34554   */\n      swap2\n      pop\n        /* \"#utility.yul\":34563:34656   */\n      tag_641\n        /* \"#utility.yul\":34652:34655   */\n      dup3\n        /* \"#utility.yul\":34563:34656   */\n      tag_314\n      jump\t// in\n    tag_641:\n        /* \"#utility.yul\":34681:34683   */\n      0x40\n        /* \"#utility.yul\":34676:34679   */\n      dup3\n        /* \"#utility.yul\":34672:34684   */\n      add\n        /* \"#utility.yul\":34665:34684   */\n      swap1\n      pop\n        /* \"#utility.yul\":34324:34690   */\n      swap2\n      swap1\n      pop\n      jump\t// out\n        /* \"#utility.yul\":34696:35115   */\n    tag_229:\n        /* \"#utility.yul\":34862:34866   */\n      0x00\n        /* \"#utility.yul\":34900:34902   */\n      0x20\n        /* \"#utility.yul\":34889:34898   */\n      dup3\n        /* \"#utility.yul\":34885:34903   */\n      add\n        /* \"#utility.yul\":34877:34903   */\n      swap1\n      pop\n        /* \"#utility.yul\":34949:34958   */\n      dup2\n        /* \"#utility.yul\":34943:34947   */\n      dup2\n        /* \"#utility.yul\":34939:34959   */\n      sub\n        /* \"#utility.yul\":34935:34936   */\n      0x00\n        /* \"#utility.yul\":34924:34933   */\n      dup4\n        /* \"#utility.yul\":34920:34937   */\n      add\n        /* \"#utility.yul\":34913:34960   */\n      mstore\n        /* \"#utility.yul\":34977:35108   */\n      tag_643\n        /* \"#utility.yul\":35103:35107   */\n      dup2\n        /* \"#utility.yul\":34977:35108   */\n      tag_315\n      jump\t// in\n    tag_643:\n        /* \"#utility.yul\":34969:35108   */\n      swap1\n      pop\n        /* \"#utility.yul\":34696:35115   */\n      swap2\n      swap1\n      pop\n      jump\t// out\n\n    auxdata: 0xa264697066735822122054c9e59272f167d594aa2149528a3b38b4f94c6fd755d485d3df79083520b4b664736f6c63430008120033\n}\n",
				"bytecode": {
					"linkReferences": {},
					"object": "608060405234801561001057600080fd5b50336000806101000a81548173ffffffffffffffffffffffffffffffffffffffff021916908373ffffffffffffffffffffffffffffffffffffffff160217905550613a78806100606000396000f3fe608060405234801561001057600080fd5b50600436106101165760003560e01c8063a5b5737c116100a2578063e40cf56511610071578063e40cf5651461033d578063e545248d1461036f578063e7c17d671461038b578063eea57141146103be578063f50d63ef146103da57610116565b8063a5b5737c1461029e578063b387d778146102ba578063b3cf9deb146102d6578063cbd240931461030657610116565b80634ef9d923116100e95780634ef9d923146101ce57806359bf1abe146101ea57806380144bce1461021a57806386584e271461024e57806391e7f13a1461026a57610116565b806316dd85da1461011b5780631925a77a1461014d5780634838d165146101805780634e8abc87146101b0575b600080fd5b610135600480360381019061013091906128a4565b6103f6565b6040516101449392919061298b565b60405180910390f35b610167600480360381019061016291906129ff565b6104d5565b6040516101779493929190612a3b565b60405180910390f35b61019a600480360381019061019591906128a4565b610612565b6040516101a79190612a87565b60405180910390f35b6101b8610632565b6040516101c59190612aa2565b60405180910390f35b6101e860048036038101906101e39190612ae9565b610656565b005b61020460048036038101906101ff91906128a4565b6107d3565b6040516102119190612a87565b60405180910390f35b610234600480360381019061022f91906129ff565b610829565b604051610245959493929190612b29565b60405180910390f35b61026860048036038101906102639190612cb8565b610947565b005b610284600480360381019061027f9190612d14565b610b0e565b604051610295959493929190612d5d565b60405180910390f35b6102b860048036038101906102b39190612ae9565b610c97565b005b6102d460048036038101906102cf9190612dbe565b610e43565b005b6102f060048036038101906102eb9190612d14565b61142b565b6040516102fd9190612e1a565b60405180910390f35b610320600480360381019061031b91906129ff565b611456565b604051610334989796959493929190612e35565b60405180910390f35b610357600480360381019061035291906129ff565b611608565b60405161036693929190612ec1565b60405180910390f35b61038960048036038101906103849190612eff565b61170a565b005b6103a560048036038101906103a091906129ff565b611a1d565b6040516103b59493929190612f77565b60405180910390f35b6103d860048036038101906103d39190612fc3565b611b15565b005b6103f460048036038101906103ef9190613076565b611f17565b005b600260205280600052604060002060009150905080600001805461041990613114565b80601f016020809104026020016040519081016040528092919081815260200182805461044590613114565b80156104925780601f1061046757610100808354040283529160200191610492565b820191906000526020600020905b81548152906001019060200180831161047557829003601f168201915b5050505050908060010160009054906101000a900473ffffffffffffffffffffffffffffffffffffffff16908060010160149054906101000a900460ff16905083565b6000806000606060056000868152602001908152602001600020600001546005600087815260200190815260200160002060010160009054906101000a900473ffffffffffffffffffffffffffffffffffffffff166005600088815260200190815260200160002060020160009054906101000a900473ffffffffffffffffffffffffffffffffffffffff166005600089815260200190815260200160002060030180805461058390613114565b80601f01602080910402602001604051908101604052809291908181526020018280546105af90613114565b80156105fc5780601f106105d1576101008083540402835291602001916105fc565b820191906000526020600020905b8154815290600101906020018083116105df57829003601f168201915b5050505050905093509350935093509193509193565b60016020528060005260406000206000915054906101000a900460ff1681565b60008054906101000a900473ffffffffffffffffffffffffffffffffffffffff1681565b600115156004600084815260200190815260200160002060060160009054906101000a900460ff161515146106c0576040517f08c379a00000000000000000000000000000000000000000000000000000000081526004016106b790613191565b60405180910390fd5b3373ffffffffffffffffffffffffffffffffffffffff166006600084815260200190815260200160002060030160009054906101000a900473ffffffffffffffffffffffffffffffffffffffff1673ffffffffffffffffffffffffffffffffffffffff1614610764576040517f08c379a000000000000000000000000000000000000000000000000000000000815260040161075b906131fd565b60405180910390fd5b60011515811515036107cf5760016004600084815260200190815260200160002060060160016101000a81548160ff02191690831515021790555060006004600084815260200190815260200160002060060160006101000a81548160ff0219169083151502179055505b5050565b6000600160008373ffffffffffffffffffffffffffffffffffffffff1673ffffffffffffffffffffffffffffffffffffffff16815260200190815260200160002060009054906101000a900460ff169050919050565b60056020528060005260406000206000915090508060000154908060010160009054906101000a900473ffffffffffffffffffffffffffffffffffffffff16908060020160009054906101000a900473ffffffffffffffffffffffffffffffffffffffff169080600301805461089e90613114565b80601f01602080910402602001604051908101604052809291908181526020018280546108ca90613114565b80156109175780601f106108ec57610100808354040283529160200191610917565b820191906000526020600020905b8154815290600101906020018083116108fa57829003601f168201915b5050505050908060040160009054906101000a900473ffffffffffffffffffffffffffffffffffffffff16905085565b600073ffffffffffffffffffffffffffffffffffffffff16600260003373ffffffffffffffffffffffffffffffffffffffff1673ffffffffffffffffffffffffffffffffffffffff16815260200190815260200160002060010160009054906101000a900473ffffffffffffffffffffffffffffffffffffffff1673ffffffffffffffffffffffffffffffffffffffff1614610a18576040517f08c379a0000000000000000000000000000000000000000000000000000000008152600401610a0f90613269565b60405180910390fd5b60405180606001604052808381526020013373ffffffffffffffffffffffffffffffffffffffff168152602001821515815250600260003373ffffffffffffffffffffffffffffffffffffffff1673ffffffffffffffffffffffffffffffffffffffff1681526020019081526020016000206000820151816000019081610a9f9190613435565b5060208201518160010160006101000a81548173ffffffffffffffffffffffffffffffffffffffff021916908373ffffffffffffffffffffffffffffffffffffffff16021790555060408201518160010160146101000a81548160ff0219169083151502179055509050505050565b6003818051602081018201805184825260208301602085012081835280955050505050506000915090508060000160009054906101000a900473ffffffffffffffffffffffffffffffffffffffff1690806001018054610b6d90613114565b80601f0160208091040260200160405190810160405280929190818152602001828054610b9990613114565b8015610be65780601f10610bbb57610100808354040283529160200191610be6565b820191906000526020600020905b815481529060010190602001808311610bc957829003601f168201915b505050505090806002018054610bfb90613114565b80601f0160208091040260200160405190810160405280929190818152602001828054610c2790613114565b8015610c745780601f10610c4957610100808354040283529160200191610c74565b820191906000526020600020905b815481529060010190602001808311610c5757829003601f168201915b5050505050908060030160009054906101000a900460ff16908060040154905085565b600115156004600084815260200190815260200160002060060160009054906101000a900460ff16151514610d01576040517f08c379a0000000000000000000000000000000000000000000000000000000008152600401610cf890613191565b60405180910390fd5b3373ffffffffffffffffffffffffffffffffffffffff166005600084815260200190815260200160002060040160009054906101000a900473ffffffffffffffffffffffffffffffffffffffff1673ffffffffffffffffffffffffffffffffffffffff1614610da5576040517f08c379a0000000000000000000000000000000000000000000000000000000008152600401610d9c906131fd565b60405180910390fd5b6001151581151503610e3f5760018060006005600086815260200190815260200160002060020160009054906101000a900473ffffffffffffffffffffffffffffffffffffffff1673ffffffffffffffffffffffffffffffffffffffff1673ffffffffffffffffffffffffffffffffffffffff16815260200190815260200160002060006101000a81548160ff0219169083151502179055505b5050565b3373ffffffffffffffffffffffffffffffffffffffff166004600084815260200190815260200160002060010160009054906101000a900473ffffffffffffffffffffffffffffffffffffffff1673ffffffffffffffffffffffffffffffffffffffff161480610f1457503373ffffffffffffffffffffffffffffffffffffffff166004600084815260200190815260200160002060000160009054906101000a900473ffffffffffffffffffffffffffffffffffffffff1673ffffffffffffffffffffffffffffffffffffffff16145b610f53576040517f08c379a0000000000000000000000000000000000000000000000000000000008152600401610f4a90613579565b60405180910390fd5b3373ffffffffffffffffffffffffffffffffffffffff166004600084815260200190815260200160002060010160009054906101000a900473ffffffffffffffffffffffffffffffffffffffff1673ffffffffffffffffffffffffffffffffffffffff16036111bd576040518060a001604052808381526020016004600085815260200190815260200160002060010160009054906101000a900473ffffffffffffffffffffffffffffffffffffffff1673ffffffffffffffffffffffffffffffffffffffff1681526020016004600085815260200190815260200160002060000160009054906101000a900473ffffffffffffffffffffffffffffffffffffffff1673ffffffffffffffffffffffffffffffffffffffff16815260200182815260200160008054906101000a900473ffffffffffffffffffffffffffffffffffffffff1673ffffffffffffffffffffffffffffffffffffffff16815250600560008481526020019081526020016000206000820151816000015560208201518160010160006101000a81548173ffffffffffffffffffffffffffffffffffffffff021916908373ffffffffffffffffffffffffffffffffffffffff16021790555060408201518160020160006101000a81548173ffffffffffffffffffffffffffffffffffffffff021916908373ffffffffffffffffffffffffffffffffffffffff16021790555060608201518160030190816111719190613435565b5060808201518160040160006101000a81548173ffffffffffffffffffffffffffffffffffffffff021916908373ffffffffffffffffffffffffffffffffffffffff1602179055509050505b3373ffffffffffffffffffffffffffffffffffffffff166004600084815260200190815260200160002060000160009054906101000a900473ffffffffffffffffffffffffffffffffffffffff1673ffffffffffffffffffffffffffffffffffffffff1603611427576040518060a001604052808381526020016004600085815260200190815260200160002060000160009054906101000a900473ffffffffffffffffffffffffffffffffffffffff1673ffffffffffffffffffffffffffffffffffffffff1681526020016004600085815260200190815260200160002060010160009054906101000a900473ffffffffffffffffffffffffffffffffffffffff1673ffffffffffffffffffffffffffffffffffffffff16815260200182815260200160008054906101000a900473ffffffffffffffffffffffffffffffffffffffff1673ffffffffffffffffffffffffffffffffffffffff16815250600560008481526020019081526020016000206000820151816000015560208201518160010160006101000a81548173ffffffffffffffffffffffffffffffffffffffff021916908373ffffffffffffffffffffffffffffffffffffffff16021790555060408201518160020160006101000a81548173ffffffffffffffffffffffffffffffffffffffff021916908373ffffffffffffffffffffffffffffffffffffffff16021790555060608201518160030190816113db9190613435565b5060808201518160040160006101000a81548173ffffffffffffffffffffffffffffffffffffffff021916908373ffffffffffffffffffffffffffffffffffffffff1602179055509050505b5050565b600060038260405161143d91906135d5565b9081526020016040518091039020600401549050919050565b60046020528060005260406000206000915090508060000160009054906101000a900473ffffffffffffffffffffffffffffffffffffffff16908060010160009054906101000a900473ffffffffffffffffffffffffffffffffffffffff16908060020180546114c590613114565b80601f01602080910402602001604051908101604052809291908181526020018280546114f190613114565b801561153e5780601f106115135761010080835404028352916020019161153e565b820191906000526020600020905b81548152906001019060200180831161152157829003601f168201915b50505050509080600301805461155390613114565b80601f016020809104026020016040519081016040528092919081815260200182805461157f90613114565b80156115cc5780601f106115a1576101008083540402835291602001916115cc565b820191906000526020600020905b8154815290600101906020018083116115af57829003601f168201915b5050505050908060040154908060050154908060060160009054906101000a900460ff16908060060160019054906101000a900460ff16905088565b600080606060066000858152602001908152602001600020600001546006600086815260200190815260200160002060010160009054906101000a900473ffffffffffffffffffffffffffffffffffffffff166006600087815260200190815260200160002060020180805461167d90613114565b80601f01602080910402602001604051908101604052809291908181526020018280546116a990613114565b80156116f65780601f106116cb576101008083540402835291602001916116f6565b820191906000526020600020905b8154815290600101906020018083116116d957829003601f168201915b505050505090509250925092509193909250565b600073ffffffffffffffffffffffffffffffffffffffff16600260003373ffffffffffffffffffffffffffffffffffffffff1673ffffffffffffffffffffffffffffffffffffffff16815260200190815260200160002060010160009054906101000a900473ffffffffffffffffffffffffffffffffffffffff1673ffffffffffffffffffffffffffffffffffffffff16036117db576040517f08c379a00000000000000000000000000000000000000000000000000000000081526004016117d290613638565b60405180910390fd5b600260003373ffffffffffffffffffffffffffffffffffffffff1673ffffffffffffffffffffffffffffffffffffffff16815260200190815260200160002060010160149054906101000a900460ff1661186a576040517f08c379a0000000000000000000000000000000000000000000000000000000008152600401611861906136a4565b60405180910390fd5b600073ffffffffffffffffffffffffffffffffffffffff1660038360405161189291906135d5565b908152602001604051809103902060000160009054906101000a900473ffffffffffffffffffffffffffffffffffffffff1673ffffffffffffffffffffffffffffffffffffffff161461191a576040517f08c379a000000000000000000000000000000000000000000000000000000000815260040161191190613710565b60405180910390fd5b6040518060a001604052803373ffffffffffffffffffffffffffffffffffffffff168152602001838152602001828152602001600015158152602001600081525060038360405161196b91906135d5565b908152602001604051809103902060008201518160000160006101000a81548173ffffffffffffffffffffffffffffffffffffffff021916908373ffffffffffffffffffffffffffffffffffffffff16021790555060208201518160010190816119d59190613435565b5060408201518160020190816119eb9190613435565b5060608201518160030160006101000a81548160ff021916908315150217905550608082015181600401559050505050565b60066020528060005260406000206000915090508060000154908060010160009054906101000a900473ffffffffffffffffffffffffffffffffffffffff1690806002018054611a6c90613114565b80601f0160208091040260200160405190810160405280929190818152602001828054611a9890613114565b8015611ae55780601f10611aba57610100808354040283529160200191611ae5565b820191906000526020600020905b815481529060010190602001808311611ac857829003601f168201915b5050505050908060030160009054906101000a900473ffffffffffffffffffffffffffffffffffffffff16905084565b600073ffffffffffffffffffffffffffffffffffffffff16600260003373ffffffffffffffffffffffffffffffffffffffff1673ffffffffffffffffffffffffffffffffffffffff16815260200190815260200160002060010160009054906101000a900473ffffffffffffffffffffffffffffffffffffffff1673ffffffffffffffffffffffffffffffffffffffff1603611be6576040517f08c379a0000000000000000000000000000000000000000000000000000000008152600401611bdd90613638565b60405180910390fd5b600260003373ffffffffffffffffffffffffffffffffffffffff1673ffffffffffffffffffffffffffffffffffffffff16815260200190815260200160002060010160149054906101000a900460ff16611c75576040517f08c379a0000000000000000000000000000000000000000000000000000000008152600401611c6c906137a2565b60405180910390fd5b600073ffffffffffffffffffffffffffffffffffffffff16600385604051611c9d91906135d5565b908152602001604051809103902060000160009054906101000a900473ffffffffffffffffffffffffffffffffffffffff1673ffffffffffffffffffffffffffffffffffffffff1603611d25576040517f08c379a0000000000000000000000000000000000000000000000000000000008152600401611d1c9061380e565b60405180910390fd5b600033858484604051602001611d3e9493929190613897565b6040516020818303038152906040528051906020012060001c90506040518061010001604052803373ffffffffffffffffffffffffffffffffffffffff1681526020018773ffffffffffffffffffffffffffffffffffffffff168152602001868152602001858152602001848152602001838152602001600115158152602001600015158152506004600083815260200190815260200160002060008201518160000160006101000a81548173ffffffffffffffffffffffffffffffffffffffff021916908373ffffffffffffffffffffffffffffffffffffffff16021790555060208201518160010160006101000a81548173ffffffffffffffffffffffffffffffffffffffff021916908373ffffffffffffffffffffffffffffffffffffffff1602179055506040820151816002019081611e7b9190613435565b506060820151816003019081611e919190613435565b506080820151816004015560a0820151816005015560c08201518160060160006101000a81548160ff02191690831515021790555060e08201518160060160016101000a81548160ff02191690831515021790555090505080600386604051611efa91906135d5565b908152602001604051809103902060040181905550505050505050565b3373ffffffffffffffffffffffffffffffffffffffff166004600085815260200190815260200160002060010160009054906101000a900473ffffffffffffffffffffffffffffffffffffffff1673ffffffffffffffffffffffffffffffffffffffff161480611fe857503373ffffffffffffffffffffffffffffffffffffffff166004600085815260200190815260200160002060000160009054906101000a900473ffffffffffffffffffffffffffffffffffffffff1673ffffffffffffffffffffffffffffffffffffffff16145b612027576040517f08c379a000000000000000000000000000000000000000000000000000000000815260040161201e9061392d565b60405180910390fd5b600115156004600085815260200190815260200160002060060160009054906101000a900460ff16151514612091576040517f08c379a000000000000000000000000000000000000000000000000000000000815260040161208890613191565b60405180910390fd5b3373ffffffffffffffffffffffffffffffffffffffff166004600085815260200190815260200160002060010160009054906101000a900473ffffffffffffffffffffffffffffffffffffffff1673ffffffffffffffffffffffffffffffffffffffff16036123565760006004600085815260200190815260200160002060050154905060006213c68042612126919061397c565b905080821061216a576040517f08c379a000000000000000000000000000000000000000000000000000000000815260040161216190613a22565b60405180910390fd5b808210156121d55760016004600087815260200190815260200160002060060160016101000a81548160ff02191690831515021790555060006004600087815260200190815260200160002060060160006101000a81548160ff021916908315150217905550612353565b60405180608001604052808681526020016004600088815260200190815260200160002060010160009054906101000a900473ffffffffffffffffffffffffffffffffffffffff1673ffffffffffffffffffffffffffffffffffffffff1681526020018481526020016004600088815260200190815260200160002060000160009054906101000a900473ffffffffffffffffffffffffffffffffffffffff1673ffffffffffffffffffffffffffffffffffffffff16815250600660008781526020019081526020016000206000820151816000015560208201518160010160006101000a81548173ffffffffffffffffffffffffffffffffffffffff021916908373ffffffffffffffffffffffffffffffffffffffff16021790555060408201518160020190816123079190613435565b5060608201518160030160006101000a81548173ffffffffffffffffffffffffffffffffffffffff021916908373ffffffffffffffffffffffffffffffffffffffff1602179055509050505b50505b3373ffffffffffffffffffffffffffffffffffffffff166004600085815260200190815260200160002060000160009054906101000a900473ffffffffffffffffffffffffffffffffffffffff1673ffffffffffffffffffffffffffffffffffffffff160361282d5781156125475760405180608001604052808481526020016004600086815260200190815260200160002060000160009054906101000a900473ffffffffffffffffffffffffffffffffffffffff1673ffffffffffffffffffffffffffffffffffffffff1681526020018281526020016004600086815260200190815260200160002060010160009054906101000a900473ffffffffffffffffffffffffffffffffffffffff1673ffffffffffffffffffffffffffffffffffffffff16815250600660008581526020019081526020016000206000820151816000015560208201518160010160006101000a81548173ffffffffffffffffffffffffffffffffffffffff021916908373ffffffffffffffffffffffffffffffffffffffff16021790555060408201518160020190816124f79190613435565b5060608201518160030160006101000a81548173ffffffffffffffffffffffffffffffffffffffff021916908373ffffffffffffffffffffffffffffffffffffffff16021790555090505061282c565b60405180608001604052808481526020016004600086815260200190815260200160002060000160009054906101000a900473ffffffffffffffffffffffffffffffffffffffff1673ffffffffffffffffffffffffffffffffffffffff1681526020018281526020016004600086815260200190815260200160002060010160009054906101000a900473ffffffffffffffffffffffffffffffffffffffff1673ffffffffffffffffffffffffffffffffffffffff16815250600660008581526020019081526020016000206000820151816000015560208201518160010160006101000a81548173ffffffffffffffffffffffffffffffffffffffff021916908373ffffffffffffffffffffffffffffffffffffffff16021790555060408201518160020190816126799190613435565b5060608201518160030160006101000a81548173ffffffffffffffffffffffffffffffffffffffff021916908373ffffffffffffffffffffffffffffffffffffffff16021790555090505060405180608001604052808481526020016004600086815260200190815260200160002060000160009054906101000a900473ffffffffffffffffffffffffffffffffffffffff1673ffffffffffffffffffffffffffffffffffffffff16815260200182815260200160008054906101000a900473ffffffffffffffffffffffffffffffffffffffff1673ffffffffffffffffffffffffffffffffffffffff16815250600660008581526020019081526020016000206000820151816000015560208201518160010160006101000a81548173ffffffffffffffffffffffffffffffffffffffff021916908373ffffffffffffffffffffffffffffffffffffffff16021790555060408201518160020190816127e09190613435565b5060608201518160030160006101000a81548173ffffffffffffffffffffffffffffffffffffffff021916908373ffffffffffffffffffffffffffffffffffffffff1602179055509050505b5b505050565b6000604051905090565b600080fd5b600080fd5b600073ffffffffffffffffffffffffffffffffffffffff82169050919050565b600061287182612846565b9050919050565b61288181612866565b811461288c57600080fd5b50565b60008135905061289e81612878565b92915050565b6000602082840312156128ba576128b961283c565b5b60006128c88482850161288f565b91505092915050565b600081519050919050565b600082825260208201905092915050565b60005b8381101561290b5780820151818401526020810190506128f0565b60008484015250505050565b6000601f19601f8301169050919050565b6000612933826128d1565b61293d81856128dc565b935061294d8185602086016128ed565b61295681612917565b840191505092915050565b61296a81612866565b82525050565b60008115159050919050565b61298581612970565b82525050565b600060608201905081810360008301526129a58186612928565b90506129b46020830185612961565b6129c1604083018461297c565b949350505050565b6000819050919050565b6129dc816129c9565b81146129e757600080fd5b50565b6000813590506129f9816129d3565b92915050565b600060208284031215612a1557612a1461283c565b5b6000612a23848285016129ea565b91505092915050565b612a35816129c9565b82525050565b6000608082019050612a506000830187612a2c565b612a5d6020830186612961565b612a6a6040830185612961565b8181036060830152612a7c8184612928565b905095945050505050565b6000602082019050612a9c600083018461297c565b92915050565b6000602082019050612ab76000830184612961565b92915050565b612ac681612970565b8114612ad157600080fd5b50565b600081359050612ae381612abd565b92915050565b60008060408385031215612b0057612aff61283c565b5b6000612b0e858286016129ea565b9250506020612b1f85828601612ad4565b9150509250929050565b600060a082019050612b3e6000830188612a2c565b612b4b6020830187612961565b612b586040830186612961565b8181036060830152612b6a8185612928565b9050612b796080830184612961565b9695505050505050565b600080fd5b600080fd5b7f4e487b7100000000000000000000000000000000000000000000000000000000600052604160045260246000fd5b612bc582612917565b810181811067ffffffffffffffff82111715612be457612be3612b8d565b5b80604052505050565b6000612bf7612832565b9050612c038282612bbc565b919050565b600067ffffffffffffffff821115612c2357612c22612b8d565b5b612c2c82612917565b9050602081019050919050565b82818337600083830152505050565b6000612c5b612c5684612c08565b612bed565b905082815260208101848484011115612c7757612c76612b88565b5b612c82848285612c39565b509392505050565b600082601f830112612c9f57612c9e612b83565b5b8135612caf848260208601612c48565b91505092915050565b60008060408385031215612ccf57612cce61283c565b5b600083013567ffffffffffffffff811115612ced57612cec612841565b5b612cf985828601612c8a565b9250506020612d0a85828601612ad4565b9150509250929050565b600060208284031215612d2a57612d2961283c565b5b600082013567ffffffffffffffff811115612d4857612d47612841565b5b612d5484828501612c8a565b91505092915050565b600060a082019050612d726000830188612961565b8181036020830152612d848187612928565b90508181036040830152612d988186612928565b9050612da7606083018561297c565b612db46080830184612a2c565b9695505050505050565b60008060408385031215612dd557612dd461283c565b5b6000612de3858286016129ea565b925050602083013567ffffffffffffffff811115612e0457612e03612841565b5b612e1085828601612c8a565b9150509250929050565b6000602082019050612e2f6000830184612a2c565b92915050565b600061010082019050612e4b600083018b612961565b612e58602083018a612961565b8181036040830152612e6a8189612928565b90508181036060830152612e7e8188612928565b9050612e8d6080830187612a2c565b612e9a60a0830186612a2c565b612ea760c083018561297c565b612eb460e083018461297c565b9998505050505050505050565b6000606082019050612ed66000830186612a2c565b612ee36020830185612961565b8181036040830152612ef58184612928565b9050949350505050565b60008060408385031215612f1657612f1561283c565b5b600083013567ffffffffffffffff811115612f3457612f33612841565b5b612f4085828601612c8a565b925050602083013567ffffffffffffffff811115612f6157612f60612841565b5b612f6d85828601612c8a565b9150509250929050565b6000608082019050612f8c6000830187612a2c565b612f996020830186612961565b8181036040830152612fab8185612928565b9050612fba6060830184612961565b95945050505050565b600080600080600060a08688031215612fdf57612fde61283c565b5b6000612fed8882890161288f565b955050602086013567ffffffffffffffff81111561300e5761300d612841565b5b61301a88828901612c8a565b945050604086013567ffffffffffffffff81111561303b5761303a612841565b5b61304788828901612c8a565b9350506060613058888289016129ea565b9250506080613069888289016129ea565b9150509295509295909350565b60008060006060848603121561308f5761308e61283c565b5b600061309d868287016129ea565b93505060206130ae86828701612ad4565b925050604084013567ffffffffffffffff8111156130cf576130ce612841565b5b6130db86828701612c8a565b9150509250925092565b7f4e487b7100000000000000000000000000000000000000000000000000000000600052602260045260246000fd5b6000600282049050600182168061312c57607f821691505b60208210810361313f5761313e6130e5565b5b50919050565b7f436f6e7472616374206973206e6f742076616c69640000000000000000000000600082015250565b600061317b6015836128dc565b915061318682613145565b602082019050919050565b600060208201905081810360008301526131aa8161316e565b9050919050565b7f55736572206e6f7420617574686f72697a656400000000000000000000000000600082015250565b60006131e76013836128dc565b91506131f2826131b1565b602082019050919050565b60006020820190508181036000830152613216816131da565b9050919050565b7f5573657220697320616c72656164792072656769737465726564000000000000600082015250565b6000613253601a836128dc565b915061325e8261321d565b602082019050919050565b6000602082019050818103600083015261328281613246565b9050919050565b60008190508160005260206000209050919050565b60006020601f8301049050919050565b600082821b905092915050565b6000600883026132eb7fffffffffffffffffffffffffffffffffffffffffffffffffffffffffffffffff826132ae565b6132f586836132ae565b95508019841693508086168417925050509392505050565b6000819050919050565b600061333261332d613328846129c9565b61330d565b6129c9565b9050919050565b6000819050919050565b61334c83613317565b61336061335882613339565b8484546132bb565b825550505050565b600090565b613375613368565b613380818484613343565b505050565b5b818110156133a45761339960008261336d565b600181019050613386565b5050565b601f8211156133e9576133ba81613289565b6133c38461329e565b810160208510156133d2578190505b6133e66133de8561329e565b830182613385565b50505b505050565b600082821c905092915050565b600061340c600019846008026133ee565b1980831691505092915050565b600061342583836133fb565b9150826002028217905092915050565b61343e826128d1565b67ffffffffffffffff81111561345757613456612b8d565b5b6134618254613114565b61346c8282856133a8565b600060209050601f83116001811461349f576000841561348d578287015190505b6134978582613419565b8655506134ff565b601f1984166134ad86613289565b60005b828110156134d5578489015182556001820191506020850194506020810190506134b0565b868310156134f257848901516134ee601f8916826133fb565b8355505b6001600288020188555050505b505050505050565b7f4f6e6c79207468652074656e616e74206f722070726f7065727479206f776e6560008201527f722063616e2066696c65206120636f6d706c61696e7400000000000000000000602082015250565b60006135636036836128dc565b915061356e82613507565b604082019050919050565b6000602082019050818103600083015261359281613556565b9050919050565b600081905092915050565b60006135af826128d1565b6135b98185613599565b93506135c98185602086016128ed565b80840191505092915050565b60006135e182846135a4565b915081905092915050565b7f55736572206e6f7420666f756e64000000000000000000000000000000000000600082015250565b6000613622600e836128dc565b915061362d826135ec565b602082019050919050565b6000602082019050818103600083015261365181613615565b9050919050565b7f54656e616e74732063616e2774206164642070726f7065727469657300000000600082015250565b600061368e601c836128dc565b915061369982613658565b602082019050919050565b600060208201905081810360008301526136bd81613681565b9050919050565b7f50726f706572747920616c726561647920657869737473000000000000000000600082015250565b60006136fa6017836128dc565b9150613705826136c4565b602082019050919050565b60006020820190508181036000830152613729816136ed565b9050919050565b7f54656e616e74732063616e6e6f7420696e697469617465206120636f6e74726160008201527f6374000000000000000000000000000000000000000000000000000000000000602082015250565b600061378c6022836128dc565b915061379782613730565b604082019050919050565b600060208201905081810360008301526137bb8161377f565b9050919050565b7f50726f7065727479206e6f7420666f756e640000000000000000000000000000600082015250565b60006137f86012836128dc565b9150613803826137c2565b602082019050919050565b60006020820190508181036000830152613827816137eb565b9050919050565b60008160601b9050919050565b60006138468261382e565b9050919050565b60006138588261383b565b9050919050565b61387061386b82612866565b61384d565b82525050565b6000819050919050565b61389161388c826129c9565b613876565b82525050565b60006138a3828761385f565b6014820191506138b382866135a4565b91506138bf8285613880565b6020820191506138cf8284613880565b60208201915081905095945050505050565b7f596f752068617665206e6f20617574686f726974792e00000000000000000000600082015250565b60006139176016836128dc565b9150613922826138e1565b602082019050919050565b600060208201905081810360008301526139468161390a565b9050919050565b7f4e487b7100000000000000000000000000000000000000000000000000000000600052601160045260246000fd5b6000613987826129c9565b9150613992836129c9565b92508282019050808211156139aa576139a961394d565b5b92915050565b7f4e6f742031352064617973206265666f72652074686520636f6e74726163742060008201527f656e642064617465000000000000000000000000000000000000000000000000602082015250565b6000613a0c6028836128dc565b9150613a17826139b0565b604082019050919050565b60006020820190508181036000830152613a3b816139ff565b905091905056fea264697066735822122054c9e59272f167d594aa2149528a3b38b4f94c6fd755d485d3df79083520b4b664736f6c63430008120033",
					"opcodes": "PUSH1 0x80 PUSH1 0x40 MSTORE CALLVALUE DUP1 ISZERO PUSH2 0x10 JUMPI PUSH1 0x0 DUP1 REVERT JUMPDEST POP CALLER PUSH1 0x0 DUP1 PUSH2 0x100 EXP DUP2 SLOAD DUP2 PUSH20 0xFFFFFFFFFFFFFFFFFFFFFFFFFFFFFFFFFFFFFFFF MUL NOT AND SWAP1 DUP4 PUSH20 0xFFFFFFFFFFFFFFFFFFFFFFFFFFFFFFFFFFFFFFFF AND MUL OR SWAP1 SSTORE POP PUSH2 0x3A78 DUP1 PUSH2 0x60 PUSH1 0x0 CODECOPY PUSH1 0x0 RETURN INVALID PUSH1 0x80 PUSH1 0x40 MSTORE CALLVALUE DUP1 ISZERO PUSH2 0x10 JUMPI PUSH1 0x0 DUP1 REVERT JUMPDEST POP PUSH1 0x4 CALLDATASIZE LT PUSH2 0x116 JUMPI PUSH1 0x0 CALLDATALOAD PUSH1 0xE0 SHR DUP1 PUSH4 0xA5B5737C GT PUSH2 0xA2 JUMPI DUP1 PUSH4 0xE40CF565 GT PUSH2 0x71 JUMPI DUP1 PUSH4 0xE40CF565 EQ PUSH2 0x33D JUMPI DUP1 PUSH4 0xE545248D EQ PUSH2 0x36F JUMPI DUP1 PUSH4 0xE7C17D67 EQ PUSH2 0x38B JUMPI DUP1 PUSH4 0xEEA57141 EQ PUSH2 0x3BE JUMPI DUP1 PUSH4 0xF50D63EF EQ PUSH2 0x3DA JUMPI PUSH2 0x116 JUMP JUMPDEST DUP1 PUSH4 0xA5B5737C EQ PUSH2 0x29E JUMPI DUP1 PUSH4 0xB387D778 EQ PUSH2 0x2BA JUMPI DUP1 PUSH4 0xB3CF9DEB EQ PUSH2 0x2D6 JUMPI DUP1 PUSH4 0xCBD24093 EQ PUSH2 0x306 JUMPI PUSH2 0x116 JUMP JUMPDEST DUP1 PUSH4 0x4EF9D923 GT PUSH2 0xE9 JUMPI DUP1 PUSH4 0x4EF9D923 EQ PUSH2 0x1CE JUMPI DUP1 PUSH4 0x59BF1ABE EQ PUSH2 0x1EA JUMPI DUP1 PUSH4 0x80144BCE EQ PUSH2 0x21A JUMPI DUP1 PUSH4 0x86584E27 EQ PUSH2 0x24E JUMPI DUP1 PUSH4 0x91E7F13A EQ PUSH2 0x26A JUMPI PUSH2 0x116 JUMP JUMPDEST DUP1 PUSH4 0x16DD85DA EQ PUSH2 0x11B JUMPI DUP1 PUSH4 0x1925A77A EQ PUSH2 0x14D JUMPI DUP1 PUSH4 0x4838D165 EQ PUSH2 0x180 JUMPI DUP1 PUSH4 0x4E8ABC87 EQ PUSH2 0x1B0 JUMPI JUMPDEST PUSH1 0x0 DUP1 REVERT JUMPDEST PUSH2 0x135 PUSH1 0x4 DUP1 CALLDATASIZE SUB DUP2 ADD SWAP1 PUSH2 0x130 SWAP2 SWAP1 PUSH2 0x28A4 JUMP JUMPDEST PUSH2 0x3F6 JUMP JUMPDEST PUSH1 0x40 MLOAD PUSH2 0x144 SWAP4 SWAP3 SWAP2 SWAP1 PUSH2 0x298B JUMP JUMPDEST PUSH1 0x40 MLOAD DUP1 SWAP2 SUB SWAP1 RETURN JUMPDEST PUSH2 0x167 PUSH1 0x4 DUP1 CALLDATASIZE SUB DUP2 ADD SWAP1 PUSH2 0x162 SWAP2 SWAP1 PUSH2 0x29FF JUMP JUMPDEST PUSH2 0x4D5 JUMP JUMPDEST PUSH1 0x40 MLOAD PUSH2 0x177 SWAP5 SWAP4 SWAP3 SWAP2 SWAP1 PUSH2 0x2A3B JUMP JUMPDEST PUSH1 0x40 MLOAD DUP1 SWAP2 SUB SWAP1 RETURN JUMPDEST PUSH2 0x19A PUSH1 0x4 DUP1 CALLDATASIZE SUB DUP2 ADD SWAP1 PUSH2 0x195 SWAP2 SWAP1 PUSH2 0x28A4 JUMP JUMPDEST PUSH2 0x612 JUMP JUMPDEST PUSH1 0x40 MLOAD PUSH2 0x1A7 SWAP2 SWAP1 PUSH2 0x2A87 JUMP JUMPDEST PUSH1 0x40 MLOAD DUP1 SWAP2 SUB SWAP1 RETURN JUMPDEST PUSH2 0x1B8 PUSH2 0x632 JUMP JUMPDEST PUSH1 0x40 MLOAD PUSH2 0x1C5 SWAP2 SWAP1 PUSH2 0x2AA2 JUMP JUMPDEST PUSH1 0x40 MLOAD DUP1 SWAP2 SUB SWAP1 RETURN JUMPDEST PUSH2 0x1E8 PUSH1 0x4 DUP1 CALLDATASIZE SUB DUP2 ADD SWAP1 PUSH2 0x1E3 SWAP2 SWAP1 PUSH2 0x2AE9 JUMP JUMPDEST PUSH2 0x656 JUMP JUMPDEST STOP JUMPDEST PUSH2 0x204 PUSH1 0x4 DUP1 CALLDATASIZE SUB DUP2 ADD SWAP1 PUSH2 0x1FF SWAP2 SWAP1 PUSH2 0x28A4 JUMP JUMPDEST PUSH2 0x7D3 JUMP JUMPDEST PUSH1 0x40 MLOAD PUSH2 0x211 SWAP2 SWAP1 PUSH2 0x2A87 JUMP JUMPDEST PUSH1 0x40 MLOAD DUP1 SWAP2 SUB SWAP1 RETURN JUMPDEST PUSH2 0x234 PUSH1 0x4 DUP1 CALLDATASIZE SUB DUP2 ADD SWAP1 PUSH2 0x22F SWAP2 SWAP1 PUSH2 0x29FF JUMP JUMPDEST PUSH2 0x829 JUMP JUMPDEST PUSH1 0x40 MLOAD PUSH2 0x245 SWAP6 SWAP5 SWAP4 SWAP3 SWAP2 SWAP1 PUSH2 0x2B29 JUMP JUMPDEST PUSH1 0x40 MLOAD DUP1 SWAP2 SUB SWAP1 RETURN JUMPDEST PUSH2 0x268 PUSH1 0x4 DUP1 CALLDATASIZE SUB DUP2 ADD SWAP1 PUSH2 0x263 SWAP2 SWAP1 PUSH2 0x2CB8 JUMP JUMPDEST PUSH2 0x947 JUMP JUMPDEST STOP JUMPDEST PUSH2 0x284 PUSH1 0x4 DUP1 CALLDATASIZE SUB DUP2 ADD SWAP1 PUSH2 0x27F SWAP2 SWAP1 PUSH2 0x2D14 JUMP JUMPDEST PUSH2 0xB0E JUMP JUMPDEST PUSH1 0x40 MLOAD PUSH2 0x295 SWAP6 SWAP5 SWAP4 SWAP3 SWAP2 SWAP1 PUSH2 0x2D5D JUMP JUMPDEST PUSH1 0x40 MLOAD DUP1 SWAP2 SUB SWAP1 RETURN JUMPDEST PUSH2 0x2B8 PUSH1 0x4 DUP1 CALLDATASIZE SUB DUP2 ADD SWAP1 PUSH2 0x2B3 SWAP2 SWAP1 PUSH2 0x2AE9 JUMP JUMPDEST PUSH2 0xC97 JUMP JUMPDEST STOP JUMPDEST PUSH2 0x2D4 PUSH1 0x4 DUP1 CALLDATASIZE SUB DUP2 ADD SWAP1 PUSH2 0x2CF SWAP2 SWAP1 PUSH2 0x2DBE JUMP JUMPDEST PUSH2 0xE43 JUMP JUMPDEST STOP JUMPDEST PUSH2 0x2F0 PUSH1 0x4 DUP1 CALLDATASIZE SUB DUP2 ADD SWAP1 PUSH2 0x2EB SWAP2 SWAP1 PUSH2 0x2D14 JUMP JUMPDEST PUSH2 0x142B JUMP JUMPDEST PUSH1 0x40 MLOAD PUSH2 0x2FD SWAP2 SWAP1 PUSH2 0x2E1A JUMP JUMPDEST PUSH1 0x40 MLOAD DUP1 SWAP2 SUB SWAP1 RETURN JUMPDEST PUSH2 0x320 PUSH1 0x4 DUP1 CALLDATASIZE SUB DUP2 ADD SWAP1 PUSH2 0x31B SWAP2 SWAP1 PUSH2 0x29FF JUMP JUMPDEST PUSH2 0x1456 JUMP JUMPDEST PUSH1 0x40 MLOAD PUSH2 0x334 SWAP9 SWAP8 SWAP7 SWAP6 SWAP5 SWAP4 SWAP3 SWAP2 SWAP1 PUSH2 0x2E35 JUMP JUMPDEST PUSH1 0x40 MLOAD DUP1 SWAP2 SUB SWAP1 RETURN JUMPDEST PUSH2 0x357 PUSH1 0x4 DUP1 CALLDATASIZE SUB DUP2 ADD SWAP1 PUSH2 0x352 SWAP2 SWAP1 PUSH2 0x29FF JUMP JUMPDEST PUSH2 0x1608 JUMP JUMPDEST PUSH1 0x40 MLOAD PUSH2 0x366 SWAP4 SWAP3 SWAP2 SWAP1 PUSH2 0x2EC1 JUMP JUMPDEST PUSH1 0x40 MLOAD DUP1 SWAP2 SUB SWAP1 RETURN JUMPDEST PUSH2 0x389 PUSH1 0x4 DUP1 CALLDATASIZE SUB DUP2 ADD SWAP1 PUSH2 0x384 SWAP2 SWAP1 PUSH2 0x2EFF JUMP JUMPDEST PUSH2 0x170A JUMP JUMPDEST STOP JUMPDEST PUSH2 0x3A5 PUSH1 0x4 DUP1 CALLDATASIZE SUB DUP2 ADD SWAP1 PUSH2 0x3A0 SWAP2 SWAP1 PUSH2 0x29FF JUMP JUMPDEST PUSH2 0x1A1D JUMP JUMPDEST PUSH1 0x40 MLOAD PUSH2 0x3B5 SWAP5 SWAP4 SWAP3 SWAP2 SWAP1 PUSH2 0x2F77 JUMP JUMPDEST PUSH1 0x40 MLOAD DUP1 SWAP2 SUB SWAP1 RETURN JUMPDEST PUSH2 0x3D8 PUSH1 0x4 DUP1 CALLDATASIZE SUB DUP2 ADD SWAP1 PUSH2 0x3D3 SWAP2 SWAP1 PUSH2 0x2FC3 JUMP JUMPDEST PUSH2 0x1B15 JUMP JUMPDEST STOP JUMPDEST PUSH2 0x3F4 PUSH1 0x4 DUP1 CALLDATASIZE SUB DUP2 ADD SWAP1 PUSH2 0x3EF SWAP2 SWAP1 PUSH2 0x3076 JUMP JUMPDEST PUSH2 0x1F17 JUMP JUMPDEST STOP JUMPDEST PUSH1 0x2 PUSH1 0x20 MSTORE DUP1 PUSH1 0x0 MSTORE PUSH1 0x40 PUSH1 0x0 KECCAK256 PUSH1 0x0 SWAP2 POP SWAP1 POP DUP1 PUSH1 0x0 ADD DUP1 SLOAD PUSH2 0x419 SWAP1 PUSH2 0x3114 JUMP JUMPDEST DUP1 PUSH1 0x1F ADD PUSH1 0x20 DUP1 SWAP2 DIV MUL PUSH1 0x20 ADD PUSH1 0x40 MLOAD SWAP1 DUP2 ADD PUSH1 0x40 MSTORE DUP1 SWAP3 SWAP2 SWAP1 DUP2 DUP2 MSTORE PUSH1 0x20 ADD DUP3 DUP1 SLOAD PUSH2 0x445 SWAP1 PUSH2 0x3114 JUMP JUMPDEST DUP1 ISZERO PUSH2 0x492 JUMPI DUP1 PUSH1 0x1F LT PUSH2 0x467 JUMPI PUSH2 0x100 DUP1 DUP4 SLOAD DIV MUL DUP4 MSTORE SWAP2 PUSH1 0x20 ADD SWAP2 PUSH2 0x492 JUMP JUMPDEST DUP3 ADD SWAP2 SWAP1 PUSH1 0x0 MSTORE PUSH1 0x20 PUSH1 0x0 KECCAK256 SWAP1 JUMPDEST DUP2 SLOAD DUP2 MSTORE SWAP1 PUSH1 0x1 ADD SWAP1 PUSH1 0x20 ADD DUP1 DUP4 GT PUSH2 0x475 JUMPI DUP3 SWAP1 SUB PUSH1 0x1F AND DUP3 ADD SWAP2 JUMPDEST POP POP POP POP POP SWAP1 DUP1 PUSH1 0x1 ADD PUSH1 0x0 SWAP1 SLOAD SWAP1 PUSH2 0x100 EXP SWAP1 DIV PUSH20 0xFFFFFFFFFFFFFFFFFFFFFFFFFFFFFFFFFFFFFFFF AND SWAP1 DUP1 PUSH1 0x1 ADD PUSH1 0x14 SWAP1 SLOAD SWAP1 PUSH2 0x100 EXP SWAP1 DIV PUSH1 0xFF AND SWAP1 POP DUP4 JUMP JUMPDEST PUSH1 0x0 DUP1 PUSH1 0x0 PUSH1 0x60 PUSH1 0x5 PUSH1 0x0 DUP7 DUP2 MSTORE PUSH1 0x20 ADD SWAP1 DUP2 MSTORE PUSH1 0x20 ADD PUSH1 0x0 KECCAK256 PUSH1 0x0 ADD SLOAD PUSH1 0x5 PUSH1 0x0 DUP8 DUP2 MSTORE PUSH1 0x20 ADD SWAP1 DUP2 MSTORE PUSH1 0x20 ADD PUSH1 0x0 KECCAK256 PUSH1 0x1 ADD PUSH1 0x0 SWAP1 SLOAD SWAP1 PUSH2 0x100 EXP SWAP1 DIV PUSH20 0xFFFFFFFFFFFFFFFFFFFFFFFFFFFFFFFFFFFFFFFF AND PUSH1 0x5 PUSH1 0x0 DUP9 DUP2 MSTORE PUSH1 0x20 ADD SWAP1 DUP2 MSTORE PUSH1 0x20 ADD PUSH1 0x0 KECCAK256 PUSH1 0x2 ADD PUSH1 0x0 SWAP1 SLOAD SWAP1 PUSH2 0x100 EXP SWAP1 DIV PUSH20 0xFFFFFFFFFFFFFFFFFFFFFFFFFFFFFFFFFFFFFFFF AND PUSH1 0x5 PUSH1 0x0 DUP10 DUP2 MSTORE PUSH1 0x20 ADD SWAP1 DUP2 MSTORE PUSH1 0x20 ADD PUSH1 0x0 KECCAK256 PUSH1 0x3 ADD DUP1 DUP1 SLOAD PUSH2 0x583 SWAP1 PUSH2 0x3114 JUMP JUMPDEST DUP1 PUSH1 0x1F ADD PUSH1 0x20 DUP1 SWAP2 DIV MUL PUSH1 0x20 ADD PUSH1 0x40 MLOAD SWAP1 DUP2 ADD PUSH1 0x40 MSTORE DUP1 SWAP3 SWAP2 SWAP1 DUP2 DUP2 MSTORE PUSH1 0x20 ADD DUP3 DUP1 SLOAD PUSH2 0x5AF SWAP1 PUSH2 0x3114 JUMP JUMPDEST DUP1 ISZERO PUSH2 0x5FC JUMPI DUP1 PUSH1 0x1F LT PUSH2 0x5D1 JUMPI PUSH2 0x100 DUP1 DUP4 SLOAD DIV MUL DUP4 MSTORE SWAP2 PUSH1 0x20 ADD SWAP2 PUSH2 0x5FC JUMP JUMPDEST DUP3 ADD SWAP2 SWAP1 PUSH1 0x0 MSTORE PUSH1 0x20 PUSH1 0x0 KECCAK256 SWAP1 JUMPDEST DUP2 SLOAD DUP2 MSTORE SWAP1 PUSH1 0x1 ADD SWAP1 PUSH1 0x20 ADD DUP1 DUP4 GT PUSH2 0x5DF JUMPI DUP3 SWAP1 SUB PUSH1 0x1F AND DUP3 ADD SWAP2 JUMPDEST POP POP POP POP POP SWAP1 POP SWAP4 POP SWAP4 POP SWAP4 POP SWAP4 POP SWAP2 SWAP4 POP SWAP2 SWAP4 JUMP JUMPDEST PUSH1 0x1 PUSH1 0x20 MSTORE DUP1 PUSH1 0x0 MSTORE PUSH1 0x40 PUSH1 0x0 KECCAK256 PUSH1 0x0 SWAP2 POP SLOAD SWAP1 PUSH2 0x100 EXP SWAP1 DIV PUSH1 0xFF AND DUP2 JUMP JUMPDEST PUSH1 0x0 DUP1 SLOAD SWAP1 PUSH2 0x100 EXP SWAP1 DIV PUSH20 0xFFFFFFFFFFFFFFFFFFFFFFFFFFFFFFFFFFFFFFFF AND DUP2 JUMP JUMPDEST PUSH1 0x1 ISZERO ISZERO PUSH1 0x4 PUSH1 0x0 DUP5 DUP2 MSTORE PUSH1 0x20 ADD SWAP1 DUP2 MSTORE PUSH1 0x20 ADD PUSH1 0x0 KECCAK256 PUSH1 0x6 ADD PUSH1 0x0 SWAP1 SLOAD SWAP1 PUSH2 0x100 EXP SWAP1 DIV PUSH1 0xFF AND ISZERO ISZERO EQ PUSH2 0x6C0 JUMPI PUSH1 0x40 MLOAD PUSH32 0x8C379A000000000000000000000000000000000000000000000000000000000 DUP2 MSTORE PUSH1 0x4 ADD PUSH2 0x6B7 SWAP1 PUSH2 0x3191 JUMP JUMPDEST PUSH1 0x40 MLOAD DUP1 SWAP2 SUB SWAP1 REVERT JUMPDEST CALLER PUSH20 0xFFFFFFFFFFFFFFFFFFFFFFFFFFFFFFFFFFFFFFFF AND PUSH1 0x6 PUSH1 0x0 DUP5 DUP2 MSTORE PUSH1 0x20 ADD SWAP1 DUP2 MSTORE PUSH1 0x20 ADD PUSH1 0x0 KECCAK256 PUSH1 0x3 ADD PUSH1 0x0 SWAP1 SLOAD SWAP1 PUSH2 0x100 EXP SWAP1 DIV PUSH20 0xFFFFFFFFFFFFFFFFFFFFFFFFFFFFFFFFFFFFFFFF AND PUSH20 0xFFFFFFFFFFFFFFFFFFFFFFFFFFFFFFFFFFFFFFFF AND EQ PUSH2 0x764 JUMPI PUSH1 0x40 MLOAD PUSH32 0x8C379A000000000000000000000000000000000000000000000000000000000 DUP2 MSTORE PUSH1 0x4 ADD PUSH2 0x75B SWAP1 PUSH2 0x31FD JUMP JUMPDEST PUSH1 0x40 MLOAD DUP1 SWAP2 SUB SWAP1 REVERT JUMPDEST PUSH1 0x1 ISZERO ISZERO DUP2 ISZERO ISZERO SUB PUSH2 0x7CF JUMPI PUSH1 0x1 PUSH1 0x4 PUSH1 0x0 DUP5 DUP2 MSTORE PUSH1 0x20 ADD SWAP1 DUP2 MSTORE PUSH1 0x20 ADD PUSH1 0x0 KECCAK256 PUSH1 0x6 ADD PUSH1 0x1 PUSH2 0x100 EXP DUP2 SLOAD DUP2 PUSH1 0xFF MUL NOT AND SWAP1 DUP4 ISZERO ISZERO MUL OR SWAP1 SSTORE POP PUSH1 0x0 PUSH1 0x4 PUSH1 0x0 DUP5 DUP2 MSTORE PUSH1 0x20 ADD SWAP1 DUP2 MSTORE PUSH1 0x20 ADD PUSH1 0x0 KECCAK256 PUSH1 0x6 ADD PUSH1 0x0 PUSH2 0x100 EXP DUP2 SLOAD DUP2 PUSH1 0xFF MUL NOT AND SWAP1 DUP4 ISZERO ISZERO MUL OR SWAP1 SSTORE POP JUMPDEST POP POP JUMP JUMPDEST PUSH1 0x0 PUSH1 0x1 PUSH1 0x0 DUP4 PUSH20 0xFFFFFFFFFFFFFFFFFFFFFFFFFFFFFFFFFFFFFFFF AND PUSH20 0xFFFFFFFFFFFFFFFFFFFFFFFFFFFFFFFFFFFFFFFF AND DUP2 MSTORE PUSH1 0x20 ADD SWAP1 DUP2 MSTORE PUSH1 0x20 ADD PUSH1 0x0 KECCAK256 PUSH1 0x0 SWAP1 SLOAD SWAP1 PUSH2 0x100 EXP SWAP1 DIV PUSH1 0xFF AND SWAP1 POP SWAP2 SWAP1 POP JUMP JUMPDEST PUSH1 0x5 PUSH1 0x20 MSTORE DUP1 PUSH1 0x0 MSTORE PUSH1 0x40 PUSH1 0x0 KECCAK256 PUSH1 0x0 SWAP2 POP SWAP1 POP DUP1 PUSH1 0x0 ADD SLOAD SWAP1 DUP1 PUSH1 0x1 ADD PUSH1 0x0 SWAP1 SLOAD SWAP1 PUSH2 0x100 EXP SWAP1 DIV PUSH20 0xFFFFFFFFFFFFFFFFFFFFFFFFFFFFFFFFFFFFFFFF AND SWAP1 DUP1 PUSH1 0x2 ADD PUSH1 0x0 SWAP1 SLOAD SWAP1 PUSH2 0x100 EXP SWAP1 DIV PUSH20 0xFFFFFFFFFFFFFFFFFFFFFFFFFFFFFFFFFFFFFFFF AND SWAP1 DUP1 PUSH1 0x3 ADD DUP1 SLOAD PUSH2 0x89E SWAP1 PUSH2 0x3114 JUMP JUMPDEST DUP1 PUSH1 0x1F ADD PUSH1 0x20 DUP1 SWAP2 DIV MUL PUSH1 0x20 ADD PUSH1 0x40 MLOAD SWAP1 DUP2 ADD PUSH1 0x40 MSTORE DUP1 SWAP3 SWAP2 SWAP1 DUP2 DUP2 MSTORE PUSH1 0x20 ADD DUP3 DUP1 SLOAD PUSH2 0x8CA SWAP1 PUSH2 0x3114 JUMP JUMPDEST DUP1 ISZERO PUSH2 0x917 JUMPI DUP1 PUSH1 0x1F LT PUSH2 0x8EC JUMPI PUSH2 0x100 DUP1 DUP4 SLOAD DIV MUL DUP4 MSTORE SWAP2 PUSH1 0x20 ADD SWAP2 PUSH2 0x917 JUMP JUMPDEST DUP3 ADD SWAP2 SWAP1 PUSH1 0x0 MSTORE PUSH1 0x20 PUSH1 0x0 KECCAK256 SWAP1 JUMPDEST DUP2 SLOAD DUP2 MSTORE SWAP1 PUSH1 0x1 ADD SWAP1 PUSH1 0x20 ADD DUP1 DUP4 GT PUSH2 0x8FA JUMPI DUP3 SWAP1 SUB PUSH1 0x1F AND DUP3 ADD SWAP2 JUMPDEST POP POP POP POP POP SWAP1 DUP1 PUSH1 0x4 ADD PUSH1 0x0 SWAP1 SLOAD SWAP1 PUSH2 0x100 EXP SWAP1 DIV PUSH20 0xFFFFFFFFFFFFFFFFFFFFFFFFFFFFFFFFFFFFFFFF AND SWAP1 POP DUP6 JUMP JUMPDEST PUSH1 0x0 PUSH20 0xFFFFFFFFFFFFFFFFFFFFFFFFFFFFFFFFFFFFFFFF AND PUSH1 0x2 PUSH1 0x0 CALLER PUSH20 0xFFFFFFFFFFFFFFFFFFFFFFFFFFFFFFFFFFFFFFFF AND PUSH20 0xFFFFFFFFFFFFFFFFFFFFFFFFFFFFFFFFFFFFFFFF AND DUP2 MSTORE PUSH1 0x20 ADD SWAP1 DUP2 MSTORE PUSH1 0x20 ADD PUSH1 0x0 KECCAK256 PUSH1 0x1 ADD PUSH1 0x0 SWAP1 SLOAD SWAP1 PUSH2 0x100 EXP SWAP1 DIV PUSH20 0xFFFFFFFFFFFFFFFFFFFFFFFFFFFFFFFFFFFFFFFF AND PUSH20 0xFFFFFFFFFFFFFFFFFFFFFFFFFFFFFFFFFFFFFFFF AND EQ PUSH2 0xA18 JUMPI PUSH1 0x40 MLOAD PUSH32 0x8C379A000000000000000000000000000000000000000000000000000000000 DUP2 MSTORE PUSH1 0x4 ADD PUSH2 0xA0F SWAP1 PUSH2 0x3269 JUMP JUMPDEST PUSH1 0x40 MLOAD DUP1 SWAP2 SUB SWAP1 REVERT JUMPDEST PUSH1 0x40 MLOAD DUP1 PUSH1 0x60 ADD PUSH1 0x40 MSTORE DUP1 DUP4 DUP2 MSTORE PUSH1 0x20 ADD CALLER PUSH20 0xFFFFFFFFFFFFFFFFFFFFFFFFFFFFFFFFFFFFFFFF AND DUP2 MSTORE PUSH1 0x20 ADD DUP3 ISZERO ISZERO DUP2 MSTORE POP PUSH1 0x2 PUSH1 0x0 CALLER PUSH20 0xFFFFFFFFFFFFFFFFFFFFFFFFFFFFFFFFFFFFFFFF AND PUSH20 0xFFFFFFFFFFFFFFFFFFFFFFFFFFFFFFFFFFFFFFFF AND DUP2 MSTORE PUSH1 0x20 ADD SWAP1 DUP2 MSTORE PUSH1 0x20 ADD PUSH1 0x0 KECCAK256 PUSH1 0x0 DUP3 ADD MLOAD DUP2 PUSH1 0x0 ADD SWAP1 DUP2 PUSH2 0xA9F SWAP2 SWAP1 PUSH2 0x3435 JUMP JUMPDEST POP PUSH1 0x20 DUP3 ADD MLOAD DUP2 PUSH1 0x1 ADD PUSH1 0x0 PUSH2 0x100 EXP DUP2 SLOAD DUP2 PUSH20 0xFFFFFFFFFFFFFFFFFFFFFFFFFFFFFFFFFFFFFFFF MUL NOT AND SWAP1 DUP4 PUSH20 0xFFFFFFFFFFFFFFFFFFFFFFFFFFFFFFFFFFFFFFFF AND MUL OR SWAP1 SSTORE POP PUSH1 0x40 DUP3 ADD MLOAD DUP2 PUSH1 0x1 ADD PUSH1 0x14 PUSH2 0x100 EXP DUP2 SLOAD DUP2 PUSH1 0xFF MUL NOT AND SWAP1 DUP4 ISZERO ISZERO MUL OR SWAP1 SSTORE POP SWAP1 POP POP POP POP JUMP JUMPDEST PUSH1 0x3 DUP2 DUP1 MLOAD PUSH1 0x20 DUP2 ADD DUP3 ADD DUP1 MLOAD DUP5 DUP3 MSTORE PUSH1 0x20 DUP4 ADD PUSH1 0x20 DUP6 ADD KECCAK256 DUP2 DUP4 MSTORE DUP1 SWAP6 POP POP POP POP POP POP PUSH1 0x0 SWAP2 POP SWAP1 POP DUP1 PUSH1 0x0 ADD PUSH1 0x0 SWAP1 SLOAD SWAP1 PUSH2 0x100 EXP SWAP1 DIV PUSH20 0xFFFFFFFFFFFFFFFFFFFFFFFFFFFFFFFFFFFFFFFF AND SWAP1 DUP1 PUSH1 0x1 ADD DUP1 SLOAD PUSH2 0xB6D SWAP1 PUSH2 0x3114 JUMP JUMPDEST DUP1 PUSH1 0x1F ADD PUSH1 0x20 DUP1 SWAP2 DIV MUL PUSH1 0x20 ADD PUSH1 0x40 MLOAD SWAP1 DUP2 ADD PUSH1 0x40 MSTORE DUP1 SWAP3 SWAP2 SWAP1 DUP2 DUP2 MSTORE PUSH1 0x20 ADD DUP3 DUP1 SLOAD PUSH2 0xB99 SWAP1 PUSH2 0x3114 JUMP JUMPDEST DUP1 ISZERO PUSH2 0xBE6 JUMPI DUP1 PUSH1 0x1F LT PUSH2 0xBBB JUMPI PUSH2 0x100 DUP1 DUP4 SLOAD DIV MUL DUP4 MSTORE SWAP2 PUSH1 0x20 ADD SWAP2 PUSH2 0xBE6 JUMP JUMPDEST DUP3 ADD SWAP2 SWAP1 PUSH1 0x0 MSTORE PUSH1 0x20 PUSH1 0x0 KECCAK256 SWAP1 JUMPDEST DUP2 SLOAD DUP2 MSTORE SWAP1 PUSH1 0x1 ADD SWAP1 PUSH1 0x20 ADD DUP1 DUP4 GT PUSH2 0xBC9 JUMPI DUP3 SWAP1 SUB PUSH1 0x1F AND DUP3 ADD SWAP2 JUMPDEST POP POP POP POP POP SWAP1 DUP1 PUSH1 0x2 ADD DUP1 SLOAD PUSH2 0xBFB SWAP1 PUSH2 0x3114 JUMP JUMPDEST DUP1 PUSH1 0x1F ADD PUSH1 0x20 DUP1 SWAP2 DIV MUL PUSH1 0x20 ADD PUSH1 0x40 MLOAD SWAP1 DUP2 ADD PUSH1 0x40 MSTORE DUP1 SWAP3 SWAP2 SWAP1 DUP2 DUP2 MSTORE PUSH1 0x20 ADD DUP3 DUP1 SLOAD PUSH2 0xC27 SWAP1 PUSH2 0x3114 JUMP JUMPDEST DUP1 ISZERO PUSH2 0xC74 JUMPI DUP1 PUSH1 0x1F LT PUSH2 0xC49 JUMPI PUSH2 0x100 DUP1 DUP4 SLOAD DIV MUL DUP4 MSTORE SWAP2 PUSH1 0x20 ADD SWAP2 PUSH2 0xC74 JUMP JUMPDEST DUP3 ADD SWAP2 SWAP1 PUSH1 0x0 MSTORE PUSH1 0x20 PUSH1 0x0 KECCAK256 SWAP1 JUMPDEST DUP2 SLOAD DUP2 MSTORE SWAP1 PUSH1 0x1 ADD SWAP1 PUSH1 0x20 ADD DUP1 DUP4 GT PUSH2 0xC57 JUMPI DUP3 SWAP1 SUB PUSH1 0x1F AND DUP3 ADD SWAP2 JUMPDEST POP POP POP POP POP SWAP1 DUP1 PUSH1 0x3 ADD PUSH1 0x0 SWAP1 SLOAD SWAP1 PUSH2 0x100 EXP SWAP1 DIV PUSH1 0xFF AND SWAP1 DUP1 PUSH1 0x4 ADD SLOAD SWAP1 POP DUP6 JUMP JUMPDEST PUSH1 0x1 ISZERO ISZERO PUSH1 0x4 PUSH1 0x0 DUP5 DUP2 MSTORE PUSH1 0x20 ADD SWAP1 DUP2 MSTORE PUSH1 0x20 ADD PUSH1 0x0 KECCAK256 PUSH1 0x6 ADD PUSH1 0x0 SWAP1 SLOAD SWAP1 PUSH2 0x100 EXP SWAP1 DIV PUSH1 0xFF AND ISZERO ISZERO EQ PUSH2 0xD01 JUMPI PUSH1 0x40 MLOAD PUSH32 0x8C379A000000000000000000000000000000000000000000000000000000000 DUP2 MSTORE PUSH1 0x4 ADD PUSH2 0xCF8 SWAP1 PUSH2 0x3191 JUMP JUMPDEST PUSH1 0x40 MLOAD DUP1 SWAP2 SUB SWAP1 REVERT JUMPDEST CALLER PUSH20 0xFFFFFFFFFFFFFFFFFFFFFFFFFFFFFFFFFFFFFFFF AND PUSH1 0x5 PUSH1 0x0 DUP5 DUP2 MSTORE PUSH1 0x20 ADD SWAP1 DUP2 MSTORE PUSH1 0x20 ADD PUSH1 0x0 KECCAK256 PUSH1 0x4 ADD PUSH1 0x0 SWAP1 SLOAD SWAP1 PUSH2 0x100 EXP SWAP1 DIV PUSH20 0xFFFFFFFFFFFFFFFFFFFFFFFFFFFFFFFFFFFFFFFF AND PUSH20 0xFFFFFFFFFFFFFFFFFFFFFFFFFFFFFFFFFFFFFFFF AND EQ PUSH2 0xDA5 JUMPI PUSH1 0x40 MLOAD PUSH32 0x8C379A000000000000000000000000000000000000000000000000000000000 DUP2 MSTORE PUSH1 0x4 ADD PUSH2 0xD9C SWAP1 PUSH2 0x31FD JUMP JUMPDEST PUSH1 0x40 MLOAD DUP1 SWAP2 SUB SWAP1 REVERT JUMPDEST PUSH1 0x1 ISZERO ISZERO DUP2 ISZERO ISZERO SUB PUSH2 0xE3F JUMPI PUSH1 0x1 DUP1 PUSH1 0x0 PUSH1 0x5 PUSH1 0x0 DUP7 DUP2 MSTORE PUSH1 0x20 ADD SWAP1 DUP2 MSTORE PUSH1 0x20 ADD PUSH1 0x0 KECCAK256 PUSH1 0x2 ADD PUSH1 0x0 SWAP1 SLOAD SWAP1 PUSH2 0x100 EXP SWAP1 DIV PUSH20 0xFFFFFFFFFFFFFFFFFFFFFFFFFFFFFFFFFFFFFFFF AND PUSH20 0xFFFFFFFFFFFFFFFFFFFFFFFFFFFFFFFFFFFFFFFF AND PUSH20 0xFFFFFFFFFFFFFFFFFFFFFFFFFFFFFFFFFFFFFFFF AND DUP2 MSTORE PUSH1 0x20 ADD SWAP1 DUP2 MSTORE PUSH1 0x20 ADD PUSH1 0x0 KECCAK256 PUSH1 0x0 PUSH2 0x100 EXP DUP2 SLOAD DUP2 PUSH1 0xFF MUL NOT AND SWAP1 DUP4 ISZERO ISZERO MUL OR SWAP1 SSTORE POP JUMPDEST POP POP JUMP JUMPDEST CALLER PUSH20 0xFFFFFFFFFFFFFFFFFFFFFFFFFFFFFFFFFFFFFFFF AND PUSH1 0x4 PUSH1 0x0 DUP5 DUP2 MSTORE PUSH1 0x20 ADD SWAP1 DUP2 MSTORE PUSH1 0x20 ADD PUSH1 0x0 KECCAK256 PUSH1 0x1 ADD PUSH1 0x0 SWAP1 SLOAD SWAP1 PUSH2 0x100 EXP SWAP1 DIV PUSH20 0xFFFFFFFFFFFFFFFFFFFFFFFFFFFFFFFFFFFFFFFF AND PUSH20 0xFFFFFFFFFFFFFFFFFFFFFFFFFFFFFFFFFFFFFFFF AND EQ DUP1 PUSH2 0xF14 JUMPI POP CALLER PUSH20 0xFFFFFFFFFFFFFFFFFFFFFFFFFFFFFFFFFFFFFFFF AND PUSH1 0x4 PUSH1 0x0 DUP5 DUP2 MSTORE PUSH1 0x20 ADD SWAP1 DUP2 MSTORE PUSH1 0x20 ADD PUSH1 0x0 KECCAK256 PUSH1 0x0 ADD PUSH1 0x0 SWAP1 SLOAD SWAP1 PUSH2 0x100 EXP SWAP1 DIV PUSH20 0xFFFFFFFFFFFFFFFFFFFFFFFFFFFFFFFFFFFFFFFF AND PUSH20 0xFFFFFFFFFFFFFFFFFFFFFFFFFFFFFFFFFFFFFFFF AND EQ JUMPDEST PUSH2 0xF53 JUMPI PUSH1 0x40 MLOAD PUSH32 0x8C379A000000000000000000000000000000000000000000000000000000000 DUP2 MSTORE PUSH1 0x4 ADD PUSH2 0xF4A SWAP1 PUSH2 0x3579 JUMP JUMPDEST PUSH1 0x40 MLOAD DUP1 SWAP2 SUB SWAP1 REVERT JUMPDEST CALLER PUSH20 0xFFFFFFFFFFFFFFFFFFFFFFFFFFFFFFFFFFFFFFFF AND PUSH1 0x4 PUSH1 0x0 DUP5 DUP2 MSTORE PUSH1 0x20 ADD SWAP1 DUP2 MSTORE PUSH1 0x20 ADD PUSH1 0x0 KECCAK256 PUSH1 0x1 ADD PUSH1 0x0 SWAP1 SLOAD SWAP1 PUSH2 0x100 EXP SWAP1 DIV PUSH20 0xFFFFFFFFFFFFFFFFFFFFFFFFFFFFFFFFFFFFFFFF AND PUSH20 0xFFFFFFFFFFFFFFFFFFFFFFFFFFFFFFFFFFFFFFFF AND SUB PUSH2 0x11BD JUMPI PUSH1 0x40 MLOAD DUP1 PUSH1 0xA0 ADD PUSH1 0x40 MSTORE DUP1 DUP4 DUP2 MSTORE PUSH1 0x20 ADD PUSH1 0x4 PUSH1 0x0 DUP6 DUP2 MSTORE PUSH1 0x20 ADD SWAP1 DUP2 MSTORE PUSH1 0x20 ADD PUSH1 0x0 KECCAK256 PUSH1 0x1 ADD PUSH1 0x0 SWAP1 SLOAD SWAP1 PUSH2 0x100 EXP SWAP1 DIV PUSH20 0xFFFFFFFFFFFFFFFFFFFFFFFFFFFFFFFFFFFFFFFF AND PUSH20 0xFFFFFFFFFFFFFFFFFFFFFFFFFFFFFFFFFFFFFFFF AND DUP2 MSTORE PUSH1 0x20 ADD PUSH1 0x4 PUSH1 0x0 DUP6 DUP2 MSTORE PUSH1 0x20 ADD SWAP1 DUP2 MSTORE PUSH1 0x20 ADD PUSH1 0x0 KECCAK256 PUSH1 0x0 ADD PUSH1 0x0 SWAP1 SLOAD SWAP1 PUSH2 0x100 EXP SWAP1 DIV PUSH20 0xFFFFFFFFFFFFFFFFFFFFFFFFFFFFFFFFFFFFFFFF AND PUSH20 0xFFFFFFFFFFFFFFFFFFFFFFFFFFFFFFFFFFFFFFFF AND DUP2 MSTORE PUSH1 0x20 ADD DUP3 DUP2 MSTORE PUSH1 0x20 ADD PUSH1 0x0 DUP1 SLOAD SWAP1 PUSH2 0x100 EXP SWAP1 DIV PUSH20 0xFFFFFFFFFFFFFFFFFFFFFFFFFFFFFFFFFFFFFFFF AND PUSH20 0xFFFFFFFFFFFFFFFFFFFFFFFFFFFFFFFFFFFFFFFF AND DUP2 MSTORE POP PUSH1 0x5 PUSH1 0x0 DUP5 DUP2 MSTORE PUSH1 0x20 ADD SWAP1 DUP2 MSTORE PUSH1 0x20 ADD PUSH1 0x0 KECCAK256 PUSH1 0x0 DUP3 ADD MLOAD DUP2 PUSH1 0x0 ADD SSTORE PUSH1 0x20 DUP3 ADD MLOAD DUP2 PUSH1 0x1 ADD PUSH1 0x0 PUSH2 0x100 EXP DUP2 SLOAD DUP2 PUSH20 0xFFFFFFFFFFFFFFFFFFFFFFFFFFFFFFFFFFFFFFFF MUL NOT AND SWAP1 DUP4 PUSH20 0xFFFFFFFFFFFFFFFFFFFFFFFFFFFFFFFFFFFFFFFF AND MUL OR SWAP1 SSTORE POP PUSH1 0x40 DUP3 ADD MLOAD DUP2 PUSH1 0x2 ADD PUSH1 0x0 PUSH2 0x100 EXP DUP2 SLOAD DUP2 PUSH20 0xFFFFFFFFFFFFFFFFFFFFFFFFFFFFFFFFFFFFFFFF MUL NOT AND SWAP1 DUP4 PUSH20 0xFFFFFFFFFFFFFFFFFFFFFFFFFFFFFFFFFFFFFFFF AND MUL OR SWAP1 SSTORE POP PUSH1 0x60 DUP3 ADD MLOAD DUP2 PUSH1 0x3 ADD SWAP1 DUP2 PUSH2 0x1171 SWAP2 SWAP1 PUSH2 0x3435 JUMP JUMPDEST POP PUSH1 0x80 DUP3 ADD MLOAD DUP2 PUSH1 0x4 ADD PUSH1 0x0 PUSH2 0x100 EXP DUP2 SLOAD DUP2 PUSH20 0xFFFFFFFFFFFFFFFFFFFFFFFFFFFFFFFFFFFFFFFF MUL NOT AND SWAP1 DUP4 PUSH20 0xFFFFFFFFFFFFFFFFFFFFFFFFFFFFFFFFFFFFFFFF AND MUL OR SWAP1 SSTORE POP SWAP1 POP POP JUMPDEST CALLER PUSH20 0xFFFFFFFFFFFFFFFFFFFFFFFFFFFFFFFFFFFFFFFF AND PUSH1 0x4 PUSH1 0x0 DUP5 DUP2 MSTORE PUSH1 0x20 ADD SWAP1 DUP2 MSTORE PUSH1 0x20 ADD PUSH1 0x0 KECCAK256 PUSH1 0x0 ADD PUSH1 0x0 SWAP1 SLOAD SWAP1 PUSH2 0x100 EXP SWAP1 DIV PUSH20 0xFFFFFFFFFFFFFFFFFFFFFFFFFFFFFFFFFFFFFFFF AND PUSH20 0xFFFFFFFFFFFFFFFFFFFFFFFFFFFFFFFFFFFFFFFF AND SUB PUSH2 0x1427 JUMPI PUSH1 0x40 MLOAD DUP1 PUSH1 0xA0 ADD PUSH1 0x40 MSTORE DUP1 DUP4 DUP2 MSTORE PUSH1 0x20 ADD PUSH1 0x4 PUSH1 0x0 DUP6 DUP2 MSTORE PUSH1 0x20 ADD SWAP1 DUP2 MSTORE PUSH1 0x20 ADD PUSH1 0x0 KECCAK256 PUSH1 0x0 ADD PUSH1 0x0 SWAP1 SLOAD SWAP1 PUSH2 0x100 EXP SWAP1 DIV PUSH20 0xFFFFFFFFFFFFFFFFFFFFFFFFFFFFFFFFFFFFFFFF AND PUSH20 0xFFFFFFFFFFFFFFFFFFFFFFFFFFFFFFFFFFFFFFFF AND DUP2 MSTORE PUSH1 0x20 ADD PUSH1 0x4 PUSH1 0x0 DUP6 DUP2 MSTORE PUSH1 0x20 ADD SWAP1 DUP2 MSTORE PUSH1 0x20 ADD PUSH1 0x0 KECCAK256 PUSH1 0x1 ADD PUSH1 0x0 SWAP1 SLOAD SWAP1 PUSH2 0x100 EXP SWAP1 DIV PUSH20 0xFFFFFFFFFFFFFFFFFFFFFFFFFFFFFFFFFFFFFFFF AND PUSH20 0xFFFFFFFFFFFFFFFFFFFFFFFFFFFFFFFFFFFFFFFF AND DUP2 MSTORE PUSH1 0x20 ADD DUP3 DUP2 MSTORE PUSH1 0x20 ADD PUSH1 0x0 DUP1 SLOAD SWAP1 PUSH2 0x100 EXP SWAP1 DIV PUSH20 0xFFFFFFFFFFFFFFFFFFFFFFFFFFFFFFFFFFFFFFFF AND PUSH20 0xFFFFFFFFFFFFFFFFFFFFFFFFFFFFFFFFFFFFFFFF AND DUP2 MSTORE POP PUSH1 0x5 PUSH1 0x0 DUP5 DUP2 MSTORE PUSH1 0x20 ADD SWAP1 DUP2 MSTORE PUSH1 0x20 ADD PUSH1 0x0 KECCAK256 PUSH1 0x0 DUP3 ADD MLOAD DUP2 PUSH1 0x0 ADD SSTORE PUSH1 0x20 DUP3 ADD MLOAD DUP2 PUSH1 0x1 ADD PUSH1 0x0 PUSH2 0x100 EXP DUP2 SLOAD DUP2 PUSH20 0xFFFFFFFFFFFFFFFFFFFFFFFFFFFFFFFFFFFFFFFF MUL NOT AND SWAP1 DUP4 PUSH20 0xFFFFFFFFFFFFFFFFFFFFFFFFFFFFFFFFFFFFFFFF AND MUL OR SWAP1 SSTORE POP PUSH1 0x40 DUP3 ADD MLOAD DUP2 PUSH1 0x2 ADD PUSH1 0x0 PUSH2 0x100 EXP DUP2 SLOAD DUP2 PUSH20 0xFFFFFFFFFFFFFFFFFFFFFFFFFFFFFFFFFFFFFFFF MUL NOT AND SWAP1 DUP4 PUSH20 0xFFFFFFFFFFFFFFFFFFFFFFFFFFFFFFFFFFFFFFFF AND MUL OR SWAP1 SSTORE POP PUSH1 0x60 DUP3 ADD MLOAD DUP2 PUSH1 0x3 ADD SWAP1 DUP2 PUSH2 0x13DB SWAP2 SWAP1 PUSH2 0x3435 JUMP JUMPDEST POP PUSH1 0x80 DUP3 ADD MLOAD DUP2 PUSH1 0x4 ADD PUSH1 0x0 PUSH2 0x100 EXP DUP2 SLOAD DUP2 PUSH20 0xFFFFFFFFFFFFFFFFFFFFFFFFFFFFFFFFFFFFFFFF MUL NOT AND SWAP1 DUP4 PUSH20 0xFFFFFFFFFFFFFFFFFFFFFFFFFFFFFFFFFFFFFFFF AND MUL OR SWAP1 SSTORE POP SWAP1 POP POP JUMPDEST POP POP JUMP JUMPDEST PUSH1 0x0 PUSH1 0x3 DUP3 PUSH1 0x40 MLOAD PUSH2 0x143D SWAP2 SWAP1 PUSH2 0x35D5 JUMP JUMPDEST SWAP1 DUP2 MSTORE PUSH1 0x20 ADD PUSH1 0x40 MLOAD DUP1 SWAP2 SUB SWAP1 KECCAK256 PUSH1 0x4 ADD SLOAD SWAP1 POP SWAP2 SWAP1 POP JUMP JUMPDEST PUSH1 0x4 PUSH1 0x20 MSTORE DUP1 PUSH1 0x0 MSTORE PUSH1 0x40 PUSH1 0x0 KECCAK256 PUSH1 0x0 SWAP2 POP SWAP1 POP DUP1 PUSH1 0x0 ADD PUSH1 0x0 SWAP1 SLOAD SWAP1 PUSH2 0x100 EXP SWAP1 DIV PUSH20 0xFFFFFFFFFFFFFFFFFFFFFFFFFFFFFFFFFFFFFFFF AND SWAP1 DUP1 PUSH1 0x1 ADD PUSH1 0x0 SWAP1 SLOAD SWAP1 PUSH2 0x100 EXP SWAP1 DIV PUSH20 0xFFFFFFFFFFFFFFFFFFFFFFFFFFFFFFFFFFFFFFFF AND SWAP1 DUP1 PUSH1 0x2 ADD DUP1 SLOAD PUSH2 0x14C5 SWAP1 PUSH2 0x3114 JUMP JUMPDEST DUP1 PUSH1 0x1F ADD PUSH1 0x20 DUP1 SWAP2 DIV MUL PUSH1 0x20 ADD PUSH1 0x40 MLOAD SWAP1 DUP2 ADD PUSH1 0x40 MSTORE DUP1 SWAP3 SWAP2 SWAP1 DUP2 DUP2 MSTORE PUSH1 0x20 ADD DUP3 DUP1 SLOAD PUSH2 0x14F1 SWAP1 PUSH2 0x3114 JUMP JUMPDEST DUP1 ISZERO PUSH2 0x153E JUMPI DUP1 PUSH1 0x1F LT PUSH2 0x1513 JUMPI PUSH2 0x100 DUP1 DUP4 SLOAD DIV MUL DUP4 MSTORE SWAP2 PUSH1 0x20 ADD SWAP2 PUSH2 0x153E JUMP JUMPDEST DUP3 ADD SWAP2 SWAP1 PUSH1 0x0 MSTORE PUSH1 0x20 PUSH1 0x0 KECCAK256 SWAP1 JUMPDEST DUP2 SLOAD DUP2 MSTORE SWAP1 PUSH1 0x1 ADD SWAP1 PUSH1 0x20 ADD DUP1 DUP4 GT PUSH2 0x1521 JUMPI DUP3 SWAP1 SUB PUSH1 0x1F AND DUP3 ADD SWAP2 JUMPDEST POP POP POP POP POP SWAP1 DUP1 PUSH1 0x3 ADD DUP1 SLOAD PUSH2 0x1553 SWAP1 PUSH2 0x3114 JUMP JUMPDEST DUP1 PUSH1 0x1F ADD PUSH1 0x20 DUP1 SWAP2 DIV MUL PUSH1 0x20 ADD PUSH1 0x40 MLOAD SWAP1 DUP2 ADD PUSH1 0x40 MSTORE DUP1 SWAP3 SWAP2 SWAP1 DUP2 DUP2 MSTORE PUSH1 0x20 ADD DUP3 DUP1 SLOAD PUSH2 0x157F SWAP1 PUSH2 0x3114 JUMP JUMPDEST DUP1 ISZERO PUSH2 0x15CC JUMPI DUP1 PUSH1 0x1F LT PUSH2 0x15A1 JUMPI PUSH2 0x100 DUP1 DUP4 SLOAD DIV MUL DUP4 MSTORE SWAP2 PUSH1 0x20 ADD SWAP2 PUSH2 0x15CC JUMP JUMPDEST DUP3 ADD SWAP2 SWAP1 PUSH1 0x0 MSTORE PUSH1 0x20 PUSH1 0x0 KECCAK256 SWAP1 JUMPDEST DUP2 SLOAD DUP2 MSTORE SWAP1 PUSH1 0x1 ADD SWAP1 PUSH1 0x20 ADD DUP1 DUP4 GT PUSH2 0x15AF JUMPI DUP3 SWAP1 SUB PUSH1 0x1F AND DUP3 ADD SWAP2 JUMPDEST POP POP POP POP POP SWAP1 DUP1 PUSH1 0x4 ADD SLOAD SWAP1 DUP1 PUSH1 0x5 ADD SLOAD SWAP1 DUP1 PUSH1 0x6 ADD PUSH1 0x0 SWAP1 SLOAD SWAP1 PUSH2 0x100 EXP SWAP1 DIV PUSH1 0xFF AND SWAP1 DUP1 PUSH1 0x6 ADD PUSH1 0x1 SWAP1 SLOAD SWAP1 PUSH2 0x100 EXP SWAP1 DIV PUSH1 0xFF AND SWAP1 POP DUP9 JUMP JUMPDEST PUSH1 0x0 DUP1 PUSH1 0x60 PUSH1 0x6 PUSH1 0x0 DUP6 DUP2 MSTORE PUSH1 0x20 ADD SWAP1 DUP2 MSTORE PUSH1 0x20 ADD PUSH1 0x0 KECCAK256 PUSH1 0x0 ADD SLOAD PUSH1 0x6 PUSH1 0x0 DUP7 DUP2 MSTORE PUSH1 0x20 ADD SWAP1 DUP2 MSTORE PUSH1 0x20 ADD PUSH1 0x0 KECCAK256 PUSH1 0x1 ADD PUSH1 0x0 SWAP1 SLOAD SWAP1 PUSH2 0x100 EXP SWAP1 DIV PUSH20 0xFFFFFFFFFFFFFFFFFFFFFFFFFFFFFFFFFFFFFFFF AND PUSH1 0x6 PUSH1 0x0 DUP8 DUP2 MSTORE PUSH1 0x20 ADD SWAP1 DUP2 MSTORE PUSH1 0x20 ADD PUSH1 0x0 KECCAK256 PUSH1 0x2 ADD DUP1 DUP1 SLOAD PUSH2 0x167D SWAP1 PUSH2 0x3114 JUMP JUMPDEST DUP1 PUSH1 0x1F ADD PUSH1 0x20 DUP1 SWAP2 DIV MUL PUSH1 0x20 ADD PUSH1 0x40 MLOAD SWAP1 DUP2 ADD PUSH1 0x40 MSTORE DUP1 SWAP3 SWAP2 SWAP1 DUP2 DUP2 MSTORE PUSH1 0x20 ADD DUP3 DUP1 SLOAD PUSH2 0x16A9 SWAP1 PUSH2 0x3114 JUMP JUMPDEST DUP1 ISZERO PUSH2 0x16F6 JUMPI DUP1 PUSH1 0x1F LT PUSH2 0x16CB JUMPI PUSH2 0x100 DUP1 DUP4 SLOAD DIV MUL DUP4 MSTORE SWAP2 PUSH1 0x20 ADD SWAP2 PUSH2 0x16F6 JUMP JUMPDEST DUP3 ADD SWAP2 SWAP1 PUSH1 0x0 MSTORE PUSH1 0x20 PUSH1 0x0 KECCAK256 SWAP1 JUMPDEST DUP2 SLOAD DUP2 MSTORE SWAP1 PUSH1 0x1 ADD SWAP1 PUSH1 0x20 ADD DUP1 DUP4 GT PUSH2 0x16D9 JUMPI DUP3 SWAP1 SUB PUSH1 0x1F AND DUP3 ADD SWAP2 JUMPDEST POP POP POP POP POP SWAP1 POP SWAP3 POP SWAP3 POP SWAP3 POP SWAP2 SWAP4 SWAP1 SWAP3 POP JUMP JUMPDEST PUSH1 0x0 PUSH20 0xFFFFFFFFFFFFFFFFFFFFFFFFFFFFFFFFFFFFFFFF AND PUSH1 0x2 PUSH1 0x0 CALLER PUSH20 0xFFFFFFFFFFFFFFFFFFFFFFFFFFFFFFFFFFFFFFFF AND PUSH20 0xFFFFFFFFFFFFFFFFFFFFFFFFFFFFFFFFFFFFFFFF AND DUP2 MSTORE PUSH1 0x20 ADD SWAP1 DUP2 MSTORE PUSH1 0x20 ADD PUSH1 0x0 KECCAK256 PUSH1 0x1 ADD PUSH1 0x0 SWAP1 SLOAD SWAP1 PUSH2 0x100 EXP SWAP1 DIV PUSH20 0xFFFFFFFFFFFFFFFFFFFFFFFFFFFFFFFFFFFFFFFF AND PUSH20 0xFFFFFFFFFFFFFFFFFFFFFFFFFFFFFFFFFFFFFFFF AND SUB PUSH2 0x17DB JUMPI PUSH1 0x40 MLOAD PUSH32 0x8C379A000000000000000000000000000000000000000000000000000000000 DUP2 MSTORE PUSH1 0x4 ADD PUSH2 0x17D2 SWAP1 PUSH2 0x3638 JUMP JUMPDEST PUSH1 0x40 MLOAD DUP1 SWAP2 SUB SWAP1 REVERT JUMPDEST PUSH1 0x2 PUSH1 0x0 CALLER PUSH20 0xFFFFFFFFFFFFFFFFFFFFFFFFFFFFFFFFFFFFFFFF AND PUSH20 0xFFFFFFFFFFFFFFFFFFFFFFFFFFFFFFFFFFFFFFFF AND DUP2 MSTORE PUSH1 0x20 ADD SWAP1 DUP2 MSTORE PUSH1 0x20 ADD PUSH1 0x0 KECCAK256 PUSH1 0x1 ADD PUSH1 0x14 SWAP1 SLOAD SWAP1 PUSH2 0x100 EXP SWAP1 DIV PUSH1 0xFF AND PUSH2 0x186A JUMPI PUSH1 0x40 MLOAD PUSH32 0x8C379A000000000000000000000000000000000000000000000000000000000 DUP2 MSTORE PUSH1 0x4 ADD PUSH2 0x1861 SWAP1 PUSH2 0x36A4 JUMP JUMPDEST PUSH1 0x40 MLOAD DUP1 SWAP2 SUB SWAP1 REVERT JUMPDEST PUSH1 0x0 PUSH20 0xFFFFFFFFFFFFFFFFFFFFFFFFFFFFFFFFFFFFFFFF AND PUSH1 0x3 DUP4 PUSH1 0x40 MLOAD PUSH2 0x1892 SWAP2 SWAP1 PUSH2 0x35D5 JUMP JUMPDEST SWAP1 DUP2 MSTORE PUSH1 0x20 ADD PUSH1 0x40 MLOAD DUP1 SWAP2 SUB SWAP1 KECCAK256 PUSH1 0x0 ADD PUSH1 0x0 SWAP1 SLOAD SWAP1 PUSH2 0x100 EXP SWAP1 DIV PUSH20 0xFFFFFFFFFFFFFFFFFFFFFFFFFFFFFFFFFFFFFFFF AND PUSH20 0xFFFFFFFFFFFFFFFFFFFFFFFFFFFFFFFFFFFFFFFF AND EQ PUSH2 0x191A JUMPI PUSH1 0x40 MLOAD PUSH32 0x8C379A000000000000000000000000000000000000000000000000000000000 DUP2 MSTORE PUSH1 0x4 ADD PUSH2 0x1911 SWAP1 PUSH2 0x3710 JUMP JUMPDEST PUSH1 0x40 MLOAD DUP1 SWAP2 SUB SWAP1 REVERT JUMPDEST PUSH1 0x40 MLOAD DUP1 PUSH1 0xA0 ADD PUSH1 0x40 MSTORE DUP1 CALLER PUSH20 0xFFFFFFFFFFFFFFFFFFFFFFFFFFFFFFFFFFFFFFFF AND DUP2 MSTORE PUSH1 0x20 ADD DUP4 DUP2 MSTORE PUSH1 0x20 ADD DUP3 DUP2 MSTORE PUSH1 0x20 ADD PUSH1 0x0 ISZERO ISZERO DUP2 MSTORE PUSH1 0x20 ADD PUSH1 0x0 DUP2 MSTORE POP PUSH1 0x3 DUP4 PUSH1 0x40 MLOAD PUSH2 0x196B SWAP2 SWAP1 PUSH2 0x35D5 JUMP JUMPDEST SWAP1 DUP2 MSTORE PUSH1 0x20 ADD PUSH1 0x40 MLOAD DUP1 SWAP2 SUB SWAP1 KECCAK256 PUSH1 0x0 DUP3 ADD MLOAD DUP2 PUSH1 0x0 ADD PUSH1 0x0 PUSH2 0x100 EXP DUP2 SLOAD DUP2 PUSH20 0xFFFFFFFFFFFFFFFFFFFFFFFFFFFFFFFFFFFFFFFF MUL NOT AND SWAP1 DUP4 PUSH20 0xFFFFFFFFFFFFFFFFFFFFFFFFFFFFFFFFFFFFFFFF AND MUL OR SWAP1 SSTORE POP PUSH1 0x20 DUP3 ADD MLOAD DUP2 PUSH1 0x1 ADD SWAP1 DUP2 PUSH2 0x19D5 SWAP2 SWAP1 PUSH2 0x3435 JUMP JUMPDEST POP PUSH1 0x40 DUP3 ADD MLOAD DUP2 PUSH1 0x2 ADD SWAP1 DUP2 PUSH2 0x19EB SWAP2 SWAP1 PUSH2 0x3435 JUMP JUMPDEST POP PUSH1 0x60 DUP3 ADD MLOAD DUP2 PUSH1 0x3 ADD PUSH1 0x0 PUSH2 0x100 EXP DUP2 SLOAD DUP2 PUSH1 0xFF MUL NOT AND SWAP1 DUP4 ISZERO ISZERO MUL OR SWAP1 SSTORE POP PUSH1 0x80 DUP3 ADD MLOAD DUP2 PUSH1 0x4 ADD SSTORE SWAP1 POP POP POP POP JUMP JUMPDEST PUSH1 0x6 PUSH1 0x20 MSTORE DUP1 PUSH1 0x0 MSTORE PUSH1 0x40 PUSH1 0x0 KECCAK256 PUSH1 0x0 SWAP2 POP SWAP1 POP DUP1 PUSH1 0x0 ADD SLOAD SWAP1 DUP1 PUSH1 0x1 ADD PUSH1 0x0 SWAP1 SLOAD SWAP1 PUSH2 0x100 EXP SWAP1 DIV PUSH20 0xFFFFFFFFFFFFFFFFFFFFFFFFFFFFFFFFFFFFFFFF AND SWAP1 DUP1 PUSH1 0x2 ADD DUP1 SLOAD PUSH2 0x1A6C SWAP1 PUSH2 0x3114 JUMP JUMPDEST DUP1 PUSH1 0x1F ADD PUSH1 0x20 DUP1 SWAP2 DIV MUL PUSH1 0x20 ADD PUSH1 0x40 MLOAD SWAP1 DUP2 ADD PUSH1 0x40 MSTORE DUP1 SWAP3 SWAP2 SWAP1 DUP2 DUP2 MSTORE PUSH1 0x20 ADD DUP3 DUP1 SLOAD PUSH2 0x1A98 SWAP1 PUSH2 0x3114 JUMP JUMPDEST DUP1 ISZERO PUSH2 0x1AE5 JUMPI DUP1 PUSH1 0x1F LT PUSH2 0x1ABA JUMPI PUSH2 0x100 DUP1 DUP4 SLOAD DIV MUL DUP4 MSTORE SWAP2 PUSH1 0x20 ADD SWAP2 PUSH2 0x1AE5 JUMP JUMPDEST DUP3 ADD SWAP2 SWAP1 PUSH1 0x0 MSTORE PUSH1 0x20 PUSH1 0x0 KECCAK256 SWAP1 JUMPDEST DUP2 SLOAD DUP2 MSTORE SWAP1 PUSH1 0x1 ADD SWAP1 PUSH1 0x20 ADD DUP1 DUP4 GT PUSH2 0x1AC8 JUMPI DUP3 SWAP1 SUB PUSH1 0x1F AND DUP3 ADD SWAP2 JUMPDEST POP POP POP POP POP SWAP1 DUP1 PUSH1 0x3 ADD PUSH1 0x0 SWAP1 SLOAD SWAP1 PUSH2 0x100 EXP SWAP1 DIV PUSH20 0xFFFFFFFFFFFFFFFFFFFFFFFFFFFFFFFFFFFFFFFF AND SWAP1 POP DUP5 JUMP JUMPDEST PUSH1 0x0 PUSH20 0xFFFFFFFFFFFFFFFFFFFFFFFFFFFFFFFFFFFFFFFF AND PUSH1 0x2 PUSH1 0x0 CALLER PUSH20 0xFFFFFFFFFFFFFFFFFFFFFFFFFFFFFFFFFFFFFFFF AND PUSH20 0xFFFFFFFFFFFFFFFFFFFFFFFFFFFFFFFFFFFFFFFF AND DUP2 MSTORE PUSH1 0x20 ADD SWAP1 DUP2 MSTORE PUSH1 0x20 ADD PUSH1 0x0 KECCAK256 PUSH1 0x1 ADD PUSH1 0x0 SWAP1 SLOAD SWAP1 PUSH2 0x100 EXP SWAP1 DIV PUSH20 0xFFFFFFFFFFFFFFFFFFFFFFFFFFFFFFFFFFFFFFFF AND PUSH20 0xFFFFFFFFFFFFFFFFFFFFFFFFFFFFFFFFFFFFFFFF AND SUB PUSH2 0x1BE6 JUMPI PUSH1 0x40 MLOAD PUSH32 0x8C379A000000000000000000000000000000000000000000000000000000000 DUP2 MSTORE PUSH1 0x4 ADD PUSH2 0x1BDD SWAP1 PUSH2 0x3638 JUMP JUMPDEST PUSH1 0x40 MLOAD DUP1 SWAP2 SUB SWAP1 REVERT JUMPDEST PUSH1 0x2 PUSH1 0x0 CALLER PUSH20 0xFFFFFFFFFFFFFFFFFFFFFFFFFFFFFFFFFFFFFFFF AND PUSH20 0xFFFFFFFFFFFFFFFFFFFFFFFFFFFFFFFFFFFFFFFF AND DUP2 MSTORE PUSH1 0x20 ADD SWAP1 DUP2 MSTORE PUSH1 0x20 ADD PUSH1 0x0 KECCAK256 PUSH1 0x1 ADD PUSH1 0x14 SWAP1 SLOAD SWAP1 PUSH2 0x100 EXP SWAP1 DIV PUSH1 0xFF AND PUSH2 0x1C75 JUMPI PUSH1 0x40 MLOAD PUSH32 0x8C379A000000000000000000000000000000000000000000000000000000000 DUP2 MSTORE PUSH1 0x4 ADD PUSH2 0x1C6C SWAP1 PUSH2 0x37A2 JUMP JUMPDEST PUSH1 0x40 MLOAD DUP1 SWAP2 SUB SWAP1 REVERT JUMPDEST PUSH1 0x0 PUSH20 0xFFFFFFFFFFFFFFFFFFFFFFFFFFFFFFFFFFFFFFFF AND PUSH1 0x3 DUP6 PUSH1 0x40 MLOAD PUSH2 0x1C9D SWAP2 SWAP1 PUSH2 0x35D5 JUMP JUMPDEST SWAP1 DUP2 MSTORE PUSH1 0x20 ADD PUSH1 0x40 MLOAD DUP1 SWAP2 SUB SWAP1 KECCAK256 PUSH1 0x0 ADD PUSH1 0x0 SWAP1 SLOAD SWAP1 PUSH2 0x100 EXP SWAP1 DIV PUSH20 0xFFFFFFFFFFFFFFFFFFFFFFFFFFFFFFFFFFFFFFFF AND PUSH20 0xFFFFFFFFFFFFFFFFFFFFFFFFFFFFFFFFFFFFFFFF AND SUB PUSH2 0x1D25 JUMPI PUSH1 0x40 MLOAD PUSH32 0x8C379A000000000000000000000000000000000000000000000000000000000 DUP2 MSTORE PUSH1 0x4 ADD PUSH2 0x1D1C SWAP1 PUSH2 0x380E JUMP JUMPDEST PUSH1 0x40 MLOAD DUP1 SWAP2 SUB SWAP1 REVERT JUMPDEST PUSH1 0x0 CALLER DUP6 DUP5 DUP5 PUSH1 0x40 MLOAD PUSH1 0x20 ADD PUSH2 0x1D3E SWAP5 SWAP4 SWAP3 SWAP2 SWAP1 PUSH2 0x3897 JUMP JUMPDEST PUSH1 0x40 MLOAD PUSH1 0x20 DUP2 DUP4 SUB SUB DUP2 MSTORE SWAP1 PUSH1 0x40 MSTORE DUP1 MLOAD SWAP1 PUSH1 0x20 ADD KECCAK256 PUSH1 0x0 SHR SWAP1 POP PUSH1 0x40 MLOAD DUP1 PUSH2 0x100 ADD PUSH1 0x40 MSTORE DUP1 CALLER PUSH20 0xFFFFFFFFFFFFFFFFFFFFFFFFFFFFFFFFFFFFFFFF AND DUP2 MSTORE PUSH1 0x20 ADD DUP8 PUSH20 0xFFFFFFFFFFFFFFFFFFFFFFFFFFFFFFFFFFFFFFFF AND DUP2 MSTORE PUSH1 0x20 ADD DUP7 DUP2 MSTORE PUSH1 0x20 ADD DUP6 DUP2 MSTORE PUSH1 0x20 ADD DUP5 DUP2 MSTORE PUSH1 0x20 ADD DUP4 DUP2 MSTORE PUSH1 0x20 ADD PUSH1 0x1 ISZERO ISZERO DUP2 MSTORE PUSH1 0x20 ADD PUSH1 0x0 ISZERO ISZERO DUP2 MSTORE POP PUSH1 0x4 PUSH1 0x0 DUP4 DUP2 MSTORE PUSH1 0x20 ADD SWAP1 DUP2 MSTORE PUSH1 0x20 ADD PUSH1 0x0 KECCAK256 PUSH1 0x0 DUP3 ADD MLOAD DUP2 PUSH1 0x0 ADD PUSH1 0x0 PUSH2 0x100 EXP DUP2 SLOAD DUP2 PUSH20 0xFFFFFFFFFFFFFFFFFFFFFFFFFFFFFFFFFFFFFFFF MUL NOT AND SWAP1 DUP4 PUSH20 0xFFFFFFFFFFFFFFFFFFFFFFFFFFFFFFFFFFFFFFFF AND MUL OR SWAP1 SSTORE POP PUSH1 0x20 DUP3 ADD MLOAD DUP2 PUSH1 0x1 ADD PUSH1 0x0 PUSH2 0x100 EXP DUP2 SLOAD DUP2 PUSH20 0xFFFFFFFFFFFFFFFFFFFFFFFFFFFFFFFFFFFFFFFF MUL NOT AND SWAP1 DUP4 PUSH20 0xFFFFFFFFFFFFFFFFFFFFFFFFFFFFFFFFFFFFFFFF AND MUL OR SWAP1 SSTORE POP PUSH1 0x40 DUP3 ADD MLOAD DUP2 PUSH1 0x2 ADD SWAP1 DUP2 PUSH2 0x1E7B SWAP2 SWAP1 PUSH2 0x3435 JUMP JUMPDEST POP PUSH1 0x60 DUP3 ADD MLOAD DUP2 PUSH1 0x3 ADD SWAP1 DUP2 PUSH2 0x1E91 SWAP2 SWAP1 PUSH2 0x3435 JUMP JUMPDEST POP PUSH1 0x80 DUP3 ADD MLOAD DUP2 PUSH1 0x4 ADD SSTORE PUSH1 0xA0 DUP3 ADD MLOAD DUP2 PUSH1 0x5 ADD SSTORE PUSH1 0xC0 DUP3 ADD MLOAD DUP2 PUSH1 0x6 ADD PUSH1 0x0 PUSH2 0x100 EXP DUP2 SLOAD DUP2 PUSH1 0xFF MUL NOT AND SWAP1 DUP4 ISZERO ISZERO MUL OR SWAP1 SSTORE POP PUSH1 0xE0 DUP3 ADD MLOAD DUP2 PUSH1 0x6 ADD PUSH1 0x1 PUSH2 0x100 EXP DUP2 SLOAD DUP2 PUSH1 0xFF MUL NOT AND SWAP1 DUP4 ISZERO ISZERO MUL OR SWAP1 SSTORE POP SWAP1 POP POP DUP1 PUSH1 0x3 DUP7 PUSH1 0x40 MLOAD PUSH2 0x1EFA SWAP2 SWAP1 PUSH2 0x35D5 JUMP JUMPDEST SWAP1 DUP2 MSTORE PUSH1 0x20 ADD PUSH1 0x40 MLOAD DUP1 SWAP2 SUB SWAP1 KECCAK256 PUSH1 0x4 ADD DUP2 SWAP1 SSTORE POP POP POP POP POP POP POP JUMP JUMPDEST CALLER PUSH20 0xFFFFFFFFFFFFFFFFFFFFFFFFFFFFFFFFFFFFFFFF AND PUSH1 0x4 PUSH1 0x0 DUP6 DUP2 MSTORE PUSH1 0x20 ADD SWAP1 DUP2 MSTORE PUSH1 0x20 ADD PUSH1 0x0 KECCAK256 PUSH1 0x1 ADD PUSH1 0x0 SWAP1 SLOAD SWAP1 PUSH2 0x100 EXP SWAP1 DIV PUSH20 0xFFFFFFFFFFFFFFFFFFFFFFFFFFFFFFFFFFFFFFFF AND PUSH20 0xFFFFFFFFFFFFFFFFFFFFFFFFFFFFFFFFFFFFFFFF AND EQ DUP1 PUSH2 0x1FE8 JUMPI POP CALLER PUSH20 0xFFFFFFFFFFFFFFFFFFFFFFFFFFFFFFFFFFFFFFFF AND PUSH1 0x4 PUSH1 0x0 DUP6 DUP2 MSTORE PUSH1 0x20 ADD SWAP1 DUP2 MSTORE PUSH1 0x20 ADD PUSH1 0x0 KECCAK256 PUSH1 0x0 ADD PUSH1 0x0 SWAP1 SLOAD SWAP1 PUSH2 0x100 EXP SWAP1 DIV PUSH20 0xFFFFFFFFFFFFFFFFFFFFFFFFFFFFFFFFFFFFFFFF AND PUSH20 0xFFFFFFFFFFFFFFFFFFFFFFFFFFFFFFFFFFFFFFFF AND EQ JUMPDEST PUSH2 0x2027 JUMPI PUSH1 0x40 MLOAD PUSH32 0x8C379A000000000000000000000000000000000000000000000000000000000 DUP2 MSTORE PUSH1 0x4 ADD PUSH2 0x201E SWAP1 PUSH2 0x392D JUMP JUMPDEST PUSH1 0x40 MLOAD DUP1 SWAP2 SUB SWAP1 REVERT JUMPDEST PUSH1 0x1 ISZERO ISZERO PUSH1 0x4 PUSH1 0x0 DUP6 DUP2 MSTORE PUSH1 0x20 ADD SWAP1 DUP2 MSTORE PUSH1 0x20 ADD PUSH1 0x0 KECCAK256 PUSH1 0x6 ADD PUSH1 0x0 SWAP1 SLOAD SWAP1 PUSH2 0x100 EXP SWAP1 DIV PUSH1 0xFF AND ISZERO ISZERO EQ PUSH2 0x2091 JUMPI PUSH1 0x40 MLOAD PUSH32 0x8C379A000000000000000000000000000000000000000000000000000000000 DUP2 MSTORE PUSH1 0x4 ADD PUSH2 0x2088 SWAP1 PUSH2 0x3191 JUMP JUMPDEST PUSH1 0x40 MLOAD DUP1 SWAP2 SUB SWAP1 REVERT JUMPDEST CALLER PUSH20 0xFFFFFFFFFFFFFFFFFFFFFFFFFFFFFFFFFFFFFFFF AND PUSH1 0x4 PUSH1 0x0 DUP6 DUP2 MSTORE PUSH1 0x20 ADD SWAP1 DUP2 MSTORE PUSH1 0x20 ADD PUSH1 0x0 KECCAK256 PUSH1 0x1 ADD PUSH1 0x0 SWAP1 SLOAD SWAP1 PUSH2 0x100 EXP SWAP1 DIV PUSH20 0xFFFFFFFFFFFFFFFFFFFFFFFFFFFFFFFFFFFFFFFF AND PUSH20 0xFFFFFFFFFFFFFFFFFFFFFFFFFFFFFFFFFFFFFFFF AND SUB PUSH2 0x2356 JUMPI PUSH1 0x0 PUSH1 0x4 PUSH1 0x0 DUP6 DUP2 MSTORE PUSH1 0x20 ADD SWAP1 DUP2 MSTORE PUSH1 0x20 ADD PUSH1 0x0 KECCAK256 PUSH1 0x5 ADD SLOAD SWAP1 POP PUSH1 0x0 PUSH3 0x13C680 TIMESTAMP PUSH2 0x2126 SWAP2 SWAP1 PUSH2 0x397C JUMP JUMPDEST SWAP1 POP DUP1 DUP3 LT PUSH2 0x216A JUMPI PUSH1 0x40 MLOAD PUSH32 0x8C379A000000000000000000000000000000000000000000000000000000000 DUP2 MSTORE PUSH1 0x4 ADD PUSH2 0x2161 SWAP1 PUSH2 0x3A22 JUMP JUMPDEST PUSH1 0x40 MLOAD DUP1 SWAP2 SUB SWAP1 REVERT JUMPDEST DUP1 DUP3 LT ISZERO PUSH2 0x21D5 JUMPI PUSH1 0x1 PUSH1 0x4 PUSH1 0x0 DUP8 DUP2 MSTORE PUSH1 0x20 ADD SWAP1 DUP2 MSTORE PUSH1 0x20 ADD PUSH1 0x0 KECCAK256 PUSH1 0x6 ADD PUSH1 0x1 PUSH2 0x100 EXP DUP2 SLOAD DUP2 PUSH1 0xFF MUL NOT AND SWAP1 DUP4 ISZERO ISZERO MUL OR SWAP1 SSTORE POP PUSH1 0x0 PUSH1 0x4 PUSH1 0x0 DUP8 DUP2 MSTORE PUSH1 0x20 ADD SWAP1 DUP2 MSTORE PUSH1 0x20 ADD PUSH1 0x0 KECCAK256 PUSH1 0x6 ADD PUSH1 0x0 PUSH2 0x100 EXP DUP2 SLOAD DUP2 PUSH1 0xFF MUL NOT AND SWAP1 DUP4 ISZERO ISZERO MUL OR SWAP1 SSTORE POP PUSH2 0x2353 JUMP JUMPDEST PUSH1 0x40 MLOAD DUP1 PUSH1 0x80 ADD PUSH1 0x40 MSTORE DUP1 DUP7 DUP2 MSTORE PUSH1 0x20 ADD PUSH1 0x4 PUSH1 0x0 DUP9 DUP2 MSTORE PUSH1 0x20 ADD SWAP1 DUP2 MSTORE PUSH1 0x20 ADD PUSH1 0x0 KECCAK256 PUSH1 0x1 ADD PUSH1 0x0 SWAP1 SLOAD SWAP1 PUSH2 0x100 EXP SWAP1 DIV PUSH20 0xFFFFFFFFFFFFFFFFFFFFFFFFFFFFFFFFFFFFFFFF AND PUSH20 0xFFFFFFFFFFFFFFFFFFFFFFFFFFFFFFFFFFFFFFFF AND DUP2 MSTORE PUSH1 0x20 ADD DUP5 DUP2 MSTORE PUSH1 0x20 ADD PUSH1 0x4 PUSH1 0x0 DUP9 DUP2 MSTORE PUSH1 0x20 ADD SWAP1 DUP2 MSTORE PUSH1 0x20 ADD PUSH1 0x0 KECCAK256 PUSH1 0x0 ADD PUSH1 0x0 SWAP1 SLOAD SWAP1 PUSH2 0x100 EXP SWAP1 DIV PUSH20 0xFFFFFFFFFFFFFFFFFFFFFFFFFFFFFFFFFFFFFFFF AND PUSH20 0xFFFFFFFFFFFFFFFFFFFFFFFFFFFFFFFFFFFFFFFF AND DUP2 MSTORE POP PUSH1 0x6 PUSH1 0x0 DUP8 DUP2 MSTORE PUSH1 0x20 ADD SWAP1 DUP2 MSTORE PUSH1 0x20 ADD PUSH1 0x0 KECCAK256 PUSH1 0x0 DUP3 ADD MLOAD DUP2 PUSH1 0x0 ADD SSTORE PUSH1 0x20 DUP3 ADD MLOAD DUP2 PUSH1 0x1 ADD PUSH1 0x0 PUSH2 0x100 EXP DUP2 SLOAD DUP2 PUSH20 0xFFFFFFFFFFFFFFFFFFFFFFFFFFFFFFFFFFFFFFFF MUL NOT AND SWAP1 DUP4 PUSH20 0xFFFFFFFFFFFFFFFFFFFFFFFFFFFFFFFFFFFFFFFF AND MUL OR SWAP1 SSTORE POP PUSH1 0x40 DUP3 ADD MLOAD DUP2 PUSH1 0x2 ADD SWAP1 DUP2 PUSH2 0x2307 SWAP2 SWAP1 PUSH2 0x3435 JUMP JUMPDEST POP PUSH1 0x60 DUP3 ADD MLOAD DUP2 PUSH1 0x3 ADD PUSH1 0x0 PUSH2 0x100 EXP DUP2 SLOAD DUP2 PUSH20 0xFFFFFFFFFFFFFFFFFFFFFFFFFFFFFFFFFFFFFFFF MUL NOT AND SWAP1 DUP4 PUSH20 0xFFFFFFFFFFFFFFFFFFFFFFFFFFFFFFFFFFFFFFFF AND MUL OR SWAP1 SSTORE POP SWAP1 POP POP JUMPDEST POP POP JUMPDEST CALLER PUSH20 0xFFFFFFFFFFFFFFFFFFFFFFFFFFFFFFFFFFFFFFFF AND PUSH1 0x4 PUSH1 0x0 DUP6 DUP2 MSTORE PUSH1 0x20 ADD SWAP1 DUP2 MSTORE PUSH1 0x20 ADD PUSH1 0x0 KECCAK256 PUSH1 0x0 ADD PUSH1 0x0 SWAP1 SLOAD SWAP1 PUSH2 0x100 EXP SWAP1 DIV PUSH20 0xFFFFFFFFFFFFFFFFFFFFFFFFFFFFFFFFFFFFFFFF AND PUSH20 0xFFFFFFFFFFFFFFFFFFFFFFFFFFFFFFFFFFFFFFFF AND SUB PUSH2 0x282D JUMPI DUP2 ISZERO PUSH2 0x2547 JUMPI PUSH1 0x40 MLOAD DUP1 PUSH1 0x80 ADD PUSH1 0x40 MSTORE DUP1 DUP5 DUP2 MSTORE PUSH1 0x20 ADD PUSH1 0x4 PUSH1 0x0 DUP7 DUP2 MSTORE PUSH1 0x20 ADD SWAP1 DUP2 MSTORE PUSH1 0x20 ADD PUSH1 0x0 KECCAK256 PUSH1 0x0 ADD PUSH1 0x0 SWAP1 SLOAD SWAP1 PUSH2 0x100 EXP SWAP1 DIV PUSH20 0xFFFFFFFFFFFFFFFFFFFFFFFFFFFFFFFFFFFFFFFF AND PUSH20 0xFFFFFFFFFFFFFFFFFFFFFFFFFFFFFFFFFFFFFFFF AND DUP2 MSTORE PUSH1 0x20 ADD DUP3 DUP2 MSTORE PUSH1 0x20 ADD PUSH1 0x4 PUSH1 0x0 DUP7 DUP2 MSTORE PUSH1 0x20 ADD SWAP1 DUP2 MSTORE PUSH1 0x20 ADD PUSH1 0x0 KECCAK256 PUSH1 0x1 ADD PUSH1 0x0 SWAP1 SLOAD SWAP1 PUSH2 0x100 EXP SWAP1 DIV PUSH20 0xFFFFFFFFFFFFFFFFFFFFFFFFFFFFFFFFFFFFFFFF AND PUSH20 0xFFFFFFFFFFFFFFFFFFFFFFFFFFFFFFFFFFFFFFFF AND DUP2 MSTORE POP PUSH1 0x6 PUSH1 0x0 DUP6 DUP2 MSTORE PUSH1 0x20 ADD SWAP1 DUP2 MSTORE PUSH1 0x20 ADD PUSH1 0x0 KECCAK256 PUSH1 0x0 DUP3 ADD MLOAD DUP2 PUSH1 0x0 ADD SSTORE PUSH1 0x20 DUP3 ADD MLOAD DUP2 PUSH1 0x1 ADD PUSH1 0x0 PUSH2 0x100 EXP DUP2 SLOAD DUP2 PUSH20 0xFFFFFFFFFFFFFFFFFFFFFFFFFFFFFFFFFFFFFFFF MUL NOT AND SWAP1 DUP4 PUSH20 0xFFFFFFFFFFFFFFFFFFFFFFFFFFFFFFFFFFFFFFFF AND MUL OR SWAP1 SSTORE POP PUSH1 0x40 DUP3 ADD MLOAD DUP2 PUSH1 0x2 ADD SWAP1 DUP2 PUSH2 0x24F7 SWAP2 SWAP1 PUSH2 0x3435 JUMP JUMPDEST POP PUSH1 0x60 DUP3 ADD MLOAD DUP2 PUSH1 0x3 ADD PUSH1 0x0 PUSH2 0x100 EXP DUP2 SLOAD DUP2 PUSH20 0xFFFFFFFFFFFFFFFFFFFFFFFFFFFFFFFFFFFFFFFF MUL NOT AND SWAP1 DUP4 PUSH20 0xFFFFFFFFFFFFFFFFFFFFFFFFFFFFFFFFFFFFFFFF AND MUL OR SWAP1 SSTORE POP SWAP1 POP POP PUSH2 0x282C JUMP JUMPDEST PUSH1 0x40 MLOAD DUP1 PUSH1 0x80 ADD PUSH1 0x40 MSTORE DUP1 DUP5 DUP2 MSTORE PUSH1 0x20 ADD PUSH1 0x4 PUSH1 0x0 DUP7 DUP2 MSTORE PUSH1 0x20 ADD SWAP1 DUP2 MSTORE PUSH1 0x20 ADD PUSH1 0x0 KECCAK256 PUSH1 0x0 ADD PUSH1 0x0 SWAP1 SLOAD SWAP1 PUSH2 0x100 EXP SWAP1 DIV PUSH20 0xFFFFFFFFFFFFFFFFFFFFFFFFFFFFFFFFFFFFFFFF AND PUSH20 0xFFFFFFFFFFFFFFFFFFFFFFFFFFFFFFFFFFFFFFFF AND DUP2 MSTORE PUSH1 0x20 ADD DUP3 DUP2 MSTORE PUSH1 0x20 ADD PUSH1 0x4 PUSH1 0x0 DUP7 DUP2 MSTORE PUSH1 0x20 ADD SWAP1 DUP2 MSTORE PUSH1 0x20 ADD PUSH1 0x0 KECCAK256 PUSH1 0x1 ADD PUSH1 0x0 SWAP1 SLOAD SWAP1 PUSH2 0x100 EXP SWAP1 DIV PUSH20 0xFFFFFFFFFFFFFFFFFFFFFFFFFFFFFFFFFFFFFFFF AND PUSH20 0xFFFFFFFFFFFFFFFFFFFFFFFFFFFFFFFFFFFFFFFF AND DUP2 MSTORE POP PUSH1 0x6 PUSH1 0x0 DUP6 DUP2 MSTORE PUSH1 0x20 ADD SWAP1 DUP2 MSTORE PUSH1 0x20 ADD PUSH1 0x0 KECCAK256 PUSH1 0x0 DUP3 ADD MLOAD DUP2 PUSH1 0x0 ADD SSTORE PUSH1 0x20 DUP3 ADD MLOAD DUP2 PUSH1 0x1 ADD PUSH1 0x0 PUSH2 0x100 EXP DUP2 SLOAD DUP2 PUSH20 0xFFFFFFFFFFFFFFFFFFFFFFFFFFFFFFFFFFFFFFFF MUL NOT AND SWAP1 DUP4 PUSH20 0xFFFFFFFFFFFFFFFFFFFFFFFFFFFFFFFFFFFFFFFF AND MUL OR SWAP1 SSTORE POP PUSH1 0x40 DUP3 ADD MLOAD DUP2 PUSH1 0x2 ADD SWAP1 DUP2 PUSH2 0x2679 SWAP2 SWAP1 PUSH2 0x3435 JUMP JUMPDEST POP PUSH1 0x60 DUP3 ADD MLOAD DUP2 PUSH1 0x3 ADD PUSH1 0x0 PUSH2 0x100 EXP DUP2 SLOAD DUP2 PUSH20 0xFFFFFFFFFFFFFFFFFFFFFFFFFFFFFFFFFFFFFFFF MUL NOT AND SWAP1 DUP4 PUSH20 0xFFFFFFFFFFFFFFFFFFFFFFFFFFFFFFFFFFFFFFFF AND MUL OR SWAP1 SSTORE POP SWAP1 POP POP PUSH1 0x40 MLOAD DUP1 PUSH1 0x80 ADD PUSH1 0x40 MSTORE DUP1 DUP5 DUP2 MSTORE PUSH1 0x20 ADD PUSH1 0x4 PUSH1 0x0 DUP7 DUP2 MSTORE PUSH1 0x20 ADD SWAP1 DUP2 MSTORE PUSH1 0x20 ADD PUSH1 0x0 KECCAK256 PUSH1 0x0 ADD PUSH1 0x0 SWAP1 SLOAD SWAP1 PUSH2 0x100 EXP SWAP1 DIV PUSH20 0xFFFFFFFFFFFFFFFFFFFFFFFFFFFFFFFFFFFFFFFF AND PUSH20 0xFFFFFFFFFFFFFFFFFFFFFFFFFFFFFFFFFFFFFFFF AND DUP2 MSTORE PUSH1 0x20 ADD DUP3 DUP2 MSTORE PUSH1 0x20 ADD PUSH1 0x0 DUP1 SLOAD SWAP1 PUSH2 0x100 EXP SWAP1 DIV PUSH20 0xFFFFFFFFFFFFFFFFFFFFFFFFFFFFFFFFFFFFFFFF AND PUSH20 0xFFFFFFFFFFFFFFFFFFFFFFFFFFFFFFFFFFFFFFFF AND DUP2 MSTORE POP PUSH1 0x6 PUSH1 0x0 DUP6 DUP2 MSTORE PUSH1 0x20 ADD SWAP1 DUP2 MSTORE PUSH1 0x20 ADD PUSH1 0x0 KECCAK256 PUSH1 0x0 DUP3 ADD MLOAD DUP2 PUSH1 0x0 ADD SSTORE PUSH1 0x20 DUP3 ADD MLOAD DUP2 PUSH1 0x1 ADD PUSH1 0x0 PUSH2 0x100 EXP DUP2 SLOAD DUP2 PUSH20 0xFFFFFFFFFFFFFFFFFFFFFFFFFFFFFFFFFFFFFFFF MUL NOT AND SWAP1 DUP4 PUSH20 0xFFFFFFFFFFFFFFFFFFFFFFFFFFFFFFFFFFFFFFFF AND MUL OR SWAP1 SSTORE POP PUSH1 0x40 DUP3 ADD MLOAD DUP2 PUSH1 0x2 ADD SWAP1 DUP2 PUSH2 0x27E0 SWAP2 SWAP1 PUSH2 0x3435 JUMP JUMPDEST POP PUSH1 0x60 DUP3 ADD MLOAD DUP2 PUSH1 0x3 ADD PUSH1 0x0 PUSH2 0x100 EXP DUP2 SLOAD DUP2 PUSH20 0xFFFFFFFFFFFFFFFFFFFFFFFFFFFFFFFFFFFFFFFF MUL NOT AND SWAP1 DUP4 PUSH20 0xFFFFFFFFFFFFFFFFFFFFFFFFFFFFFFFFFFFFFFFF AND MUL OR SWAP1 SSTORE POP SWAP1 POP POP JUMPDEST JUMPDEST POP POP POP JUMP JUMPDEST PUSH1 0x0 PUSH1 0x40 MLOAD SWAP1 POP SWAP1 JUMP JUMPDEST PUSH1 0x0 DUP1 REVERT JUMPDEST PUSH1 0x0 DUP1 REVERT JUMPDEST PUSH1 0x0 PUSH20 0xFFFFFFFFFFFFFFFFFFFFFFFFFFFFFFFFFFFFFFFF DUP3 AND SWAP1 POP SWAP2 SWAP1 POP JUMP JUMPDEST PUSH1 0x0 PUSH2 0x2871 DUP3 PUSH2 0x2846 JUMP JUMPDEST SWAP1 POP SWAP2 SWAP1 POP JUMP JUMPDEST PUSH2 0x2881 DUP2 PUSH2 0x2866 JUMP JUMPDEST DUP2 EQ PUSH2 0x288C JUMPI PUSH1 0x0 DUP1 REVERT JUMPDEST POP JUMP JUMPDEST PUSH1 0x0 DUP2 CALLDATALOAD SWAP1 POP PUSH2 0x289E DUP2 PUSH2 0x2878 JUMP JUMPDEST SWAP3 SWAP2 POP POP JUMP JUMPDEST PUSH1 0x0 PUSH1 0x20 DUP3 DUP5 SUB SLT ISZERO PUSH2 0x28BA JUMPI PUSH2 0x28B9 PUSH2 0x283C JUMP JUMPDEST JUMPDEST PUSH1 0x0 PUSH2 0x28C8 DUP5 DUP3 DUP6 ADD PUSH2 0x288F JUMP JUMPDEST SWAP2 POP POP SWAP3 SWAP2 POP POP JUMP JUMPDEST PUSH1 0x0 DUP2 MLOAD SWAP1 POP SWAP2 SWAP1 POP JUMP JUMPDEST PUSH1 0x0 DUP3 DUP3 MSTORE PUSH1 0x20 DUP3 ADD SWAP1 POP SWAP3 SWAP2 POP POP JUMP JUMPDEST PUSH1 0x0 JUMPDEST DUP4 DUP2 LT ISZERO PUSH2 0x290B JUMPI DUP1 DUP3 ADD MLOAD DUP2 DUP5 ADD MSTORE PUSH1 0x20 DUP2 ADD SWAP1 POP PUSH2 0x28F0 JUMP JUMPDEST PUSH1 0x0 DUP5 DUP5 ADD MSTORE POP POP POP POP JUMP JUMPDEST PUSH1 0x0 PUSH1 0x1F NOT PUSH1 0x1F DUP4 ADD AND SWAP1 POP SWAP2 SWAP1 POP JUMP JUMPDEST PUSH1 0x0 PUSH2 0x2933 DUP3 PUSH2 0x28D1 JUMP JUMPDEST PUSH2 0x293D DUP2 DUP6 PUSH2 0x28DC JUMP JUMPDEST SWAP4 POP PUSH2 0x294D DUP2 DUP6 PUSH1 0x20 DUP7 ADD PUSH2 0x28ED JUMP JUMPDEST PUSH2 0x2956 DUP2 PUSH2 0x2917 JUMP JUMPDEST DUP5 ADD SWAP2 POP POP SWAP3 SWAP2 POP POP JUMP JUMPDEST PUSH2 0x296A DUP2 PUSH2 0x2866 JUMP JUMPDEST DUP3 MSTORE POP POP JUMP JUMPDEST PUSH1 0x0 DUP2 ISZERO ISZERO SWAP1 POP SWAP2 SWAP1 POP JUMP JUMPDEST PUSH2 0x2985 DUP2 PUSH2 0x2970 JUMP JUMPDEST DUP3 MSTORE POP POP JUMP JUMPDEST PUSH1 0x0 PUSH1 0x60 DUP3 ADD SWAP1 POP DUP2 DUP2 SUB PUSH1 0x0 DUP4 ADD MSTORE PUSH2 0x29A5 DUP2 DUP7 PUSH2 0x2928 JUMP JUMPDEST SWAP1 POP PUSH2 0x29B4 PUSH1 0x20 DUP4 ADD DUP6 PUSH2 0x2961 JUMP JUMPDEST PUSH2 0x29C1 PUSH1 0x40 DUP4 ADD DUP5 PUSH2 0x297C JUMP JUMPDEST SWAP5 SWAP4 POP POP POP POP JUMP JUMPDEST PUSH1 0x0 DUP2 SWAP1 POP SWAP2 SWAP1 POP JUMP JUMPDEST PUSH2 0x29DC DUP2 PUSH2 0x29C9 JUMP JUMPDEST DUP2 EQ PUSH2 0x29E7 JUMPI PUSH1 0x0 DUP1 REVERT JUMPDEST POP JUMP JUMPDEST PUSH1 0x0 DUP2 CALLDATALOAD SWAP1 POP PUSH2 0x29F9 DUP2 PUSH2 0x29D3 JUMP JUMPDEST SWAP3 SWAP2 POP POP JUMP JUMPDEST PUSH1 0x0 PUSH1 0x20 DUP3 DUP5 SUB SLT ISZERO PUSH2 0x2A15 JUMPI PUSH2 0x2A14 PUSH2 0x283C JUMP JUMPDEST JUMPDEST PUSH1 0x0 PUSH2 0x2A23 DUP5 DUP3 DUP6 ADD PUSH2 0x29EA JUMP JUMPDEST SWAP2 POP POP SWAP3 SWAP2 POP POP JUMP JUMPDEST PUSH2 0x2A35 DUP2 PUSH2 0x29C9 JUMP JUMPDEST DUP3 MSTORE POP POP JUMP JUMPDEST PUSH1 0x0 PUSH1 0x80 DUP3 ADD SWAP1 POP PUSH2 0x2A50 PUSH1 0x0 DUP4 ADD DUP8 PUSH2 0x2A2C JUMP JUMPDEST PUSH2 0x2A5D PUSH1 0x20 DUP4 ADD DUP7 PUSH2 0x2961 JUMP JUMPDEST PUSH2 0x2A6A PUSH1 0x40 DUP4 ADD DUP6 PUSH2 0x2961 JUMP JUMPDEST DUP2 DUP2 SUB PUSH1 0x60 DUP4 ADD MSTORE PUSH2 0x2A7C DUP2 DUP5 PUSH2 0x2928 JUMP JUMPDEST SWAP1 POP SWAP6 SWAP5 POP POP POP POP POP JUMP JUMPDEST PUSH1 0x0 PUSH1 0x20 DUP3 ADD SWAP1 POP PUSH2 0x2A9C PUSH1 0x0 DUP4 ADD DUP5 PUSH2 0x297C JUMP JUMPDEST SWAP3 SWAP2 POP POP JUMP JUMPDEST PUSH1 0x0 PUSH1 0x20 DUP3 ADD SWAP1 POP PUSH2 0x2AB7 PUSH1 0x0 DUP4 ADD DUP5 PUSH2 0x2961 JUMP JUMPDEST SWAP3 SWAP2 POP POP JUMP JUMPDEST PUSH2 0x2AC6 DUP2 PUSH2 0x2970 JUMP JUMPDEST DUP2 EQ PUSH2 0x2AD1 JUMPI PUSH1 0x0 DUP1 REVERT JUMPDEST POP JUMP JUMPDEST PUSH1 0x0 DUP2 CALLDATALOAD SWAP1 POP PUSH2 0x2AE3 DUP2 PUSH2 0x2ABD JUMP JUMPDEST SWAP3 SWAP2 POP POP JUMP JUMPDEST PUSH1 0x0 DUP1 PUSH1 0x40 DUP4 DUP6 SUB SLT ISZERO PUSH2 0x2B00 JUMPI PUSH2 0x2AFF PUSH2 0x283C JUMP JUMPDEST JUMPDEST PUSH1 0x0 PUSH2 0x2B0E DUP6 DUP3 DUP7 ADD PUSH2 0x29EA JUMP JUMPDEST SWAP3 POP POP PUSH1 0x20 PUSH2 0x2B1F DUP6 DUP3 DUP7 ADD PUSH2 0x2AD4 JUMP JUMPDEST SWAP2 POP POP SWAP3 POP SWAP3 SWAP1 POP JUMP JUMPDEST PUSH1 0x0 PUSH1 0xA0 DUP3 ADD SWAP1 POP PUSH2 0x2B3E PUSH1 0x0 DUP4 ADD DUP9 PUSH2 0x2A2C JUMP JUMPDEST PUSH2 0x2B4B PUSH1 0x20 DUP4 ADD DUP8 PUSH2 0x2961 JUMP JUMPDEST PUSH2 0x2B58 PUSH1 0x40 DUP4 ADD DUP7 PUSH2 0x2961 JUMP JUMPDEST DUP2 DUP2 SUB PUSH1 0x60 DUP4 ADD MSTORE PUSH2 0x2B6A DUP2 DUP6 PUSH2 0x2928 JUMP JUMPDEST SWAP1 POP PUSH2 0x2B79 PUSH1 0x80 DUP4 ADD DUP5 PUSH2 0x2961 JUMP JUMPDEST SWAP7 SWAP6 POP POP POP POP POP POP JUMP JUMPDEST PUSH1 0x0 DUP1 REVERT JUMPDEST PUSH1 0x0 DUP1 REVERT JUMPDEST PUSH32 0x4E487B7100000000000000000000000000000000000000000000000000000000 PUSH1 0x0 MSTORE PUSH1 0x41 PUSH1 0x4 MSTORE PUSH1 0x24 PUSH1 0x0 REVERT JUMPDEST PUSH2 0x2BC5 DUP3 PUSH2 0x2917 JUMP JUMPDEST DUP2 ADD DUP2 DUP2 LT PUSH8 0xFFFFFFFFFFFFFFFF DUP3 GT OR ISZERO PUSH2 0x2BE4 JUMPI PUSH2 0x2BE3 PUSH2 0x2B8D JUMP JUMPDEST JUMPDEST DUP1 PUSH1 0x40 MSTORE POP POP POP JUMP JUMPDEST PUSH1 0x0 PUSH2 0x2BF7 PUSH2 0x2832 JUMP JUMPDEST SWAP1 POP PUSH2 0x2C03 DUP3 DUP3 PUSH2 0x2BBC JUMP JUMPDEST SWAP2 SWAP1 POP JUMP JUMPDEST PUSH1 0x0 PUSH8 0xFFFFFFFFFFFFFFFF DUP3 GT ISZERO PUSH2 0x2C23 JUMPI PUSH2 0x2C22 PUSH2 0x2B8D JUMP JUMPDEST JUMPDEST PUSH2 0x2C2C DUP3 PUSH2 0x2917 JUMP JUMPDEST SWAP1 POP PUSH1 0x20 DUP2 ADD SWAP1 POP SWAP2 SWAP1 POP JUMP JUMPDEST DUP3 DUP2 DUP4 CALLDATACOPY PUSH1 0x0 DUP4 DUP4 ADD MSTORE POP POP POP JUMP JUMPDEST PUSH1 0x0 PUSH2 0x2C5B PUSH2 0x2C56 DUP5 PUSH2 0x2C08 JUMP JUMPDEST PUSH2 0x2BED JUMP JUMPDEST SWAP1 POP DUP3 DUP2 MSTORE PUSH1 0x20 DUP2 ADD DUP5 DUP5 DUP5 ADD GT ISZERO PUSH2 0x2C77 JUMPI PUSH2 0x2C76 PUSH2 0x2B88 JUMP JUMPDEST JUMPDEST PUSH2 0x2C82 DUP5 DUP3 DUP6 PUSH2 0x2C39 JUMP JUMPDEST POP SWAP4 SWAP3 POP POP POP JUMP JUMPDEST PUSH1 0x0 DUP3 PUSH1 0x1F DUP4 ADD SLT PUSH2 0x2C9F JUMPI PUSH2 0x2C9E PUSH2 0x2B83 JUMP JUMPDEST JUMPDEST DUP2 CALLDATALOAD PUSH2 0x2CAF DUP5 DUP3 PUSH1 0x20 DUP7 ADD PUSH2 0x2C48 JUMP JUMPDEST SWAP2 POP POP SWAP3 SWAP2 POP POP JUMP JUMPDEST PUSH1 0x0 DUP1 PUSH1 0x40 DUP4 DUP6 SUB SLT ISZERO PUSH2 0x2CCF JUMPI PUSH2 0x2CCE PUSH2 0x283C JUMP JUMPDEST JUMPDEST PUSH1 0x0 DUP4 ADD CALLDATALOAD PUSH8 0xFFFFFFFFFFFFFFFF DUP2 GT ISZERO PUSH2 0x2CED JUMPI PUSH2 0x2CEC PUSH2 0x2841 JUMP JUMPDEST JUMPDEST PUSH2 0x2CF9 DUP6 DUP3 DUP7 ADD PUSH2 0x2C8A JUMP JUMPDEST SWAP3 POP POP PUSH1 0x20 PUSH2 0x2D0A DUP6 DUP3 DUP7 ADD PUSH2 0x2AD4 JUMP JUMPDEST SWAP2 POP POP SWAP3 POP SWAP3 SWAP1 POP JUMP JUMPDEST PUSH1 0x0 PUSH1 0x20 DUP3 DUP5 SUB SLT ISZERO PUSH2 0x2D2A JUMPI PUSH2 0x2D29 PUSH2 0x283C JUMP JUMPDEST JUMPDEST PUSH1 0x0 DUP3 ADD CALLDATALOAD PUSH8 0xFFFFFFFFFFFFFFFF DUP2 GT ISZERO PUSH2 0x2D48 JUMPI PUSH2 0x2D47 PUSH2 0x2841 JUMP JUMPDEST JUMPDEST PUSH2 0x2D54 DUP5 DUP3 DUP6 ADD PUSH2 0x2C8A JUMP JUMPDEST SWAP2 POP POP SWAP3 SWAP2 POP POP JUMP JUMPDEST PUSH1 0x0 PUSH1 0xA0 DUP3 ADD SWAP1 POP PUSH2 0x2D72 PUSH1 0x0 DUP4 ADD DUP9 PUSH2 0x2961 JUMP JUMPDEST DUP2 DUP2 SUB PUSH1 0x20 DUP4 ADD MSTORE PUSH2 0x2D84 DUP2 DUP8 PUSH2 0x2928 JUMP JUMPDEST SWAP1 POP DUP2 DUP2 SUB PUSH1 0x40 DUP4 ADD MSTORE PUSH2 0x2D98 DUP2 DUP7 PUSH2 0x2928 JUMP JUMPDEST SWAP1 POP PUSH2 0x2DA7 PUSH1 0x60 DUP4 ADD DUP6 PUSH2 0x297C JUMP JUMPDEST PUSH2 0x2DB4 PUSH1 0x80 DUP4 ADD DUP5 PUSH2 0x2A2C JUMP JUMPDEST SWAP7 SWAP6 POP POP POP POP POP POP JUMP JUMPDEST PUSH1 0x0 DUP1 PUSH1 0x40 DUP4 DUP6 SUB SLT ISZERO PUSH2 0x2DD5 JUMPI PUSH2 0x2DD4 PUSH2 0x283C JUMP JUMPDEST JUMPDEST PUSH1 0x0 PUSH2 0x2DE3 DUP6 DUP3 DUP7 ADD PUSH2 0x29EA JUMP JUMPDEST SWAP3 POP POP PUSH1 0x20 DUP4 ADD CALLDATALOAD PUSH8 0xFFFFFFFFFFFFFFFF DUP2 GT ISZERO PUSH2 0x2E04 JUMPI PUSH2 0x2E03 PUSH2 0x2841 JUMP JUMPDEST JUMPDEST PUSH2 0x2E10 DUP6 DUP3 DUP7 ADD PUSH2 0x2C8A JUMP JUMPDEST SWAP2 POP POP SWAP3 POP SWAP3 SWAP1 POP JUMP JUMPDEST PUSH1 0x0 PUSH1 0x20 DUP3 ADD SWAP1 POP PUSH2 0x2E2F PUSH1 0x0 DUP4 ADD DUP5 PUSH2 0x2A2C JUMP JUMPDEST SWAP3 SWAP2 POP POP JUMP JUMPDEST PUSH1 0x0 PUSH2 0x100 DUP3 ADD SWAP1 POP PUSH2 0x2E4B PUSH1 0x0 DUP4 ADD DUP12 PUSH2 0x2961 JUMP JUMPDEST PUSH2 0x2E58 PUSH1 0x20 DUP4 ADD DUP11 PUSH2 0x2961 JUMP JUMPDEST DUP2 DUP2 SUB PUSH1 0x40 DUP4 ADD MSTORE PUSH2 0x2E6A DUP2 DUP10 PUSH2 0x2928 JUMP JUMPDEST SWAP1 POP DUP2 DUP2 SUB PUSH1 0x60 DUP4 ADD MSTORE PUSH2 0x2E7E DUP2 DUP9 PUSH2 0x2928 JUMP JUMPDEST SWAP1 POP PUSH2 0x2E8D PUSH1 0x80 DUP4 ADD DUP8 PUSH2 0x2A2C JUMP JUMPDEST PUSH2 0x2E9A PUSH1 0xA0 DUP4 ADD DUP7 PUSH2 0x2A2C JUMP JUMPDEST PUSH2 0x2EA7 PUSH1 0xC0 DUP4 ADD DUP6 PUSH2 0x297C JUMP JUMPDEST PUSH2 0x2EB4 PUSH1 0xE0 DUP4 ADD DUP5 PUSH2 0x297C JUMP JUMPDEST SWAP10 SWAP9 POP POP POP POP POP POP POP POP POP JUMP JUMPDEST PUSH1 0x0 PUSH1 0x60 DUP3 ADD SWAP1 POP PUSH2 0x2ED6 PUSH1 0x0 DUP4 ADD DUP7 PUSH2 0x2A2C JUMP JUMPDEST PUSH2 0x2EE3 PUSH1 0x20 DUP4 ADD DUP6 PUSH2 0x2961 JUMP JUMPDEST DUP2 DUP2 SUB PUSH1 0x40 DUP4 ADD MSTORE PUSH2 0x2EF5 DUP2 DUP5 PUSH2 0x2928 JUMP JUMPDEST SWAP1 POP SWAP5 SWAP4 POP POP POP POP JUMP JUMPDEST PUSH1 0x0 DUP1 PUSH1 0x40 DUP4 DUP6 SUB SLT ISZERO PUSH2 0x2F16 JUMPI PUSH2 0x2F15 PUSH2 0x283C JUMP JUMPDEST JUMPDEST PUSH1 0x0 DUP4 ADD CALLDATALOAD PUSH8 0xFFFFFFFFFFFFFFFF DUP2 GT ISZERO PUSH2 0x2F34 JUMPI PUSH2 0x2F33 PUSH2 0x2841 JUMP JUMPDEST JUMPDEST PUSH2 0x2F40 DUP6 DUP3 DUP7 ADD PUSH2 0x2C8A JUMP JUMPDEST SWAP3 POP POP PUSH1 0x20 DUP4 ADD CALLDATALOAD PUSH8 0xFFFFFFFFFFFFFFFF DUP2 GT ISZERO PUSH2 0x2F61 JUMPI PUSH2 0x2F60 PUSH2 0x2841 JUMP JUMPDEST JUMPDEST PUSH2 0x2F6D DUP6 DUP3 DUP7 ADD PUSH2 0x2C8A JUMP JUMPDEST SWAP2 POP POP SWAP3 POP SWAP3 SWAP1 POP JUMP JUMPDEST PUSH1 0x0 PUSH1 0x80 DUP3 ADD SWAP1 POP PUSH2 0x2F8C PUSH1 0x0 DUP4 ADD DUP8 PUSH2 0x2A2C JUMP JUMPDEST PUSH2 0x2F99 PUSH1 0x20 DUP4 ADD DUP7 PUSH2 0x2961 JUMP JUMPDEST DUP2 DUP2 SUB PUSH1 0x40 DUP4 ADD MSTORE PUSH2 0x2FAB DUP2 DUP6 PUSH2 0x2928 JUMP JUMPDEST SWAP1 POP PUSH2 0x2FBA PUSH1 0x60 DUP4 ADD DUP5 PUSH2 0x2961 JUMP JUMPDEST SWAP6 SWAP5 POP POP POP POP POP JUMP JUMPDEST PUSH1 0x0 DUP1 PUSH1 0x0 DUP1 PUSH1 0x0 PUSH1 0xA0 DUP7 DUP9 SUB SLT ISZERO PUSH2 0x2FDF JUMPI PUSH2 0x2FDE PUSH2 0x283C JUMP JUMPDEST JUMPDEST PUSH1 0x0 PUSH2 0x2FED DUP9 DUP3 DUP10 ADD PUSH2 0x288F JUMP JUMPDEST SWAP6 POP POP PUSH1 0x20 DUP7 ADD CALLDATALOAD PUSH8 0xFFFFFFFFFFFFFFFF DUP2 GT ISZERO PUSH2 0x300E JUMPI PUSH2 0x300D PUSH2 0x2841 JUMP JUMPDEST JUMPDEST PUSH2 0x301A DUP9 DUP3 DUP10 ADD PUSH2 0x2C8A JUMP JUMPDEST SWAP5 POP POP PUSH1 0x40 DUP7 ADD CALLDATALOAD PUSH8 0xFFFFFFFFFFFFFFFF DUP2 GT ISZERO PUSH2 0x303B JUMPI PUSH2 0x303A PUSH2 0x2841 JUMP JUMPDEST JUMPDEST PUSH2 0x3047 DUP9 DUP3 DUP10 ADD PUSH2 0x2C8A JUMP JUMPDEST SWAP4 POP POP PUSH1 0x60 PUSH2 0x3058 DUP9 DUP3 DUP10 ADD PUSH2 0x29EA JUMP JUMPDEST SWAP3 POP POP PUSH1 0x80 PUSH2 0x3069 DUP9 DUP3 DUP10 ADD PUSH2 0x29EA JUMP JUMPDEST SWAP2 POP POP SWAP3 SWAP6 POP SWAP3 SWAP6 SWAP1 SWAP4 POP JUMP JUMPDEST PUSH1 0x0 DUP1 PUSH1 0x0 PUSH1 0x60 DUP5 DUP7 SUB SLT ISZERO PUSH2 0x308F JUMPI PUSH2 0x308E PUSH2 0x283C JUMP JUMPDEST JUMPDEST PUSH1 0x0 PUSH2 0x309D DUP7 DUP3 DUP8 ADD PUSH2 0x29EA JUMP JUMPDEST SWAP4 POP POP PUSH1 0x20 PUSH2 0x30AE DUP7 DUP3 DUP8 ADD PUSH2 0x2AD4 JUMP JUMPDEST SWAP3 POP POP PUSH1 0x40 DUP5 ADD CALLDATALOAD PUSH8 0xFFFFFFFFFFFFFFFF DUP2 GT ISZERO PUSH2 0x30CF JUMPI PUSH2 0x30CE PUSH2 0x2841 JUMP JUMPDEST JUMPDEST PUSH2 0x30DB DUP7 DUP3 DUP8 ADD PUSH2 0x2C8A JUMP JUMPDEST SWAP2 POP POP SWAP3 POP SWAP3 POP SWAP3 JUMP JUMPDEST PUSH32 0x4E487B7100000000000000000000000000000000000000000000000000000000 PUSH1 0x0 MSTORE PUSH1 0x22 PUSH1 0x4 MSTORE PUSH1 0x24 PUSH1 0x0 REVERT JUMPDEST PUSH1 0x0 PUSH1 0x2 DUP3 DIV SWAP1 POP PUSH1 0x1 DUP3 AND DUP1 PUSH2 0x312C JUMPI PUSH1 0x7F DUP3 AND SWAP2 POP JUMPDEST PUSH1 0x20 DUP3 LT DUP2 SUB PUSH2 0x313F JUMPI PUSH2 0x313E PUSH2 0x30E5 JUMP JUMPDEST JUMPDEST POP SWAP2 SWAP1 POP JUMP JUMPDEST PUSH32 0x436F6E7472616374206973206E6F742076616C69640000000000000000000000 PUSH1 0x0 DUP3 ADD MSTORE POP JUMP JUMPDEST PUSH1 0x0 PUSH2 0x317B PUSH1 0x15 DUP4 PUSH2 0x28DC JUMP JUMPDEST SWAP2 POP PUSH2 0x3186 DUP3 PUSH2 0x3145 JUMP JUMPDEST PUSH1 0x20 DUP3 ADD SWAP1 POP SWAP2 SWAP1 POP JUMP JUMPDEST PUSH1 0x0 PUSH1 0x20 DUP3 ADD SWAP1 POP DUP2 DUP2 SUB PUSH1 0x0 DUP4 ADD MSTORE PUSH2 0x31AA DUP2 PUSH2 0x316E JUMP JUMPDEST SWAP1 POP SWAP2 SWAP1 POP JUMP JUMPDEST PUSH32 0x55736572206E6F7420617574686F72697A656400000000000000000000000000 PUSH1 0x0 DUP3 ADD MSTORE POP JUMP JUMPDEST PUSH1 0x0 PUSH2 0x31E7 PUSH1 0x13 DUP4 PUSH2 0x28DC JUMP JUMPDEST SWAP2 POP PUSH2 0x31F2 DUP3 PUSH2 0x31B1 JUMP JUMPDEST PUSH1 0x20 DUP3 ADD SWAP1 POP SWAP2 SWAP1 POP JUMP JUMPDEST PUSH1 0x0 PUSH1 0x20 DUP3 ADD SWAP1 POP DUP2 DUP2 SUB PUSH1 0x0 DUP4 ADD MSTORE PUSH2 0x3216 DUP2 PUSH2 0x31DA JUMP JUMPDEST SWAP1 POP SWAP2 SWAP1 POP JUMP JUMPDEST PUSH32 0x5573657220697320616C72656164792072656769737465726564000000000000 PUSH1 0x0 DUP3 ADD MSTORE POP JUMP JUMPDEST PUSH1 0x0 PUSH2 0x3253 PUSH1 0x1A DUP4 PUSH2 0x28DC JUMP JUMPDEST SWAP2 POP PUSH2 0x325E DUP3 PUSH2 0x321D JUMP JUMPDEST PUSH1 0x20 DUP3 ADD SWAP1 POP SWAP2 SWAP1 POP JUMP JUMPDEST PUSH1 0x0 PUSH1 0x20 DUP3 ADD SWAP1 POP DUP2 DUP2 SUB PUSH1 0x0 DUP4 ADD MSTORE PUSH2 0x3282 DUP2 PUSH2 0x3246 JUMP JUMPDEST SWAP1 POP SWAP2 SWAP1 POP JUMP JUMPDEST PUSH1 0x0 DUP2 SWAP1 POP DUP2 PUSH1 0x0 MSTORE PUSH1 0x20 PUSH1 0x0 KECCAK256 SWAP1 POP SWAP2 SWAP1 POP JUMP JUMPDEST PUSH1 0x0 PUSH1 0x20 PUSH1 0x1F DUP4 ADD DIV SWAP1 POP SWAP2 SWAP1 POP JUMP JUMPDEST PUSH1 0x0 DUP3 DUP3 SHL SWAP1 POP SWAP3 SWAP2 POP POP JUMP JUMPDEST PUSH1 0x0 PUSH1 0x8 DUP4 MUL PUSH2 0x32EB PUSH32 0xFFFFFFFFFFFFFFFFFFFFFFFFFFFFFFFFFFFFFFFFFFFFFFFFFFFFFFFFFFFFFFFF DUP3 PUSH2 0x32AE JUMP JUMPDEST PUSH2 0x32F5 DUP7 DUP4 PUSH2 0x32AE JUMP JUMPDEST SWAP6 POP DUP1 NOT DUP5 AND SWAP4 POP DUP1 DUP7 AND DUP5 OR SWAP3 POP POP POP SWAP4 SWAP3 POP POP POP JUMP JUMPDEST PUSH1 0x0 DUP2 SWAP1 POP SWAP2 SWAP1 POP JUMP JUMPDEST PUSH1 0x0 PUSH2 0x3332 PUSH2 0x332D PUSH2 0x3328 DUP5 PUSH2 0x29C9 JUMP JUMPDEST PUSH2 0x330D JUMP JUMPDEST PUSH2 0x29C9 JUMP JUMPDEST SWAP1 POP SWAP2 SWAP1 POP JUMP JUMPDEST PUSH1 0x0 DUP2 SWAP1 POP SWAP2 SWAP1 POP JUMP JUMPDEST PUSH2 0x334C DUP4 PUSH2 0x3317 JUMP JUMPDEST PUSH2 0x3360 PUSH2 0x3358 DUP3 PUSH2 0x3339 JUMP JUMPDEST DUP5 DUP5 SLOAD PUSH2 0x32BB JUMP JUMPDEST DUP3 SSTORE POP POP POP POP JUMP JUMPDEST PUSH1 0x0 SWAP1 JUMP JUMPDEST PUSH2 0x3375 PUSH2 0x3368 JUMP JUMPDEST PUSH2 0x3380 DUP2 DUP5 DUP5 PUSH2 0x3343 JUMP JUMPDEST POP POP POP JUMP JUMPDEST JUMPDEST DUP2 DUP2 LT ISZERO PUSH2 0x33A4 JUMPI PUSH2 0x3399 PUSH1 0x0 DUP3 PUSH2 0x336D JUMP JUMPDEST PUSH1 0x1 DUP2 ADD SWAP1 POP PUSH2 0x3386 JUMP JUMPDEST POP POP JUMP JUMPDEST PUSH1 0x1F DUP3 GT ISZERO PUSH2 0x33E9 JUMPI PUSH2 0x33BA DUP2 PUSH2 0x3289 JUMP JUMPDEST PUSH2 0x33C3 DUP5 PUSH2 0x329E JUMP JUMPDEST DUP2 ADD PUSH1 0x20 DUP6 LT ISZERO PUSH2 0x33D2 JUMPI DUP2 SWAP1 POP JUMPDEST PUSH2 0x33E6 PUSH2 0x33DE DUP6 PUSH2 0x329E JUMP JUMPDEST DUP4 ADD DUP3 PUSH2 0x3385 JUMP JUMPDEST POP POP JUMPDEST POP POP POP JUMP JUMPDEST PUSH1 0x0 DUP3 DUP3 SHR SWAP1 POP SWAP3 SWAP2 POP POP JUMP JUMPDEST PUSH1 0x0 PUSH2 0x340C PUSH1 0x0 NOT DUP5 PUSH1 0x8 MUL PUSH2 0x33EE JUMP JUMPDEST NOT DUP1 DUP4 AND SWAP2 POP POP SWAP3 SWAP2 POP POP JUMP JUMPDEST PUSH1 0x0 PUSH2 0x3425 DUP4 DUP4 PUSH2 0x33FB JUMP JUMPDEST SWAP2 POP DUP3 PUSH1 0x2 MUL DUP3 OR SWAP1 POP SWAP3 SWAP2 POP POP JUMP JUMPDEST PUSH2 0x343E DUP3 PUSH2 0x28D1 JUMP JUMPDEST PUSH8 0xFFFFFFFFFFFFFFFF DUP2 GT ISZERO PUSH2 0x3457 JUMPI PUSH2 0x3456 PUSH2 0x2B8D JUMP JUMPDEST JUMPDEST PUSH2 0x3461 DUP3 SLOAD PUSH2 0x3114 JUMP JUMPDEST PUSH2 0x346C DUP3 DUP3 DUP6 PUSH2 0x33A8 JUMP JUMPDEST PUSH1 0x0 PUSH1 0x20 SWAP1 POP PUSH1 0x1F DUP4 GT PUSH1 0x1 DUP2 EQ PUSH2 0x349F JUMPI PUSH1 0x0 DUP5 ISZERO PUSH2 0x348D JUMPI DUP3 DUP8 ADD MLOAD SWAP1 POP JUMPDEST PUSH2 0x3497 DUP6 DUP3 PUSH2 0x3419 JUMP JUMPDEST DUP7 SSTORE POP PUSH2 0x34FF JUMP JUMPDEST PUSH1 0x1F NOT DUP5 AND PUSH2 0x34AD DUP7 PUSH2 0x3289 JUMP JUMPDEST PUSH1 0x0 JUMPDEST DUP3 DUP2 LT ISZERO PUSH2 0x34D5 JUMPI DUP5 DUP10 ADD MLOAD DUP3 SSTORE PUSH1 0x1 DUP3 ADD SWAP2 POP PUSH1 0x20 DUP6 ADD SWAP5 POP PUSH1 0x20 DUP2 ADD SWAP1 POP PUSH2 0x34B0 JUMP JUMPDEST DUP7 DUP4 LT ISZERO PUSH2 0x34F2 JUMPI DUP5 DUP10 ADD MLOAD PUSH2 0x34EE PUSH1 0x1F DUP10 AND DUP3 PUSH2 0x33FB JUMP JUMPDEST DUP4 SSTORE POP JUMPDEST PUSH1 0x1 PUSH1 0x2 DUP9 MUL ADD DUP9 SSTORE POP POP POP JUMPDEST POP POP POP POP POP POP JUMP JUMPDEST PUSH32 0x4F6E6C79207468652074656E616E74206F722070726F7065727479206F776E65 PUSH1 0x0 DUP3 ADD MSTORE PUSH32 0x722063616E2066696C65206120636F6D706C61696E7400000000000000000000 PUSH1 0x20 DUP3 ADD MSTORE POP JUMP JUMPDEST PUSH1 0x0 PUSH2 0x3563 PUSH1 0x36 DUP4 PUSH2 0x28DC JUMP JUMPDEST SWAP2 POP PUSH2 0x356E DUP3 PUSH2 0x3507 JUMP JUMPDEST PUSH1 0x40 DUP3 ADD SWAP1 POP SWAP2 SWAP1 POP JUMP JUMPDEST PUSH1 0x0 PUSH1 0x20 DUP3 ADD SWAP1 POP DUP2 DUP2 SUB PUSH1 0x0 DUP4 ADD MSTORE PUSH2 0x3592 DUP2 PUSH2 0x3556 JUMP JUMPDEST SWAP1 POP SWAP2 SWAP1 POP JUMP JUMPDEST PUSH1 0x0 DUP2 SWAP1 POP SWAP3 SWAP2 POP POP JUMP JUMPDEST PUSH1 0x0 PUSH2 0x35AF DUP3 PUSH2 0x28D1 JUMP JUMPDEST PUSH2 0x35B9 DUP2 DUP6 PUSH2 0x3599 JUMP JUMPDEST SWAP4 POP PUSH2 0x35C9 DUP2 DUP6 PUSH1 0x20 DUP7 ADD PUSH2 0x28ED JUMP JUMPDEST DUP1 DUP5 ADD SWAP2 POP POP SWAP3 SWAP2 POP POP JUMP JUMPDEST PUSH1 0x0 PUSH2 0x35E1 DUP3 DUP5 PUSH2 0x35A4 JUMP JUMPDEST SWAP2 POP DUP2 SWAP1 POP SWAP3 SWAP2 POP POP JUMP JUMPDEST PUSH32 0x55736572206E6F7420666F756E64000000000000000000000000000000000000 PUSH1 0x0 DUP3 ADD MSTORE POP JUMP JUMPDEST PUSH1 0x0 PUSH2 0x3622 PUSH1 0xE DUP4 PUSH2 0x28DC JUMP JUMPDEST SWAP2 POP PUSH2 0x362D DUP3 PUSH2 0x35EC JUMP JUMPDEST PUSH1 0x20 DUP3 ADD SWAP1 POP SWAP2 SWAP1 POP JUMP JUMPDEST PUSH1 0x0 PUSH1 0x20 DUP3 ADD SWAP1 POP DUP2 DUP2 SUB PUSH1 0x0 DUP4 ADD MSTORE PUSH2 0x3651 DUP2 PUSH2 0x3615 JUMP JUMPDEST SWAP1 POP SWAP2 SWAP1 POP JUMP JUMPDEST PUSH32 0x54656E616E74732063616E2774206164642070726F7065727469657300000000 PUSH1 0x0 DUP3 ADD MSTORE POP JUMP JUMPDEST PUSH1 0x0 PUSH2 0x368E PUSH1 0x1C DUP4 PUSH2 0x28DC JUMP JUMPDEST SWAP2 POP PUSH2 0x3699 DUP3 PUSH2 0x3658 JUMP JUMPDEST PUSH1 0x20 DUP3 ADD SWAP1 POP SWAP2 SWAP1 POP JUMP JUMPDEST PUSH1 0x0 PUSH1 0x20 DUP3 ADD SWAP1 POP DUP2 DUP2 SUB PUSH1 0x0 DUP4 ADD MSTORE PUSH2 0x36BD DUP2 PUSH2 0x3681 JUMP JUMPDEST SWAP1 POP SWAP2 SWAP1 POP JUMP JUMPDEST PUSH32 0x50726F706572747920616C726561647920657869737473000000000000000000 PUSH1 0x0 DUP3 ADD MSTORE POP JUMP JUMPDEST PUSH1 0x0 PUSH2 0x36FA PUSH1 0x17 DUP4 PUSH2 0x28DC JUMP JUMPDEST SWAP2 POP PUSH2 0x3705 DUP3 PUSH2 0x36C4 JUMP JUMPDEST PUSH1 0x20 DUP3 ADD SWAP1 POP SWAP2 SWAP1 POP JUMP JUMPDEST PUSH1 0x0 PUSH1 0x20 DUP3 ADD SWAP1 POP DUP2 DUP2 SUB PUSH1 0x0 DUP4 ADD MSTORE PUSH2 0x3729 DUP2 PUSH2 0x36ED JUMP JUMPDEST SWAP1 POP SWAP2 SWAP1 POP JUMP JUMPDEST PUSH32 0x54656E616E74732063616E6E6F7420696E697469617465206120636F6E747261 PUSH1 0x0 DUP3 ADD MSTORE PUSH32 0x6374000000000000000000000000000000000000000000000000000000000000 PUSH1 0x20 DUP3 ADD MSTORE POP JUMP JUMPDEST PUSH1 0x0 PUSH2 0x378C PUSH1 0x22 DUP4 PUSH2 0x28DC JUMP JUMPDEST SWAP2 POP PUSH2 0x3797 DUP3 PUSH2 0x3730 JUMP JUMPDEST PUSH1 0x40 DUP3 ADD SWAP1 POP SWAP2 SWAP1 POP JUMP JUMPDEST PUSH1 0x0 PUSH1 0x20 DUP3 ADD SWAP1 POP DUP2 DUP2 SUB PUSH1 0x0 DUP4 ADD MSTORE PUSH2 0x37BB DUP2 PUSH2 0x377F JUMP JUMPDEST SWAP1 POP SWAP2 SWAP1 POP JUMP JUMPDEST PUSH32 0x50726F7065727479206E6F7420666F756E640000000000000000000000000000 PUSH1 0x0 DUP3 ADD MSTORE POP JUMP JUMPDEST PUSH1 0x0 PUSH2 0x37F8 PUSH1 0x12 DUP4 PUSH2 0x28DC JUMP JUMPDEST SWAP2 POP PUSH2 0x3803 DUP3 PUSH2 0x37C2 JUMP JUMPDEST PUSH1 0x20 DUP3 ADD SWAP1 POP SWAP2 SWAP1 POP JUMP JUMPDEST PUSH1 0x0 PUSH1 0x20 DUP3 ADD SWAP1 POP DUP2 DUP2 SUB PUSH1 0x0 DUP4 ADD MSTORE PUSH2 0x3827 DUP2 PUSH2 0x37EB JUMP JUMPDEST SWAP1 POP SWAP2 SWAP1 POP JUMP JUMPDEST PUSH1 0x0 DUP2 PUSH1 0x60 SHL SWAP1 POP SWAP2 SWAP1 POP JUMP JUMPDEST PUSH1 0x0 PUSH2 0x3846 DUP3 PUSH2 0x382E JUMP JUMPDEST SWAP1 POP SWAP2 SWAP1 POP JUMP JUMPDEST PUSH1 0x0 PUSH2 0x3858 DUP3 PUSH2 0x383B JUMP JUMPDEST SWAP1 POP SWAP2 SWAP1 POP JUMP JUMPDEST PUSH2 0x3870 PUSH2 0x386B DUP3 PUSH2 0x2866 JUMP JUMPDEST PUSH2 0x384D JUMP JUMPDEST DUP3 MSTORE POP POP JUMP JUMPDEST PUSH1 0x0 DUP2 SWAP1 POP SWAP2 SWAP1 POP JUMP JUMPDEST PUSH2 0x3891 PUSH2 0x388C DUP3 PUSH2 0x29C9 JUMP JUMPDEST PUSH2 0x3876 JUMP JUMPDEST DUP3 MSTORE POP POP JUMP JUMPDEST PUSH1 0x0 PUSH2 0x38A3 DUP3 DUP8 PUSH2 0x385F JUMP JUMPDEST PUSH1 0x14 DUP3 ADD SWAP2 POP PUSH2 0x38B3 DUP3 DUP7 PUSH2 0x35A4 JUMP JUMPDEST SWAP2 POP PUSH2 0x38BF DUP3 DUP6 PUSH2 0x3880 JUMP JUMPDEST PUSH1 0x20 DUP3 ADD SWAP2 POP PUSH2 0x38CF DUP3 DUP5 PUSH2 0x3880 JUMP JUMPDEST PUSH1 0x20 DUP3 ADD SWAP2 POP DUP2 SWAP1 POP SWAP6 SWAP5 POP POP POP POP POP JUMP JUMPDEST PUSH32 0x596F752068617665206E6F20617574686F726974792E00000000000000000000 PUSH1 0x0 DUP3 ADD MSTORE POP JUMP JUMPDEST PUSH1 0x0 PUSH2 0x3917 PUSH1 0x16 DUP4 PUSH2 0x28DC JUMP JUMPDEST SWAP2 POP PUSH2 0x3922 DUP3 PUSH2 0x38E1 JUMP JUMPDEST PUSH1 0x20 DUP3 ADD SWAP1 POP SWAP2 SWAP1 POP JUMP JUMPDEST PUSH1 0x0 PUSH1 0x20 DUP3 ADD SWAP1 POP DUP2 DUP2 SUB PUSH1 0x0 DUP4 ADD MSTORE PUSH2 0x3946 DUP2 PUSH2 0x390A JUMP JUMPDEST SWAP1 POP SWAP2 SWAP1 POP JUMP JUMPDEST PUSH32 0x4E487B7100000000000000000000000000000000000000000000000000000000 PUSH1 0x0 MSTORE PUSH1 0x11 PUSH1 0x4 MSTORE PUSH1 0x24 PUSH1 0x0 REVERT JUMPDEST PUSH1 0x0 PUSH2 0x3987 DUP3 PUSH2 0x29C9 JUMP JUMPDEST SWAP2 POP PUSH2 0x3992 DUP4 PUSH2 0x29C9 JUMP JUMPDEST SWAP3 POP DUP3 DUP3 ADD SWAP1 POP DUP1 DUP3 GT ISZERO PUSH2 0x39AA JUMPI PUSH2 0x39A9 PUSH2 0x394D JUMP JUMPDEST JUMPDEST SWAP3 SWAP2 POP POP JUMP JUMPDEST PUSH32 0x4E6F742031352064617973206265666F72652074686520636F6E747261637420 PUSH1 0x0 DUP3 ADD MSTORE PUSH32 0x656E642064617465000000000000000000000000000000000000000000000000 PUSH1 0x20 DUP3 ADD MSTORE POP JUMP JUMPDEST PUSH1 0x0 PUSH2 0x3A0C PUSH1 0x28 DUP4 PUSH2 0x28DC JUMP JUMPDEST SWAP2 POP PUSH2 0x3A17 DUP3 PUSH2 0x39B0 JUMP JUMPDEST PUSH1 0x40 DUP3 ADD SWAP1 POP SWAP2 SWAP1 POP JUMP JUMPDEST PUSH1 0x0 PUSH1 0x20 DUP3 ADD SWAP1 POP DUP2 DUP2 SUB PUSH1 0x0 DUP4 ADD MSTORE PUSH2 0x3A3B DUP2 PUSH2 0x39FF JUMP JUMPDEST SWAP1 POP SWAP2 SWAP1 POP JUMP INVALID LOG2 PUSH5 0x6970667358 0x22 SLT KECCAK256 SLOAD 0xC9 0xE5 SWAP3 PUSH19 0xF167D594AA2149528A3B38B4F94C6FD755D485 0xD3 0xDF PUSH26 0x83520B4B664736F6C6343000812003300000000000000000000 "
				},
				"gasEstimates": {
					"creation": {
						"codeDepositCost": "2993600",
						"executionCost": "27552",
						"totalCost": "3021152"
					},
					"external": {
						"ContractAdmin()": "2601",
						"addProperty(string,string)": "infinite",
						"blackList(address)": "2913",
						"complainUser(uint256,string)": "infinite",
						"complainUserManage(uint256,bool)": "31729",
						"contractComplainReasons(uint256)": "infinite",
						"contractInformations(uint256)": "infinite",
						"contractStart(address,string,string,uint256,uint256)": "infinite",
						"contractTerminate(uint256,bool,string)": "infinite",
						"contractTerminateManage(uint256,bool)": "53904",
						"contractTerminateReasons(uint256)": "infinite",
						"createUser(string,bool)": "infinite",
						"getBlackListStatus(address)": "2928",
						"getComplains(uint256)": "infinite",
						"getContractId(string)": "infinite",
						"getTerminateRequest(uint256)": "infinite",
						"propertyInformations(string)": "infinite",
						"userInformations(address)": "infinite"
					}
				},
				"methodIdentifiers": {
					"ContractAdmin()": "4e8abc87",
					"addProperty(string,string)": "e545248d",
					"blackList(address)": "4838d165",
					"complainUser(uint256,string)": "b387d778",
					"complainUserManage(uint256,bool)": "a5b5737c",
					"contractComplainReasons(uint256)": "80144bce",
					"contractInformations(uint256)": "cbd24093",
					"contractStart(address,string,string,uint256,uint256)": "eea57141",
					"contractTerminate(uint256,bool,string)": "f50d63ef",
					"contractTerminateManage(uint256,bool)": "4ef9d923",
					"contractTerminateReasons(uint256)": "e7c17d67",
					"createUser(string,bool)": "86584e27",
					"getBlackListStatus(address)": "59bf1abe",
					"getComplains(uint256)": "1925a77a",
					"getContractId(string)": "b3cf9deb",
					"getTerminateRequest(uint256)": "e40cf565",
					"propertyInformations(string)": "91e7f13a",
					"userInformations(address)": "16dd85da"
				}
			},
			"storageLayout": {
				"storage": [
					{
						"astId": 3,
						"contract": "contracts/RentContract.sol:RentMannagementSystem",
						"label": "ContractAdmin",
						"offset": 0,
						"slot": "0",
						"type": "t_address"
					},
					{
						"astId": 16,
						"contract": "contracts/RentContract.sol:RentMannagementSystem",
						"label": "blackList",
						"offset": 0,
						"slot": "1",
						"type": "t_mapping(t_address,t_bool)"
					},
					{
						"astId": 76,
						"contract": "contracts/RentContract.sol:RentMannagementSystem",
						"label": "userInformations",
						"offset": 0,
						"slot": "2",
						"type": "t_mapping(t_address,t_struct(User)23_storage)"
					},
					{
						"astId": 81,
						"contract": "contracts/RentContract.sol:RentMannagementSystem",
						"label": "propertyInformations",
						"offset": 0,
						"slot": "3",
						"type": "t_mapping(t_string_memory_ptr,t_struct(Property)34_storage)"
					},
					{
						"astId": 86,
						"contract": "contracts/RentContract.sol:RentMannagementSystem",
						"label": "contractInformations",
						"offset": 0,
						"slot": "4",
						"type": "t_mapping(t_uint256,t_struct(RentContract)51_storage)"
					},
					{
						"astId": 91,
						"contract": "contracts/RentContract.sol:RentMannagementSystem",
						"label": "contractComplainReasons",
						"offset": 0,
						"slot": "5",
						"type": "t_mapping(t_uint256,t_struct(ContractComplain)71_storage)"
					},
					{
						"astId": 96,
						"contract": "contracts/RentContract.sol:RentMannagementSystem",
						"label": "contractTerminateReasons",
						"offset": 0,
						"slot": "6",
						"type": "t_mapping(t_uint256,t_struct(ContractTerminater)60_storage)"
					}
				],
				"types": {
					"t_address": {
						"encoding": "inplace",
						"label": "address",
						"numberOfBytes": "20"
					},
					"t_bool": {
						"encoding": "inplace",
						"label": "bool",
						"numberOfBytes": "1"
					},
					"t_mapping(t_address,t_bool)": {
						"encoding": "mapping",
						"key": "t_address",
						"label": "mapping(address => bool)",
						"numberOfBytes": "32",
						"value": "t_bool"
					},
					"t_mapping(t_address,t_struct(User)23_storage)": {
						"encoding": "mapping",
						"key": "t_address",
						"label": "mapping(address => struct RentMannagementSystem.User)",
						"numberOfBytes": "32",
						"value": "t_struct(User)23_storage"
					},
					"t_mapping(t_string_memory_ptr,t_struct(Property)34_storage)": {
						"encoding": "mapping",
						"key": "t_string_memory_ptr",
						"label": "mapping(string => struct RentMannagementSystem.Property)",
						"numberOfBytes": "32",
						"value": "t_struct(Property)34_storage"
					},
					"t_mapping(t_uint256,t_struct(ContractComplain)71_storage)": {
						"encoding": "mapping",
						"key": "t_uint256",
						"label": "mapping(uint256 => struct RentMannagementSystem.ContractComplain)",
						"numberOfBytes": "32",
						"value": "t_struct(ContractComplain)71_storage"
					},
					"t_mapping(t_uint256,t_struct(ContractTerminater)60_storage)": {
						"encoding": "mapping",
						"key": "t_uint256",
						"label": "mapping(uint256 => struct RentMannagementSystem.ContractTerminater)",
						"numberOfBytes": "32",
						"value": "t_struct(ContractTerminater)60_storage"
					},
					"t_mapping(t_uint256,t_struct(RentContract)51_storage)": {
						"encoding": "mapping",
						"key": "t_uint256",
						"label": "mapping(uint256 => struct RentMannagementSystem.RentContract)",
						"numberOfBytes": "32",
						"value": "t_struct(RentContract)51_storage"
					},
					"t_string_memory_ptr": {
						"encoding": "bytes",
						"label": "string",
						"numberOfBytes": "32"
					},
					"t_string_storage": {
						"encoding": "bytes",
						"label": "string",
						"numberOfBytes": "32"
					},
					"t_struct(ContractComplain)71_storage": {
						"encoding": "inplace",
						"label": "struct RentMannagementSystem.ContractComplain",
						"members": [
							{
								"astId": 62,
								"contract": "contracts/RentContract.sol:RentMannagementSystem",
								"label": "contractID",
								"offset": 0,
								"slot": "0",
								"type": "t_uint256"
							},
							{
								"astId": 64,
								"contract": "contracts/RentContract.sol:RentMannagementSystem",
								"label": "userAddress",
								"offset": 0,
								"slot": "1",
								"type": "t_address"
							},
							{
								"astId": 66,
								"contract": "contracts/RentContract.sol:RentMannagementSystem",
								"label": "targetAddress",
								"offset": 0,
								"slot": "2",
								"type": "t_address"
							},
							{
								"astId": 68,
								"contract": "contracts/RentContract.sol:RentMannagementSystem",
								"label": "ComplainReason",
								"offset": 0,
								"slot": "3",
								"type": "t_string_storage"
							},
							{
								"astId": 70,
								"contract": "contracts/RentContract.sol:RentMannagementSystem",
								"label": "willApprove",
								"offset": 0,
								"slot": "4",
								"type": "t_address"
							}
						],
						"numberOfBytes": "160"
					},
					"t_struct(ContractTerminater)60_storage": {
						"encoding": "inplace",
						"label": "struct RentMannagementSystem.ContractTerminater",
						"members": [
							{
								"astId": 53,
								"contract": "contracts/RentContract.sol:RentMannagementSystem",
								"label": "contractID",
								"offset": 0,
								"slot": "0",
								"type": "t_uint256"
							},
							{
								"astId": 55,
								"contract": "contracts/RentContract.sol:RentMannagementSystem",
								"label": "userAddress",
								"offset": 0,
								"slot": "1",
								"type": "t_address"
							},
							{
								"astId": 57,
								"contract": "contracts/RentContract.sol:RentMannagementSystem",
								"label": "TerminationReason",
								"offset": 0,
								"slot": "2",
								"type": "t_string_storage"
							},
							{
								"astId": 59,
								"contract": "contracts/RentContract.sol:RentMannagementSystem",
								"label": "willApprove",
								"offset": 0,
								"slot": "3",
								"type": "t_address"
							}
						],
						"numberOfBytes": "128"
					},
					"t_struct(Property)34_storage": {
						"encoding": "inplace",
						"label": "struct RentMannagementSystem.Property",
						"members": [
							{
								"astId": 25,
								"contract": "contracts/RentContract.sol:RentMannagementSystem",
								"label": "ownerAddress",
								"offset": 0,
								"slot": "0",
								"type": "t_address"
							},
							{
								"astId": 27,
								"contract": "contracts/RentContract.sol:RentMannagementSystem",
								"label": "propertyAddress",
								"offset": 0,
								"slot": "1",
								"type": "t_string_storage"
							},
							{
								"astId": 29,
								"contract": "contracts/RentContract.sol:RentMannagementSystem",
								"label": "propertyType",
								"offset": 0,
								"slot": "2",
								"type": "t_string_storage"
							},
							{
								"astId": 31,
								"contract": "contracts/RentContract.sol:RentMannagementSystem",
								"label": "contractValidityStatus",
								"offset": 0,
								"slot": "3",
								"type": "t_bool"
							},
							{
								"astId": 33,
								"contract": "contracts/RentContract.sol:RentMannagementSystem",
								"label": "contractID",
								"offset": 0,
								"slot": "4",
								"type": "t_uint256"
							}
						],
						"numberOfBytes": "160"
					},
					"t_struct(RentContract)51_storage": {
						"encoding": "inplace",
						"label": "struct RentMannagementSystem.RentContract",
						"members": [
							{
								"astId": 36,
								"contract": "contracts/RentContract.sol:RentMannagementSystem",
								"label": "ownerAddress",
								"offset": 0,
								"slot": "0",
								"type": "t_address"
							},
							{
								"astId": 38,
								"contract": "contracts/RentContract.sol:RentMannagementSystem",
								"label": "tenantAddress",
								"offset": 0,
								"slot": "1",
								"type": "t_address"
							},
							{
								"astId": 40,
								"contract": "contracts/RentContract.sol:RentMannagementSystem",
								"label": "propertyAddress",
								"offset": 0,
								"slot": "2",
								"type": "t_string_storage"
							},
							{
								"astId": 42,
								"contract": "contracts/RentContract.sol:RentMannagementSystem",
								"label": "propertyType",
								"offset": 0,
								"slot": "3",
								"type": "t_string_storage"
							},
							{
								"astId": 44,
								"contract": "contracts/RentContract.sol:RentMannagementSystem",
								"label": "contractStartDate",
								"offset": 0,
								"slot": "4",
								"type": "t_uint256"
							},
							{
								"astId": 46,
								"contract": "contracts/RentContract.sol:RentMannagementSystem",
								"label": "contractFinishDate",
								"offset": 0,
								"slot": "5",
								"type": "t_uint256"
							},
							{
								"astId": 48,
								"contract": "contracts/RentContract.sol:RentMannagementSystem",
								"label": "validityStatus",
								"offset": 0,
								"slot": "6",
								"type": "t_bool"
							},
							{
								"astId": 50,
								"contract": "contracts/RentContract.sol:RentMannagementSystem",
								"label": "earlyTerminate",
								"offset": 1,
								"slot": "6",
								"type": "t_bool"
							}
						],
						"numberOfBytes": "224"
					},
					"t_struct(User)23_storage": {
						"encoding": "inplace",
						"label": "struct RentMannagementSystem.User",
						"members": [
							{
								"astId": 18,
								"contract": "contracts/RentContract.sol:RentMannagementSystem",
								"label": "Name",
								"offset": 0,
								"slot": "0",
								"type": "t_string_storage"
							},
							{
								"astId": 20,
								"contract": "contracts/RentContract.sol:RentMannagementSystem",
								"label": "UserAddress",
								"offset": 0,
								"slot": "1",
								"type": "t_address"
							},
							{
								"astId": 22,
								"contract": "contracts/RentContract.sol:RentMannagementSystem",
								"label": "isOwner",
								"offset": 20,
								"slot": "1",
								"type": "t_bool"
							}
						],
						"numberOfBytes": "64"
					},
					"t_uint256": {
						"encoding": "inplace",
						"label": "uint256",
						"numberOfBytes": "32"
					}
				}
			},
			"userdoc": {
				"kind": "user",
				"methods": {},
				"version": 1
			}
		}
	}
}