{
	"contracts/RentContract.sol": {
		"RentMannagementSystem": {
			"abi": [
				{
					"inputs": [],
					"stateMutability": "nonpayable",
					"type": "constructor"
				},
				{
					"inputs": [],
					"name": "ContractAdmin",
					"outputs": [
						{
							"internalType": "address",
							"name": "",
							"type": "address"
						}
					],
					"stateMutability": "view",
					"type": "function"
				},
				{
					"inputs": [
						{
							"internalType": "string",
							"name": "_propertyAddress",
							"type": "string"
						},
						{
							"internalType": "string",
							"name": "_propertyType",
							"type": "string"
						}
					],
					"name": "addProperty",
					"outputs": [],
					"stateMutability": "nonpayable",
					"type": "function"
				},
				{
					"inputs": [
						{
							"internalType": "address",
							"name": "",
							"type": "address"
						}
					],
					"name": "blackList",
					"outputs": [
						{
							"internalType": "bool",
							"name": "",
							"type": "bool"
						}
					],
					"stateMutability": "view",
					"type": "function"
				},
				{
					"inputs": [
						{
							"internalType": "uint256",
							"name": "_contractID",
							"type": "uint256"
						},
						{
							"internalType": "string",
							"name": "_complainReason",
							"type": "string"
						}
					],
					"name": "complainUser",
					"outputs": [],
					"stateMutability": "nonpayable",
					"type": "function"
				},
				{
					"inputs": [
						{
							"internalType": "uint256",
							"name": "_contractID",
							"type": "uint256"
						},
						{
							"internalType": "bool",
							"name": "_approve",
							"type": "bool"
						}
					],
					"name": "complainUserManage",
					"outputs": [],
					"stateMutability": "nonpayable",
					"type": "function"
				},
				{
					"inputs": [
						{
							"internalType": "uint256",
							"name": "",
							"type": "uint256"
						}
					],
					"name": "contractComplainReasons",
					"outputs": [
						{
							"internalType": "uint256",
							"name": "contractID",
							"type": "uint256"
						},
						{
							"internalType": "address",
							"name": "userAddress",
							"type": "address"
						},
						{
							"internalType": "address",
							"name": "targetAddress",
							"type": "address"
						},
						{
							"internalType": "string",
							"name": "ComplainReason",
							"type": "string"
						},
						{
							"internalType": "address",
							"name": "willApprove",
							"type": "address"
						}
					],
					"stateMutability": "view",
					"type": "function"
				},
				{
					"inputs": [
						{
							"internalType": "uint256",
							"name": "",
							"type": "uint256"
						}
					],
					"name": "contractInformations",
					"outputs": [
						{
							"internalType": "address",
							"name": "ownerAddress",
							"type": "address"
						},
						{
							"internalType": "address",
							"name": "tenantAddress",
							"type": "address"
						},
						{
							"internalType": "string",
							"name": "propertyAddress",
							"type": "string"
						},
						{
							"internalType": "string",
							"name": "propertyType",
							"type": "string"
						},
						{
							"internalType": "uint256",
							"name": "contractStartDate",
							"type": "uint256"
						},
						{
							"internalType": "uint256",
							"name": "contractFinishDate",
							"type": "uint256"
						},
						{
							"internalType": "bool",
							"name": "validityStatus",
							"type": "bool"
						},
						{
							"internalType": "bool",
							"name": "earlyTerminate",
							"type": "bool"
						}
					],
					"stateMutability": "view",
					"type": "function"
				},
				{
					"inputs": [
						{
							"internalType": "address",
							"name": "_tenantAddress",
							"type": "address"
						},
						{
							"internalType": "string",
							"name": "_propertyAddress",
							"type": "string"
						},
						{
							"internalType": "string",
							"name": "_propertyType",
							"type": "string"
						},
						{
							"internalType": "uint256",
							"name": "_contractStartDate",
							"type": "uint256"
						},
						{
							"internalType": "uint256",
							"name": "_contractFinishDate",
							"type": "uint256"
						}
					],
					"name": "contractStart",
					"outputs": [],
					"stateMutability": "nonpayable",
					"type": "function"
				},
				{
					"inputs": [
						{
							"internalType": "uint256",
							"name": "_contractID",
							"type": "uint256"
						},
						{
							"internalType": "bool",
							"name": "_legitimate",
							"type": "bool"
						},
						{
							"internalType": "string",
							"name": "_reason",
							"type": "string"
						}
					],
					"name": "contractTerminate",
					"outputs": [],
					"stateMutability": "nonpayable",
					"type": "function"
				},
				{
					"inputs": [
						{
							"internalType": "uint256",
							"name": "_contractID",
							"type": "uint256"
						},
						{
							"internalType": "bool",
							"name": "_approve",
							"type": "bool"
						}
					],
					"name": "contractTerminateManage",
					"outputs": [],
					"stateMutability": "nonpayable",
					"type": "function"
				},
				{
					"inputs": [
						{
							"internalType": "uint256",
							"name": "",
							"type": "uint256"
						}
					],
					"name": "contractTerminateReasons",
					"outputs": [
						{
							"internalType": "uint256",
							"name": "contractID",
							"type": "uint256"
						},
						{
							"internalType": "address",
							"name": "userAddress",
							"type": "address"
						},
						{
							"internalType": "string",
							"name": "TerminationReason",
							"type": "string"
						},
						{
							"internalType": "address",
							"name": "willApprove",
							"type": "address"
						}
					],
					"stateMutability": "view",
					"type": "function"
				},
				{
					"inputs": [
						{
							"internalType": "string",
							"name": "_name",
							"type": "string"
						},
						{
							"internalType": "bool",
							"name": "_isOwner",
							"type": "bool"
						}
					],
					"name": "createUser",
					"outputs": [],
					"stateMutability": "nonpayable",
					"type": "function"
				},
				{
					"inputs": [
						{
							"internalType": "address",
							"name": "_userAddress",
							"type": "address"
						}
					],
					"name": "getBlackListStatus",
					"outputs": [
						{
							"internalType": "bool",
							"name": "",
							"type": "bool"
						}
					],
					"stateMutability": "view",
					"type": "function"
				},
				{
					"inputs": [
						{
							"internalType": "string",
							"name": "",
							"type": "string"
						}
					],
					"name": "propertyInformations",
					"outputs": [
						{
							"internalType": "address",
							"name": "ownerAddress",
							"type": "address"
						},
						{
							"internalType": "string",
							"name": "propertyAddress",
							"type": "string"
						},
						{
							"internalType": "string",
							"name": "propertyType",
							"type": "string"
						},
						{
							"internalType": "bool",
							"name": "contractValidityStatus",
							"type": "bool"
						}
					],
					"stateMutability": "view",
					"type": "function"
				},
				{
					"inputs": [
						{
							"internalType": "address",
							"name": "",
							"type": "address"
						}
					],
					"name": "userInformations",
					"outputs": [
						{
							"internalType": "string",
							"name": "Name",
							"type": "string"
						},
						{
							"internalType": "address",
							"name": "UserAddress",
							"type": "address"
						},
						{
							"internalType": "bool",
							"name": "isOwner",
							"type": "bool"
						}
					],
					"stateMutability": "view",
					"type": "function"
				}
			],
			"devdoc": {
				"kind": "dev",
				"methods": {},
				"version": 1
			},
			"evm": {
				"assembly": "    /* \"contracts/RentContract.sol\":66:8305  contract RentMannagementSystem {... */\n  mstore(0x40, 0x80)\n    /* \"contracts/RentContract.sol\":156:231  constructor() {... */\n  callvalue\n  dup1\n  iszero\n  tag_1\n  jumpi\n  0x00\n  dup1\n  revert\ntag_1:\n  pop\n    /* \"contracts/RentContract.sol\":196:206  msg.sender */\n  caller\n    /* \"contracts/RentContract.sol\":180:193  ContractAdmin */\n  0x00\n  dup1\n    /* \"contracts/RentContract.sol\":180:206  ContractAdmin = msg.sender */\n  0x0100\n  exp\n  dup2\n  sload\n  dup2\n  0xffffffffffffffffffffffffffffffffffffffff\n  mul\n  not\n  and\n  swap1\n  dup4\n  0xffffffffffffffffffffffffffffffffffffffff\n  and\n  mul\n  or\n  swap1\n  sstore\n  pop\n    /* \"contracts/RentContract.sol\":66:8305  contract RentMannagementSystem {... */\n  dataSize(sub_0)\n  dup1\n  dataOffset(sub_0)\n  0x00\n  codecopy\n  0x00\n  return\nstop\n\nsub_0: assembly {\n        /* \"contracts/RentContract.sol\":66:8305  contract RentMannagementSystem {... */\n      mstore(0x40, 0x80)\n      callvalue\n      dup1\n      iszero\n      tag_1\n      jumpi\n      0x00\n      dup1\n      revert\n    tag_1:\n      pop\n      jumpi(tag_2, lt(calldatasize, 0x04))\n      shr(0xe0, calldataload(0x00))\n      dup1\n      0x91e7f13a\n      gt\n      tag_18\n      jumpi\n      dup1\n      0xe545248d\n      gt\n      tag_19\n      jumpi\n      dup1\n      0xe545248d\n      eq\n      tag_14\n      jumpi\n      dup1\n      0xe7c17d67\n      eq\n      tag_15\n      jumpi\n      dup1\n      0xeea57141\n      eq\n      tag_16\n      jumpi\n      dup1\n      0xf50d63ef\n      eq\n      tag_17\n      jumpi\n      jump(tag_2)\n    tag_19:\n      dup1\n      0x91e7f13a\n      eq\n      tag_10\n      jumpi\n      dup1\n      0xa5b5737c\n      eq\n      tag_11\n      jumpi\n      dup1\n      0xb387d778\n      eq\n      tag_12\n      jumpi\n      dup1\n      0xcbd24093\n      eq\n      tag_13\n      jumpi\n      jump(tag_2)\n    tag_18:\n      dup1\n      0x4ef9d923\n      gt\n      tag_20\n      jumpi\n      dup1\n      0x4ef9d923\n      eq\n      tag_6\n      jumpi\n      dup1\n      0x59bf1abe\n      eq\n      tag_7\n      jumpi\n      dup1\n      0x80144bce\n      eq\n      tag_8\n      jumpi\n      dup1\n      0x86584e27\n      eq\n      tag_9\n      jumpi\n      jump(tag_2)\n    tag_20:\n      dup1\n      0x16dd85da\n      eq\n      tag_3\n      jumpi\n      dup1\n      0x4838d165\n      eq\n      tag_4\n      jumpi\n      dup1\n      0x4e8abc87\n      eq\n      tag_5\n      jumpi\n    tag_2:\n      0x00\n      dup1\n      revert\n        /* \"contracts/RentContract.sol\":1213:1261  mapping(address => User) public userInformations */\n    tag_3:\n      tag_21\n      0x04\n      dup1\n      calldatasize\n      sub\n      dup2\n      add\n      swap1\n      tag_22\n      swap2\n      swap1\n      tag_23\n      jump\t// in\n    tag_22:\n      tag_24\n      jump\t// in\n    tag_21:\n      mload(0x40)\n      tag_25\n      swap4\n      swap3\n      swap2\n      swap1\n      tag_26\n      jump\t// in\n    tag_25:\n      mload(0x40)\n      dup1\n      swap2\n      sub\n      swap1\n      return\n        /* \"contracts/RentContract.sol\":237:278  mapping(address => bool) public blackList */\n    tag_4:\n      tag_27\n      0x04\n      dup1\n      calldatasize\n      sub\n      dup2\n      add\n      swap1\n      tag_28\n      swap2\n      swap1\n      tag_23\n      jump\t// in\n    tag_28:\n      tag_29\n      jump\t// in\n    tag_27:\n      mload(0x40)\n      tag_30\n      swap2\n      swap1\n      tag_31\n      jump\t// in\n    tag_30:\n      mload(0x40)\n      dup1\n      swap2\n      sub\n      swap1\n      return\n        /* \"contracts/RentContract.sol\":104:132  address public ContractAdmin */\n    tag_5:\n      tag_32\n      tag_33\n      jump\t// in\n    tag_32:\n      mload(0x40)\n      tag_34\n      swap2\n      swap1\n      tag_35\n      jump\t// in\n    tag_34:\n      mload(0x40)\n      dup1\n      swap2\n      sub\n      swap1\n      return\n        /* \"contracts/RentContract.sol\":6339:6823  function contractTerminateManage(uint _contractID, bool _approve) public {... */\n    tag_6:\n      tag_36\n      0x04\n      dup1\n      calldatasize\n      sub\n      dup2\n      add\n      swap1\n      tag_37\n      swap2\n      swap1\n      tag_38\n      jump\t// in\n    tag_37:\n      tag_39\n      jump\t// in\n    tag_36:\n      stop\n        /* \"contracts/RentContract.sol\":8172:8296  function getBlackListStatus(address _userAddress) public view returns (bool) {... */\n    tag_7:\n      tag_40\n      0x04\n      dup1\n      calldatasize\n      sub\n      dup2\n      add\n      swap1\n      tag_41\n      swap2\n      swap1\n      tag_23\n      jump\t// in\n    tag_41:\n      tag_42\n      jump\t// in\n    tag_40:\n      mload(0x40)\n      tag_43\n      swap2\n      swap1\n      tag_31\n      jump\t// in\n    tag_43:\n      mload(0x40)\n      dup1\n      swap2\n      sub\n      swap1\n      return\n        /* \"contracts/RentContract.sol\":1391:1455  mapping(uint => ContractComplain) public contractComplainReasons */\n    tag_8:\n      tag_44\n      0x04\n      dup1\n      calldatasize\n      sub\n      dup2\n      add\n      swap1\n      tag_45\n      swap2\n      swap1\n      tag_46\n      jump\t// in\n    tag_45:\n      tag_47\n      jump\t// in\n    tag_44:\n      mload(0x40)\n      tag_48\n      swap6\n      swap5\n      swap4\n      swap3\n      swap2\n      swap1\n      tag_49\n      jump\t// in\n    tag_48:\n      mload(0x40)\n      dup1\n      swap2\n      sub\n      swap1\n      return\n        /* \"contracts/RentContract.sol\":1596:1915  function createUser(string memory _name, bool _isOwner) public {... */\n    tag_9:\n      tag_50\n      0x04\n      dup1\n      calldatasize\n      sub\n      dup2\n      add\n      swap1\n      tag_51\n      swap2\n      swap1\n      tag_52\n      jump\t// in\n    tag_51:\n      tag_53\n      jump\t// in\n    tag_50:\n      stop\n        /* \"contracts/RentContract.sol\":1267:1322  mapping(string => Property) public propertyInformations */\n    tag_10:\n      tag_54\n      0x04\n      dup1\n      calldatasize\n      sub\n      dup2\n      add\n      swap1\n      tag_55\n      swap2\n      swap1\n      tag_56\n      jump\t// in\n    tag_55:\n      tag_57\n      jump\t// in\n    tag_54:\n      mload(0x40)\n      tag_58\n      swap5\n      swap4\n      swap3\n      swap2\n      swap1\n      tag_59\n      jump\t// in\n    tag_58:\n      mload(0x40)\n      dup1\n      swap2\n      sub\n      swap1\n      return\n        /* \"contracts/RentContract.sol\":7753:8166  function complainUserManage(uint _contractID, bool _approve) public {... */\n    tag_11:\n      tag_60\n      0x04\n      dup1\n      calldatasize\n      sub\n      dup2\n      add\n      swap1\n      tag_61\n      swap2\n      swap1\n      tag_38\n      jump\t// in\n    tag_61:\n      tag_62\n      jump\t// in\n    tag_60:\n      stop\n        /* \"contracts/RentContract.sol\":6829:7747  function complainUser(uint _contractID, string memory _complainReason) public {... */\n    tag_12:\n      tag_63\n      0x04\n      dup1\n      calldatasize\n      sub\n      dup2\n      add\n      swap1\n      tag_64\n      swap2\n      swap1\n      tag_65\n      jump\t// in\n    tag_64:\n      tag_66\n      jump\t// in\n    tag_63:\n      stop\n        /* \"contracts/RentContract.sol\":1328:1385  mapping(uint => RentContract) public contractInformations */\n    tag_13:\n      tag_67\n      0x04\n      dup1\n      calldatasize\n      sub\n      dup2\n      add\n      swap1\n      tag_68\n      swap2\n      swap1\n      tag_46\n      jump\t// in\n    tag_68:\n      tag_69\n      jump\t// in\n    tag_67:\n      mload(0x40)\n      tag_70\n      swap9\n      swap8\n      swap7\n      swap6\n      swap5\n      swap4\n      swap3\n      swap2\n      swap1\n      tag_71\n      jump\t// in\n    tag_70:\n      mload(0x40)\n      dup1\n      swap2\n      sub\n      swap1\n      return\n        /* \"contracts/RentContract.sol\":1921:2663  function addProperty(string memory _propertyAddress, string memory _propertyType) public {... */\n    tag_14:\n      tag_72\n      0x04\n      dup1\n      calldatasize\n      sub\n      dup2\n      add\n      swap1\n      tag_73\n      swap2\n      swap1\n      tag_74\n      jump\t// in\n    tag_73:\n      tag_75\n      jump\t// in\n    tag_72:\n      stop\n        /* \"contracts/RentContract.sol\":1489:1556  mapping(uint => ContractTerminater) public contractTerminateReasons */\n    tag_15:\n      tag_76\n      0x04\n      dup1\n      calldatasize\n      sub\n      dup2\n      add\n      swap1\n      tag_77\n      swap2\n      swap1\n      tag_46\n      jump\t// in\n    tag_77:\n      tag_78\n      jump\t// in\n    tag_76:\n      mload(0x40)\n      tag_79\n      swap5\n      swap4\n      swap3\n      swap2\n      swap1\n      tag_80\n      jump\t// in\n    tag_79:\n      mload(0x40)\n      dup1\n      swap2\n      sub\n      swap1\n      return\n        /* \"contracts/RentContract.sol\":2669:3439  function contractStart(address _tenantAddress, string memory _propertyAddress, string memory _propertyType, uint _contractStartDate, uint _contractFinishDate) public {... */\n    tag_16:\n      tag_81\n      0x04\n      dup1\n      calldatasize\n      sub\n      dup2\n      add\n      swap1\n      tag_82\n      swap2\n      swap1\n      tag_83\n      jump\t// in\n    tag_82:\n      tag_84\n      jump\t// in\n    tag_81:\n      stop\n        /* \"contracts/RentContract.sol\":3445:6333  function contractTerminate(uint _contractID, bool _legitimate, string memory _reason) public {... */\n    tag_17:\n      tag_85\n      0x04\n      dup1\n      calldatasize\n      sub\n      dup2\n      add\n      swap1\n      tag_86\n      swap2\n      swap1\n      tag_87\n      jump\t// in\n    tag_86:\n      tag_88\n      jump\t// in\n    tag_85:\n      stop\n        /* \"contracts/RentContract.sol\":1213:1261  mapping(address => User) public userInformations */\n    tag_24:\n      mstore(0x20, 0x02)\n      dup1\n      0x00\n      mstore\n      keccak256(0x00, 0x40)\n      0x00\n      swap2\n      pop\n      swap1\n      pop\n      dup1\n      0x00\n      add\n      dup1\n      sload\n      tag_89\n      swap1\n      tag_90\n      jump\t// in\n    tag_89:\n      dup1\n      0x1f\n      add\n      0x20\n      dup1\n      swap2\n      div\n      mul\n      0x20\n      add\n      mload(0x40)\n      swap1\n      dup2\n      add\n      0x40\n      mstore\n      dup1\n      swap3\n      swap2\n      swap1\n      dup2\n      dup2\n      mstore\n      0x20\n      add\n      dup3\n      dup1\n      sload\n      tag_91\n      swap1\n      tag_90\n      jump\t// in\n    tag_91:\n      dup1\n      iszero\n      tag_92\n      jumpi\n      dup1\n      0x1f\n      lt\n      tag_93\n      jumpi\n      0x0100\n      dup1\n      dup4\n      sload\n      div\n      mul\n      dup4\n      mstore\n      swap2\n      0x20\n      add\n      swap2\n      jump(tag_92)\n    tag_93:\n      dup3\n      add\n      swap2\n      swap1\n      0x00\n      mstore\n      keccak256(0x00, 0x20)\n      swap1\n    tag_94:\n      dup2\n      sload\n      dup2\n      mstore\n      swap1\n      0x01\n      add\n      swap1\n      0x20\n      add\n      dup1\n      dup4\n      gt\n      tag_94\n      jumpi\n      dup3\n      swap1\n      sub\n      0x1f\n      and\n      dup3\n      add\n      swap2\n    tag_92:\n      pop\n      pop\n      pop\n      pop\n      pop\n      swap1\n      dup1\n      0x01\n      add\n      0x00\n      swap1\n      sload\n      swap1\n      0x0100\n      exp\n      swap1\n      div\n      0xffffffffffffffffffffffffffffffffffffffff\n      and\n      swap1\n      dup1\n      0x01\n      add\n      0x14\n      swap1\n      sload\n      swap1\n      0x0100\n      exp\n      swap1\n      div\n      0xff\n      and\n      swap1\n      pop\n      dup4\n      jump\t// out\n        /* \"contracts/RentContract.sol\":237:278  mapping(address => bool) public blackList */\n    tag_29:\n      mstore(0x20, 0x01)\n      dup1\n      0x00\n      mstore\n      keccak256(0x00, 0x40)\n      0x00\n      swap2\n      pop\n      sload\n      swap1\n      0x0100\n      exp\n      swap1\n      div\n      0xff\n      and\n      dup2\n      jump\t// out\n        /* \"contracts/RentContract.sol\":104:132  address public ContractAdmin */\n    tag_33:\n      0x00\n      dup1\n      sload\n      swap1\n      0x0100\n      exp\n      swap1\n      div\n      0xffffffffffffffffffffffffffffffffffffffff\n      and\n      dup2\n      jump\t// out\n        /* \"contracts/RentContract.sol\":6339:6823  function contractTerminateManage(uint _contractID, bool _approve) public {... */\n    tag_39:\n        /* \"contracts/RentContract.sol\":6482:6486  true */\n      0x01\n        /* \"contracts/RentContract.sol\":6430:6486  contractInformations[_contractID].validityStatus == true */\n      iszero\n      iszero\n        /* \"contracts/RentContract.sol\":6430:6450  contractInformations */\n      0x04\n        /* \"contracts/RentContract.sol\":6430:6463  contractInformations[_contractID] */\n      0x00\n        /* \"contracts/RentContract.sol\":6451:6462  _contractID */\n      dup5\n        /* \"contracts/RentContract.sol\":6430:6463  contractInformations[_contractID] */\n      dup2\n      mstore\n      0x20\n      add\n      swap1\n      dup2\n      mstore\n      0x20\n      add\n      0x00\n      keccak256\n        /* \"contracts/RentContract.sol\":6430:6478  contractInformations[_contractID].validityStatus */\n      0x06\n      add\n      0x00\n      swap1\n      sload\n      swap1\n      0x0100\n      exp\n      swap1\n      div\n      0xff\n      and\n        /* \"contracts/RentContract.sol\":6430:6486  contractInformations[_contractID].validityStatus == true */\n      iszero\n      iszero\n      eq\n        /* \"contracts/RentContract.sol\":6422:6512  require(contractInformations[_contractID].validityStatus == true, \"Contract is not valid\") */\n      tag_96\n      jumpi\n      mload(0x40)\n      0x08c379a000000000000000000000000000000000000000000000000000000000\n      dup2\n      mstore\n      0x04\n      add\n      tag_97\n      swap1\n      tag_98\n      jump\t// in\n    tag_97:\n      mload(0x40)\n      dup1\n      swap2\n      sub\n      swap1\n      revert\n    tag_96:\n        /* \"contracts/RentContract.sol\":6583:6593  msg.sender */\n      caller\n        /* \"contracts/RentContract.sol\":6530:6593  contractTerminateReasons[_contractID].willApprove == msg.sender */\n      0xffffffffffffffffffffffffffffffffffffffff\n      and\n        /* \"contracts/RentContract.sol\":6530:6554  contractTerminateReasons */\n      0x06\n        /* \"contracts/RentContract.sol\":6530:6567  contractTerminateReasons[_contractID] */\n      0x00\n        /* \"contracts/RentContract.sol\":6555:6566  _contractID */\n      dup5\n        /* \"contracts/RentContract.sol\":6530:6567  contractTerminateReasons[_contractID] */\n      dup2\n      mstore\n      0x20\n      add\n      swap1\n      dup2\n      mstore\n      0x20\n      add\n      0x00\n      keccak256\n        /* \"contracts/RentContract.sol\":6530:6579  contractTerminateReasons[_contractID].willApprove */\n      0x03\n      add\n      0x00\n      swap1\n      sload\n      swap1\n      0x0100\n      exp\n      swap1\n      div\n      0xffffffffffffffffffffffffffffffffffffffff\n      and\n        /* \"contracts/RentContract.sol\":6530:6593  contractTerminateReasons[_contractID].willApprove == msg.sender */\n      0xffffffffffffffffffffffffffffffffffffffff\n      and\n      eq\n        /* \"contracts/RentContract.sol\":6522:6617  require(contractTerminateReasons[_contractID].willApprove == msg.sender, \"User not authorized\") */\n      tag_99\n      jumpi\n      mload(0x40)\n      0x08c379a000000000000000000000000000000000000000000000000000000000\n      dup2\n      mstore\n      0x04\n      add\n      tag_100\n      swap1\n      tag_101\n      jump\t// in\n    tag_100:\n      mload(0x40)\n      dup1\n      swap2\n      sub\n      swap1\n      revert\n    tag_99:\n        /* \"contracts/RentContract.sol\":6643:6647  true */\n      0x01\n        /* \"contracts/RentContract.sol\":6631:6647  _approve == true */\n      iszero\n      iszero\n        /* \"contracts/RentContract.sol\":6631:6639  _approve */\n      dup2\n        /* \"contracts/RentContract.sol\":6631:6647  _approve == true */\n      iszero\n      iszero\n      sub\n        /* \"contracts/RentContract.sol\":6628:6815  if(_approve == true)... */\n      tag_102\n      jumpi\n        /* \"contracts/RentContract.sol\":6726:6730  true */\n      0x01\n        /* \"contracts/RentContract.sol\":6675:6695  contractInformations */\n      0x04\n        /* \"contracts/RentContract.sol\":6675:6708  contractInformations[_contractID] */\n      0x00\n        /* \"contracts/RentContract.sol\":6696:6707  _contractID */\n      dup5\n        /* \"contracts/RentContract.sol\":6675:6708  contractInformations[_contractID] */\n      dup2\n      mstore\n      0x20\n      add\n      swap1\n      dup2\n      mstore\n      0x20\n      add\n      0x00\n      keccak256\n        /* \"contracts/RentContract.sol\":6675:6723  contractInformations[_contractID].earlyTerminate */\n      0x06\n      add\n      0x01\n        /* \"contracts/RentContract.sol\":6675:6730  contractInformations[_contractID].earlyTerminate = true */\n      0x0100\n      exp\n      dup2\n      sload\n      dup2\n      0xff\n      mul\n      not\n      and\n      swap1\n      dup4\n      iszero\n      iszero\n      mul\n      or\n      swap1\n      sstore\n      pop\n        /* \"contracts/RentContract.sol\":6799:6804  false */\n      0x00\n        /* \"contracts/RentContract.sol\":6748:6768  contractInformations */\n      0x04\n        /* \"contracts/RentContract.sol\":6748:6781  contractInformations[_contractID] */\n      0x00\n        /* \"contracts/RentContract.sol\":6769:6780  _contractID */\n      dup5\n        /* \"contracts/RentContract.sol\":6748:6781  contractInformations[_contractID] */\n      dup2\n      mstore\n      0x20\n      add\n      swap1\n      dup2\n      mstore\n      0x20\n      add\n      0x00\n      keccak256\n        /* \"contracts/RentContract.sol\":6748:6796  contractInformations[_contractID].validityStatus */\n      0x06\n      add\n      0x00\n        /* \"contracts/RentContract.sol\":6748:6804  contractInformations[_contractID].validityStatus = false */\n      0x0100\n      exp\n      dup2\n      sload\n      dup2\n      0xff\n      mul\n      not\n      and\n      swap1\n      dup4\n      iszero\n      iszero\n      mul\n      or\n      swap1\n      sstore\n      pop\n        /* \"contracts/RentContract.sol\":6628:6815  if(_approve == true)... */\n    tag_102:\n        /* \"contracts/RentContract.sol\":6339:6823  function contractTerminateManage(uint _contractID, bool _approve) public {... */\n      pop\n      pop\n      jump\t// out\n        /* \"contracts/RentContract.sol\":8172:8296  function getBlackListStatus(address _userAddress) public view returns (bool) {... */\n    tag_42:\n        /* \"contracts/RentContract.sol\":8243:8247  bool */\n      0x00\n        /* \"contracts/RentContract.sol\":8266:8275  blackList */\n      0x01\n        /* \"contracts/RentContract.sol\":8266:8289  blackList[_userAddress] */\n      0x00\n        /* \"contracts/RentContract.sol\":8276:8288  _userAddress */\n      dup4\n        /* \"contracts/RentContract.sol\":8266:8289  blackList[_userAddress] */\n      0xffffffffffffffffffffffffffffffffffffffff\n      and\n      0xffffffffffffffffffffffffffffffffffffffff\n      and\n      dup2\n      mstore\n      0x20\n      add\n      swap1\n      dup2\n      mstore\n      0x20\n      add\n      0x00\n      keccak256\n      0x00\n      swap1\n      sload\n      swap1\n      0x0100\n      exp\n      swap1\n      div\n      0xff\n      and\n        /* \"contracts/RentContract.sol\":8259:8289  return blackList[_userAddress] */\n      swap1\n      pop\n        /* \"contracts/RentContract.sol\":8172:8296  function getBlackListStatus(address _userAddress) public view returns (bool) {... */\n      swap2\n      swap1\n      pop\n      jump\t// out\n        /* \"contracts/RentContract.sol\":1391:1455  mapping(uint => ContractComplain) public contractComplainReasons */\n    tag_47:\n      mstore(0x20, 0x05)\n      dup1\n      0x00\n      mstore\n      keccak256(0x00, 0x40)\n      0x00\n      swap2\n      pop\n      swap1\n      pop\n      dup1\n      0x00\n      add\n      sload\n      swap1\n      dup1\n      0x01\n      add\n      0x00\n      swap1\n      sload\n      swap1\n      0x0100\n      exp\n      swap1\n      div\n      0xffffffffffffffffffffffffffffffffffffffff\n      and\n      swap1\n      dup1\n      0x02\n      add\n      0x00\n      swap1\n      sload\n      swap1\n      0x0100\n      exp\n      swap1\n      div\n      0xffffffffffffffffffffffffffffffffffffffff\n      and\n      swap1\n      dup1\n      0x03\n      add\n      dup1\n      sload\n      tag_104\n      swap1\n      tag_90\n      jump\t// in\n    tag_104:\n      dup1\n      0x1f\n      add\n      0x20\n      dup1\n      swap2\n      div\n      mul\n      0x20\n      add\n      mload(0x40)\n      swap1\n      dup2\n      add\n      0x40\n      mstore\n      dup1\n      swap3\n      swap2\n      swap1\n      dup2\n      dup2\n      mstore\n      0x20\n      add\n      dup3\n      dup1\n      sload\n      tag_105\n      swap1\n      tag_90\n      jump\t// in\n    tag_105:\n      dup1\n      iszero\n      tag_106\n      jumpi\n      dup1\n      0x1f\n      lt\n      tag_107\n      jumpi\n      0x0100\n      dup1\n      dup4\n      sload\n      div\n      mul\n      dup4\n      mstore\n      swap2\n      0x20\n      add\n      swap2\n      jump(tag_106)\n    tag_107:\n      dup3\n      add\n      swap2\n      swap1\n      0x00\n      mstore\n      keccak256(0x00, 0x20)\n      swap1\n    tag_108:\n      dup2\n      sload\n      dup2\n      mstore\n      swap1\n      0x01\n      add\n      swap1\n      0x20\n      add\n      dup1\n      dup4\n      gt\n      tag_108\n      jumpi\n      dup3\n      swap1\n      sub\n      0x1f\n      and\n      dup3\n      add\n      swap2\n    tag_106:\n      pop\n      pop\n      pop\n      pop\n      pop\n      swap1\n      dup1\n      0x04\n      add\n      0x00\n      swap1\n      sload\n      swap1\n      0x0100\n      exp\n      swap1\n      div\n      0xffffffffffffffffffffffffffffffffffffffff\n      and\n      swap1\n      pop\n      dup6\n      jump\t// out\n        /* \"contracts/RentContract.sol\":1596:1915  function createUser(string memory _name, bool _isOwner) public {... */\n    tag_53:\n        /* \"contracts/RentContract.sol\":1800:1801  0 */\n      0x00\n        /* \"contracts/RentContract.sol\":1748:1802  userInformations[msg.sender].UserAddress == address(0) */\n      0xffffffffffffffffffffffffffffffffffffffff\n      and\n        /* \"contracts/RentContract.sol\":1748:1764  userInformations */\n      0x02\n        /* \"contracts/RentContract.sol\":1748:1776  userInformations[msg.sender] */\n      0x00\n        /* \"contracts/RentContract.sol\":1765:1775  msg.sender */\n      caller\n        /* \"contracts/RentContract.sol\":1748:1776  userInformations[msg.sender] */\n      0xffffffffffffffffffffffffffffffffffffffff\n      and\n      0xffffffffffffffffffffffffffffffffffffffff\n      and\n      dup2\n      mstore\n      0x20\n      add\n      swap1\n      dup2\n      mstore\n      0x20\n      add\n      0x00\n      keccak256\n        /* \"contracts/RentContract.sol\":1748:1788  userInformations[msg.sender].UserAddress */\n      0x01\n      add\n      0x00\n      swap1\n      sload\n      swap1\n      0x0100\n      exp\n      swap1\n      div\n      0xffffffffffffffffffffffffffffffffffffffff\n      and\n        /* \"contracts/RentContract.sol\":1748:1802  userInformations[msg.sender].UserAddress == address(0) */\n      0xffffffffffffffffffffffffffffffffffffffff\n      and\n      eq\n        /* \"contracts/RentContract.sol\":1740:1833  require(userInformations[msg.sender].UserAddress == address(0), \"User is already registered\") */\n      tag_110\n      jumpi\n      mload(0x40)\n      0x08c379a000000000000000000000000000000000000000000000000000000000\n      dup2\n      mstore\n      0x04\n      add\n      tag_111\n      swap1\n      tag_112\n      jump\t// in\n    tag_111:\n      mload(0x40)\n      dup1\n      swap2\n      sub\n      swap1\n      revert\n    tag_110:\n        /* \"contracts/RentContract.sol\":1875:1908  User(_name, msg.sender, _isOwner) */\n      mload(0x40)\n      dup1\n      0x60\n      add\n      0x40\n      mstore\n      dup1\n        /* \"contracts/RentContract.sol\":1880:1885  _name */\n      dup4\n        /* \"contracts/RentContract.sol\":1875:1908  User(_name, msg.sender, _isOwner) */\n      dup2\n      mstore\n      0x20\n      add\n        /* \"contracts/RentContract.sol\":1887:1897  msg.sender */\n      caller\n        /* \"contracts/RentContract.sol\":1875:1908  User(_name, msg.sender, _isOwner) */\n      0xffffffffffffffffffffffffffffffffffffffff\n      and\n      dup2\n      mstore\n      0x20\n      add\n        /* \"contracts/RentContract.sol\":1899:1907  _isOwner */\n      dup3\n        /* \"contracts/RentContract.sol\":1875:1908  User(_name, msg.sender, _isOwner) */\n      iszero\n      iszero\n      dup2\n      mstore\n      pop\n        /* \"contracts/RentContract.sol\":1844:1860  userInformations */\n      0x02\n        /* \"contracts/RentContract.sol\":1844:1872  userInformations[msg.sender] */\n      0x00\n        /* \"contracts/RentContract.sol\":1861:1871  msg.sender */\n      caller\n        /* \"contracts/RentContract.sol\":1844:1872  userInformations[msg.sender] */\n      0xffffffffffffffffffffffffffffffffffffffff\n      and\n      0xffffffffffffffffffffffffffffffffffffffff\n      and\n      dup2\n      mstore\n      0x20\n      add\n      swap1\n      dup2\n      mstore\n      0x20\n      add\n      0x00\n      keccak256\n        /* \"contracts/RentContract.sol\":1844:1908  userInformations[msg.sender] = User(_name, msg.sender, _isOwner) */\n      0x00\n      dup3\n      add\n      mload\n      dup2\n      0x00\n      add\n      swap1\n      dup2\n      tag_113\n      swap2\n      swap1\n      tag_114\n      jump\t// in\n    tag_113:\n      pop\n      0x20\n      dup3\n      add\n      mload\n      dup2\n      0x01\n      add\n      exp(0x0100, 0x00)\n      dup2\n      sload\n      dup2\n      0xffffffffffffffffffffffffffffffffffffffff\n      mul\n      not\n      and\n      swap1\n      dup4\n      0xffffffffffffffffffffffffffffffffffffffff\n      and\n      mul\n      or\n      swap1\n      sstore\n      pop\n      0x40\n      dup3\n      add\n      mload\n      dup2\n      0x01\n      add\n      exp(0x0100, 0x14)\n      dup2\n      sload\n      dup2\n      0xff\n      mul\n      not\n      and\n      swap1\n      dup4\n      iszero\n      iszero\n      mul\n      or\n      swap1\n      sstore\n      pop\n      swap1\n      pop\n      pop\n        /* \"contracts/RentContract.sol\":1596:1915  function createUser(string memory _name, bool _isOwner) public {... */\n      pop\n      pop\n      jump\t// out\n        /* \"contracts/RentContract.sol\":1267:1322  mapping(string => Property) public propertyInformations */\n    tag_57:\n      0x03\n      dup2\n      dup1\n      mload\n      0x20\n      dup2\n      add\n      dup3\n      add\n      dup1\n      mload\n      dup5\n      dup3\n      mstore\n      0x20\n      dup4\n      add\n      0x20\n      dup6\n      add\n      keccak256\n      dup2\n      dup4\n      mstore\n      dup1\n      swap6\n      pop\n      pop\n      pop\n      pop\n      pop\n      pop\n      0x00\n      swap2\n      pop\n      swap1\n      pop\n      dup1\n      0x00\n      add\n      0x00\n      swap1\n      sload\n      swap1\n      0x0100\n      exp\n      swap1\n      div\n      0xffffffffffffffffffffffffffffffffffffffff\n      and\n      swap1\n      dup1\n      0x01\n      add\n      dup1\n      sload\n      tag_115\n      swap1\n      tag_90\n      jump\t// in\n    tag_115:\n      dup1\n      0x1f\n      add\n      0x20\n      dup1\n      swap2\n      div\n      mul\n      0x20\n      add\n      mload(0x40)\n      swap1\n      dup2\n      add\n      0x40\n      mstore\n      dup1\n      swap3\n      swap2\n      swap1\n      dup2\n      dup2\n      mstore\n      0x20\n      add\n      dup3\n      dup1\n      sload\n      tag_116\n      swap1\n      tag_90\n      jump\t// in\n    tag_116:\n      dup1\n      iszero\n      tag_117\n      jumpi\n      dup1\n      0x1f\n      lt\n      tag_118\n      jumpi\n      0x0100\n      dup1\n      dup4\n      sload\n      div\n      mul\n      dup4\n      mstore\n      swap2\n      0x20\n      add\n      swap2\n      jump(tag_117)\n    tag_118:\n      dup3\n      add\n      swap2\n      swap1\n      0x00\n      mstore\n      keccak256(0x00, 0x20)\n      swap1\n    tag_119:\n      dup2\n      sload\n      dup2\n      mstore\n      swap1\n      0x01\n      add\n      swap1\n      0x20\n      add\n      dup1\n      dup4\n      gt\n      tag_119\n      jumpi\n      dup3\n      swap1\n      sub\n      0x1f\n      and\n      dup3\n      add\n      swap2\n    tag_117:\n      pop\n      pop\n      pop\n      pop\n      pop\n      swap1\n      dup1\n      0x02\n      add\n      dup1\n      sload\n      tag_120\n      swap1\n      tag_90\n      jump\t// in\n    tag_120:\n      dup1\n      0x1f\n      add\n      0x20\n      dup1\n      swap2\n      div\n      mul\n      0x20\n      add\n      mload(0x40)\n      swap1\n      dup2\n      add\n      0x40\n      mstore\n      dup1\n      swap3\n      swap2\n      swap1\n      dup2\n      dup2\n      mstore\n      0x20\n      add\n      dup3\n      dup1\n      sload\n      tag_121\n      swap1\n      tag_90\n      jump\t// in\n    tag_121:\n      dup1\n      iszero\n      tag_122\n      jumpi\n      dup1\n      0x1f\n      lt\n      tag_123\n      jumpi\n      0x0100\n      dup1\n      dup4\n      sload\n      div\n      mul\n      dup4\n      mstore\n      swap2\n      0x20\n      add\n      swap2\n      jump(tag_122)\n    tag_123:\n      dup3\n      add\n      swap2\n      swap1\n      0x00\n      mstore\n      keccak256(0x00, 0x20)\n      swap1\n    tag_124:\n      dup2\n      sload\n      dup2\n      mstore\n      swap1\n      0x01\n      add\n      swap1\n      0x20\n      add\n      dup1\n      dup4\n      gt\n      tag_124\n      jumpi\n      dup3\n      swap1\n      sub\n      0x1f\n      and\n      dup3\n      add\n      swap2\n    tag_122:\n      pop\n      pop\n      pop\n      pop\n      pop\n      swap1\n      dup1\n      0x03\n      add\n      0x00\n      swap1\n      sload\n      swap1\n      0x0100\n      exp\n      swap1\n      div\n      0xff\n      and\n      swap1\n      pop\n      dup5\n      jump\t// out\n        /* \"contracts/RentContract.sol\":7753:8166  function complainUserManage(uint _contractID, bool _approve) public {... */\n    tag_62:\n        /* \"contracts/RentContract.sol\":7891:7895  true */\n      0x01\n        /* \"contracts/RentContract.sol\":7839:7895  contractInformations[_contractID].validityStatus == true */\n      iszero\n      iszero\n        /* \"contracts/RentContract.sol\":7839:7859  contractInformations */\n      0x04\n        /* \"contracts/RentContract.sol\":7839:7872  contractInformations[_contractID] */\n      0x00\n        /* \"contracts/RentContract.sol\":7860:7871  _contractID */\n      dup5\n        /* \"contracts/RentContract.sol\":7839:7872  contractInformations[_contractID] */\n      dup2\n      mstore\n      0x20\n      add\n      swap1\n      dup2\n      mstore\n      0x20\n      add\n      0x00\n      keccak256\n        /* \"contracts/RentContract.sol\":7839:7887  contractInformations[_contractID].validityStatus */\n      0x06\n      add\n      0x00\n      swap1\n      sload\n      swap1\n      0x0100\n      exp\n      swap1\n      div\n      0xff\n      and\n        /* \"contracts/RentContract.sol\":7839:7895  contractInformations[_contractID].validityStatus == true */\n      iszero\n      iszero\n      eq\n        /* \"contracts/RentContract.sol\":7831:7921  require(contractInformations[_contractID].validityStatus == true, \"Contract is not valid\") */\n      tag_126\n      jumpi\n      mload(0x40)\n      0x08c379a000000000000000000000000000000000000000000000000000000000\n      dup2\n      mstore\n      0x04\n      add\n      tag_127\n      swap1\n      tag_98\n      jump\t// in\n    tag_127:\n      mload(0x40)\n      dup1\n      swap2\n      sub\n      swap1\n      revert\n    tag_126:\n        /* \"contracts/RentContract.sol\":7991:8001  msg.sender */\n      caller\n        /* \"contracts/RentContract.sol\":7939:8001  contractComplainReasons[_contractID].willApprove == msg.sender */\n      0xffffffffffffffffffffffffffffffffffffffff\n      and\n        /* \"contracts/RentContract.sol\":7939:7962  contractComplainReasons */\n      0x05\n        /* \"contracts/RentContract.sol\":7939:7975  contractComplainReasons[_contractID] */\n      0x00\n        /* \"contracts/RentContract.sol\":7963:7974  _contractID */\n      dup5\n        /* \"contracts/RentContract.sol\":7939:7975  contractComplainReasons[_contractID] */\n      dup2\n      mstore\n      0x20\n      add\n      swap1\n      dup2\n      mstore\n      0x20\n      add\n      0x00\n      keccak256\n        /* \"contracts/RentContract.sol\":7939:7987  contractComplainReasons[_contractID].willApprove */\n      0x04\n      add\n      0x00\n      swap1\n      sload\n      swap1\n      0x0100\n      exp\n      swap1\n      div\n      0xffffffffffffffffffffffffffffffffffffffff\n      and\n        /* \"contracts/RentContract.sol\":7939:8001  contractComplainReasons[_contractID].willApprove == msg.sender */\n      0xffffffffffffffffffffffffffffffffffffffff\n      and\n      eq\n        /* \"contracts/RentContract.sol\":7931:8025  require(contractComplainReasons[_contractID].willApprove == msg.sender, \"User not authorized\") */\n      tag_128\n      jumpi\n      mload(0x40)\n      0x08c379a000000000000000000000000000000000000000000000000000000000\n      dup2\n      mstore\n      0x04\n      add\n      tag_129\n      swap1\n      tag_101\n      jump\t// in\n    tag_129:\n      mload(0x40)\n      dup1\n      swap2\n      sub\n      swap1\n      revert\n    tag_128:\n        /* \"contracts/RentContract.sol\":8051:8055  true */\n      0x01\n        /* \"contracts/RentContract.sol\":8039:8055  _approve == true */\n      iszero\n      iszero\n        /* \"contracts/RentContract.sol\":8039:8047  _approve */\n      dup2\n        /* \"contracts/RentContract.sol\":8039:8055  _approve == true */\n      iszero\n      iszero\n      sub\n        /* \"contracts/RentContract.sol\":8036:8158  if(_approve == true)... */\n      tag_130\n      jumpi\n        /* \"contracts/RentContract.sol\":8143:8147  true */\n      0x01\n        /* \"contracts/RentContract.sol\":8079:8088  blackList */\n      dup1\n        /* \"contracts/RentContract.sol\":8079:8140  blackList[contractComplainReasons[_contractID].targetAddress] */\n      0x00\n        /* \"contracts/RentContract.sol\":8089:8112  contractComplainReasons */\n      0x05\n        /* \"contracts/RentContract.sol\":8089:8125  contractComplainReasons[_contractID] */\n      0x00\n        /* \"contracts/RentContract.sol\":8113:8124  _contractID */\n      dup7\n        /* \"contracts/RentContract.sol\":8089:8125  contractComplainReasons[_contractID] */\n      dup2\n      mstore\n      0x20\n      add\n      swap1\n      dup2\n      mstore\n      0x20\n      add\n      0x00\n      keccak256\n        /* \"contracts/RentContract.sol\":8089:8139  contractComplainReasons[_contractID].targetAddress */\n      0x02\n      add\n      0x00\n      swap1\n      sload\n      swap1\n      0x0100\n      exp\n      swap1\n      div\n      0xffffffffffffffffffffffffffffffffffffffff\n      and\n        /* \"contracts/RentContract.sol\":8079:8140  blackList[contractComplainReasons[_contractID].targetAddress] */\n      0xffffffffffffffffffffffffffffffffffffffff\n      and\n      0xffffffffffffffffffffffffffffffffffffffff\n      and\n      dup2\n      mstore\n      0x20\n      add\n      swap1\n      dup2\n      mstore\n      0x20\n      add\n      0x00\n      keccak256\n      0x00\n        /* \"contracts/RentContract.sol\":8079:8147  blackList[contractComplainReasons[_contractID].targetAddress] = true */\n      0x0100\n      exp\n      dup2\n      sload\n      dup2\n      0xff\n      mul\n      not\n      and\n      swap1\n      dup4\n      iszero\n      iszero\n      mul\n      or\n      swap1\n      sstore\n      pop\n        /* \"contracts/RentContract.sol\":8036:8158  if(_approve == true)... */\n    tag_130:\n        /* \"contracts/RentContract.sol\":7753:8166  function complainUserManage(uint _contractID, bool _approve) public {... */\n      pop\n      pop\n      jump\t// out\n        /* \"contracts/RentContract.sol\":6829:7747  function complainUser(uint _contractID, string memory _complainReason) public {... */\n    tag_66:\n        /* \"contracts/RentContract.sol\":6976:6986  msg.sender */\n      caller\n        /* \"contracts/RentContract.sol\":6925:6986  contractInformations[_contractID].tenantAddress == msg.sender */\n      0xffffffffffffffffffffffffffffffffffffffff\n      and\n        /* \"contracts/RentContract.sol\":6925:6945  contractInformations */\n      0x04\n        /* \"contracts/RentContract.sol\":6925:6958  contractInformations[_contractID] */\n      0x00\n        /* \"contracts/RentContract.sol\":6946:6957  _contractID */\n      dup5\n        /* \"contracts/RentContract.sol\":6925:6958  contractInformations[_contractID] */\n      dup2\n      mstore\n      0x20\n      add\n      swap1\n      dup2\n      mstore\n      0x20\n      add\n      0x00\n      keccak256\n        /* \"contracts/RentContract.sol\":6925:6972  contractInformations[_contractID].tenantAddress */\n      0x01\n      add\n      0x00\n      swap1\n      sload\n      swap1\n      0x0100\n      exp\n      swap1\n      div\n      0xffffffffffffffffffffffffffffffffffffffff\n      and\n        /* \"contracts/RentContract.sol\":6925:6986  contractInformations[_contractID].tenantAddress == msg.sender */\n      0xffffffffffffffffffffffffffffffffffffffff\n      and\n      eq\n        /* \"contracts/RentContract.sol\":6925:7050  contractInformations[_contractID].tenantAddress == msg.sender || contractInformations[_contractID].ownerAddress == msg.sender */\n      dup1\n      tag_132\n      jumpi\n      pop\n        /* \"contracts/RentContract.sol\":7040:7050  msg.sender */\n      caller\n        /* \"contracts/RentContract.sol\":6990:7050  contractInformations[_contractID].ownerAddress == msg.sender */\n      0xffffffffffffffffffffffffffffffffffffffff\n      and\n        /* \"contracts/RentContract.sol\":6990:7010  contractInformations */\n      0x04\n        /* \"contracts/RentContract.sol\":6990:7023  contractInformations[_contractID] */\n      0x00\n        /* \"contracts/RentContract.sol\":7011:7022  _contractID */\n      dup5\n        /* \"contracts/RentContract.sol\":6990:7023  contractInformations[_contractID] */\n      dup2\n      mstore\n      0x20\n      add\n      swap1\n      dup2\n      mstore\n      0x20\n      add\n      0x00\n      keccak256\n        /* \"contracts/RentContract.sol\":6990:7036  contractInformations[_contractID].ownerAddress */\n      0x00\n      add\n      0x00\n      swap1\n      sload\n      swap1\n      0x0100\n      exp\n      swap1\n      div\n      0xffffffffffffffffffffffffffffffffffffffff\n      and\n        /* \"contracts/RentContract.sol\":6990:7050  contractInformations[_contractID].ownerAddress == msg.sender */\n      0xffffffffffffffffffffffffffffffffffffffff\n      and\n      eq\n        /* \"contracts/RentContract.sol\":6925:7050  contractInformations[_contractID].tenantAddress == msg.sender || contractInformations[_contractID].ownerAddress == msg.sender */\n    tag_132:\n        /* \"contracts/RentContract.sol\":6917:7109  require(contractInformations[_contractID].tenantAddress == msg.sender || contractInformations[_contractID].ownerAddress == msg.sender, \"Only the tenant or property owner can file a complaint\") */\n      tag_133\n      jumpi\n      mload(0x40)\n      0x08c379a000000000000000000000000000000000000000000000000000000000\n      dup2\n      mstore\n      0x04\n      add\n      tag_134\n      swap1\n      tag_135\n      jump\t// in\n    tag_134:\n      mload(0x40)\n      dup1\n      swap2\n      sub\n      swap1\n      revert\n    tag_133:\n        /* \"contracts/RentContract.sol\":7174:7184  msg.sender */\n      caller\n        /* \"contracts/RentContract.sol\":7123:7184  contractInformations[_contractID].tenantAddress == msg.sender */\n      0xffffffffffffffffffffffffffffffffffffffff\n      and\n        /* \"contracts/RentContract.sol\":7123:7143  contractInformations */\n      0x04\n        /* \"contracts/RentContract.sol\":7123:7156  contractInformations[_contractID] */\n      0x00\n        /* \"contracts/RentContract.sol\":7144:7155  _contractID */\n      dup5\n        /* \"contracts/RentContract.sol\":7123:7156  contractInformations[_contractID] */\n      dup2\n      mstore\n      0x20\n      add\n      swap1\n      dup2\n      mstore\n      0x20\n      add\n      0x00\n      keccak256\n        /* \"contracts/RentContract.sol\":7123:7170  contractInformations[_contractID].tenantAddress */\n      0x01\n      add\n      0x00\n      swap1\n      sload\n      swap1\n      0x0100\n      exp\n      swap1\n      div\n      0xffffffffffffffffffffffffffffffffffffffff\n      and\n        /* \"contracts/RentContract.sol\":7123:7184  contractInformations[_contractID].tenantAddress == msg.sender */\n      0xffffffffffffffffffffffffffffffffffffffff\n      and\n      sub\n        /* \"contracts/RentContract.sol\":7119:7421  if (contractInformations[_contractID].tenantAddress == msg.sender)... */\n      tag_136\n      jumpi\n        /* \"contracts/RentContract.sol\":7249:7409  ContractComplain(_contractID, contractInformations[_contractID].tenantAddress, contractInformations[_contractID].ownerAddress , _complainReason,  ContractAdmin) */\n      mload(0x40)\n      dup1\n      0xa0\n      add\n      0x40\n      mstore\n      dup1\n        /* \"contracts/RentContract.sol\":7266:7277  _contractID */\n      dup4\n        /* \"contracts/RentContract.sol\":7249:7409  ContractComplain(_contractID, contractInformations[_contractID].tenantAddress, contractInformations[_contractID].ownerAddress , _complainReason,  ContractAdmin) */\n      dup2\n      mstore\n      0x20\n      add\n        /* \"contracts/RentContract.sol\":7279:7299  contractInformations */\n      0x04\n        /* \"contracts/RentContract.sol\":7279:7312  contractInformations[_contractID] */\n      0x00\n        /* \"contracts/RentContract.sol\":7300:7311  _contractID */\n      dup6\n        /* \"contracts/RentContract.sol\":7279:7312  contractInformations[_contractID] */\n      dup2\n      mstore\n      0x20\n      add\n      swap1\n      dup2\n      mstore\n      0x20\n      add\n      0x00\n      keccak256\n        /* \"contracts/RentContract.sol\":7279:7326  contractInformations[_contractID].tenantAddress */\n      0x01\n      add\n      0x00\n      swap1\n      sload\n      swap1\n      0x0100\n      exp\n      swap1\n      div\n      0xffffffffffffffffffffffffffffffffffffffff\n      and\n        /* \"contracts/RentContract.sol\":7249:7409  ContractComplain(_contractID, contractInformations[_contractID].tenantAddress, contractInformations[_contractID].ownerAddress , _complainReason,  ContractAdmin) */\n      0xffffffffffffffffffffffffffffffffffffffff\n      and\n      dup2\n      mstore\n      0x20\n      add\n        /* \"contracts/RentContract.sol\":7328:7348  contractInformations */\n      0x04\n        /* \"contracts/RentContract.sol\":7328:7361  contractInformations[_contractID] */\n      0x00\n        /* \"contracts/RentContract.sol\":7349:7360  _contractID */\n      dup6\n        /* \"contracts/RentContract.sol\":7328:7361  contractInformations[_contractID] */\n      dup2\n      mstore\n      0x20\n      add\n      swap1\n      dup2\n      mstore\n      0x20\n      add\n      0x00\n      keccak256\n        /* \"contracts/RentContract.sol\":7328:7374  contractInformations[_contractID].ownerAddress */\n      0x00\n      add\n      0x00\n      swap1\n      sload\n      swap1\n      0x0100\n      exp\n      swap1\n      div\n      0xffffffffffffffffffffffffffffffffffffffff\n      and\n        /* \"contracts/RentContract.sol\":7249:7409  ContractComplain(_contractID, contractInformations[_contractID].tenantAddress, contractInformations[_contractID].ownerAddress , _complainReason,  ContractAdmin) */\n      0xffffffffffffffffffffffffffffffffffffffff\n      and\n      dup2\n      mstore\n      0x20\n      add\n        /* \"contracts/RentContract.sol\":7377:7392  _complainReason */\n      dup3\n        /* \"contracts/RentContract.sol\":7249:7409  ContractComplain(_contractID, contractInformations[_contractID].tenantAddress, contractInformations[_contractID].ownerAddress , _complainReason,  ContractAdmin) */\n      dup2\n      mstore\n      0x20\n      add\n        /* \"contracts/RentContract.sol\":7395:7408  ContractAdmin */\n      0x00\n      dup1\n      sload\n      swap1\n      0x0100\n      exp\n      swap1\n      div\n      0xffffffffffffffffffffffffffffffffffffffff\n      and\n        /* \"contracts/RentContract.sol\":7249:7409  ContractComplain(_contractID, contractInformations[_contractID].tenantAddress, contractInformations[_contractID].ownerAddress , _complainReason,  ContractAdmin) */\n      0xffffffffffffffffffffffffffffffffffffffff\n      and\n      dup2\n      mstore\n      pop\n        /* \"contracts/RentContract.sol\":7210:7233  contractComplainReasons */\n      0x05\n        /* \"contracts/RentContract.sol\":7210:7246  contractComplainReasons[_contractID] */\n      0x00\n        /* \"contracts/RentContract.sol\":7234:7245  _contractID */\n      dup5\n        /* \"contracts/RentContract.sol\":7210:7246  contractComplainReasons[_contractID] */\n      dup2\n      mstore\n      0x20\n      add\n      swap1\n      dup2\n      mstore\n      0x20\n      add\n      0x00\n      keccak256\n        /* \"contracts/RentContract.sol\":7210:7409  contractComplainReasons[_contractID] = ContractComplain(_contractID, contractInformations[_contractID].tenantAddress, contractInformations[_contractID].ownerAddress , _complainReason,  ContractAdmin) */\n      0x00\n      dup3\n      add\n      mload\n      dup2\n      0x00\n      add\n      sstore\n      0x20\n      dup3\n      add\n      mload\n      dup2\n      0x01\n      add\n      exp(0x0100, 0x00)\n      dup2\n      sload\n      dup2\n      0xffffffffffffffffffffffffffffffffffffffff\n      mul\n      not\n      and\n      swap1\n      dup4\n      0xffffffffffffffffffffffffffffffffffffffff\n      and\n      mul\n      or\n      swap1\n      sstore\n      pop\n      0x40\n      dup3\n      add\n      mload\n      dup2\n      0x02\n      add\n      exp(0x0100, 0x00)\n      dup2\n      sload\n      dup2\n      0xffffffffffffffffffffffffffffffffffffffff\n      mul\n      not\n      and\n      swap1\n      dup4\n      0xffffffffffffffffffffffffffffffffffffffff\n      and\n      mul\n      or\n      swap1\n      sstore\n      pop\n      0x60\n      dup3\n      add\n      mload\n      dup2\n      0x03\n      add\n      swap1\n      dup2\n      tag_137\n      swap2\n      swap1\n      tag_114\n      jump\t// in\n    tag_137:\n      pop\n      0x80\n      dup3\n      add\n      mload\n      dup2\n      0x04\n      add\n      exp(0x0100, 0x00)\n      dup2\n      sload\n      dup2\n      0xffffffffffffffffffffffffffffffffffffffff\n      mul\n      not\n      and\n      swap1\n      dup4\n      0xffffffffffffffffffffffffffffffffffffffff\n      and\n      mul\n      or\n      swap1\n      sstore\n      pop\n      swap1\n      pop\n      pop\n        /* \"contracts/RentContract.sol\":7119:7421  if (contractInformations[_contractID].tenantAddress == msg.sender)... */\n    tag_136:\n        /* \"contracts/RentContract.sol\":7485:7495  msg.sender */\n      caller\n        /* \"contracts/RentContract.sol\":7435:7495  contractInformations[_contractID].ownerAddress == msg.sender */\n      0xffffffffffffffffffffffffffffffffffffffff\n      and\n        /* \"contracts/RentContract.sol\":7435:7455  contractInformations */\n      0x04\n        /* \"contracts/RentContract.sol\":7435:7468  contractInformations[_contractID] */\n      0x00\n        /* \"contracts/RentContract.sol\":7456:7467  _contractID */\n      dup5\n        /* \"contracts/RentContract.sol\":7435:7468  contractInformations[_contractID] */\n      dup2\n      mstore\n      0x20\n      add\n      swap1\n      dup2\n      mstore\n      0x20\n      add\n      0x00\n      keccak256\n        /* \"contracts/RentContract.sol\":7435:7481  contractInformations[_contractID].ownerAddress */\n      0x00\n      add\n      0x00\n      swap1\n      sload\n      swap1\n      0x0100\n      exp\n      swap1\n      div\n      0xffffffffffffffffffffffffffffffffffffffff\n      and\n        /* \"contracts/RentContract.sol\":7435:7495  contractInformations[_contractID].ownerAddress == msg.sender */\n      0xffffffffffffffffffffffffffffffffffffffff\n      and\n      sub\n        /* \"contracts/RentContract.sol\":7431:7732  if (contractInformations[_contractID].ownerAddress == msg.sender)... */\n      tag_138\n      jumpi\n        /* \"contracts/RentContract.sol\":7560:7720  ContractComplain(_contractID, contractInformations[_contractID].ownerAddress , contractInformations[_contractID].tenantAddress, _complainReason, ContractAdmin ) */\n      mload(0x40)\n      dup1\n      0xa0\n      add\n      0x40\n      mstore\n      dup1\n        /* \"contracts/RentContract.sol\":7577:7588  _contractID */\n      dup4\n        /* \"contracts/RentContract.sol\":7560:7720  ContractComplain(_contractID, contractInformations[_contractID].ownerAddress , contractInformations[_contractID].tenantAddress, _complainReason, ContractAdmin ) */\n      dup2\n      mstore\n      0x20\n      add\n        /* \"contracts/RentContract.sol\":7590:7610  contractInformations */\n      0x04\n        /* \"contracts/RentContract.sol\":7590:7623  contractInformations[_contractID] */\n      0x00\n        /* \"contracts/RentContract.sol\":7611:7622  _contractID */\n      dup6\n        /* \"contracts/RentContract.sol\":7590:7623  contractInformations[_contractID] */\n      dup2\n      mstore\n      0x20\n      add\n      swap1\n      dup2\n      mstore\n      0x20\n      add\n      0x00\n      keccak256\n        /* \"contracts/RentContract.sol\":7590:7636  contractInformations[_contractID].ownerAddress */\n      0x00\n      add\n      0x00\n      swap1\n      sload\n      swap1\n      0x0100\n      exp\n      swap1\n      div\n      0xffffffffffffffffffffffffffffffffffffffff\n      and\n        /* \"contracts/RentContract.sol\":7560:7720  ContractComplain(_contractID, contractInformations[_contractID].ownerAddress , contractInformations[_contractID].tenantAddress, _complainReason, ContractAdmin ) */\n      0xffffffffffffffffffffffffffffffffffffffff\n      and\n      dup2\n      mstore\n      0x20\n      add\n        /* \"contracts/RentContract.sol\":7639:7659  contractInformations */\n      0x04\n        /* \"contracts/RentContract.sol\":7639:7672  contractInformations[_contractID] */\n      0x00\n        /* \"contracts/RentContract.sol\":7660:7671  _contractID */\n      dup6\n        /* \"contracts/RentContract.sol\":7639:7672  contractInformations[_contractID] */\n      dup2\n      mstore\n      0x20\n      add\n      swap1\n      dup2\n      mstore\n      0x20\n      add\n      0x00\n      keccak256\n        /* \"contracts/RentContract.sol\":7639:7686  contractInformations[_contractID].tenantAddress */\n      0x01\n      add\n      0x00\n      swap1\n      sload\n      swap1\n      0x0100\n      exp\n      swap1\n      div\n      0xffffffffffffffffffffffffffffffffffffffff\n      and\n        /* \"contracts/RentContract.sol\":7560:7720  ContractComplain(_contractID, contractInformations[_contractID].ownerAddress , contractInformations[_contractID].tenantAddress, _complainReason, ContractAdmin ) */\n      0xffffffffffffffffffffffffffffffffffffffff\n      and\n      dup2\n      mstore\n      0x20\n      add\n        /* \"contracts/RentContract.sol\":7688:7703  _complainReason */\n      dup3\n        /* \"contracts/RentContract.sol\":7560:7720  ContractComplain(_contractID, contractInformations[_contractID].ownerAddress , contractInformations[_contractID].tenantAddress, _complainReason, ContractAdmin ) */\n      dup2\n      mstore\n      0x20\n      add\n        /* \"contracts/RentContract.sol\":7705:7718  ContractAdmin */\n      0x00\n      dup1\n      sload\n      swap1\n      0x0100\n      exp\n      swap1\n      div\n      0xffffffffffffffffffffffffffffffffffffffff\n      and\n        /* \"contracts/RentContract.sol\":7560:7720  ContractComplain(_contractID, contractInformations[_contractID].ownerAddress , contractInformations[_contractID].tenantAddress, _complainReason, ContractAdmin ) */\n      0xffffffffffffffffffffffffffffffffffffffff\n      and\n      dup2\n      mstore\n      pop\n        /* \"contracts/RentContract.sol\":7521:7544  contractComplainReasons */\n      0x05\n        /* \"contracts/RentContract.sol\":7521:7557  contractComplainReasons[_contractID] */\n      0x00\n        /* \"contracts/RentContract.sol\":7545:7556  _contractID */\n      dup5\n        /* \"contracts/RentContract.sol\":7521:7557  contractComplainReasons[_contractID] */\n      dup2\n      mstore\n      0x20\n      add\n      swap1\n      dup2\n      mstore\n      0x20\n      add\n      0x00\n      keccak256\n        /* \"contracts/RentContract.sol\":7521:7720  contractComplainReasons[_contractID] = ContractComplain(_contractID, contractInformations[_contractID].ownerAddress , contractInformations[_contractID].tenantAddress, _complainReason, ContractAdmin ) */\n      0x00\n      dup3\n      add\n      mload\n      dup2\n      0x00\n      add\n      sstore\n      0x20\n      dup3\n      add\n      mload\n      dup2\n      0x01\n      add\n      exp(0x0100, 0x00)\n      dup2\n      sload\n      dup2\n      0xffffffffffffffffffffffffffffffffffffffff\n      mul\n      not\n      and\n      swap1\n      dup4\n      0xffffffffffffffffffffffffffffffffffffffff\n      and\n      mul\n      or\n      swap1\n      sstore\n      pop\n      0x40\n      dup3\n      add\n      mload\n      dup2\n      0x02\n      add\n      exp(0x0100, 0x00)\n      dup2\n      sload\n      dup2\n      0xffffffffffffffffffffffffffffffffffffffff\n      mul\n      not\n      and\n      swap1\n      dup4\n      0xffffffffffffffffffffffffffffffffffffffff\n      and\n      mul\n      or\n      swap1\n      sstore\n      pop\n      0x60\n      dup3\n      add\n      mload\n      dup2\n      0x03\n      add\n      swap1\n      dup2\n      tag_139\n      swap2\n      swap1\n      tag_114\n      jump\t// in\n    tag_139:\n      pop\n      0x80\n      dup3\n      add\n      mload\n      dup2\n      0x04\n      add\n      exp(0x0100, 0x00)\n      dup2\n      sload\n      dup2\n      0xffffffffffffffffffffffffffffffffffffffff\n      mul\n      not\n      and\n      swap1\n      dup4\n      0xffffffffffffffffffffffffffffffffffffffff\n      and\n      mul\n      or\n      swap1\n      sstore\n      pop\n      swap1\n      pop\n      pop\n        /* \"contracts/RentContract.sol\":7431:7732  if (contractInformations[_contractID].ownerAddress == msg.sender)... */\n    tag_138:\n        /* \"contracts/RentContract.sol\":6829:7747  function complainUser(uint _contractID, string memory _complainReason) public {... */\n      pop\n      pop\n      jump\t// out\n        /* \"contracts/RentContract.sol\":1328:1385  mapping(uint => RentContract) public contractInformations */\n    tag_69:\n      mstore(0x20, 0x04)\n      dup1\n      0x00\n      mstore\n      keccak256(0x00, 0x40)\n      0x00\n      swap2\n      pop\n      swap1\n      pop\n      dup1\n      0x00\n      add\n      0x00\n      swap1\n      sload\n      swap1\n      0x0100\n      exp\n      swap1\n      div\n      0xffffffffffffffffffffffffffffffffffffffff\n      and\n      swap1\n      dup1\n      0x01\n      add\n      0x00\n      swap1\n      sload\n      swap1\n      0x0100\n      exp\n      swap1\n      div\n      0xffffffffffffffffffffffffffffffffffffffff\n      and\n      swap1\n      dup1\n      0x02\n      add\n      dup1\n      sload\n      tag_140\n      swap1\n      tag_90\n      jump\t// in\n    tag_140:\n      dup1\n      0x1f\n      add\n      0x20\n      dup1\n      swap2\n      div\n      mul\n      0x20\n      add\n      mload(0x40)\n      swap1\n      dup2\n      add\n      0x40\n      mstore\n      dup1\n      swap3\n      swap2\n      swap1\n      dup2\n      dup2\n      mstore\n      0x20\n      add\n      dup3\n      dup1\n      sload\n      tag_141\n      swap1\n      tag_90\n      jump\t// in\n    tag_141:\n      dup1\n      iszero\n      tag_142\n      jumpi\n      dup1\n      0x1f\n      lt\n      tag_143\n      jumpi\n      0x0100\n      dup1\n      dup4\n      sload\n      div\n      mul\n      dup4\n      mstore\n      swap2\n      0x20\n      add\n      swap2\n      jump(tag_142)\n    tag_143:\n      dup3\n      add\n      swap2\n      swap1\n      0x00\n      mstore\n      keccak256(0x00, 0x20)\n      swap1\n    tag_144:\n      dup2\n      sload\n      dup2\n      mstore\n      swap1\n      0x01\n      add\n      swap1\n      0x20\n      add\n      dup1\n      dup4\n      gt\n      tag_144\n      jumpi\n      dup3\n      swap1\n      sub\n      0x1f\n      and\n      dup3\n      add\n      swap2\n    tag_142:\n      pop\n      pop\n      pop\n      pop\n      pop\n      swap1\n      dup1\n      0x03\n      add\n      dup1\n      sload\n      tag_145\n      swap1\n      tag_90\n      jump\t// in\n    tag_145:\n      dup1\n      0x1f\n      add\n      0x20\n      dup1\n      swap2\n      div\n      mul\n      0x20\n      add\n      mload(0x40)\n      swap1\n      dup2\n      add\n      0x40\n      mstore\n      dup1\n      swap3\n      swap2\n      swap1\n      dup2\n      dup2\n      mstore\n      0x20\n      add\n      dup3\n      dup1\n      sload\n      tag_146\n      swap1\n      tag_90\n      jump\t// in\n    tag_146:\n      dup1\n      iszero\n      tag_147\n      jumpi\n      dup1\n      0x1f\n      lt\n      tag_148\n      jumpi\n      0x0100\n      dup1\n      dup4\n      sload\n      div\n      mul\n      dup4\n      mstore\n      swap2\n      0x20\n      add\n      swap2\n      jump(tag_147)\n    tag_148:\n      dup3\n      add\n      swap2\n      swap1\n      0x00\n      mstore\n      keccak256(0x00, 0x20)\n      swap1\n    tag_149:\n      dup2\n      sload\n      dup2\n      mstore\n      swap1\n      0x01\n      add\n      swap1\n      0x20\n      add\n      dup1\n      dup4\n      gt\n      tag_149\n      jumpi\n      dup3\n      swap1\n      sub\n      0x1f\n      and\n      dup3\n      add\n      swap2\n    tag_147:\n      pop\n      pop\n      pop\n      pop\n      pop\n      swap1\n      dup1\n      0x04\n      add\n      sload\n      swap1\n      dup1\n      0x05\n      add\n      sload\n      swap1\n      dup1\n      0x06\n      add\n      0x00\n      swap1\n      sload\n      swap1\n      0x0100\n      exp\n      swap1\n      div\n      0xff\n      and\n      swap1\n      dup1\n      0x06\n      add\n      0x01\n      swap1\n      sload\n      swap1\n      0x0100\n      exp\n      swap1\n      div\n      0xff\n      and\n      swap1\n      pop\n      dup9\n      jump\t// out\n        /* \"contracts/RentContract.sol\":1921:2663  function addProperty(string memory _propertyAddress, string memory _propertyType) public {... */\n    tag_75:\n        /* \"contracts/RentContract.sol\":2177:2178  0 */\n      0x00\n        /* \"contracts/RentContract.sol\":2125:2179  userInformations[msg.sender].UserAddress != address(0) */\n      0xffffffffffffffffffffffffffffffffffffffff\n      and\n        /* \"contracts/RentContract.sol\":2125:2141  userInformations */\n      0x02\n        /* \"contracts/RentContract.sol\":2125:2153  userInformations[msg.sender] */\n      0x00\n        /* \"contracts/RentContract.sol\":2142:2152  msg.sender */\n      caller\n        /* \"contracts/RentContract.sol\":2125:2153  userInformations[msg.sender] */\n      0xffffffffffffffffffffffffffffffffffffffff\n      and\n      0xffffffffffffffffffffffffffffffffffffffff\n      and\n      dup2\n      mstore\n      0x20\n      add\n      swap1\n      dup2\n      mstore\n      0x20\n      add\n      0x00\n      keccak256\n        /* \"contracts/RentContract.sol\":2125:2165  userInformations[msg.sender].UserAddress */\n      0x01\n      add\n      0x00\n      swap1\n      sload\n      swap1\n      0x0100\n      exp\n      swap1\n      div\n      0xffffffffffffffffffffffffffffffffffffffff\n      and\n        /* \"contracts/RentContract.sol\":2125:2179  userInformations[msg.sender].UserAddress != address(0) */\n      0xffffffffffffffffffffffffffffffffffffffff\n      and\n      sub\n        /* \"contracts/RentContract.sol\":2117:2198  require(userInformations[msg.sender].UserAddress != address(0), \"User not found\") */\n      tag_151\n      jumpi\n      mload(0x40)\n      0x08c379a000000000000000000000000000000000000000000000000000000000\n      dup2\n      mstore\n      0x04\n      add\n      tag_152\n      swap1\n      tag_153\n      jump\t// in\n    tag_152:\n      mload(0x40)\n      dup1\n      swap2\n      sub\n      swap1\n      revert\n    tag_151:\n        /* \"contracts/RentContract.sol\":2273:2289  userInformations */\n      0x02\n        /* \"contracts/RentContract.sol\":2273:2301  userInformations[msg.sender] */\n      0x00\n        /* \"contracts/RentContract.sol\":2290:2300  msg.sender */\n      caller\n        /* \"contracts/RentContract.sol\":2273:2301  userInformations[msg.sender] */\n      0xffffffffffffffffffffffffffffffffffffffff\n      and\n      0xffffffffffffffffffffffffffffffffffffffff\n      and\n      dup2\n      mstore\n      0x20\n      add\n      swap1\n      dup2\n      mstore\n      0x20\n      add\n      0x00\n      keccak256\n        /* \"contracts/RentContract.sol\":2273:2309  userInformations[msg.sender].isOwner */\n      0x01\n      add\n      0x14\n      swap1\n      sload\n      swap1\n      0x0100\n      exp\n      swap1\n      div\n      0xff\n      and\n        /* \"contracts/RentContract.sol\":2265:2342  require(userInformations[msg.sender].isOwner, \"Tenants can't add properties\") */\n      tag_154\n      jumpi\n      mload(0x40)\n      0x08c379a000000000000000000000000000000000000000000000000000000000\n      dup2\n      mstore\n      0x04\n      add\n      tag_155\n      swap1\n      tag_156\n      jump\t// in\n    tag_155:\n      mload(0x40)\n      dup1\n      swap2\n      sub\n      swap1\n      revert\n    tag_154:\n        /* \"contracts/RentContract.sol\":2515:2516  0 */\n      0x00\n        /* \"contracts/RentContract.sol\":2452:2517  propertyInformations[_propertyAddress].ownerAddress == address(0) */\n      0xffffffffffffffffffffffffffffffffffffffff\n      and\n        /* \"contracts/RentContract.sol\":2452:2472  propertyInformations */\n      0x03\n        /* \"contracts/RentContract.sol\":2473:2489  _propertyAddress */\n      dup4\n        /* \"contracts/RentContract.sol\":2452:2490  propertyInformations[_propertyAddress] */\n      mload(0x40)\n      tag_157\n      swap2\n      swap1\n      tag_158\n      jump\t// in\n    tag_157:\n      swap1\n      dup2\n      mstore\n      0x20\n      add\n      mload(0x40)\n      dup1\n      swap2\n      sub\n      swap1\n      keccak256\n        /* \"contracts/RentContract.sol\":2452:2503  propertyInformations[_propertyAddress].ownerAddress */\n      0x00\n      add\n      0x00\n      swap1\n      sload\n      swap1\n      0x0100\n      exp\n      swap1\n      div\n      0xffffffffffffffffffffffffffffffffffffffff\n      and\n        /* \"contracts/RentContract.sol\":2452:2517  propertyInformations[_propertyAddress].ownerAddress == address(0) */\n      0xffffffffffffffffffffffffffffffffffffffff\n      and\n      eq\n        /* \"contracts/RentContract.sol\":2444:2545  require(propertyInformations[_propertyAddress].ownerAddress == address(0), \"Property already exists\") */\n      tag_159\n      jumpi\n      mload(0x40)\n      0x08c379a000000000000000000000000000000000000000000000000000000000\n      dup2\n      mstore\n      0x04\n      add\n      tag_160\n      swap1\n      tag_161\n      jump\t// in\n    tag_160:\n      mload(0x40)\n      dup1\n      swap2\n      sub\n      swap1\n      revert\n    tag_159:\n        /* \"contracts/RentContract.sol\":2596:2656  Property(msg.sender, _propertyAddress, _propertyType, false) */\n      mload(0x40)\n      dup1\n      0x80\n      add\n      0x40\n      mstore\n      dup1\n        /* \"contracts/RentContract.sol\":2605:2615  msg.sender */\n      caller\n        /* \"contracts/RentContract.sol\":2596:2656  Property(msg.sender, _propertyAddress, _propertyType, false) */\n      0xffffffffffffffffffffffffffffffffffffffff\n      and\n      dup2\n      mstore\n      0x20\n      add\n        /* \"contracts/RentContract.sol\":2617:2633  _propertyAddress */\n      dup4\n        /* \"contracts/RentContract.sol\":2596:2656  Property(msg.sender, _propertyAddress, _propertyType, false) */\n      dup2\n      mstore\n      0x20\n      add\n        /* \"contracts/RentContract.sol\":2635:2648  _propertyType */\n      dup3\n        /* \"contracts/RentContract.sol\":2596:2656  Property(msg.sender, _propertyAddress, _propertyType, false) */\n      dup2\n      mstore\n      0x20\n      add\n        /* \"contracts/RentContract.sol\":2650:2655  false */\n      0x00\n        /* \"contracts/RentContract.sol\":2596:2656  Property(msg.sender, _propertyAddress, _propertyType, false) */\n      iszero\n      iszero\n      dup2\n      mstore\n      pop\n        /* \"contracts/RentContract.sol\":2555:2575  propertyInformations */\n      0x03\n        /* \"contracts/RentContract.sol\":2576:2592  _propertyAddress */\n      dup4\n        /* \"contracts/RentContract.sol\":2555:2593  propertyInformations[_propertyAddress] */\n      mload(0x40)\n      tag_162\n      swap2\n      swap1\n      tag_158\n      jump\t// in\n    tag_162:\n      swap1\n      dup2\n      mstore\n      0x20\n      add\n      mload(0x40)\n      dup1\n      swap2\n      sub\n      swap1\n      keccak256\n        /* \"contracts/RentContract.sol\":2555:2656  propertyInformations[_propertyAddress] = Property(msg.sender, _propertyAddress, _propertyType, false) */\n      0x00\n      dup3\n      add\n      mload\n      dup2\n      0x00\n      add\n      exp(0x0100, 0x00)\n      dup2\n      sload\n      dup2\n      0xffffffffffffffffffffffffffffffffffffffff\n      mul\n      not\n      and\n      swap1\n      dup4\n      0xffffffffffffffffffffffffffffffffffffffff\n      and\n      mul\n      or\n      swap1\n      sstore\n      pop\n      0x20\n      dup3\n      add\n      mload\n      dup2\n      0x01\n      add\n      swap1\n      dup2\n      tag_163\n      swap2\n      swap1\n      tag_114\n      jump\t// in\n    tag_163:\n      pop\n      0x40\n      dup3\n      add\n      mload\n      dup2\n      0x02\n      add\n      swap1\n      dup2\n      tag_164\n      swap2\n      swap1\n      tag_114\n      jump\t// in\n    tag_164:\n      pop\n      0x60\n      dup3\n      add\n      mload\n      dup2\n      0x03\n      add\n      exp(0x0100, 0x00)\n      dup2\n      sload\n      dup2\n      0xff\n      mul\n      not\n      and\n      swap1\n      dup4\n      iszero\n      iszero\n      mul\n      or\n      swap1\n      sstore\n      pop\n      swap1\n      pop\n      pop\n        /* \"contracts/RentContract.sol\":1921:2663  function addProperty(string memory _propertyAddress, string memory _propertyType) public {... */\n      pop\n      pop\n      jump\t// out\n        /* \"contracts/RentContract.sol\":1489:1556  mapping(uint => ContractTerminater) public contractTerminateReasons */\n    tag_78:\n      mstore(0x20, 0x06)\n      dup1\n      0x00\n      mstore\n      keccak256(0x00, 0x40)\n      0x00\n      swap2\n      pop\n      swap1\n      pop\n      dup1\n      0x00\n      add\n      sload\n      swap1\n      dup1\n      0x01\n      add\n      0x00\n      swap1\n      sload\n      swap1\n      0x0100\n      exp\n      swap1\n      div\n      0xffffffffffffffffffffffffffffffffffffffff\n      and\n      swap1\n      dup1\n      0x02\n      add\n      dup1\n      sload\n      tag_165\n      swap1\n      tag_90\n      jump\t// in\n    tag_165:\n      dup1\n      0x1f\n      add\n      0x20\n      dup1\n      swap2\n      div\n      mul\n      0x20\n      add\n      mload(0x40)\n      swap1\n      dup2\n      add\n      0x40\n      mstore\n      dup1\n      swap3\n      swap2\n      swap1\n      dup2\n      dup2\n      mstore\n      0x20\n      add\n      dup3\n      dup1\n      sload\n      tag_166\n      swap1\n      tag_90\n      jump\t// in\n    tag_166:\n      dup1\n      iszero\n      tag_167\n      jumpi\n      dup1\n      0x1f\n      lt\n      tag_168\n      jumpi\n      0x0100\n      dup1\n      dup4\n      sload\n      div\n      mul\n      dup4\n      mstore\n      swap2\n      0x20\n      add\n      swap2\n      jump(tag_167)\n    tag_168:\n      dup3\n      add\n      swap2\n      swap1\n      0x00\n      mstore\n      keccak256(0x00, 0x20)\n      swap1\n    tag_169:\n      dup2\n      sload\n      dup2\n      mstore\n      swap1\n      0x01\n      add\n      swap1\n      0x20\n      add\n      dup1\n      dup4\n      gt\n      tag_169\n      jumpi\n      dup3\n      swap1\n      sub\n      0x1f\n      and\n      dup3\n      add\n      swap2\n    tag_167:\n      pop\n      pop\n      pop\n      pop\n      pop\n      swap1\n      dup1\n      0x03\n      add\n      0x00\n      swap1\n      sload\n      swap1\n      0x0100\n      exp\n      swap1\n      div\n      0xffffffffffffffffffffffffffffffffffffffff\n      and\n      swap1\n      pop\n      dup5\n      jump\t// out\n        /* \"contracts/RentContract.sol\":2669:3439  function contractStart(address _tenantAddress, string memory _propertyAddress, string memory _propertyType, uint _contractStartDate, uint _contractFinishDate) public {... */\n    tag_84:\n        /* \"contracts/RentContract.sol\":2905:2906  0 */\n      0x00\n        /* \"contracts/RentContract.sol\":2853:2907  userInformations[msg.sender].UserAddress != address(0) */\n      0xffffffffffffffffffffffffffffffffffffffff\n      and\n        /* \"contracts/RentContract.sol\":2853:2869  userInformations */\n      0x02\n        /* \"contracts/RentContract.sol\":2853:2881  userInformations[msg.sender] */\n      0x00\n        /* \"contracts/RentContract.sol\":2870:2880  msg.sender */\n      caller\n        /* \"contracts/RentContract.sol\":2853:2881  userInformations[msg.sender] */\n      0xffffffffffffffffffffffffffffffffffffffff\n      and\n      0xffffffffffffffffffffffffffffffffffffffff\n      and\n      dup2\n      mstore\n      0x20\n      add\n      swap1\n      dup2\n      mstore\n      0x20\n      add\n      0x00\n      keccak256\n        /* \"contracts/RentContract.sol\":2853:2893  userInformations[msg.sender].UserAddress */\n      0x01\n      add\n      0x00\n      swap1\n      sload\n      swap1\n      0x0100\n      exp\n      swap1\n      div\n      0xffffffffffffffffffffffffffffffffffffffff\n      and\n        /* \"contracts/RentContract.sol\":2853:2907  userInformations[msg.sender].UserAddress != address(0) */\n      0xffffffffffffffffffffffffffffffffffffffff\n      and\n      sub\n        /* \"contracts/RentContract.sol\":2845:2926  require(userInformations[msg.sender].UserAddress != address(0), \"User not found\") */\n      tag_171\n      jumpi\n      mload(0x40)\n      0x08c379a000000000000000000000000000000000000000000000000000000000\n      dup2\n      mstore\n      0x04\n      add\n      tag_172\n      swap1\n      tag_153\n      jump\t// in\n    tag_172:\n      mload(0x40)\n      dup1\n      swap2\n      sub\n      swap1\n      revert\n    tag_171:\n        /* \"contracts/RentContract.sol\":2944:2960  userInformations */\n      0x02\n        /* \"contracts/RentContract.sol\":2944:2972  userInformations[msg.sender] */\n      0x00\n        /* \"contracts/RentContract.sol\":2961:2971  msg.sender */\n      caller\n        /* \"contracts/RentContract.sol\":2944:2972  userInformations[msg.sender] */\n      0xffffffffffffffffffffffffffffffffffffffff\n      and\n      0xffffffffffffffffffffffffffffffffffffffff\n      and\n      dup2\n      mstore\n      0x20\n      add\n      swap1\n      dup2\n      mstore\n      0x20\n      add\n      0x00\n      keccak256\n        /* \"contracts/RentContract.sol\":2944:2980  userInformations[msg.sender].isOwner */\n      0x01\n      add\n      0x14\n      swap1\n      sload\n      swap1\n      0x0100\n      exp\n      swap1\n      div\n      0xff\n      and\n        /* \"contracts/RentContract.sol\":2936:3019  require(userInformations[msg.sender].isOwner, \"Tenants cannot initiate a contract\") */\n      tag_173\n      jumpi\n      mload(0x40)\n      0x08c379a000000000000000000000000000000000000000000000000000000000\n      dup2\n      mstore\n      0x04\n      add\n      tag_174\n      swap1\n      tag_175\n      jump\t// in\n    tag_174:\n      mload(0x40)\n      dup1\n      swap2\n      sub\n      swap1\n      revert\n    tag_173:\n        /* \"contracts/RentContract.sol\":3100:3101  0 */\n      0x00\n        /* \"contracts/RentContract.sol\":3037:3102  propertyInformations[_propertyAddress].ownerAddress != address(0) */\n      0xffffffffffffffffffffffffffffffffffffffff\n      and\n        /* \"contracts/RentContract.sol\":3037:3057  propertyInformations */\n      0x03\n        /* \"contracts/RentContract.sol\":3058:3074  _propertyAddress */\n      dup6\n        /* \"contracts/RentContract.sol\":3037:3075  propertyInformations[_propertyAddress] */\n      mload(0x40)\n      tag_176\n      swap2\n      swap1\n      tag_158\n      jump\t// in\n    tag_176:\n      swap1\n      dup2\n      mstore\n      0x20\n      add\n      mload(0x40)\n      dup1\n      swap2\n      sub\n      swap1\n      keccak256\n        /* \"contracts/RentContract.sol\":3037:3088  propertyInformations[_propertyAddress].ownerAddress */\n      0x00\n      add\n      0x00\n      swap1\n      sload\n      swap1\n      0x0100\n      exp\n      swap1\n      div\n      0xffffffffffffffffffffffffffffffffffffffff\n      and\n        /* \"contracts/RentContract.sol\":3037:3102  propertyInformations[_propertyAddress].ownerAddress != address(0) */\n      0xffffffffffffffffffffffffffffffffffffffff\n      and\n      sub\n        /* \"contracts/RentContract.sol\":3029:3125  require(propertyInformations[_propertyAddress].ownerAddress != address(0), \"Property not found\") */\n      tag_177\n      jumpi\n      mload(0x40)\n      0x08c379a000000000000000000000000000000000000000000000000000000000\n      dup2\n      mstore\n      0x04\n      add\n      tag_178\n      swap1\n      tag_179\n      jump\t// in\n    tag_178:\n      mload(0x40)\n      dup1\n      swap2\n      sub\n      swap1\n      revert\n    tag_177:\n        /* \"contracts/RentContract.sol\":3136:3151  uint contractID */\n      0x00\n        /* \"contracts/RentContract.sol\":3186:3196  msg.sender */\n      caller\n        /* \"contracts/RentContract.sol\":3198:3214  _propertyAddress */\n      dup6\n        /* \"contracts/RentContract.sol\":3216:3234  _contractStartDate */\n      dup5\n        /* \"contracts/RentContract.sol\":3236:3255  _contractFinishDate */\n      dup5\n        /* \"contracts/RentContract.sol\":3169:3256  abi.encodePacked(msg.sender, _propertyAddress, _contractStartDate, _contractFinishDate) */\n      add(0x20, mload(0x40))\n      tag_180\n      swap5\n      swap4\n      swap3\n      swap2\n      swap1\n      tag_181\n      jump\t// in\n    tag_180:\n      mload(0x40)\n      0x20\n      dup2\n      dup4\n      sub\n      sub\n      dup2\n      mstore\n      swap1\n      0x40\n      mstore\n        /* \"contracts/RentContract.sol\":3159:3257  keccak256(abi.encodePacked(msg.sender, _propertyAddress, _contractStartDate, _contractFinishDate)) */\n      dup1\n      mload\n      swap1\n      0x20\n      add\n      keccak256\n        /* \"contracts/RentContract.sol\":3154:3258  uint(keccak256(abi.encodePacked(msg.sender, _propertyAddress, _contractStartDate, _contractFinishDate))) */\n      0x00\n      shr\n        /* \"contracts/RentContract.sol\":3136:3258  uint contractID = uint(keccak256(abi.encodePacked(msg.sender, _propertyAddress, _contractStartDate, _contractFinishDate))) */\n      swap1\n      pop\n        /* \"contracts/RentContract.sol\":3304:3432  RentContract(msg.sender, _tenantAddress,  _propertyAddress, _propertyType, _contractStartDate, _contractFinishDate, true, false) */\n      mload(0x40)\n      dup1\n      0x0100\n      add\n      0x40\n      mstore\n      dup1\n        /* \"contracts/RentContract.sol\":3317:3327  msg.sender */\n      caller\n        /* \"contracts/RentContract.sol\":3304:3432  RentContract(msg.sender, _tenantAddress,  _propertyAddress, _propertyType, _contractStartDate, _contractFinishDate, true, false) */\n      0xffffffffffffffffffffffffffffffffffffffff\n      and\n      dup2\n      mstore\n      0x20\n      add\n        /* \"contracts/RentContract.sol\":3329:3343  _tenantAddress */\n      dup8\n        /* \"contracts/RentContract.sol\":3304:3432  RentContract(msg.sender, _tenantAddress,  _propertyAddress, _propertyType, _contractStartDate, _contractFinishDate, true, false) */\n      0xffffffffffffffffffffffffffffffffffffffff\n      and\n      dup2\n      mstore\n      0x20\n      add\n        /* \"contracts/RentContract.sol\":3346:3362  _propertyAddress */\n      dup7\n        /* \"contracts/RentContract.sol\":3304:3432  RentContract(msg.sender, _tenantAddress,  _propertyAddress, _propertyType, _contractStartDate, _contractFinishDate, true, false) */\n      dup2\n      mstore\n      0x20\n      add\n        /* \"contracts/RentContract.sol\":3364:3377  _propertyType */\n      dup6\n        /* \"contracts/RentContract.sol\":3304:3432  RentContract(msg.sender, _tenantAddress,  _propertyAddress, _propertyType, _contractStartDate, _contractFinishDate, true, false) */\n      dup2\n      mstore\n      0x20\n      add\n        /* \"contracts/RentContract.sol\":3379:3397  _contractStartDate */\n      dup5\n        /* \"contracts/RentContract.sol\":3304:3432  RentContract(msg.sender, _tenantAddress,  _propertyAddress, _propertyType, _contractStartDate, _contractFinishDate, true, false) */\n      dup2\n      mstore\n      0x20\n      add\n        /* \"contracts/RentContract.sol\":3399:3418  _contractFinishDate */\n      dup4\n        /* \"contracts/RentContract.sol\":3304:3432  RentContract(msg.sender, _tenantAddress,  _propertyAddress, _propertyType, _contractStartDate, _contractFinishDate, true, false) */\n      dup2\n      mstore\n      0x20\n      add\n        /* \"contracts/RentContract.sol\":3420:3424  true */\n      0x01\n        /* \"contracts/RentContract.sol\":3304:3432  RentContract(msg.sender, _tenantAddress,  _propertyAddress, _propertyType, _contractStartDate, _contractFinishDate, true, false) */\n      iszero\n      iszero\n      dup2\n      mstore\n      0x20\n      add\n        /* \"contracts/RentContract.sol\":3426:3431  false */\n      0x00\n        /* \"contracts/RentContract.sol\":3304:3432  RentContract(msg.sender, _tenantAddress,  _propertyAddress, _propertyType, _contractStartDate, _contractFinishDate, true, false) */\n      iszero\n      iszero\n      dup2\n      mstore\n      pop\n        /* \"contracts/RentContract.sol\":3269:3289  contractInformations */\n      0x04\n        /* \"contracts/RentContract.sol\":3269:3301  contractInformations[contractID] */\n      0x00\n        /* \"contracts/RentContract.sol\":3290:3300  contractID */\n      dup4\n        /* \"contracts/RentContract.sol\":3269:3301  contractInformations[contractID] */\n      dup2\n      mstore\n      0x20\n      add\n      swap1\n      dup2\n      mstore\n      0x20\n      add\n      0x00\n      keccak256\n        /* \"contracts/RentContract.sol\":3269:3432  contractInformations[contractID] = RentContract(msg.sender, _tenantAddress,  _propertyAddress, _propertyType, _contractStartDate, _contractFinishDate, true, false) */\n      0x00\n      dup3\n      add\n      mload\n      dup2\n      0x00\n      add\n      exp(0x0100, 0x00)\n      dup2\n      sload\n      dup2\n      0xffffffffffffffffffffffffffffffffffffffff\n      mul\n      not\n      and\n      swap1\n      dup4\n      0xffffffffffffffffffffffffffffffffffffffff\n      and\n      mul\n      or\n      swap1\n      sstore\n      pop\n      0x20\n      dup3\n      add\n      mload\n      dup2\n      0x01\n      add\n      exp(0x0100, 0x00)\n      dup2\n      sload\n      dup2\n      0xffffffffffffffffffffffffffffffffffffffff\n      mul\n      not\n      and\n      swap1\n      dup4\n      0xffffffffffffffffffffffffffffffffffffffff\n      and\n      mul\n      or\n      swap1\n      sstore\n      pop\n      0x40\n      dup3\n      add\n      mload\n      dup2\n      0x02\n      add\n      swap1\n      dup2\n      tag_182\n      swap2\n      swap1\n      tag_114\n      jump\t// in\n    tag_182:\n      pop\n      0x60\n      dup3\n      add\n      mload\n      dup2\n      0x03\n      add\n      swap1\n      dup2\n      tag_183\n      swap2\n      swap1\n      tag_114\n      jump\t// in\n    tag_183:\n      pop\n      0x80\n      dup3\n      add\n      mload\n      dup2\n      0x04\n      add\n      sstore\n      0xa0\n      dup3\n      add\n      mload\n      dup2\n      0x05\n      add\n      sstore\n      0xc0\n      dup3\n      add\n      mload\n      dup2\n      0x06\n      add\n      exp(0x0100, 0x00)\n      dup2\n      sload\n      dup2\n      0xff\n      mul\n      not\n      and\n      swap1\n      dup4\n      iszero\n      iszero\n      mul\n      or\n      swap1\n      sstore\n      pop\n      0xe0\n      dup3\n      add\n      mload\n      dup2\n      0x06\n      add\n      exp(0x0100, 0x01)\n      dup2\n      sload\n      dup2\n      0xff\n      mul\n      not\n      and\n      swap1\n      dup4\n      iszero\n      iszero\n      mul\n      or\n      swap1\n      sstore\n      pop\n      swap1\n      pop\n      pop\n        /* \"contracts/RentContract.sol\":2835:3439  {... */\n      pop\n        /* \"contracts/RentContract.sol\":2669:3439  function contractStart(address _tenantAddress, string memory _propertyAddress, string memory _propertyType, uint _contractStartDate, uint _contractFinishDate) public {... */\n      pop\n      pop\n      pop\n      pop\n      pop\n      jump\t// out\n        /* \"contracts/RentContract.sol\":3445:6333  function contractTerminate(uint _contractID, bool _legitimate, string memory _reason) public {... */\n    tag_88:\n        /* \"contracts/RentContract.sol\":3686:3696  msg.sender */\n      caller\n        /* \"contracts/RentContract.sol\":3635:3696  contractInformations[_contractID].tenantAddress == msg.sender */\n      0xffffffffffffffffffffffffffffffffffffffff\n      and\n        /* \"contracts/RentContract.sol\":3635:3655  contractInformations */\n      0x04\n        /* \"contracts/RentContract.sol\":3635:3668  contractInformations[_contractID] */\n      0x00\n        /* \"contracts/RentContract.sol\":3656:3667  _contractID */\n      dup6\n        /* \"contracts/RentContract.sol\":3635:3668  contractInformations[_contractID] */\n      dup2\n      mstore\n      0x20\n      add\n      swap1\n      dup2\n      mstore\n      0x20\n      add\n      0x00\n      keccak256\n        /* \"contracts/RentContract.sol\":3635:3682  contractInformations[_contractID].tenantAddress */\n      0x01\n      add\n      0x00\n      swap1\n      sload\n      swap1\n      0x0100\n      exp\n      swap1\n      div\n      0xffffffffffffffffffffffffffffffffffffffff\n      and\n        /* \"contracts/RentContract.sol\":3635:3696  contractInformations[_contractID].tenantAddress == msg.sender */\n      0xffffffffffffffffffffffffffffffffffffffff\n      and\n      eq\n        /* \"contracts/RentContract.sol\":3635:3760  contractInformations[_contractID].tenantAddress == msg.sender || contractInformations[_contractID].ownerAddress == msg.sender */\n      dup1\n      tag_185\n      jumpi\n      pop\n        /* \"contracts/RentContract.sol\":3750:3760  msg.sender */\n      caller\n        /* \"contracts/RentContract.sol\":3700:3760  contractInformations[_contractID].ownerAddress == msg.sender */\n      0xffffffffffffffffffffffffffffffffffffffff\n      and\n        /* \"contracts/RentContract.sol\":3700:3720  contractInformations */\n      0x04\n        /* \"contracts/RentContract.sol\":3700:3733  contractInformations[_contractID] */\n      0x00\n        /* \"contracts/RentContract.sol\":3721:3732  _contractID */\n      dup6\n        /* \"contracts/RentContract.sol\":3700:3733  contractInformations[_contractID] */\n      dup2\n      mstore\n      0x20\n      add\n      swap1\n      dup2\n      mstore\n      0x20\n      add\n      0x00\n      keccak256\n        /* \"contracts/RentContract.sol\":3700:3746  contractInformations[_contractID].ownerAddress */\n      0x00\n      add\n      0x00\n      swap1\n      sload\n      swap1\n      0x0100\n      exp\n      swap1\n      div\n      0xffffffffffffffffffffffffffffffffffffffff\n      and\n        /* \"contracts/RentContract.sol\":3700:3760  contractInformations[_contractID].ownerAddress == msg.sender */\n      0xffffffffffffffffffffffffffffffffffffffff\n      and\n      eq\n        /* \"contracts/RentContract.sol\":3635:3760  contractInformations[_contractID].tenantAddress == msg.sender || contractInformations[_contractID].ownerAddress == msg.sender */\n    tag_185:\n        /* \"contracts/RentContract.sol\":3627:3787  require(contractInformations[_contractID].tenantAddress == msg.sender || contractInformations[_contractID].ownerAddress == msg.sender, \"You have no authority.\") */\n      tag_186\n      jumpi\n      mload(0x40)\n      0x08c379a000000000000000000000000000000000000000000000000000000000\n      dup2\n      mstore\n      0x04\n      add\n      tag_187\n      swap1\n      tag_188\n      jump\t// in\n    tag_187:\n      mload(0x40)\n      dup1\n      swap2\n      sub\n      swap1\n      revert\n    tag_186:\n        /* \"contracts/RentContract.sol\":3857:3861  true */\n      0x01\n        /* \"contracts/RentContract.sol\":3805:3861  contractInformations[_contractID].validityStatus == true */\n      iszero\n      iszero\n        /* \"contracts/RentContract.sol\":3805:3825  contractInformations */\n      0x04\n        /* \"contracts/RentContract.sol\":3805:3838  contractInformations[_contractID] */\n      0x00\n        /* \"contracts/RentContract.sol\":3826:3837  _contractID */\n      dup6\n        /* \"contracts/RentContract.sol\":3805:3838  contractInformations[_contractID] */\n      dup2\n      mstore\n      0x20\n      add\n      swap1\n      dup2\n      mstore\n      0x20\n      add\n      0x00\n      keccak256\n        /* \"contracts/RentContract.sol\":3805:3853  contractInformations[_contractID].validityStatus */\n      0x06\n      add\n      0x00\n      swap1\n      sload\n      swap1\n      0x0100\n      exp\n      swap1\n      div\n      0xff\n      and\n        /* \"contracts/RentContract.sol\":3805:3861  contractInformations[_contractID].validityStatus == true */\n      iszero\n      iszero\n      eq\n        /* \"contracts/RentContract.sol\":3797:3887  require(contractInformations[_contractID].validityStatus == true, \"Contract is not valid\") */\n      tag_189\n      jumpi\n      mload(0x40)\n      0x08c379a000000000000000000000000000000000000000000000000000000000\n      dup2\n      mstore\n      0x04\n      add\n      tag_190\n      swap1\n      tag_98\n      jump\t// in\n    tag_190:\n      mload(0x40)\n      dup1\n      swap2\n      sub\n      swap1\n      revert\n    tag_189:\n        /* \"contracts/RentContract.sol\":4014:4024  msg.sender */\n      caller\n        /* \"contracts/RentContract.sol\":3963:4024  contractInformations[_contractID].tenantAddress == msg.sender */\n      0xffffffffffffffffffffffffffffffffffffffff\n      and\n        /* \"contracts/RentContract.sol\":3963:3983  contractInformations */\n      0x04\n        /* \"contracts/RentContract.sol\":3963:3996  contractInformations[_contractID] */\n      0x00\n        /* \"contracts/RentContract.sol\":3984:3995  _contractID */\n      dup6\n        /* \"contracts/RentContract.sol\":3963:3996  contractInformations[_contractID] */\n      dup2\n      mstore\n      0x20\n      add\n      swap1\n      dup2\n      mstore\n      0x20\n      add\n      0x00\n      keccak256\n        /* \"contracts/RentContract.sol\":3963:4010  contractInformations[_contractID].tenantAddress */\n      0x01\n      add\n      0x00\n      swap1\n      sload\n      swap1\n      0x0100\n      exp\n      swap1\n      div\n      0xffffffffffffffffffffffffffffffffffffffff\n      and\n        /* \"contracts/RentContract.sol\":3963:4024  contractInformations[_contractID].tenantAddress == msg.sender */\n      0xffffffffffffffffffffffffffffffffffffffff\n      and\n      sub\n        /* \"contracts/RentContract.sol\":3959:4861  if (contractInformations[_contractID].tenantAddress == msg.sender) {... */\n      tag_191\n      jumpi\n        /* \"contracts/RentContract.sol\":4061:4076  uint finishDate */\n      0x00\n        /* \"contracts/RentContract.sol\":4079:4099  contractInformations */\n      0x04\n        /* \"contracts/RentContract.sol\":4079:4112  contractInformations[_contractID] */\n      0x00\n        /* \"contracts/RentContract.sol\":4100:4111  _contractID */\n      dup6\n        /* \"contracts/RentContract.sol\":4079:4112  contractInformations[_contractID] */\n      dup2\n      mstore\n      0x20\n      add\n      swap1\n      dup2\n      mstore\n      0x20\n      add\n      0x00\n      keccak256\n        /* \"contracts/RentContract.sol\":4079:4131  contractInformations[_contractID].contractFinishDate */\n      0x05\n      add\n      sload\n        /* \"contracts/RentContract.sol\":4061:4131  uint finishDate = contractInformations[_contractID].contractFinishDate */\n      swap1\n      pop\n        /* \"contracts/RentContract.sol\":4145:4164  uint lastFifteenDay */\n      0x00\n        /* \"contracts/RentContract.sol\":4186:4193  15 days */\n      0x13c680\n        /* \"contracts/RentContract.sol\":4167:4182  block.timestamp */\n      timestamp\n        /* \"contracts/RentContract.sol\":4167:4194  block.timestamp + (15 days) */\n      tag_192\n      swap2\n      swap1\n      tag_193\n      jump\t// in\n    tag_192:\n        /* \"contracts/RentContract.sol\":4145:4194  uint lastFifteenDay = block.timestamp + (15 days) */\n      swap1\n      pop\n        /* \"contracts/RentContract.sol\":4256:4270  lastFifteenDay */\n      dup1\n        /* \"contracts/RentContract.sol\":4243:4253  finishDate */\n      dup3\n        /* \"contracts/RentContract.sol\":4243:4270  finishDate < lastFifteenDay */\n      lt\n        /* \"contracts/RentContract.sol\":4235:4315  require(finishDate < lastFifteenDay, \"Not 15 days before the contract end date\") */\n      tag_194\n      jumpi\n      mload(0x40)\n      0x08c379a000000000000000000000000000000000000000000000000000000000\n      dup2\n      mstore\n      0x04\n      add\n      tag_195\n      swap1\n      tag_196\n      jump\t// in\n    tag_195:\n      mload(0x40)\n      dup1\n      swap2\n      sub\n      swap1\n      revert\n    tag_194:\n        /* \"contracts/RentContract.sol\":4345:4359  lastFifteenDay */\n      dup1\n        /* \"contracts/RentContract.sol\":4332:4342  finishDate */\n      dup3\n        /* \"contracts/RentContract.sol\":4332:4359  finishDate < lastFifteenDay */\n      lt\n        /* \"contracts/RentContract.sol\":4329:4844  if(finishDate < lastFifteenDay)... */\n      iszero\n      tag_197\n      jumpi\n        /* \"contracts/RentContract.sol\":4442:4446  true */\n      0x01\n        /* \"contracts/RentContract.sol\":4391:4411  contractInformations */\n      0x04\n        /* \"contracts/RentContract.sol\":4391:4424  contractInformations[_contractID] */\n      0x00\n        /* \"contracts/RentContract.sol\":4412:4423  _contractID */\n      dup8\n        /* \"contracts/RentContract.sol\":4391:4424  contractInformations[_contractID] */\n      dup2\n      mstore\n      0x20\n      add\n      swap1\n      dup2\n      mstore\n      0x20\n      add\n      0x00\n      keccak256\n        /* \"contracts/RentContract.sol\":4391:4439  contractInformations[_contractID].earlyTerminate */\n      0x06\n      add\n      0x01\n        /* \"contracts/RentContract.sol\":4391:4446  contractInformations[_contractID].earlyTerminate = true */\n      0x0100\n      exp\n      dup2\n      sload\n      dup2\n      0xff\n      mul\n      not\n      and\n      swap1\n      dup4\n      iszero\n      iszero\n      mul\n      or\n      swap1\n      sstore\n      pop\n        /* \"contracts/RentContract.sol\":4541:4546  false */\n      0x00\n        /* \"contracts/RentContract.sol\":4490:4510  contractInformations */\n      0x04\n        /* \"contracts/RentContract.sol\":4490:4523  contractInformations[_contractID] */\n      0x00\n        /* \"contracts/RentContract.sol\":4511:4522  _contractID */\n      dup8\n        /* \"contracts/RentContract.sol\":4490:4523  contractInformations[_contractID] */\n      dup2\n      mstore\n      0x20\n      add\n      swap1\n      dup2\n      mstore\n      0x20\n      add\n      0x00\n      keccak256\n        /* \"contracts/RentContract.sol\":4490:4538  contractInformations[_contractID].validityStatus */\n      0x06\n      add\n      0x00\n        /* \"contracts/RentContract.sol\":4490:4546  contractInformations[_contractID].validityStatus = false */\n      0x0100\n      exp\n      dup2\n      sload\n      dup2\n      0xff\n      mul\n      not\n      and\n      swap1\n      dup4\n      iszero\n      iszero\n      mul\n      or\n      swap1\n      sstore\n      pop\n        /* \"contracts/RentContract.sol\":4329:4844  if(finishDate < lastFifteenDay)... */\n      jump(tag_198)\n    tag_197:\n        /* \"contracts/RentContract.sol\":4690:4829  ContractTerminater(_contractID, contractInformations[_contractID].tenantAddress , _reason, contractInformations[_contractID].ownerAddress ) */\n      mload(0x40)\n      dup1\n      0x80\n      add\n      0x40\n      mstore\n      dup1\n        /* \"contracts/RentContract.sol\":4709:4720  _contractID */\n      dup7\n        /* \"contracts/RentContract.sol\":4690:4829  ContractTerminater(_contractID, contractInformations[_contractID].tenantAddress , _reason, contractInformations[_contractID].ownerAddress ) */\n      dup2\n      mstore\n      0x20\n      add\n        /* \"contracts/RentContract.sol\":4722:4742  contractInformations */\n      0x04\n        /* \"contracts/RentContract.sol\":4722:4755  contractInformations[_contractID] */\n      0x00\n        /* \"contracts/RentContract.sol\":4743:4754  _contractID */\n      dup9\n        /* \"contracts/RentContract.sol\":4722:4755  contractInformations[_contractID] */\n      dup2\n      mstore\n      0x20\n      add\n      swap1\n      dup2\n      mstore\n      0x20\n      add\n      0x00\n      keccak256\n        /* \"contracts/RentContract.sol\":4722:4769  contractInformations[_contractID].tenantAddress */\n      0x01\n      add\n      0x00\n      swap1\n      sload\n      swap1\n      0x0100\n      exp\n      swap1\n      div\n      0xffffffffffffffffffffffffffffffffffffffff\n      and\n        /* \"contracts/RentContract.sol\":4690:4829  ContractTerminater(_contractID, contractInformations[_contractID].tenantAddress , _reason, contractInformations[_contractID].ownerAddress ) */\n      0xffffffffffffffffffffffffffffffffffffffff\n      and\n      dup2\n      mstore\n      0x20\n      add\n        /* \"contracts/RentContract.sol\":4772:4779  _reason */\n      dup5\n        /* \"contracts/RentContract.sol\":4690:4829  ContractTerminater(_contractID, contractInformations[_contractID].tenantAddress , _reason, contractInformations[_contractID].ownerAddress ) */\n      dup2\n      mstore\n      0x20\n      add\n        /* \"contracts/RentContract.sol\":4781:4801  contractInformations */\n      0x04\n        /* \"contracts/RentContract.sol\":4781:4814  contractInformations[_contractID] */\n      0x00\n        /* \"contracts/RentContract.sol\":4802:4813  _contractID */\n      dup9\n        /* \"contracts/RentContract.sol\":4781:4814  contractInformations[_contractID] */\n      dup2\n      mstore\n      0x20\n      add\n      swap1\n      dup2\n      mstore\n      0x20\n      add\n      0x00\n      keccak256\n        /* \"contracts/RentContract.sol\":4781:4827  contractInformations[_contractID].ownerAddress */\n      0x00\n      add\n      0x00\n      swap1\n      sload\n      swap1\n      0x0100\n      exp\n      swap1\n      div\n      0xffffffffffffffffffffffffffffffffffffffff\n      and\n        /* \"contracts/RentContract.sol\":4690:4829  ContractTerminater(_contractID, contractInformations[_contractID].tenantAddress , _reason, contractInformations[_contractID].ownerAddress ) */\n      0xffffffffffffffffffffffffffffffffffffffff\n      and\n      dup2\n      mstore\n      pop\n        /* \"contracts/RentContract.sol\":4650:4674  contractTerminateReasons */\n      0x06\n        /* \"contracts/RentContract.sol\":4650:4687  contractTerminateReasons[_contractID] */\n      0x00\n        /* \"contracts/RentContract.sol\":4675:4686  _contractID */\n      dup8\n        /* \"contracts/RentContract.sol\":4650:4687  contractTerminateReasons[_contractID] */\n      dup2\n      mstore\n      0x20\n      add\n      swap1\n      dup2\n      mstore\n      0x20\n      add\n      0x00\n      keccak256\n        /* \"contracts/RentContract.sol\":4650:4829  contractTerminateReasons[_contractID] = ContractTerminater(_contractID, contractInformations[_contractID].tenantAddress , _reason, contractInformations[_contractID].ownerAddress ) */\n      0x00\n      dup3\n      add\n      mload\n      dup2\n      0x00\n      add\n      sstore\n      0x20\n      dup3\n      add\n      mload\n      dup2\n      0x01\n      add\n      exp(0x0100, 0x00)\n      dup2\n      sload\n      dup2\n      0xffffffffffffffffffffffffffffffffffffffff\n      mul\n      not\n      and\n      swap1\n      dup4\n      0xffffffffffffffffffffffffffffffffffffffff\n      and\n      mul\n      or\n      swap1\n      sstore\n      pop\n      0x40\n      dup3\n      add\n      mload\n      dup2\n      0x02\n      add\n      swap1\n      dup2\n      tag_199\n      swap2\n      swap1\n      tag_114\n      jump\t// in\n    tag_199:\n      pop\n      0x60\n      dup3\n      add\n      mload\n      dup2\n      0x03\n      add\n      exp(0x0100, 0x00)\n      dup2\n      sload\n      dup2\n      0xffffffffffffffffffffffffffffffffffffffff\n      mul\n      not\n      and\n      swap1\n      dup4\n      0xffffffffffffffffffffffffffffffffffffffff\n      and\n      mul\n      or\n      swap1\n      sstore\n      pop\n      swap1\n      pop\n      pop\n        /* \"contracts/RentContract.sol\":4329:4844  if(finishDate < lastFifteenDay)... */\n    tag_198:\n        /* \"contracts/RentContract.sol\":4026:4861  {... */\n      pop\n      pop\n        /* \"contracts/RentContract.sol\":3959:4861  if (contractInformations[_contractID].tenantAddress == msg.sender) {... */\n    tag_191:\n        /* \"contracts/RentContract.sol\":5002:5012  msg.sender */\n      caller\n        /* \"contracts/RentContract.sol\":4952:5012  contractInformations[_contractID].ownerAddress == msg.sender */\n      0xffffffffffffffffffffffffffffffffffffffff\n      and\n        /* \"contracts/RentContract.sol\":4952:4972  contractInformations */\n      0x04\n        /* \"contracts/RentContract.sol\":4952:4985  contractInformations[_contractID] */\n      0x00\n        /* \"contracts/RentContract.sol\":4973:4984  _contractID */\n      dup6\n        /* \"contracts/RentContract.sol\":4952:4985  contractInformations[_contractID] */\n      dup2\n      mstore\n      0x20\n      add\n      swap1\n      dup2\n      mstore\n      0x20\n      add\n      0x00\n      keccak256\n        /* \"contracts/RentContract.sol\":4952:4998  contractInformations[_contractID].ownerAddress */\n      0x00\n      add\n      0x00\n      swap1\n      sload\n      swap1\n      0x0100\n      exp\n      swap1\n      div\n      0xffffffffffffffffffffffffffffffffffffffff\n      and\n        /* \"contracts/RentContract.sol\":4952:5012  contractInformations[_contractID].ownerAddress == msg.sender */\n      0xffffffffffffffffffffffffffffffffffffffff\n      and\n      sub\n        /* \"contracts/RentContract.sol\":4948:6327  if (contractInformations[_contractID].ownerAddress == msg.sender) {... */\n      tag_200\n      jumpi\n        /* \"contracts/RentContract.sol\":5126:5137  _legitimate */\n      dup2\n        /* \"contracts/RentContract.sol\":5122:6317  if (_legitimate) {... */\n      iszero\n      tag_201\n      jumpi\n        /* \"contracts/RentContract.sol\":5198:5337  ContractTerminater(_contractID, contractInformations[_contractID].ownerAddress , _reason, contractInformations[_contractID].tenantAddress ) */\n      mload(0x40)\n      dup1\n      0x80\n      add\n      0x40\n      mstore\n      dup1\n        /* \"contracts/RentContract.sol\":5217:5228  _contractID */\n      dup5\n        /* \"contracts/RentContract.sol\":5198:5337  ContractTerminater(_contractID, contractInformations[_contractID].ownerAddress , _reason, contractInformations[_contractID].tenantAddress ) */\n      dup2\n      mstore\n      0x20\n      add\n        /* \"contracts/RentContract.sol\":5230:5250  contractInformations */\n      0x04\n        /* \"contracts/RentContract.sol\":5230:5263  contractInformations[_contractID] */\n      0x00\n        /* \"contracts/RentContract.sol\":5251:5262  _contractID */\n      dup7\n        /* \"contracts/RentContract.sol\":5230:5263  contractInformations[_contractID] */\n      dup2\n      mstore\n      0x20\n      add\n      swap1\n      dup2\n      mstore\n      0x20\n      add\n      0x00\n      keccak256\n        /* \"contracts/RentContract.sol\":5230:5276  contractInformations[_contractID].ownerAddress */\n      0x00\n      add\n      0x00\n      swap1\n      sload\n      swap1\n      0x0100\n      exp\n      swap1\n      div\n      0xffffffffffffffffffffffffffffffffffffffff\n      and\n        /* \"contracts/RentContract.sol\":5198:5337  ContractTerminater(_contractID, contractInformations[_contractID].ownerAddress , _reason, contractInformations[_contractID].tenantAddress ) */\n      0xffffffffffffffffffffffffffffffffffffffff\n      and\n      dup2\n      mstore\n      0x20\n      add\n        /* \"contracts/RentContract.sol\":5279:5286  _reason */\n      dup3\n        /* \"contracts/RentContract.sol\":5198:5337  ContractTerminater(_contractID, contractInformations[_contractID].ownerAddress , _reason, contractInformations[_contractID].tenantAddress ) */\n      dup2\n      mstore\n      0x20\n      add\n        /* \"contracts/RentContract.sol\":5288:5308  contractInformations */\n      0x04\n        /* \"contracts/RentContract.sol\":5288:5321  contractInformations[_contractID] */\n      0x00\n        /* \"contracts/RentContract.sol\":5309:5320  _contractID */\n      dup7\n        /* \"contracts/RentContract.sol\":5288:5321  contractInformations[_contractID] */\n      dup2\n      mstore\n      0x20\n      add\n      swap1\n      dup2\n      mstore\n      0x20\n      add\n      0x00\n      keccak256\n        /* \"contracts/RentContract.sol\":5288:5335  contractInformations[_contractID].tenantAddress */\n      0x01\n      add\n      0x00\n      swap1\n      sload\n      swap1\n      0x0100\n      exp\n      swap1\n      div\n      0xffffffffffffffffffffffffffffffffffffffff\n      and\n        /* \"contracts/RentContract.sol\":5198:5337  ContractTerminater(_contractID, contractInformations[_contractID].ownerAddress , _reason, contractInformations[_contractID].tenantAddress ) */\n      0xffffffffffffffffffffffffffffffffffffffff\n      and\n      dup2\n      mstore\n      pop\n        /* \"contracts/RentContract.sol\":5158:5182  contractTerminateReasons */\n      0x06\n        /* \"contracts/RentContract.sol\":5158:5195  contractTerminateReasons[_contractID] */\n      0x00\n        /* \"contracts/RentContract.sol\":5183:5194  _contractID */\n      dup6\n        /* \"contracts/RentContract.sol\":5158:5195  contractTerminateReasons[_contractID] */\n      dup2\n      mstore\n      0x20\n      add\n      swap1\n      dup2\n      mstore\n      0x20\n      add\n      0x00\n      keccak256\n        /* \"contracts/RentContract.sol\":5158:5337  contractTerminateReasons[_contractID] = ContractTerminater(_contractID, contractInformations[_contractID].ownerAddress , _reason, contractInformations[_contractID].tenantAddress ) */\n      0x00\n      dup3\n      add\n      mload\n      dup2\n      0x00\n      add\n      sstore\n      0x20\n      dup3\n      add\n      mload\n      dup2\n      0x01\n      add\n      exp(0x0100, 0x00)\n      dup2\n      sload\n      dup2\n      0xffffffffffffffffffffffffffffffffffffffff\n      mul\n      not\n      and\n      swap1\n      dup4\n      0xffffffffffffffffffffffffffffffffffffffff\n      and\n      mul\n      or\n      swap1\n      sstore\n      pop\n      0x40\n      dup3\n      add\n      mload\n      dup2\n      0x02\n      add\n      swap1\n      dup2\n      tag_202\n      swap2\n      swap1\n      tag_114\n      jump\t// in\n    tag_202:\n      pop\n      0x60\n      dup3\n      add\n      mload\n      dup2\n      0x03\n      add\n      exp(0x0100, 0x00)\n      dup2\n      sload\n      dup2\n      0xffffffffffffffffffffffffffffffffffffffff\n      mul\n      not\n      and\n      swap1\n      dup4\n      0xffffffffffffffffffffffffffffffffffffffff\n      and\n      mul\n      or\n      swap1\n      sstore\n      pop\n      swap1\n      pop\n      pop\n        /* \"contracts/RentContract.sol\":5122:6317  if (_legitimate) {... */\n      jump(tag_203)\n    tag_201:\n        /* \"contracts/RentContract.sol\":5610:5749  ContractTerminater(_contractID, contractInformations[_contractID].ownerAddress , _reason, contractInformations[_contractID].tenantAddress ) */\n      mload(0x40)\n      dup1\n      0x80\n      add\n      0x40\n      mstore\n      dup1\n        /* \"contracts/RentContract.sol\":5629:5640  _contractID */\n      dup5\n        /* \"contracts/RentContract.sol\":5610:5749  ContractTerminater(_contractID, contractInformations[_contractID].ownerAddress , _reason, contractInformations[_contractID].tenantAddress ) */\n      dup2\n      mstore\n      0x20\n      add\n        /* \"contracts/RentContract.sol\":5642:5662  contractInformations */\n      0x04\n        /* \"contracts/RentContract.sol\":5642:5675  contractInformations[_contractID] */\n      0x00\n        /* \"contracts/RentContract.sol\":5663:5674  _contractID */\n      dup7\n        /* \"contracts/RentContract.sol\":5642:5675  contractInformations[_contractID] */\n      dup2\n      mstore\n      0x20\n      add\n      swap1\n      dup2\n      mstore\n      0x20\n      add\n      0x00\n      keccak256\n        /* \"contracts/RentContract.sol\":5642:5688  contractInformations[_contractID].ownerAddress */\n      0x00\n      add\n      0x00\n      swap1\n      sload\n      swap1\n      0x0100\n      exp\n      swap1\n      div\n      0xffffffffffffffffffffffffffffffffffffffff\n      and\n        /* \"contracts/RentContract.sol\":5610:5749  ContractTerminater(_contractID, contractInformations[_contractID].ownerAddress , _reason, contractInformations[_contractID].tenantAddress ) */\n      0xffffffffffffffffffffffffffffffffffffffff\n      and\n      dup2\n      mstore\n      0x20\n      add\n        /* \"contracts/RentContract.sol\":5691:5698  _reason */\n      dup3\n        /* \"contracts/RentContract.sol\":5610:5749  ContractTerminater(_contractID, contractInformations[_contractID].ownerAddress , _reason, contractInformations[_contractID].tenantAddress ) */\n      dup2\n      mstore\n      0x20\n      add\n        /* \"contracts/RentContract.sol\":5700:5720  contractInformations */\n      0x04\n        /* \"contracts/RentContract.sol\":5700:5733  contractInformations[_contractID] */\n      0x00\n        /* \"contracts/RentContract.sol\":5721:5732  _contractID */\n      dup7\n        /* \"contracts/RentContract.sol\":5700:5733  contractInformations[_contractID] */\n      dup2\n      mstore\n      0x20\n      add\n      swap1\n      dup2\n      mstore\n      0x20\n      add\n      0x00\n      keccak256\n        /* \"contracts/RentContract.sol\":5700:5747  contractInformations[_contractID].tenantAddress */\n      0x01\n      add\n      0x00\n      swap1\n      sload\n      swap1\n      0x0100\n      exp\n      swap1\n      div\n      0xffffffffffffffffffffffffffffffffffffffff\n      and\n        /* \"contracts/RentContract.sol\":5610:5749  ContractTerminater(_contractID, contractInformations[_contractID].ownerAddress , _reason, contractInformations[_contractID].tenantAddress ) */\n      0xffffffffffffffffffffffffffffffffffffffff\n      and\n      dup2\n      mstore\n      pop\n        /* \"contracts/RentContract.sol\":5570:5594  contractTerminateReasons */\n      0x06\n        /* \"contracts/RentContract.sol\":5570:5607  contractTerminateReasons[_contractID] */\n      0x00\n        /* \"contracts/RentContract.sol\":5595:5606  _contractID */\n      dup6\n        /* \"contracts/RentContract.sol\":5570:5607  contractTerminateReasons[_contractID] */\n      dup2\n      mstore\n      0x20\n      add\n      swap1\n      dup2\n      mstore\n      0x20\n      add\n      0x00\n      keccak256\n        /* \"contracts/RentContract.sol\":5570:5749  contractTerminateReasons[_contractID] = ContractTerminater(_contractID, contractInformations[_contractID].ownerAddress , _reason, contractInformations[_contractID].tenantAddress ) */\n      0x00\n      dup3\n      add\n      mload\n      dup2\n      0x00\n      add\n      sstore\n      0x20\n      dup3\n      add\n      mload\n      dup2\n      0x01\n      add\n      exp(0x0100, 0x00)\n      dup2\n      sload\n      dup2\n      0xffffffffffffffffffffffffffffffffffffffff\n      mul\n      not\n      and\n      swap1\n      dup4\n      0xffffffffffffffffffffffffffffffffffffffff\n      and\n      mul\n      or\n      swap1\n      sstore\n      pop\n      0x40\n      dup3\n      add\n      mload\n      dup2\n      0x02\n      add\n      swap1\n      dup2\n      tag_204\n      swap2\n      swap1\n      tag_114\n      jump\t// in\n    tag_204:\n      pop\n      0x60\n      dup3\n      add\n      mload\n      dup2\n      0x03\n      add\n      exp(0x0100, 0x00)\n      dup2\n      sload\n      dup2\n      0xffffffffffffffffffffffffffffffffffffffff\n      mul\n      not\n      and\n      swap1\n      dup4\n      0xffffffffffffffffffffffffffffffffffffffff\n      and\n      mul\n      or\n      swap1\n      sstore\n      pop\n      swap1\n      pop\n      pop\n        /* \"contracts/RentContract.sol\":5927:6032  ContractTerminater(_contractID, contractInformations[_contractID].ownerAddress , _reason, ContractAdmin ) */\n      mload(0x40)\n      dup1\n      0x80\n      add\n      0x40\n      mstore\n      dup1\n        /* \"contracts/RentContract.sol\":5946:5957  _contractID */\n      dup5\n        /* \"contracts/RentContract.sol\":5927:6032  ContractTerminater(_contractID, contractInformations[_contractID].ownerAddress , _reason, ContractAdmin ) */\n      dup2\n      mstore\n      0x20\n      add\n        /* \"contracts/RentContract.sol\":5959:5979  contractInformations */\n      0x04\n        /* \"contracts/RentContract.sol\":5959:5992  contractInformations[_contractID] */\n      0x00\n        /* \"contracts/RentContract.sol\":5980:5991  _contractID */\n      dup7\n        /* \"contracts/RentContract.sol\":5959:5992  contractInformations[_contractID] */\n      dup2\n      mstore\n      0x20\n      add\n      swap1\n      dup2\n      mstore\n      0x20\n      add\n      0x00\n      keccak256\n        /* \"contracts/RentContract.sol\":5959:6005  contractInformations[_contractID].ownerAddress */\n      0x00\n      add\n      0x00\n      swap1\n      sload\n      swap1\n      0x0100\n      exp\n      swap1\n      div\n      0xffffffffffffffffffffffffffffffffffffffff\n      and\n        /* \"contracts/RentContract.sol\":5927:6032  ContractTerminater(_contractID, contractInformations[_contractID].ownerAddress , _reason, ContractAdmin ) */\n      0xffffffffffffffffffffffffffffffffffffffff\n      and\n      dup2\n      mstore\n      0x20\n      add\n        /* \"contracts/RentContract.sol\":6008:6015  _reason */\n      dup3\n        /* \"contracts/RentContract.sol\":5927:6032  ContractTerminater(_contractID, contractInformations[_contractID].ownerAddress , _reason, ContractAdmin ) */\n      dup2\n      mstore\n      0x20\n      add\n        /* \"contracts/RentContract.sol\":6017:6030  ContractAdmin */\n      0x00\n      dup1\n      sload\n      swap1\n      0x0100\n      exp\n      swap1\n      div\n      0xffffffffffffffffffffffffffffffffffffffff\n      and\n        /* \"contracts/RentContract.sol\":5927:6032  ContractTerminater(_contractID, contractInformations[_contractID].ownerAddress , _reason, ContractAdmin ) */\n      0xffffffffffffffffffffffffffffffffffffffff\n      and\n      dup2\n      mstore\n      pop\n        /* \"contracts/RentContract.sol\":5887:5911  contractTerminateReasons */\n      0x06\n        /* \"contracts/RentContract.sol\":5887:5924  contractTerminateReasons[_contractID] */\n      0x00\n        /* \"contracts/RentContract.sol\":5912:5923  _contractID */\n      dup6\n        /* \"contracts/RentContract.sol\":5887:5924  contractTerminateReasons[_contractID] */\n      dup2\n      mstore\n      0x20\n      add\n      swap1\n      dup2\n      mstore\n      0x20\n      add\n      0x00\n      keccak256\n        /* \"contracts/RentContract.sol\":5887:6032  contractTerminateReasons[_contractID] = ContractTerminater(_contractID, contractInformations[_contractID].ownerAddress , _reason, ContractAdmin ) */\n      0x00\n      dup3\n      add\n      mload\n      dup2\n      0x00\n      add\n      sstore\n      0x20\n      dup3\n      add\n      mload\n      dup2\n      0x01\n      add\n      exp(0x0100, 0x00)\n      dup2\n      sload\n      dup2\n      0xffffffffffffffffffffffffffffffffffffffff\n      mul\n      not\n      and\n      swap1\n      dup4\n      0xffffffffffffffffffffffffffffffffffffffff\n      and\n      mul\n      or\n      swap1\n      sstore\n      pop\n      0x40\n      dup3\n      add\n      mload\n      dup2\n      0x02\n      add\n      swap1\n      dup2\n      tag_205\n      swap2\n      swap1\n      tag_114\n      jump\t// in\n    tag_205:\n      pop\n      0x60\n      dup3\n      add\n      mload\n      dup2\n      0x03\n      add\n      exp(0x0100, 0x00)\n      dup2\n      sload\n      dup2\n      0xffffffffffffffffffffffffffffffffffffffff\n      mul\n      not\n      and\n      swap1\n      dup4\n      0xffffffffffffffffffffffffffffffffffffffff\n      and\n      mul\n      or\n      swap1\n      sstore\n      pop\n      swap1\n      pop\n      pop\n        /* \"contracts/RentContract.sol\":5122:6317  if (_legitimate) {... */\n    tag_203:\n        /* \"contracts/RentContract.sol\":4948:6327  if (contractInformations[_contractID].ownerAddress == msg.sender) {... */\n    tag_200:\n        /* \"contracts/RentContract.sol\":3445:6333  function contractTerminate(uint _contractID, bool _legitimate, string memory _reason) public {... */\n      pop\n      pop\n      pop\n      jump\t// out\n        /* \"#utility.yul\":7:82   */\n    tag_206:\n        /* \"#utility.yul\":40:46   */\n      0x00\n        /* \"#utility.yul\":73:75   */\n      0x40\n        /* \"#utility.yul\":67:76   */\n      mload\n        /* \"#utility.yul\":57:76   */\n      swap1\n      pop\n        /* \"#utility.yul\":7:82   */\n      swap1\n      jump\t// out\n        /* \"#utility.yul\":88:205   */\n    tag_207:\n        /* \"#utility.yul\":197:198   */\n      0x00\n        /* \"#utility.yul\":194:195   */\n      dup1\n        /* \"#utility.yul\":187:199   */\n      revert\n        /* \"#utility.yul\":211:328   */\n    tag_208:\n        /* \"#utility.yul\":320:321   */\n      0x00\n        /* \"#utility.yul\":317:318   */\n      dup1\n        /* \"#utility.yul\":310:322   */\n      revert\n        /* \"#utility.yul\":334:460   */\n    tag_209:\n        /* \"#utility.yul\":371:378   */\n      0x00\n        /* \"#utility.yul\":411:453   */\n      0xffffffffffffffffffffffffffffffffffffffff\n        /* \"#utility.yul\":404:409   */\n      dup3\n        /* \"#utility.yul\":400:454   */\n      and\n        /* \"#utility.yul\":389:454   */\n      swap1\n      pop\n        /* \"#utility.yul\":334:460   */\n      swap2\n      swap1\n      pop\n      jump\t// out\n        /* \"#utility.yul\":466:562   */\n    tag_210:\n        /* \"#utility.yul\":503:510   */\n      0x00\n        /* \"#utility.yul\":532:556   */\n      tag_289\n        /* \"#utility.yul\":550:555   */\n      dup3\n        /* \"#utility.yul\":532:556   */\n      tag_209\n      jump\t// in\n    tag_289:\n        /* \"#utility.yul\":521:556   */\n      swap1\n      pop\n        /* \"#utility.yul\":466:562   */\n      swap2\n      swap1\n      pop\n      jump\t// out\n        /* \"#utility.yul\":568:690   */\n    tag_211:\n        /* \"#utility.yul\":641:665   */\n      tag_291\n        /* \"#utility.yul\":659:664   */\n      dup2\n        /* \"#utility.yul\":641:665   */\n      tag_210\n      jump\t// in\n    tag_291:\n        /* \"#utility.yul\":634:639   */\n      dup2\n        /* \"#utility.yul\":631:666   */\n      eq\n        /* \"#utility.yul\":621:684   */\n      tag_292\n      jumpi\n        /* \"#utility.yul\":680:681   */\n      0x00\n        /* \"#utility.yul\":677:678   */\n      dup1\n        /* \"#utility.yul\":670:682   */\n      revert\n        /* \"#utility.yul\":621:684   */\n    tag_292:\n        /* \"#utility.yul\":568:690   */\n      pop\n      jump\t// out\n        /* \"#utility.yul\":696:835   */\n    tag_212:\n        /* \"#utility.yul\":742:747   */\n      0x00\n        /* \"#utility.yul\":780:786   */\n      dup2\n        /* \"#utility.yul\":767:787   */\n      calldataload\n        /* \"#utility.yul\":758:787   */\n      swap1\n      pop\n        /* \"#utility.yul\":796:829   */\n      tag_294\n        /* \"#utility.yul\":823:828   */\n      dup2\n        /* \"#utility.yul\":796:829   */\n      tag_211\n      jump\t// in\n    tag_294:\n        /* \"#utility.yul\":696:835   */\n      swap3\n      swap2\n      pop\n      pop\n      jump\t// out\n        /* \"#utility.yul\":841:1170   */\n    tag_23:\n        /* \"#utility.yul\":900:906   */\n      0x00\n        /* \"#utility.yul\":949:951   */\n      0x20\n        /* \"#utility.yul\":937:946   */\n      dup3\n        /* \"#utility.yul\":928:935   */\n      dup5\n        /* \"#utility.yul\":924:947   */\n      sub\n        /* \"#utility.yul\":920:952   */\n      slt\n        /* \"#utility.yul\":917:1036   */\n      iszero\n      tag_296\n      jumpi\n        /* \"#utility.yul\":955:1034   */\n      tag_297\n      tag_207\n      jump\t// in\n    tag_297:\n        /* \"#utility.yul\":917:1036   */\n    tag_296:\n        /* \"#utility.yul\":1075:1076   */\n      0x00\n        /* \"#utility.yul\":1100:1153   */\n      tag_298\n        /* \"#utility.yul\":1145:1152   */\n      dup5\n        /* \"#utility.yul\":1136:1142   */\n      dup3\n        /* \"#utility.yul\":1125:1134   */\n      dup6\n        /* \"#utility.yul\":1121:1143   */\n      add\n        /* \"#utility.yul\":1100:1153   */\n      tag_212\n      jump\t// in\n    tag_298:\n        /* \"#utility.yul\":1090:1153   */\n      swap2\n      pop\n        /* \"#utility.yul\":1046:1163   */\n      pop\n        /* \"#utility.yul\":841:1170   */\n      swap3\n      swap2\n      pop\n      pop\n      jump\t// out\n        /* \"#utility.yul\":1176:1275   */\n    tag_213:\n        /* \"#utility.yul\":1228:1234   */\n      0x00\n        /* \"#utility.yul\":1262:1267   */\n      dup2\n        /* \"#utility.yul\":1256:1268   */\n      mload\n        /* \"#utility.yul\":1246:1268   */\n      swap1\n      pop\n        /* \"#utility.yul\":1176:1275   */\n      swap2\n      swap1\n      pop\n      jump\t// out\n        /* \"#utility.yul\":1281:1450   */\n    tag_214:\n        /* \"#utility.yul\":1365:1376   */\n      0x00\n        /* \"#utility.yul\":1399:1405   */\n      dup3\n        /* \"#utility.yul\":1394:1397   */\n      dup3\n        /* \"#utility.yul\":1387:1406   */\n      mstore\n        /* \"#utility.yul\":1439:1443   */\n      0x20\n        /* \"#utility.yul\":1434:1437   */\n      dup3\n        /* \"#utility.yul\":1430:1444   */\n      add\n        /* \"#utility.yul\":1415:1444   */\n      swap1\n      pop\n        /* \"#utility.yul\":1281:1450   */\n      swap3\n      swap2\n      pop\n      pop\n      jump\t// out\n        /* \"#utility.yul\":1456:1702   */\n    tag_215:\n        /* \"#utility.yul\":1537:1538   */\n      0x00\n        /* \"#utility.yul\":1547:1660   */\n    tag_302:\n        /* \"#utility.yul\":1561:1567   */\n      dup4\n        /* \"#utility.yul\":1558:1559   */\n      dup2\n        /* \"#utility.yul\":1555:1568   */\n      lt\n        /* \"#utility.yul\":1547:1660   */\n      iszero\n      tag_304\n      jumpi\n        /* \"#utility.yul\":1646:1647   */\n      dup1\n        /* \"#utility.yul\":1641:1644   */\n      dup3\n        /* \"#utility.yul\":1637:1648   */\n      add\n        /* \"#utility.yul\":1631:1649   */\n      mload\n        /* \"#utility.yul\":1627:1628   */\n      dup2\n        /* \"#utility.yul\":1622:1625   */\n      dup5\n        /* \"#utility.yul\":1618:1629   */\n      add\n        /* \"#utility.yul\":1611:1650   */\n      mstore\n        /* \"#utility.yul\":1583:1585   */\n      0x20\n        /* \"#utility.yul\":1580:1581   */\n      dup2\n        /* \"#utility.yul\":1576:1586   */\n      add\n        /* \"#utility.yul\":1571:1586   */\n      swap1\n      pop\n        /* \"#utility.yul\":1547:1660   */\n      jump(tag_302)\n    tag_304:\n        /* \"#utility.yul\":1694:1695   */\n      0x00\n        /* \"#utility.yul\":1685:1691   */\n      dup5\n        /* \"#utility.yul\":1680:1683   */\n      dup5\n        /* \"#utility.yul\":1676:1692   */\n      add\n        /* \"#utility.yul\":1669:1696   */\n      mstore\n        /* \"#utility.yul\":1518:1702   */\n      pop\n        /* \"#utility.yul\":1456:1702   */\n      pop\n      pop\n      pop\n      jump\t// out\n        /* \"#utility.yul\":1708:1810   */\n    tag_216:\n        /* \"#utility.yul\":1749:1755   */\n      0x00\n        /* \"#utility.yul\":1800:1802   */\n      0x1f\n        /* \"#utility.yul\":1796:1803   */\n      not\n        /* \"#utility.yul\":1791:1793   */\n      0x1f\n        /* \"#utility.yul\":1784:1789   */\n      dup4\n        /* \"#utility.yul\":1780:1794   */\n      add\n        /* \"#utility.yul\":1776:1804   */\n      and\n        /* \"#utility.yul\":1766:1804   */\n      swap1\n      pop\n        /* \"#utility.yul\":1708:1810   */\n      swap2\n      swap1\n      pop\n      jump\t// out\n        /* \"#utility.yul\":1816:2193   */\n    tag_217:\n        /* \"#utility.yul\":1904:1907   */\n      0x00\n        /* \"#utility.yul\":1932:1971   */\n      tag_307\n        /* \"#utility.yul\":1965:1970   */\n      dup3\n        /* \"#utility.yul\":1932:1971   */\n      tag_213\n      jump\t// in\n    tag_307:\n        /* \"#utility.yul\":1987:2058   */\n      tag_308\n        /* \"#utility.yul\":2051:2057   */\n      dup2\n        /* \"#utility.yul\":2046:2049   */\n      dup6\n        /* \"#utility.yul\":1987:2058   */\n      tag_214\n      jump\t// in\n    tag_308:\n        /* \"#utility.yul\":1980:2058   */\n      swap4\n      pop\n        /* \"#utility.yul\":2067:2132   */\n      tag_309\n        /* \"#utility.yul\":2125:2131   */\n      dup2\n        /* \"#utility.yul\":2120:2123   */\n      dup6\n        /* \"#utility.yul\":2113:2117   */\n      0x20\n        /* \"#utility.yul\":2106:2111   */\n      dup7\n        /* \"#utility.yul\":2102:2118   */\n      add\n        /* \"#utility.yul\":2067:2132   */\n      tag_215\n      jump\t// in\n    tag_309:\n        /* \"#utility.yul\":2157:2186   */\n      tag_310\n        /* \"#utility.yul\":2179:2185   */\n      dup2\n        /* \"#utility.yul\":2157:2186   */\n      tag_216\n      jump\t// in\n    tag_310:\n        /* \"#utility.yul\":2152:2155   */\n      dup5\n        /* \"#utility.yul\":2148:2187   */\n      add\n        /* \"#utility.yul\":2141:2187   */\n      swap2\n      pop\n        /* \"#utility.yul\":1908:2193   */\n      pop\n        /* \"#utility.yul\":1816:2193   */\n      swap3\n      swap2\n      pop\n      pop\n      jump\t// out\n        /* \"#utility.yul\":2199:2317   */\n    tag_218:\n        /* \"#utility.yul\":2286:2310   */\n      tag_312\n        /* \"#utility.yul\":2304:2309   */\n      dup2\n        /* \"#utility.yul\":2286:2310   */\n      tag_210\n      jump\t// in\n    tag_312:\n        /* \"#utility.yul\":2281:2284   */\n      dup3\n        /* \"#utility.yul\":2274:2311   */\n      mstore\n        /* \"#utility.yul\":2199:2317   */\n      pop\n      pop\n      jump\t// out\n        /* \"#utility.yul\":2323:2413   */\n    tag_219:\n        /* \"#utility.yul\":2357:2364   */\n      0x00\n        /* \"#utility.yul\":2400:2405   */\n      dup2\n        /* \"#utility.yul\":2393:2406   */\n      iszero\n        /* \"#utility.yul\":2386:2407   */\n      iszero\n        /* \"#utility.yul\":2375:2407   */\n      swap1\n      pop\n        /* \"#utility.yul\":2323:2413   */\n      swap2\n      swap1\n      pop\n      jump\t// out\n        /* \"#utility.yul\":2419:2528   */\n    tag_220:\n        /* \"#utility.yul\":2500:2521   */\n      tag_315\n        /* \"#utility.yul\":2515:2520   */\n      dup2\n        /* \"#utility.yul\":2500:2521   */\n      tag_219\n      jump\t// in\n    tag_315:\n        /* \"#utility.yul\":2495:2498   */\n      dup3\n        /* \"#utility.yul\":2488:2522   */\n      mstore\n        /* \"#utility.yul\":2419:2528   */\n      pop\n      pop\n      jump\t// out\n        /* \"#utility.yul\":2534:3055   */\n    tag_26:\n        /* \"#utility.yul\":2697:2701   */\n      0x00\n        /* \"#utility.yul\":2735:2737   */\n      0x60\n        /* \"#utility.yul\":2724:2733   */\n      dup3\n        /* \"#utility.yul\":2720:2738   */\n      add\n        /* \"#utility.yul\":2712:2738   */\n      swap1\n      pop\n        /* \"#utility.yul\":2784:2793   */\n      dup2\n        /* \"#utility.yul\":2778:2782   */\n      dup2\n        /* \"#utility.yul\":2774:2794   */\n      sub\n        /* \"#utility.yul\":2770:2771   */\n      0x00\n        /* \"#utility.yul\":2759:2768   */\n      dup4\n        /* \"#utility.yul\":2755:2772   */\n      add\n        /* \"#utility.yul\":2748:2795   */\n      mstore\n        /* \"#utility.yul\":2812:2890   */\n      tag_317\n        /* \"#utility.yul\":2885:2889   */\n      dup2\n        /* \"#utility.yul\":2876:2882   */\n      dup7\n        /* \"#utility.yul\":2812:2890   */\n      tag_217\n      jump\t// in\n    tag_317:\n        /* \"#utility.yul\":2804:2890   */\n      swap1\n      pop\n        /* \"#utility.yul\":2900:2972   */\n      tag_318\n        /* \"#utility.yul\":2968:2970   */\n      0x20\n        /* \"#utility.yul\":2957:2966   */\n      dup4\n        /* \"#utility.yul\":2953:2971   */\n      add\n        /* \"#utility.yul\":2944:2950   */\n      dup6\n        /* \"#utility.yul\":2900:2972   */\n      tag_218\n      jump\t// in\n    tag_318:\n        /* \"#utility.yul\":2982:3048   */\n      tag_319\n        /* \"#utility.yul\":3044:3046   */\n      0x40\n        /* \"#utility.yul\":3033:3042   */\n      dup4\n        /* \"#utility.yul\":3029:3047   */\n      add\n        /* \"#utility.yul\":3020:3026   */\n      dup5\n        /* \"#utility.yul\":2982:3048   */\n      tag_220\n      jump\t// in\n    tag_319:\n        /* \"#utility.yul\":2534:3055   */\n      swap5\n      swap4\n      pop\n      pop\n      pop\n      pop\n      jump\t// out\n        /* \"#utility.yul\":3061:3271   */\n    tag_31:\n        /* \"#utility.yul\":3148:3152   */\n      0x00\n        /* \"#utility.yul\":3186:3188   */\n      0x20\n        /* \"#utility.yul\":3175:3184   */\n      dup3\n        /* \"#utility.yul\":3171:3189   */\n      add\n        /* \"#utility.yul\":3163:3189   */\n      swap1\n      pop\n        /* \"#utility.yul\":3199:3264   */\n      tag_321\n        /* \"#utility.yul\":3261:3262   */\n      0x00\n        /* \"#utility.yul\":3250:3259   */\n      dup4\n        /* \"#utility.yul\":3246:3263   */\n      add\n        /* \"#utility.yul\":3237:3243   */\n      dup5\n        /* \"#utility.yul\":3199:3264   */\n      tag_220\n      jump\t// in\n    tag_321:\n        /* \"#utility.yul\":3061:3271   */\n      swap3\n      swap2\n      pop\n      pop\n      jump\t// out\n        /* \"#utility.yul\":3277:3499   */\n    tag_35:\n        /* \"#utility.yul\":3370:3374   */\n      0x00\n        /* \"#utility.yul\":3408:3410   */\n      0x20\n        /* \"#utility.yul\":3397:3406   */\n      dup3\n        /* \"#utility.yul\":3393:3411   */\n      add\n        /* \"#utility.yul\":3385:3411   */\n      swap1\n      pop\n        /* \"#utility.yul\":3421:3492   */\n      tag_323\n        /* \"#utility.yul\":3489:3490   */\n      0x00\n        /* \"#utility.yul\":3478:3487   */\n      dup4\n        /* \"#utility.yul\":3474:3491   */\n      add\n        /* \"#utility.yul\":3465:3471   */\n      dup5\n        /* \"#utility.yul\":3421:3492   */\n      tag_218\n      jump\t// in\n    tag_323:\n        /* \"#utility.yul\":3277:3499   */\n      swap3\n      swap2\n      pop\n      pop\n      jump\t// out\n        /* \"#utility.yul\":3505:3582   */\n    tag_221:\n        /* \"#utility.yul\":3542:3549   */\n      0x00\n        /* \"#utility.yul\":3571:3576   */\n      dup2\n        /* \"#utility.yul\":3560:3576   */\n      swap1\n      pop\n        /* \"#utility.yul\":3505:3582   */\n      swap2\n      swap1\n      pop\n      jump\t// out\n        /* \"#utility.yul\":3588:3710   */\n    tag_222:\n        /* \"#utility.yul\":3661:3685   */\n      tag_326\n        /* \"#utility.yul\":3679:3684   */\n      dup2\n        /* \"#utility.yul\":3661:3685   */\n      tag_221\n      jump\t// in\n    tag_326:\n        /* \"#utility.yul\":3654:3659   */\n      dup2\n        /* \"#utility.yul\":3651:3686   */\n      eq\n        /* \"#utility.yul\":3641:3704   */\n      tag_327\n      jumpi\n        /* \"#utility.yul\":3700:3701   */\n      0x00\n        /* \"#utility.yul\":3697:3698   */\n      dup1\n        /* \"#utility.yul\":3690:3702   */\n      revert\n        /* \"#utility.yul\":3641:3704   */\n    tag_327:\n        /* \"#utility.yul\":3588:3710   */\n      pop\n      jump\t// out\n        /* \"#utility.yul\":3716:3855   */\n    tag_223:\n        /* \"#utility.yul\":3762:3767   */\n      0x00\n        /* \"#utility.yul\":3800:3806   */\n      dup2\n        /* \"#utility.yul\":3787:3807   */\n      calldataload\n        /* \"#utility.yul\":3778:3807   */\n      swap1\n      pop\n        /* \"#utility.yul\":3816:3849   */\n      tag_329\n        /* \"#utility.yul\":3843:3848   */\n      dup2\n        /* \"#utility.yul\":3816:3849   */\n      tag_222\n      jump\t// in\n    tag_329:\n        /* \"#utility.yul\":3716:3855   */\n      swap3\n      swap2\n      pop\n      pop\n      jump\t// out\n        /* \"#utility.yul\":3861:3977   */\n    tag_224:\n        /* \"#utility.yul\":3931:3952   */\n      tag_331\n        /* \"#utility.yul\":3946:3951   */\n      dup2\n        /* \"#utility.yul\":3931:3952   */\n      tag_219\n      jump\t// in\n    tag_331:\n        /* \"#utility.yul\":3924:3929   */\n      dup2\n        /* \"#utility.yul\":3921:3953   */\n      eq\n        /* \"#utility.yul\":3911:3971   */\n      tag_332\n      jumpi\n        /* \"#utility.yul\":3967:3968   */\n      0x00\n        /* \"#utility.yul\":3964:3965   */\n      dup1\n        /* \"#utility.yul\":3957:3969   */\n      revert\n        /* \"#utility.yul\":3911:3971   */\n    tag_332:\n        /* \"#utility.yul\":3861:3977   */\n      pop\n      jump\t// out\n        /* \"#utility.yul\":3983:4116   */\n    tag_225:\n        /* \"#utility.yul\":4026:4031   */\n      0x00\n        /* \"#utility.yul\":4064:4070   */\n      dup2\n        /* \"#utility.yul\":4051:4071   */\n      calldataload\n        /* \"#utility.yul\":4042:4071   */\n      swap1\n      pop\n        /* \"#utility.yul\":4080:4110   */\n      tag_334\n        /* \"#utility.yul\":4104:4109   */\n      dup2\n        /* \"#utility.yul\":4080:4110   */\n      tag_224\n      jump\t// in\n    tag_334:\n        /* \"#utility.yul\":3983:4116   */\n      swap3\n      swap2\n      pop\n      pop\n      jump\t// out\n        /* \"#utility.yul\":4122:4590   */\n    tag_38:\n        /* \"#utility.yul\":4187:4193   */\n      0x00\n        /* \"#utility.yul\":4195:4201   */\n      dup1\n        /* \"#utility.yul\":4244:4246   */\n      0x40\n        /* \"#utility.yul\":4232:4241   */\n      dup4\n        /* \"#utility.yul\":4223:4230   */\n      dup6\n        /* \"#utility.yul\":4219:4242   */\n      sub\n        /* \"#utility.yul\":4215:4247   */\n      slt\n        /* \"#utility.yul\":4212:4331   */\n      iszero\n      tag_336\n      jumpi\n        /* \"#utility.yul\":4250:4329   */\n      tag_337\n      tag_207\n      jump\t// in\n    tag_337:\n        /* \"#utility.yul\":4212:4331   */\n    tag_336:\n        /* \"#utility.yul\":4370:4371   */\n      0x00\n        /* \"#utility.yul\":4395:4448   */\n      tag_338\n        /* \"#utility.yul\":4440:4447   */\n      dup6\n        /* \"#utility.yul\":4431:4437   */\n      dup3\n        /* \"#utility.yul\":4420:4429   */\n      dup7\n        /* \"#utility.yul\":4416:4438   */\n      add\n        /* \"#utility.yul\":4395:4448   */\n      tag_223\n      jump\t// in\n    tag_338:\n        /* \"#utility.yul\":4385:4448   */\n      swap3\n      pop\n        /* \"#utility.yul\":4341:4458   */\n      pop\n        /* \"#utility.yul\":4497:4499   */\n      0x20\n        /* \"#utility.yul\":4523:4573   */\n      tag_339\n        /* \"#utility.yul\":4565:4572   */\n      dup6\n        /* \"#utility.yul\":4556:4562   */\n      dup3\n        /* \"#utility.yul\":4545:4554   */\n      dup7\n        /* \"#utility.yul\":4541:4563   */\n      add\n        /* \"#utility.yul\":4523:4573   */\n      tag_225\n      jump\t// in\n    tag_339:\n        /* \"#utility.yul\":4513:4573   */\n      swap2\n      pop\n        /* \"#utility.yul\":4468:4583   */\n      pop\n        /* \"#utility.yul\":4122:4590   */\n      swap3\n      pop\n      swap3\n      swap1\n      pop\n      jump\t// out\n        /* \"#utility.yul\":4596:4925   */\n    tag_46:\n        /* \"#utility.yul\":4655:4661   */\n      0x00\n        /* \"#utility.yul\":4704:4706   */\n      0x20\n        /* \"#utility.yul\":4692:4701   */\n      dup3\n        /* \"#utility.yul\":4683:4690   */\n      dup5\n        /* \"#utility.yul\":4679:4702   */\n      sub\n        /* \"#utility.yul\":4675:4707   */\n      slt\n        /* \"#utility.yul\":4672:4791   */\n      iszero\n      tag_341\n      jumpi\n        /* \"#utility.yul\":4710:4789   */\n      tag_342\n      tag_207\n      jump\t// in\n    tag_342:\n        /* \"#utility.yul\":4672:4791   */\n    tag_341:\n        /* \"#utility.yul\":4830:4831   */\n      0x00\n        /* \"#utility.yul\":4855:4908   */\n      tag_343\n        /* \"#utility.yul\":4900:4907   */\n      dup5\n        /* \"#utility.yul\":4891:4897   */\n      dup3\n        /* \"#utility.yul\":4880:4889   */\n      dup6\n        /* \"#utility.yul\":4876:4898   */\n      add\n        /* \"#utility.yul\":4855:4908   */\n      tag_223\n      jump\t// in\n    tag_343:\n        /* \"#utility.yul\":4845:4908   */\n      swap2\n      pop\n        /* \"#utility.yul\":4801:4918   */\n      pop\n        /* \"#utility.yul\":4596:4925   */\n      swap3\n      swap2\n      pop\n      pop\n      jump\t// out\n        /* \"#utility.yul\":4931:5049   */\n    tag_226:\n        /* \"#utility.yul\":5018:5042   */\n      tag_345\n        /* \"#utility.yul\":5036:5041   */\n      dup2\n        /* \"#utility.yul\":5018:5042   */\n      tag_221\n      jump\t// in\n    tag_345:\n        /* \"#utility.yul\":5013:5016   */\n      dup3\n        /* \"#utility.yul\":5006:5043   */\n      mstore\n        /* \"#utility.yul\":4931:5049   */\n      pop\n      pop\n      jump\t// out\n        /* \"#utility.yul\":5055:5810   */\n    tag_49:\n        /* \"#utility.yul\":5280:5284   */\n      0x00\n        /* \"#utility.yul\":5318:5321   */\n      0xa0\n        /* \"#utility.yul\":5307:5316   */\n      dup3\n        /* \"#utility.yul\":5303:5322   */\n      add\n        /* \"#utility.yul\":5295:5322   */\n      swap1\n      pop\n        /* \"#utility.yul\":5332:5403   */\n      tag_347\n        /* \"#utility.yul\":5400:5401   */\n      0x00\n        /* \"#utility.yul\":5389:5398   */\n      dup4\n        /* \"#utility.yul\":5385:5402   */\n      add\n        /* \"#utility.yul\":5376:5382   */\n      dup9\n        /* \"#utility.yul\":5332:5403   */\n      tag_226\n      jump\t// in\n    tag_347:\n        /* \"#utility.yul\":5413:5485   */\n      tag_348\n        /* \"#utility.yul\":5481:5483   */\n      0x20\n        /* \"#utility.yul\":5470:5479   */\n      dup4\n        /* \"#utility.yul\":5466:5484   */\n      add\n        /* \"#utility.yul\":5457:5463   */\n      dup8\n        /* \"#utility.yul\":5413:5485   */\n      tag_218\n      jump\t// in\n    tag_348:\n        /* \"#utility.yul\":5495:5567   */\n      tag_349\n        /* \"#utility.yul\":5563:5565   */\n      0x40\n        /* \"#utility.yul\":5552:5561   */\n      dup4\n        /* \"#utility.yul\":5548:5566   */\n      add\n        /* \"#utility.yul\":5539:5545   */\n      dup7\n        /* \"#utility.yul\":5495:5567   */\n      tag_218\n      jump\t// in\n    tag_349:\n        /* \"#utility.yul\":5614:5623   */\n      dup2\n        /* \"#utility.yul\":5608:5612   */\n      dup2\n        /* \"#utility.yul\":5604:5624   */\n      sub\n        /* \"#utility.yul\":5599:5601   */\n      0x60\n        /* \"#utility.yul\":5588:5597   */\n      dup4\n        /* \"#utility.yul\":5584:5602   */\n      add\n        /* \"#utility.yul\":5577:5625   */\n      mstore\n        /* \"#utility.yul\":5642:5720   */\n      tag_350\n        /* \"#utility.yul\":5715:5719   */\n      dup2\n        /* \"#utility.yul\":5706:5712   */\n      dup6\n        /* \"#utility.yul\":5642:5720   */\n      tag_217\n      jump\t// in\n    tag_350:\n        /* \"#utility.yul\":5634:5720   */\n      swap1\n      pop\n        /* \"#utility.yul\":5730:5803   */\n      tag_351\n        /* \"#utility.yul\":5798:5801   */\n      0x80\n        /* \"#utility.yul\":5787:5796   */\n      dup4\n        /* \"#utility.yul\":5783:5802   */\n      add\n        /* \"#utility.yul\":5774:5780   */\n      dup5\n        /* \"#utility.yul\":5730:5803   */\n      tag_218\n      jump\t// in\n    tag_351:\n        /* \"#utility.yul\":5055:5810   */\n      swap7\n      swap6\n      pop\n      pop\n      pop\n      pop\n      pop\n      pop\n      jump\t// out\n        /* \"#utility.yul\":5816:5933   */\n    tag_227:\n        /* \"#utility.yul\":5925:5926   */\n      0x00\n        /* \"#utility.yul\":5922:5923   */\n      dup1\n        /* \"#utility.yul\":5915:5927   */\n      revert\n        /* \"#utility.yul\":5939:6056   */\n    tag_228:\n        /* \"#utility.yul\":6048:6049   */\n      0x00\n        /* \"#utility.yul\":6045:6046   */\n      dup1\n        /* \"#utility.yul\":6038:6050   */\n      revert\n        /* \"#utility.yul\":6062:6242   */\n    tag_229:\n        /* \"#utility.yul\":6110:6187   */\n      0x4e487b7100000000000000000000000000000000000000000000000000000000\n        /* \"#utility.yul\":6107:6108   */\n      0x00\n        /* \"#utility.yul\":6100:6188   */\n      mstore\n        /* \"#utility.yul\":6207:6211   */\n      0x41\n        /* \"#utility.yul\":6204:6205   */\n      0x04\n        /* \"#utility.yul\":6197:6212   */\n      mstore\n        /* \"#utility.yul\":6231:6235   */\n      0x24\n        /* \"#utility.yul\":6228:6229   */\n      0x00\n        /* \"#utility.yul\":6221:6236   */\n      revert\n        /* \"#utility.yul\":6248:6529   */\n    tag_230:\n        /* \"#utility.yul\":6331:6358   */\n      tag_356\n        /* \"#utility.yul\":6353:6357   */\n      dup3\n        /* \"#utility.yul\":6331:6358   */\n      tag_216\n      jump\t// in\n    tag_356:\n        /* \"#utility.yul\":6323:6329   */\n      dup2\n        /* \"#utility.yul\":6319:6359   */\n      add\n        /* \"#utility.yul\":6461:6467   */\n      dup2\n        /* \"#utility.yul\":6449:6459   */\n      dup2\n        /* \"#utility.yul\":6446:6468   */\n      lt\n        /* \"#utility.yul\":6425:6443   */\n      0xffffffffffffffff\n        /* \"#utility.yul\":6413:6423   */\n      dup3\n        /* \"#utility.yul\":6410:6444   */\n      gt\n        /* \"#utility.yul\":6407:6469   */\n      or\n        /* \"#utility.yul\":6404:6492   */\n      iszero\n      tag_357\n      jumpi\n        /* \"#utility.yul\":6472:6490   */\n      tag_358\n      tag_229\n      jump\t// in\n    tag_358:\n        /* \"#utility.yul\":6404:6492   */\n    tag_357:\n        /* \"#utility.yul\":6512:6522   */\n      dup1\n        /* \"#utility.yul\":6508:6510   */\n      0x40\n        /* \"#utility.yul\":6501:6523   */\n      mstore\n        /* \"#utility.yul\":6291:6529   */\n      pop\n        /* \"#utility.yul\":6248:6529   */\n      pop\n      pop\n      jump\t// out\n        /* \"#utility.yul\":6535:6664   */\n    tag_231:\n        /* \"#utility.yul\":6569:6575   */\n      0x00\n        /* \"#utility.yul\":6596:6616   */\n      tag_360\n      tag_206\n      jump\t// in\n    tag_360:\n        /* \"#utility.yul\":6586:6616   */\n      swap1\n      pop\n        /* \"#utility.yul\":6625:6658   */\n      tag_361\n        /* \"#utility.yul\":6653:6657   */\n      dup3\n        /* \"#utility.yul\":6645:6651   */\n      dup3\n        /* \"#utility.yul\":6625:6658   */\n      tag_230\n      jump\t// in\n    tag_361:\n        /* \"#utility.yul\":6535:6664   */\n      swap2\n      swap1\n      pop\n      jump\t// out\n        /* \"#utility.yul\":6670:6978   */\n    tag_232:\n        /* \"#utility.yul\":6732:6736   */\n      0x00\n        /* \"#utility.yul\":6822:6840   */\n      0xffffffffffffffff\n        /* \"#utility.yul\":6814:6820   */\n      dup3\n        /* \"#utility.yul\":6811:6841   */\n      gt\n        /* \"#utility.yul\":6808:6864   */\n      iszero\n      tag_363\n      jumpi\n        /* \"#utility.yul\":6844:6862   */\n      tag_364\n      tag_229\n      jump\t// in\n    tag_364:\n        /* \"#utility.yul\":6808:6864   */\n    tag_363:\n        /* \"#utility.yul\":6882:6911   */\n      tag_365\n        /* \"#utility.yul\":6904:6910   */\n      dup3\n        /* \"#utility.yul\":6882:6911   */\n      tag_216\n      jump\t// in\n    tag_365:\n        /* \"#utility.yul\":6874:6911   */\n      swap1\n      pop\n        /* \"#utility.yul\":6966:6970   */\n      0x20\n        /* \"#utility.yul\":6960:6964   */\n      dup2\n        /* \"#utility.yul\":6956:6971   */\n      add\n        /* \"#utility.yul\":6948:6971   */\n      swap1\n      pop\n        /* \"#utility.yul\":6670:6978   */\n      swap2\n      swap1\n      pop\n      jump\t// out\n        /* \"#utility.yul\":6984:7130   */\n    tag_233:\n        /* \"#utility.yul\":7081:7087   */\n      dup3\n        /* \"#utility.yul\":7076:7079   */\n      dup2\n        /* \"#utility.yul\":7071:7074   */\n      dup4\n        /* \"#utility.yul\":7058:7088   */\n      calldatacopy\n        /* \"#utility.yul\":7122:7123   */\n      0x00\n        /* \"#utility.yul\":7113:7119   */\n      dup4\n        /* \"#utility.yul\":7108:7111   */\n      dup4\n        /* \"#utility.yul\":7104:7120   */\n      add\n        /* \"#utility.yul\":7097:7124   */\n      mstore\n        /* \"#utility.yul\":6984:7130   */\n      pop\n      pop\n      pop\n      jump\t// out\n        /* \"#utility.yul\":7136:7561   */\n    tag_234:\n        /* \"#utility.yul\":7214:7219   */\n      0x00\n        /* \"#utility.yul\":7239:7305   */\n      tag_368\n        /* \"#utility.yul\":7255:7304   */\n      tag_369\n        /* \"#utility.yul\":7297:7303   */\n      dup5\n        /* \"#utility.yul\":7255:7304   */\n      tag_232\n      jump\t// in\n    tag_369:\n        /* \"#utility.yul\":7239:7305   */\n      tag_231\n      jump\t// in\n    tag_368:\n        /* \"#utility.yul\":7230:7305   */\n      swap1\n      pop\n        /* \"#utility.yul\":7328:7334   */\n      dup3\n        /* \"#utility.yul\":7321:7326   */\n      dup2\n        /* \"#utility.yul\":7314:7335   */\n      mstore\n        /* \"#utility.yul\":7366:7370   */\n      0x20\n        /* \"#utility.yul\":7359:7364   */\n      dup2\n        /* \"#utility.yul\":7355:7371   */\n      add\n        /* \"#utility.yul\":7404:7407   */\n      dup5\n        /* \"#utility.yul\":7395:7401   */\n      dup5\n        /* \"#utility.yul\":7390:7393   */\n      dup5\n        /* \"#utility.yul\":7386:7402   */\n      add\n        /* \"#utility.yul\":7383:7408   */\n      gt\n        /* \"#utility.yul\":7380:7492   */\n      iszero\n      tag_370\n      jumpi\n        /* \"#utility.yul\":7411:7490   */\n      tag_371\n      tag_228\n      jump\t// in\n    tag_371:\n        /* \"#utility.yul\":7380:7492   */\n    tag_370:\n        /* \"#utility.yul\":7501:7555   */\n      tag_372\n        /* \"#utility.yul\":7548:7554   */\n      dup5\n        /* \"#utility.yul\":7543:7546   */\n      dup3\n        /* \"#utility.yul\":7538:7541   */\n      dup6\n        /* \"#utility.yul\":7501:7555   */\n      tag_233\n      jump\t// in\n    tag_372:\n        /* \"#utility.yul\":7220:7561   */\n      pop\n        /* \"#utility.yul\":7136:7561   */\n      swap4\n      swap3\n      pop\n      pop\n      pop\n      jump\t// out\n        /* \"#utility.yul\":7581:7921   */\n    tag_235:\n        /* \"#utility.yul\":7637:7642   */\n      0x00\n        /* \"#utility.yul\":7686:7689   */\n      dup3\n        /* \"#utility.yul\":7679:7683   */\n      0x1f\n        /* \"#utility.yul\":7671:7677   */\n      dup4\n        /* \"#utility.yul\":7667:7684   */\n      add\n        /* \"#utility.yul\":7663:7690   */\n      slt\n        /* \"#utility.yul\":7653:7775   */\n      tag_374\n      jumpi\n        /* \"#utility.yul\":7694:7773   */\n      tag_375\n      tag_227\n      jump\t// in\n    tag_375:\n        /* \"#utility.yul\":7653:7775   */\n    tag_374:\n        /* \"#utility.yul\":7811:7817   */\n      dup2\n        /* \"#utility.yul\":7798:7818   */\n      calldataload\n        /* \"#utility.yul\":7836:7915   */\n      tag_376\n        /* \"#utility.yul\":7911:7914   */\n      dup5\n        /* \"#utility.yul\":7903:7909   */\n      dup3\n        /* \"#utility.yul\":7896:7900   */\n      0x20\n        /* \"#utility.yul\":7888:7894   */\n      dup7\n        /* \"#utility.yul\":7884:7901   */\n      add\n        /* \"#utility.yul\":7836:7915   */\n      tag_234\n      jump\t// in\n    tag_376:\n        /* \"#utility.yul\":7827:7915   */\n      swap2\n      pop\n        /* \"#utility.yul\":7643:7921   */\n      pop\n        /* \"#utility.yul\":7581:7921   */\n      swap3\n      swap2\n      pop\n      pop\n      jump\t// out\n        /* \"#utility.yul\":7927:8575   */\n    tag_52:\n        /* \"#utility.yul\":8002:8008   */\n      0x00\n        /* \"#utility.yul\":8010:8016   */\n      dup1\n        /* \"#utility.yul\":8059:8061   */\n      0x40\n        /* \"#utility.yul\":8047:8056   */\n      dup4\n        /* \"#utility.yul\":8038:8045   */\n      dup6\n        /* \"#utility.yul\":8034:8057   */\n      sub\n        /* \"#utility.yul\":8030:8062   */\n      slt\n        /* \"#utility.yul\":8027:8146   */\n      iszero\n      tag_378\n      jumpi\n        /* \"#utility.yul\":8065:8144   */\n      tag_379\n      tag_207\n      jump\t// in\n    tag_379:\n        /* \"#utility.yul\":8027:8146   */\n    tag_378:\n        /* \"#utility.yul\":8213:8214   */\n      0x00\n        /* \"#utility.yul\":8202:8211   */\n      dup4\n        /* \"#utility.yul\":8198:8215   */\n      add\n        /* \"#utility.yul\":8185:8216   */\n      calldataload\n        /* \"#utility.yul\":8243:8261   */\n      0xffffffffffffffff\n        /* \"#utility.yul\":8235:8241   */\n      dup2\n        /* \"#utility.yul\":8232:8262   */\n      gt\n        /* \"#utility.yul\":8229:8346   */\n      iszero\n      tag_380\n      jumpi\n        /* \"#utility.yul\":8265:8344   */\n      tag_381\n      tag_208\n      jump\t// in\n    tag_381:\n        /* \"#utility.yul\":8229:8346   */\n    tag_380:\n        /* \"#utility.yul\":8370:8433   */\n      tag_382\n        /* \"#utility.yul\":8425:8432   */\n      dup6\n        /* \"#utility.yul\":8416:8422   */\n      dup3\n        /* \"#utility.yul\":8405:8414   */\n      dup7\n        /* \"#utility.yul\":8401:8423   */\n      add\n        /* \"#utility.yul\":8370:8433   */\n      tag_235\n      jump\t// in\n    tag_382:\n        /* \"#utility.yul\":8360:8433   */\n      swap3\n      pop\n        /* \"#utility.yul\":8156:8443   */\n      pop\n        /* \"#utility.yul\":8482:8484   */\n      0x20\n        /* \"#utility.yul\":8508:8558   */\n      tag_383\n        /* \"#utility.yul\":8550:8557   */\n      dup6\n        /* \"#utility.yul\":8541:8547   */\n      dup3\n        /* \"#utility.yul\":8530:8539   */\n      dup7\n        /* \"#utility.yul\":8526:8548   */\n      add\n        /* \"#utility.yul\":8508:8558   */\n      tag_225\n      jump\t// in\n    tag_383:\n        /* \"#utility.yul\":8498:8558   */\n      swap2\n      pop\n        /* \"#utility.yul\":8453:8568   */\n      pop\n        /* \"#utility.yul\":7927:8575   */\n      swap3\n      pop\n      swap3\n      swap1\n      pop\n      jump\t// out\n        /* \"#utility.yul\":8581:9090   */\n    tag_56:\n        /* \"#utility.yul\":8650:8656   */\n      0x00\n        /* \"#utility.yul\":8699:8701   */\n      0x20\n        /* \"#utility.yul\":8687:8696   */\n      dup3\n        /* \"#utility.yul\":8678:8685   */\n      dup5\n        /* \"#utility.yul\":8674:8697   */\n      sub\n        /* \"#utility.yul\":8670:8702   */\n      slt\n        /* \"#utility.yul\":8667:8786   */\n      iszero\n      tag_385\n      jumpi\n        /* \"#utility.yul\":8705:8784   */\n      tag_386\n      tag_207\n      jump\t// in\n    tag_386:\n        /* \"#utility.yul\":8667:8786   */\n    tag_385:\n        /* \"#utility.yul\":8853:8854   */\n      0x00\n        /* \"#utility.yul\":8842:8851   */\n      dup3\n        /* \"#utility.yul\":8838:8855   */\n      add\n        /* \"#utility.yul\":8825:8856   */\n      calldataload\n        /* \"#utility.yul\":8883:8901   */\n      0xffffffffffffffff\n        /* \"#utility.yul\":8875:8881   */\n      dup2\n        /* \"#utility.yul\":8872:8902   */\n      gt\n        /* \"#utility.yul\":8869:8986   */\n      iszero\n      tag_387\n      jumpi\n        /* \"#utility.yul\":8905:8984   */\n      tag_388\n      tag_208\n      jump\t// in\n    tag_388:\n        /* \"#utility.yul\":8869:8986   */\n    tag_387:\n        /* \"#utility.yul\":9010:9073   */\n      tag_389\n        /* \"#utility.yul\":9065:9072   */\n      dup5\n        /* \"#utility.yul\":9056:9062   */\n      dup3\n        /* \"#utility.yul\":9045:9054   */\n      dup6\n        /* \"#utility.yul\":9041:9063   */\n      add\n        /* \"#utility.yul\":9010:9073   */\n      tag_235\n      jump\t// in\n    tag_389:\n        /* \"#utility.yul\":9000:9073   */\n      swap2\n      pop\n        /* \"#utility.yul\":8796:9083   */\n      pop\n        /* \"#utility.yul\":8581:9090   */\n      swap3\n      swap2\n      pop\n      pop\n      jump\t// out\n        /* \"#utility.yul\":9096:9819   */\n    tag_59:\n        /* \"#utility.yul\":9307:9311   */\n      0x00\n        /* \"#utility.yul\":9345:9348   */\n      0x80\n        /* \"#utility.yul\":9334:9343   */\n      dup3\n        /* \"#utility.yul\":9330:9349   */\n      add\n        /* \"#utility.yul\":9322:9349   */\n      swap1\n      pop\n        /* \"#utility.yul\":9359:9430   */\n      tag_391\n        /* \"#utility.yul\":9427:9428   */\n      0x00\n        /* \"#utility.yul\":9416:9425   */\n      dup4\n        /* \"#utility.yul\":9412:9429   */\n      add\n        /* \"#utility.yul\":9403:9409   */\n      dup8\n        /* \"#utility.yul\":9359:9430   */\n      tag_218\n      jump\t// in\n    tag_391:\n        /* \"#utility.yul\":9477:9486   */\n      dup2\n        /* \"#utility.yul\":9471:9475   */\n      dup2\n        /* \"#utility.yul\":9467:9487   */\n      sub\n        /* \"#utility.yul\":9462:9464   */\n      0x20\n        /* \"#utility.yul\":9451:9460   */\n      dup4\n        /* \"#utility.yul\":9447:9465   */\n      add\n        /* \"#utility.yul\":9440:9488   */\n      mstore\n        /* \"#utility.yul\":9505:9583   */\n      tag_392\n        /* \"#utility.yul\":9578:9582   */\n      dup2\n        /* \"#utility.yul\":9569:9575   */\n      dup7\n        /* \"#utility.yul\":9505:9583   */\n      tag_217\n      jump\t// in\n    tag_392:\n        /* \"#utility.yul\":9497:9583   */\n      swap1\n      pop\n        /* \"#utility.yul\":9630:9639   */\n      dup2\n        /* \"#utility.yul\":9624:9628   */\n      dup2\n        /* \"#utility.yul\":9620:9640   */\n      sub\n        /* \"#utility.yul\":9615:9617   */\n      0x40\n        /* \"#utility.yul\":9604:9613   */\n      dup4\n        /* \"#utility.yul\":9600:9618   */\n      add\n        /* \"#utility.yul\":9593:9641   */\n      mstore\n        /* \"#utility.yul\":9658:9736   */\n      tag_393\n        /* \"#utility.yul\":9731:9735   */\n      dup2\n        /* \"#utility.yul\":9722:9728   */\n      dup6\n        /* \"#utility.yul\":9658:9736   */\n      tag_217\n      jump\t// in\n    tag_393:\n        /* \"#utility.yul\":9650:9736   */\n      swap1\n      pop\n        /* \"#utility.yul\":9746:9812   */\n      tag_394\n        /* \"#utility.yul\":9808:9810   */\n      0x60\n        /* \"#utility.yul\":9797:9806   */\n      dup4\n        /* \"#utility.yul\":9793:9811   */\n      add\n        /* \"#utility.yul\":9784:9790   */\n      dup5\n        /* \"#utility.yul\":9746:9812   */\n      tag_220\n      jump\t// in\n    tag_394:\n        /* \"#utility.yul\":9096:9819   */\n      swap6\n      swap5\n      pop\n      pop\n      pop\n      pop\n      pop\n      jump\t// out\n        /* \"#utility.yul\":9825:10479   */\n    tag_65:\n        /* \"#utility.yul\":9903:9909   */\n      0x00\n        /* \"#utility.yul\":9911:9917   */\n      dup1\n        /* \"#utility.yul\":9960:9962   */\n      0x40\n        /* \"#utility.yul\":9948:9957   */\n      dup4\n        /* \"#utility.yul\":9939:9946   */\n      dup6\n        /* \"#utility.yul\":9935:9958   */\n      sub\n        /* \"#utility.yul\":9931:9963   */\n      slt\n        /* \"#utility.yul\":9928:10047   */\n      iszero\n      tag_396\n      jumpi\n        /* \"#utility.yul\":9966:10045   */\n      tag_397\n      tag_207\n      jump\t// in\n    tag_397:\n        /* \"#utility.yul\":9928:10047   */\n    tag_396:\n        /* \"#utility.yul\":10086:10087   */\n      0x00\n        /* \"#utility.yul\":10111:10164   */\n      tag_398\n        /* \"#utility.yul\":10156:10163   */\n      dup6\n        /* \"#utility.yul\":10147:10153   */\n      dup3\n        /* \"#utility.yul\":10136:10145   */\n      dup7\n        /* \"#utility.yul\":10132:10154   */\n      add\n        /* \"#utility.yul\":10111:10164   */\n      tag_223\n      jump\t// in\n    tag_398:\n        /* \"#utility.yul\":10101:10164   */\n      swap3\n      pop\n        /* \"#utility.yul\":10057:10174   */\n      pop\n        /* \"#utility.yul\":10241:10243   */\n      0x20\n        /* \"#utility.yul\":10230:10239   */\n      dup4\n        /* \"#utility.yul\":10226:10244   */\n      add\n        /* \"#utility.yul\":10213:10245   */\n      calldataload\n        /* \"#utility.yul\":10272:10290   */\n      0xffffffffffffffff\n        /* \"#utility.yul\":10264:10270   */\n      dup2\n        /* \"#utility.yul\":10261:10291   */\n      gt\n        /* \"#utility.yul\":10258:10375   */\n      iszero\n      tag_399\n      jumpi\n        /* \"#utility.yul\":10294:10373   */\n      tag_400\n      tag_208\n      jump\t// in\n    tag_400:\n        /* \"#utility.yul\":10258:10375   */\n    tag_399:\n        /* \"#utility.yul\":10399:10462   */\n      tag_401\n        /* \"#utility.yul\":10454:10461   */\n      dup6\n        /* \"#utility.yul\":10445:10451   */\n      dup3\n        /* \"#utility.yul\":10434:10443   */\n      dup7\n        /* \"#utility.yul\":10430:10452   */\n      add\n        /* \"#utility.yul\":10399:10462   */\n      tag_235\n      jump\t// in\n    tag_401:\n        /* \"#utility.yul\":10389:10462   */\n      swap2\n      pop\n        /* \"#utility.yul\":10184:10472   */\n      pop\n        /* \"#utility.yul\":9825:10479   */\n      swap3\n      pop\n      swap3\n      swap1\n      pop\n      jump\t// out\n        /* \"#utility.yul\":10485:11640   */\n    tag_71:\n        /* \"#utility.yul\":10802:10806   */\n      0x00\n        /* \"#utility.yul\":10840:10843   */\n      0x0100\n        /* \"#utility.yul\":10829:10838   */\n      dup3\n        /* \"#utility.yul\":10825:10844   */\n      add\n        /* \"#utility.yul\":10817:10844   */\n      swap1\n      pop\n        /* \"#utility.yul\":10854:10925   */\n      tag_403\n        /* \"#utility.yul\":10922:10923   */\n      0x00\n        /* \"#utility.yul\":10911:10920   */\n      dup4\n        /* \"#utility.yul\":10907:10924   */\n      add\n        /* \"#utility.yul\":10898:10904   */\n      dup12\n        /* \"#utility.yul\":10854:10925   */\n      tag_218\n      jump\t// in\n    tag_403:\n        /* \"#utility.yul\":10935:11007   */\n      tag_404\n        /* \"#utility.yul\":11003:11005   */\n      0x20\n        /* \"#utility.yul\":10992:11001   */\n      dup4\n        /* \"#utility.yul\":10988:11006   */\n      add\n        /* \"#utility.yul\":10979:10985   */\n      dup11\n        /* \"#utility.yul\":10935:11007   */\n      tag_218\n      jump\t// in\n    tag_404:\n        /* \"#utility.yul\":11054:11063   */\n      dup2\n        /* \"#utility.yul\":11048:11052   */\n      dup2\n        /* \"#utility.yul\":11044:11064   */\n      sub\n        /* \"#utility.yul\":11039:11041   */\n      0x40\n        /* \"#utility.yul\":11028:11037   */\n      dup4\n        /* \"#utility.yul\":11024:11042   */\n      add\n        /* \"#utility.yul\":11017:11065   */\n      mstore\n        /* \"#utility.yul\":11082:11160   */\n      tag_405\n        /* \"#utility.yul\":11155:11159   */\n      dup2\n        /* \"#utility.yul\":11146:11152   */\n      dup10\n        /* \"#utility.yul\":11082:11160   */\n      tag_217\n      jump\t// in\n    tag_405:\n        /* \"#utility.yul\":11074:11160   */\n      swap1\n      pop\n        /* \"#utility.yul\":11207:11216   */\n      dup2\n        /* \"#utility.yul\":11201:11205   */\n      dup2\n        /* \"#utility.yul\":11197:11217   */\n      sub\n        /* \"#utility.yul\":11192:11194   */\n      0x60\n        /* \"#utility.yul\":11181:11190   */\n      dup4\n        /* \"#utility.yul\":11177:11195   */\n      add\n        /* \"#utility.yul\":11170:11218   */\n      mstore\n        /* \"#utility.yul\":11235:11313   */\n      tag_406\n        /* \"#utility.yul\":11308:11312   */\n      dup2\n        /* \"#utility.yul\":11299:11305   */\n      dup9\n        /* \"#utility.yul\":11235:11313   */\n      tag_217\n      jump\t// in\n    tag_406:\n        /* \"#utility.yul\":11227:11313   */\n      swap1\n      pop\n        /* \"#utility.yul\":11323:11396   */\n      tag_407\n        /* \"#utility.yul\":11391:11394   */\n      0x80\n        /* \"#utility.yul\":11380:11389   */\n      dup4\n        /* \"#utility.yul\":11376:11395   */\n      add\n        /* \"#utility.yul\":11367:11373   */\n      dup8\n        /* \"#utility.yul\":11323:11396   */\n      tag_226\n      jump\t// in\n    tag_407:\n        /* \"#utility.yul\":11406:11479   */\n      tag_408\n        /* \"#utility.yul\":11474:11477   */\n      0xa0\n        /* \"#utility.yul\":11463:11472   */\n      dup4\n        /* \"#utility.yul\":11459:11478   */\n      add\n        /* \"#utility.yul\":11450:11456   */\n      dup7\n        /* \"#utility.yul\":11406:11479   */\n      tag_226\n      jump\t// in\n    tag_408:\n        /* \"#utility.yul\":11489:11556   */\n      tag_409\n        /* \"#utility.yul\":11551:11554   */\n      0xc0\n        /* \"#utility.yul\":11540:11549   */\n      dup4\n        /* \"#utility.yul\":11536:11555   */\n      add\n        /* \"#utility.yul\":11527:11533   */\n      dup6\n        /* \"#utility.yul\":11489:11556   */\n      tag_220\n      jump\t// in\n    tag_409:\n        /* \"#utility.yul\":11566:11633   */\n      tag_410\n        /* \"#utility.yul\":11628:11631   */\n      0xe0\n        /* \"#utility.yul\":11617:11626   */\n      dup4\n        /* \"#utility.yul\":11613:11632   */\n      add\n        /* \"#utility.yul\":11604:11610   */\n      dup5\n        /* \"#utility.yul\":11566:11633   */\n      tag_220\n      jump\t// in\n    tag_410:\n        /* \"#utility.yul\":10485:11640   */\n      swap10\n      swap9\n      pop\n      pop\n      pop\n      pop\n      pop\n      pop\n      pop\n      pop\n      pop\n      jump\t// out\n        /* \"#utility.yul\":11646:12480   */\n    tag_74:\n        /* \"#utility.yul\":11734:11740   */\n      0x00\n        /* \"#utility.yul\":11742:11748   */\n      dup1\n        /* \"#utility.yul\":11791:11793   */\n      0x40\n        /* \"#utility.yul\":11779:11788   */\n      dup4\n        /* \"#utility.yul\":11770:11777   */\n      dup6\n        /* \"#utility.yul\":11766:11789   */\n      sub\n        /* \"#utility.yul\":11762:11794   */\n      slt\n        /* \"#utility.yul\":11759:11878   */\n      iszero\n      tag_412\n      jumpi\n        /* \"#utility.yul\":11797:11876   */\n      tag_413\n      tag_207\n      jump\t// in\n    tag_413:\n        /* \"#utility.yul\":11759:11878   */\n    tag_412:\n        /* \"#utility.yul\":11945:11946   */\n      0x00\n        /* \"#utility.yul\":11934:11943   */\n      dup4\n        /* \"#utility.yul\":11930:11947   */\n      add\n        /* \"#utility.yul\":11917:11948   */\n      calldataload\n        /* \"#utility.yul\":11975:11993   */\n      0xffffffffffffffff\n        /* \"#utility.yul\":11967:11973   */\n      dup2\n        /* \"#utility.yul\":11964:11994   */\n      gt\n        /* \"#utility.yul\":11961:12078   */\n      iszero\n      tag_414\n      jumpi\n        /* \"#utility.yul\":11997:12076   */\n      tag_415\n      tag_208\n      jump\t// in\n    tag_415:\n        /* \"#utility.yul\":11961:12078   */\n    tag_414:\n        /* \"#utility.yul\":12102:12165   */\n      tag_416\n        /* \"#utility.yul\":12157:12164   */\n      dup6\n        /* \"#utility.yul\":12148:12154   */\n      dup3\n        /* \"#utility.yul\":12137:12146   */\n      dup7\n        /* \"#utility.yul\":12133:12155   */\n      add\n        /* \"#utility.yul\":12102:12165   */\n      tag_235\n      jump\t// in\n    tag_416:\n        /* \"#utility.yul\":12092:12165   */\n      swap3\n      pop\n        /* \"#utility.yul\":11888:12175   */\n      pop\n        /* \"#utility.yul\":12242:12244   */\n      0x20\n        /* \"#utility.yul\":12231:12240   */\n      dup4\n        /* \"#utility.yul\":12227:12245   */\n      add\n        /* \"#utility.yul\":12214:12246   */\n      calldataload\n        /* \"#utility.yul\":12273:12291   */\n      0xffffffffffffffff\n        /* \"#utility.yul\":12265:12271   */\n      dup2\n        /* \"#utility.yul\":12262:12292   */\n      gt\n        /* \"#utility.yul\":12259:12376   */\n      iszero\n      tag_417\n      jumpi\n        /* \"#utility.yul\":12295:12374   */\n      tag_418\n      tag_208\n      jump\t// in\n    tag_418:\n        /* \"#utility.yul\":12259:12376   */\n    tag_417:\n        /* \"#utility.yul\":12400:12463   */\n      tag_419\n        /* \"#utility.yul\":12455:12462   */\n      dup6\n        /* \"#utility.yul\":12446:12452   */\n      dup3\n        /* \"#utility.yul\":12435:12444   */\n      dup7\n        /* \"#utility.yul\":12431:12453   */\n      add\n        /* \"#utility.yul\":12400:12463   */\n      tag_235\n      jump\t// in\n    tag_419:\n        /* \"#utility.yul\":12390:12463   */\n      swap2\n      pop\n        /* \"#utility.yul\":12185:12473   */\n      pop\n        /* \"#utility.yul\":11646:12480   */\n      swap3\n      pop\n      swap3\n      swap1\n      pop\n      jump\t// out\n        /* \"#utility.yul\":12486:13130   */\n    tag_80:\n        /* \"#utility.yul\":12683:12687   */\n      0x00\n        /* \"#utility.yul\":12721:12724   */\n      0x80\n        /* \"#utility.yul\":12710:12719   */\n      dup3\n        /* \"#utility.yul\":12706:12725   */\n      add\n        /* \"#utility.yul\":12698:12725   */\n      swap1\n      pop\n        /* \"#utility.yul\":12735:12806   */\n      tag_421\n        /* \"#utility.yul\":12803:12804   */\n      0x00\n        /* \"#utility.yul\":12792:12801   */\n      dup4\n        /* \"#utility.yul\":12788:12805   */\n      add\n        /* \"#utility.yul\":12779:12785   */\n      dup8\n        /* \"#utility.yul\":12735:12806   */\n      tag_226\n      jump\t// in\n    tag_421:\n        /* \"#utility.yul\":12816:12888   */\n      tag_422\n        /* \"#utility.yul\":12884:12886   */\n      0x20\n        /* \"#utility.yul\":12873:12882   */\n      dup4\n        /* \"#utility.yul\":12869:12887   */\n      add\n        /* \"#utility.yul\":12860:12866   */\n      dup7\n        /* \"#utility.yul\":12816:12888   */\n      tag_218\n      jump\t// in\n    tag_422:\n        /* \"#utility.yul\":12935:12944   */\n      dup2\n        /* \"#utility.yul\":12929:12933   */\n      dup2\n        /* \"#utility.yul\":12925:12945   */\n      sub\n        /* \"#utility.yul\":12920:12922   */\n      0x40\n        /* \"#utility.yul\":12909:12918   */\n      dup4\n        /* \"#utility.yul\":12905:12923   */\n      add\n        /* \"#utility.yul\":12898:12946   */\n      mstore\n        /* \"#utility.yul\":12963:13041   */\n      tag_423\n        /* \"#utility.yul\":13036:13040   */\n      dup2\n        /* \"#utility.yul\":13027:13033   */\n      dup6\n        /* \"#utility.yul\":12963:13041   */\n      tag_217\n      jump\t// in\n    tag_423:\n        /* \"#utility.yul\":12955:13041   */\n      swap1\n      pop\n        /* \"#utility.yul\":13051:13123   */\n      tag_424\n        /* \"#utility.yul\":13119:13121   */\n      0x60\n        /* \"#utility.yul\":13108:13117   */\n      dup4\n        /* \"#utility.yul\":13104:13122   */\n      add\n        /* \"#utility.yul\":13095:13101   */\n      dup5\n        /* \"#utility.yul\":13051:13123   */\n      tag_218\n      jump\t// in\n    tag_424:\n        /* \"#utility.yul\":12486:13130   */\n      swap6\n      swap5\n      pop\n      pop\n      pop\n      pop\n      pop\n      jump\t// out\n        /* \"#utility.yul\":13136:14407   */\n    tag_83:\n        /* \"#utility.yul\":13251:13257   */\n      0x00\n        /* \"#utility.yul\":13259:13265   */\n      dup1\n        /* \"#utility.yul\":13267:13273   */\n      0x00\n        /* \"#utility.yul\":13275:13281   */\n      dup1\n        /* \"#utility.yul\":13283:13289   */\n      0x00\n        /* \"#utility.yul\":13332:13335   */\n      0xa0\n        /* \"#utility.yul\":13320:13329   */\n      dup7\n        /* \"#utility.yul\":13311:13318   */\n      dup9\n        /* \"#utility.yul\":13307:13330   */\n      sub\n        /* \"#utility.yul\":13303:13336   */\n      slt\n        /* \"#utility.yul\":13300:13420   */\n      iszero\n      tag_426\n      jumpi\n        /* \"#utility.yul\":13339:13418   */\n      tag_427\n      tag_207\n      jump\t// in\n    tag_427:\n        /* \"#utility.yul\":13300:13420   */\n    tag_426:\n        /* \"#utility.yul\":13459:13460   */\n      0x00\n        /* \"#utility.yul\":13484:13537   */\n      tag_428\n        /* \"#utility.yul\":13529:13536   */\n      dup9\n        /* \"#utility.yul\":13520:13526   */\n      dup3\n        /* \"#utility.yul\":13509:13518   */\n      dup10\n        /* \"#utility.yul\":13505:13527   */\n      add\n        /* \"#utility.yul\":13484:13537   */\n      tag_212\n      jump\t// in\n    tag_428:\n        /* \"#utility.yul\":13474:13537   */\n      swap6\n      pop\n        /* \"#utility.yul\":13430:13547   */\n      pop\n        /* \"#utility.yul\":13614:13616   */\n      0x20\n        /* \"#utility.yul\":13603:13612   */\n      dup7\n        /* \"#utility.yul\":13599:13617   */\n      add\n        /* \"#utility.yul\":13586:13618   */\n      calldataload\n        /* \"#utility.yul\":13645:13663   */\n      0xffffffffffffffff\n        /* \"#utility.yul\":13637:13643   */\n      dup2\n        /* \"#utility.yul\":13634:13664   */\n      gt\n        /* \"#utility.yul\":13631:13748   */\n      iszero\n      tag_429\n      jumpi\n        /* \"#utility.yul\":13667:13746   */\n      tag_430\n      tag_208\n      jump\t// in\n    tag_430:\n        /* \"#utility.yul\":13631:13748   */\n    tag_429:\n        /* \"#utility.yul\":13772:13835   */\n      tag_431\n        /* \"#utility.yul\":13827:13834   */\n      dup9\n        /* \"#utility.yul\":13818:13824   */\n      dup3\n        /* \"#utility.yul\":13807:13816   */\n      dup10\n        /* \"#utility.yul\":13803:13825   */\n      add\n        /* \"#utility.yul\":13772:13835   */\n      tag_235\n      jump\t// in\n    tag_431:\n        /* \"#utility.yul\":13762:13835   */\n      swap5\n      pop\n        /* \"#utility.yul\":13557:13845   */\n      pop\n        /* \"#utility.yul\":13912:13914   */\n      0x40\n        /* \"#utility.yul\":13901:13910   */\n      dup7\n        /* \"#utility.yul\":13897:13915   */\n      add\n        /* \"#utility.yul\":13884:13916   */\n      calldataload\n        /* \"#utility.yul\":13943:13961   */\n      0xffffffffffffffff\n        /* \"#utility.yul\":13935:13941   */\n      dup2\n        /* \"#utility.yul\":13932:13962   */\n      gt\n        /* \"#utility.yul\":13929:14046   */\n      iszero\n      tag_432\n      jumpi\n        /* \"#utility.yul\":13965:14044   */\n      tag_433\n      tag_208\n      jump\t// in\n    tag_433:\n        /* \"#utility.yul\":13929:14046   */\n    tag_432:\n        /* \"#utility.yul\":14070:14133   */\n      tag_434\n        /* \"#utility.yul\":14125:14132   */\n      dup9\n        /* \"#utility.yul\":14116:14122   */\n      dup3\n        /* \"#utility.yul\":14105:14114   */\n      dup10\n        /* \"#utility.yul\":14101:14123   */\n      add\n        /* \"#utility.yul\":14070:14133   */\n      tag_235\n      jump\t// in\n    tag_434:\n        /* \"#utility.yul\":14060:14133   */\n      swap4\n      pop\n        /* \"#utility.yul\":13855:14143   */\n      pop\n        /* \"#utility.yul\":14182:14184   */\n      0x60\n        /* \"#utility.yul\":14208:14261   */\n      tag_435\n        /* \"#utility.yul\":14253:14260   */\n      dup9\n        /* \"#utility.yul\":14244:14250   */\n      dup3\n        /* \"#utility.yul\":14233:14242   */\n      dup10\n        /* \"#utility.yul\":14229:14251   */\n      add\n        /* \"#utility.yul\":14208:14261   */\n      tag_223\n      jump\t// in\n    tag_435:\n        /* \"#utility.yul\":14198:14261   */\n      swap3\n      pop\n        /* \"#utility.yul\":14153:14271   */\n      pop\n        /* \"#utility.yul\":14310:14313   */\n      0x80\n        /* \"#utility.yul\":14337:14390   */\n      tag_436\n        /* \"#utility.yul\":14382:14389   */\n      dup9\n        /* \"#utility.yul\":14373:14379   */\n      dup3\n        /* \"#utility.yul\":14362:14371   */\n      dup10\n        /* \"#utility.yul\":14358:14380   */\n      add\n        /* \"#utility.yul\":14337:14390   */\n      tag_223\n      jump\t// in\n    tag_436:\n        /* \"#utility.yul\":14327:14390   */\n      swap2\n      pop\n        /* \"#utility.yul\":14281:14400   */\n      pop\n        /* \"#utility.yul\":13136:14407   */\n      swap3\n      swap6\n      pop\n      swap3\n      swap6\n      swap1\n      swap4\n      pop\n      jump\t// out\n        /* \"#utility.yul\":14413:15206   */\n    tag_87:\n        /* \"#utility.yul\":14497:14503   */\n      0x00\n        /* \"#utility.yul\":14505:14511   */\n      dup1\n        /* \"#utility.yul\":14513:14519   */\n      0x00\n        /* \"#utility.yul\":14562:14564   */\n      0x60\n        /* \"#utility.yul\":14550:14559   */\n      dup5\n        /* \"#utility.yul\":14541:14548   */\n      dup7\n        /* \"#utility.yul\":14537:14560   */\n      sub\n        /* \"#utility.yul\":14533:14565   */\n      slt\n        /* \"#utility.yul\":14530:14649   */\n      iszero\n      tag_438\n      jumpi\n        /* \"#utility.yul\":14568:14647   */\n      tag_439\n      tag_207\n      jump\t// in\n    tag_439:\n        /* \"#utility.yul\":14530:14649   */\n    tag_438:\n        /* \"#utility.yul\":14688:14689   */\n      0x00\n        /* \"#utility.yul\":14713:14766   */\n      tag_440\n        /* \"#utility.yul\":14758:14765   */\n      dup7\n        /* \"#utility.yul\":14749:14755   */\n      dup3\n        /* \"#utility.yul\":14738:14747   */\n      dup8\n        /* \"#utility.yul\":14734:14756   */\n      add\n        /* \"#utility.yul\":14713:14766   */\n      tag_223\n      jump\t// in\n    tag_440:\n        /* \"#utility.yul\":14703:14766   */\n      swap4\n      pop\n        /* \"#utility.yul\":14659:14776   */\n      pop\n        /* \"#utility.yul\":14815:14817   */\n      0x20\n        /* \"#utility.yul\":14841:14891   */\n      tag_441\n        /* \"#utility.yul\":14883:14890   */\n      dup7\n        /* \"#utility.yul\":14874:14880   */\n      dup3\n        /* \"#utility.yul\":14863:14872   */\n      dup8\n        /* \"#utility.yul\":14859:14881   */\n      add\n        /* \"#utility.yul\":14841:14891   */\n      tag_225\n      jump\t// in\n    tag_441:\n        /* \"#utility.yul\":14831:14891   */\n      swap3\n      pop\n        /* \"#utility.yul\":14786:14901   */\n      pop\n        /* \"#utility.yul\":14968:14970   */\n      0x40\n        /* \"#utility.yul\":14957:14966   */\n      dup5\n        /* \"#utility.yul\":14953:14971   */\n      add\n        /* \"#utility.yul\":14940:14972   */\n      calldataload\n        /* \"#utility.yul\":14999:15017   */\n      0xffffffffffffffff\n        /* \"#utility.yul\":14991:14997   */\n      dup2\n        /* \"#utility.yul\":14988:15018   */\n      gt\n        /* \"#utility.yul\":14985:15102   */\n      iszero\n      tag_442\n      jumpi\n        /* \"#utility.yul\":15021:15100   */\n      tag_443\n      tag_208\n      jump\t// in\n    tag_443:\n        /* \"#utility.yul\":14985:15102   */\n    tag_442:\n        /* \"#utility.yul\":15126:15189   */\n      tag_444\n        /* \"#utility.yul\":15181:15188   */\n      dup7\n        /* \"#utility.yul\":15172:15178   */\n      dup3\n        /* \"#utility.yul\":15161:15170   */\n      dup8\n        /* \"#utility.yul\":15157:15179   */\n      add\n        /* \"#utility.yul\":15126:15189   */\n      tag_235\n      jump\t// in\n    tag_444:\n        /* \"#utility.yul\":15116:15189   */\n      swap2\n      pop\n        /* \"#utility.yul\":14911:15199   */\n      pop\n        /* \"#utility.yul\":14413:15206   */\n      swap3\n      pop\n      swap3\n      pop\n      swap3\n      jump\t// out\n        /* \"#utility.yul\":15212:15392   */\n    tag_236:\n        /* \"#utility.yul\":15260:15337   */\n      0x4e487b7100000000000000000000000000000000000000000000000000000000\n        /* \"#utility.yul\":15257:15258   */\n      0x00\n        /* \"#utility.yul\":15250:15338   */\n      mstore\n        /* \"#utility.yul\":15357:15361   */\n      0x22\n        /* \"#utility.yul\":15354:15355   */\n      0x04\n        /* \"#utility.yul\":15347:15362   */\n      mstore\n        /* \"#utility.yul\":15381:15385   */\n      0x24\n        /* \"#utility.yul\":15378:15379   */\n      0x00\n        /* \"#utility.yul\":15371:15386   */\n      revert\n        /* \"#utility.yul\":15398:15718   */\n    tag_90:\n        /* \"#utility.yul\":15442:15448   */\n      0x00\n        /* \"#utility.yul\":15479:15480   */\n      0x02\n        /* \"#utility.yul\":15473:15477   */\n      dup3\n        /* \"#utility.yul\":15469:15481   */\n      div\n        /* \"#utility.yul\":15459:15481   */\n      swap1\n      pop\n        /* \"#utility.yul\":15526:15527   */\n      0x01\n        /* \"#utility.yul\":15520:15524   */\n      dup3\n        /* \"#utility.yul\":15516:15528   */\n      and\n        /* \"#utility.yul\":15547:15565   */\n      dup1\n        /* \"#utility.yul\":15537:15618   */\n      tag_447\n      jumpi\n        /* \"#utility.yul\":15603:15607   */\n      0x7f\n        /* \"#utility.yul\":15595:15601   */\n      dup3\n        /* \"#utility.yul\":15591:15608   */\n      and\n        /* \"#utility.yul\":15581:15608   */\n      swap2\n      pop\n        /* \"#utility.yul\":15537:15618   */\n    tag_447:\n        /* \"#utility.yul\":15665:15667   */\n      0x20\n        /* \"#utility.yul\":15657:15663   */\n      dup3\n        /* \"#utility.yul\":15654:15668   */\n      lt\n        /* \"#utility.yul\":15634:15652   */\n      dup2\n        /* \"#utility.yul\":15631:15669   */\n      sub\n        /* \"#utility.yul\":15628:15712   */\n      tag_448\n      jumpi\n        /* \"#utility.yul\":15684:15702   */\n      tag_449\n      tag_236\n      jump\t// in\n    tag_449:\n        /* \"#utility.yul\":15628:15712   */\n    tag_448:\n        /* \"#utility.yul\":15449:15718   */\n      pop\n        /* \"#utility.yul\":15398:15718   */\n      swap2\n      swap1\n      pop\n      jump\t// out\n        /* \"#utility.yul\":15724:15895   */\n    tag_237:\n        /* \"#utility.yul\":15864:15887   */\n      0x436f6e7472616374206973206e6f742076616c69640000000000000000000000\n        /* \"#utility.yul\":15860:15861   */\n      0x00\n        /* \"#utility.yul\":15852:15858   */\n      dup3\n        /* \"#utility.yul\":15848:15862   */\n      add\n        /* \"#utility.yul\":15841:15888   */\n      mstore\n        /* \"#utility.yul\":15724:15895   */\n      pop\n      jump\t// out\n        /* \"#utility.yul\":15901:16267   */\n    tag_238:\n        /* \"#utility.yul\":16043:16046   */\n      0x00\n        /* \"#utility.yul\":16064:16131   */\n      tag_452\n        /* \"#utility.yul\":16128:16130   */\n      0x15\n        /* \"#utility.yul\":16123:16126   */\n      dup4\n        /* \"#utility.yul\":16064:16131   */\n      tag_214\n      jump\t// in\n    tag_452:\n        /* \"#utility.yul\":16057:16131   */\n      swap2\n      pop\n        /* \"#utility.yul\":16140:16233   */\n      tag_453\n        /* \"#utility.yul\":16229:16232   */\n      dup3\n        /* \"#utility.yul\":16140:16233   */\n      tag_237\n      jump\t// in\n    tag_453:\n        /* \"#utility.yul\":16258:16260   */\n      0x20\n        /* \"#utility.yul\":16253:16256   */\n      dup3\n        /* \"#utility.yul\":16249:16261   */\n      add\n        /* \"#utility.yul\":16242:16261   */\n      swap1\n      pop\n        /* \"#utility.yul\":15901:16267   */\n      swap2\n      swap1\n      pop\n      jump\t// out\n        /* \"#utility.yul\":16273:16692   */\n    tag_98:\n        /* \"#utility.yul\":16439:16443   */\n      0x00\n        /* \"#utility.yul\":16477:16479   */\n      0x20\n        /* \"#utility.yul\":16466:16475   */\n      dup3\n        /* \"#utility.yul\":16462:16480   */\n      add\n        /* \"#utility.yul\":16454:16480   */\n      swap1\n      pop\n        /* \"#utility.yul\":16526:16535   */\n      dup2\n        /* \"#utility.yul\":16520:16524   */\n      dup2\n        /* \"#utility.yul\":16516:16536   */\n      sub\n        /* \"#utility.yul\":16512:16513   */\n      0x00\n        /* \"#utility.yul\":16501:16510   */\n      dup4\n        /* \"#utility.yul\":16497:16514   */\n      add\n        /* \"#utility.yul\":16490:16537   */\n      mstore\n        /* \"#utility.yul\":16554:16685   */\n      tag_455\n        /* \"#utility.yul\":16680:16684   */\n      dup2\n        /* \"#utility.yul\":16554:16685   */\n      tag_238\n      jump\t// in\n    tag_455:\n        /* \"#utility.yul\":16546:16685   */\n      swap1\n      pop\n        /* \"#utility.yul\":16273:16692   */\n      swap2\n      swap1\n      pop\n      jump\t// out\n        /* \"#utility.yul\":16698:16867   */\n    tag_239:\n        /* \"#utility.yul\":16838:16859   */\n      0x55736572206e6f7420617574686f72697a656400000000000000000000000000\n        /* \"#utility.yul\":16834:16835   */\n      0x00\n        /* \"#utility.yul\":16826:16832   */\n      dup3\n        /* \"#utility.yul\":16822:16836   */\n      add\n        /* \"#utility.yul\":16815:16860   */\n      mstore\n        /* \"#utility.yul\":16698:16867   */\n      pop\n      jump\t// out\n        /* \"#utility.yul\":16873:17239   */\n    tag_240:\n        /* \"#utility.yul\":17015:17018   */\n      0x00\n        /* \"#utility.yul\":17036:17103   */\n      tag_458\n        /* \"#utility.yul\":17100:17102   */\n      0x13\n        /* \"#utility.yul\":17095:17098   */\n      dup4\n        /* \"#utility.yul\":17036:17103   */\n      tag_214\n      jump\t// in\n    tag_458:\n        /* \"#utility.yul\":17029:17103   */\n      swap2\n      pop\n        /* \"#utility.yul\":17112:17205   */\n      tag_459\n        /* \"#utility.yul\":17201:17204   */\n      dup3\n        /* \"#utility.yul\":17112:17205   */\n      tag_239\n      jump\t// in\n    tag_459:\n        /* \"#utility.yul\":17230:17232   */\n      0x20\n        /* \"#utility.yul\":17225:17228   */\n      dup3\n        /* \"#utility.yul\":17221:17233   */\n      add\n        /* \"#utility.yul\":17214:17233   */\n      swap1\n      pop\n        /* \"#utility.yul\":16873:17239   */\n      swap2\n      swap1\n      pop\n      jump\t// out\n        /* \"#utility.yul\":17245:17664   */\n    tag_101:\n        /* \"#utility.yul\":17411:17415   */\n      0x00\n        /* \"#utility.yul\":17449:17451   */\n      0x20\n        /* \"#utility.yul\":17438:17447   */\n      dup3\n        /* \"#utility.yul\":17434:17452   */\n      add\n        /* \"#utility.yul\":17426:17452   */\n      swap1\n      pop\n        /* \"#utility.yul\":17498:17507   */\n      dup2\n        /* \"#utility.yul\":17492:17496   */\n      dup2\n        /* \"#utility.yul\":17488:17508   */\n      sub\n        /* \"#utility.yul\":17484:17485   */\n      0x00\n        /* \"#utility.yul\":17473:17482   */\n      dup4\n        /* \"#utility.yul\":17469:17486   */\n      add\n        /* \"#utility.yul\":17462:17509   */\n      mstore\n        /* \"#utility.yul\":17526:17657   */\n      tag_461\n        /* \"#utility.yul\":17652:17656   */\n      dup2\n        /* \"#utility.yul\":17526:17657   */\n      tag_240\n      jump\t// in\n    tag_461:\n        /* \"#utility.yul\":17518:17657   */\n      swap1\n      pop\n        /* \"#utility.yul\":17245:17664   */\n      swap2\n      swap1\n      pop\n      jump\t// out\n        /* \"#utility.yul\":17670:17846   */\n    tag_241:\n        /* \"#utility.yul\":17810:17838   */\n      0x5573657220697320616c72656164792072656769737465726564000000000000\n        /* \"#utility.yul\":17806:17807   */\n      0x00\n        /* \"#utility.yul\":17798:17804   */\n      dup3\n        /* \"#utility.yul\":17794:17808   */\n      add\n        /* \"#utility.yul\":17787:17839   */\n      mstore\n        /* \"#utility.yul\":17670:17846   */\n      pop\n      jump\t// out\n        /* \"#utility.yul\":17852:18218   */\n    tag_242:\n        /* \"#utility.yul\":17994:17997   */\n      0x00\n        /* \"#utility.yul\":18015:18082   */\n      tag_464\n        /* \"#utility.yul\":18079:18081   */\n      0x1a\n        /* \"#utility.yul\":18074:18077   */\n      dup4\n        /* \"#utility.yul\":18015:18082   */\n      tag_214\n      jump\t// in\n    tag_464:\n        /* \"#utility.yul\":18008:18082   */\n      swap2\n      pop\n        /* \"#utility.yul\":18091:18184   */\n      tag_465\n        /* \"#utility.yul\":18180:18183   */\n      dup3\n        /* \"#utility.yul\":18091:18184   */\n      tag_241\n      jump\t// in\n    tag_465:\n        /* \"#utility.yul\":18209:18211   */\n      0x20\n        /* \"#utility.yul\":18204:18207   */\n      dup3\n        /* \"#utility.yul\":18200:18212   */\n      add\n        /* \"#utility.yul\":18193:18212   */\n      swap1\n      pop\n        /* \"#utility.yul\":17852:18218   */\n      swap2\n      swap1\n      pop\n      jump\t// out\n        /* \"#utility.yul\":18224:18643   */\n    tag_112:\n        /* \"#utility.yul\":18390:18394   */\n      0x00\n        /* \"#utility.yul\":18428:18430   */\n      0x20\n        /* \"#utility.yul\":18417:18426   */\n      dup3\n        /* \"#utility.yul\":18413:18431   */\n      add\n        /* \"#utility.yul\":18405:18431   */\n      swap1\n      pop\n        /* \"#utility.yul\":18477:18486   */\n      dup2\n        /* \"#utility.yul\":18471:18475   */\n      dup2\n        /* \"#utility.yul\":18467:18487   */\n      sub\n        /* \"#utility.yul\":18463:18464   */\n      0x00\n        /* \"#utility.yul\":18452:18461   */\n      dup4\n        /* \"#utility.yul\":18448:18465   */\n      add\n        /* \"#utility.yul\":18441:18488   */\n      mstore\n        /* \"#utility.yul\":18505:18636   */\n      tag_467\n        /* \"#utility.yul\":18631:18635   */\n      dup2\n        /* \"#utility.yul\":18505:18636   */\n      tag_242\n      jump\t// in\n    tag_467:\n        /* \"#utility.yul\":18497:18636   */\n      swap1\n      pop\n        /* \"#utility.yul\":18224:18643   */\n      swap2\n      swap1\n      pop\n      jump\t// out\n        /* \"#utility.yul\":18649:18790   */\n    tag_243:\n        /* \"#utility.yul\":18698:18702   */\n      0x00\n        /* \"#utility.yul\":18721:18724   */\n      dup2\n        /* \"#utility.yul\":18713:18724   */\n      swap1\n      pop\n        /* \"#utility.yul\":18744:18747   */\n      dup2\n        /* \"#utility.yul\":18741:18742   */\n      0x00\n        /* \"#utility.yul\":18734:18748   */\n      mstore\n        /* \"#utility.yul\":18778:18782   */\n      0x20\n        /* \"#utility.yul\":18775:18776   */\n      0x00\n        /* \"#utility.yul\":18765:18783   */\n      keccak256\n        /* \"#utility.yul\":18757:18783   */\n      swap1\n      pop\n        /* \"#utility.yul\":18649:18790   */\n      swap2\n      swap1\n      pop\n      jump\t// out\n        /* \"#utility.yul\":18796:18889   */\n    tag_244:\n        /* \"#utility.yul\":18833:18839   */\n      0x00\n        /* \"#utility.yul\":18880:18882   */\n      0x20\n        /* \"#utility.yul\":18875:18877   */\n      0x1f\n        /* \"#utility.yul\":18868:18873   */\n      dup4\n        /* \"#utility.yul\":18864:18878   */\n      add\n        /* \"#utility.yul\":18860:18883   */\n      div\n        /* \"#utility.yul\":18850:18883   */\n      swap1\n      pop\n        /* \"#utility.yul\":18796:18889   */\n      swap2\n      swap1\n      pop\n      jump\t// out\n        /* \"#utility.yul\":18895:19002   */\n    tag_245:\n        /* \"#utility.yul\":18939:18947   */\n      0x00\n        /* \"#utility.yul\":18989:18994   */\n      dup3\n        /* \"#utility.yul\":18983:18987   */\n      dup3\n        /* \"#utility.yul\":18979:18995   */\n      shl\n        /* \"#utility.yul\":18958:18995   */\n      swap1\n      pop\n        /* \"#utility.yul\":18895:19002   */\n      swap3\n      swap2\n      pop\n      pop\n      jump\t// out\n        /* \"#utility.yul\":19008:19401   */\n    tag_246:\n        /* \"#utility.yul\":19077:19083   */\n      0x00\n        /* \"#utility.yul\":19127:19128   */\n      0x08\n        /* \"#utility.yul\":19115:19125   */\n      dup4\n        /* \"#utility.yul\":19111:19129   */\n      mul\n        /* \"#utility.yul\":19150:19247   */\n      tag_472\n        /* \"#utility.yul\":19180:19246   */\n      0xffffffffffffffffffffffffffffffffffffffffffffffffffffffffffffffff\n        /* \"#utility.yul\":19169:19178   */\n      dup3\n        /* \"#utility.yul\":19150:19247   */\n      tag_245\n      jump\t// in\n    tag_472:\n        /* \"#utility.yul\":19268:19307   */\n      tag_473\n        /* \"#utility.yul\":19298:19306   */\n      dup7\n        /* \"#utility.yul\":19287:19296   */\n      dup4\n        /* \"#utility.yul\":19268:19307   */\n      tag_245\n      jump\t// in\n    tag_473:\n        /* \"#utility.yul\":19256:19307   */\n      swap6\n      pop\n        /* \"#utility.yul\":19340:19344   */\n      dup1\n        /* \"#utility.yul\":19336:19345   */\n      not\n        /* \"#utility.yul\":19329:19334   */\n      dup5\n        /* \"#utility.yul\":19325:19346   */\n      and\n        /* \"#utility.yul\":19316:19346   */\n      swap4\n      pop\n        /* \"#utility.yul\":19389:19393   */\n      dup1\n        /* \"#utility.yul\":19379:19387   */\n      dup7\n        /* \"#utility.yul\":19375:19394   */\n      and\n        /* \"#utility.yul\":19368:19373   */\n      dup5\n        /* \"#utility.yul\":19365:19395   */\n      or\n        /* \"#utility.yul\":19355:19395   */\n      swap3\n      pop\n        /* \"#utility.yul\":19084:19401   */\n      pop\n      pop\n        /* \"#utility.yul\":19008:19401   */\n      swap4\n      swap3\n      pop\n      pop\n      pop\n      jump\t// out\n        /* \"#utility.yul\":19407:19467   */\n    tag_247:\n        /* \"#utility.yul\":19435:19438   */\n      0x00\n        /* \"#utility.yul\":19456:19461   */\n      dup2\n        /* \"#utility.yul\":19449:19461   */\n      swap1\n      pop\n        /* \"#utility.yul\":19407:19467   */\n      swap2\n      swap1\n      pop\n      jump\t// out\n        /* \"#utility.yul\":19473:19615   */\n    tag_248:\n        /* \"#utility.yul\":19523:19532   */\n      0x00\n        /* \"#utility.yul\":19556:19609   */\n      tag_476\n        /* \"#utility.yul\":19574:19608   */\n      tag_477\n        /* \"#utility.yul\":19583:19607   */\n      tag_478\n        /* \"#utility.yul\":19601:19606   */\n      dup5\n        /* \"#utility.yul\":19583:19607   */\n      tag_221\n      jump\t// in\n    tag_478:\n        /* \"#utility.yul\":19574:19608   */\n      tag_247\n      jump\t// in\n    tag_477:\n        /* \"#utility.yul\":19556:19609   */\n      tag_221\n      jump\t// in\n    tag_476:\n        /* \"#utility.yul\":19543:19609   */\n      swap1\n      pop\n        /* \"#utility.yul\":19473:19615   */\n      swap2\n      swap1\n      pop\n      jump\t// out\n        /* \"#utility.yul\":19621:19696   */\n    tag_249:\n        /* \"#utility.yul\":19664:19667   */\n      0x00\n        /* \"#utility.yul\":19685:19690   */\n      dup2\n        /* \"#utility.yul\":19678:19690   */\n      swap1\n      pop\n        /* \"#utility.yul\":19621:19696   */\n      swap2\n      swap1\n      pop\n      jump\t// out\n        /* \"#utility.yul\":19702:19971   */\n    tag_250:\n        /* \"#utility.yul\":19812:19851   */\n      tag_481\n        /* \"#utility.yul\":19843:19850   */\n      dup4\n        /* \"#utility.yul\":19812:19851   */\n      tag_248\n      jump\t// in\n    tag_481:\n        /* \"#utility.yul\":19873:19964   */\n      tag_482\n        /* \"#utility.yul\":19922:19963   */\n      tag_483\n        /* \"#utility.yul\":19946:19962   */\n      dup3\n        /* \"#utility.yul\":19922:19963   */\n      tag_249\n      jump\t// in\n    tag_483:\n        /* \"#utility.yul\":19914:19920   */\n      dup5\n        /* \"#utility.yul\":19907:19911   */\n      dup5\n        /* \"#utility.yul\":19901:19912   */\n      sload\n        /* \"#utility.yul\":19873:19964   */\n      tag_246\n      jump\t// in\n    tag_482:\n        /* \"#utility.yul\":19867:19871   */\n      dup3\n        /* \"#utility.yul\":19860:19965   */\n      sstore\n        /* \"#utility.yul\":19778:19971   */\n      pop\n        /* \"#utility.yul\":19702:19971   */\n      pop\n      pop\n      pop\n      jump\t// out\n        /* \"#utility.yul\":19977:20050   */\n    tag_251:\n        /* \"#utility.yul\":20022:20025   */\n      0x00\n        /* \"#utility.yul\":19977:20050   */\n      swap1\n      jump\t// out\n        /* \"#utility.yul\":20056:20245   */\n    tag_252:\n        /* \"#utility.yul\":20133:20165   */\n      tag_486\n      tag_251\n      jump\t// in\n    tag_486:\n        /* \"#utility.yul\":20174:20239   */\n      tag_487\n        /* \"#utility.yul\":20232:20238   */\n      dup2\n        /* \"#utility.yul\":20224:20230   */\n      dup5\n        /* \"#utility.yul\":20218:20222   */\n      dup5\n        /* \"#utility.yul\":20174:20239   */\n      tag_250\n      jump\t// in\n    tag_487:\n        /* \"#utility.yul\":20109:20245   */\n      pop\n        /* \"#utility.yul\":20056:20245   */\n      pop\n      pop\n      jump\t// out\n        /* \"#utility.yul\":20251:20437   */\n    tag_253:\n        /* \"#utility.yul\":20311:20431   */\n    tag_489:\n        /* \"#utility.yul\":20328:20331   */\n      dup2\n        /* \"#utility.yul\":20321:20326   */\n      dup2\n        /* \"#utility.yul\":20318:20332   */\n      lt\n        /* \"#utility.yul\":20311:20431   */\n      iszero\n      tag_491\n      jumpi\n        /* \"#utility.yul\":20382:20421   */\n      tag_492\n        /* \"#utility.yul\":20419:20420   */\n      0x00\n        /* \"#utility.yul\":20412:20417   */\n      dup3\n        /* \"#utility.yul\":20382:20421   */\n      tag_252\n      jump\t// in\n    tag_492:\n        /* \"#utility.yul\":20355:20356   */\n      0x01\n        /* \"#utility.yul\":20348:20353   */\n      dup2\n        /* \"#utility.yul\":20344:20357   */\n      add\n        /* \"#utility.yul\":20335:20357   */\n      swap1\n      pop\n        /* \"#utility.yul\":20311:20431   */\n      jump(tag_489)\n    tag_491:\n        /* \"#utility.yul\":20251:20437   */\n      pop\n      pop\n      jump\t// out\n        /* \"#utility.yul\":20443:20986   */\n    tag_254:\n        /* \"#utility.yul\":20544:20546   */\n      0x1f\n        /* \"#utility.yul\":20539:20542   */\n      dup3\n        /* \"#utility.yul\":20536:20547   */\n      gt\n        /* \"#utility.yul\":20533:20979   */\n      iszero\n      tag_494\n      jumpi\n        /* \"#utility.yul\":20578:20616   */\n      tag_495\n        /* \"#utility.yul\":20610:20615   */\n      dup2\n        /* \"#utility.yul\":20578:20616   */\n      tag_243\n      jump\t// in\n    tag_495:\n        /* \"#utility.yul\":20662:20691   */\n      tag_496\n        /* \"#utility.yul\":20680:20690   */\n      dup5\n        /* \"#utility.yul\":20662:20691   */\n      tag_244\n      jump\t// in\n    tag_496:\n        /* \"#utility.yul\":20652:20660   */\n      dup2\n        /* \"#utility.yul\":20648:20692   */\n      add\n        /* \"#utility.yul\":20845:20847   */\n      0x20\n        /* \"#utility.yul\":20833:20843   */\n      dup6\n        /* \"#utility.yul\":20830:20848   */\n      lt\n        /* \"#utility.yul\":20827:20876   */\n      iszero\n      tag_497\n      jumpi\n        /* \"#utility.yul\":20866:20874   */\n      dup2\n        /* \"#utility.yul\":20851:20874   */\n      swap1\n      pop\n        /* \"#utility.yul\":20827:20876   */\n    tag_497:\n        /* \"#utility.yul\":20889:20969   */\n      tag_498\n        /* \"#utility.yul\":20945:20967   */\n      tag_499\n        /* \"#utility.yul\":20963:20966   */\n      dup6\n        /* \"#utility.yul\":20945:20967   */\n      tag_244\n      jump\t// in\n    tag_499:\n        /* \"#utility.yul\":20935:20943   */\n      dup4\n        /* \"#utility.yul\":20931:20968   */\n      add\n        /* \"#utility.yul\":20918:20929   */\n      dup3\n        /* \"#utility.yul\":20889:20969   */\n      tag_253\n      jump\t// in\n    tag_498:\n        /* \"#utility.yul\":20548:20979   */\n      pop\n      pop\n        /* \"#utility.yul\":20533:20979   */\n    tag_494:\n        /* \"#utility.yul\":20443:20986   */\n      pop\n      pop\n      pop\n      jump\t// out\n        /* \"#utility.yul\":20992:21109   */\n    tag_255:\n        /* \"#utility.yul\":21046:21054   */\n      0x00\n        /* \"#utility.yul\":21096:21101   */\n      dup3\n        /* \"#utility.yul\":21090:21094   */\n      dup3\n        /* \"#utility.yul\":21086:21102   */\n      shr\n        /* \"#utility.yul\":21065:21102   */\n      swap1\n      pop\n        /* \"#utility.yul\":20992:21109   */\n      swap3\n      swap2\n      pop\n      pop\n      jump\t// out\n        /* \"#utility.yul\":21115:21284   */\n    tag_256:\n        /* \"#utility.yul\":21159:21165   */\n      0x00\n        /* \"#utility.yul\":21192:21243   */\n      tag_502\n        /* \"#utility.yul\":21240:21241   */\n      0x00\n        /* \"#utility.yul\":21236:21242   */\n      not\n        /* \"#utility.yul\":21228:21233   */\n      dup5\n        /* \"#utility.yul\":21225:21226   */\n      0x08\n        /* \"#utility.yul\":21221:21234   */\n      mul\n        /* \"#utility.yul\":21192:21243   */\n      tag_255\n      jump\t// in\n    tag_502:\n        /* \"#utility.yul\":21188:21244   */\n      not\n        /* \"#utility.yul\":21273:21277   */\n      dup1\n        /* \"#utility.yul\":21267:21271   */\n      dup4\n        /* \"#utility.yul\":21263:21278   */\n      and\n        /* \"#utility.yul\":21253:21278   */\n      swap2\n      pop\n        /* \"#utility.yul\":21166:21284   */\n      pop\n        /* \"#utility.yul\":21115:21284   */\n      swap3\n      swap2\n      pop\n      pop\n      jump\t// out\n        /* \"#utility.yul\":21289:21584   */\n    tag_257:\n        /* \"#utility.yul\":21365:21369   */\n      0x00\n        /* \"#utility.yul\":21511:21540   */\n      tag_504\n        /* \"#utility.yul\":21536:21539   */\n      dup4\n        /* \"#utility.yul\":21530:21534   */\n      dup4\n        /* \"#utility.yul\":21511:21540   */\n      tag_256\n      jump\t// in\n    tag_504:\n        /* \"#utility.yul\":21503:21540   */\n      swap2\n      pop\n        /* \"#utility.yul\":21573:21576   */\n      dup3\n        /* \"#utility.yul\":21570:21571   */\n      0x02\n        /* \"#utility.yul\":21566:21577   */\n      mul\n        /* \"#utility.yul\":21560:21564   */\n      dup3\n        /* \"#utility.yul\":21557:21578   */\n      or\n        /* \"#utility.yul\":21549:21578   */\n      swap1\n      pop\n        /* \"#utility.yul\":21289:21584   */\n      swap3\n      swap2\n      pop\n      pop\n      jump\t// out\n        /* \"#utility.yul\":21589:22984   */\n    tag_114:\n        /* \"#utility.yul\":21706:21743   */\n      tag_506\n        /* \"#utility.yul\":21739:21742   */\n      dup3\n        /* \"#utility.yul\":21706:21743   */\n      tag_213\n      jump\t// in\n    tag_506:\n        /* \"#utility.yul\":21808:21826   */\n      0xffffffffffffffff\n        /* \"#utility.yul\":21800:21806   */\n      dup2\n        /* \"#utility.yul\":21797:21827   */\n      gt\n        /* \"#utility.yul\":21794:21850   */\n      iszero\n      tag_507\n      jumpi\n        /* \"#utility.yul\":21830:21848   */\n      tag_508\n      tag_229\n      jump\t// in\n    tag_508:\n        /* \"#utility.yul\":21794:21850   */\n    tag_507:\n        /* \"#utility.yul\":21874:21912   */\n      tag_509\n        /* \"#utility.yul\":21906:21910   */\n      dup3\n        /* \"#utility.yul\":21900:21911   */\n      sload\n        /* \"#utility.yul\":21874:21912   */\n      tag_90\n      jump\t// in\n    tag_509:\n        /* \"#utility.yul\":21959:22026   */\n      tag_510\n        /* \"#utility.yul\":22019:22025   */\n      dup3\n        /* \"#utility.yul\":22011:22017   */\n      dup3\n        /* \"#utility.yul\":22005:22009   */\n      dup6\n        /* \"#utility.yul\":21959:22026   */\n      tag_254\n      jump\t// in\n    tag_510:\n        /* \"#utility.yul\":22053:22054   */\n      0x00\n        /* \"#utility.yul\":22077:22081   */\n      0x20\n        /* \"#utility.yul\":22064:22081   */\n      swap1\n      pop\n        /* \"#utility.yul\":22109:22111   */\n      0x1f\n        /* \"#utility.yul\":22101:22107   */\n      dup4\n        /* \"#utility.yul\":22098:22112   */\n      gt\n        /* \"#utility.yul\":22126:22127   */\n      0x01\n        /* \"#utility.yul\":22121:22739   */\n      dup2\n      eq\n      tag_512\n      jumpi\n        /* \"#utility.yul\":22783:22784   */\n      0x00\n        /* \"#utility.yul\":22800:22806   */\n      dup5\n        /* \"#utility.yul\":22797:22874   */\n      iszero\n      tag_513\n      jumpi\n        /* \"#utility.yul\":22849:22858   */\n      dup3\n        /* \"#utility.yul\":22844:22847   */\n      dup8\n        /* \"#utility.yul\":22840:22859   */\n      add\n        /* \"#utility.yul\":22834:22860   */\n      mload\n        /* \"#utility.yul\":22825:22860   */\n      swap1\n      pop\n        /* \"#utility.yul\":22797:22874   */\n    tag_513:\n        /* \"#utility.yul\":22900:22967   */\n      tag_514\n        /* \"#utility.yul\":22960:22966   */\n      dup6\n        /* \"#utility.yul\":22953:22958   */\n      dup3\n        /* \"#utility.yul\":22900:22967   */\n      tag_257\n      jump\t// in\n    tag_514:\n        /* \"#utility.yul\":22894:22898   */\n      dup7\n        /* \"#utility.yul\":22887:22968   */\n      sstore\n        /* \"#utility.yul\":22756:22978   */\n      pop\n        /* \"#utility.yul\":22091:22978   */\n      jump(tag_511)\n        /* \"#utility.yul\":22121:22739   */\n    tag_512:\n        /* \"#utility.yul\":22173:22177   */\n      0x1f\n        /* \"#utility.yul\":22169:22178   */\n      not\n        /* \"#utility.yul\":22161:22167   */\n      dup5\n        /* \"#utility.yul\":22157:22179   */\n      and\n        /* \"#utility.yul\":22207:22244   */\n      tag_515\n        /* \"#utility.yul\":22239:22243   */\n      dup7\n        /* \"#utility.yul\":22207:22244   */\n      tag_243\n      jump\t// in\n    tag_515:\n        /* \"#utility.yul\":22266:22267   */\n      0x00\n        /* \"#utility.yul\":22280:22488   */\n    tag_516:\n        /* \"#utility.yul\":22294:22301   */\n      dup3\n        /* \"#utility.yul\":22291:22292   */\n      dup2\n        /* \"#utility.yul\":22288:22302   */\n      lt\n        /* \"#utility.yul\":22280:22488   */\n      iszero\n      tag_518\n      jumpi\n        /* \"#utility.yul\":22373:22382   */\n      dup5\n        /* \"#utility.yul\":22368:22371   */\n      dup10\n        /* \"#utility.yul\":22364:22383   */\n      add\n        /* \"#utility.yul\":22358:22384   */\n      mload\n        /* \"#utility.yul\":22350:22356   */\n      dup3\n        /* \"#utility.yul\":22343:22385   */\n      sstore\n        /* \"#utility.yul\":22424:22425   */\n      0x01\n        /* \"#utility.yul\":22416:22422   */\n      dup3\n        /* \"#utility.yul\":22412:22426   */\n      add\n        /* \"#utility.yul\":22402:22426   */\n      swap2\n      pop\n        /* \"#utility.yul\":22471:22473   */\n      0x20\n        /* \"#utility.yul\":22460:22469   */\n      dup6\n        /* \"#utility.yul\":22456:22474   */\n      add\n        /* \"#utility.yul\":22443:22474   */\n      swap5\n      pop\n        /* \"#utility.yul\":22317:22321   */\n      0x20\n        /* \"#utility.yul\":22314:22315   */\n      dup2\n        /* \"#utility.yul\":22310:22322   */\n      add\n        /* \"#utility.yul\":22305:22322   */\n      swap1\n      pop\n        /* \"#utility.yul\":22280:22488   */\n      jump(tag_516)\n    tag_518:\n        /* \"#utility.yul\":22516:22522   */\n      dup7\n        /* \"#utility.yul\":22507:22514   */\n      dup4\n        /* \"#utility.yul\":22504:22523   */\n      lt\n        /* \"#utility.yul\":22501:22680   */\n      iszero\n      tag_519\n      jumpi\n        /* \"#utility.yul\":22574:22583   */\n      dup5\n        /* \"#utility.yul\":22569:22572   */\n      dup10\n        /* \"#utility.yul\":22565:22584   */\n      add\n        /* \"#utility.yul\":22559:22585   */\n      mload\n        /* \"#utility.yul\":22617:22665   */\n      tag_520\n        /* \"#utility.yul\":22659:22663   */\n      0x1f\n        /* \"#utility.yul\":22651:22657   */\n      dup10\n        /* \"#utility.yul\":22647:22664   */\n      and\n        /* \"#utility.yul\":22636:22645   */\n      dup3\n        /* \"#utility.yul\":22617:22665   */\n      tag_256\n      jump\t// in\n    tag_520:\n        /* \"#utility.yul\":22609:22615   */\n      dup4\n        /* \"#utility.yul\":22602:22666   */\n      sstore\n        /* \"#utility.yul\":22524:22680   */\n      pop\n        /* \"#utility.yul\":22501:22680   */\n    tag_519:\n        /* \"#utility.yul\":22726:22727   */\n      0x01\n        /* \"#utility.yul\":22722:22723   */\n      0x02\n        /* \"#utility.yul\":22714:22720   */\n      dup9\n        /* \"#utility.yul\":22710:22724   */\n      mul\n        /* \"#utility.yul\":22706:22728   */\n      add\n        /* \"#utility.yul\":22700:22704   */\n      dup9\n        /* \"#utility.yul\":22693:22729   */\n      sstore\n        /* \"#utility.yul\":22128:22739   */\n      pop\n      pop\n      pop\n        /* \"#utility.yul\":22091:22978   */\n    tag_511:\n      pop\n        /* \"#utility.yul\":21681:22984   */\n      pop\n      pop\n      pop\n        /* \"#utility.yul\":21589:22984   */\n      pop\n      pop\n      jump\t// out\n        /* \"#utility.yul\":22990:23231   */\n    tag_258:\n        /* \"#utility.yul\":23130:23164   */\n      0x4f6e6c79207468652074656e616e74206f722070726f7065727479206f776e65\n        /* \"#utility.yul\":23126:23127   */\n      0x00\n        /* \"#utility.yul\":23118:23124   */\n      dup3\n        /* \"#utility.yul\":23114:23128   */\n      add\n        /* \"#utility.yul\":23107:23165   */\n      mstore\n        /* \"#utility.yul\":23199:23223   */\n      0x722063616e2066696c65206120636f6d706c61696e7400000000000000000000\n        /* \"#utility.yul\":23194:23196   */\n      0x20\n        /* \"#utility.yul\":23186:23192   */\n      dup3\n        /* \"#utility.yul\":23182:23197   */\n      add\n        /* \"#utility.yul\":23175:23224   */\n      mstore\n        /* \"#utility.yul\":22990:23231   */\n      pop\n      jump\t// out\n        /* \"#utility.yul\":23237:23603   */\n    tag_259:\n        /* \"#utility.yul\":23379:23382   */\n      0x00\n        /* \"#utility.yul\":23400:23467   */\n      tag_523\n        /* \"#utility.yul\":23464:23466   */\n      0x36\n        /* \"#utility.yul\":23459:23462   */\n      dup4\n        /* \"#utility.yul\":23400:23467   */\n      tag_214\n      jump\t// in\n    tag_523:\n        /* \"#utility.yul\":23393:23467   */\n      swap2\n      pop\n        /* \"#utility.yul\":23476:23569   */\n      tag_524\n        /* \"#utility.yul\":23565:23568   */\n      dup3\n        /* \"#utility.yul\":23476:23569   */\n      tag_258\n      jump\t// in\n    tag_524:\n        /* \"#utility.yul\":23594:23596   */\n      0x40\n        /* \"#utility.yul\":23589:23592   */\n      dup3\n        /* \"#utility.yul\":23585:23597   */\n      add\n        /* \"#utility.yul\":23578:23597   */\n      swap1\n      pop\n        /* \"#utility.yul\":23237:23603   */\n      swap2\n      swap1\n      pop\n      jump\t// out\n        /* \"#utility.yul\":23609:24028   */\n    tag_135:\n        /* \"#utility.yul\":23775:23779   */\n      0x00\n        /* \"#utility.yul\":23813:23815   */\n      0x20\n        /* \"#utility.yul\":23802:23811   */\n      dup3\n        /* \"#utility.yul\":23798:23816   */\n      add\n        /* \"#utility.yul\":23790:23816   */\n      swap1\n      pop\n        /* \"#utility.yul\":23862:23871   */\n      dup2\n        /* \"#utility.yul\":23856:23860   */\n      dup2\n        /* \"#utility.yul\":23852:23872   */\n      sub\n        /* \"#utility.yul\":23848:23849   */\n      0x00\n        /* \"#utility.yul\":23837:23846   */\n      dup4\n        /* \"#utility.yul\":23833:23850   */\n      add\n        /* \"#utility.yul\":23826:23873   */\n      mstore\n        /* \"#utility.yul\":23890:24021   */\n      tag_526\n        /* \"#utility.yul\":24016:24020   */\n      dup2\n        /* \"#utility.yul\":23890:24021   */\n      tag_259\n      jump\t// in\n    tag_526:\n        /* \"#utility.yul\":23882:24021   */\n      swap1\n      pop\n        /* \"#utility.yul\":23609:24028   */\n      swap2\n      swap1\n      pop\n      jump\t// out\n        /* \"#utility.yul\":24034:24198   */\n    tag_260:\n        /* \"#utility.yul\":24174:24190   */\n      0x55736572206e6f7420666f756e64000000000000000000000000000000000000\n        /* \"#utility.yul\":24170:24171   */\n      0x00\n        /* \"#utility.yul\":24162:24168   */\n      dup3\n        /* \"#utility.yul\":24158:24172   */\n      add\n        /* \"#utility.yul\":24151:24191   */\n      mstore\n        /* \"#utility.yul\":24034:24198   */\n      pop\n      jump\t// out\n        /* \"#utility.yul\":24204:24570   */\n    tag_261:\n        /* \"#utility.yul\":24346:24349   */\n      0x00\n        /* \"#utility.yul\":24367:24434   */\n      tag_529\n        /* \"#utility.yul\":24431:24433   */\n      0x0e\n        /* \"#utility.yul\":24426:24429   */\n      dup4\n        /* \"#utility.yul\":24367:24434   */\n      tag_214\n      jump\t// in\n    tag_529:\n        /* \"#utility.yul\":24360:24434   */\n      swap2\n      pop\n        /* \"#utility.yul\":24443:24536   */\n      tag_530\n        /* \"#utility.yul\":24532:24535   */\n      dup3\n        /* \"#utility.yul\":24443:24536   */\n      tag_260\n      jump\t// in\n    tag_530:\n        /* \"#utility.yul\":24561:24563   */\n      0x20\n        /* \"#utility.yul\":24556:24559   */\n      dup3\n        /* \"#utility.yul\":24552:24564   */\n      add\n        /* \"#utility.yul\":24545:24564   */\n      swap1\n      pop\n        /* \"#utility.yul\":24204:24570   */\n      swap2\n      swap1\n      pop\n      jump\t// out\n        /* \"#utility.yul\":24576:24995   */\n    tag_153:\n        /* \"#utility.yul\":24742:24746   */\n      0x00\n        /* \"#utility.yul\":24780:24782   */\n      0x20\n        /* \"#utility.yul\":24769:24778   */\n      dup3\n        /* \"#utility.yul\":24765:24783   */\n      add\n        /* \"#utility.yul\":24757:24783   */\n      swap1\n      pop\n        /* \"#utility.yul\":24829:24838   */\n      dup2\n        /* \"#utility.yul\":24823:24827   */\n      dup2\n        /* \"#utility.yul\":24819:24839   */\n      sub\n        /* \"#utility.yul\":24815:24816   */\n      0x00\n        /* \"#utility.yul\":24804:24813   */\n      dup4\n        /* \"#utility.yul\":24800:24817   */\n      add\n        /* \"#utility.yul\":24793:24840   */\n      mstore\n        /* \"#utility.yul\":24857:24988   */\n      tag_532\n        /* \"#utility.yul\":24983:24987   */\n      dup2\n        /* \"#utility.yul\":24857:24988   */\n      tag_261\n      jump\t// in\n    tag_532:\n        /* \"#utility.yul\":24849:24988   */\n      swap1\n      pop\n        /* \"#utility.yul\":24576:24995   */\n      swap2\n      swap1\n      pop\n      jump\t// out\n        /* \"#utility.yul\":25001:25179   */\n    tag_262:\n        /* \"#utility.yul\":25141:25171   */\n      0x54656e616e74732063616e2774206164642070726f7065727469657300000000\n        /* \"#utility.yul\":25137:25138   */\n      0x00\n        /* \"#utility.yul\":25129:25135   */\n      dup3\n        /* \"#utility.yul\":25125:25139   */\n      add\n        /* \"#utility.yul\":25118:25172   */\n      mstore\n        /* \"#utility.yul\":25001:25179   */\n      pop\n      jump\t// out\n        /* \"#utility.yul\":25185:25551   */\n    tag_263:\n        /* \"#utility.yul\":25327:25330   */\n      0x00\n        /* \"#utility.yul\":25348:25415   */\n      tag_535\n        /* \"#utility.yul\":25412:25414   */\n      0x1c\n        /* \"#utility.yul\":25407:25410   */\n      dup4\n        /* \"#utility.yul\":25348:25415   */\n      tag_214\n      jump\t// in\n    tag_535:\n        /* \"#utility.yul\":25341:25415   */\n      swap2\n      pop\n        /* \"#utility.yul\":25424:25517   */\n      tag_536\n        /* \"#utility.yul\":25513:25516   */\n      dup3\n        /* \"#utility.yul\":25424:25517   */\n      tag_262\n      jump\t// in\n    tag_536:\n        /* \"#utility.yul\":25542:25544   */\n      0x20\n        /* \"#utility.yul\":25537:25540   */\n      dup3\n        /* \"#utility.yul\":25533:25545   */\n      add\n        /* \"#utility.yul\":25526:25545   */\n      swap1\n      pop\n        /* \"#utility.yul\":25185:25551   */\n      swap2\n      swap1\n      pop\n      jump\t// out\n        /* \"#utility.yul\":25557:25976   */\n    tag_156:\n        /* \"#utility.yul\":25723:25727   */\n      0x00\n        /* \"#utility.yul\":25761:25763   */\n      0x20\n        /* \"#utility.yul\":25750:25759   */\n      dup3\n        /* \"#utility.yul\":25746:25764   */\n      add\n        /* \"#utility.yul\":25738:25764   */\n      swap1\n      pop\n        /* \"#utility.yul\":25810:25819   */\n      dup2\n        /* \"#utility.yul\":25804:25808   */\n      dup2\n        /* \"#utility.yul\":25800:25820   */\n      sub\n        /* \"#utility.yul\":25796:25797   */\n      0x00\n        /* \"#utility.yul\":25785:25794   */\n      dup4\n        /* \"#utility.yul\":25781:25798   */\n      add\n        /* \"#utility.yul\":25774:25821   */\n      mstore\n        /* \"#utility.yul\":25838:25969   */\n      tag_538\n        /* \"#utility.yul\":25964:25968   */\n      dup2\n        /* \"#utility.yul\":25838:25969   */\n      tag_263\n      jump\t// in\n    tag_538:\n        /* \"#utility.yul\":25830:25969   */\n      swap1\n      pop\n        /* \"#utility.yul\":25557:25976   */\n      swap2\n      swap1\n      pop\n      jump\t// out\n        /* \"#utility.yul\":25982:26130   */\n    tag_264:\n        /* \"#utility.yul\":26084:26095   */\n      0x00\n        /* \"#utility.yul\":26121:26124   */\n      dup2\n        /* \"#utility.yul\":26106:26124   */\n      swap1\n      pop\n        /* \"#utility.yul\":25982:26130   */\n      swap3\n      swap2\n      pop\n      pop\n      jump\t// out\n        /* \"#utility.yul\":26136:26526   */\n    tag_265:\n        /* \"#utility.yul\":26242:26245   */\n      0x00\n        /* \"#utility.yul\":26270:26309   */\n      tag_541\n        /* \"#utility.yul\":26303:26308   */\n      dup3\n        /* \"#utility.yul\":26270:26309   */\n      tag_213\n      jump\t// in\n    tag_541:\n        /* \"#utility.yul\":26325:26414   */\n      tag_542\n        /* \"#utility.yul\":26407:26413   */\n      dup2\n        /* \"#utility.yul\":26402:26405   */\n      dup6\n        /* \"#utility.yul\":26325:26414   */\n      tag_264\n      jump\t// in\n    tag_542:\n        /* \"#utility.yul\":26318:26414   */\n      swap4\n      pop\n        /* \"#utility.yul\":26423:26488   */\n      tag_543\n        /* \"#utility.yul\":26481:26487   */\n      dup2\n        /* \"#utility.yul\":26476:26479   */\n      dup6\n        /* \"#utility.yul\":26469:26473   */\n      0x20\n        /* \"#utility.yul\":26462:26467   */\n      dup7\n        /* \"#utility.yul\":26458:26474   */\n      add\n        /* \"#utility.yul\":26423:26488   */\n      tag_215\n      jump\t// in\n    tag_543:\n        /* \"#utility.yul\":26513:26519   */\n      dup1\n        /* \"#utility.yul\":26508:26511   */\n      dup5\n        /* \"#utility.yul\":26504:26520   */\n      add\n        /* \"#utility.yul\":26497:26520   */\n      swap2\n      pop\n        /* \"#utility.yul\":26246:26526   */\n      pop\n        /* \"#utility.yul\":26136:26526   */\n      swap3\n      swap2\n      pop\n      pop\n      jump\t// out\n        /* \"#utility.yul\":26532:26807   */\n    tag_158:\n        /* \"#utility.yul\":26664:26667   */\n      0x00\n        /* \"#utility.yul\":26686:26781   */\n      tag_545\n        /* \"#utility.yul\":26777:26780   */\n      dup3\n        /* \"#utility.yul\":26768:26774   */\n      dup5\n        /* \"#utility.yul\":26686:26781   */\n      tag_265\n      jump\t// in\n    tag_545:\n        /* \"#utility.yul\":26679:26781   */\n      swap2\n      pop\n        /* \"#utility.yul\":26798:26801   */\n      dup2\n        /* \"#utility.yul\":26791:26801   */\n      swap1\n      pop\n        /* \"#utility.yul\":26532:26807   */\n      swap3\n      swap2\n      pop\n      pop\n      jump\t// out\n        /* \"#utility.yul\":26813:26986   */\n    tag_266:\n        /* \"#utility.yul\":26953:26978   */\n      0x50726f706572747920616c726561647920657869737473000000000000000000\n        /* \"#utility.yul\":26949:26950   */\n      0x00\n        /* \"#utility.yul\":26941:26947   */\n      dup3\n        /* \"#utility.yul\":26937:26951   */\n      add\n        /* \"#utility.yul\":26930:26979   */\n      mstore\n        /* \"#utility.yul\":26813:26986   */\n      pop\n      jump\t// out\n        /* \"#utility.yul\":26992:27358   */\n    tag_267:\n        /* \"#utility.yul\":27134:27137   */\n      0x00\n        /* \"#utility.yul\":27155:27222   */\n      tag_548\n        /* \"#utility.yul\":27219:27221   */\n      0x17\n        /* \"#utility.yul\":27214:27217   */\n      dup4\n        /* \"#utility.yul\":27155:27222   */\n      tag_214\n      jump\t// in\n    tag_548:\n        /* \"#utility.yul\":27148:27222   */\n      swap2\n      pop\n        /* \"#utility.yul\":27231:27324   */\n      tag_549\n        /* \"#utility.yul\":27320:27323   */\n      dup3\n        /* \"#utility.yul\":27231:27324   */\n      tag_266\n      jump\t// in\n    tag_549:\n        /* \"#utility.yul\":27349:27351   */\n      0x20\n        /* \"#utility.yul\":27344:27347   */\n      dup3\n        /* \"#utility.yul\":27340:27352   */\n      add\n        /* \"#utility.yul\":27333:27352   */\n      swap1\n      pop\n        /* \"#utility.yul\":26992:27358   */\n      swap2\n      swap1\n      pop\n      jump\t// out\n        /* \"#utility.yul\":27364:27783   */\n    tag_161:\n        /* \"#utility.yul\":27530:27534   */\n      0x00\n        /* \"#utility.yul\":27568:27570   */\n      0x20\n        /* \"#utility.yul\":27557:27566   */\n      dup3\n        /* \"#utility.yul\":27553:27571   */\n      add\n        /* \"#utility.yul\":27545:27571   */\n      swap1\n      pop\n        /* \"#utility.yul\":27617:27626   */\n      dup2\n        /* \"#utility.yul\":27611:27615   */\n      dup2\n        /* \"#utility.yul\":27607:27627   */\n      sub\n        /* \"#utility.yul\":27603:27604   */\n      0x00\n        /* \"#utility.yul\":27592:27601   */\n      dup4\n        /* \"#utility.yul\":27588:27605   */\n      add\n        /* \"#utility.yul\":27581:27628   */\n      mstore\n        /* \"#utility.yul\":27645:27776   */\n      tag_551\n        /* \"#utility.yul\":27771:27775   */\n      dup2\n        /* \"#utility.yul\":27645:27776   */\n      tag_267\n      jump\t// in\n    tag_551:\n        /* \"#utility.yul\":27637:27776   */\n      swap1\n      pop\n        /* \"#utility.yul\":27364:27783   */\n      swap2\n      swap1\n      pop\n      jump\t// out\n        /* \"#utility.yul\":27789:28010   */\n    tag_268:\n        /* \"#utility.yul\":27929:27963   */\n      0x54656e616e74732063616e6e6f7420696e697469617465206120636f6e747261\n        /* \"#utility.yul\":27925:27926   */\n      0x00\n        /* \"#utility.yul\":27917:27923   */\n      dup3\n        /* \"#utility.yul\":27913:27927   */\n      add\n        /* \"#utility.yul\":27906:27964   */\n      mstore\n        /* \"#utility.yul\":27998:28002   */\n      0x6374000000000000000000000000000000000000000000000000000000000000\n        /* \"#utility.yul\":27993:27995   */\n      0x20\n        /* \"#utility.yul\":27985:27991   */\n      dup3\n        /* \"#utility.yul\":27981:27996   */\n      add\n        /* \"#utility.yul\":27974:28003   */\n      mstore\n        /* \"#utility.yul\":27789:28010   */\n      pop\n      jump\t// out\n        /* \"#utility.yul\":28016:28382   */\n    tag_269:\n        /* \"#utility.yul\":28158:28161   */\n      0x00\n        /* \"#utility.yul\":28179:28246   */\n      tag_554\n        /* \"#utility.yul\":28243:28245   */\n      0x22\n        /* \"#utility.yul\":28238:28241   */\n      dup4\n        /* \"#utility.yul\":28179:28246   */\n      tag_214\n      jump\t// in\n    tag_554:\n        /* \"#utility.yul\":28172:28246   */\n      swap2\n      pop\n        /* \"#utility.yul\":28255:28348   */\n      tag_555\n        /* \"#utility.yul\":28344:28347   */\n      dup3\n        /* \"#utility.yul\":28255:28348   */\n      tag_268\n      jump\t// in\n    tag_555:\n        /* \"#utility.yul\":28373:28375   */\n      0x40\n        /* \"#utility.yul\":28368:28371   */\n      dup3\n        /* \"#utility.yul\":28364:28376   */\n      add\n        /* \"#utility.yul\":28357:28376   */\n      swap1\n      pop\n        /* \"#utility.yul\":28016:28382   */\n      swap2\n      swap1\n      pop\n      jump\t// out\n        /* \"#utility.yul\":28388:28807   */\n    tag_175:\n        /* \"#utility.yul\":28554:28558   */\n      0x00\n        /* \"#utility.yul\":28592:28594   */\n      0x20\n        /* \"#utility.yul\":28581:28590   */\n      dup3\n        /* \"#utility.yul\":28577:28595   */\n      add\n        /* \"#utility.yul\":28569:28595   */\n      swap1\n      pop\n        /* \"#utility.yul\":28641:28650   */\n      dup2\n        /* \"#utility.yul\":28635:28639   */\n      dup2\n        /* \"#utility.yul\":28631:28651   */\n      sub\n        /* \"#utility.yul\":28627:28628   */\n      0x00\n        /* \"#utility.yul\":28616:28625   */\n      dup4\n        /* \"#utility.yul\":28612:28629   */\n      add\n        /* \"#utility.yul\":28605:28652   */\n      mstore\n        /* \"#utility.yul\":28669:28800   */\n      tag_557\n        /* \"#utility.yul\":28795:28799   */\n      dup2\n        /* \"#utility.yul\":28669:28800   */\n      tag_269\n      jump\t// in\n    tag_557:\n        /* \"#utility.yul\":28661:28800   */\n      swap1\n      pop\n        /* \"#utility.yul\":28388:28807   */\n      swap2\n      swap1\n      pop\n      jump\t// out\n        /* \"#utility.yul\":28813:28981   */\n    tag_270:\n        /* \"#utility.yul\":28953:28973   */\n      0x50726f7065727479206e6f7420666f756e640000000000000000000000000000\n        /* \"#utility.yul\":28949:28950   */\n      0x00\n        /* \"#utility.yul\":28941:28947   */\n      dup3\n        /* \"#utility.yul\":28937:28951   */\n      add\n        /* \"#utility.yul\":28930:28974   */\n      mstore\n        /* \"#utility.yul\":28813:28981   */\n      pop\n      jump\t// out\n        /* \"#utility.yul\":28987:29353   */\n    tag_271:\n        /* \"#utility.yul\":29129:29132   */\n      0x00\n        /* \"#utility.yul\":29150:29217   */\n      tag_560\n        /* \"#utility.yul\":29214:29216   */\n      0x12\n        /* \"#utility.yul\":29209:29212   */\n      dup4\n        /* \"#utility.yul\":29150:29217   */\n      tag_214\n      jump\t// in\n    tag_560:\n        /* \"#utility.yul\":29143:29217   */\n      swap2\n      pop\n        /* \"#utility.yul\":29226:29319   */\n      tag_561\n        /* \"#utility.yul\":29315:29318   */\n      dup3\n        /* \"#utility.yul\":29226:29319   */\n      tag_270\n      jump\t// in\n    tag_561:\n        /* \"#utility.yul\":29344:29346   */\n      0x20\n        /* \"#utility.yul\":29339:29342   */\n      dup3\n        /* \"#utility.yul\":29335:29347   */\n      add\n        /* \"#utility.yul\":29328:29347   */\n      swap1\n      pop\n        /* \"#utility.yul\":28987:29353   */\n      swap2\n      swap1\n      pop\n      jump\t// out\n        /* \"#utility.yul\":29359:29778   */\n    tag_179:\n        /* \"#utility.yul\":29525:29529   */\n      0x00\n        /* \"#utility.yul\":29563:29565   */\n      0x20\n        /* \"#utility.yul\":29552:29561   */\n      dup3\n        /* \"#utility.yul\":29548:29566   */\n      add\n        /* \"#utility.yul\":29540:29566   */\n      swap1\n      pop\n        /* \"#utility.yul\":29612:29621   */\n      dup2\n        /* \"#utility.yul\":29606:29610   */\n      dup2\n        /* \"#utility.yul\":29602:29622   */\n      sub\n        /* \"#utility.yul\":29598:29599   */\n      0x00\n        /* \"#utility.yul\":29587:29596   */\n      dup4\n        /* \"#utility.yul\":29583:29600   */\n      add\n        /* \"#utility.yul\":29576:29623   */\n      mstore\n        /* \"#utility.yul\":29640:29771   */\n      tag_563\n        /* \"#utility.yul\":29766:29770   */\n      dup2\n        /* \"#utility.yul\":29640:29771   */\n      tag_271\n      jump\t// in\n    tag_563:\n        /* \"#utility.yul\":29632:29771   */\n      swap1\n      pop\n        /* \"#utility.yul\":29359:29778   */\n      swap2\n      swap1\n      pop\n      jump\t// out\n        /* \"#utility.yul\":29784:29878   */\n    tag_272:\n        /* \"#utility.yul\":29817:29825   */\n      0x00\n        /* \"#utility.yul\":29865:29870   */\n      dup2\n        /* \"#utility.yul\":29861:29863   */\n      0x60\n        /* \"#utility.yul\":29857:29871   */\n      shl\n        /* \"#utility.yul\":29836:29871   */\n      swap1\n      pop\n        /* \"#utility.yul\":29784:29878   */\n      swap2\n      swap1\n      pop\n      jump\t// out\n        /* \"#utility.yul\":29884:29978   */\n    tag_273:\n        /* \"#utility.yul\":29923:29930   */\n      0x00\n        /* \"#utility.yul\":29952:29972   */\n      tag_566\n        /* \"#utility.yul\":29966:29971   */\n      dup3\n        /* \"#utility.yul\":29952:29972   */\n      tag_272\n      jump\t// in\n    tag_566:\n        /* \"#utility.yul\":29941:29972   */\n      swap1\n      pop\n        /* \"#utility.yul\":29884:29978   */\n      swap2\n      swap1\n      pop\n      jump\t// out\n        /* \"#utility.yul\":29984:30084   */\n    tag_274:\n        /* \"#utility.yul\":30023:30030   */\n      0x00\n        /* \"#utility.yul\":30052:30078   */\n      tag_568\n        /* \"#utility.yul\":30072:30077   */\n      dup3\n        /* \"#utility.yul\":30052:30078   */\n      tag_273\n      jump\t// in\n    tag_568:\n        /* \"#utility.yul\":30041:30078   */\n      swap1\n      pop\n        /* \"#utility.yul\":29984:30084   */\n      swap2\n      swap1\n      pop\n      jump\t// out\n        /* \"#utility.yul\":30090:30247   */\n    tag_275:\n        /* \"#utility.yul\":30195:30240   */\n      tag_570\n        /* \"#utility.yul\":30215:30239   */\n      tag_571\n        /* \"#utility.yul\":30233:30238   */\n      dup3\n        /* \"#utility.yul\":30215:30239   */\n      tag_210\n      jump\t// in\n    tag_571:\n        /* \"#utility.yul\":30195:30240   */\n      tag_274\n      jump\t// in\n    tag_570:\n        /* \"#utility.yul\":30190:30193   */\n      dup3\n        /* \"#utility.yul\":30183:30241   */\n      mstore\n        /* \"#utility.yul\":30090:30247   */\n      pop\n      pop\n      jump\t// out\n        /* \"#utility.yul\":30253:30332   */\n    tag_276:\n        /* \"#utility.yul\":30292:30299   */\n      0x00\n        /* \"#utility.yul\":30321:30326   */\n      dup2\n        /* \"#utility.yul\":30310:30326   */\n      swap1\n      pop\n        /* \"#utility.yul\":30253:30332   */\n      swap2\n      swap1\n      pop\n      jump\t// out\n        /* \"#utility.yul\":30338:30495   */\n    tag_277:\n        /* \"#utility.yul\":30443:30488   */\n      tag_574\n        /* \"#utility.yul\":30463:30487   */\n      tag_575\n        /* \"#utility.yul\":30481:30486   */\n      dup3\n        /* \"#utility.yul\":30463:30487   */\n      tag_221\n      jump\t// in\n    tag_575:\n        /* \"#utility.yul\":30443:30488   */\n      tag_276\n      jump\t// in\n    tag_574:\n        /* \"#utility.yul\":30438:30441   */\n      dup3\n        /* \"#utility.yul\":30431:30489   */\n      mstore\n        /* \"#utility.yul\":30338:30495   */\n      pop\n      pop\n      jump\t// out\n        /* \"#utility.yul\":30501:31199   */\n    tag_181:\n        /* \"#utility.yul\":30717:30720   */\n      0x00\n        /* \"#utility.yul\":30732:30807   */\n      tag_577\n        /* \"#utility.yul\":30803:30806   */\n      dup3\n        /* \"#utility.yul\":30794:30800   */\n      dup8\n        /* \"#utility.yul\":30732:30807   */\n      tag_275\n      jump\t// in\n    tag_577:\n        /* \"#utility.yul\":30832:30834   */\n      0x14\n        /* \"#utility.yul\":30827:30830   */\n      dup3\n        /* \"#utility.yul\":30823:30835   */\n      add\n        /* \"#utility.yul\":30816:30835   */\n      swap2\n      pop\n        /* \"#utility.yul\":30852:30947   */\n      tag_578\n        /* \"#utility.yul\":30943:30946   */\n      dup3\n        /* \"#utility.yul\":30934:30940   */\n      dup7\n        /* \"#utility.yul\":30852:30947   */\n      tag_265\n      jump\t// in\n    tag_578:\n        /* \"#utility.yul\":30845:30947   */\n      swap2\n      pop\n        /* \"#utility.yul\":30957:31032   */\n      tag_579\n        /* \"#utility.yul\":31028:31031   */\n      dup3\n        /* \"#utility.yul\":31019:31025   */\n      dup6\n        /* \"#utility.yul\":30957:31032   */\n      tag_277\n      jump\t// in\n    tag_579:\n        /* \"#utility.yul\":31057:31059   */\n      0x20\n        /* \"#utility.yul\":31052:31055   */\n      dup3\n        /* \"#utility.yul\":31048:31060   */\n      add\n        /* \"#utility.yul\":31041:31060   */\n      swap2\n      pop\n        /* \"#utility.yul\":31070:31145   */\n      tag_580\n        /* \"#utility.yul\":31141:31144   */\n      dup3\n        /* \"#utility.yul\":31132:31138   */\n      dup5\n        /* \"#utility.yul\":31070:31145   */\n      tag_277\n      jump\t// in\n    tag_580:\n        /* \"#utility.yul\":31170:31172   */\n      0x20\n        /* \"#utility.yul\":31165:31168   */\n      dup3\n        /* \"#utility.yul\":31161:31173   */\n      add\n        /* \"#utility.yul\":31154:31173   */\n      swap2\n      pop\n        /* \"#utility.yul\":31190:31193   */\n      dup2\n        /* \"#utility.yul\":31183:31193   */\n      swap1\n      pop\n        /* \"#utility.yul\":30501:31199   */\n      swap6\n      swap5\n      pop\n      pop\n      pop\n      pop\n      pop\n      jump\t// out\n        /* \"#utility.yul\":31205:31377   */\n    tag_278:\n        /* \"#utility.yul\":31345:31369   */\n      0x596f752068617665206e6f20617574686f726974792e00000000000000000000\n        /* \"#utility.yul\":31341:31342   */\n      0x00\n        /* \"#utility.yul\":31333:31339   */\n      dup3\n        /* \"#utility.yul\":31329:31343   */\n      add\n        /* \"#utility.yul\":31322:31370   */\n      mstore\n        /* \"#utility.yul\":31205:31377   */\n      pop\n      jump\t// out\n        /* \"#utility.yul\":31383:31749   */\n    tag_279:\n        /* \"#utility.yul\":31525:31528   */\n      0x00\n        /* \"#utility.yul\":31546:31613   */\n      tag_583\n        /* \"#utility.yul\":31610:31612   */\n      0x16\n        /* \"#utility.yul\":31605:31608   */\n      dup4\n        /* \"#utility.yul\":31546:31613   */\n      tag_214\n      jump\t// in\n    tag_583:\n        /* \"#utility.yul\":31539:31613   */\n      swap2\n      pop\n        /* \"#utility.yul\":31622:31715   */\n      tag_584\n        /* \"#utility.yul\":31711:31714   */\n      dup3\n        /* \"#utility.yul\":31622:31715   */\n      tag_278\n      jump\t// in\n    tag_584:\n        /* \"#utility.yul\":31740:31742   */\n      0x20\n        /* \"#utility.yul\":31735:31738   */\n      dup3\n        /* \"#utility.yul\":31731:31743   */\n      add\n        /* \"#utility.yul\":31724:31743   */\n      swap1\n      pop\n        /* \"#utility.yul\":31383:31749   */\n      swap2\n      swap1\n      pop\n      jump\t// out\n        /* \"#utility.yul\":31755:32174   */\n    tag_188:\n        /* \"#utility.yul\":31921:31925   */\n      0x00\n        /* \"#utility.yul\":31959:31961   */\n      0x20\n        /* \"#utility.yul\":31948:31957   */\n      dup3\n        /* \"#utility.yul\":31944:31962   */\n      add\n        /* \"#utility.yul\":31936:31962   */\n      swap1\n      pop\n        /* \"#utility.yul\":32008:32017   */\n      dup2\n        /* \"#utility.yul\":32002:32006   */\n      dup2\n        /* \"#utility.yul\":31998:32018   */\n      sub\n        /* \"#utility.yul\":31994:31995   */\n      0x00\n        /* \"#utility.yul\":31983:31992   */\n      dup4\n        /* \"#utility.yul\":31979:31996   */\n      add\n        /* \"#utility.yul\":31972:32019   */\n      mstore\n        /* \"#utility.yul\":32036:32167   */\n      tag_586\n        /* \"#utility.yul\":32162:32166   */\n      dup2\n        /* \"#utility.yul\":32036:32167   */\n      tag_279\n      jump\t// in\n    tag_586:\n        /* \"#utility.yul\":32028:32167   */\n      swap1\n      pop\n        /* \"#utility.yul\":31755:32174   */\n      swap2\n      swap1\n      pop\n      jump\t// out\n        /* \"#utility.yul\":32180:32360   */\n    tag_280:\n        /* \"#utility.yul\":32228:32305   */\n      0x4e487b7100000000000000000000000000000000000000000000000000000000\n        /* \"#utility.yul\":32225:32226   */\n      0x00\n        /* \"#utility.yul\":32218:32306   */\n      mstore\n        /* \"#utility.yul\":32325:32329   */\n      0x11\n        /* \"#utility.yul\":32322:32323   */\n      0x04\n        /* \"#utility.yul\":32315:32330   */\n      mstore\n        /* \"#utility.yul\":32349:32353   */\n      0x24\n        /* \"#utility.yul\":32346:32347   */\n      0x00\n        /* \"#utility.yul\":32339:32354   */\n      revert\n        /* \"#utility.yul\":32366:32557   */\n    tag_193:\n        /* \"#utility.yul\":32406:32409   */\n      0x00\n        /* \"#utility.yul\":32425:32445   */\n      tag_589\n        /* \"#utility.yul\":32443:32444   */\n      dup3\n        /* \"#utility.yul\":32425:32445   */\n      tag_221\n      jump\t// in\n    tag_589:\n        /* \"#utility.yul\":32420:32445   */\n      swap2\n      pop\n        /* \"#utility.yul\":32459:32479   */\n      tag_590\n        /* \"#utility.yul\":32477:32478   */\n      dup4\n        /* \"#utility.yul\":32459:32479   */\n      tag_221\n      jump\t// in\n    tag_590:\n        /* \"#utility.yul\":32454:32479   */\n      swap3\n      pop\n        /* \"#utility.yul\":32502:32503   */\n      dup3\n        /* \"#utility.yul\":32499:32500   */\n      dup3\n        /* \"#utility.yul\":32495:32504   */\n      add\n        /* \"#utility.yul\":32488:32504   */\n      swap1\n      pop\n        /* \"#utility.yul\":32523:32526   */\n      dup1\n        /* \"#utility.yul\":32520:32521   */\n      dup3\n        /* \"#utility.yul\":32517:32527   */\n      gt\n        /* \"#utility.yul\":32514:32550   */\n      iszero\n      tag_591\n      jumpi\n        /* \"#utility.yul\":32530:32548   */\n      tag_592\n      tag_280\n      jump\t// in\n    tag_592:\n        /* \"#utility.yul\":32514:32550   */\n    tag_591:\n        /* \"#utility.yul\":32366:32557   */\n      swap3\n      swap2\n      pop\n      pop\n      jump\t// out\n        /* \"#utility.yul\":32563:32790   */\n    tag_281:\n        /* \"#utility.yul\":32703:32737   */\n      0x4e6f742031352064617973206265666f72652074686520636f6e747261637420\n        /* \"#utility.yul\":32699:32700   */\n      0x00\n        /* \"#utility.yul\":32691:32697   */\n      dup3\n        /* \"#utility.yul\":32687:32701   */\n      add\n        /* \"#utility.yul\":32680:32738   */\n      mstore\n        /* \"#utility.yul\":32772:32782   */\n      0x656e642064617465000000000000000000000000000000000000000000000000\n        /* \"#utility.yul\":32767:32769   */\n      0x20\n        /* \"#utility.yul\":32759:32765   */\n      dup3\n        /* \"#utility.yul\":32755:32770   */\n      add\n        /* \"#utility.yul\":32748:32783   */\n      mstore\n        /* \"#utility.yul\":32563:32790   */\n      pop\n      jump\t// out\n        /* \"#utility.yul\":32796:33162   */\n    tag_282:\n        /* \"#utility.yul\":32938:32941   */\n      0x00\n        /* \"#utility.yul\":32959:33026   */\n      tag_595\n        /* \"#utility.yul\":33023:33025   */\n      0x28\n        /* \"#utility.yul\":33018:33021   */\n      dup4\n        /* \"#utility.yul\":32959:33026   */\n      tag_214\n      jump\t// in\n    tag_595:\n        /* \"#utility.yul\":32952:33026   */\n      swap2\n      pop\n        /* \"#utility.yul\":33035:33128   */\n      tag_596\n        /* \"#utility.yul\":33124:33127   */\n      dup3\n        /* \"#utility.yul\":33035:33128   */\n      tag_281\n      jump\t// in\n    tag_596:\n        /* \"#utility.yul\":33153:33155   */\n      0x40\n        /* \"#utility.yul\":33148:33151   */\n      dup3\n        /* \"#utility.yul\":33144:33156   */\n      add\n        /* \"#utility.yul\":33137:33156   */\n      swap1\n      pop\n        /* \"#utility.yul\":32796:33162   */\n      swap2\n      swap1\n      pop\n      jump\t// out\n        /* \"#utility.yul\":33168:33587   */\n    tag_196:\n        /* \"#utility.yul\":33334:33338   */\n      0x00\n        /* \"#utility.yul\":33372:33374   */\n      0x20\n        /* \"#utility.yul\":33361:33370   */\n      dup3\n        /* \"#utility.yul\":33357:33375   */\n      add\n        /* \"#utility.yul\":33349:33375   */\n      swap1\n      pop\n        /* \"#utility.yul\":33421:33430   */\n      dup2\n        /* \"#utility.yul\":33415:33419   */\n      dup2\n        /* \"#utility.yul\":33411:33431   */\n      sub\n        /* \"#utility.yul\":33407:33408   */\n      0x00\n        /* \"#utility.yul\":33396:33405   */\n      dup4\n        /* \"#utility.yul\":33392:33409   */\n      add\n        /* \"#utility.yul\":33385:33432   */\n      mstore\n        /* \"#utility.yul\":33449:33580   */\n      tag_598\n        /* \"#utility.yul\":33575:33579   */\n      dup2\n        /* \"#utility.yul\":33449:33580   */\n      tag_282\n      jump\t// in\n    tag_598:\n        /* \"#utility.yul\":33441:33580   */\n      swap1\n      pop\n        /* \"#utility.yul\":33168:33587   */\n      swap2\n      swap1\n      pop\n      jump\t// out\n\n    auxdata: 0xa2646970667358221220f60f4f0bfdc7bbb102a2651798b4c4a37d38b07c287dbe4bf4ff85e46ff662a264736f6c63430008120033\n}\n",
				"bytecode": {
					"linkReferences": {},
					"object": "608060405234801561001057600080fd5b50336000806101000a81548173ffffffffffffffffffffffffffffffffffffffff021916908373ffffffffffffffffffffffffffffffffffffffff160217905550613667806100606000396000f3fe608060405234801561001057600080fd5b50600436106100f55760003560e01c806391e7f13a11610097578063e545248d11610066578063e545248d146102b8578063e7c17d67146102d4578063eea5714114610307578063f50d63ef14610323576100f5565b806391e7f13a14610216578063a5b5737c14610249578063b387d77814610265578063cbd2409314610281576100f5565b80634ef9d923116100d35780634ef9d9231461017a57806359bf1abe1461019657806380144bce146101c657806386584e27146101fa576100f5565b806316dd85da146100fa5780634838d1651461012c5780634e8abc871461015c575b600080fd5b610114600480360381019061010f9190612546565b61033f565b6040516101239392919061262d565b60405180910390f35b61014660048036038101906101419190612546565b61041e565b604051610153919061266b565b60405180910390f35b61016461043e565b6040516101719190612686565b60405180910390f35b610194600480360381019061018f9190612703565b610462565b005b6101b060048036038101906101ab9190612546565b6105df565b6040516101bd919061266b565b60405180910390f35b6101e060048036038101906101db9190612743565b610635565b6040516101f195949392919061277f565b60405180910390f35b610214600480360381019061020f919061290e565b610753565b005b610230600480360381019061022b919061296a565b61091a565b60405161024094939291906129b3565b60405180910390f35b610263600480360381019061025e9190612703565b610a9d565b005b61027f600480360381019061027a9190612a06565b610c49565b005b61029b60048036038101906102969190612743565b611231565b6040516102af989796959493929190612a62565b60405180910390f35b6102d260048036038101906102cd9190612aee565b6113e3565b005b6102ee60048036038101906102e99190612743565b6116e5565b6040516102fe9493929190612b66565b60405180910390f35b610321600480360381019061031c9190612bb2565b6117dd565b005b61033d60048036038101906103389190612c65565b611bb9565b005b600260205280600052604060002060009150905080600001805461036290612d03565b80601f016020809104026020016040519081016040528092919081815260200182805461038e90612d03565b80156103db5780601f106103b0576101008083540402835291602001916103db565b820191906000526020600020905b8154815290600101906020018083116103be57829003601f168201915b5050505050908060010160009054906101000a900473ffffffffffffffffffffffffffffffffffffffff16908060010160149054906101000a900460ff16905083565b60016020528060005260406000206000915054906101000a900460ff1681565b60008054906101000a900473ffffffffffffffffffffffffffffffffffffffff1681565b600115156004600084815260200190815260200160002060060160009054906101000a900460ff161515146104cc576040517f08c379a00000000000000000000000000000000000000000000000000000000081526004016104c390612d80565b60405180910390fd5b3373ffffffffffffffffffffffffffffffffffffffff166006600084815260200190815260200160002060030160009054906101000a900473ffffffffffffffffffffffffffffffffffffffff1673ffffffffffffffffffffffffffffffffffffffff1614610570576040517f08c379a000000000000000000000000000000000000000000000000000000000815260040161056790612dec565b60405180910390fd5b60011515811515036105db5760016004600084815260200190815260200160002060060160016101000a81548160ff02191690831515021790555060006004600084815260200190815260200160002060060160006101000a81548160ff0219169083151502179055505b5050565b6000600160008373ffffffffffffffffffffffffffffffffffffffff1673ffffffffffffffffffffffffffffffffffffffff16815260200190815260200160002060009054906101000a900460ff169050919050565b60056020528060005260406000206000915090508060000154908060010160009054906101000a900473ffffffffffffffffffffffffffffffffffffffff16908060020160009054906101000a900473ffffffffffffffffffffffffffffffffffffffff16908060030180546106aa90612d03565b80601f01602080910402602001604051908101604052809291908181526020018280546106d690612d03565b80156107235780601f106106f857610100808354040283529160200191610723565b820191906000526020600020905b81548152906001019060200180831161070657829003601f168201915b5050505050908060040160009054906101000a900473ffffffffffffffffffffffffffffffffffffffff16905085565b600073ffffffffffffffffffffffffffffffffffffffff16600260003373ffffffffffffffffffffffffffffffffffffffff1673ffffffffffffffffffffffffffffffffffffffff16815260200190815260200160002060010160009054906101000a900473ffffffffffffffffffffffffffffffffffffffff1673ffffffffffffffffffffffffffffffffffffffff1614610824576040517f08c379a000000000000000000000000000000000000000000000000000000000815260040161081b90612e58565b60405180910390fd5b60405180606001604052808381526020013373ffffffffffffffffffffffffffffffffffffffff168152602001821515815250600260003373ffffffffffffffffffffffffffffffffffffffff1673ffffffffffffffffffffffffffffffffffffffff16815260200190815260200160002060008201518160000190816108ab9190613024565b5060208201518160010160006101000a81548173ffffffffffffffffffffffffffffffffffffffff021916908373ffffffffffffffffffffffffffffffffffffffff16021790555060408201518160010160146101000a81548160ff0219169083151502179055509050505050565b6003818051602081018201805184825260208301602085012081835280955050505050506000915090508060000160009054906101000a900473ffffffffffffffffffffffffffffffffffffffff169080600101805461097990612d03565b80601f01602080910402602001604051908101604052809291908181526020018280546109a590612d03565b80156109f25780601f106109c7576101008083540402835291602001916109f2565b820191906000526020600020905b8154815290600101906020018083116109d557829003601f168201915b505050505090806002018054610a0790612d03565b80601f0160208091040260200160405190810160405280929190818152602001828054610a3390612d03565b8015610a805780601f10610a5557610100808354040283529160200191610a80565b820191906000526020600020905b815481529060010190602001808311610a6357829003601f168201915b5050505050908060030160009054906101000a900460ff16905084565b600115156004600084815260200190815260200160002060060160009054906101000a900460ff16151514610b07576040517f08c379a0000000000000000000000000000000000000000000000000000000008152600401610afe90612d80565b60405180910390fd5b3373ffffffffffffffffffffffffffffffffffffffff166005600084815260200190815260200160002060040160009054906101000a900473ffffffffffffffffffffffffffffffffffffffff1673ffffffffffffffffffffffffffffffffffffffff1614610bab576040517f08c379a0000000000000000000000000000000000000000000000000000000008152600401610ba290612dec565b60405180910390fd5b6001151581151503610c455760018060006005600086815260200190815260200160002060020160009054906101000a900473ffffffffffffffffffffffffffffffffffffffff1673ffffffffffffffffffffffffffffffffffffffff1673ffffffffffffffffffffffffffffffffffffffff16815260200190815260200160002060006101000a81548160ff0219169083151502179055505b5050565b3373ffffffffffffffffffffffffffffffffffffffff166004600084815260200190815260200160002060010160009054906101000a900473ffffffffffffffffffffffffffffffffffffffff1673ffffffffffffffffffffffffffffffffffffffff161480610d1a57503373ffffffffffffffffffffffffffffffffffffffff166004600084815260200190815260200160002060000160009054906101000a900473ffffffffffffffffffffffffffffffffffffffff1673ffffffffffffffffffffffffffffffffffffffff16145b610d59576040517f08c379a0000000000000000000000000000000000000000000000000000000008152600401610d5090613168565b60405180910390fd5b3373ffffffffffffffffffffffffffffffffffffffff166004600084815260200190815260200160002060010160009054906101000a900473ffffffffffffffffffffffffffffffffffffffff1673ffffffffffffffffffffffffffffffffffffffff1603610fc3576040518060a001604052808381526020016004600085815260200190815260200160002060010160009054906101000a900473ffffffffffffffffffffffffffffffffffffffff1673ffffffffffffffffffffffffffffffffffffffff1681526020016004600085815260200190815260200160002060000160009054906101000a900473ffffffffffffffffffffffffffffffffffffffff1673ffffffffffffffffffffffffffffffffffffffff16815260200182815260200160008054906101000a900473ffffffffffffffffffffffffffffffffffffffff1673ffffffffffffffffffffffffffffffffffffffff16815250600560008481526020019081526020016000206000820151816000015560208201518160010160006101000a81548173ffffffffffffffffffffffffffffffffffffffff021916908373ffffffffffffffffffffffffffffffffffffffff16021790555060408201518160020160006101000a81548173ffffffffffffffffffffffffffffffffffffffff021916908373ffffffffffffffffffffffffffffffffffffffff1602179055506060820151816003019081610f779190613024565b5060808201518160040160006101000a81548173ffffffffffffffffffffffffffffffffffffffff021916908373ffffffffffffffffffffffffffffffffffffffff1602179055509050505b3373ffffffffffffffffffffffffffffffffffffffff166004600084815260200190815260200160002060000160009054906101000a900473ffffffffffffffffffffffffffffffffffffffff1673ffffffffffffffffffffffffffffffffffffffff160361122d576040518060a001604052808381526020016004600085815260200190815260200160002060000160009054906101000a900473ffffffffffffffffffffffffffffffffffffffff1673ffffffffffffffffffffffffffffffffffffffff1681526020016004600085815260200190815260200160002060010160009054906101000a900473ffffffffffffffffffffffffffffffffffffffff1673ffffffffffffffffffffffffffffffffffffffff16815260200182815260200160008054906101000a900473ffffffffffffffffffffffffffffffffffffffff1673ffffffffffffffffffffffffffffffffffffffff16815250600560008481526020019081526020016000206000820151816000015560208201518160010160006101000a81548173ffffffffffffffffffffffffffffffffffffffff021916908373ffffffffffffffffffffffffffffffffffffffff16021790555060408201518160020160006101000a81548173ffffffffffffffffffffffffffffffffffffffff021916908373ffffffffffffffffffffffffffffffffffffffff16021790555060608201518160030190816111e19190613024565b5060808201518160040160006101000a81548173ffffffffffffffffffffffffffffffffffffffff021916908373ffffffffffffffffffffffffffffffffffffffff1602179055509050505b5050565b60046020528060005260406000206000915090508060000160009054906101000a900473ffffffffffffffffffffffffffffffffffffffff16908060010160009054906101000a900473ffffffffffffffffffffffffffffffffffffffff16908060020180546112a090612d03565b80601f01602080910402602001604051908101604052809291908181526020018280546112cc90612d03565b80156113195780601f106112ee57610100808354040283529160200191611319565b820191906000526020600020905b8154815290600101906020018083116112fc57829003601f168201915b50505050509080600301805461132e90612d03565b80601f016020809104026020016040519081016040528092919081815260200182805461135a90612d03565b80156113a75780601f1061137c576101008083540402835291602001916113a7565b820191906000526020600020905b81548152906001019060200180831161138a57829003601f168201915b5050505050908060040154908060050154908060060160009054906101000a900460ff16908060060160019054906101000a900460ff16905088565b600073ffffffffffffffffffffffffffffffffffffffff16600260003373ffffffffffffffffffffffffffffffffffffffff1673ffffffffffffffffffffffffffffffffffffffff16815260200190815260200160002060010160009054906101000a900473ffffffffffffffffffffffffffffffffffffffff1673ffffffffffffffffffffffffffffffffffffffff16036114b4576040517f08c379a00000000000000000000000000000000000000000000000000000000081526004016114ab906131d4565b60405180910390fd5b600260003373ffffffffffffffffffffffffffffffffffffffff1673ffffffffffffffffffffffffffffffffffffffff16815260200190815260200160002060010160149054906101000a900460ff16611543576040517f08c379a000000000000000000000000000000000000000000000000000000000815260040161153a90613240565b60405180910390fd5b600073ffffffffffffffffffffffffffffffffffffffff1660038360405161156b919061329c565b908152602001604051809103902060000160009054906101000a900473ffffffffffffffffffffffffffffffffffffffff1673ffffffffffffffffffffffffffffffffffffffff16146115f3576040517f08c379a00000000000000000000000000000000000000000000000000000000081526004016115ea906132ff565b60405180910390fd5b60405180608001604052803373ffffffffffffffffffffffffffffffffffffffff1681526020018381526020018281526020016000151581525060038360405161163d919061329c565b908152602001604051809103902060008201518160000160006101000a81548173ffffffffffffffffffffffffffffffffffffffff021916908373ffffffffffffffffffffffffffffffffffffffff16021790555060208201518160010190816116a79190613024565b5060408201518160020190816116bd9190613024565b5060608201518160030160006101000a81548160ff0219169083151502179055509050505050565b60066020528060005260406000206000915090508060000154908060010160009054906101000a900473ffffffffffffffffffffffffffffffffffffffff169080600201805461173490612d03565b80601f016020809104026020016040519081016040528092919081815260200182805461176090612d03565b80156117ad5780601f10611782576101008083540402835291602001916117ad565b820191906000526020600020905b81548152906001019060200180831161179057829003601f168201915b5050505050908060030160009054906101000a900473ffffffffffffffffffffffffffffffffffffffff16905084565b600073ffffffffffffffffffffffffffffffffffffffff16600260003373ffffffffffffffffffffffffffffffffffffffff1673ffffffffffffffffffffffffffffffffffffffff16815260200190815260200160002060010160009054906101000a900473ffffffffffffffffffffffffffffffffffffffff1673ffffffffffffffffffffffffffffffffffffffff16036118ae576040517f08c379a00000000000000000000000000000000000000000000000000000000081526004016118a5906131d4565b60405180910390fd5b600260003373ffffffffffffffffffffffffffffffffffffffff1673ffffffffffffffffffffffffffffffffffffffff16815260200190815260200160002060010160149054906101000a900460ff1661193d576040517f08c379a000000000000000000000000000000000000000000000000000000000815260040161193490613391565b60405180910390fd5b600073ffffffffffffffffffffffffffffffffffffffff16600385604051611965919061329c565b908152602001604051809103902060000160009054906101000a900473ffffffffffffffffffffffffffffffffffffffff1673ffffffffffffffffffffffffffffffffffffffff16036119ed576040517f08c379a00000000000000000000000000000000000000000000000000000000081526004016119e4906133fd565b60405180910390fd5b600033858484604051602001611a069493929190613486565b6040516020818303038152906040528051906020012060001c90506040518061010001604052803373ffffffffffffffffffffffffffffffffffffffff1681526020018773ffffffffffffffffffffffffffffffffffffffff168152602001868152602001858152602001848152602001838152602001600115158152602001600015158152506004600083815260200190815260200160002060008201518160000160006101000a81548173ffffffffffffffffffffffffffffffffffffffff021916908373ffffffffffffffffffffffffffffffffffffffff16021790555060208201518160010160006101000a81548173ffffffffffffffffffffffffffffffffffffffff021916908373ffffffffffffffffffffffffffffffffffffffff1602179055506040820151816002019081611b439190613024565b506060820151816003019081611b599190613024565b506080820151816004015560a0820151816005015560c08201518160060160006101000a81548160ff02191690831515021790555060e08201518160060160016101000a81548160ff021916908315150217905550905050505050505050565b3373ffffffffffffffffffffffffffffffffffffffff166004600085815260200190815260200160002060010160009054906101000a900473ffffffffffffffffffffffffffffffffffffffff1673ffffffffffffffffffffffffffffffffffffffff161480611c8a57503373ffffffffffffffffffffffffffffffffffffffff166004600085815260200190815260200160002060000160009054906101000a900473ffffffffffffffffffffffffffffffffffffffff1673ffffffffffffffffffffffffffffffffffffffff16145b611cc9576040517f08c379a0000000000000000000000000000000000000000000000000000000008152600401611cc09061351c565b60405180910390fd5b600115156004600085815260200190815260200160002060060160009054906101000a900460ff16151514611d33576040517f08c379a0000000000000000000000000000000000000000000000000000000008152600401611d2a90612d80565b60405180910390fd5b3373ffffffffffffffffffffffffffffffffffffffff166004600085815260200190815260200160002060010160009054906101000a900473ffffffffffffffffffffffffffffffffffffffff1673ffffffffffffffffffffffffffffffffffffffff1603611ff85760006004600085815260200190815260200160002060050154905060006213c68042611dc8919061356b565b9050808210611e0c576040517f08c379a0000000000000000000000000000000000000000000000000000000008152600401611e0390613611565b60405180910390fd5b80821015611e775760016004600087815260200190815260200160002060060160016101000a81548160ff02191690831515021790555060006004600087815260200190815260200160002060060160006101000a81548160ff021916908315150217905550611ff5565b60405180608001604052808681526020016004600088815260200190815260200160002060010160009054906101000a900473ffffffffffffffffffffffffffffffffffffffff1673ffffffffffffffffffffffffffffffffffffffff1681526020018481526020016004600088815260200190815260200160002060000160009054906101000a900473ffffffffffffffffffffffffffffffffffffffff1673ffffffffffffffffffffffffffffffffffffffff16815250600660008781526020019081526020016000206000820151816000015560208201518160010160006101000a81548173ffffffffffffffffffffffffffffffffffffffff021916908373ffffffffffffffffffffffffffffffffffffffff1602179055506040820151816002019081611fa99190613024565b5060608201518160030160006101000a81548173ffffffffffffffffffffffffffffffffffffffff021916908373ffffffffffffffffffffffffffffffffffffffff1602179055509050505b50505b3373ffffffffffffffffffffffffffffffffffffffff166004600085815260200190815260200160002060000160009054906101000a900473ffffffffffffffffffffffffffffffffffffffff1673ffffffffffffffffffffffffffffffffffffffff16036124cf5781156121e95760405180608001604052808481526020016004600086815260200190815260200160002060000160009054906101000a900473ffffffffffffffffffffffffffffffffffffffff1673ffffffffffffffffffffffffffffffffffffffff1681526020018281526020016004600086815260200190815260200160002060010160009054906101000a900473ffffffffffffffffffffffffffffffffffffffff1673ffffffffffffffffffffffffffffffffffffffff16815250600660008581526020019081526020016000206000820151816000015560208201518160010160006101000a81548173ffffffffffffffffffffffffffffffffffffffff021916908373ffffffffffffffffffffffffffffffffffffffff16021790555060408201518160020190816121999190613024565b5060608201518160030160006101000a81548173ffffffffffffffffffffffffffffffffffffffff021916908373ffffffffffffffffffffffffffffffffffffffff1602179055509050506124ce565b60405180608001604052808481526020016004600086815260200190815260200160002060000160009054906101000a900473ffffffffffffffffffffffffffffffffffffffff1673ffffffffffffffffffffffffffffffffffffffff1681526020018281526020016004600086815260200190815260200160002060010160009054906101000a900473ffffffffffffffffffffffffffffffffffffffff1673ffffffffffffffffffffffffffffffffffffffff16815250600660008581526020019081526020016000206000820151816000015560208201518160010160006101000a81548173ffffffffffffffffffffffffffffffffffffffff021916908373ffffffffffffffffffffffffffffffffffffffff160217905550604082015181600201908161231b9190613024565b5060608201518160030160006101000a81548173ffffffffffffffffffffffffffffffffffffffff021916908373ffffffffffffffffffffffffffffffffffffffff16021790555090505060405180608001604052808481526020016004600086815260200190815260200160002060000160009054906101000a900473ffffffffffffffffffffffffffffffffffffffff1673ffffffffffffffffffffffffffffffffffffffff16815260200182815260200160008054906101000a900473ffffffffffffffffffffffffffffffffffffffff1673ffffffffffffffffffffffffffffffffffffffff16815250600660008581526020019081526020016000206000820151816000015560208201518160010160006101000a81548173ffffffffffffffffffffffffffffffffffffffff021916908373ffffffffffffffffffffffffffffffffffffffff16021790555060408201518160020190816124829190613024565b5060608201518160030160006101000a81548173ffffffffffffffffffffffffffffffffffffffff021916908373ffffffffffffffffffffffffffffffffffffffff1602179055509050505b5b505050565b6000604051905090565b600080fd5b600080fd5b600073ffffffffffffffffffffffffffffffffffffffff82169050919050565b6000612513826124e8565b9050919050565b61252381612508565b811461252e57600080fd5b50565b6000813590506125408161251a565b92915050565b60006020828403121561255c5761255b6124de565b5b600061256a84828501612531565b91505092915050565b600081519050919050565b600082825260208201905092915050565b60005b838110156125ad578082015181840152602081019050612592565b60008484015250505050565b6000601f19601f8301169050919050565b60006125d582612573565b6125df818561257e565b93506125ef81856020860161258f565b6125f8816125b9565b840191505092915050565b61260c81612508565b82525050565b60008115159050919050565b61262781612612565b82525050565b6000606082019050818103600083015261264781866125ca565b90506126566020830185612603565b612663604083018461261e565b949350505050565b6000602082019050612680600083018461261e565b92915050565b600060208201905061269b6000830184612603565b92915050565b6000819050919050565b6126b4816126a1565b81146126bf57600080fd5b50565b6000813590506126d1816126ab565b92915050565b6126e081612612565b81146126eb57600080fd5b50565b6000813590506126fd816126d7565b92915050565b6000806040838503121561271a576127196124de565b5b6000612728858286016126c2565b9250506020612739858286016126ee565b9150509250929050565b600060208284031215612759576127586124de565b5b6000612767848285016126c2565b91505092915050565b612779816126a1565b82525050565b600060a0820190506127946000830188612770565b6127a16020830187612603565b6127ae6040830186612603565b81810360608301526127c081856125ca565b90506127cf6080830184612603565b9695505050505050565b600080fd5b600080fd5b7f4e487b7100000000000000000000000000000000000000000000000000000000600052604160045260246000fd5b61281b826125b9565b810181811067ffffffffffffffff8211171561283a576128396127e3565b5b80604052505050565b600061284d6124d4565b90506128598282612812565b919050565b600067ffffffffffffffff821115612879576128786127e3565b5b612882826125b9565b9050602081019050919050565b82818337600083830152505050565b60006128b16128ac8461285e565b612843565b9050828152602081018484840111156128cd576128cc6127de565b5b6128d884828561288f565b509392505050565b600082601f8301126128f5576128f46127d9565b5b813561290584826020860161289e565b91505092915050565b60008060408385031215612925576129246124de565b5b600083013567ffffffffffffffff811115612943576129426124e3565b5b61294f858286016128e0565b9250506020612960858286016126ee565b9150509250929050565b6000602082840312156129805761297f6124de565b5b600082013567ffffffffffffffff81111561299e5761299d6124e3565b5b6129aa848285016128e0565b91505092915050565b60006080820190506129c86000830187612603565b81810360208301526129da81866125ca565b905081810360408301526129ee81856125ca565b90506129fd606083018461261e565b95945050505050565b60008060408385031215612a1d57612a1c6124de565b5b6000612a2b858286016126c2565b925050602083013567ffffffffffffffff811115612a4c57612a4b6124e3565b5b612a58858286016128e0565b9150509250929050565b600061010082019050612a78600083018b612603565b612a85602083018a612603565b8181036040830152612a9781896125ca565b90508181036060830152612aab81886125ca565b9050612aba6080830187612770565b612ac760a0830186612770565b612ad460c083018561261e565b612ae160e083018461261e565b9998505050505050505050565b60008060408385031215612b0557612b046124de565b5b600083013567ffffffffffffffff811115612b2357612b226124e3565b5b612b2f858286016128e0565b925050602083013567ffffffffffffffff811115612b5057612b4f6124e3565b5b612b5c858286016128e0565b9150509250929050565b6000608082019050612b7b6000830187612770565b612b886020830186612603565b8181036040830152612b9a81856125ca565b9050612ba96060830184612603565b95945050505050565b600080600080600060a08688031215612bce57612bcd6124de565b5b6000612bdc88828901612531565b955050602086013567ffffffffffffffff811115612bfd57612bfc6124e3565b5b612c09888289016128e0565b945050604086013567ffffffffffffffff811115612c2a57612c296124e3565b5b612c36888289016128e0565b9350506060612c47888289016126c2565b9250506080612c58888289016126c2565b9150509295509295909350565b600080600060608486031215612c7e57612c7d6124de565b5b6000612c8c868287016126c2565b9350506020612c9d868287016126ee565b925050604084013567ffffffffffffffff811115612cbe57612cbd6124e3565b5b612cca868287016128e0565b9150509250925092565b7f4e487b7100000000000000000000000000000000000000000000000000000000600052602260045260246000fd5b60006002820490506001821680612d1b57607f821691505b602082108103612d2e57612d2d612cd4565b5b50919050565b7f436f6e7472616374206973206e6f742076616c69640000000000000000000000600082015250565b6000612d6a60158361257e565b9150612d7582612d34565b602082019050919050565b60006020820190508181036000830152612d9981612d5d565b9050919050565b7f55736572206e6f7420617574686f72697a656400000000000000000000000000600082015250565b6000612dd660138361257e565b9150612de182612da0565b602082019050919050565b60006020820190508181036000830152612e0581612dc9565b9050919050565b7f5573657220697320616c72656164792072656769737465726564000000000000600082015250565b6000612e42601a8361257e565b9150612e4d82612e0c565b602082019050919050565b60006020820190508181036000830152612e7181612e35565b9050919050565b60008190508160005260206000209050919050565b60006020601f8301049050919050565b600082821b905092915050565b600060088302612eda7fffffffffffffffffffffffffffffffffffffffffffffffffffffffffffffffff82612e9d565b612ee48683612e9d565b95508019841693508086168417925050509392505050565b6000819050919050565b6000612f21612f1c612f17846126a1565b612efc565b6126a1565b9050919050565b6000819050919050565b612f3b83612f06565b612f4f612f4782612f28565b848454612eaa565b825550505050565b600090565b612f64612f57565b612f6f818484612f32565b505050565b5b81811015612f9357612f88600082612f5c565b600181019050612f75565b5050565b601f821115612fd857612fa981612e78565b612fb284612e8d565b81016020851015612fc1578190505b612fd5612fcd85612e8d565b830182612f74565b50505b505050565b600082821c905092915050565b6000612ffb60001984600802612fdd565b1980831691505092915050565b60006130148383612fea565b9150826002028217905092915050565b61302d82612573565b67ffffffffffffffff811115613046576130456127e3565b5b6130508254612d03565b61305b828285612f97565b600060209050601f83116001811461308e576000841561307c578287015190505b6130868582613008565b8655506130ee565b601f19841661309c86612e78565b60005b828110156130c45784890151825560018201915060208501945060208101905061309f565b868310156130e157848901516130dd601f891682612fea565b8355505b6001600288020188555050505b505050505050565b7f4f6e6c79207468652074656e616e74206f722070726f7065727479206f776e6560008201527f722063616e2066696c65206120636f6d706c61696e7400000000000000000000602082015250565b600061315260368361257e565b915061315d826130f6565b604082019050919050565b6000602082019050818103600083015261318181613145565b9050919050565b7f55736572206e6f7420666f756e64000000000000000000000000000000000000600082015250565b60006131be600e8361257e565b91506131c982613188565b602082019050919050565b600060208201905081810360008301526131ed816131b1565b9050919050565b7f54656e616e74732063616e2774206164642070726f7065727469657300000000600082015250565b600061322a601c8361257e565b9150613235826131f4565b602082019050919050565b600060208201905081810360008301526132598161321d565b9050919050565b600081905092915050565b600061327682612573565b6132808185613260565b935061329081856020860161258f565b80840191505092915050565b60006132a8828461326b565b915081905092915050565b7f50726f706572747920616c726561647920657869737473000000000000000000600082015250565b60006132e960178361257e565b91506132f4826132b3565b602082019050919050565b60006020820190508181036000830152613318816132dc565b9050919050565b7f54656e616e74732063616e6e6f7420696e697469617465206120636f6e74726160008201527f6374000000000000000000000000000000000000000000000000000000000000602082015250565b600061337b60228361257e565b91506133868261331f565b604082019050919050565b600060208201905081810360008301526133aa8161336e565b9050919050565b7f50726f7065727479206e6f7420666f756e640000000000000000000000000000600082015250565b60006133e760128361257e565b91506133f2826133b1565b602082019050919050565b60006020820190508181036000830152613416816133da565b9050919050565b60008160601b9050919050565b60006134358261341d565b9050919050565b60006134478261342a565b9050919050565b61345f61345a82612508565b61343c565b82525050565b6000819050919050565b61348061347b826126a1565b613465565b82525050565b6000613492828761344e565b6014820191506134a2828661326b565b91506134ae828561346f565b6020820191506134be828461346f565b60208201915081905095945050505050565b7f596f752068617665206e6f20617574686f726974792e00000000000000000000600082015250565b600061350660168361257e565b9150613511826134d0565b602082019050919050565b60006020820190508181036000830152613535816134f9565b9050919050565b7f4e487b7100000000000000000000000000000000000000000000000000000000600052601160045260246000fd5b6000613576826126a1565b9150613581836126a1565b92508282019050808211156135995761359861353c565b5b92915050565b7f4e6f742031352064617973206265666f72652074686520636f6e74726163742060008201527f656e642064617465000000000000000000000000000000000000000000000000602082015250565b60006135fb60288361257e565b91506136068261359f565b604082019050919050565b6000602082019050818103600083015261362a816135ee565b905091905056fea2646970667358221220f60f4f0bfdc7bbb102a2651798b4c4a37d38b07c287dbe4bf4ff85e46ff662a264736f6c63430008120033",
					"opcodes": "PUSH1 0x80 PUSH1 0x40 MSTORE CALLVALUE DUP1 ISZERO PUSH2 0x10 JUMPI PUSH1 0x0 DUP1 REVERT JUMPDEST POP CALLER PUSH1 0x0 DUP1 PUSH2 0x100 EXP DUP2 SLOAD DUP2 PUSH20 0xFFFFFFFFFFFFFFFFFFFFFFFFFFFFFFFFFFFFFFFF MUL NOT AND SWAP1 DUP4 PUSH20 0xFFFFFFFFFFFFFFFFFFFFFFFFFFFFFFFFFFFFFFFF AND MUL OR SWAP1 SSTORE POP PUSH2 0x3667 DUP1 PUSH2 0x60 PUSH1 0x0 CODECOPY PUSH1 0x0 RETURN INVALID PUSH1 0x80 PUSH1 0x40 MSTORE CALLVALUE DUP1 ISZERO PUSH2 0x10 JUMPI PUSH1 0x0 DUP1 REVERT JUMPDEST POP PUSH1 0x4 CALLDATASIZE LT PUSH2 0xF5 JUMPI PUSH1 0x0 CALLDATALOAD PUSH1 0xE0 SHR DUP1 PUSH4 0x91E7F13A GT PUSH2 0x97 JUMPI DUP1 PUSH4 0xE545248D GT PUSH2 0x66 JUMPI DUP1 PUSH4 0xE545248D EQ PUSH2 0x2B8 JUMPI DUP1 PUSH4 0xE7C17D67 EQ PUSH2 0x2D4 JUMPI DUP1 PUSH4 0xEEA57141 EQ PUSH2 0x307 JUMPI DUP1 PUSH4 0xF50D63EF EQ PUSH2 0x323 JUMPI PUSH2 0xF5 JUMP JUMPDEST DUP1 PUSH4 0x91E7F13A EQ PUSH2 0x216 JUMPI DUP1 PUSH4 0xA5B5737C EQ PUSH2 0x249 JUMPI DUP1 PUSH4 0xB387D778 EQ PUSH2 0x265 JUMPI DUP1 PUSH4 0xCBD24093 EQ PUSH2 0x281 JUMPI PUSH2 0xF5 JUMP JUMPDEST DUP1 PUSH4 0x4EF9D923 GT PUSH2 0xD3 JUMPI DUP1 PUSH4 0x4EF9D923 EQ PUSH2 0x17A JUMPI DUP1 PUSH4 0x59BF1ABE EQ PUSH2 0x196 JUMPI DUP1 PUSH4 0x80144BCE EQ PUSH2 0x1C6 JUMPI DUP1 PUSH4 0x86584E27 EQ PUSH2 0x1FA JUMPI PUSH2 0xF5 JUMP JUMPDEST DUP1 PUSH4 0x16DD85DA EQ PUSH2 0xFA JUMPI DUP1 PUSH4 0x4838D165 EQ PUSH2 0x12C JUMPI DUP1 PUSH4 0x4E8ABC87 EQ PUSH2 0x15C JUMPI JUMPDEST PUSH1 0x0 DUP1 REVERT JUMPDEST PUSH2 0x114 PUSH1 0x4 DUP1 CALLDATASIZE SUB DUP2 ADD SWAP1 PUSH2 0x10F SWAP2 SWAP1 PUSH2 0x2546 JUMP JUMPDEST PUSH2 0x33F JUMP JUMPDEST PUSH1 0x40 MLOAD PUSH2 0x123 SWAP4 SWAP3 SWAP2 SWAP1 PUSH2 0x262D JUMP JUMPDEST PUSH1 0x40 MLOAD DUP1 SWAP2 SUB SWAP1 RETURN JUMPDEST PUSH2 0x146 PUSH1 0x4 DUP1 CALLDATASIZE SUB DUP2 ADD SWAP1 PUSH2 0x141 SWAP2 SWAP1 PUSH2 0x2546 JUMP JUMPDEST PUSH2 0x41E JUMP JUMPDEST PUSH1 0x40 MLOAD PUSH2 0x153 SWAP2 SWAP1 PUSH2 0x266B JUMP JUMPDEST PUSH1 0x40 MLOAD DUP1 SWAP2 SUB SWAP1 RETURN JUMPDEST PUSH2 0x164 PUSH2 0x43E JUMP JUMPDEST PUSH1 0x40 MLOAD PUSH2 0x171 SWAP2 SWAP1 PUSH2 0x2686 JUMP JUMPDEST PUSH1 0x40 MLOAD DUP1 SWAP2 SUB SWAP1 RETURN JUMPDEST PUSH2 0x194 PUSH1 0x4 DUP1 CALLDATASIZE SUB DUP2 ADD SWAP1 PUSH2 0x18F SWAP2 SWAP1 PUSH2 0x2703 JUMP JUMPDEST PUSH2 0x462 JUMP JUMPDEST STOP JUMPDEST PUSH2 0x1B0 PUSH1 0x4 DUP1 CALLDATASIZE SUB DUP2 ADD SWAP1 PUSH2 0x1AB SWAP2 SWAP1 PUSH2 0x2546 JUMP JUMPDEST PUSH2 0x5DF JUMP JUMPDEST PUSH1 0x40 MLOAD PUSH2 0x1BD SWAP2 SWAP1 PUSH2 0x266B JUMP JUMPDEST PUSH1 0x40 MLOAD DUP1 SWAP2 SUB SWAP1 RETURN JUMPDEST PUSH2 0x1E0 PUSH1 0x4 DUP1 CALLDATASIZE SUB DUP2 ADD SWAP1 PUSH2 0x1DB SWAP2 SWAP1 PUSH2 0x2743 JUMP JUMPDEST PUSH2 0x635 JUMP JUMPDEST PUSH1 0x40 MLOAD PUSH2 0x1F1 SWAP6 SWAP5 SWAP4 SWAP3 SWAP2 SWAP1 PUSH2 0x277F JUMP JUMPDEST PUSH1 0x40 MLOAD DUP1 SWAP2 SUB SWAP1 RETURN JUMPDEST PUSH2 0x214 PUSH1 0x4 DUP1 CALLDATASIZE SUB DUP2 ADD SWAP1 PUSH2 0x20F SWAP2 SWAP1 PUSH2 0x290E JUMP JUMPDEST PUSH2 0x753 JUMP JUMPDEST STOP JUMPDEST PUSH2 0x230 PUSH1 0x4 DUP1 CALLDATASIZE SUB DUP2 ADD SWAP1 PUSH2 0x22B SWAP2 SWAP1 PUSH2 0x296A JUMP JUMPDEST PUSH2 0x91A JUMP JUMPDEST PUSH1 0x40 MLOAD PUSH2 0x240 SWAP5 SWAP4 SWAP3 SWAP2 SWAP1 PUSH2 0x29B3 JUMP JUMPDEST PUSH1 0x40 MLOAD DUP1 SWAP2 SUB SWAP1 RETURN JUMPDEST PUSH2 0x263 PUSH1 0x4 DUP1 CALLDATASIZE SUB DUP2 ADD SWAP1 PUSH2 0x25E SWAP2 SWAP1 PUSH2 0x2703 JUMP JUMPDEST PUSH2 0xA9D JUMP JUMPDEST STOP JUMPDEST PUSH2 0x27F PUSH1 0x4 DUP1 CALLDATASIZE SUB DUP2 ADD SWAP1 PUSH2 0x27A SWAP2 SWAP1 PUSH2 0x2A06 JUMP JUMPDEST PUSH2 0xC49 JUMP JUMPDEST STOP JUMPDEST PUSH2 0x29B PUSH1 0x4 DUP1 CALLDATASIZE SUB DUP2 ADD SWAP1 PUSH2 0x296 SWAP2 SWAP1 PUSH2 0x2743 JUMP JUMPDEST PUSH2 0x1231 JUMP JUMPDEST PUSH1 0x40 MLOAD PUSH2 0x2AF SWAP9 SWAP8 SWAP7 SWAP6 SWAP5 SWAP4 SWAP3 SWAP2 SWAP1 PUSH2 0x2A62 JUMP JUMPDEST PUSH1 0x40 MLOAD DUP1 SWAP2 SUB SWAP1 RETURN JUMPDEST PUSH2 0x2D2 PUSH1 0x4 DUP1 CALLDATASIZE SUB DUP2 ADD SWAP1 PUSH2 0x2CD SWAP2 SWAP1 PUSH2 0x2AEE JUMP JUMPDEST PUSH2 0x13E3 JUMP JUMPDEST STOP JUMPDEST PUSH2 0x2EE PUSH1 0x4 DUP1 CALLDATASIZE SUB DUP2 ADD SWAP1 PUSH2 0x2E9 SWAP2 SWAP1 PUSH2 0x2743 JUMP JUMPDEST PUSH2 0x16E5 JUMP JUMPDEST PUSH1 0x40 MLOAD PUSH2 0x2FE SWAP5 SWAP4 SWAP3 SWAP2 SWAP1 PUSH2 0x2B66 JUMP JUMPDEST PUSH1 0x40 MLOAD DUP1 SWAP2 SUB SWAP1 RETURN JUMPDEST PUSH2 0x321 PUSH1 0x4 DUP1 CALLDATASIZE SUB DUP2 ADD SWAP1 PUSH2 0x31C SWAP2 SWAP1 PUSH2 0x2BB2 JUMP JUMPDEST PUSH2 0x17DD JUMP JUMPDEST STOP JUMPDEST PUSH2 0x33D PUSH1 0x4 DUP1 CALLDATASIZE SUB DUP2 ADD SWAP1 PUSH2 0x338 SWAP2 SWAP1 PUSH2 0x2C65 JUMP JUMPDEST PUSH2 0x1BB9 JUMP JUMPDEST STOP JUMPDEST PUSH1 0x2 PUSH1 0x20 MSTORE DUP1 PUSH1 0x0 MSTORE PUSH1 0x40 PUSH1 0x0 KECCAK256 PUSH1 0x0 SWAP2 POP SWAP1 POP DUP1 PUSH1 0x0 ADD DUP1 SLOAD PUSH2 0x362 SWAP1 PUSH2 0x2D03 JUMP JUMPDEST DUP1 PUSH1 0x1F ADD PUSH1 0x20 DUP1 SWAP2 DIV MUL PUSH1 0x20 ADD PUSH1 0x40 MLOAD SWAP1 DUP2 ADD PUSH1 0x40 MSTORE DUP1 SWAP3 SWAP2 SWAP1 DUP2 DUP2 MSTORE PUSH1 0x20 ADD DUP3 DUP1 SLOAD PUSH2 0x38E SWAP1 PUSH2 0x2D03 JUMP JUMPDEST DUP1 ISZERO PUSH2 0x3DB JUMPI DUP1 PUSH1 0x1F LT PUSH2 0x3B0 JUMPI PUSH2 0x100 DUP1 DUP4 SLOAD DIV MUL DUP4 MSTORE SWAP2 PUSH1 0x20 ADD SWAP2 PUSH2 0x3DB JUMP JUMPDEST DUP3 ADD SWAP2 SWAP1 PUSH1 0x0 MSTORE PUSH1 0x20 PUSH1 0x0 KECCAK256 SWAP1 JUMPDEST DUP2 SLOAD DUP2 MSTORE SWAP1 PUSH1 0x1 ADD SWAP1 PUSH1 0x20 ADD DUP1 DUP4 GT PUSH2 0x3BE JUMPI DUP3 SWAP1 SUB PUSH1 0x1F AND DUP3 ADD SWAP2 JUMPDEST POP POP POP POP POP SWAP1 DUP1 PUSH1 0x1 ADD PUSH1 0x0 SWAP1 SLOAD SWAP1 PUSH2 0x100 EXP SWAP1 DIV PUSH20 0xFFFFFFFFFFFFFFFFFFFFFFFFFFFFFFFFFFFFFFFF AND SWAP1 DUP1 PUSH1 0x1 ADD PUSH1 0x14 SWAP1 SLOAD SWAP1 PUSH2 0x100 EXP SWAP1 DIV PUSH1 0xFF AND SWAP1 POP DUP4 JUMP JUMPDEST PUSH1 0x1 PUSH1 0x20 MSTORE DUP1 PUSH1 0x0 MSTORE PUSH1 0x40 PUSH1 0x0 KECCAK256 PUSH1 0x0 SWAP2 POP SLOAD SWAP1 PUSH2 0x100 EXP SWAP1 DIV PUSH1 0xFF AND DUP2 JUMP JUMPDEST PUSH1 0x0 DUP1 SLOAD SWAP1 PUSH2 0x100 EXP SWAP1 DIV PUSH20 0xFFFFFFFFFFFFFFFFFFFFFFFFFFFFFFFFFFFFFFFF AND DUP2 JUMP JUMPDEST PUSH1 0x1 ISZERO ISZERO PUSH1 0x4 PUSH1 0x0 DUP5 DUP2 MSTORE PUSH1 0x20 ADD SWAP1 DUP2 MSTORE PUSH1 0x20 ADD PUSH1 0x0 KECCAK256 PUSH1 0x6 ADD PUSH1 0x0 SWAP1 SLOAD SWAP1 PUSH2 0x100 EXP SWAP1 DIV PUSH1 0xFF AND ISZERO ISZERO EQ PUSH2 0x4CC JUMPI PUSH1 0x40 MLOAD PUSH32 0x8C379A000000000000000000000000000000000000000000000000000000000 DUP2 MSTORE PUSH1 0x4 ADD PUSH2 0x4C3 SWAP1 PUSH2 0x2D80 JUMP JUMPDEST PUSH1 0x40 MLOAD DUP1 SWAP2 SUB SWAP1 REVERT JUMPDEST CALLER PUSH20 0xFFFFFFFFFFFFFFFFFFFFFFFFFFFFFFFFFFFFFFFF AND PUSH1 0x6 PUSH1 0x0 DUP5 DUP2 MSTORE PUSH1 0x20 ADD SWAP1 DUP2 MSTORE PUSH1 0x20 ADD PUSH1 0x0 KECCAK256 PUSH1 0x3 ADD PUSH1 0x0 SWAP1 SLOAD SWAP1 PUSH2 0x100 EXP SWAP1 DIV PUSH20 0xFFFFFFFFFFFFFFFFFFFFFFFFFFFFFFFFFFFFFFFF AND PUSH20 0xFFFFFFFFFFFFFFFFFFFFFFFFFFFFFFFFFFFFFFFF AND EQ PUSH2 0x570 JUMPI PUSH1 0x40 MLOAD PUSH32 0x8C379A000000000000000000000000000000000000000000000000000000000 DUP2 MSTORE PUSH1 0x4 ADD PUSH2 0x567 SWAP1 PUSH2 0x2DEC JUMP JUMPDEST PUSH1 0x40 MLOAD DUP1 SWAP2 SUB SWAP1 REVERT JUMPDEST PUSH1 0x1 ISZERO ISZERO DUP2 ISZERO ISZERO SUB PUSH2 0x5DB JUMPI PUSH1 0x1 PUSH1 0x4 PUSH1 0x0 DUP5 DUP2 MSTORE PUSH1 0x20 ADD SWAP1 DUP2 MSTORE PUSH1 0x20 ADD PUSH1 0x0 KECCAK256 PUSH1 0x6 ADD PUSH1 0x1 PUSH2 0x100 EXP DUP2 SLOAD DUP2 PUSH1 0xFF MUL NOT AND SWAP1 DUP4 ISZERO ISZERO MUL OR SWAP1 SSTORE POP PUSH1 0x0 PUSH1 0x4 PUSH1 0x0 DUP5 DUP2 MSTORE PUSH1 0x20 ADD SWAP1 DUP2 MSTORE PUSH1 0x20 ADD PUSH1 0x0 KECCAK256 PUSH1 0x6 ADD PUSH1 0x0 PUSH2 0x100 EXP DUP2 SLOAD DUP2 PUSH1 0xFF MUL NOT AND SWAP1 DUP4 ISZERO ISZERO MUL OR SWAP1 SSTORE POP JUMPDEST POP POP JUMP JUMPDEST PUSH1 0x0 PUSH1 0x1 PUSH1 0x0 DUP4 PUSH20 0xFFFFFFFFFFFFFFFFFFFFFFFFFFFFFFFFFFFFFFFF AND PUSH20 0xFFFFFFFFFFFFFFFFFFFFFFFFFFFFFFFFFFFFFFFF AND DUP2 MSTORE PUSH1 0x20 ADD SWAP1 DUP2 MSTORE PUSH1 0x20 ADD PUSH1 0x0 KECCAK256 PUSH1 0x0 SWAP1 SLOAD SWAP1 PUSH2 0x100 EXP SWAP1 DIV PUSH1 0xFF AND SWAP1 POP SWAP2 SWAP1 POP JUMP JUMPDEST PUSH1 0x5 PUSH1 0x20 MSTORE DUP1 PUSH1 0x0 MSTORE PUSH1 0x40 PUSH1 0x0 KECCAK256 PUSH1 0x0 SWAP2 POP SWAP1 POP DUP1 PUSH1 0x0 ADD SLOAD SWAP1 DUP1 PUSH1 0x1 ADD PUSH1 0x0 SWAP1 SLOAD SWAP1 PUSH2 0x100 EXP SWAP1 DIV PUSH20 0xFFFFFFFFFFFFFFFFFFFFFFFFFFFFFFFFFFFFFFFF AND SWAP1 DUP1 PUSH1 0x2 ADD PUSH1 0x0 SWAP1 SLOAD SWAP1 PUSH2 0x100 EXP SWAP1 DIV PUSH20 0xFFFFFFFFFFFFFFFFFFFFFFFFFFFFFFFFFFFFFFFF AND SWAP1 DUP1 PUSH1 0x3 ADD DUP1 SLOAD PUSH2 0x6AA SWAP1 PUSH2 0x2D03 JUMP JUMPDEST DUP1 PUSH1 0x1F ADD PUSH1 0x20 DUP1 SWAP2 DIV MUL PUSH1 0x20 ADD PUSH1 0x40 MLOAD SWAP1 DUP2 ADD PUSH1 0x40 MSTORE DUP1 SWAP3 SWAP2 SWAP1 DUP2 DUP2 MSTORE PUSH1 0x20 ADD DUP3 DUP1 SLOAD PUSH2 0x6D6 SWAP1 PUSH2 0x2D03 JUMP JUMPDEST DUP1 ISZERO PUSH2 0x723 JUMPI DUP1 PUSH1 0x1F LT PUSH2 0x6F8 JUMPI PUSH2 0x100 DUP1 DUP4 SLOAD DIV MUL DUP4 MSTORE SWAP2 PUSH1 0x20 ADD SWAP2 PUSH2 0x723 JUMP JUMPDEST DUP3 ADD SWAP2 SWAP1 PUSH1 0x0 MSTORE PUSH1 0x20 PUSH1 0x0 KECCAK256 SWAP1 JUMPDEST DUP2 SLOAD DUP2 MSTORE SWAP1 PUSH1 0x1 ADD SWAP1 PUSH1 0x20 ADD DUP1 DUP4 GT PUSH2 0x706 JUMPI DUP3 SWAP1 SUB PUSH1 0x1F AND DUP3 ADD SWAP2 JUMPDEST POP POP POP POP POP SWAP1 DUP1 PUSH1 0x4 ADD PUSH1 0x0 SWAP1 SLOAD SWAP1 PUSH2 0x100 EXP SWAP1 DIV PUSH20 0xFFFFFFFFFFFFFFFFFFFFFFFFFFFFFFFFFFFFFFFF AND SWAP1 POP DUP6 JUMP JUMPDEST PUSH1 0x0 PUSH20 0xFFFFFFFFFFFFFFFFFFFFFFFFFFFFFFFFFFFFFFFF AND PUSH1 0x2 PUSH1 0x0 CALLER PUSH20 0xFFFFFFFFFFFFFFFFFFFFFFFFFFFFFFFFFFFFFFFF AND PUSH20 0xFFFFFFFFFFFFFFFFFFFFFFFFFFFFFFFFFFFFFFFF AND DUP2 MSTORE PUSH1 0x20 ADD SWAP1 DUP2 MSTORE PUSH1 0x20 ADD PUSH1 0x0 KECCAK256 PUSH1 0x1 ADD PUSH1 0x0 SWAP1 SLOAD SWAP1 PUSH2 0x100 EXP SWAP1 DIV PUSH20 0xFFFFFFFFFFFFFFFFFFFFFFFFFFFFFFFFFFFFFFFF AND PUSH20 0xFFFFFFFFFFFFFFFFFFFFFFFFFFFFFFFFFFFFFFFF AND EQ PUSH2 0x824 JUMPI PUSH1 0x40 MLOAD PUSH32 0x8C379A000000000000000000000000000000000000000000000000000000000 DUP2 MSTORE PUSH1 0x4 ADD PUSH2 0x81B SWAP1 PUSH2 0x2E58 JUMP JUMPDEST PUSH1 0x40 MLOAD DUP1 SWAP2 SUB SWAP1 REVERT JUMPDEST PUSH1 0x40 MLOAD DUP1 PUSH1 0x60 ADD PUSH1 0x40 MSTORE DUP1 DUP4 DUP2 MSTORE PUSH1 0x20 ADD CALLER PUSH20 0xFFFFFFFFFFFFFFFFFFFFFFFFFFFFFFFFFFFFFFFF AND DUP2 MSTORE PUSH1 0x20 ADD DUP3 ISZERO ISZERO DUP2 MSTORE POP PUSH1 0x2 PUSH1 0x0 CALLER PUSH20 0xFFFFFFFFFFFFFFFFFFFFFFFFFFFFFFFFFFFFFFFF AND PUSH20 0xFFFFFFFFFFFFFFFFFFFFFFFFFFFFFFFFFFFFFFFF AND DUP2 MSTORE PUSH1 0x20 ADD SWAP1 DUP2 MSTORE PUSH1 0x20 ADD PUSH1 0x0 KECCAK256 PUSH1 0x0 DUP3 ADD MLOAD DUP2 PUSH1 0x0 ADD SWAP1 DUP2 PUSH2 0x8AB SWAP2 SWAP1 PUSH2 0x3024 JUMP JUMPDEST POP PUSH1 0x20 DUP3 ADD MLOAD DUP2 PUSH1 0x1 ADD PUSH1 0x0 PUSH2 0x100 EXP DUP2 SLOAD DUP2 PUSH20 0xFFFFFFFFFFFFFFFFFFFFFFFFFFFFFFFFFFFFFFFF MUL NOT AND SWAP1 DUP4 PUSH20 0xFFFFFFFFFFFFFFFFFFFFFFFFFFFFFFFFFFFFFFFF AND MUL OR SWAP1 SSTORE POP PUSH1 0x40 DUP3 ADD MLOAD DUP2 PUSH1 0x1 ADD PUSH1 0x14 PUSH2 0x100 EXP DUP2 SLOAD DUP2 PUSH1 0xFF MUL NOT AND SWAP1 DUP4 ISZERO ISZERO MUL OR SWAP1 SSTORE POP SWAP1 POP POP POP POP JUMP JUMPDEST PUSH1 0x3 DUP2 DUP1 MLOAD PUSH1 0x20 DUP2 ADD DUP3 ADD DUP1 MLOAD DUP5 DUP3 MSTORE PUSH1 0x20 DUP4 ADD PUSH1 0x20 DUP6 ADD KECCAK256 DUP2 DUP4 MSTORE DUP1 SWAP6 POP POP POP POP POP POP PUSH1 0x0 SWAP2 POP SWAP1 POP DUP1 PUSH1 0x0 ADD PUSH1 0x0 SWAP1 SLOAD SWAP1 PUSH2 0x100 EXP SWAP1 DIV PUSH20 0xFFFFFFFFFFFFFFFFFFFFFFFFFFFFFFFFFFFFFFFF AND SWAP1 DUP1 PUSH1 0x1 ADD DUP1 SLOAD PUSH2 0x979 SWAP1 PUSH2 0x2D03 JUMP JUMPDEST DUP1 PUSH1 0x1F ADD PUSH1 0x20 DUP1 SWAP2 DIV MUL PUSH1 0x20 ADD PUSH1 0x40 MLOAD SWAP1 DUP2 ADD PUSH1 0x40 MSTORE DUP1 SWAP3 SWAP2 SWAP1 DUP2 DUP2 MSTORE PUSH1 0x20 ADD DUP3 DUP1 SLOAD PUSH2 0x9A5 SWAP1 PUSH2 0x2D03 JUMP JUMPDEST DUP1 ISZERO PUSH2 0x9F2 JUMPI DUP1 PUSH1 0x1F LT PUSH2 0x9C7 JUMPI PUSH2 0x100 DUP1 DUP4 SLOAD DIV MUL DUP4 MSTORE SWAP2 PUSH1 0x20 ADD SWAP2 PUSH2 0x9F2 JUMP JUMPDEST DUP3 ADD SWAP2 SWAP1 PUSH1 0x0 MSTORE PUSH1 0x20 PUSH1 0x0 KECCAK256 SWAP1 JUMPDEST DUP2 SLOAD DUP2 MSTORE SWAP1 PUSH1 0x1 ADD SWAP1 PUSH1 0x20 ADD DUP1 DUP4 GT PUSH2 0x9D5 JUMPI DUP3 SWAP1 SUB PUSH1 0x1F AND DUP3 ADD SWAP2 JUMPDEST POP POP POP POP POP SWAP1 DUP1 PUSH1 0x2 ADD DUP1 SLOAD PUSH2 0xA07 SWAP1 PUSH2 0x2D03 JUMP JUMPDEST DUP1 PUSH1 0x1F ADD PUSH1 0x20 DUP1 SWAP2 DIV MUL PUSH1 0x20 ADD PUSH1 0x40 MLOAD SWAP1 DUP2 ADD PUSH1 0x40 MSTORE DUP1 SWAP3 SWAP2 SWAP1 DUP2 DUP2 MSTORE PUSH1 0x20 ADD DUP3 DUP1 SLOAD PUSH2 0xA33 SWAP1 PUSH2 0x2D03 JUMP JUMPDEST DUP1 ISZERO PUSH2 0xA80 JUMPI DUP1 PUSH1 0x1F LT PUSH2 0xA55 JUMPI PUSH2 0x100 DUP1 DUP4 SLOAD DIV MUL DUP4 MSTORE SWAP2 PUSH1 0x20 ADD SWAP2 PUSH2 0xA80 JUMP JUMPDEST DUP3 ADD SWAP2 SWAP1 PUSH1 0x0 MSTORE PUSH1 0x20 PUSH1 0x0 KECCAK256 SWAP1 JUMPDEST DUP2 SLOAD DUP2 MSTORE SWAP1 PUSH1 0x1 ADD SWAP1 PUSH1 0x20 ADD DUP1 DUP4 GT PUSH2 0xA63 JUMPI DUP3 SWAP1 SUB PUSH1 0x1F AND DUP3 ADD SWAP2 JUMPDEST POP POP POP POP POP SWAP1 DUP1 PUSH1 0x3 ADD PUSH1 0x0 SWAP1 SLOAD SWAP1 PUSH2 0x100 EXP SWAP1 DIV PUSH1 0xFF AND SWAP1 POP DUP5 JUMP JUMPDEST PUSH1 0x1 ISZERO ISZERO PUSH1 0x4 PUSH1 0x0 DUP5 DUP2 MSTORE PUSH1 0x20 ADD SWAP1 DUP2 MSTORE PUSH1 0x20 ADD PUSH1 0x0 KECCAK256 PUSH1 0x6 ADD PUSH1 0x0 SWAP1 SLOAD SWAP1 PUSH2 0x100 EXP SWAP1 DIV PUSH1 0xFF AND ISZERO ISZERO EQ PUSH2 0xB07 JUMPI PUSH1 0x40 MLOAD PUSH32 0x8C379A000000000000000000000000000000000000000000000000000000000 DUP2 MSTORE PUSH1 0x4 ADD PUSH2 0xAFE SWAP1 PUSH2 0x2D80 JUMP JUMPDEST PUSH1 0x40 MLOAD DUP1 SWAP2 SUB SWAP1 REVERT JUMPDEST CALLER PUSH20 0xFFFFFFFFFFFFFFFFFFFFFFFFFFFFFFFFFFFFFFFF AND PUSH1 0x5 PUSH1 0x0 DUP5 DUP2 MSTORE PUSH1 0x20 ADD SWAP1 DUP2 MSTORE PUSH1 0x20 ADD PUSH1 0x0 KECCAK256 PUSH1 0x4 ADD PUSH1 0x0 SWAP1 SLOAD SWAP1 PUSH2 0x100 EXP SWAP1 DIV PUSH20 0xFFFFFFFFFFFFFFFFFFFFFFFFFFFFFFFFFFFFFFFF AND PUSH20 0xFFFFFFFFFFFFFFFFFFFFFFFFFFFFFFFFFFFFFFFF AND EQ PUSH2 0xBAB JUMPI PUSH1 0x40 MLOAD PUSH32 0x8C379A000000000000000000000000000000000000000000000000000000000 DUP2 MSTORE PUSH1 0x4 ADD PUSH2 0xBA2 SWAP1 PUSH2 0x2DEC JUMP JUMPDEST PUSH1 0x40 MLOAD DUP1 SWAP2 SUB SWAP1 REVERT JUMPDEST PUSH1 0x1 ISZERO ISZERO DUP2 ISZERO ISZERO SUB PUSH2 0xC45 JUMPI PUSH1 0x1 DUP1 PUSH1 0x0 PUSH1 0x5 PUSH1 0x0 DUP7 DUP2 MSTORE PUSH1 0x20 ADD SWAP1 DUP2 MSTORE PUSH1 0x20 ADD PUSH1 0x0 KECCAK256 PUSH1 0x2 ADD PUSH1 0x0 SWAP1 SLOAD SWAP1 PUSH2 0x100 EXP SWAP1 DIV PUSH20 0xFFFFFFFFFFFFFFFFFFFFFFFFFFFFFFFFFFFFFFFF AND PUSH20 0xFFFFFFFFFFFFFFFFFFFFFFFFFFFFFFFFFFFFFFFF AND PUSH20 0xFFFFFFFFFFFFFFFFFFFFFFFFFFFFFFFFFFFFFFFF AND DUP2 MSTORE PUSH1 0x20 ADD SWAP1 DUP2 MSTORE PUSH1 0x20 ADD PUSH1 0x0 KECCAK256 PUSH1 0x0 PUSH2 0x100 EXP DUP2 SLOAD DUP2 PUSH1 0xFF MUL NOT AND SWAP1 DUP4 ISZERO ISZERO MUL OR SWAP1 SSTORE POP JUMPDEST POP POP JUMP JUMPDEST CALLER PUSH20 0xFFFFFFFFFFFFFFFFFFFFFFFFFFFFFFFFFFFFFFFF AND PUSH1 0x4 PUSH1 0x0 DUP5 DUP2 MSTORE PUSH1 0x20 ADD SWAP1 DUP2 MSTORE PUSH1 0x20 ADD PUSH1 0x0 KECCAK256 PUSH1 0x1 ADD PUSH1 0x0 SWAP1 SLOAD SWAP1 PUSH2 0x100 EXP SWAP1 DIV PUSH20 0xFFFFFFFFFFFFFFFFFFFFFFFFFFFFFFFFFFFFFFFF AND PUSH20 0xFFFFFFFFFFFFFFFFFFFFFFFFFFFFFFFFFFFFFFFF AND EQ DUP1 PUSH2 0xD1A JUMPI POP CALLER PUSH20 0xFFFFFFFFFFFFFFFFFFFFFFFFFFFFFFFFFFFFFFFF AND PUSH1 0x4 PUSH1 0x0 DUP5 DUP2 MSTORE PUSH1 0x20 ADD SWAP1 DUP2 MSTORE PUSH1 0x20 ADD PUSH1 0x0 KECCAK256 PUSH1 0x0 ADD PUSH1 0x0 SWAP1 SLOAD SWAP1 PUSH2 0x100 EXP SWAP1 DIV PUSH20 0xFFFFFFFFFFFFFFFFFFFFFFFFFFFFFFFFFFFFFFFF AND PUSH20 0xFFFFFFFFFFFFFFFFFFFFFFFFFFFFFFFFFFFFFFFF AND EQ JUMPDEST PUSH2 0xD59 JUMPI PUSH1 0x40 MLOAD PUSH32 0x8C379A000000000000000000000000000000000000000000000000000000000 DUP2 MSTORE PUSH1 0x4 ADD PUSH2 0xD50 SWAP1 PUSH2 0x3168 JUMP JUMPDEST PUSH1 0x40 MLOAD DUP1 SWAP2 SUB SWAP1 REVERT JUMPDEST CALLER PUSH20 0xFFFFFFFFFFFFFFFFFFFFFFFFFFFFFFFFFFFFFFFF AND PUSH1 0x4 PUSH1 0x0 DUP5 DUP2 MSTORE PUSH1 0x20 ADD SWAP1 DUP2 MSTORE PUSH1 0x20 ADD PUSH1 0x0 KECCAK256 PUSH1 0x1 ADD PUSH1 0x0 SWAP1 SLOAD SWAP1 PUSH2 0x100 EXP SWAP1 DIV PUSH20 0xFFFFFFFFFFFFFFFFFFFFFFFFFFFFFFFFFFFFFFFF AND PUSH20 0xFFFFFFFFFFFFFFFFFFFFFFFFFFFFFFFFFFFFFFFF AND SUB PUSH2 0xFC3 JUMPI PUSH1 0x40 MLOAD DUP1 PUSH1 0xA0 ADD PUSH1 0x40 MSTORE DUP1 DUP4 DUP2 MSTORE PUSH1 0x20 ADD PUSH1 0x4 PUSH1 0x0 DUP6 DUP2 MSTORE PUSH1 0x20 ADD SWAP1 DUP2 MSTORE PUSH1 0x20 ADD PUSH1 0x0 KECCAK256 PUSH1 0x1 ADD PUSH1 0x0 SWAP1 SLOAD SWAP1 PUSH2 0x100 EXP SWAP1 DIV PUSH20 0xFFFFFFFFFFFFFFFFFFFFFFFFFFFFFFFFFFFFFFFF AND PUSH20 0xFFFFFFFFFFFFFFFFFFFFFFFFFFFFFFFFFFFFFFFF AND DUP2 MSTORE PUSH1 0x20 ADD PUSH1 0x4 PUSH1 0x0 DUP6 DUP2 MSTORE PUSH1 0x20 ADD SWAP1 DUP2 MSTORE PUSH1 0x20 ADD PUSH1 0x0 KECCAK256 PUSH1 0x0 ADD PUSH1 0x0 SWAP1 SLOAD SWAP1 PUSH2 0x100 EXP SWAP1 DIV PUSH20 0xFFFFFFFFFFFFFFFFFFFFFFFFFFFFFFFFFFFFFFFF AND PUSH20 0xFFFFFFFFFFFFFFFFFFFFFFFFFFFFFFFFFFFFFFFF AND DUP2 MSTORE PUSH1 0x20 ADD DUP3 DUP2 MSTORE PUSH1 0x20 ADD PUSH1 0x0 DUP1 SLOAD SWAP1 PUSH2 0x100 EXP SWAP1 DIV PUSH20 0xFFFFFFFFFFFFFFFFFFFFFFFFFFFFFFFFFFFFFFFF AND PUSH20 0xFFFFFFFFFFFFFFFFFFFFFFFFFFFFFFFFFFFFFFFF AND DUP2 MSTORE POP PUSH1 0x5 PUSH1 0x0 DUP5 DUP2 MSTORE PUSH1 0x20 ADD SWAP1 DUP2 MSTORE PUSH1 0x20 ADD PUSH1 0x0 KECCAK256 PUSH1 0x0 DUP3 ADD MLOAD DUP2 PUSH1 0x0 ADD SSTORE PUSH1 0x20 DUP3 ADD MLOAD DUP2 PUSH1 0x1 ADD PUSH1 0x0 PUSH2 0x100 EXP DUP2 SLOAD DUP2 PUSH20 0xFFFFFFFFFFFFFFFFFFFFFFFFFFFFFFFFFFFFFFFF MUL NOT AND SWAP1 DUP4 PUSH20 0xFFFFFFFFFFFFFFFFFFFFFFFFFFFFFFFFFFFFFFFF AND MUL OR SWAP1 SSTORE POP PUSH1 0x40 DUP3 ADD MLOAD DUP2 PUSH1 0x2 ADD PUSH1 0x0 PUSH2 0x100 EXP DUP2 SLOAD DUP2 PUSH20 0xFFFFFFFFFFFFFFFFFFFFFFFFFFFFFFFFFFFFFFFF MUL NOT AND SWAP1 DUP4 PUSH20 0xFFFFFFFFFFFFFFFFFFFFFFFFFFFFFFFFFFFFFFFF AND MUL OR SWAP1 SSTORE POP PUSH1 0x60 DUP3 ADD MLOAD DUP2 PUSH1 0x3 ADD SWAP1 DUP2 PUSH2 0xF77 SWAP2 SWAP1 PUSH2 0x3024 JUMP JUMPDEST POP PUSH1 0x80 DUP3 ADD MLOAD DUP2 PUSH1 0x4 ADD PUSH1 0x0 PUSH2 0x100 EXP DUP2 SLOAD DUP2 PUSH20 0xFFFFFFFFFFFFFFFFFFFFFFFFFFFFFFFFFFFFFFFF MUL NOT AND SWAP1 DUP4 PUSH20 0xFFFFFFFFFFFFFFFFFFFFFFFFFFFFFFFFFFFFFFFF AND MUL OR SWAP1 SSTORE POP SWAP1 POP POP JUMPDEST CALLER PUSH20 0xFFFFFFFFFFFFFFFFFFFFFFFFFFFFFFFFFFFFFFFF AND PUSH1 0x4 PUSH1 0x0 DUP5 DUP2 MSTORE PUSH1 0x20 ADD SWAP1 DUP2 MSTORE PUSH1 0x20 ADD PUSH1 0x0 KECCAK256 PUSH1 0x0 ADD PUSH1 0x0 SWAP1 SLOAD SWAP1 PUSH2 0x100 EXP SWAP1 DIV PUSH20 0xFFFFFFFFFFFFFFFFFFFFFFFFFFFFFFFFFFFFFFFF AND PUSH20 0xFFFFFFFFFFFFFFFFFFFFFFFFFFFFFFFFFFFFFFFF AND SUB PUSH2 0x122D JUMPI PUSH1 0x40 MLOAD DUP1 PUSH1 0xA0 ADD PUSH1 0x40 MSTORE DUP1 DUP4 DUP2 MSTORE PUSH1 0x20 ADD PUSH1 0x4 PUSH1 0x0 DUP6 DUP2 MSTORE PUSH1 0x20 ADD SWAP1 DUP2 MSTORE PUSH1 0x20 ADD PUSH1 0x0 KECCAK256 PUSH1 0x0 ADD PUSH1 0x0 SWAP1 SLOAD SWAP1 PUSH2 0x100 EXP SWAP1 DIV PUSH20 0xFFFFFFFFFFFFFFFFFFFFFFFFFFFFFFFFFFFFFFFF AND PUSH20 0xFFFFFFFFFFFFFFFFFFFFFFFFFFFFFFFFFFFFFFFF AND DUP2 MSTORE PUSH1 0x20 ADD PUSH1 0x4 PUSH1 0x0 DUP6 DUP2 MSTORE PUSH1 0x20 ADD SWAP1 DUP2 MSTORE PUSH1 0x20 ADD PUSH1 0x0 KECCAK256 PUSH1 0x1 ADD PUSH1 0x0 SWAP1 SLOAD SWAP1 PUSH2 0x100 EXP SWAP1 DIV PUSH20 0xFFFFFFFFFFFFFFFFFFFFFFFFFFFFFFFFFFFFFFFF AND PUSH20 0xFFFFFFFFFFFFFFFFFFFFFFFFFFFFFFFFFFFFFFFF AND DUP2 MSTORE PUSH1 0x20 ADD DUP3 DUP2 MSTORE PUSH1 0x20 ADD PUSH1 0x0 DUP1 SLOAD SWAP1 PUSH2 0x100 EXP SWAP1 DIV PUSH20 0xFFFFFFFFFFFFFFFFFFFFFFFFFFFFFFFFFFFFFFFF AND PUSH20 0xFFFFFFFFFFFFFFFFFFFFFFFFFFFFFFFFFFFFFFFF AND DUP2 MSTORE POP PUSH1 0x5 PUSH1 0x0 DUP5 DUP2 MSTORE PUSH1 0x20 ADD SWAP1 DUP2 MSTORE PUSH1 0x20 ADD PUSH1 0x0 KECCAK256 PUSH1 0x0 DUP3 ADD MLOAD DUP2 PUSH1 0x0 ADD SSTORE PUSH1 0x20 DUP3 ADD MLOAD DUP2 PUSH1 0x1 ADD PUSH1 0x0 PUSH2 0x100 EXP DUP2 SLOAD DUP2 PUSH20 0xFFFFFFFFFFFFFFFFFFFFFFFFFFFFFFFFFFFFFFFF MUL NOT AND SWAP1 DUP4 PUSH20 0xFFFFFFFFFFFFFFFFFFFFFFFFFFFFFFFFFFFFFFFF AND MUL OR SWAP1 SSTORE POP PUSH1 0x40 DUP3 ADD MLOAD DUP2 PUSH1 0x2 ADD PUSH1 0x0 PUSH2 0x100 EXP DUP2 SLOAD DUP2 PUSH20 0xFFFFFFFFFFFFFFFFFFFFFFFFFFFFFFFFFFFFFFFF MUL NOT AND SWAP1 DUP4 PUSH20 0xFFFFFFFFFFFFFFFFFFFFFFFFFFFFFFFFFFFFFFFF AND MUL OR SWAP1 SSTORE POP PUSH1 0x60 DUP3 ADD MLOAD DUP2 PUSH1 0x3 ADD SWAP1 DUP2 PUSH2 0x11E1 SWAP2 SWAP1 PUSH2 0x3024 JUMP JUMPDEST POP PUSH1 0x80 DUP3 ADD MLOAD DUP2 PUSH1 0x4 ADD PUSH1 0x0 PUSH2 0x100 EXP DUP2 SLOAD DUP2 PUSH20 0xFFFFFFFFFFFFFFFFFFFFFFFFFFFFFFFFFFFFFFFF MUL NOT AND SWAP1 DUP4 PUSH20 0xFFFFFFFFFFFFFFFFFFFFFFFFFFFFFFFFFFFFFFFF AND MUL OR SWAP1 SSTORE POP SWAP1 POP POP JUMPDEST POP POP JUMP JUMPDEST PUSH1 0x4 PUSH1 0x20 MSTORE DUP1 PUSH1 0x0 MSTORE PUSH1 0x40 PUSH1 0x0 KECCAK256 PUSH1 0x0 SWAP2 POP SWAP1 POP DUP1 PUSH1 0x0 ADD PUSH1 0x0 SWAP1 SLOAD SWAP1 PUSH2 0x100 EXP SWAP1 DIV PUSH20 0xFFFFFFFFFFFFFFFFFFFFFFFFFFFFFFFFFFFFFFFF AND SWAP1 DUP1 PUSH1 0x1 ADD PUSH1 0x0 SWAP1 SLOAD SWAP1 PUSH2 0x100 EXP SWAP1 DIV PUSH20 0xFFFFFFFFFFFFFFFFFFFFFFFFFFFFFFFFFFFFFFFF AND SWAP1 DUP1 PUSH1 0x2 ADD DUP1 SLOAD PUSH2 0x12A0 SWAP1 PUSH2 0x2D03 JUMP JUMPDEST DUP1 PUSH1 0x1F ADD PUSH1 0x20 DUP1 SWAP2 DIV MUL PUSH1 0x20 ADD PUSH1 0x40 MLOAD SWAP1 DUP2 ADD PUSH1 0x40 MSTORE DUP1 SWAP3 SWAP2 SWAP1 DUP2 DUP2 MSTORE PUSH1 0x20 ADD DUP3 DUP1 SLOAD PUSH2 0x12CC SWAP1 PUSH2 0x2D03 JUMP JUMPDEST DUP1 ISZERO PUSH2 0x1319 JUMPI DUP1 PUSH1 0x1F LT PUSH2 0x12EE JUMPI PUSH2 0x100 DUP1 DUP4 SLOAD DIV MUL DUP4 MSTORE SWAP2 PUSH1 0x20 ADD SWAP2 PUSH2 0x1319 JUMP JUMPDEST DUP3 ADD SWAP2 SWAP1 PUSH1 0x0 MSTORE PUSH1 0x20 PUSH1 0x0 KECCAK256 SWAP1 JUMPDEST DUP2 SLOAD DUP2 MSTORE SWAP1 PUSH1 0x1 ADD SWAP1 PUSH1 0x20 ADD DUP1 DUP4 GT PUSH2 0x12FC JUMPI DUP3 SWAP1 SUB PUSH1 0x1F AND DUP3 ADD SWAP2 JUMPDEST POP POP POP POP POP SWAP1 DUP1 PUSH1 0x3 ADD DUP1 SLOAD PUSH2 0x132E SWAP1 PUSH2 0x2D03 JUMP JUMPDEST DUP1 PUSH1 0x1F ADD PUSH1 0x20 DUP1 SWAP2 DIV MUL PUSH1 0x20 ADD PUSH1 0x40 MLOAD SWAP1 DUP2 ADD PUSH1 0x40 MSTORE DUP1 SWAP3 SWAP2 SWAP1 DUP2 DUP2 MSTORE PUSH1 0x20 ADD DUP3 DUP1 SLOAD PUSH2 0x135A SWAP1 PUSH2 0x2D03 JUMP JUMPDEST DUP1 ISZERO PUSH2 0x13A7 JUMPI DUP1 PUSH1 0x1F LT PUSH2 0x137C JUMPI PUSH2 0x100 DUP1 DUP4 SLOAD DIV MUL DUP4 MSTORE SWAP2 PUSH1 0x20 ADD SWAP2 PUSH2 0x13A7 JUMP JUMPDEST DUP3 ADD SWAP2 SWAP1 PUSH1 0x0 MSTORE PUSH1 0x20 PUSH1 0x0 KECCAK256 SWAP1 JUMPDEST DUP2 SLOAD DUP2 MSTORE SWAP1 PUSH1 0x1 ADD SWAP1 PUSH1 0x20 ADD DUP1 DUP4 GT PUSH2 0x138A JUMPI DUP3 SWAP1 SUB PUSH1 0x1F AND DUP3 ADD SWAP2 JUMPDEST POP POP POP POP POP SWAP1 DUP1 PUSH1 0x4 ADD SLOAD SWAP1 DUP1 PUSH1 0x5 ADD SLOAD SWAP1 DUP1 PUSH1 0x6 ADD PUSH1 0x0 SWAP1 SLOAD SWAP1 PUSH2 0x100 EXP SWAP1 DIV PUSH1 0xFF AND SWAP1 DUP1 PUSH1 0x6 ADD PUSH1 0x1 SWAP1 SLOAD SWAP1 PUSH2 0x100 EXP SWAP1 DIV PUSH1 0xFF AND SWAP1 POP DUP9 JUMP JUMPDEST PUSH1 0x0 PUSH20 0xFFFFFFFFFFFFFFFFFFFFFFFFFFFFFFFFFFFFFFFF AND PUSH1 0x2 PUSH1 0x0 CALLER PUSH20 0xFFFFFFFFFFFFFFFFFFFFFFFFFFFFFFFFFFFFFFFF AND PUSH20 0xFFFFFFFFFFFFFFFFFFFFFFFFFFFFFFFFFFFFFFFF AND DUP2 MSTORE PUSH1 0x20 ADD SWAP1 DUP2 MSTORE PUSH1 0x20 ADD PUSH1 0x0 KECCAK256 PUSH1 0x1 ADD PUSH1 0x0 SWAP1 SLOAD SWAP1 PUSH2 0x100 EXP SWAP1 DIV PUSH20 0xFFFFFFFFFFFFFFFFFFFFFFFFFFFFFFFFFFFFFFFF AND PUSH20 0xFFFFFFFFFFFFFFFFFFFFFFFFFFFFFFFFFFFFFFFF AND SUB PUSH2 0x14B4 JUMPI PUSH1 0x40 MLOAD PUSH32 0x8C379A000000000000000000000000000000000000000000000000000000000 DUP2 MSTORE PUSH1 0x4 ADD PUSH2 0x14AB SWAP1 PUSH2 0x31D4 JUMP JUMPDEST PUSH1 0x40 MLOAD DUP1 SWAP2 SUB SWAP1 REVERT JUMPDEST PUSH1 0x2 PUSH1 0x0 CALLER PUSH20 0xFFFFFFFFFFFFFFFFFFFFFFFFFFFFFFFFFFFFFFFF AND PUSH20 0xFFFFFFFFFFFFFFFFFFFFFFFFFFFFFFFFFFFFFFFF AND DUP2 MSTORE PUSH1 0x20 ADD SWAP1 DUP2 MSTORE PUSH1 0x20 ADD PUSH1 0x0 KECCAK256 PUSH1 0x1 ADD PUSH1 0x14 SWAP1 SLOAD SWAP1 PUSH2 0x100 EXP SWAP1 DIV PUSH1 0xFF AND PUSH2 0x1543 JUMPI PUSH1 0x40 MLOAD PUSH32 0x8C379A000000000000000000000000000000000000000000000000000000000 DUP2 MSTORE PUSH1 0x4 ADD PUSH2 0x153A SWAP1 PUSH2 0x3240 JUMP JUMPDEST PUSH1 0x40 MLOAD DUP1 SWAP2 SUB SWAP1 REVERT JUMPDEST PUSH1 0x0 PUSH20 0xFFFFFFFFFFFFFFFFFFFFFFFFFFFFFFFFFFFFFFFF AND PUSH1 0x3 DUP4 PUSH1 0x40 MLOAD PUSH2 0x156B SWAP2 SWAP1 PUSH2 0x329C JUMP JUMPDEST SWAP1 DUP2 MSTORE PUSH1 0x20 ADD PUSH1 0x40 MLOAD DUP1 SWAP2 SUB SWAP1 KECCAK256 PUSH1 0x0 ADD PUSH1 0x0 SWAP1 SLOAD SWAP1 PUSH2 0x100 EXP SWAP1 DIV PUSH20 0xFFFFFFFFFFFFFFFFFFFFFFFFFFFFFFFFFFFFFFFF AND PUSH20 0xFFFFFFFFFFFFFFFFFFFFFFFFFFFFFFFFFFFFFFFF AND EQ PUSH2 0x15F3 JUMPI PUSH1 0x40 MLOAD PUSH32 0x8C379A000000000000000000000000000000000000000000000000000000000 DUP2 MSTORE PUSH1 0x4 ADD PUSH2 0x15EA SWAP1 PUSH2 0x32FF JUMP JUMPDEST PUSH1 0x40 MLOAD DUP1 SWAP2 SUB SWAP1 REVERT JUMPDEST PUSH1 0x40 MLOAD DUP1 PUSH1 0x80 ADD PUSH1 0x40 MSTORE DUP1 CALLER PUSH20 0xFFFFFFFFFFFFFFFFFFFFFFFFFFFFFFFFFFFFFFFF AND DUP2 MSTORE PUSH1 0x20 ADD DUP4 DUP2 MSTORE PUSH1 0x20 ADD DUP3 DUP2 MSTORE PUSH1 0x20 ADD PUSH1 0x0 ISZERO ISZERO DUP2 MSTORE POP PUSH1 0x3 DUP4 PUSH1 0x40 MLOAD PUSH2 0x163D SWAP2 SWAP1 PUSH2 0x329C JUMP JUMPDEST SWAP1 DUP2 MSTORE PUSH1 0x20 ADD PUSH1 0x40 MLOAD DUP1 SWAP2 SUB SWAP1 KECCAK256 PUSH1 0x0 DUP3 ADD MLOAD DUP2 PUSH1 0x0 ADD PUSH1 0x0 PUSH2 0x100 EXP DUP2 SLOAD DUP2 PUSH20 0xFFFFFFFFFFFFFFFFFFFFFFFFFFFFFFFFFFFFFFFF MUL NOT AND SWAP1 DUP4 PUSH20 0xFFFFFFFFFFFFFFFFFFFFFFFFFFFFFFFFFFFFFFFF AND MUL OR SWAP1 SSTORE POP PUSH1 0x20 DUP3 ADD MLOAD DUP2 PUSH1 0x1 ADD SWAP1 DUP2 PUSH2 0x16A7 SWAP2 SWAP1 PUSH2 0x3024 JUMP JUMPDEST POP PUSH1 0x40 DUP3 ADD MLOAD DUP2 PUSH1 0x2 ADD SWAP1 DUP2 PUSH2 0x16BD SWAP2 SWAP1 PUSH2 0x3024 JUMP JUMPDEST POP PUSH1 0x60 DUP3 ADD MLOAD DUP2 PUSH1 0x3 ADD PUSH1 0x0 PUSH2 0x100 EXP DUP2 SLOAD DUP2 PUSH1 0xFF MUL NOT AND SWAP1 DUP4 ISZERO ISZERO MUL OR SWAP1 SSTORE POP SWAP1 POP POP POP POP JUMP JUMPDEST PUSH1 0x6 PUSH1 0x20 MSTORE DUP1 PUSH1 0x0 MSTORE PUSH1 0x40 PUSH1 0x0 KECCAK256 PUSH1 0x0 SWAP2 POP SWAP1 POP DUP1 PUSH1 0x0 ADD SLOAD SWAP1 DUP1 PUSH1 0x1 ADD PUSH1 0x0 SWAP1 SLOAD SWAP1 PUSH2 0x100 EXP SWAP1 DIV PUSH20 0xFFFFFFFFFFFFFFFFFFFFFFFFFFFFFFFFFFFFFFFF AND SWAP1 DUP1 PUSH1 0x2 ADD DUP1 SLOAD PUSH2 0x1734 SWAP1 PUSH2 0x2D03 JUMP JUMPDEST DUP1 PUSH1 0x1F ADD PUSH1 0x20 DUP1 SWAP2 DIV MUL PUSH1 0x20 ADD PUSH1 0x40 MLOAD SWAP1 DUP2 ADD PUSH1 0x40 MSTORE DUP1 SWAP3 SWAP2 SWAP1 DUP2 DUP2 MSTORE PUSH1 0x20 ADD DUP3 DUP1 SLOAD PUSH2 0x1760 SWAP1 PUSH2 0x2D03 JUMP JUMPDEST DUP1 ISZERO PUSH2 0x17AD JUMPI DUP1 PUSH1 0x1F LT PUSH2 0x1782 JUMPI PUSH2 0x100 DUP1 DUP4 SLOAD DIV MUL DUP4 MSTORE SWAP2 PUSH1 0x20 ADD SWAP2 PUSH2 0x17AD JUMP JUMPDEST DUP3 ADD SWAP2 SWAP1 PUSH1 0x0 MSTORE PUSH1 0x20 PUSH1 0x0 KECCAK256 SWAP1 JUMPDEST DUP2 SLOAD DUP2 MSTORE SWAP1 PUSH1 0x1 ADD SWAP1 PUSH1 0x20 ADD DUP1 DUP4 GT PUSH2 0x1790 JUMPI DUP3 SWAP1 SUB PUSH1 0x1F AND DUP3 ADD SWAP2 JUMPDEST POP POP POP POP POP SWAP1 DUP1 PUSH1 0x3 ADD PUSH1 0x0 SWAP1 SLOAD SWAP1 PUSH2 0x100 EXP SWAP1 DIV PUSH20 0xFFFFFFFFFFFFFFFFFFFFFFFFFFFFFFFFFFFFFFFF AND SWAP1 POP DUP5 JUMP JUMPDEST PUSH1 0x0 PUSH20 0xFFFFFFFFFFFFFFFFFFFFFFFFFFFFFFFFFFFFFFFF AND PUSH1 0x2 PUSH1 0x0 CALLER PUSH20 0xFFFFFFFFFFFFFFFFFFFFFFFFFFFFFFFFFFFFFFFF AND PUSH20 0xFFFFFFFFFFFFFFFFFFFFFFFFFFFFFFFFFFFFFFFF AND DUP2 MSTORE PUSH1 0x20 ADD SWAP1 DUP2 MSTORE PUSH1 0x20 ADD PUSH1 0x0 KECCAK256 PUSH1 0x1 ADD PUSH1 0x0 SWAP1 SLOAD SWAP1 PUSH2 0x100 EXP SWAP1 DIV PUSH20 0xFFFFFFFFFFFFFFFFFFFFFFFFFFFFFFFFFFFFFFFF AND PUSH20 0xFFFFFFFFFFFFFFFFFFFFFFFFFFFFFFFFFFFFFFFF AND SUB PUSH2 0x18AE JUMPI PUSH1 0x40 MLOAD PUSH32 0x8C379A000000000000000000000000000000000000000000000000000000000 DUP2 MSTORE PUSH1 0x4 ADD PUSH2 0x18A5 SWAP1 PUSH2 0x31D4 JUMP JUMPDEST PUSH1 0x40 MLOAD DUP1 SWAP2 SUB SWAP1 REVERT JUMPDEST PUSH1 0x2 PUSH1 0x0 CALLER PUSH20 0xFFFFFFFFFFFFFFFFFFFFFFFFFFFFFFFFFFFFFFFF AND PUSH20 0xFFFFFFFFFFFFFFFFFFFFFFFFFFFFFFFFFFFFFFFF AND DUP2 MSTORE PUSH1 0x20 ADD SWAP1 DUP2 MSTORE PUSH1 0x20 ADD PUSH1 0x0 KECCAK256 PUSH1 0x1 ADD PUSH1 0x14 SWAP1 SLOAD SWAP1 PUSH2 0x100 EXP SWAP1 DIV PUSH1 0xFF AND PUSH2 0x193D JUMPI PUSH1 0x40 MLOAD PUSH32 0x8C379A000000000000000000000000000000000000000000000000000000000 DUP2 MSTORE PUSH1 0x4 ADD PUSH2 0x1934 SWAP1 PUSH2 0x3391 JUMP JUMPDEST PUSH1 0x40 MLOAD DUP1 SWAP2 SUB SWAP1 REVERT JUMPDEST PUSH1 0x0 PUSH20 0xFFFFFFFFFFFFFFFFFFFFFFFFFFFFFFFFFFFFFFFF AND PUSH1 0x3 DUP6 PUSH1 0x40 MLOAD PUSH2 0x1965 SWAP2 SWAP1 PUSH2 0x329C JUMP JUMPDEST SWAP1 DUP2 MSTORE PUSH1 0x20 ADD PUSH1 0x40 MLOAD DUP1 SWAP2 SUB SWAP1 KECCAK256 PUSH1 0x0 ADD PUSH1 0x0 SWAP1 SLOAD SWAP1 PUSH2 0x100 EXP SWAP1 DIV PUSH20 0xFFFFFFFFFFFFFFFFFFFFFFFFFFFFFFFFFFFFFFFF AND PUSH20 0xFFFFFFFFFFFFFFFFFFFFFFFFFFFFFFFFFFFFFFFF AND SUB PUSH2 0x19ED JUMPI PUSH1 0x40 MLOAD PUSH32 0x8C379A000000000000000000000000000000000000000000000000000000000 DUP2 MSTORE PUSH1 0x4 ADD PUSH2 0x19E4 SWAP1 PUSH2 0x33FD JUMP JUMPDEST PUSH1 0x40 MLOAD DUP1 SWAP2 SUB SWAP1 REVERT JUMPDEST PUSH1 0x0 CALLER DUP6 DUP5 DUP5 PUSH1 0x40 MLOAD PUSH1 0x20 ADD PUSH2 0x1A06 SWAP5 SWAP4 SWAP3 SWAP2 SWAP1 PUSH2 0x3486 JUMP JUMPDEST PUSH1 0x40 MLOAD PUSH1 0x20 DUP2 DUP4 SUB SUB DUP2 MSTORE SWAP1 PUSH1 0x40 MSTORE DUP1 MLOAD SWAP1 PUSH1 0x20 ADD KECCAK256 PUSH1 0x0 SHR SWAP1 POP PUSH1 0x40 MLOAD DUP1 PUSH2 0x100 ADD PUSH1 0x40 MSTORE DUP1 CALLER PUSH20 0xFFFFFFFFFFFFFFFFFFFFFFFFFFFFFFFFFFFFFFFF AND DUP2 MSTORE PUSH1 0x20 ADD DUP8 PUSH20 0xFFFFFFFFFFFFFFFFFFFFFFFFFFFFFFFFFFFFFFFF AND DUP2 MSTORE PUSH1 0x20 ADD DUP7 DUP2 MSTORE PUSH1 0x20 ADD DUP6 DUP2 MSTORE PUSH1 0x20 ADD DUP5 DUP2 MSTORE PUSH1 0x20 ADD DUP4 DUP2 MSTORE PUSH1 0x20 ADD PUSH1 0x1 ISZERO ISZERO DUP2 MSTORE PUSH1 0x20 ADD PUSH1 0x0 ISZERO ISZERO DUP2 MSTORE POP PUSH1 0x4 PUSH1 0x0 DUP4 DUP2 MSTORE PUSH1 0x20 ADD SWAP1 DUP2 MSTORE PUSH1 0x20 ADD PUSH1 0x0 KECCAK256 PUSH1 0x0 DUP3 ADD MLOAD DUP2 PUSH1 0x0 ADD PUSH1 0x0 PUSH2 0x100 EXP DUP2 SLOAD DUP2 PUSH20 0xFFFFFFFFFFFFFFFFFFFFFFFFFFFFFFFFFFFFFFFF MUL NOT AND SWAP1 DUP4 PUSH20 0xFFFFFFFFFFFFFFFFFFFFFFFFFFFFFFFFFFFFFFFF AND MUL OR SWAP1 SSTORE POP PUSH1 0x20 DUP3 ADD MLOAD DUP2 PUSH1 0x1 ADD PUSH1 0x0 PUSH2 0x100 EXP DUP2 SLOAD DUP2 PUSH20 0xFFFFFFFFFFFFFFFFFFFFFFFFFFFFFFFFFFFFFFFF MUL NOT AND SWAP1 DUP4 PUSH20 0xFFFFFFFFFFFFFFFFFFFFFFFFFFFFFFFFFFFFFFFF AND MUL OR SWAP1 SSTORE POP PUSH1 0x40 DUP3 ADD MLOAD DUP2 PUSH1 0x2 ADD SWAP1 DUP2 PUSH2 0x1B43 SWAP2 SWAP1 PUSH2 0x3024 JUMP JUMPDEST POP PUSH1 0x60 DUP3 ADD MLOAD DUP2 PUSH1 0x3 ADD SWAP1 DUP2 PUSH2 0x1B59 SWAP2 SWAP1 PUSH2 0x3024 JUMP JUMPDEST POP PUSH1 0x80 DUP3 ADD MLOAD DUP2 PUSH1 0x4 ADD SSTORE PUSH1 0xA0 DUP3 ADD MLOAD DUP2 PUSH1 0x5 ADD SSTORE PUSH1 0xC0 DUP3 ADD MLOAD DUP2 PUSH1 0x6 ADD PUSH1 0x0 PUSH2 0x100 EXP DUP2 SLOAD DUP2 PUSH1 0xFF MUL NOT AND SWAP1 DUP4 ISZERO ISZERO MUL OR SWAP1 SSTORE POP PUSH1 0xE0 DUP3 ADD MLOAD DUP2 PUSH1 0x6 ADD PUSH1 0x1 PUSH2 0x100 EXP DUP2 SLOAD DUP2 PUSH1 0xFF MUL NOT AND SWAP1 DUP4 ISZERO ISZERO MUL OR SWAP1 SSTORE POP SWAP1 POP POP POP POP POP POP POP POP JUMP JUMPDEST CALLER PUSH20 0xFFFFFFFFFFFFFFFFFFFFFFFFFFFFFFFFFFFFFFFF AND PUSH1 0x4 PUSH1 0x0 DUP6 DUP2 MSTORE PUSH1 0x20 ADD SWAP1 DUP2 MSTORE PUSH1 0x20 ADD PUSH1 0x0 KECCAK256 PUSH1 0x1 ADD PUSH1 0x0 SWAP1 SLOAD SWAP1 PUSH2 0x100 EXP SWAP1 DIV PUSH20 0xFFFFFFFFFFFFFFFFFFFFFFFFFFFFFFFFFFFFFFFF AND PUSH20 0xFFFFFFFFFFFFFFFFFFFFFFFFFFFFFFFFFFFFFFFF AND EQ DUP1 PUSH2 0x1C8A JUMPI POP CALLER PUSH20 0xFFFFFFFFFFFFFFFFFFFFFFFFFFFFFFFFFFFFFFFF AND PUSH1 0x4 PUSH1 0x0 DUP6 DUP2 MSTORE PUSH1 0x20 ADD SWAP1 DUP2 MSTORE PUSH1 0x20 ADD PUSH1 0x0 KECCAK256 PUSH1 0x0 ADD PUSH1 0x0 SWAP1 SLOAD SWAP1 PUSH2 0x100 EXP SWAP1 DIV PUSH20 0xFFFFFFFFFFFFFFFFFFFFFFFFFFFFFFFFFFFFFFFF AND PUSH20 0xFFFFFFFFFFFFFFFFFFFFFFFFFFFFFFFFFFFFFFFF AND EQ JUMPDEST PUSH2 0x1CC9 JUMPI PUSH1 0x40 MLOAD PUSH32 0x8C379A000000000000000000000000000000000000000000000000000000000 DUP2 MSTORE PUSH1 0x4 ADD PUSH2 0x1CC0 SWAP1 PUSH2 0x351C JUMP JUMPDEST PUSH1 0x40 MLOAD DUP1 SWAP2 SUB SWAP1 REVERT JUMPDEST PUSH1 0x1 ISZERO ISZERO PUSH1 0x4 PUSH1 0x0 DUP6 DUP2 MSTORE PUSH1 0x20 ADD SWAP1 DUP2 MSTORE PUSH1 0x20 ADD PUSH1 0x0 KECCAK256 PUSH1 0x6 ADD PUSH1 0x0 SWAP1 SLOAD SWAP1 PUSH2 0x100 EXP SWAP1 DIV PUSH1 0xFF AND ISZERO ISZERO EQ PUSH2 0x1D33 JUMPI PUSH1 0x40 MLOAD PUSH32 0x8C379A000000000000000000000000000000000000000000000000000000000 DUP2 MSTORE PUSH1 0x4 ADD PUSH2 0x1D2A SWAP1 PUSH2 0x2D80 JUMP JUMPDEST PUSH1 0x40 MLOAD DUP1 SWAP2 SUB SWAP1 REVERT JUMPDEST CALLER PUSH20 0xFFFFFFFFFFFFFFFFFFFFFFFFFFFFFFFFFFFFFFFF AND PUSH1 0x4 PUSH1 0x0 DUP6 DUP2 MSTORE PUSH1 0x20 ADD SWAP1 DUP2 MSTORE PUSH1 0x20 ADD PUSH1 0x0 KECCAK256 PUSH1 0x1 ADD PUSH1 0x0 SWAP1 SLOAD SWAP1 PUSH2 0x100 EXP SWAP1 DIV PUSH20 0xFFFFFFFFFFFFFFFFFFFFFFFFFFFFFFFFFFFFFFFF AND PUSH20 0xFFFFFFFFFFFFFFFFFFFFFFFFFFFFFFFFFFFFFFFF AND SUB PUSH2 0x1FF8 JUMPI PUSH1 0x0 PUSH1 0x4 PUSH1 0x0 DUP6 DUP2 MSTORE PUSH1 0x20 ADD SWAP1 DUP2 MSTORE PUSH1 0x20 ADD PUSH1 0x0 KECCAK256 PUSH1 0x5 ADD SLOAD SWAP1 POP PUSH1 0x0 PUSH3 0x13C680 TIMESTAMP PUSH2 0x1DC8 SWAP2 SWAP1 PUSH2 0x356B JUMP JUMPDEST SWAP1 POP DUP1 DUP3 LT PUSH2 0x1E0C JUMPI PUSH1 0x40 MLOAD PUSH32 0x8C379A000000000000000000000000000000000000000000000000000000000 DUP2 MSTORE PUSH1 0x4 ADD PUSH2 0x1E03 SWAP1 PUSH2 0x3611 JUMP JUMPDEST PUSH1 0x40 MLOAD DUP1 SWAP2 SUB SWAP1 REVERT JUMPDEST DUP1 DUP3 LT ISZERO PUSH2 0x1E77 JUMPI PUSH1 0x1 PUSH1 0x4 PUSH1 0x0 DUP8 DUP2 MSTORE PUSH1 0x20 ADD SWAP1 DUP2 MSTORE PUSH1 0x20 ADD PUSH1 0x0 KECCAK256 PUSH1 0x6 ADD PUSH1 0x1 PUSH2 0x100 EXP DUP2 SLOAD DUP2 PUSH1 0xFF MUL NOT AND SWAP1 DUP4 ISZERO ISZERO MUL OR SWAP1 SSTORE POP PUSH1 0x0 PUSH1 0x4 PUSH1 0x0 DUP8 DUP2 MSTORE PUSH1 0x20 ADD SWAP1 DUP2 MSTORE PUSH1 0x20 ADD PUSH1 0x0 KECCAK256 PUSH1 0x6 ADD PUSH1 0x0 PUSH2 0x100 EXP DUP2 SLOAD DUP2 PUSH1 0xFF MUL NOT AND SWAP1 DUP4 ISZERO ISZERO MUL OR SWAP1 SSTORE POP PUSH2 0x1FF5 JUMP JUMPDEST PUSH1 0x40 MLOAD DUP1 PUSH1 0x80 ADD PUSH1 0x40 MSTORE DUP1 DUP7 DUP2 MSTORE PUSH1 0x20 ADD PUSH1 0x4 PUSH1 0x0 DUP9 DUP2 MSTORE PUSH1 0x20 ADD SWAP1 DUP2 MSTORE PUSH1 0x20 ADD PUSH1 0x0 KECCAK256 PUSH1 0x1 ADD PUSH1 0x0 SWAP1 SLOAD SWAP1 PUSH2 0x100 EXP SWAP1 DIV PUSH20 0xFFFFFFFFFFFFFFFFFFFFFFFFFFFFFFFFFFFFFFFF AND PUSH20 0xFFFFFFFFFFFFFFFFFFFFFFFFFFFFFFFFFFFFFFFF AND DUP2 MSTORE PUSH1 0x20 ADD DUP5 DUP2 MSTORE PUSH1 0x20 ADD PUSH1 0x4 PUSH1 0x0 DUP9 DUP2 MSTORE PUSH1 0x20 ADD SWAP1 DUP2 MSTORE PUSH1 0x20 ADD PUSH1 0x0 KECCAK256 PUSH1 0x0 ADD PUSH1 0x0 SWAP1 SLOAD SWAP1 PUSH2 0x100 EXP SWAP1 DIV PUSH20 0xFFFFFFFFFFFFFFFFFFFFFFFFFFFFFFFFFFFFFFFF AND PUSH20 0xFFFFFFFFFFFFFFFFFFFFFFFFFFFFFFFFFFFFFFFF AND DUP2 MSTORE POP PUSH1 0x6 PUSH1 0x0 DUP8 DUP2 MSTORE PUSH1 0x20 ADD SWAP1 DUP2 MSTORE PUSH1 0x20 ADD PUSH1 0x0 KECCAK256 PUSH1 0x0 DUP3 ADD MLOAD DUP2 PUSH1 0x0 ADD SSTORE PUSH1 0x20 DUP3 ADD MLOAD DUP2 PUSH1 0x1 ADD PUSH1 0x0 PUSH2 0x100 EXP DUP2 SLOAD DUP2 PUSH20 0xFFFFFFFFFFFFFFFFFFFFFFFFFFFFFFFFFFFFFFFF MUL NOT AND SWAP1 DUP4 PUSH20 0xFFFFFFFFFFFFFFFFFFFFFFFFFFFFFFFFFFFFFFFF AND MUL OR SWAP1 SSTORE POP PUSH1 0x40 DUP3 ADD MLOAD DUP2 PUSH1 0x2 ADD SWAP1 DUP2 PUSH2 0x1FA9 SWAP2 SWAP1 PUSH2 0x3024 JUMP JUMPDEST POP PUSH1 0x60 DUP3 ADD MLOAD DUP2 PUSH1 0x3 ADD PUSH1 0x0 PUSH2 0x100 EXP DUP2 SLOAD DUP2 PUSH20 0xFFFFFFFFFFFFFFFFFFFFFFFFFFFFFFFFFFFFFFFF MUL NOT AND SWAP1 DUP4 PUSH20 0xFFFFFFFFFFFFFFFFFFFFFFFFFFFFFFFFFFFFFFFF AND MUL OR SWAP1 SSTORE POP SWAP1 POP POP JUMPDEST POP POP JUMPDEST CALLER PUSH20 0xFFFFFFFFFFFFFFFFFFFFFFFFFFFFFFFFFFFFFFFF AND PUSH1 0x4 PUSH1 0x0 DUP6 DUP2 MSTORE PUSH1 0x20 ADD SWAP1 DUP2 MSTORE PUSH1 0x20 ADD PUSH1 0x0 KECCAK256 PUSH1 0x0 ADD PUSH1 0x0 SWAP1 SLOAD SWAP1 PUSH2 0x100 EXP SWAP1 DIV PUSH20 0xFFFFFFFFFFFFFFFFFFFFFFFFFFFFFFFFFFFFFFFF AND PUSH20 0xFFFFFFFFFFFFFFFFFFFFFFFFFFFFFFFFFFFFFFFF AND SUB PUSH2 0x24CF JUMPI DUP2 ISZERO PUSH2 0x21E9 JUMPI PUSH1 0x40 MLOAD DUP1 PUSH1 0x80 ADD PUSH1 0x40 MSTORE DUP1 DUP5 DUP2 MSTORE PUSH1 0x20 ADD PUSH1 0x4 PUSH1 0x0 DUP7 DUP2 MSTORE PUSH1 0x20 ADD SWAP1 DUP2 MSTORE PUSH1 0x20 ADD PUSH1 0x0 KECCAK256 PUSH1 0x0 ADD PUSH1 0x0 SWAP1 SLOAD SWAP1 PUSH2 0x100 EXP SWAP1 DIV PUSH20 0xFFFFFFFFFFFFFFFFFFFFFFFFFFFFFFFFFFFFFFFF AND PUSH20 0xFFFFFFFFFFFFFFFFFFFFFFFFFFFFFFFFFFFFFFFF AND DUP2 MSTORE PUSH1 0x20 ADD DUP3 DUP2 MSTORE PUSH1 0x20 ADD PUSH1 0x4 PUSH1 0x0 DUP7 DUP2 MSTORE PUSH1 0x20 ADD SWAP1 DUP2 MSTORE PUSH1 0x20 ADD PUSH1 0x0 KECCAK256 PUSH1 0x1 ADD PUSH1 0x0 SWAP1 SLOAD SWAP1 PUSH2 0x100 EXP SWAP1 DIV PUSH20 0xFFFFFFFFFFFFFFFFFFFFFFFFFFFFFFFFFFFFFFFF AND PUSH20 0xFFFFFFFFFFFFFFFFFFFFFFFFFFFFFFFFFFFFFFFF AND DUP2 MSTORE POP PUSH1 0x6 PUSH1 0x0 DUP6 DUP2 MSTORE PUSH1 0x20 ADD SWAP1 DUP2 MSTORE PUSH1 0x20 ADD PUSH1 0x0 KECCAK256 PUSH1 0x0 DUP3 ADD MLOAD DUP2 PUSH1 0x0 ADD SSTORE PUSH1 0x20 DUP3 ADD MLOAD DUP2 PUSH1 0x1 ADD PUSH1 0x0 PUSH2 0x100 EXP DUP2 SLOAD DUP2 PUSH20 0xFFFFFFFFFFFFFFFFFFFFFFFFFFFFFFFFFFFFFFFF MUL NOT AND SWAP1 DUP4 PUSH20 0xFFFFFFFFFFFFFFFFFFFFFFFFFFFFFFFFFFFFFFFF AND MUL OR SWAP1 SSTORE POP PUSH1 0x40 DUP3 ADD MLOAD DUP2 PUSH1 0x2 ADD SWAP1 DUP2 PUSH2 0x2199 SWAP2 SWAP1 PUSH2 0x3024 JUMP JUMPDEST POP PUSH1 0x60 DUP3 ADD MLOAD DUP2 PUSH1 0x3 ADD PUSH1 0x0 PUSH2 0x100 EXP DUP2 SLOAD DUP2 PUSH20 0xFFFFFFFFFFFFFFFFFFFFFFFFFFFFFFFFFFFFFFFF MUL NOT AND SWAP1 DUP4 PUSH20 0xFFFFFFFFFFFFFFFFFFFFFFFFFFFFFFFFFFFFFFFF AND MUL OR SWAP1 SSTORE POP SWAP1 POP POP PUSH2 0x24CE JUMP JUMPDEST PUSH1 0x40 MLOAD DUP1 PUSH1 0x80 ADD PUSH1 0x40 MSTORE DUP1 DUP5 DUP2 MSTORE PUSH1 0x20 ADD PUSH1 0x4 PUSH1 0x0 DUP7 DUP2 MSTORE PUSH1 0x20 ADD SWAP1 DUP2 MSTORE PUSH1 0x20 ADD PUSH1 0x0 KECCAK256 PUSH1 0x0 ADD PUSH1 0x0 SWAP1 SLOAD SWAP1 PUSH2 0x100 EXP SWAP1 DIV PUSH20 0xFFFFFFFFFFFFFFFFFFFFFFFFFFFFFFFFFFFFFFFF AND PUSH20 0xFFFFFFFFFFFFFFFFFFFFFFFFFFFFFFFFFFFFFFFF AND DUP2 MSTORE PUSH1 0x20 ADD DUP3 DUP2 MSTORE PUSH1 0x20 ADD PUSH1 0x4 PUSH1 0x0 DUP7 DUP2 MSTORE PUSH1 0x20 ADD SWAP1 DUP2 MSTORE PUSH1 0x20 ADD PUSH1 0x0 KECCAK256 PUSH1 0x1 ADD PUSH1 0x0 SWAP1 SLOAD SWAP1 PUSH2 0x100 EXP SWAP1 DIV PUSH20 0xFFFFFFFFFFFFFFFFFFFFFFFFFFFFFFFFFFFFFFFF AND PUSH20 0xFFFFFFFFFFFFFFFFFFFFFFFFFFFFFFFFFFFFFFFF AND DUP2 MSTORE POP PUSH1 0x6 PUSH1 0x0 DUP6 DUP2 MSTORE PUSH1 0x20 ADD SWAP1 DUP2 MSTORE PUSH1 0x20 ADD PUSH1 0x0 KECCAK256 PUSH1 0x0 DUP3 ADD MLOAD DUP2 PUSH1 0x0 ADD SSTORE PUSH1 0x20 DUP3 ADD MLOAD DUP2 PUSH1 0x1 ADD PUSH1 0x0 PUSH2 0x100 EXP DUP2 SLOAD DUP2 PUSH20 0xFFFFFFFFFFFFFFFFFFFFFFFFFFFFFFFFFFFFFFFF MUL NOT AND SWAP1 DUP4 PUSH20 0xFFFFFFFFFFFFFFFFFFFFFFFFFFFFFFFFFFFFFFFF AND MUL OR SWAP1 SSTORE POP PUSH1 0x40 DUP3 ADD MLOAD DUP2 PUSH1 0x2 ADD SWAP1 DUP2 PUSH2 0x231B SWAP2 SWAP1 PUSH2 0x3024 JUMP JUMPDEST POP PUSH1 0x60 DUP3 ADD MLOAD DUP2 PUSH1 0x3 ADD PUSH1 0x0 PUSH2 0x100 EXP DUP2 SLOAD DUP2 PUSH20 0xFFFFFFFFFFFFFFFFFFFFFFFFFFFFFFFFFFFFFFFF MUL NOT AND SWAP1 DUP4 PUSH20 0xFFFFFFFFFFFFFFFFFFFFFFFFFFFFFFFFFFFFFFFF AND MUL OR SWAP1 SSTORE POP SWAP1 POP POP PUSH1 0x40 MLOAD DUP1 PUSH1 0x80 ADD PUSH1 0x40 MSTORE DUP1 DUP5 DUP2 MSTORE PUSH1 0x20 ADD PUSH1 0x4 PUSH1 0x0 DUP7 DUP2 MSTORE PUSH1 0x20 ADD SWAP1 DUP2 MSTORE PUSH1 0x20 ADD PUSH1 0x0 KECCAK256 PUSH1 0x0 ADD PUSH1 0x0 SWAP1 SLOAD SWAP1 PUSH2 0x100 EXP SWAP1 DIV PUSH20 0xFFFFFFFFFFFFFFFFFFFFFFFFFFFFFFFFFFFFFFFF AND PUSH20 0xFFFFFFFFFFFFFFFFFFFFFFFFFFFFFFFFFFFFFFFF AND DUP2 MSTORE PUSH1 0x20 ADD DUP3 DUP2 MSTORE PUSH1 0x20 ADD PUSH1 0x0 DUP1 SLOAD SWAP1 PUSH2 0x100 EXP SWAP1 DIV PUSH20 0xFFFFFFFFFFFFFFFFFFFFFFFFFFFFFFFFFFFFFFFF AND PUSH20 0xFFFFFFFFFFFFFFFFFFFFFFFFFFFFFFFFFFFFFFFF AND DUP2 MSTORE POP PUSH1 0x6 PUSH1 0x0 DUP6 DUP2 MSTORE PUSH1 0x20 ADD SWAP1 DUP2 MSTORE PUSH1 0x20 ADD PUSH1 0x0 KECCAK256 PUSH1 0x0 DUP3 ADD MLOAD DUP2 PUSH1 0x0 ADD SSTORE PUSH1 0x20 DUP3 ADD MLOAD DUP2 PUSH1 0x1 ADD PUSH1 0x0 PUSH2 0x100 EXP DUP2 SLOAD DUP2 PUSH20 0xFFFFFFFFFFFFFFFFFFFFFFFFFFFFFFFFFFFFFFFF MUL NOT AND SWAP1 DUP4 PUSH20 0xFFFFFFFFFFFFFFFFFFFFFFFFFFFFFFFFFFFFFFFF AND MUL OR SWAP1 SSTORE POP PUSH1 0x40 DUP3 ADD MLOAD DUP2 PUSH1 0x2 ADD SWAP1 DUP2 PUSH2 0x2482 SWAP2 SWAP1 PUSH2 0x3024 JUMP JUMPDEST POP PUSH1 0x60 DUP3 ADD MLOAD DUP2 PUSH1 0x3 ADD PUSH1 0x0 PUSH2 0x100 EXP DUP2 SLOAD DUP2 PUSH20 0xFFFFFFFFFFFFFFFFFFFFFFFFFFFFFFFFFFFFFFFF MUL NOT AND SWAP1 DUP4 PUSH20 0xFFFFFFFFFFFFFFFFFFFFFFFFFFFFFFFFFFFFFFFF AND MUL OR SWAP1 SSTORE POP SWAP1 POP POP JUMPDEST JUMPDEST POP POP POP JUMP JUMPDEST PUSH1 0x0 PUSH1 0x40 MLOAD SWAP1 POP SWAP1 JUMP JUMPDEST PUSH1 0x0 DUP1 REVERT JUMPDEST PUSH1 0x0 DUP1 REVERT JUMPDEST PUSH1 0x0 PUSH20 0xFFFFFFFFFFFFFFFFFFFFFFFFFFFFFFFFFFFFFFFF DUP3 AND SWAP1 POP SWAP2 SWAP1 POP JUMP JUMPDEST PUSH1 0x0 PUSH2 0x2513 DUP3 PUSH2 0x24E8 JUMP JUMPDEST SWAP1 POP SWAP2 SWAP1 POP JUMP JUMPDEST PUSH2 0x2523 DUP2 PUSH2 0x2508 JUMP JUMPDEST DUP2 EQ PUSH2 0x252E JUMPI PUSH1 0x0 DUP1 REVERT JUMPDEST POP JUMP JUMPDEST PUSH1 0x0 DUP2 CALLDATALOAD SWAP1 POP PUSH2 0x2540 DUP2 PUSH2 0x251A JUMP JUMPDEST SWAP3 SWAP2 POP POP JUMP JUMPDEST PUSH1 0x0 PUSH1 0x20 DUP3 DUP5 SUB SLT ISZERO PUSH2 0x255C JUMPI PUSH2 0x255B PUSH2 0x24DE JUMP JUMPDEST JUMPDEST PUSH1 0x0 PUSH2 0x256A DUP5 DUP3 DUP6 ADD PUSH2 0x2531 JUMP JUMPDEST SWAP2 POP POP SWAP3 SWAP2 POP POP JUMP JUMPDEST PUSH1 0x0 DUP2 MLOAD SWAP1 POP SWAP2 SWAP1 POP JUMP JUMPDEST PUSH1 0x0 DUP3 DUP3 MSTORE PUSH1 0x20 DUP3 ADD SWAP1 POP SWAP3 SWAP2 POP POP JUMP JUMPDEST PUSH1 0x0 JUMPDEST DUP4 DUP2 LT ISZERO PUSH2 0x25AD JUMPI DUP1 DUP3 ADD MLOAD DUP2 DUP5 ADD MSTORE PUSH1 0x20 DUP2 ADD SWAP1 POP PUSH2 0x2592 JUMP JUMPDEST PUSH1 0x0 DUP5 DUP5 ADD MSTORE POP POP POP POP JUMP JUMPDEST PUSH1 0x0 PUSH1 0x1F NOT PUSH1 0x1F DUP4 ADD AND SWAP1 POP SWAP2 SWAP1 POP JUMP JUMPDEST PUSH1 0x0 PUSH2 0x25D5 DUP3 PUSH2 0x2573 JUMP JUMPDEST PUSH2 0x25DF DUP2 DUP6 PUSH2 0x257E JUMP JUMPDEST SWAP4 POP PUSH2 0x25EF DUP2 DUP6 PUSH1 0x20 DUP7 ADD PUSH2 0x258F JUMP JUMPDEST PUSH2 0x25F8 DUP2 PUSH2 0x25B9 JUMP JUMPDEST DUP5 ADD SWAP2 POP POP SWAP3 SWAP2 POP POP JUMP JUMPDEST PUSH2 0x260C DUP2 PUSH2 0x2508 JUMP JUMPDEST DUP3 MSTORE POP POP JUMP JUMPDEST PUSH1 0x0 DUP2 ISZERO ISZERO SWAP1 POP SWAP2 SWAP1 POP JUMP JUMPDEST PUSH2 0x2627 DUP2 PUSH2 0x2612 JUMP JUMPDEST DUP3 MSTORE POP POP JUMP JUMPDEST PUSH1 0x0 PUSH1 0x60 DUP3 ADD SWAP1 POP DUP2 DUP2 SUB PUSH1 0x0 DUP4 ADD MSTORE PUSH2 0x2647 DUP2 DUP7 PUSH2 0x25CA JUMP JUMPDEST SWAP1 POP PUSH2 0x2656 PUSH1 0x20 DUP4 ADD DUP6 PUSH2 0x2603 JUMP JUMPDEST PUSH2 0x2663 PUSH1 0x40 DUP4 ADD DUP5 PUSH2 0x261E JUMP JUMPDEST SWAP5 SWAP4 POP POP POP POP JUMP JUMPDEST PUSH1 0x0 PUSH1 0x20 DUP3 ADD SWAP1 POP PUSH2 0x2680 PUSH1 0x0 DUP4 ADD DUP5 PUSH2 0x261E JUMP JUMPDEST SWAP3 SWAP2 POP POP JUMP JUMPDEST PUSH1 0x0 PUSH1 0x20 DUP3 ADD SWAP1 POP PUSH2 0x269B PUSH1 0x0 DUP4 ADD DUP5 PUSH2 0x2603 JUMP JUMPDEST SWAP3 SWAP2 POP POP JUMP JUMPDEST PUSH1 0x0 DUP2 SWAP1 POP SWAP2 SWAP1 POP JUMP JUMPDEST PUSH2 0x26B4 DUP2 PUSH2 0x26A1 JUMP JUMPDEST DUP2 EQ PUSH2 0x26BF JUMPI PUSH1 0x0 DUP1 REVERT JUMPDEST POP JUMP JUMPDEST PUSH1 0x0 DUP2 CALLDATALOAD SWAP1 POP PUSH2 0x26D1 DUP2 PUSH2 0x26AB JUMP JUMPDEST SWAP3 SWAP2 POP POP JUMP JUMPDEST PUSH2 0x26E0 DUP2 PUSH2 0x2612 JUMP JUMPDEST DUP2 EQ PUSH2 0x26EB JUMPI PUSH1 0x0 DUP1 REVERT JUMPDEST POP JUMP JUMPDEST PUSH1 0x0 DUP2 CALLDATALOAD SWAP1 POP PUSH2 0x26FD DUP2 PUSH2 0x26D7 JUMP JUMPDEST SWAP3 SWAP2 POP POP JUMP JUMPDEST PUSH1 0x0 DUP1 PUSH1 0x40 DUP4 DUP6 SUB SLT ISZERO PUSH2 0x271A JUMPI PUSH2 0x2719 PUSH2 0x24DE JUMP JUMPDEST JUMPDEST PUSH1 0x0 PUSH2 0x2728 DUP6 DUP3 DUP7 ADD PUSH2 0x26C2 JUMP JUMPDEST SWAP3 POP POP PUSH1 0x20 PUSH2 0x2739 DUP6 DUP3 DUP7 ADD PUSH2 0x26EE JUMP JUMPDEST SWAP2 POP POP SWAP3 POP SWAP3 SWAP1 POP JUMP JUMPDEST PUSH1 0x0 PUSH1 0x20 DUP3 DUP5 SUB SLT ISZERO PUSH2 0x2759 JUMPI PUSH2 0x2758 PUSH2 0x24DE JUMP JUMPDEST JUMPDEST PUSH1 0x0 PUSH2 0x2767 DUP5 DUP3 DUP6 ADD PUSH2 0x26C2 JUMP JUMPDEST SWAP2 POP POP SWAP3 SWAP2 POP POP JUMP JUMPDEST PUSH2 0x2779 DUP2 PUSH2 0x26A1 JUMP JUMPDEST DUP3 MSTORE POP POP JUMP JUMPDEST PUSH1 0x0 PUSH1 0xA0 DUP3 ADD SWAP1 POP PUSH2 0x2794 PUSH1 0x0 DUP4 ADD DUP9 PUSH2 0x2770 JUMP JUMPDEST PUSH2 0x27A1 PUSH1 0x20 DUP4 ADD DUP8 PUSH2 0x2603 JUMP JUMPDEST PUSH2 0x27AE PUSH1 0x40 DUP4 ADD DUP7 PUSH2 0x2603 JUMP JUMPDEST DUP2 DUP2 SUB PUSH1 0x60 DUP4 ADD MSTORE PUSH2 0x27C0 DUP2 DUP6 PUSH2 0x25CA JUMP JUMPDEST SWAP1 POP PUSH2 0x27CF PUSH1 0x80 DUP4 ADD DUP5 PUSH2 0x2603 JUMP JUMPDEST SWAP7 SWAP6 POP POP POP POP POP POP JUMP JUMPDEST PUSH1 0x0 DUP1 REVERT JUMPDEST PUSH1 0x0 DUP1 REVERT JUMPDEST PUSH32 0x4E487B7100000000000000000000000000000000000000000000000000000000 PUSH1 0x0 MSTORE PUSH1 0x41 PUSH1 0x4 MSTORE PUSH1 0x24 PUSH1 0x0 REVERT JUMPDEST PUSH2 0x281B DUP3 PUSH2 0x25B9 JUMP JUMPDEST DUP2 ADD DUP2 DUP2 LT PUSH8 0xFFFFFFFFFFFFFFFF DUP3 GT OR ISZERO PUSH2 0x283A JUMPI PUSH2 0x2839 PUSH2 0x27E3 JUMP JUMPDEST JUMPDEST DUP1 PUSH1 0x40 MSTORE POP POP POP JUMP JUMPDEST PUSH1 0x0 PUSH2 0x284D PUSH2 0x24D4 JUMP JUMPDEST SWAP1 POP PUSH2 0x2859 DUP3 DUP3 PUSH2 0x2812 JUMP JUMPDEST SWAP2 SWAP1 POP JUMP JUMPDEST PUSH1 0x0 PUSH8 0xFFFFFFFFFFFFFFFF DUP3 GT ISZERO PUSH2 0x2879 JUMPI PUSH2 0x2878 PUSH2 0x27E3 JUMP JUMPDEST JUMPDEST PUSH2 0x2882 DUP3 PUSH2 0x25B9 JUMP JUMPDEST SWAP1 POP PUSH1 0x20 DUP2 ADD SWAP1 POP SWAP2 SWAP1 POP JUMP JUMPDEST DUP3 DUP2 DUP4 CALLDATACOPY PUSH1 0x0 DUP4 DUP4 ADD MSTORE POP POP POP JUMP JUMPDEST PUSH1 0x0 PUSH2 0x28B1 PUSH2 0x28AC DUP5 PUSH2 0x285E JUMP JUMPDEST PUSH2 0x2843 JUMP JUMPDEST SWAP1 POP DUP3 DUP2 MSTORE PUSH1 0x20 DUP2 ADD DUP5 DUP5 DUP5 ADD GT ISZERO PUSH2 0x28CD JUMPI PUSH2 0x28CC PUSH2 0x27DE JUMP JUMPDEST JUMPDEST PUSH2 0x28D8 DUP5 DUP3 DUP6 PUSH2 0x288F JUMP JUMPDEST POP SWAP4 SWAP3 POP POP POP JUMP JUMPDEST PUSH1 0x0 DUP3 PUSH1 0x1F DUP4 ADD SLT PUSH2 0x28F5 JUMPI PUSH2 0x28F4 PUSH2 0x27D9 JUMP JUMPDEST JUMPDEST DUP2 CALLDATALOAD PUSH2 0x2905 DUP5 DUP3 PUSH1 0x20 DUP7 ADD PUSH2 0x289E JUMP JUMPDEST SWAP2 POP POP SWAP3 SWAP2 POP POP JUMP JUMPDEST PUSH1 0x0 DUP1 PUSH1 0x40 DUP4 DUP6 SUB SLT ISZERO PUSH2 0x2925 JUMPI PUSH2 0x2924 PUSH2 0x24DE JUMP JUMPDEST JUMPDEST PUSH1 0x0 DUP4 ADD CALLDATALOAD PUSH8 0xFFFFFFFFFFFFFFFF DUP2 GT ISZERO PUSH2 0x2943 JUMPI PUSH2 0x2942 PUSH2 0x24E3 JUMP JUMPDEST JUMPDEST PUSH2 0x294F DUP6 DUP3 DUP7 ADD PUSH2 0x28E0 JUMP JUMPDEST SWAP3 POP POP PUSH1 0x20 PUSH2 0x2960 DUP6 DUP3 DUP7 ADD PUSH2 0x26EE JUMP JUMPDEST SWAP2 POP POP SWAP3 POP SWAP3 SWAP1 POP JUMP JUMPDEST PUSH1 0x0 PUSH1 0x20 DUP3 DUP5 SUB SLT ISZERO PUSH2 0x2980 JUMPI PUSH2 0x297F PUSH2 0x24DE JUMP JUMPDEST JUMPDEST PUSH1 0x0 DUP3 ADD CALLDATALOAD PUSH8 0xFFFFFFFFFFFFFFFF DUP2 GT ISZERO PUSH2 0x299E JUMPI PUSH2 0x299D PUSH2 0x24E3 JUMP JUMPDEST JUMPDEST PUSH2 0x29AA DUP5 DUP3 DUP6 ADD PUSH2 0x28E0 JUMP JUMPDEST SWAP2 POP POP SWAP3 SWAP2 POP POP JUMP JUMPDEST PUSH1 0x0 PUSH1 0x80 DUP3 ADD SWAP1 POP PUSH2 0x29C8 PUSH1 0x0 DUP4 ADD DUP8 PUSH2 0x2603 JUMP JUMPDEST DUP2 DUP2 SUB PUSH1 0x20 DUP4 ADD MSTORE PUSH2 0x29DA DUP2 DUP7 PUSH2 0x25CA JUMP JUMPDEST SWAP1 POP DUP2 DUP2 SUB PUSH1 0x40 DUP4 ADD MSTORE PUSH2 0x29EE DUP2 DUP6 PUSH2 0x25CA JUMP JUMPDEST SWAP1 POP PUSH2 0x29FD PUSH1 0x60 DUP4 ADD DUP5 PUSH2 0x261E JUMP JUMPDEST SWAP6 SWAP5 POP POP POP POP POP JUMP JUMPDEST PUSH1 0x0 DUP1 PUSH1 0x40 DUP4 DUP6 SUB SLT ISZERO PUSH2 0x2A1D JUMPI PUSH2 0x2A1C PUSH2 0x24DE JUMP JUMPDEST JUMPDEST PUSH1 0x0 PUSH2 0x2A2B DUP6 DUP3 DUP7 ADD PUSH2 0x26C2 JUMP JUMPDEST SWAP3 POP POP PUSH1 0x20 DUP4 ADD CALLDATALOAD PUSH8 0xFFFFFFFFFFFFFFFF DUP2 GT ISZERO PUSH2 0x2A4C JUMPI PUSH2 0x2A4B PUSH2 0x24E3 JUMP JUMPDEST JUMPDEST PUSH2 0x2A58 DUP6 DUP3 DUP7 ADD PUSH2 0x28E0 JUMP JUMPDEST SWAP2 POP POP SWAP3 POP SWAP3 SWAP1 POP JUMP JUMPDEST PUSH1 0x0 PUSH2 0x100 DUP3 ADD SWAP1 POP PUSH2 0x2A78 PUSH1 0x0 DUP4 ADD DUP12 PUSH2 0x2603 JUMP JUMPDEST PUSH2 0x2A85 PUSH1 0x20 DUP4 ADD DUP11 PUSH2 0x2603 JUMP JUMPDEST DUP2 DUP2 SUB PUSH1 0x40 DUP4 ADD MSTORE PUSH2 0x2A97 DUP2 DUP10 PUSH2 0x25CA JUMP JUMPDEST SWAP1 POP DUP2 DUP2 SUB PUSH1 0x60 DUP4 ADD MSTORE PUSH2 0x2AAB DUP2 DUP9 PUSH2 0x25CA JUMP JUMPDEST SWAP1 POP PUSH2 0x2ABA PUSH1 0x80 DUP4 ADD DUP8 PUSH2 0x2770 JUMP JUMPDEST PUSH2 0x2AC7 PUSH1 0xA0 DUP4 ADD DUP7 PUSH2 0x2770 JUMP JUMPDEST PUSH2 0x2AD4 PUSH1 0xC0 DUP4 ADD DUP6 PUSH2 0x261E JUMP JUMPDEST PUSH2 0x2AE1 PUSH1 0xE0 DUP4 ADD DUP5 PUSH2 0x261E JUMP JUMPDEST SWAP10 SWAP9 POP POP POP POP POP POP POP POP POP JUMP JUMPDEST PUSH1 0x0 DUP1 PUSH1 0x40 DUP4 DUP6 SUB SLT ISZERO PUSH2 0x2B05 JUMPI PUSH2 0x2B04 PUSH2 0x24DE JUMP JUMPDEST JUMPDEST PUSH1 0x0 DUP4 ADD CALLDATALOAD PUSH8 0xFFFFFFFFFFFFFFFF DUP2 GT ISZERO PUSH2 0x2B23 JUMPI PUSH2 0x2B22 PUSH2 0x24E3 JUMP JUMPDEST JUMPDEST PUSH2 0x2B2F DUP6 DUP3 DUP7 ADD PUSH2 0x28E0 JUMP JUMPDEST SWAP3 POP POP PUSH1 0x20 DUP4 ADD CALLDATALOAD PUSH8 0xFFFFFFFFFFFFFFFF DUP2 GT ISZERO PUSH2 0x2B50 JUMPI PUSH2 0x2B4F PUSH2 0x24E3 JUMP JUMPDEST JUMPDEST PUSH2 0x2B5C DUP6 DUP3 DUP7 ADD PUSH2 0x28E0 JUMP JUMPDEST SWAP2 POP POP SWAP3 POP SWAP3 SWAP1 POP JUMP JUMPDEST PUSH1 0x0 PUSH1 0x80 DUP3 ADD SWAP1 POP PUSH2 0x2B7B PUSH1 0x0 DUP4 ADD DUP8 PUSH2 0x2770 JUMP JUMPDEST PUSH2 0x2B88 PUSH1 0x20 DUP4 ADD DUP7 PUSH2 0x2603 JUMP JUMPDEST DUP2 DUP2 SUB PUSH1 0x40 DUP4 ADD MSTORE PUSH2 0x2B9A DUP2 DUP6 PUSH2 0x25CA JUMP JUMPDEST SWAP1 POP PUSH2 0x2BA9 PUSH1 0x60 DUP4 ADD DUP5 PUSH2 0x2603 JUMP JUMPDEST SWAP6 SWAP5 POP POP POP POP POP JUMP JUMPDEST PUSH1 0x0 DUP1 PUSH1 0x0 DUP1 PUSH1 0x0 PUSH1 0xA0 DUP7 DUP9 SUB SLT ISZERO PUSH2 0x2BCE JUMPI PUSH2 0x2BCD PUSH2 0x24DE JUMP JUMPDEST JUMPDEST PUSH1 0x0 PUSH2 0x2BDC DUP9 DUP3 DUP10 ADD PUSH2 0x2531 JUMP JUMPDEST SWAP6 POP POP PUSH1 0x20 DUP7 ADD CALLDATALOAD PUSH8 0xFFFFFFFFFFFFFFFF DUP2 GT ISZERO PUSH2 0x2BFD JUMPI PUSH2 0x2BFC PUSH2 0x24E3 JUMP JUMPDEST JUMPDEST PUSH2 0x2C09 DUP9 DUP3 DUP10 ADD PUSH2 0x28E0 JUMP JUMPDEST SWAP5 POP POP PUSH1 0x40 DUP7 ADD CALLDATALOAD PUSH8 0xFFFFFFFFFFFFFFFF DUP2 GT ISZERO PUSH2 0x2C2A JUMPI PUSH2 0x2C29 PUSH2 0x24E3 JUMP JUMPDEST JUMPDEST PUSH2 0x2C36 DUP9 DUP3 DUP10 ADD PUSH2 0x28E0 JUMP JUMPDEST SWAP4 POP POP PUSH1 0x60 PUSH2 0x2C47 DUP9 DUP3 DUP10 ADD PUSH2 0x26C2 JUMP JUMPDEST SWAP3 POP POP PUSH1 0x80 PUSH2 0x2C58 DUP9 DUP3 DUP10 ADD PUSH2 0x26C2 JUMP JUMPDEST SWAP2 POP POP SWAP3 SWAP6 POP SWAP3 SWAP6 SWAP1 SWAP4 POP JUMP JUMPDEST PUSH1 0x0 DUP1 PUSH1 0x0 PUSH1 0x60 DUP5 DUP7 SUB SLT ISZERO PUSH2 0x2C7E JUMPI PUSH2 0x2C7D PUSH2 0x24DE JUMP JUMPDEST JUMPDEST PUSH1 0x0 PUSH2 0x2C8C DUP7 DUP3 DUP8 ADD PUSH2 0x26C2 JUMP JUMPDEST SWAP4 POP POP PUSH1 0x20 PUSH2 0x2C9D DUP7 DUP3 DUP8 ADD PUSH2 0x26EE JUMP JUMPDEST SWAP3 POP POP PUSH1 0x40 DUP5 ADD CALLDATALOAD PUSH8 0xFFFFFFFFFFFFFFFF DUP2 GT ISZERO PUSH2 0x2CBE JUMPI PUSH2 0x2CBD PUSH2 0x24E3 JUMP JUMPDEST JUMPDEST PUSH2 0x2CCA DUP7 DUP3 DUP8 ADD PUSH2 0x28E0 JUMP JUMPDEST SWAP2 POP POP SWAP3 POP SWAP3 POP SWAP3 JUMP JUMPDEST PUSH32 0x4E487B7100000000000000000000000000000000000000000000000000000000 PUSH1 0x0 MSTORE PUSH1 0x22 PUSH1 0x4 MSTORE PUSH1 0x24 PUSH1 0x0 REVERT JUMPDEST PUSH1 0x0 PUSH1 0x2 DUP3 DIV SWAP1 POP PUSH1 0x1 DUP3 AND DUP1 PUSH2 0x2D1B JUMPI PUSH1 0x7F DUP3 AND SWAP2 POP JUMPDEST PUSH1 0x20 DUP3 LT DUP2 SUB PUSH2 0x2D2E JUMPI PUSH2 0x2D2D PUSH2 0x2CD4 JUMP JUMPDEST JUMPDEST POP SWAP2 SWAP1 POP JUMP JUMPDEST PUSH32 0x436F6E7472616374206973206E6F742076616C69640000000000000000000000 PUSH1 0x0 DUP3 ADD MSTORE POP JUMP JUMPDEST PUSH1 0x0 PUSH2 0x2D6A PUSH1 0x15 DUP4 PUSH2 0x257E JUMP JUMPDEST SWAP2 POP PUSH2 0x2D75 DUP3 PUSH2 0x2D34 JUMP JUMPDEST PUSH1 0x20 DUP3 ADD SWAP1 POP SWAP2 SWAP1 POP JUMP JUMPDEST PUSH1 0x0 PUSH1 0x20 DUP3 ADD SWAP1 POP DUP2 DUP2 SUB PUSH1 0x0 DUP4 ADD MSTORE PUSH2 0x2D99 DUP2 PUSH2 0x2D5D JUMP JUMPDEST SWAP1 POP SWAP2 SWAP1 POP JUMP JUMPDEST PUSH32 0x55736572206E6F7420617574686F72697A656400000000000000000000000000 PUSH1 0x0 DUP3 ADD MSTORE POP JUMP JUMPDEST PUSH1 0x0 PUSH2 0x2DD6 PUSH1 0x13 DUP4 PUSH2 0x257E JUMP JUMPDEST SWAP2 POP PUSH2 0x2DE1 DUP3 PUSH2 0x2DA0 JUMP JUMPDEST PUSH1 0x20 DUP3 ADD SWAP1 POP SWAP2 SWAP1 POP JUMP JUMPDEST PUSH1 0x0 PUSH1 0x20 DUP3 ADD SWAP1 POP DUP2 DUP2 SUB PUSH1 0x0 DUP4 ADD MSTORE PUSH2 0x2E05 DUP2 PUSH2 0x2DC9 JUMP JUMPDEST SWAP1 POP SWAP2 SWAP1 POP JUMP JUMPDEST PUSH32 0x5573657220697320616C72656164792072656769737465726564000000000000 PUSH1 0x0 DUP3 ADD MSTORE POP JUMP JUMPDEST PUSH1 0x0 PUSH2 0x2E42 PUSH1 0x1A DUP4 PUSH2 0x257E JUMP JUMPDEST SWAP2 POP PUSH2 0x2E4D DUP3 PUSH2 0x2E0C JUMP JUMPDEST PUSH1 0x20 DUP3 ADD SWAP1 POP SWAP2 SWAP1 POP JUMP JUMPDEST PUSH1 0x0 PUSH1 0x20 DUP3 ADD SWAP1 POP DUP2 DUP2 SUB PUSH1 0x0 DUP4 ADD MSTORE PUSH2 0x2E71 DUP2 PUSH2 0x2E35 JUMP JUMPDEST SWAP1 POP SWAP2 SWAP1 POP JUMP JUMPDEST PUSH1 0x0 DUP2 SWAP1 POP DUP2 PUSH1 0x0 MSTORE PUSH1 0x20 PUSH1 0x0 KECCAK256 SWAP1 POP SWAP2 SWAP1 POP JUMP JUMPDEST PUSH1 0x0 PUSH1 0x20 PUSH1 0x1F DUP4 ADD DIV SWAP1 POP SWAP2 SWAP1 POP JUMP JUMPDEST PUSH1 0x0 DUP3 DUP3 SHL SWAP1 POP SWAP3 SWAP2 POP POP JUMP JUMPDEST PUSH1 0x0 PUSH1 0x8 DUP4 MUL PUSH2 0x2EDA PUSH32 0xFFFFFFFFFFFFFFFFFFFFFFFFFFFFFFFFFFFFFFFFFFFFFFFFFFFFFFFFFFFFFFFF DUP3 PUSH2 0x2E9D JUMP JUMPDEST PUSH2 0x2EE4 DUP7 DUP4 PUSH2 0x2E9D JUMP JUMPDEST SWAP6 POP DUP1 NOT DUP5 AND SWAP4 POP DUP1 DUP7 AND DUP5 OR SWAP3 POP POP POP SWAP4 SWAP3 POP POP POP JUMP JUMPDEST PUSH1 0x0 DUP2 SWAP1 POP SWAP2 SWAP1 POP JUMP JUMPDEST PUSH1 0x0 PUSH2 0x2F21 PUSH2 0x2F1C PUSH2 0x2F17 DUP5 PUSH2 0x26A1 JUMP JUMPDEST PUSH2 0x2EFC JUMP JUMPDEST PUSH2 0x26A1 JUMP JUMPDEST SWAP1 POP SWAP2 SWAP1 POP JUMP JUMPDEST PUSH1 0x0 DUP2 SWAP1 POP SWAP2 SWAP1 POP JUMP JUMPDEST PUSH2 0x2F3B DUP4 PUSH2 0x2F06 JUMP JUMPDEST PUSH2 0x2F4F PUSH2 0x2F47 DUP3 PUSH2 0x2F28 JUMP JUMPDEST DUP5 DUP5 SLOAD PUSH2 0x2EAA JUMP JUMPDEST DUP3 SSTORE POP POP POP POP JUMP JUMPDEST PUSH1 0x0 SWAP1 JUMP JUMPDEST PUSH2 0x2F64 PUSH2 0x2F57 JUMP JUMPDEST PUSH2 0x2F6F DUP2 DUP5 DUP5 PUSH2 0x2F32 JUMP JUMPDEST POP POP POP JUMP JUMPDEST JUMPDEST DUP2 DUP2 LT ISZERO PUSH2 0x2F93 JUMPI PUSH2 0x2F88 PUSH1 0x0 DUP3 PUSH2 0x2F5C JUMP JUMPDEST PUSH1 0x1 DUP2 ADD SWAP1 POP PUSH2 0x2F75 JUMP JUMPDEST POP POP JUMP JUMPDEST PUSH1 0x1F DUP3 GT ISZERO PUSH2 0x2FD8 JUMPI PUSH2 0x2FA9 DUP2 PUSH2 0x2E78 JUMP JUMPDEST PUSH2 0x2FB2 DUP5 PUSH2 0x2E8D JUMP JUMPDEST DUP2 ADD PUSH1 0x20 DUP6 LT ISZERO PUSH2 0x2FC1 JUMPI DUP2 SWAP1 POP JUMPDEST PUSH2 0x2FD5 PUSH2 0x2FCD DUP6 PUSH2 0x2E8D JUMP JUMPDEST DUP4 ADD DUP3 PUSH2 0x2F74 JUMP JUMPDEST POP POP JUMPDEST POP POP POP JUMP JUMPDEST PUSH1 0x0 DUP3 DUP3 SHR SWAP1 POP SWAP3 SWAP2 POP POP JUMP JUMPDEST PUSH1 0x0 PUSH2 0x2FFB PUSH1 0x0 NOT DUP5 PUSH1 0x8 MUL PUSH2 0x2FDD JUMP JUMPDEST NOT DUP1 DUP4 AND SWAP2 POP POP SWAP3 SWAP2 POP POP JUMP JUMPDEST PUSH1 0x0 PUSH2 0x3014 DUP4 DUP4 PUSH2 0x2FEA JUMP JUMPDEST SWAP2 POP DUP3 PUSH1 0x2 MUL DUP3 OR SWAP1 POP SWAP3 SWAP2 POP POP JUMP JUMPDEST PUSH2 0x302D DUP3 PUSH2 0x2573 JUMP JUMPDEST PUSH8 0xFFFFFFFFFFFFFFFF DUP2 GT ISZERO PUSH2 0x3046 JUMPI PUSH2 0x3045 PUSH2 0x27E3 JUMP JUMPDEST JUMPDEST PUSH2 0x3050 DUP3 SLOAD PUSH2 0x2D03 JUMP JUMPDEST PUSH2 0x305B DUP3 DUP3 DUP6 PUSH2 0x2F97 JUMP JUMPDEST PUSH1 0x0 PUSH1 0x20 SWAP1 POP PUSH1 0x1F DUP4 GT PUSH1 0x1 DUP2 EQ PUSH2 0x308E JUMPI PUSH1 0x0 DUP5 ISZERO PUSH2 0x307C JUMPI DUP3 DUP8 ADD MLOAD SWAP1 POP JUMPDEST PUSH2 0x3086 DUP6 DUP3 PUSH2 0x3008 JUMP JUMPDEST DUP7 SSTORE POP PUSH2 0x30EE JUMP JUMPDEST PUSH1 0x1F NOT DUP5 AND PUSH2 0x309C DUP7 PUSH2 0x2E78 JUMP JUMPDEST PUSH1 0x0 JUMPDEST DUP3 DUP2 LT ISZERO PUSH2 0x30C4 JUMPI DUP5 DUP10 ADD MLOAD DUP3 SSTORE PUSH1 0x1 DUP3 ADD SWAP2 POP PUSH1 0x20 DUP6 ADD SWAP5 POP PUSH1 0x20 DUP2 ADD SWAP1 POP PUSH2 0x309F JUMP JUMPDEST DUP7 DUP4 LT ISZERO PUSH2 0x30E1 JUMPI DUP5 DUP10 ADD MLOAD PUSH2 0x30DD PUSH1 0x1F DUP10 AND DUP3 PUSH2 0x2FEA JUMP JUMPDEST DUP4 SSTORE POP JUMPDEST PUSH1 0x1 PUSH1 0x2 DUP9 MUL ADD DUP9 SSTORE POP POP POP JUMPDEST POP POP POP POP POP POP JUMP JUMPDEST PUSH32 0x4F6E6C79207468652074656E616E74206F722070726F7065727479206F776E65 PUSH1 0x0 DUP3 ADD MSTORE PUSH32 0x722063616E2066696C65206120636F6D706C61696E7400000000000000000000 PUSH1 0x20 DUP3 ADD MSTORE POP JUMP JUMPDEST PUSH1 0x0 PUSH2 0x3152 PUSH1 0x36 DUP4 PUSH2 0x257E JUMP JUMPDEST SWAP2 POP PUSH2 0x315D DUP3 PUSH2 0x30F6 JUMP JUMPDEST PUSH1 0x40 DUP3 ADD SWAP1 POP SWAP2 SWAP1 POP JUMP JUMPDEST PUSH1 0x0 PUSH1 0x20 DUP3 ADD SWAP1 POP DUP2 DUP2 SUB PUSH1 0x0 DUP4 ADD MSTORE PUSH2 0x3181 DUP2 PUSH2 0x3145 JUMP JUMPDEST SWAP1 POP SWAP2 SWAP1 POP JUMP JUMPDEST PUSH32 0x55736572206E6F7420666F756E64000000000000000000000000000000000000 PUSH1 0x0 DUP3 ADD MSTORE POP JUMP JUMPDEST PUSH1 0x0 PUSH2 0x31BE PUSH1 0xE DUP4 PUSH2 0x257E JUMP JUMPDEST SWAP2 POP PUSH2 0x31C9 DUP3 PUSH2 0x3188 JUMP JUMPDEST PUSH1 0x20 DUP3 ADD SWAP1 POP SWAP2 SWAP1 POP JUMP JUMPDEST PUSH1 0x0 PUSH1 0x20 DUP3 ADD SWAP1 POP DUP2 DUP2 SUB PUSH1 0x0 DUP4 ADD MSTORE PUSH2 0x31ED DUP2 PUSH2 0x31B1 JUMP JUMPDEST SWAP1 POP SWAP2 SWAP1 POP JUMP JUMPDEST PUSH32 0x54656E616E74732063616E2774206164642070726F7065727469657300000000 PUSH1 0x0 DUP3 ADD MSTORE POP JUMP JUMPDEST PUSH1 0x0 PUSH2 0x322A PUSH1 0x1C DUP4 PUSH2 0x257E JUMP JUMPDEST SWAP2 POP PUSH2 0x3235 DUP3 PUSH2 0x31F4 JUMP JUMPDEST PUSH1 0x20 DUP3 ADD SWAP1 POP SWAP2 SWAP1 POP JUMP JUMPDEST PUSH1 0x0 PUSH1 0x20 DUP3 ADD SWAP1 POP DUP2 DUP2 SUB PUSH1 0x0 DUP4 ADD MSTORE PUSH2 0x3259 DUP2 PUSH2 0x321D JUMP JUMPDEST SWAP1 POP SWAP2 SWAP1 POP JUMP JUMPDEST PUSH1 0x0 DUP2 SWAP1 POP SWAP3 SWAP2 POP POP JUMP JUMPDEST PUSH1 0x0 PUSH2 0x3276 DUP3 PUSH2 0x2573 JUMP JUMPDEST PUSH2 0x3280 DUP2 DUP6 PUSH2 0x3260 JUMP JUMPDEST SWAP4 POP PUSH2 0x3290 DUP2 DUP6 PUSH1 0x20 DUP7 ADD PUSH2 0x258F JUMP JUMPDEST DUP1 DUP5 ADD SWAP2 POP POP SWAP3 SWAP2 POP POP JUMP JUMPDEST PUSH1 0x0 PUSH2 0x32A8 DUP3 DUP5 PUSH2 0x326B JUMP JUMPDEST SWAP2 POP DUP2 SWAP1 POP SWAP3 SWAP2 POP POP JUMP JUMPDEST PUSH32 0x50726F706572747920616C726561647920657869737473000000000000000000 PUSH1 0x0 DUP3 ADD MSTORE POP JUMP JUMPDEST PUSH1 0x0 PUSH2 0x32E9 PUSH1 0x17 DUP4 PUSH2 0x257E JUMP JUMPDEST SWAP2 POP PUSH2 0x32F4 DUP3 PUSH2 0x32B3 JUMP JUMPDEST PUSH1 0x20 DUP3 ADD SWAP1 POP SWAP2 SWAP1 POP JUMP JUMPDEST PUSH1 0x0 PUSH1 0x20 DUP3 ADD SWAP1 POP DUP2 DUP2 SUB PUSH1 0x0 DUP4 ADD MSTORE PUSH2 0x3318 DUP2 PUSH2 0x32DC JUMP JUMPDEST SWAP1 POP SWAP2 SWAP1 POP JUMP JUMPDEST PUSH32 0x54656E616E74732063616E6E6F7420696E697469617465206120636F6E747261 PUSH1 0x0 DUP3 ADD MSTORE PUSH32 0x6374000000000000000000000000000000000000000000000000000000000000 PUSH1 0x20 DUP3 ADD MSTORE POP JUMP JUMPDEST PUSH1 0x0 PUSH2 0x337B PUSH1 0x22 DUP4 PUSH2 0x257E JUMP JUMPDEST SWAP2 POP PUSH2 0x3386 DUP3 PUSH2 0x331F JUMP JUMPDEST PUSH1 0x40 DUP3 ADD SWAP1 POP SWAP2 SWAP1 POP JUMP JUMPDEST PUSH1 0x0 PUSH1 0x20 DUP3 ADD SWAP1 POP DUP2 DUP2 SUB PUSH1 0x0 DUP4 ADD MSTORE PUSH2 0x33AA DUP2 PUSH2 0x336E JUMP JUMPDEST SWAP1 POP SWAP2 SWAP1 POP JUMP JUMPDEST PUSH32 0x50726F7065727479206E6F7420666F756E640000000000000000000000000000 PUSH1 0x0 DUP3 ADD MSTORE POP JUMP JUMPDEST PUSH1 0x0 PUSH2 0x33E7 PUSH1 0x12 DUP4 PUSH2 0x257E JUMP JUMPDEST SWAP2 POP PUSH2 0x33F2 DUP3 PUSH2 0x33B1 JUMP JUMPDEST PUSH1 0x20 DUP3 ADD SWAP1 POP SWAP2 SWAP1 POP JUMP JUMPDEST PUSH1 0x0 PUSH1 0x20 DUP3 ADD SWAP1 POP DUP2 DUP2 SUB PUSH1 0x0 DUP4 ADD MSTORE PUSH2 0x3416 DUP2 PUSH2 0x33DA JUMP JUMPDEST SWAP1 POP SWAP2 SWAP1 POP JUMP JUMPDEST PUSH1 0x0 DUP2 PUSH1 0x60 SHL SWAP1 POP SWAP2 SWAP1 POP JUMP JUMPDEST PUSH1 0x0 PUSH2 0x3435 DUP3 PUSH2 0x341D JUMP JUMPDEST SWAP1 POP SWAP2 SWAP1 POP JUMP JUMPDEST PUSH1 0x0 PUSH2 0x3447 DUP3 PUSH2 0x342A JUMP JUMPDEST SWAP1 POP SWAP2 SWAP1 POP JUMP JUMPDEST PUSH2 0x345F PUSH2 0x345A DUP3 PUSH2 0x2508 JUMP JUMPDEST PUSH2 0x343C JUMP JUMPDEST DUP3 MSTORE POP POP JUMP JUMPDEST PUSH1 0x0 DUP2 SWAP1 POP SWAP2 SWAP1 POP JUMP JUMPDEST PUSH2 0x3480 PUSH2 0x347B DUP3 PUSH2 0x26A1 JUMP JUMPDEST PUSH2 0x3465 JUMP JUMPDEST DUP3 MSTORE POP POP JUMP JUMPDEST PUSH1 0x0 PUSH2 0x3492 DUP3 DUP8 PUSH2 0x344E JUMP JUMPDEST PUSH1 0x14 DUP3 ADD SWAP2 POP PUSH2 0x34A2 DUP3 DUP7 PUSH2 0x326B JUMP JUMPDEST SWAP2 POP PUSH2 0x34AE DUP3 DUP6 PUSH2 0x346F JUMP JUMPDEST PUSH1 0x20 DUP3 ADD SWAP2 POP PUSH2 0x34BE DUP3 DUP5 PUSH2 0x346F JUMP JUMPDEST PUSH1 0x20 DUP3 ADD SWAP2 POP DUP2 SWAP1 POP SWAP6 SWAP5 POP POP POP POP POP JUMP JUMPDEST PUSH32 0x596F752068617665206E6F20617574686F726974792E00000000000000000000 PUSH1 0x0 DUP3 ADD MSTORE POP JUMP JUMPDEST PUSH1 0x0 PUSH2 0x3506 PUSH1 0x16 DUP4 PUSH2 0x257E JUMP JUMPDEST SWAP2 POP PUSH2 0x3511 DUP3 PUSH2 0x34D0 JUMP JUMPDEST PUSH1 0x20 DUP3 ADD SWAP1 POP SWAP2 SWAP1 POP JUMP JUMPDEST PUSH1 0x0 PUSH1 0x20 DUP3 ADD SWAP1 POP DUP2 DUP2 SUB PUSH1 0x0 DUP4 ADD MSTORE PUSH2 0x3535 DUP2 PUSH2 0x34F9 JUMP JUMPDEST SWAP1 POP SWAP2 SWAP1 POP JUMP JUMPDEST PUSH32 0x4E487B7100000000000000000000000000000000000000000000000000000000 PUSH1 0x0 MSTORE PUSH1 0x11 PUSH1 0x4 MSTORE PUSH1 0x24 PUSH1 0x0 REVERT JUMPDEST PUSH1 0x0 PUSH2 0x3576 DUP3 PUSH2 0x26A1 JUMP JUMPDEST SWAP2 POP PUSH2 0x3581 DUP4 PUSH2 0x26A1 JUMP JUMPDEST SWAP3 POP DUP3 DUP3 ADD SWAP1 POP DUP1 DUP3 GT ISZERO PUSH2 0x3599 JUMPI PUSH2 0x3598 PUSH2 0x353C JUMP JUMPDEST JUMPDEST SWAP3 SWAP2 POP POP JUMP JUMPDEST PUSH32 0x4E6F742031352064617973206265666F72652074686520636F6E747261637420 PUSH1 0x0 DUP3 ADD MSTORE PUSH32 0x656E642064617465000000000000000000000000000000000000000000000000 PUSH1 0x20 DUP3 ADD MSTORE POP JUMP JUMPDEST PUSH1 0x0 PUSH2 0x35FB PUSH1 0x28 DUP4 PUSH2 0x257E JUMP JUMPDEST SWAP2 POP PUSH2 0x3606 DUP3 PUSH2 0x359F JUMP JUMPDEST PUSH1 0x40 DUP3 ADD SWAP1 POP SWAP2 SWAP1 POP JUMP JUMPDEST PUSH1 0x0 PUSH1 0x20 DUP3 ADD SWAP1 POP DUP2 DUP2 SUB PUSH1 0x0 DUP4 ADD MSTORE PUSH2 0x362A DUP2 PUSH2 0x35EE JUMP JUMPDEST SWAP1 POP SWAP2 SWAP1 POP JUMP INVALID LOG2 PUSH5 0x6970667358 0x22 SLT KECCAK256 0xF6 0xF 0x4F SIGNEXTEND REVERT 0xC7 0xBB 0xB1 MUL LOG2 PUSH6 0x1798B4C4A37D CODESIZE 0xB0 PUSH29 0x287DBE4BF4FF85E46FF662A264736F6C63430008120033000000000000 "
				},
				"gasEstimates": {
					"creation": {
						"codeDepositCost": "2785400",
						"executionCost": "27304",
						"totalCost": "2812704"
					},
					"external": {
						"ContractAdmin()": "2579",
						"addProperty(string,string)": "infinite",
						"blackList(address)": "2891",
						"complainUser(uint256,string)": "infinite",
						"complainUserManage(uint256,bool)": "31751",
						"contractComplainReasons(uint256)": "infinite",
						"contractInformations(uint256)": "infinite",
						"contractStart(address,string,string,uint256,uint256)": "infinite",
						"contractTerminate(uint256,bool,string)": "infinite",
						"contractTerminateManage(uint256,bool)": "53904",
						"contractTerminateReasons(uint256)": "infinite",
						"createUser(string,bool)": "infinite",
						"getBlackListStatus(address)": "2928",
						"propertyInformations(string)": "infinite",
						"userInformations(address)": "infinite"
					}
				},
				"methodIdentifiers": {
					"ContractAdmin()": "4e8abc87",
					"addProperty(string,string)": "e545248d",
					"blackList(address)": "4838d165",
					"complainUser(uint256,string)": "b387d778",
					"complainUserManage(uint256,bool)": "a5b5737c",
					"contractComplainReasons(uint256)": "80144bce",
					"contractInformations(uint256)": "cbd24093",
					"contractStart(address,string,string,uint256,uint256)": "eea57141",
					"contractTerminate(uint256,bool,string)": "f50d63ef",
					"contractTerminateManage(uint256,bool)": "4ef9d923",
					"contractTerminateReasons(uint256)": "e7c17d67",
					"createUser(string,bool)": "86584e27",
					"getBlackListStatus(address)": "59bf1abe",
					"propertyInformations(string)": "91e7f13a",
					"userInformations(address)": "16dd85da"
				}
			},
			"storageLayout": {
				"storage": [
					{
						"astId": 3,
						"contract": "contracts/RentContract.sol:RentMannagementSystem",
						"label": "ContractAdmin",
						"offset": 0,
						"slot": "0",
						"type": "t_address"
					},
					{
						"astId": 16,
						"contract": "contracts/RentContract.sol:RentMannagementSystem",
						"label": "blackList",
						"offset": 0,
						"slot": "1",
						"type": "t_mapping(t_address,t_bool)"
					},
					{
						"astId": 74,
						"contract": "contracts/RentContract.sol:RentMannagementSystem",
						"label": "userInformations",
						"offset": 0,
						"slot": "2",
						"type": "t_mapping(t_address,t_struct(User)23_storage)"
					},
					{
						"astId": 79,
						"contract": "contracts/RentContract.sol:RentMannagementSystem",
						"label": "propertyInformations",
						"offset": 0,
						"slot": "3",
						"type": "t_mapping(t_string_memory_ptr,t_struct(Property)32_storage)"
					},
					{
						"astId": 84,
						"contract": "contracts/RentContract.sol:RentMannagementSystem",
						"label": "contractInformations",
						"offset": 0,
						"slot": "4",
						"type": "t_mapping(t_uint256,t_struct(RentContract)49_storage)"
					},
					{
						"astId": 89,
						"contract": "contracts/RentContract.sol:RentMannagementSystem",
						"label": "contractComplainReasons",
						"offset": 0,
						"slot": "5",
						"type": "t_mapping(t_uint256,t_struct(ContractComplain)69_storage)"
					},
					{
						"astId": 94,
						"contract": "contracts/RentContract.sol:RentMannagementSystem",
						"label": "contractTerminateReasons",
						"offset": 0,
						"slot": "6",
						"type": "t_mapping(t_uint256,t_struct(ContractTerminater)58_storage)"
					}
				],
				"types": {
					"t_address": {
						"encoding": "inplace",
						"label": "address",
						"numberOfBytes": "20"
					},
					"t_bool": {
						"encoding": "inplace",
						"label": "bool",
						"numberOfBytes": "1"
					},
					"t_mapping(t_address,t_bool)": {
						"encoding": "mapping",
						"key": "t_address",
						"label": "mapping(address => bool)",
						"numberOfBytes": "32",
						"value": "t_bool"
					},
					"t_mapping(t_address,t_struct(User)23_storage)": {
						"encoding": "mapping",
						"key": "t_address",
						"label": "mapping(address => struct RentMannagementSystem.User)",
						"numberOfBytes": "32",
						"value": "t_struct(User)23_storage"
					},
					"t_mapping(t_string_memory_ptr,t_struct(Property)32_storage)": {
						"encoding": "mapping",
						"key": "t_string_memory_ptr",
						"label": "mapping(string => struct RentMannagementSystem.Property)",
						"numberOfBytes": "32",
						"value": "t_struct(Property)32_storage"
					},
					"t_mapping(t_uint256,t_struct(ContractComplain)69_storage)": {
						"encoding": "mapping",
						"key": "t_uint256",
						"label": "mapping(uint256 => struct RentMannagementSystem.ContractComplain)",
						"numberOfBytes": "32",
						"value": "t_struct(ContractComplain)69_storage"
					},
					"t_mapping(t_uint256,t_struct(ContractTerminater)58_storage)": {
						"encoding": "mapping",
						"key": "t_uint256",
						"label": "mapping(uint256 => struct RentMannagementSystem.ContractTerminater)",
						"numberOfBytes": "32",
						"value": "t_struct(ContractTerminater)58_storage"
					},
					"t_mapping(t_uint256,t_struct(RentContract)49_storage)": {
						"encoding": "mapping",
						"key": "t_uint256",
						"label": "mapping(uint256 => struct RentMannagementSystem.RentContract)",
						"numberOfBytes": "32",
						"value": "t_struct(RentContract)49_storage"
					},
					"t_string_memory_ptr": {
						"encoding": "bytes",
						"label": "string",
						"numberOfBytes": "32"
					},
					"t_string_storage": {
						"encoding": "bytes",
						"label": "string",
						"numberOfBytes": "32"
					},
					"t_struct(ContractComplain)69_storage": {
						"encoding": "inplace",
						"label": "struct RentMannagementSystem.ContractComplain",
						"members": [
							{
								"astId": 60,
								"contract": "contracts/RentContract.sol:RentMannagementSystem",
								"label": "contractID",
								"offset": 0,
								"slot": "0",
								"type": "t_uint256"
							},
							{
								"astId": 62,
								"contract": "contracts/RentContract.sol:RentMannagementSystem",
								"label": "userAddress",
								"offset": 0,
								"slot": "1",
								"type": "t_address"
							},
							{
								"astId": 64,
								"contract": "contracts/RentContract.sol:RentMannagementSystem",
								"label": "targetAddress",
								"offset": 0,
								"slot": "2",
								"type": "t_address"
							},
							{
								"astId": 66,
								"contract": "contracts/RentContract.sol:RentMannagementSystem",
								"label": "ComplainReason",
								"offset": 0,
								"slot": "3",
								"type": "t_string_storage"
							},
							{
								"astId": 68,
								"contract": "contracts/RentContract.sol:RentMannagementSystem",
								"label": "willApprove",
								"offset": 0,
								"slot": "4",
								"type": "t_address"
							}
						],
						"numberOfBytes": "160"
					},
					"t_struct(ContractTerminater)58_storage": {
						"encoding": "inplace",
						"label": "struct RentMannagementSystem.ContractTerminater",
						"members": [
							{
								"astId": 51,
								"contract": "contracts/RentContract.sol:RentMannagementSystem",
								"label": "contractID",
								"offset": 0,
								"slot": "0",
								"type": "t_uint256"
							},
							{
								"astId": 53,
								"contract": "contracts/RentContract.sol:RentMannagementSystem",
								"label": "userAddress",
								"offset": 0,
								"slot": "1",
								"type": "t_address"
							},
							{
								"astId": 55,
								"contract": "contracts/RentContract.sol:RentMannagementSystem",
								"label": "TerminationReason",
								"offset": 0,
								"slot": "2",
								"type": "t_string_storage"
							},
							{
								"astId": 57,
								"contract": "contracts/RentContract.sol:RentMannagementSystem",
								"label": "willApprove",
								"offset": 0,
								"slot": "3",
								"type": "t_address"
							}
						],
						"numberOfBytes": "128"
					},
					"t_struct(Property)32_storage": {
						"encoding": "inplace",
						"label": "struct RentMannagementSystem.Property",
						"members": [
							{
								"astId": 25,
								"contract": "contracts/RentContract.sol:RentMannagementSystem",
								"label": "ownerAddress",
								"offset": 0,
								"slot": "0",
								"type": "t_address"
							},
							{
								"astId": 27,
								"contract": "contracts/RentContract.sol:RentMannagementSystem",
								"label": "propertyAddress",
								"offset": 0,
								"slot": "1",
								"type": "t_string_storage"
							},
							{
								"astId": 29,
								"contract": "contracts/RentContract.sol:RentMannagementSystem",
								"label": "propertyType",
								"offset": 0,
								"slot": "2",
								"type": "t_string_storage"
							},
							{
								"astId": 31,
								"contract": "contracts/RentContract.sol:RentMannagementSystem",
								"label": "contractValidityStatus",
								"offset": 0,
								"slot": "3",
								"type": "t_bool"
							}
						],
						"numberOfBytes": "128"
					},
					"t_struct(RentContract)49_storage": {
						"encoding": "inplace",
						"label": "struct RentMannagementSystem.RentContract",
						"members": [
							{
								"astId": 34,
								"contract": "contracts/RentContract.sol:RentMannagementSystem",
								"label": "ownerAddress",
								"offset": 0,
								"slot": "0",
								"type": "t_address"
							},
							{
								"astId": 36,
								"contract": "contracts/RentContract.sol:RentMannagementSystem",
								"label": "tenantAddress",
								"offset": 0,
								"slot": "1",
								"type": "t_address"
							},
							{
								"astId": 38,
								"contract": "contracts/RentContract.sol:RentMannagementSystem",
								"label": "propertyAddress",
								"offset": 0,
								"slot": "2",
								"type": "t_string_storage"
							},
							{
								"astId": 40,
								"contract": "contracts/RentContract.sol:RentMannagementSystem",
								"label": "propertyType",
								"offset": 0,
								"slot": "3",
								"type": "t_string_storage"
							},
							{
								"astId": 42,
								"contract": "contracts/RentContract.sol:RentMannagementSystem",
								"label": "contractStartDate",
								"offset": 0,
								"slot": "4",
								"type": "t_uint256"
							},
							{
								"astId": 44,
								"contract": "contracts/RentContract.sol:RentMannagementSystem",
								"label": "contractFinishDate",
								"offset": 0,
								"slot": "5",
								"type": "t_uint256"
							},
							{
								"astId": 46,
								"contract": "contracts/RentContract.sol:RentMannagementSystem",
								"label": "validityStatus",
								"offset": 0,
								"slot": "6",
								"type": "t_bool"
							},
							{
								"astId": 48,
								"contract": "contracts/RentContract.sol:RentMannagementSystem",
								"label": "earlyTerminate",
								"offset": 1,
								"slot": "6",
								"type": "t_bool"
							}
						],
						"numberOfBytes": "224"
					},
					"t_struct(User)23_storage": {
						"encoding": "inplace",
						"label": "struct RentMannagementSystem.User",
						"members": [
							{
								"astId": 18,
								"contract": "contracts/RentContract.sol:RentMannagementSystem",
								"label": "Name",
								"offset": 0,
								"slot": "0",
								"type": "t_string_storage"
							},
							{
								"astId": 20,
								"contract": "contracts/RentContract.sol:RentMannagementSystem",
								"label": "UserAddress",
								"offset": 0,
								"slot": "1",
								"type": "t_address"
							},
							{
								"astId": 22,
								"contract": "contracts/RentContract.sol:RentMannagementSystem",
								"label": "isOwner",
								"offset": 20,
								"slot": "1",
								"type": "t_bool"
							}
						],
						"numberOfBytes": "64"
					},
					"t_uint256": {
						"encoding": "inplace",
						"label": "uint256",
						"numberOfBytes": "32"
					}
				}
			},
			"userdoc": {
				"kind": "user",
				"methods": {},
				"version": 1
			}
		}
	}
}